:020000040000FA
:10000000B8160010D5000000D1450000D34500000F
:10001000D7450000DB450000DF4500000000000080
:10002000000000000000000000000000E3450000A8
:10003000E545000000000000770F0000931000006D
:10004000EB000000EB000000EB000000EB00000004
:10005000EB000000EB000000EB000000EB000000F4
:10006000EB000000EB000000EB000000EB000000E4
:10007000EB000000EB000000EB000000EB000000D4
:10008000EB000000EB0000008B0A0000C10A00003A
:10009000EB000000C9070000EB000000EB000000CF
:1000A000EB000000EB000000EB000000EB000000A4
:1000B0004104000013040000E5030000B703000042
:1000C0000348854604F0C0FC004800475342000046
:1000D000B816001005480047FEE7FEE7FEE7FEE71A
:1000E000FEE7FEE7FEE7FEE7FEE7FEE7C1000000F1
:1000F0003049314A11600121304A116051600021BC
:1001000051600121516000BF2C494968C907C90FDE
:10011000FAD02A4940398868400A40020321014345
:10012000264A403A91602649896B80229143244AAD
:10013000916300BF21494039C968C907C90FF9D087
:1001400003211E4A116301215163002151630121E2
:10015000516300BF1949496BC907C90FFAD0012182
:10016000164A9163144909688900164A11601146BC
:100170000968154A1160704700B502200F494039DF
:100180000860002008620E48806B202188430C49DB
:100190008863002300E05B1CFF2BFCD9FFF7A8FF5E
:1001A00006484030006801210904084303494031F2
:1001B000086000BD001BB700000000104080044034
:1001C00000820440040000100800001000BF1E4917
:1001D000496920221142FAD01B490860704710B5C6
:1001E00003460C461846FFF7F1FF10BD00BF174845
:1001F00000680028FBD006201349486000201349FE
:10020000086007201049486011480078704710B511
:100210000446FFF7EBFF0346FFF7D8FF10BD00B51C
:1002200003461846FFF7D2FF00BD01460020C04339
:10023000704700BFFEE700BF03484069C007C00F1A
:10024000FAD001480068704700800040300000107C
:10025000B000001010B500220321104600F081FA12
:1002600000220421012000F07CFA00220821012054
:1002700000F077FA00220921012000F072FA002232
:100280000A21012000F06DFA00220B21012000F06C
:1002900068FA10BD10B50821012000F059FA0028B5
:1002A00001D1012010BD0921012000F051FA0028E0
:1002B00001D10220F6E70A21012000F049FA0028C6
:1002C00001D10320EEE70B21012000F041FA0028C4
:1002D00001D10420E6E70321002000F039FA0028CC
:1002E00001D10520DEE70421012000F031FA0028C9
:1002F00001D10620D6E70020D4E77047FFFFFFFFBB
:10030000002806D001280CD0022812D0032820D1C2
:1003100017E0FB4AD26901238B401A43F84BDA619C
:1003200018E0F84AD26901238B401A43F54BDA6191
:1003300010E0F54AD26901238B401A43F24BDA618F
:1003400008E0F24AD26901238B401A43EF4BDA618D
:1003500000E000BF00BF704710B502460020002A31
:1003600006D0012A0CD0022A12D0032A20D117E08D
:10037000E34B9B6901248C40234200D0012018E00C
:10038000E04B9B6901248C40234200D0012010E007
:10039000DD4B9B6901248C40234200D0012008E002
:1003A000DA4B9B6901248C40234200D0012000E0FD
:1003B00000BF00BF10BD10B5D5480068401CD4492F
:1003C000086001210020FFF7C7FF0446002C08D079
:1003D000D0480068401CCF49086001210020FFF789
:1003E0008FFF10BD10B5CC480068401CCA4908609A
:1003F00001210846FFF7B0FF0446002C08D0C7488B
:100400000068401CC549086001210846FFF778FFD5
:1004100010BD10B5C2480068401CC14908600121E8
:100420000220FFF799FF0446002C08D0BD48006861
:10043000401CBC49086001210220FFF761FF10BD8C
:1004400010B5B9480068401CB74908600121032075
:10045000FFF782FF0446002C08D0B4480068401C17
:10046000B249086001210320FFF74AFF10BD10B513
:10047000AF48006840210843AD4908601F2000F0E4
:1004800097F91E2000F094F91D2000F091F91C202E
:1004900000F08EF910BD70B5049C002806D001282C
:1004A00038D002286AD003287BD19CE0002A18D1DA
:1004B000934D6D6801268E40B543914E7560002BBB
:1004C00007D13546AD6801268E40B5438C4EB560E8
:1004D0000EE08B4DAD6801268E403543884EB560E9
:1004E00006E0874D6D6801268E403543844E756069
:1004F000002C07D1824DED6801268E40B543804E19
:10050000F56006E07E4DED6801268E4035437C4E59
:10051000F5609DE0002A18D17A4D6D6801268E4065
:10052000B543784E7560002B07D13546AD6801267E
:100530008E40B543734EB5600EE0724DAD68012636
:100540008E4035436F4EB56006E06E4D6D680126F6
:100550008E4035436B4E7560002C07D1694DED68B8
:1005600001268E40B543674EF56006E0654DED68A7
:1005700001268E403543634EF56069E0002A19D1AB
:10058000614D6D6801268E40B5435F4E7560002B4E
:1005900008D13546AD6801268E40B5435A4EB56048
:1005A0000FE054E0584DAD6801268E403543564E5D
:1005B000B56006E0544D6D6801268E403543524EBD
:1005C0007560002C07D1504DED6801268E40B54373
:1005D0004D4EF56006E04C4DED6801268E403543EA
:1005E000494EF56034E0002A18D1484D6D68012667
:1005F0008E40B543454E7560002B07D13546AD683A
:1006000001268E40B543414EB5600EE03F4DAD68CA
:1006100001268E4035433D4EB56006E03B4D6D688A
:1006200001268E403543394E7560002C07D1374D79
:10063000ED6801268E40B543344EF56006E0334D3B
:10064000ED6801268E403543304EF56000E000BF76
:1006500000BF70BD002806D001280CD0022812D09F
:10066000032820D117E0264A126901238B401A4340
:10067000234B1A6118E0234A126901238B401A4365
:10068000204B1A6110E0204A126901238B401A4363
:100690001D4B1A6108E01D4A126901238B401A4361
:1006A0001A4B1A6100E000BF00BF7047002806D057
:1006B00001280CD0022812D003283BD117E0104AA1
:1006C000126901238B409A430D4B1A6133E00D4AA6
:1006D000126901238B409A430A4B1A612BE00A4AA4
:1006E000126901238B409A43074B1A6123E0074AA2
:1006F000136901228A409343044A13611BE00000FE
:1007000000800050008001500080025000800350A3
:100710000C00001010000010140000101800001051
:100720001C00001020000010240000102800001001
:100730008080044000BF00BF704730B513468B4037
:1007400084001F4D2D5901248C40A4002B5130BD35
:10075000024690001A4B1B58012088408000185810
:10076000704730B5002A11D08300154CE35801249E
:10077000E4031B191B6801248C4023438400104DA3
:100780002C590125ED036419236010E083000C4C03
:10079000E3580124E4031B191B6801248C40A34384
:1007A0008400074D2C590125ED036419236030BDE9
:1007B000C206D20E01219140024A1160704700002A
:1007C0004858000000E100E070B500BF864A92681A
:1007D000D0B240104007400F032820D1824A52690E
:1007E000D1B29E22114205D0804A11607E4A126821
:1007F000D3B270BDCA07D20F3ED07B4C2468E5B29D
:100800007B4C2268541C7A4E34607A4CA554324694
:100810001268402A30D30022344622602CE002289D
:1008200011D1714C2468E5B2714C2268541C704E91
:100830003460704CA55432461268402A1CD3002202
:100840003446226018E0062807D1684A1268FF245F
:1008500001342243654C22600EE001280CD1624A2B
:100860005269D1B22022114203D00122624C22707F
:1008700002E00022604C227000BFBAE7F8B50446DF
:1008800001205D49087000205949086000BF15200B
:10089000012181405948016000BF5948406AC008A1
:1008A000C000574948620846406A0121084354493C
:1008B00048620846806AC008C00088620846806AAC
:1008C000012108434E4988624E480068012109030E
:1008D00008434C4908600120886183204249C86070
:1008E0004848876939464848006803F0A3FE06096E
:1008F0002146304603F09EFE0546280A3A494860E4
:10090000E8B208600320C86007208860084647698D
:1009100000BF35484069602108406028F9D101E0F6
:100920003148076830484069C007C00FF8D100BFA0
:1009300015200121814031488038016000BF052029
:1009400029494860F8BD0AE000BF274A52692023C0
:100950001A42FAD00278244B1A60401C491E002922
:10096000F2D1704700BF2049496920221142FAD0D4
:100970001D490860704700B5034603E018785B1C0A
:10098000FFF7F0FF18780028F8D100BD0FB400B5CC
:100990009BB01DA80090642101A8009B1C9A04F044
:1009A0000BF901A8FFF7E7FF1BB008BC04B018471C
:1009B0000146164800680E4A1268904211D00D4850
:1009C000124A1268805C087010480068401C0F4A88
:1009D000106010460068402801D3002010600120FC
:1009E00070470020FCE70000008000403800001045
:1009F00030000010B00000102C00001080E100E07A
:100A00008040044080800440080000103400001042
:100A100070B504460D46002C1AD10220F8494860F2
:100A20000020C8607D21C900F648006803F002FE7E
:100A30006843F3498861FF20086004204861012071
:100A4000486000BFEE484068C007C00FFAD11BE005
:100A5000012C19D10220EC4948600020C8607D219A
:100A6000C900E848006803F0E5FD6843E64988618D
:100A7000FF200860042048610120486000BFE24870
:100A80004068C007C00FFAD170BDDD480068C007DC
:100A9000C00F07D00120DA490860DC480068401C1C
:100AA000DA490860D64800681021084207D01020B3
:100AB000D3490860D6480068401CD5490860704793
:100AC000D1480068C007C00F07D00120CE49086098
:100AD000D0480068401CCF490860CB48006810210E
:100AE000084207D01020C8490860CB480068401C65
:100AF000C94908607047002803D10121C04A5160EC
:100B000002E00121C04A51607047002803D1002152
:100B1000BB4A516002E00021BB4A51607047014668
:100B2000002906D1B64A506802221043B44A5060E8
:100B300005E0B54A506802221043B34A506070473E
:100B400070B504460D46002C47D1B4480068012119
:100B500049020843B1490860B148006AC008C000B2
:100B6000AF4908620846006A02210843AC4908629E
:100B70000846406AC008C00048620846406A022130
:100B80000843A74948620846806AC008C0008862D6
:100B90000846806A02210843A1498862A04880383B
:100BA0000069C008C0009E49803908610846006994
:100BB000022108439A49803908610020934908605E
:100BC000934908608E48856105208D49886203201D
:100BD0004861122000F05BF922E0012C20D18F48FF
:100BE0000068A10208438D4908608D484069C0082B
:100BF000C0008B4948610846406902210843884982
:100C00004861002083490860834908607E48856107
:100C100005207D49886203204861132000F037F9E0
:100C200070BD70B504460D46002C12D17B4800689B
:100C3000012149020843794908600020734908608E
:100C40006F48856103206E494861122000F01FF94A
:100C500012E0012C10D171480068A10208436F49CD
:100C6000086000206B490860674885610320664979
:100C70004861132000F00BF970BD30B505460C46F5
:100C800013462846FFF741FF012D62D163480068F3
:100C9000A902084361490860B320C00018435A49BB
:100CA000C863D807C00F0ED05D484038C06BC0087D
:100CB000C0005B494039C8630846C06B0321084344
:100CC00057494039C863022003420BD0544800689A
:100CD000C008C00052490860084600680321084364
:100CE0004F490860042003420BD04D480069C008FA
:100CF000C0004B4908610846006903210843484980
:100D00000861082003420BD045484069C008C00074
:100D10004349486108464069022108434049486107
:100D2000082018433849403148633E480460006851
:100D3000354948623B480068400888613948006886
:100D40004008C861374800684008086208154861D3
:100D500055E0324800680121490208432F490860E4
:100D6000CB20C00018432649C863022003420BD0A1
:100D70002B48806AC008C000294988620846806AFA
:100D80000221084326498862042003420ED02448E9
:100D900080380069C008C0002149803908610846D0
:100DA0000069022108431E49803908610820034276
:100DB0000ED01B484038406BC008C000184940396D
:100DC00048630846406B032108431549403948638E
:100DD000082018430A4940314863134804600068FA
:100DE000074948621048006888610F480068400859
:100DF000C8610D480068400808620815486130BDA8
:100E00000040014008000010008001404400001034
:100E10004C0000104800001050000010808004407A
:100E2000804004405800001054000010002816D0E4
:100E3000002906D0012907D0022908D003290CD1A6
:100E400008E0164B9A6109E0144BDA6106E0134B97
:100E50001A6203E0114B5A6200E000BF16E000295D
:100E600006D0012907D0022908D003290CD108E0B7
:100E70000B4B9A6109E00A4BDA6106E0084B1A62F3
:100E800003E0074B5A6200E000BF00BF7047C20694
:100E9000D20E01219140034A116070470080014049
:100EA0000040014000E100E010B5012209210220CC
:100EB000FFF757FC012209210220FFF73EFC012227
:100EC0000A210220FFF74DFC01220A210220FFF730
:100ED00034FC01220B210220FFF743FC10BD70B54A
:100EE0000446202C01DBFF2403E0E006C00E11497C
:100EF0000C5C002209210220FFF71FFC002511E0F5
:100F000000220A210220FFF718FCE207D20F0B2172
:100F10000220FFF712FC641001220A210220FFF7D1
:100F20000CFC6D1C082DEBD3012209210220FFF7D8
:100F300004FC70BD68580000EFF3108072B6704773
:100F400080F31088704723480168234A11430160E9
:100F5000002080F30988214801210170204821499F
:100F6000016062B6FEE71E481E49016070471C48DA
:100F70001C490160704772B6EFF3098000280AD05F
:100F80002038F0C041464A4653465C461EC02038D1
:100F9000154909680860704601B41448804701BCCF
:100FA0008646134813490A7802700F4812490A68A6
:100FB00002601068F0C80EC8884691469A4602C87A
:100FC0008B4680F30988704604210843864662B642
:100FD0007047FEE720ED00E00000FF007C000010FD
:100FE00004ED00E000000010840000108D100000EF
:100FF00077000010780000108C00001070477047D8
:10100000704770477047704770B504461046012519
:101010002D060560051F28462C600126F643051F96
:1010200028462E60314E051F28462E60304E051F83
:1010300028462E602F4E051F28462E607610051F6D
:1010400028462E60051F284629602B4E051F28467E
:101050002E602A4E051F28462E60294E051F284661
:101060002E60284E051F28462E60274E051F284655
:101070002E60264E051F28462E60254E051F284649
:101080002E60244E051F28462E6070BD70477047A5
:10109000704710B5FFF750FF04461F480078401C0A
:1010A0001D4908702046FFF74BFF00F019FD00F0C6
:1010B00013FC10BD1948411E194A5161002191616C
:1010C0001849086A0002000AC90508431549086260
:1010D0001146096905221143114A11611146096936
:1010E000022211430E4A11617047000012121212BF
:1010F0000303030302020202111111111010101058
:101100000909090908080808070707070606060667
:1011100005050505040404047500001000530700CC
:1011200000E000E000ED00E00146002002E0491C84
:10113000421CD0B20A78002AF9D17047F8B50546AA
:101140000E4614460027FB480078002803D01120E3
:1011500020700020F8BD2878012808D0022807D088
:10116000032802D0042804D100E000BF00BF00BF64
:1011700003E0012020700020ECE700BFFFF7DCFE59
:101180000746E86A30603068FFF7CEFF00903846C7
:10119000FFF7D6FE002020700098DBE7F8B5054683
:1011A0000E4614460027E3480078002802D012209B
:1011B0002070F8BD2878012808D0022807D003281D
:1011C00002D0042804D100E000BF00BF00BF02E04D
:1011D00001202070EDE700BFFFF7AEFE0746EE628C
:1011E0003846FFF7ADFE0020207000BFE1E7FCB5F8
:1011F00002463825AC5C958F0195558F00950B46BE
:10120000186814E0660005460C35AD5B009EB543DA
:10121000660007460C37BD5366003D46AD5B002DAA
:1012200003D14589019EB54345811B1D18680028DF
:10123000E8D1FCBD10B5C04A12881206120E05D0C6
:10124000BD4A1288D2B2BD4B985C06E0BA4A1288F9
:101250001212BA4B9A5C0832D0B24200B84BD11885
:101260000A881206120E08D002010B88DBB2B34CBA
:10127000E35CD218B34B1A7008E003010A8812121B
:10128000AE4CA25C9A180832AE4B1A7010BD10B565
:101290000024FFF751FE0446A6480078002820D11C
:1012A000A948007800281CD1FFF7C4FFA5480078A2
:1012B0008000A6490858A6490860A2480078A549B8
:1012C000097888420DD0A2480068006C401CA049F3
:1012D00009680864A0480068401C9F490860FFF73F
:1012E00042FE2046FFF72CFE10BD70B501460024DB
:1012F0009A4D2D68EC61994C246821620B46186860
:101300001BE0964C24682034247E650004460C348F
:10131000645B924D2D686D8F2C43904D2D68203568
:101320002D7E6E0005460C35AC5344898B4D2D68DF
:10133000AD8F2C4344811B1D18680028E1D1874CD8
:1013400024682034227E54007D4D2C5B834D2D6813
:101350006D8FAC4355007A4E7453540035462C5B68
:10136000002C07D17D4C2468A58F734C2488AC4396
:10137000714D2C8070BDFFB585B00E46154600201E
:1013800000903060059804900498046817E0237872
:1013900003F03BFC060705060408090709E008E01E
:1013A00007E000BF00BF01210E980170002009B0C6
:1013B000F0BD00BF0498001D049004980468002C40
:1013C000E5D15C480078002804D002210E98017015
:1013D0000020ECE75C480078002804D00D210E982E
:1013E00001700020E3E7FFF7A7FD009000200390C5
:1013F00002900190059804900498046860E02378B6
:1014000003F003FC064C192D044D4E4C2089002896
:101410000CD02089401E208110C60120039000209E
:1014200001C50298401C80B2029003E0012101989E
:10143000084301903EE0606800280BD0606801C559
:101440000020606010C6012003900298401C80B20A
:10145000029003E002210198084301902AE06768A6
:10146000F88A002815D03969081D3861086801C557
:10147000B9683869884201D178683861F88A401EB5
:10148000F88210C6012003900298401C80B202909E
:1014900003E004210198084301900BE000BF00BF66
:1014A0000098FFF74DFD0020306001210E9801707B
:1014B00002987CE700BF0498001D0490049804681B
:1014C000002C9CD10398012809D10020306000989D
:1014D000FFF736FD00210E980170029867E71F485C
:1014E00000682030017D80220198104308431B4989
:1014F00009682031087500211848006820304175BE
:1015000016490898096808630598FFF7EEFE0098E9
:10151000FFF716FDFFF7BBFEFFF70EFD00900F482B
:1015200000682030407D00281AD0012832D00228DF
:101530002FD116E0750000107A00001088580000C6
:101540002004001078000010760000104005001004
:101550008C000010770000105C0000108400001068
:1015600000BFFB480068C469002C07D010C60020EB
:1015700030600298401C80B2029009E00121F448DA
:10158000006820304175F24805990068FFF72FFE8A
:1015900006E000BFEE4805990068FFF728FE00BF8F
:1015A00000BFEB4800682030407D002804D00128AF
:1015B0002AD0022827D120E0237803F026FB060D4D
:1015C0000708040E0F0D002001C511E000BFE04820
:1015D0000068406A01C50BE000BF00BF0098FFF73C
:1015E000AFFC0020306001210E9801700298DEE609
:1015F00000BF00210E9801700CE0002001C50E21F3
:101600000E98017006E000BF002001C50A210E9867
:10161000017000BF00BF0021CD4800682030017577
:10162000CB480068203041750020C9490968C8616D
:10163000C74909680862C649096848620098FFF707
:101640007FFC0298B3E67CB5002516E06946284683
:1016500002F004FB0646002E0DD1A800BD490C582F
:10166000002C08D0012C06D0E1688900A068401841
:10167000E06401982065681CC5B2FC2DE6D97CBDEC
:10168000002400BF02E0142002F0F2FBB248007810
:101690000028F8D06421B148006802F0CBFFAF49C0
:1016A000086008460068002804D1AD490870FF2092
:1016B00002F015FB00BFFFF73FFC0446A948006895
:1016C000A94908600020A74908602046FFF738FCB8
:1016D000A2480168A448006802F0ACFF6421081A1F
:1016E0009F490870FFF78FFCFFF7ADFF0A2002F05B
:1016F000BFFBE0E700B587B00323002240219B48F1
:10170000049301AB07C39A4B0093FB230246FC32C0
:101710000021984802F0B1F806AA97A1FB2002F038
:1017200019FA07B000BD002400BF00BFFFF704FC9A
:1017300004468C480068401C8A4908602046FFF730
:10174000FFFBFFF75FFCF1E700B587B00323002242
:1017500040218D48049301AB07C3854B5B1C00936C
:10176000FC23C2180021894802F087F806AA88A144
:10177000FC2002F0EFF907B000BD04E00022027087
:10178000401C4A1E91B20029F8D1704770B5FF2164
:10179000E1318348FFF7F1FF00240FE0601C85B2C0
:1017A000302060437E4943183020684346180020AB
:1017B00018705E607BA0D862601C84B2092CEDD3E7
:1017C000302060437649431800201870586075A097
:1017D000D86208467449086070BD70B5452109019A
:1017E0007248FFF7CAFFFD2189005A48FFF7C5FF7D
:1017F00000240DE0601CC5B25C2060436B494318B7
:101800005C20684346185E6166A05865601CC4B2DF
:101810000B2CEFD35C2060436449431800205861CF
:1018200060A058650020624908606048614908600E
:1018300070BD0021604A1180002005E000214200B7
:101840005E4B9952411CC8B21028F7D300215C4A64
:1018500011705C4A11705C4A11603D4A116070471A
:1018600000205A4908605A4908705A4908705A4974
:1018700008705A4908705A4908603A4908603A495C
:1018800008603649086034490870704710B5FFF7A2
:10189000B5FBFFF7E5FFFFF7CCFFFFF79EFFFFF774
:1018A00075FF00F0EBFE01F0D6F901F0C8FCFFF780
:1018B0004BFFFFF71FFFFFF7A2FB10BD4748007863
:1018C000012808D142480078FF2804D24048007817
:1018D000401C3F490870704710B500243F4800780D
:1018E000012833D1FFF728FB044639480078002847
:1018F00004D037480078401E3549087034480078D5
:10190000002820D13348007800281CD1FFF792FC32
:101910002C48007880000F4908582B490860294856
:1019200000782749097888420DD027480068006C64
:10193000401C25490968086429480068401C28495A
:101940000860FFF714FB2046FFF7FAFA10BD00000D
:101950008400001040050010740000106C0000109E
:1019600068000010800000107000001020030010BC
:10197000FEFF00008116000075432F4F532D49498B
:101980002053746174000000400400102717000009
:1019900075432F4F532D49492049646C6500000061
:1019A000F00000103F00000060000010340900103B
:1019B00090000010880000107A0000102004001031
:1019C00077000010780000108C000010A0000010BC
:1019D00075000010760000107D0000107C000010E3
:1019E0005C00001010B50024FF480078012812D1D7
:1019F000FFF7A2FA0446FD480078002808D1FC4809
:101A00000078FF2804D2FA480078401CF849087092
:101A10002046FFF795FA10BD10B50024F248007873
:101A2000012824D1FFF788FA0446F14800780028FD
:101A30001AD0EF480078401EED490870084600783B
:101A400000280DD1E9480078002805D12046FFF78D
:101A500077FAFFF71CFC0AE02046FFF771FA06E070
:101A60002046FFF76DFA02E02046FFF769FA10BD45
:101A700010B5DD480078002812D1FFF7DBFBDD4808
:101A80000078DD490870DB4800788000DB490858A1
:101A9000DB49086008460068DA490860FFF753FA36
:101AA00010BD10B50024022002F0E2F9FFF744FA5D
:101AB00004460020D44908602046FFF741FA0A2076
:101AC00002F0D6F9FFF738FA0446CF480068CF494C
:101AD00008600120CE4908702046FFF731FA10BD9A
:101AE00070B50026FFF7D4FAFFF726FA0646C94874
:101AF0000068401CC74908603046FFF721FABA4821
:101B0000007801285AD1C4480078002804D0012860
:101B100004D0022809D103E001250BE0002509E0EB
:101B200001250120BC49087004E001250020BA49C4
:101B3000087000BF00BF002D00D170BDB748046819
:101B400038E0FFF7F9F90646206B00282ED0206B0D
:101B5000401E2063206B002828D13420005D3721EF
:101B6000084209D03420005DC821084034210855BE
:101B700001213520015502E0002135200155342096
:101B8000005D0821084211D1A08FA54909880843AA
:101B9000A34908803820005D4000A249085A618F9F
:101BA00008433821095D49009E4A50526469304615
:101BB000FFF7C6F93620005DFC28C2D100BFBCE7A4
:101BC000FF2024307047704730B538231A5C54002A
:101BD0000B460C331B5B448FA34355000C460C345F
:101BE000635354000B460C331B5B002B03D14B8912
:101BF000848FA3434B8130BDFFB582B00546688911
:101C00000006000E04D06889C0B287490E5C05E06A
:101C1000688900128449085C0830C6B27100284601
:101C20000C300F1838880006000E05D03888C0B276
:101C30007D49085C019006E0388800127A49085C0A
:101C40000830C0B20190310101980818C0B200906C
:101C50000098800069490C58002020630398606256
:101C60003420005D049988433421085535210598B6
:101C700008553420005D082108420DD1A08F684925
:101C8000098808436649088070006649085A618FD0
:101C900008437100634A505229462046FFF794FFDB
:101CA000206A002804D02046216AFFF7A0FAE561E7
:101CB000009806B0F0BD10B5524A1268D061514A82
:101CC00012682032127E530002460C32D25A4D4B1B
:101CD0001B685B8F1A434B4B1B6820331B7E5C00D9
:101CE00003460C331A534289464B1B689B8F1A4399
:101CF0004281444A12682032117E4A00494B9A5A66
:101D0000404B1B685B8F9A434B00464CE2524A00A3
:101D100023469A5A002A07D13A4A1268938F404ABA
:101D200012889A433E4B1A8010BD10B5014600221E
:101D30004A81002006E0002344000A460C32135377
:101D4000421CD0B21028F6D310BD05E00B7803700A
:101D5000491C401C531E9AB2002AF7D17047FFB5A8
:101D600081B005460F4600200090FFF7E5F800908F
:101D70002E480468002C7ED02C49606908600098C9
:101D8000FFF7DEF827603620055500213420015585
:101D900035200155002020630B9860600A98E060B0
:101DA0000398A0600C982082049860823E20015520
:101DB0002811382108552807000F372108553820E9
:101DC000015D01208840A0873720015D0120884007
:101DD00060870020E0612062A06260622064A064ED
:101DE0006064E064206523E07C0000107500001052
:101DF00076000010780000107700001040050010F9
:101E00008C00001084000010800000106C00001096
:101E100074000010A000001094000010900000104A
:101E20007A0000102004001088580000880000107C
:101E300025A06065002606E00021B200204658304B
:101E40008150701CC6B2002EF6D02046FFF71FF955
:101E50002046FFF7D5F8FFF76FF80090A8001B4960
:101E60000C501B48006860610020A06118480068A1
:101E7000002804D000E021E015480068846114487F
:101E80000460A08F1349098808431249088038204C
:101E9000005D40001049085A618F08433821095DF0
:101EA00049000D4A50520D480078401C0B490870FB
:101EB0000098FFF745F8002005B0F0BD0098FFF747
:101EC0003FF84220F8E700003F0000004005001006
:101ED000900000107A000010200400107D00001017
:101EE000FFB583B004460F461E46002000902078C0
:101EF000052804D001203070002007B0F0BD8021FB
:101F00000598084002900298002805D0059888435B
:101F100005900120019001E0002001900020307028
:101F2000FFF70AF800900598002828D0012838D03B
:101F3000022802D0032846D110E0A5683D40BD42EA
:101F400006D10198012805D1A068A843A06001E04E
:101F5000702030700098FEF7F3FF3BE0A5683D402D
:101F6000002D06D00198012805D1A068A843A060E3
:101F700001E0702030700098FEF7E2FF2AE03D4655
:101F8000A0688543BD4206D10198012805D1A0680B
:101F90002843A06001E0702030700098FEF7D0FF69
:101FA00018E03D46A0688543002D06D00198012821
:101FB00005D1A0682843A06001E07020307000982F
:101FC000FEF7BEFF06E00098FEF7BAFF00256F207F
:101FD000307000BF00BF28468FE7F8B506460D46B3
:101FE0000027F9480078002803D01020287000202E
:101FF000F8BDFEF7A1FF0746F4480468002C10D096
:1020000000684068F149086005202070A660002043
:102010006060EFA0E0603846FEF792FF0020287075
:1020200004E03846FEF78CFF722028702046DFE778
:1020300030B501464A680868002A06D1CC6860605D
:10204000002806D00025456003E01060002800D07D
:1020500042608B6800259D6230BDF0B506460F4694
:10206000B46800202063E7623420005DDF2108406F
:10207000342108550021352001553420005D002809
:1020800013D1A08FD34909880843D249088038204A
:10209000005D4000D049085A618F08433821095D2E
:1020A0004900CD4A5052012500E000253046FFF797
:1020B000BFFF2846F0BDF7B582B0044615460020A4
:1020C0000090C1480078002804D00F2028702046D6
:1020D00005B0F0BD2078052803D0012028702046E7
:1020E000F6E7FEF729FF00906068002801D001277D
:1020F00000E000270398002802D001283ED11AE012
:10210000002F11D1B2A0E06000202070AF4800681D
:1021100060600020A060AD4804600098FEF710FFEA
:1021200000202870002605E00098FEF709FF4920EE
:102130002870264629E06068019006E00021019899
:10214000FFF78BFF01980068019001980028F5D1F6
:102150009FA0E060002020709C4800686060002024
:10216000A0609A4804600098FEF7EAFE012F01D1B2
:10217000FFF78DF800202870002606E00098FEF793
:10218000DFFE07202870264600BF00BF30469FE7CD
:10219000F8B505460E46144600278B4800780028FF
:1021A00003D0112020700020F8BDFEF7C5FE0746C1
:1021B0002878052806D03846FEF7C2FE0120207098
:1021C0000020F1E7E86830603068FEF7ADFF00906E
:1021D0003846FEF7B5FE002020700098E4E7F8B519
:1021E00005460E461446002777480078002802D09E
:1021F00012202070F8BDFEF79FFE074628780528BC
:1022000005D03846FEF79CFE01202070F2E7EE6014
:102210003846FEF795FE0020207000BFEAE7FFB5C4
:1022200014466E4D2D6820352D7D202635436B4E8E
:102230003668203635750026684D2D6820356E7558
:10224000664E099D36683563644D2D68A9620C6140
:10225000039D0D75614D2D688D6045680D600025ED
:102260004D60C8604368002B00D0596041605B4DF1
:102270002D6820352A7E5500574E755B574E3668BF
:10228000768FB5435600544FBD5355003E46755B9F
:10229000002D07D1514D2D68AE8F4E4D2D88B54381
:1022A0004C4E3580FFBDFFB58BB005460F46149EE2
:1022B0000020019044480078002804D002203070AB
:1022C00000200FB0F0BD46480078002803D00D2054
:1022D00030700020F5E72878052803D00120307001
:1022E0000020EEE780210D98084004900498002813
:1022F00006D00D984006400E0D900120029001E09E
:1023000000200290FEF718FE01900D98002846D09C
:10231000012875D0022802D0032870D11FE0AC68D4
:102320003C40BC420FD10298012802D1A868A043CA
:10233000A8602A480068C4620198FEF701FE0020E8
:1023400030702046BDE70E9B00933A4605A928460B
:102350000D9BFFF764FF0198FEF7F2FD79E0AC6892
:102360003C40002C0FD00298012802D1A868A0435D
:10237000A8601A480068C4620198FEF7E1FD0020D9
:10238000307020469DE70E9B00933A4605A92846EB
:102390000D9BFFF744FF0198FEF7D2FD59E03C4644
:1023A000A8688443BC421ED10298012802D1A868C3
:1023B0002043A86009480068C4620198FEF7C0FD88
:1023C0000020307020467CE775000010640000108B
:1023D0003F0000007A00001020040010840000106C
:1023E000760000100CE00E9B00933A4605A92846A3
:1023F0000D9BFFF714FF0198FEF7A2FD29E020E0F6
:102400003C46A8688443002C0FD00298012802D1D2
:10241000A8682043A860AB480068C4620198FEF732
:102420008FFD0020307020464BE70E9B00933A460C
:1024300005A928460D9BFFF7F2FE0198FEF780FDE7
:1024400007E00198FEF77CFD00246F2030702046E5
:1024500037E700BFFEF71BFFFEF76EFD01909948BE
:1024600000682030407D002824D096480068203045
:10247000407D03900021934800682030417505A8F5
:10248000FFF7D6FD00218F480068203001750198C4
:10249000FEF756FD00240398012805D0022802D13A
:1024A0000E20307003E000BF0A20307000BF00BF74
:1024B000204606E783480068C46A029801281BD1B9
:1024C0000D9800280BD001280AD0022802D003283A
:1024D0000AD100E000BFA868A043A8600BE000BFDD
:1024E000A8682043A86006E00198FEF729FD6F2048
:1024F00030700020E5E600BF0198FEF721FD0020C6
:1025000030702046DDE670B50025FEF715FD054666
:102510006C480068C46A2846FEF712FD204670BD6C
:10252000FFB585B004461E4600200190207805289E
:1025300004D001203070002009B0F0BDFEF7FCFC93
:1025400001900798002802D001280AD104E0A16870
:1025500006988143A1600BE0A06806990843A0603B
:1025600006E00198FEF7ECFC712030700020E3E7F4
:1025700000BF00200490656854E0287D002827D023
:10258000012836D0022802D0032842D110E0A068EA
:102590002969084007462869B84208D139462846C3
:1025A000FFF75BFD02900298012800D1049037E00C
:1025B000A068296908400746002F08D039462846F8
:1025C000FFF74BFD02900298012800D1049027E00C
:1025D0002869A168884307462869B84208D1394666
:1025E0002846FFF73AFD02900298012800D1049096
:1025F00016E02869A16888430746002F08D03946AD
:102600002846FFF72AFD02900298012800D1049085
:1026100006E00198FEF794FC6F20307000208BE7F5
:1026200000BF2D68002DA8D10198FEF789FC049801
:10263000012801D1FEF72BFEFEF77EFC0190A06879
:1026400003900198FEF77CFC00203070039873E73C
:10265000F8B504460D4600272078052803D0012050
:1026600028700020F8BDFEF767FC0746A6683846CC
:10267000FEF766FC002028703046F3E7F8B55021DD
:102680001148FFF77AF800250DE0681C86B2280192
:102690000D494418300147180020207067600BA0D6
:1026A000E060681C85B2042DEFD328010649441868
:1026B00000202070606005A0E060084604490860C2
:1026C000F8BD000084000010D00200103F000000A0
:1026D0006400001070B5044600262078012801D05F
:1026E000002070BDFEF728FC06466568002060608B
:1026F0003046FEF725FC2846F3E770B50546002670
:10270000ED480078002801D0002070BDFEF714FCD1
:102710000646EA4804680068002804D0E7480068D4
:102720004068E64908603046FEF70AFC002C09D0F4
:1027300001202070002020816560E1A0E062204639
:10274000FFF7F3FA2046E0E7F7B582B004461546F6
:10275000002001902078012804D001202870204614
:1027600005B0F0BDD4480078002803D00F202870B1
:102770002046F5E7FEF7E0FB01906089002801D0D4
:10278000012700E000270398002802D001283BD150
:102790001AE0002F11D1CAA0E06200202070C748C3
:1027A0000068606000202081C44804600198FEF742
:1027B000C7FB00202870002605E00198FEF7C0FB4B
:1027C00049202870264626E005E00023022219460B
:1027D0002046FFF711FA60890028F6D1B8A0E06220
:1027E00000202070B5480068606000202081B34858
:1027F00004600198FEF7A4FB012F01D1FEF747FD0D
:1028000000202870002606E00198FEF799FB0720BB
:102810002870264600BF00BF3046A1E7F8B5054640
:102820000F461446002000902878012803D001208C
:1028300020700020F8BDA0480078002803D00220B6
:1028400020700020F6E79F480078002803D00D2074
:1028500020700020EEE7FEF76FFB00906E68002E00
:1028600008D0002068600098FEF76AFB0020207006
:102870003046DFE7944800682030007D022108439D
:10288000914909682031087500218F48006820307F
:1028900041758D48006807632846FFF70CFA0098D9
:1028A000FEF74EFBFEF7F3FCFEF746FB0090864872
:1028B00000682030407D002804D001280DD0022877
:1028C0000AD105E080480068466A002020700DE0CB
:1028D00000260E20207009E000BF29467A480068D3
:1028E000FFF772F900260A20207000BF00BF002108
:1028F00075480068203001757348006820304175C4
:10290000002071490968C8616F49096808626E4909
:10291000096848620098FEF713FB30468AE7F8B56D
:1029200004460F461546002000902078012803D069
:10293000012028700020F8BDFEF7FEFA00906089A3
:10294000002825D00026002F0FD0012F0CD107E042
:1029500002231A4600212046FFF74EF9701CC6B22A
:1029600060890028F4D109E000BF02231A46002143
:102970002046FFF741F9701CC6B200BF00BF0098A7
:10298000FEF7DEFAFEF783FC0E2028703046D2E711
:102990000098FEF7D5FA0020287000BFCBE770B58D
:1029A00004460D4600262078012801D0012070BD84
:1029B000FEF7C2FA0646608900280CD000230222E6
:1029C00029462046FFF718F93046FEF7B9FAFEF718
:1029D0005EFC0020EBE76068002804D03046FEF77C
:1029E000AFFA1420E3E765603046FEF7A9FA00204D
:1029F000DDE7F8B504460E46154600272078012885
:102A000001D00120F8BDFEF797FA0746608900283B
:102A10001DD0E807C00F0AD005E00023022231468E
:102A20002046FFF7E9F860890028F6D105E0002389
:102A3000022231462046FFF7DFF83846FEF780FADB
:102A40000420054201D1FEF722FC0020DAE760688D
:102A5000002804D03846FEF773FA1420D2E76660E7
:102A60003846FEF76DFA0020CCE7FEB504460D4669
:102A7000002000902078012801D00120FEBDFEF743
:102A80005BFA00906089A88427460C37281D0190C6
:102A9000002608E0398801980180BF1C0198801C3D
:102AA0000190701CC6B2102EF4D3606828600098A4
:102AB000FEF746FA0020E1E7750000106000001004
:102AC0003F0000007600001084000010FFB585B0C4
:102AD00005460F4600200190FEF72EFA019064484B
:102AE00004680068002804D06148006840686049B4
:102AF00008600198FEF724FA002C05D15A210898A5
:102B00000170002009B0F0BD04952E46781E039098
:102B10000020029007E00798361804980660049693
:102B20000298401C0290039902988842F3D3002136
:102B300004980160256065602761E7600798A060E0
:102B4000089801702046DDE7F8B504460D460027D9
:102B5000FEF7F2F90746206900280CD06668306855
:102B600060602069401E20613846FEF7E9F90020C8
:102B700028703046F8BD3846FEF7E2F95D2028702F
:102B80000020F7E7F8B506460C46154600273948F9
:102B90000078002803D0112028700020F8BDFEF72F
:102BA000CBF90746706920602068FEF7BDFA0090F7
:102BB0003846FEF7C5F9002028700098EEE7F8B512
:102BC00005460E46144600272A480078002802D001
:102BD00012202070F8BDFEF7AFF907466E61384647
:102BE000FEF7AEF90020207000BFF3E770B5044691
:102BF0000D460026FEF7A0F90646E16820698842E6
:102C000004D33046FEF79CF95E2070BD60682860F2
:102C100065602069401C20613046FEF791F9002074
:102C2000F3E770B505460C460026FEF785F9064623
:102C30002868206068686060A868A060E868E06054
:102C4000286920613046FEF77BF92169E068401A67
:102C50006061002070BD10B518210748FEF78DFD9A
:102C600005480349086005A00968486110BD0000D7
:102C70009800001075000010840D00103F00000047
:102C8000F8B506460D46002000903078022803D0A3
:102C9000012028700020F8BDFEF74EF900907468FE
:102CA000E08A00280FD02169081D20610F68E08AA2
:102CB000401EE082A1682069884201D160682061DD
:102CC0000020287002E01F20287000270098FEF7DF
:102CD00037F93846DFE7F8B506460F460020009082
:102CE000F9480078002801D00020F8BDFEF724F94B
:102CF0000090F64804680068002804D0F348006893
:102D00004068F24908600098FEF71AF9002C2AD0B2
:102D1000FEF712F90090EE480568002D1AD0006801
:102D20000068EB4908600098FEF70AF96E60B80089
:102D30008019A860EE602E61AF820020E882022038
:102D40002070002020816560E2A0E0622046FEF74E
:102D5000ECFF08E0DD4800686060DC480460009833
:102D6000FEF7EEF800242046BFE7F7B582B0044630
:102D70001546002000902078022804D001202870F9
:102D8000204605B0F0BDD0480078002803D00F20C1
:102D900028702046F5E7FEF7CFF8009060890028FC
:102DA00002D00120019001E000200190039800284A
:102DB00002D0012849D121E00198002817D1C5A0EF
:102DC000E0626668C24800683060C1480660002062
:102DD0002070BE480068606000202081BB4804600D
:102DE0000098FEF7ADF800202870002705E0009855
:102DF000FEF7A6F84920287027462DE005E00023BD
:102E0000042219462046FEF7F7FE60890028F6D115
:102E1000B0A0E0626668AE4800683060AC4806600A
:102E200000202070A9480068606000202081A74829
:102E300004600098FEF784F80198012801D1FEF79C
:102E400026FA00202870002706E00098FEF778F8A0
:102E500007202870274600BF00BF384691E770B5AD
:102E600005460026FEF768F806466C686068E06074
:102E7000606820610020E0823046FEF761F80020A3
:102E800070BDF7B582B0074615460020019038782E
:102E9000022804D001202870002005B0F0BD8A4827
:102EA0000078002803D0022028700020F5E78A4827
:102EB0000078002803D00D2028700020EDE7FEF7F1
:102EC0003BF801907C68E08A002813D02169081D36
:102ED00020610E68E08A401EE082A1682069884275
:102EE00001D1606820610198FEF72AF8002028705F
:102EF0003046D2E7794800682030007D042108433D
:102F0000764909682031087500217448006820302E
:102F1000417572490398096808633846FEF7CBFE8D
:102F20000198FEF70DF8FEF7B2F9FEF705F80190EB
:102F30006A4800682030407D002804D001280DD068
:102F400002280AD105E065480068466A002028701A
:102F50000DE000260E20287009E000BF39465F48CA
:102F60000068FEF731FE00260A20287000BF00BF6F
:102F700000215A4800682030017558480068203008
:102F80004175002055490968C861544909680862BB
:102F90005249096848620198FDF7D2FF30467CE744
:102FA000F8B504460F461546002000902078022808
:102FB00003D0012028700020F8BDFDF7BDFF009070
:102FC0006089002825D00026002F0FD0012F0CD1BA
:102FD00007E00223042200212046FEF70DFE701CAC
:102FE000C6B260890028F4D109E000BF02230422A0
:102FF00000212046FEF700FE701CC6B200BF00BFD5
:103000000098FDF79DFFFEF742F90E20287030462C
:10301000D2E70098FDF794FF0020287000BFCBE7AF
:10302000F8B505460E4600272878022801D0012071
:10303000F8BDFDF781FF0746688900280CD0002302
:10304000042231462846FEF7D7FD3846FDF778FFC3
:10305000FEF71DF90020EBE76C68E08AA18A884240
:1030600004DB3846FDF76CFF1E20E1E7E168081D30
:10307000E0600E60E08A401CE082A168E06888425F
:1030800001D16068E0603846FDF75AFF0020CFE7C5
:10309000F8B505460E4600272878022801D0012001
:1030A000F8BDFDF749FF07466889002818D00023BE
:1030B000042231462846FEF79FFD3846FDF740FFC3
:1030C000FEF7E5F80020EBE7750000106000001047
:1030D0009C0000103F0000007600001084000010EB
:1030E0006C68E08AA18A884204DB3846FDF728FF35
:1030F0001E20D5E761682069884201D1A06820615F
:103100002069001F206120690660E08A401CE0827F
:103110003846FDF715FF0020C2E7F8B505460F4613
:103120001646002000902878022801D00120F8BD22
:10313000FDF702FF0090688900281DD0F007C00F3E
:103140000AD005E00023042239462846FEF754FD44
:1031500068890028F6D105E0002304223946284674
:10316000FEF74AFD0098FDF7EBFE0420064201D170
:10317000FEF78DF80020DAE76C68E08AA18A8842C1
:1031800004DB0098FDF7DCFE1E20D0E7022006429B
:103190000BD061682069884201D1A0682061206954
:1031A000001F20612069076009E0E168081DE060F8
:1031B0000F60A168E068884201D16068E060E08A41
:1031C000401CE0820098FDF7BBFE0020AFE7FEB593
:1031D00005460C46002000902878022801D00120E6
:1031E000FEBDFDF7A9FE00906889208528460C30B9
:1031F000029020460830019000270BE002980188D9
:10320000019801800298801C02900198801C019016
:10321000781CC7B2102FF1D36E68F08A002803D053
:1032200030690068206001E000202060F08AA08002
:10323000B08AE0800098FDF783FE0020D0E70348C5
:103240000349086000200968086070479C0D001061
:103250009C00001070B5044600262078032801D099
:10326000002070BDFDF768FE06462589002D02D0BE
:103270002089401E20813046FDF762FE2846F0E797
:1032800070B505460026DB480078002801D00020F4
:1032900070BDFDF751FE0646D74804680068002857
:1032A00004D0D54800684068D34908603046FDF72F
:1032B00047FE002C09D0032020702581002060608B
:1032C000CEA0E0622046FEF730FD2046E0E7F7B5ED
:1032D00082B004461546002001902078032804D0CF
:1032E00001202870204605B0F0BDC24800780028B3
:1032F00003D00F2028702046F5E7FDF71DFE019052
:103300006089002801D0012700E0002703980028E9
:1033100002D001283BD11AE0002F11D1B7A0E06202
:1033200000202070B4480068606000202081B2480E
:1033300004600198FDF704FE00202870002605E0D7
:103340000198FDF7FDFD49202870264626E005E09E
:103350000023012219462046FEF74EFC6089002812
:10336000F6D1A6A0E06200202070A348006860604B
:1033700000202081A04804600198FDF7E1FD012FA5
:1033800001D1FDF784FF00202870002606E0019897
:10339000FDF7D6FD07202870264600BF00BF304647
:1033A000A1E7F8B505460E461446002728780328FD
:1033B00002D001202070F8BD8E480078002802D08D
:1033C00002202070F7E78E480078002802D00D20F8
:1033D0002070F0E7FDF7B0FD07462889002808D0E7
:1033E0002889401E28813846FDF7AAFD002020705C
:1033F000E1E7844800682030007D012108438149CD
:1034000009682031087500217E4800682030417528
:103410007C48006806632846FEF74DFC3846FDF7F9
:103420008FFDFDF734FFFDF787FD074675480068FF
:103430002030407D002804D0012809D0022806D180
:1034400002E0002020700BE00E20207008E000BF9A
:1034500029466C480068FEF7B7FB0A20207000BFC1
:1034600000BF00216748006820300175654800688A
:1034700020304175002063490968C86161490968C5
:1034800008623846FDF75CFD00BF94E7F8B50446D6
:103490000F461546002000902078032803D0012015
:1034A00028700020F8BDFDF747FD009060890028D6
:1034B00025D00026002F0FD0012F0CD107E00223CA
:1034C000012200212046FEF797FB701CC6B26089DE
:1034D0000028F4D109E000BF022301220021204688
:1034E000FEF78AFB701CC6B200BF00BF0098FDF754
:1034F00027FDFDF7CCFE0E2028703046D2E700985D
:10350000FDF71EFD0020287000BFCBE770B5044614
:1035100000252078032801D0012070BDFDF70CFDA7
:103520000546608900280CD0002301221946204658
:10353000FEF762FB2846FDF703FDFDF7A8FE00201D
:10354000EBE720893049884207D22089401C20813E
:103550002846FDF7F5FC0020DFE72846FDF7F0FCE4
:103560003320DAE7FEB504460D46002000902078AF
:10357000032801D00120FEBDFDF7DEFC009060892C
:10358000688427460C37A81C0190002608E039887B
:1035900001980180BF1C0198801C0190701CC6B26C
:1035A000102EF4D3208928800098FDF7C9FC002054
:1035B000E1E7F8B504460E461546002720780328B3
:1035C00002D001202870F8BDFDF7B6FC07460020A8
:1035D00028702089002801D0268106E06089002813
:1035E00001D1268101E0492028703846FDF7A8FC6A
:1035F00000BFE8E775000010600000103F00000009
:103600007600001084000010FFFF0000F3B587B0C3
:1036100000200090FDF790FC009008988000FF4982
:103620000858002805D00098FDF78AFC282009B02A
:10363000F0BD0798FF2804D1F94800682030807D4C
:10364000079007988000F5490D58002D04D1009887
:10365000FDF776FC2920EAE7012D04D10098FDF75B
:103660006FFC4320E3E70898061108980007000F55
:1036700005900120B04080B204900121059881405E
:1036800088B20390002107988000E44A11500898FE
:10369000800011460D503820475DA88F0290688F3A
:1036A00001907800DF49095A0198014220D0780042
:1036B000DC49085A019988437900DA4A5052780067
:1036C0001146085A002805D1D74800880299884336
:1036D000D5490880D448008804990843D249088015
:1036E0007000D049085A039908437100CD4A5052DE
:1036F000EC69002C21D0790020460C30405A019909
:1037000088437A0021460C318852790020460C30DB
:10371000405A002803D160890299884360816089FA
:10372000049908436081710020460C30405A039987
:103730000843720021460C318852286A00282DD097
:10374000286A06900698046826E0790020460C3026
:10375000405A019988437A0021460C3188527900F9
:1037600020460C30405A002803D1608902998843D2
:1037700060816089049908436081710020460C30A3
:10378000405A03990843720021460C31885206982A
:10379000001D069006980468002CD6D136210898A2
:1037A0004855382046553721059848550498A8872C
:1037B000039868870098FDF7C3FB9C4800780128B0
:1037C00001D1FDF764FD002031E7FFB585B0064665
:1037D0000F461C4600200390FDF7AEFB0390944873
:1037E0000078002805D00398FDF7AAFB3C2009B01B
:1037F000F0BDA0008949085800282CD10120A10063
:10380000864A50500398FDF79BFB0023394630460B
:10381000079AFDF7F9FB04900023009301931A46E1
:10382000029320460499FEF79AFA0546002D06D128
:103830007E48007801280CD1FDF729FD09E0FDF74D
:103840007BFB03900020A100744A50500398FDF7C1
:1038500077FB2846CBE70398FDF772FB2820C6E7E5
:10386000D307DB0F08D002231A4205D002E0491E1D
:10387000002308C00029FAD17047FFB585B01C4667
:10388000129F0F9E00200390FDF756FB039068489F
:103890000078002805D00398FDF752FB3C2009B0C2
:1038A000F0BDA0005D490858002831D10120A100D9
:1038B0005A4A50500398FDF743FB3A463046109958
:1038C000FFF7CEFF3B4605A807C8FDF79DFB049018
:1038D000119A1099684686C0324620460E9B04997C
:1038E000FEF73DFA0546002D06D150480078012824
:1038F0000CD1FDF7CCFC09E0FDF71EFB0390002086
:10390000A100464A50500398FDF71AFB2846C6E727
:103910000398FDF715FB2820C1E7F8B505460027F9
:1039200043480078002801D04020F8BDFC2D01D18B
:103930003E20FAE7FDF700FB0746FF2D03D138488C
:1039400000682030857DA80034490C58002C04D133
:103950003846FDF7F5FA4320E7E7012C04D1384655
:10396000FDF7EEFA3D20E0E73820005D40002D49EC
:10397000085A618F88433821095D4900294A50520D
:103980003820005D40001146085A002805D1A18F5B
:1039900025480088884324490880E069002803D02E
:1039A0002046E169FEF710F9206A002803D020467E
:1039B000216AFDF71CFCA66A002E02D03046FEF7F5
:1039C00037FB0020206300213420015535200155AC
:1039D00018480078FF2804D216480078401C154982
:1039E00008703846FDF7ACFAFEF7EDF8FDF7A4FADB
:1039F000074610480078002804D00E480078401E82
:103A00000C4908702046FDF7FCFA0B480078401E70
:103A1000094908700020A900004A0FE04005001085
:103A200084000010200400107A0000107C000010B8
:103A300075000010760000107D0000105050A06945
:103A4000002805D161698861FD496069086005E069
:103A5000A169606948616169A0698861F948006885
:103A60006061F8480460F8A060653846FDF768FAC0
:103A7000F6480078012801D1FDF709FC002054E741
:103A8000F8B504460027FC2C01D13E20F8BDFF2CE0
:103A90000BD1FDF751FA0746ED4800682030867FCC
:103AA0003846FDF74DFA3046F0E7FDF745FA074690
:103AB000A000E8490D58002D04D13846FDF740FA22
:103AC0004320E3E7012D04D13846FDF739FA3D20C4
:103AD000DCE73F213E2041553846FDF731FA002012
:103AE000D4E7FEB506460F46144600200090DA489B
:103AF0000078002803D0112020700020FEBDFDF7C3
:103B00001BFA0090FF2E03D1D14800682030867D3B
:103B1000B000D0490D58002D06D10098FDF710FADD
:103B2000432020700020E9E7012D06D10098FDF721
:103B300007FA432020700020E0E7686D386038689D
:103B4000FDF7F2FA01900098FDF7FAF900202070D5
:103B50000198D3E7F8B506460F46144600200090BA
:103B6000BD480078002802D012202070F8BDFDF773
:103B7000E3F90090FF2E03D1B54800682030867D20
:103B8000B000B4490D58002D05D10098FDF7D8F9C3
:103B900043202070EAE7012D05D10098FDF7D0F908
:103BA00043202070E2E76F650098FDF7C9F9002017
:103BB000207000BFDAE770B505460026FDF7BCF9B6
:103BC0000646A800A3490C58002C04D13046FDF746
:103BD000B7F9462070BD012C04D13046FDF7B0F98D
:103BE0004320F7E73420005D0821084231D034201B
:103BF000005DF7210840342108553420005D00287D
:103C000022D1206B00281BD1A08F9449098808433A
:103C1000924908803820005D40009149085A618F20
:103C200008433821095D49008D4A50523046FDF75E
:103C300087F986480078012809D1FDF728FB06E0BE
:103C40003046FDF77DF902E03046FDF779F90020B6
:103C5000C0E73046FDF774F94420BBE7FEB50746E0
:103C60000D460020009028606860FDF765F900901F
:103C7000FF2F03D1764800682030877DB800754952
:103C80000C58002C04D10098FDF75AF94320FEBDD2
:103C9000012C04D10098FDF753F94320F7E7208A5F
:103CA000C007C00F04D10098FDF74AF94520EEE7A0
:103CB0000026E0680190A06802900098FDF740F9A6
:103CC00000E0761C029802C802900029F9D0B000EA
:103CD00028600198801B800068600020D7E7F8B555
:103CE000074600200090FDF727F90090FF2F05D12F
:103CF000574800682030877D012508E05448006857
:103D00002030807DB84201D1012500E00025B800B7
:103D100050490C58002C04D10098FDF711F94820A7
:103D2000F8BD012C04D10098FDF70AF94320F7E70C
:103D30003820065D70004A49085A618F8843710037
:103D4000474A505270001146085A002805D1A18FE9
:103D5000424800888843414908803420005D08219A
:103D60000843342108550098FDF7EAF8012D01D1E8
:103D7000FDF78DFA0020D3E7F8B505460E4600277B
:103D8000FDF7DAF80746FF2D03D1314800682030EF
:103D9000857DA8002F490C58002C04D13846FDF72A
:103DA000CFF82920F8BD012C04D13846FDF7C8F81A
:103DB0004320F7E75C2221463046FDF7C6FF384630
:103DC000FDF7BEF80020EDE7FEB504460E461746A7
:103DD00000200190FDF7B0F80190FF2C02D11C48A3
:103DE000056802E0A0001B490D58B1002846583074
:103DF000405800900198FDF7A3F800203870009813
:103E0000FEBDFFB581B004460E4617460020009067
:103E1000FDF792F80090FF2C02D10D48056802E0F2
:103E2000A0000C490D58B100284658304750009862
:103E3000FDF786F800210498017005B0F0BD000080
:103E400090000010880000103F0000007C0000106F
:103E50008400001040050010750000107A0000106A
:103E60002004001010B5FF20FFF757FD10BD000023
:103E700070B50546002666480078002800D070BD61
:103E800064480078002800D0F9E7002D25D0FDF720
:103E900053F80646604800682030047E60005F49A1
:103EA000085A5D490968498F884361005B4A50524E
:103EB00060001146085A002807D157480068818FD2
:103EC000574800888843564908805348006805636E
:103ED0003046FDF735F8FDF7DAF900BFCFE7F8B562
:103EE00004460D4617461E4649480078002801D072
:103EF0005520F8BD47480078002801D03220F8E767
:103F0000711D6422514308467D21C90000F092FBD7
:103F1000E121090161433C226A438918C9196422DD
:103F20005143401800900098FFF7A2FF0020E0E7FF
:103F300070B505460026FC2D01D32A2070BDFCF784
:103F4000FBFF0646A80037490C58002C04D1304628
:103F5000FCF7F6FF4320F1E7012C04D13046FCF7D3
:103F6000EFFF4320EAE7206B002804D13046FCF73E
:103F7000E7FF5020E2E7002020633420005D372176
:103F8000084208D03420005D8843342108550121BF
:103F90003520015502E00021352001553420005D17
:103FA0000821084217D1A08F1D49098808431C49E0
:103FB00008803820005D40001849085A618F084386
:103FC0003821095D4900154A50523046FCF7B8FFC8
:103FD000FDF75DF902E03046FCF7B2FF0020ADE7E7
:103FE00070B50025FCF7A8FF05460F480468284671
:103FF000FCF7A6FF204670BD70B504460025FCF70F
:104000009BFF0546084804602846FCF799FF70BDF1
:1040100075000010760000108400001020040010CD
:104020007A00001040050010A00000101CB585E0CB
:10403000FFF7D6FF0446642100F0FCFA2523F84977
:104040000A780146F7A000F0A7FDFEA000F0A4FD4D
:104050006946FB20FFF702FE019CA408009DAD0805
:104060006119009CA308019CA208FEA000F094FD29
:104070006946FC20FFF7F2FD019CA408009DAD08F5
:104080006119009CA308019CA208FDA000F084FD1A
:1040900069460D20FFF7E2FD019CA408009DAD08D4
:1040A0006119009CA308019CA208FCA000F074FD0B
:1040B00069460C20FFF7D2FD019CA408009DAD08C5
:1040C0006119009CA308019CA208FBA000F064FDFC
:1040D00069460B20FFF7C2FD019CA408009DAD08B6
:1040E0006119009CA308019CA208FAA000F054FDED
:1040F00069460F20FFF7B2FD019CA408009DAD08A2
:104100006119009CA308019CA208F9A000F044FDDD
:104110006946F920FFF7A2FD019CA408009DAD08A7
:104120006119009CA308019CA208F8A000F034FDCE
:104130000023012219461846FFF7D1FE78E708B59B
:1041400000241AE06A460021F7480068FFF729F9C1
:10415000E043C4B2002C08D1012202210020FCF768
:10416000ECFA002000F048FA07E000220221104695
:10417000FCF7E3FA012000F03FFAE3E712E0FCF776
:1041800089F8052803D0FCF785F8062803D1E6480E
:104190000068FFF7BBF9FF232D33002211461046BC
:1041A000FFF79DFEEBE709E0E0A000F0F5FCFF2340
:1041B000F533002211461046FFF791FEF4E708B5EB
:1041C0000EE06A460021DC4B1868FEF727FB0A2147
:1041D0000268104600F02EFACCB22046FCF77FFEB3
:1041E000EFE708B50020009028E0002211460320E8
:1041F000FCF7A3FA002201210320FCF79EFA01221A
:104200006946CD480068FEF7F4FB0098401C00901A
:104210000023012219461846FFF761FE0122002102
:104220000320FCF78AFA012211460320FCF785FAE5
:104230000023012219461846FFF751FED5E710B5B5
:104240000446FCF737FFFDF72CFCFF20FFF765FB6A
:1042500010BD00B585B0FBF78FFFFCF708F9012210
:1042600000210320FCF77DFA012200210320FCF746
:1042700064FA012211460320FCF773FA0122114669
:104280000320FCF75AFA012202210020FCF769FA08
:10429000012202210020FCF750FAA848C06BC00898
:1042A000C000A649C8630846C06B01210843A34962
:1042B000C863002000F0A0F9FCF7F6FD2020FCF711
:1042C0000EFEFBF7C7FF002211460320FCF735FA6C
:1042D000002201210320FCF730FA012200210320F3
:1042E000FCF72BFA012211460320FCF726FAE12005
:1042F0004002FCF7C3FA0121152000F073F890A0EA
:1043000000F04AFCFDF7C2FA0020FEF7B9FF86492B
:1043100008600020FEF7F1F98749086003230022B6
:1043200040218D48049301AB07C302230246FC32AF
:1043300000218A480093FFF7A0FA0D23884A002144
:104340008848FFF742FA032300224021864804935D
:1043500001AB07C30C230246FC32002183480093C3
:10436000FFF78BFA0323002240218148049301AB1D
:1043700007C3FA230246FC3200217E480093FFF770
:104380007CFA0323002240217B48049301AB07C33E
:104390000B230246FC32002178480093FFF76DFAA8
:1043A0000323002240217648049301AB07C30F2367
:1043B0000246FC32002173480093FFF75EFA0323A4
:1043C000002280217048049301AB07C3F9236F4A90
:1043D00000216F480093FFF750FAFDF749FB0020DA
:1043E00005B000BD10B5002819DA6A4A03071B0F93
:1043F000083B9B089B00D2588307DC0EFF23A34099
:104400009A438B071B0E8407E40EA3401A43614BAB
:104410000407240F083CA408A4001A51D5E0BBE00F
:10442000680000100D0A0D0A5365636F6E643A2030
:1044300025642C20204D43552D557365643A202565
:10444000642563000D0A2D2D2D2D2D2D2D2D2D2DA7
:104450002D2D2D2D2D2D2D2D2D2D2D2D2D2D2D2D8C
:104460002D0000000D0A537461743A20202020258D
:104470003475202D253475203D253475000000004D
:104480000D0A49646C653A20202020253475202DC2
:10449000253475203D253475000000000D0A4C655B
:1044A000643A2020202020253475202D25347520C5
:1044B0003D253475000000000D0A536567374C65D3
:1044C000643A20253475202D253475203D2534751A
:1044D000000000000D0A4B65793A2020202020259D
:1044E0003475202D253475203D25347500000000DD
:1044F0000D0A4265657046616E3A20253475202D9F
:10450000253475203D253475000000000D0A4D6FDF
:104510006E69746F723A20253475202D253475200C
:104520003D25347500000000A40000105561727430
:10453000207461736B0A0000A80000104040044022
:104540000D0A0D0A46535F31314331342075432F34
:104550004F532D49490D0A00B40D00103F42000091
:10456000B0100010E3410000B4100010BF41000083
:10457000B40E0010A7410000B41100107D410000EE
:10458000B41200103F410000B4130010B015001029
:104590002D4000001CED00E00C4A03231B02D21842
:1045A00083089B00D2588307DC0EFF23A3409A4365
:1045B0008B071B0E8407E40EA3401A43034B03240E
:1045C00024021B198408A4001A5110BD00E100E068
:1045D000704700BFFEE700BFFEE700BFFEE700BF79
:1045E000FEE77047704710B5FCF7C5FC10BD10B56D
:1045F000FCF74FFD10BD000010B50446002C0ED096
:10460000012C10D17F200949C860012208480168A7
:104610001046FCF732FB0120FCF76DFA03E00120A5
:10462000FCF773FA00BF00BF10BD0000008001401E
:10463000AC00001030B50B460146002020220124BA
:1046400009E00D46D5409D4205D31D469540491BC6
:104650002546954040191546521E002DF1DC30BD0F
:10466000F0B51FB40646002082B0054640240191F3
:1046700000901BE0019922460F46304600F006FAF2
:10468000049A059B801A994110D310461946224678
:1046900000F0ECF9361A8F410197224601200021E3
:1046A000009F00F0E3F938184D4100902046641E49
:1046B0000028DFDC019B00982946324607B0F0BD98
:1046C000F0B507460846584087B0C00F0490480030
:1046D0000C46590040084908BD1A884105D23846A1
:1046E000214617461C4602460B4658004008104318
:1046F00003D13846214607B0F0BD200D0390400598
:104700005900400D490D0590401A029040286DDA7D
:1047100018030121000B0905084301900498009239
:10472000002805D001995242002088410092019052
:10473000029840210A1A0199009800F097F906465C
:104740000D46684607C800F0B2F9C0196141039AE6
:104750000B0DD71753403B4343D0049A002A2BD06C
:10476000029A012A039A12DC12050024001B9141CF
:1047700001231B05001C5941D20F059BD207029350
:104780000192009432462B4600F0B1F9B3E71405CC
:10479000234A0023A2180F46C01AA7410121090588
:1047A000001C4F4100187F41114618187941EA0F4B
:1047B0001043B6196D4114E0EA076D08C3071D43A5
:1047C0007608039B164300221B05801A9941012499
:1047D0002405001C6141CC0740082043490880188B
:1047E000594132462B4600F075F984E704980122BE
:1047F0004000C117121A00238B4104982146C517A7
:10480000381AA941EFE730B40124E407634030BC13
:1048100056E730B40124E407614030BC50E70000A3
:104820000000E0FFF0B51FB488B00B99099848402C
:10483000C10FC90700910999002049004908099151
:104840000B998646490049080B9109990898084335
:1048500003D00B990A98084303D1002001460DB0FC
:10486000F0BD099801244000420D4800410D09980F
:1048700024050003000B204309900B980AAE0003A7
:10488000000B20430B90501818494018002201904B
:10489000144610460323032800DA03469C46C11A37
:1048A0000AE05F0008ADED5B4F00F75B7D4300273A
:1048B000AA187C415B1E491C6145F2DD430004A936
:1048C000CA522104120C0A43240C401C0828E1DBC4
:1048D000019B00997046029301910090059B049AF8
:1048E0000799069800F003F9B9E700000DFCFFFFF7
:1048F000F0B50C465C4085B0E40FE40703944C002F
:10490000002664085900944649080246029622434C
:1049100021D062460A431ED06200570D4A000E03A2
:104920002303550D024601242C492405781B1B0B3B
:10493000360B401800902343264360461C46101A4D
:10494000B44103D30098401C009002E092180098F4
:104950005B41002803DA0020014605B0F0BD0020CD
:10496000012109050746864611E064461D46141BD1
:10497000B54106D36546521BB341744607430C4309
:10498000A646CD0740084908284392185B410546D2
:104990000D43EAD11046184313D0604619465040E3
:1049A0007140084303D100220123DB0709E0604680
:1049B000101AB34102D20122002302E00122D243A5
:1049C0005310009874460105381C6141029C039DF8
:1049D0000019694100F07EF8BFE70000FD03000008
:1049E0004A0009030123090B1B0519430A4B10B5A3
:1049F000520D9A4202DA0020014610BD064B3433B4
:104A00009A4203DC9A1A00F041F810BD034BD21809
:104A100000F02CF810BD0000FF030000CDFBFFFFED
:104A200010B5002904DB0124E40740428C412146F3
:104A3000002B04DB1C460123DB075242A3419942B1
:104A400000D1904210BD0000064C0125064E05E045
:104A50002046E36807C82B4398471034B442F7D385
:104A6000FBF732FB88590000A859000010B5202A36
:104A700004DB0146203A9140002010BD91402023E4
:104A80009C1A0346E3401943904010BD10B5202AFC
:104A900004DB0846203AD040002110BD0B46D3402D
:104AA000D0402024A21A91400843194610BD10B5E9
:104AB000202A06DBCB170846203A1041C1170B43CA
:104AC00006E00B461341D0402024A21A914008432F
:104AD000194610BD10B5002B08DA0024401C6141B6
:104AE00092185B411A4301D14008400010BDF0B557
:104AF0001FB482B005460C0003D0084600F06EF8E3
:104B000002E000F06BF82030024600902146284673
:104B1000FFF7ACFF049A059B064603911043194327
:104B2000084303D10399304607B0F0BD104618433F
:104B300018D0009840210A1A19460498FFF7A6FFDA
:104B400004460D460127009A05990498FFF78EFF49
:104B5000084300D10027F81705433C430398264338
:104B60000543039500990E98F40A401A03990A30F8
:104B70004D052C4373050022CD0A002802DA0020DF
:104B80000146D1E70105101969410C9C0D9D0019E2
:104B90006941FFF79FFFC7E70FB410B503A9044BA6
:104BA000044A029800F0F6F810BC08BC04B018479C
:104BB000DF0100003C0000107CB514461D46491E74
:104BC00001910090044B6A462946204600F066FA9F
:104BD000009A002111707CBD315800002021020C88
:104BE00001D010211046020A01D0083910460209EE
:104BF00001D0091F1046820801D0891E10464208C4
:104C000001D0881E7047081A704730B47446641E7D
:104C10002578641CAB4200D21D46635D5B00E3183F
:104C200030BC184702E008C8121F08C1002AFAD198
:104C30007047002001E001C1121F002AFBD170471C
:104C4000F0B51FB484B007980699020D01430FD147
:104C50000F98012448A3012807D004980F9A846074
:104C60000360C260416009B0F0BD0E98C143F4E733
:104C7000424843491018484305140F9801280E98DC
:104C80000CD0281A401C00243E4E3F494742009455
:104C900001910290002816DB074614E04042F2E73B
:104CA000F80707D02246334601990098FFF7BAFD6E
:104CB000019100902246334620463146FFF7B2FD6F
:104CC00004460E467F10002FEAD10298019B00286F
:104CD000009A0799069802DAFFF7A4FD01E0FFF7B2
:104CE00007FE04460E460022284BFFF799FE03D824
:104CF0000020C043014607E00022254B20463146F4
:104D0000FFF7DEFCFFF76CFE102409E0002C0ADB45
:104D10000A220023FFF7A4FC059B30321A55641EBB
:104D200002460A43F2D1641C1122059B121B1C1976
:104D30000F9B012B08D00123084302D10E98824219
:104D40000DDD00236D1C0EE0084303D10E98151AEB
:104D50006D1E0AE011200E9000200F908DE7824218
:104D600001DA00236D1E002B87D004980F9945604F
:104D700004608260C16076E73000000001FCFFFF44
:104D8000104D0000000024400000F03F0000F04300
:104D90000000E03FFFB58FB005460026E6E025287D
:104DA0007ED100246D1CBC4A0294012100942B7812
:104DB0000846203B98400346134202D004436D1C32
:104DC000F5E728782A280ED00222287801463039C3
:104DD000092916D802990A23594330394018144337
:104DE0006D1C0290F1E7109802C802911090002902
:104DF00004DA0120400304434842029002200443A5
:104E00006D1C28782E2817D1042004436D1C2878A7
:104E10002A280CD110986D1C02C8009110900BE04C
:104E200000990A225143303940186D1C00902878AF
:104E3000014630390929F3D928786C2810D006DCCE
:104E40004C281AD068280ED06A2817D104E074289C
:104E500013D07A2812D110E00120400504430CE061
:104E60000121090501E0032109050C43697881420C
:104E700003D101206D1C000524186D1C28786928B9
:104E80007DD007DC002877D0632829D0642807D19B
:104E900075E005E06E2808D073282CD075286AD0FC
:104EA000129A11999047761C5FE06002400F022829
:104EB00009D003280DD00428109801680DD0001DDA
:104EC0000E60109051E01098F21702C80E604A6010
:104ED000F7E7109802C80E80F3E7001D0E70F0E7A8
:104EE00010986A4602C8117310900020507303A8EE
:104EF0000190012005E0109802C801911090002057
:104F0000C04361070CD5002700E07F1C00998F4249
:104F10000FDA8742F9DB0199C95D0029F5D108E074
:104F2000002700E07F1C8742FCDB0199C95D002956
:104F3000F8D102982146C01B0290129B119A00F0F2
:104F40004DFC8019C61907E0019801990078491CA9
:104F50000191129A119990477F1EF5D22146129B1A
:104F6000119A029800F01AFC86196D1C2878002806
:104F700002D014E700E022E0304613B0F0BD1099F3
:104F80000A2701C910916102490F032900D100B21B
:104F9000042900D140B2002802DA40422D2102E06B
:104FA000210504D52B216A461173012103E0E10795
:104FB00011D02021F7E70D910CA90C9116E0109962
:104FC0000A2701C910916102490F032900D180B25B
:104FD000042900D1C0B20021EDE73946FFF72AFBD2
:104FE0000A460C993032491E0C910A700028F4D1FF
:104FF0000C9804A9081A20300190600703D50120FD
:105000000004844301E001200090019A00990020EF
:10501000914200DD881A811800900D9809180298B5
:10502000401A0290E00306D42146129B119A02987E
:1050300000F0D4FB8619002706E003A8129AC05D91
:1050400011999047761C7F1C0D988742F5DBE00391
:105050000CD52146129B119A029800F0BFFB8619CD
:1050600004E0129A302011999047761C0099481E4E
:1050700000900029F5DC08E00C980C990078491C98
:105080000C91129A11999047761C0199481E019033
:105090000029F1DC62E7000009280100FFB59FB09C
:1050A00006460F46002501E125287AD10024761C0A
:1050B000FA4A129401210B9433780846203B984019
:1050C0000346134202D00443761CF5E730782A28C1
:1050D0000ED00222307801463039092915D81299AC
:1050E0000A235943303940181443761C1290F1E7D3
:1050F00001CF1290002805DA0120400304431298E2
:105100004042129002200443761C30782E2815D19C
:1051100004200443761C30782A280AD101CF761C5B
:105120000B900BE00B990A22514330394018761C42
:105130000B903078014630390929F3D930786C2842
:1051400010D006DC4C281AD068280ED06A2817D157
:1051500004E0742813D07A2812D110E00120400511
:1051600004430CE00121090501E0032109050C437A
:105170007178814203D10120761C00052418761C29
:105180003078049066280BD013DC582877D009DCDF
:10519000002875D0452803D0462801D047281AD1C9
:1051A000A1E118E0632832D064286AD0652812D1C2
:1051B00099E170287DD008DC67287BD0692860D011
:1051C0006E280DD06F2806D1BDE0732828D0752831
:1051D00071D0782853D0229A219990476D1C64E0B1
:1051E0006002400F022807D003280AD0042838683C
:1051F0000AD03F1D056058E001CFE9170560416006
:1052000053E001CF058050E03F1D05704DE001CF18
:10521000694608720020487202A80090012003E04D
:1052200001CF00900020C04361070FD5002101E0AD
:105230000199491C01910B9A914213DA8142F7DBE3
:10524000019A0099895C0029F2D10BE0002101E06C
:105250000199491C01918142FADB019A0099895C0C
:105260000029F5D101991298229B401A12902146EB
:10527000219A00F0C8FA0199401945180AE057E050
:105280001CE01EE0009800990078491C0091229AC9
:10529000219990470198401E0190F3D22146229B0C
:1052A000219A129800F08AFA4519761C3078002865
:1052B00002E03FE017E139E000D0F5E6284623B0F0
:1052C000F0BD0A200021009001916002410F0229E7
:1052D00005D001CFC2179446032907D009E0FF1D6E
:1052E000FF08FF0079683868083706E000B2C21787
:1052F0009446042902D140B2C1178C46002261466F
:10530000944506DA0A460021404291418C462D21FF
:1053100002E0210504D52B216A461173012103E027
:10532000E10701D02021F7E7029153E00A200BE0CA
:10533000102009E010200090002104200443019176
:1053400008200B9003E008200021019100906002EA
:10535000410F022905D001CF00229446032907D02E
:1053600009E0FF1DFF08FF0079683868083706E08C
:10537000002280B29446042902D1C0B200218C469A
:1053800000210291210725D5049970292BD0009A7C
:105390001021019B4A401A4309D16146014306D0BE
:1053A00030216A4611730499517302210291009AC7
:1053B0000821019B4A401A430CD16146014301D1A7
:1053C000610707D530216A461173012102910B99BB
:1053D000491E0B91049A32A1582A00D035A105919B
:1053E0001BA9049110E040216A4611730121DDE7F9
:1053F0006146019B009AFFF733F9059B8C469B5C45
:10540000049A521E0492137061460143F0D104982D
:1054100013A9081A20300C90600703D5012000045E
:10542000844301E001200B900C9A0B9900209142DB
:1054300000DD881A81180B90029809181298401AFA
:105440001290E00306D42146229B219A129800F084
:10545000DAF94519002008E0009903A8405C229A77
:105460002199904700986D1C401C02990090884239
:10547000F2DBE0030CD52146229B219A129800F022
:10548000C2F9451904E0229A3020219990476D1CF9
:105490000B99481E0B900029F5DC1EE0092801003D
:1054A000303132333435363738394142434445465A
:1054B000000000003031323334353637383961621C
:1054C0006364656600000000049804990078491C34
:1054D0000491229A219990476D1C0C99481E0C90BA
:1054E0000029F1DCDAE6600701D406200B90FF1DED
:1054F000FF08FF0038687A6884460837D00FC00775
:10550000A2A1030006D1A2A1200503D4A1A1E00716
:1055100000D1A1A106915100604649088C4604992A
:1055200065290CD006DC452909D046291BD047291E
:1055300041D141E0662916D067293CD13CE00B9966
:1055400000231122112900DA4A1C0092019302461D
:10555000634617A913A8FFF773FB00200D900B9863
:10556000401C019058E00121C9070B9A05910123C5
:10557000009201930246634617A913A8FFF760FB48
:1055800000200D90159801901698002804D10B98D2
:105590001499401C0818019001990B98401A01D5E4
:1055A000084605E04042401E0D900B98401C0190BB
:1055B0000B99401A00904BE00B99012901DA012167
:1055C0000B9100231122112900DC0A46009201935D
:1055D0000246634617A913A8FFF732FB00200D907F
:1055E0000B980190200710D415990198814205DA93
:1055F0000846019102E00198401E0190012804DD57
:105600001399401E085C3028F5D014990B988142FC
:1056100002DA0846091D03DA01200090149816E00A
:10562000002806DC01460D9808180D900198401AD4
:1056300005E00199401C884202DD1498401C01904D
:1056400014990D98081A401C00900120C00705907D
:10565000200706D401990098884202DB0020C0434D
:10566000009003A80330049000216846C173012113
:105670000598C907884228D0022007902B2008905F
:10568000059800280EDA404205902D20089009E088
:105690000A210598FEF7CEFF059004983031401E90
:1056A000049001700799481E07900029F0DC0598C6
:1056B0000028EDD104980899421E117031782022FB
:1056C00011404531801E04900170049802A9081A07
:1056D000C01D059006980078002800D0012001998F
:1056E00041180098C0170918059809181298401A0F
:1056F000401E1290E00306D42146229B219A129864
:1057000000F081F8451906980078002803D0229A05
:10571000219990476D1CE00322D52146229B219AB6
:10572000129800F070F845191AE00D98002806DB71
:105730001599814203DD1399085C219901E02199B3
:105740003020229A90470D986D1C401C0D900098B7
:10575000401E009004D1229A2E20219990476D1C62
:105760000199481E01900029DFDC08E004980499A3
:105770000078491C0491229A219990476D1C059943
:10578000481E05900029F1DC88E500002D0000008E
:105790002B0000002000000000000000F8B50446C7
:1057A000002517461E46880404D405E0394620200B
:1057B000B0476D1C641EF9D52846F8BDF8B50446FF
:1057C000002517461E46880404D405E039462020EB
:1057D000B0476D1C641EF9D52846F8BDFFB50446D8
:1057E0000025302781B01E46C80300D42027880436
:1057F00004D505E038460399B0476D1C641EF9D501
:10580000284605B0F0BDFFB504460025302781B01D
:105810001E46C80300D42027880404D505E0384676
:105820000399B0476D1C641EF9D5284605B0F0BD3C
:105830004A68002A06D00A68531C0B60107048683A
:10584000401E4860704700000000005000000150FA
:105850000000025000000350000000500000015002
:105860000000025000000350487BD070636444790C
:1058700040604146CC52C4C5083B903023240439D3
:10588000002001068C128485000001000200010046
:1058900003000100020001000400010002000100F9
:1058A00003000100020001000500010002000100E8
:1058B00003000100020001000400010002000100D9
:1058C00003000100020001000600010002000100C7
:1058D00003000100020001000400010002000100B9
:1058E00003000100020001000500010002000100A8
:1058F0000300010002000100040001000200010099
:105900000300010002000100070001000200010085
:105910000300010002000100040001000200010078
:105920000300010002000100050001000200010067
:105930000300010002000100040001000200010058
:105940000300010002000100060001000200010046
:105950000300010002000100040001000200010038
:105960000300010002000100050001000200010027
:105970000300010002000100040001000200010018
:105980000300010002000100A859000000000010FF
:10599000B0000000244C0000585A0000B000001075
:1059A00008160000324C0000001BB700001BB700B7
:1059B000001BB70000000000000000000000000015
:1059C00000000000000000000000000000000000D7
:1059D00000000000010000000000000000000000C6
:1059E00000000000000000000000000000000000B7
:1059F00000000000000000000000000000000000A7
:105A00000000000000000000000000000000000096
:105A10000000000000000000000000000000000086
:105A20000000000000000000000000000000000076
:105A30000000000000000000000000000000000066
:105A40000000000000000000000000000000000056
:085A500000000000DC0500006D
:04000005000000C136
:00000001FF
