:020000040000FA
:10000000B0020010690100006D0100006F010000E6
:100010007101000073010000750100000000000084
:100020000000000000000000000000007701000058
:1000300079010000000000007B0100007D0100004C
:100040007F0100007F0100007F0100007F010000B0
:100050007F0100007F0100007F0100007F010000A0
:100060007F0100007F0100007F0100007F01000090
:100070007F0100007F0100007F0100007F01000080
:100080007F0100007F0100004308000079080000A4
:100090007F0100007F0100007F0100007F01000060
:1000A0007F0100007F0100007F0100007F01000050
:1000B0004104000013040000E5030000B703000042
:1000C00000F002F800F040F80CA030C808382418FE
:1000D0002D18A246671EAB4654465D46AC4201D180
:1000E00000F032F87E460F3E0FCCB6460126334272
:1000F00000D0FB1AA246AB46334318474C0D000014
:100100006C0D0000103A02D378C878C1FAD85207B3
:1001100001D330C830C101D504680C6070470000BD
:100120000023002400250026103A01D378C1FBD813
:10013000520700D330C100D50B6070471FB5C046D1
:10014000C0461FBD10B510BD00F099F81146FFF76D
:10015000F5FF00F085FD00F0B1F803B4FFF7F2FF02
:1001600003BC00F0B5F8000008480047FEE7FEE7D2
:10017000FEE7FEE7FEE7FEE7FEE7FEE7FEE7FEE757
:1001800003480449024A044B70470000C1000000C4
:10019000B0000010B0020010B00000103049314A29
:1001A00011600121304A116051600021516001212C
:1001B000516000BF2C494968C907C90FFAD02A49C4
:1001C00040398868400A400203210143264A403AE8
:1001D00091602649896B80229143244A916300BF34
:1001E00021494039C968C907C90FF9D003211E4AFE
:1001F000116301215163002151630121516300BF4B
:100200001949496BC907C90FFAD00121164A9163F0
:10021000144909688900164A116011460968154A8F
:100220001160704700B502200F4940390860002076
:1002300008620E48806B202188430C4988630023A4
:1002400000E05B1CFF2BFCD9FFF7A8FF06484030FD
:10025000006801210904084303494031086000BDDA
:10026000001BB700000000104080044000820440E2
:100270000400001008000010704770477047754672
:1002800000F022F8AE46050069465346C008C0009B
:10029000854618B020B5FFF773FF60BC00274908FA
:1002A000B6460026C0C5C0C5C0C5C0C5C0C5C0C50E
:1002B000C0C5C0C5403D49008D4670470446C04694
:1002C000C0462046FFF749FF004870474C00001029
:1002D00001491820ABBEFEE726000200704700006F
:1002E00000000050000001500000025000000350C8
:1002F000000000000000000000000000FFFFFFFF02
:10030000002806D001280CD0022812D0032820D1C2
:1003100017E0FB4AD26901238B401A43F84BDA619C
:1003200018E0F84AD26901238B401A43F54BDA6191
:1003300010E0F54AD26901238B401A43F24BDA618F
:1003400008E0F24AD26901238B401A43EF4BDA618D
:1003500000E000BF00BF704710B502460020002A31
:1003600006D0012A0CD0022A12D0032A20D117E08D
:10037000E34B9B6901248C40234200D0012018E00C
:10038000E04B9B6901248C40234200D0012010E007
:10039000DD4B9B6901248C40234200D0012008E002
:1003A000DA4B9B6901248C40234200D0012000E0FD
:1003B00000BF00BF10BD10B5D5480068401CD4492F
:1003C000086001210020FFF7C7FF0446002C08D079
:1003D000D0480068401CCF49086001210020FFF789
:1003E0008FFF10BD10B5CC480068401CCA4908609A
:1003F00001210846FFF7B0FF0446002C08D0C7488B
:100400000068401CC549086001210846FFF778FFD5
:1004100010BD10B5C2480068401CC14908600121E8
:100420000220FFF799FF0446002C08D0BD48006861
:10043000401CBC49086001210220FFF761FF10BD8C
:1004400010B5B9480068401CB74908600121032075
:10045000FFF782FF0446002C08D0B4480068401C17
:10046000B249086001210320FFF74AFF10BD10B513
:10047000AF48006840210843AD4908601F2000F0E4
:1004800097F91E2000F094F91D2000F091F91C202E
:1004900000F08EF910BD70B5049C002806D001282C
:1004A00038D002286AD003287BD19CE0002A18D1DA
:1004B000934D6D6801268E40B543914E7560002BBB
:1004C00007D13546AD6801268E40B5438C4EB560E8
:1004D0000EE08B4DAD6801268E403543884EB560E9
:1004E00006E0874D6D6801268E403543844E756069
:1004F000002C07D1824DED6801268E40B543804E19
:10050000F56006E07E4DED6801268E4035437C4E59
:10051000F5609DE0002A18D17A4D6D6801268E4065
:10052000B543784E7560002B07D13546AD6801267E
:100530008E40B543734EB5600EE0724DAD68012636
:100540008E4035436F4EB56006E06E4D6D680126F6
:100550008E4035436B4E7560002C07D1694DED68B8
:1005600001268E40B543674EF56006E0654DED68A7
:1005700001268E403543634EF56069E0002A19D1AB
:10058000614D6D6801268E40B5435F4E7560002B4E
:1005900008D13546AD6801268E40B5435A4EB56048
:1005A0000FE054E0584DAD6801268E403543564E5D
:1005B000B56006E0544D6D6801268E403543524EBD
:1005C0007560002C07D1504DED6801268E40B54373
:1005D0004D4EF56006E04C4DED6801268E403543EA
:1005E000494EF56034E0002A18D1484D6D68012667
:1005F0008E40B543454E7560002B07D13546AD683A
:1006000001268E40B543414EB5600EE03F4DAD68CA
:1006100001268E4035433D4EB56006E03B4D6D688A
:1006200001268E403543394E7560002C07D1374D79
:10063000ED6801268E40B543344EF56006E0334D3B
:10064000ED6801268E403543304EF56000E000BF76
:1006500000BF70BD002806D001280CD0022812D09F
:10066000032820D117E0264A126901238B401A4340
:10067000234B1A6118E0234A126901238B401A4365
:10068000204B1A6110E0204A126901238B401A4363
:100690001D4B1A6108E01D4A126901238B401A4361
:1006A0001A4B1A6100E000BF00BF7047002806D057
:1006B00001280CD0022812D003283BD117E0104AA1
:1006C000126901238B409A430D4B1A6133E00D4AA6
:1006D000126901238B409A430A4B1A612BE00A4AA4
:1006E000126901238B409A43074B1A6123E0074AA2
:1006F000136901228A409343044A13611BE00000FE
:1007000000800050008001500080025000800350A3
:100710000C00001010000010140000101800001051
:100720001C00001020000010240000102800001001
:100730008080044000BF00BF704730B513468B4037
:1007400084001F4D2D5901248C40A4002B5130BD35
:10075000024690001A4B1B58012088408000185810
:10076000704730B5002A11D08300154CE35801249E
:10077000E4031B191B6801248C4023438400104DA3
:100780002C590125ED036419236010E083000C4C03
:10079000E3580124E4031B191B6801248C40A34384
:1007A0008400074D2C590125ED036419236030BDE9
:1007B000C206D20E01219140024A1160704700002A
:1007C000E002000000E100E070B504460D46002C98
:1007D0001AD10220F84948600020C8607D21C90074
:1007E000F648006800F082FA6843F3498861FF2008
:1007F0000860042048610120486000BFEE4840685E
:10080000C007C00FFAD11BE0012C19D10220EC491E
:1008100048600020C8607D21C900E848006800F0F9
:1008200065FA6843E6498861FF2008600420486152
:100830000120486000BFE2484068C007C00FFAD1FD
:1008400070BDDD480068C007C00F07D00120DA493D
:100850000860DC480068401CDA490860D648006837
:100860001021084207D01020D3490860D6480068FC
:10087000401CD54908607047D1480068C007C00FC8
:1008800007D00120CE490860D0480068401CCF49FD
:100890000860CB4800681021084207D01020C849E2
:1008A0000860CB480068401CC949086070470028B0
:1008B00003D10121C04A516002E00121C04A5160C8
:1008C0007047002803D10021BB4A516002E000219B
:1008D000BB4A516070470146002906D1B64A5068AC
:1008E00002221043B44A506005E0B54A5068022223
:1008F0001043B34A5060704770B504460D46002C53
:1009000047D1B4480068012149020843B149086051
:10091000B148006AC008C000AF4908620846006AD2
:1009200002210843AC4908620846406AC008C0007A
:1009300048620846406A02210843A74948620846BF
:10094000806AC008C00088620846806A02210843A5
:10095000A1498862A04880380069C008C0009E494B
:100960008039086108460069022108439A498039A4
:100970000861002093490860934908608E488561AA
:1009800005208D49886203204861122000F05BF940
:1009900022E0012C20D18F480068A10208438D4934
:1009A00008608D484069C008C0008B49486108460E
:1009B0004069022108438849486100208349086052
:1009C000834908607E48856105207D49886203204F
:1009D0004861132000F037F970BD70B504460D462C
:1009E000002C12D17B480068012149020843794953
:1009F00008600020734908606F48856103206E49D4
:100A00004861122000F01FF912E0012C10D171484A
:100A10000068A10208436F49086000206B49086024
:100A200067488561032066494861132000F00BF98F
:100A300070BD30B505460C4613462846FFF741FF0A
:100A4000012D62D163480068A9020843614908602A
:100A5000B320C00018435A49C863D807C00F0ED04E
:100A60005D484038C06BC008C0005B494039C8636E
:100A70000846C06B0321084357494039C863022028
:100A800003420BD054480068C008C00052490860B7
:100A900008460068032108434F49086004200342C8
:100AA0000BD04D480069C008C0004B49086108469A
:100AB00000690321084348490861082003420BD01C
:100AC00045484069C008C00043494861084640693C
:100AD0000221084340494861082018433849403101
:100AE00048633E4804600068354948623B480068F6
:100AF00040088861394800684008C8613748006884
:100B0000400808620815486155E032480068012134
:100B1000490208432F490860CB20C00018432649EA
:100B2000C863022003420BD02B48806AC008C00073
:100B3000294988620846806A02210843264988625A
:100B4000042003420ED0244880380069C008C00049
:100B500021498039086108460069022108431E497D
:100B600080390861082003420ED01B484038406B92
:100B7000C008C0001849403948630846406B03214B
:100B80000843154940394863082018430A49403151
:100B900048631348046000680749486210480068C9
:100BA00088610F4800684008C8610D480068400827
:100BB00008620815486130BD00400140080000107F
:100BC00000800140340000103C000010380000108C
:100BD0004000001080800440804004404800001025
:100BE00044000010002816D0002906D0012907D0A3
:100BF000022908D003290CD108E0164B9A6109E0BC
:100C0000144BDA6106E0134B1A6203E0114B5A628F
:100C100000E000BF16E0002906D0012907D0022914
:100C200008D003290CD108E00B4B9A6109E00A4B6C
:100C3000DA6106E0084B1A6203E0074B5A6200E0F3
:100C400000BF00BF7047C206D20E01219140034A87
:100C500011607047008001400040014000E100E069
:100C6000FFF7E0FAFFF703FC012202210020FFF763
:100C700078FD012202210020FFF75FFD0122002103
:100C80000320FFF76EFD012200210320FFF755FD31
:100C900064211448006800F029F8441E2146002011
:100CA000FFF72AFE0020FFF702FE1AE00E48006858
:100CB000322805D2002211460320FFF73EFD10E046
:100CC00009480068322809D307480068642805D21B
:100CD000012200210320FFF730FD02E0002002493D
:100CE0000860E3E708000010340000100022030948
:100CF0008B422CD3030A8B4211D300239C464EE037
:100D000003460B433CD4002243088B4231D30309F2
:100D10008B421CD3030A8B4201D394463FE0C309A4
:100D20008B4201D3CB01C01A524183098B4201D3BC
:100D30008B01C01A524143098B4201D34B01C01AA7
:100D4000524103098B4201D30B01C01A5241C3081F
:100D50008B4201D3CB00C01A524183088B4201D38E
:100D60008B00C01A524143088B4201D34B00C01A7A
:100D70005241411A00D201465241104670475DE08F
:100D8000CA0F00D04942031000D340425340002212
:100D90009C4603098B422DD3030A8B4212D3FC22BB
:100DA000890112BA030A8B420CD3890192118B423A
:100DB00008D3890192118B4204D389013AD0921150
:100DC00000E08909C3098B4201D3CB01C01A52410B
:100DD00083098B4201D38B01C01A524143098B42D4
:100DE00001D34B01C01A524103098B4201D30B01BD
:100DF000C01A5241C3088B4201D3CB00C01A5241E2
:100E000083088B4201D38B00C01A5241D9D24308C8
:100E10008B4201D34B00C01A5241411A00D2014605
:100E2000634652415B10104601D34042002B00D56F
:100E30004942704763465B1000D3404201B5002031
:100E4000C046C04602BD0000680E00000000001051
:100E50004C00000004010000B40E00004C00001023
:100E60006402000020010000001BB700001BB70057
:100E7000001BB700000000000000000000000000A0
:100E80000000000000000000000000000000000062
:100E90000000000000000000000000000000000052
:100EA0000000000000000000000000000000000042
:040EB000000000003E
:04000005000000C136
:00000001FF
