:020000040000FA
:100000002803001065020000690200006B02000076
:100010006D0200006F02000071020000000000008D
:10002000000000000000000000000000730200005B
:100030007502000000000000770200001F1C000095
:100040007B0200007B0200007B0200007B020000BC
:100050007B0200007B0200007B0200007B020000AC
:100060007B0200007B0200007B0200007B0200009C
:100070007B0200007B020000CF0900007B02000031
:100080007B0200007B0200007B0200007B0200007C
:100090008D090000B10F00007B0200007B02000010
:1000A0007B0200007B0200007B0200007B0200005C
:1000B000651D0000431D0000EF1C0000C11C000076
:1000C00000F002F800F0BFF80CA030C8083824187F
:1000D0002D18A246671EAB4654465D46AC4201D180
:1000E00000F0B1F87E460F3E0FCCB64601263342F3
:1000F00000D0FB1AA246AB4633431847F442000037
:1001000014430000103A02D378C878C1FAD85207D5
:1001100001D330C830C101D504680C6070470000BD
:100120000023002400250026103A01D378C1FBD813
:10013000520700D330C100D50B60704710B56E294F
:1001400002D102F0E8FC10BD702902D102F039FEA4
:1001500010BD662902D103F0C1FC10BD652902D192
:1001600003F0BCFC10BD672902D103F0B7FC10BD41
:10017000612902D1C046C04610BD03681B0A01D3E5
:1001800080231943692902D101F0C4FE10BD6429FE
:1001900002D101F0BFFE10BD752902D101F0BAFEF7
:1001A00010BD6F2902D102F0B7FD10BD782902D130
:1001B00002F0F4FD10BDE92902D102F053FD10BD9B
:1001C000E42902D102F04EFD10BDF52902D102F062
:1001D00049FD10BDEF2902D102F0AAFD10BDF8299A
:1001E00002D102F0E9FD10BD0368DB0901D38023D1
:1001F0001943632902D103F050F810BD732902D1CD
:1002000003F053F810BDE32902D103F05DF810BDEF
:10021000F32902D103F060F810BD002010BD1FB516
:10022000C046C04603F0A6F804000020002103F0F9
:100230003FFC401C60600020002103F023FCE060D4
:100240001FBD10B510BD03F06DF81146FFF7E7FFB5
:1002500001F0E6FC03F0A0FB03B4FFF7F2FF03BCE0
:1002600000F095FE08480047FEE7FEE7FEE7FEE7E0
:10027000FEE7FEE7FEE7FEE7FEE7FEE70348044988
:10028000024A044B70470000C10000002801001022
:100290002803001028010010704700007CB51546A7
:1002A0001A460C00009001D00019401E074B7B44F9
:1002B00069460190284602F048FC002C054603D010
:1002C0006946002000F015F828467CBDBF280000D4
:1002D0000FB4054910B503AA029802F051FC10BCF6
:1002E00008BC04B018470000240000107047704795
:1002F00070470A681070521C0A607047FFFFFFFFCA
:100300003049314A11600121304A116051600021A9
:1003100051600121516000BF2C494968C907C90FCC
:10032000FAD02A4940398868400A40020321014333
:10033000264A403A91602649896B80229143244A9B
:10034000916300BF21494039C968C907C90FF9D075
:1003500003211E4A116301215163002151630121D0
:10036000516300BF1949496BC907C90FFAD0012170
:10037000164A9163144909688900164A11601146AA
:100380000968154A1160704700B502200F494039CD
:100390000860002008620E48806B202188430C49C9
:1003A0008863002300E05B1CFF2BFCD9FFF7A8FF4C
:1003B00006484030006801210904084303494031E0
:1003C000086000BD001BB700000000104080044022
:1003D00000820440040000100800001070B50546BB
:1003E0006848806B102188436649886366480068C6
:1003F00001214903084364490860002404E0002007
:10040000A100624A5050641C082CF8D3604840692F
:100410008F2188435E4948610846406901210843AD
:100420005B4948615A484038C06A8F21884358491F
:100430004039C8620846C06A01210843544940391E
:10044000C862534880698F218843514988610846B2
:100450008069012108434E49886129464D4800685A
:1004600001F058FE401E00024B4908434B4908600A
:1004700070BD70B505464348806B102188434149E3
:100480008863414800680121490308433E490860E8
:10049000002404E00020A1003C4A5050641C082CB9
:1004A000F8D33B484038406B87218843384940396E
:1004B00048630846406B0221084335494039486388
:1004C000334800688721884331490860084600683E
:1004D000022108432E49086029462E48006801F091
:1004E00019FE401E00022C4908432C49086070BDCB
:1004F00030B50146082900DB002128480068000AC1
:100500000002264C20602046046801208840012516
:100510002D06284304432148046007E088001F4C4F
:1005200000190269D00FC00700D000E0F6E700BF55
:100530001A48006807242406A043184C20600120B4
:100540008007024201D0002030BD1004830D184600
:10055000FAE71248006807210906084204D00F484C
:10056000006888430D4908600C480068FF21084373
:100570000A49086008460068012109040843074940
:1005800008607047008204408080044064000010CE
:1005900080400440080000100100200000C001401D
:1005A00010B5F348006840210843F14908601F2056
:1005B00000F0D7F91E2000F0D4F91D2000F0D1F989
:1005C0001C2000F0CEF910BD70B5049C002806D0A8
:1005D000012838D002286AD003287BD19CE0002A69
:1005E00018D1E44D6D6801268E40B543E14E75602B
:1005F000002B07D13546AD6801268E40B543DD4E50
:10060000B5600EE0DB4DAD6801268E403543D94E16
:10061000B56006E0D74D6D6801268E403543D54E56
:100620007560002C07D1D34DED6801268E40B5438F
:10063000D04EF56006E0CF4DED6801268E40354383
:10064000CC4EF5609DE0002A18D1CB4D6D68012697
:100650008E40B543C84E7560002B07D13546AD6856
:1006600001268E40B543C44EB5600EE0C24DAD6864
:1006700001268E403543C04EB56006E0BE4D6D6824
:1006800001268E403543BC4E7560002C07D1BA4D13
:10069000ED6801268E40B543B74EF56006E0B64DD5
:1006A000ED6801268E403543B34EF56069E0002ABF
:1006B00019D1B24D6D6801268E40B543AF4E7560BD
:1006C000002B08D13546AD6801268E40B543AB4EB0
:1006D000B5600FE054E0A94DAD6801268E4035436A
:1006E000A64EB56006E0A54D6D6801268E403543E7
:1006F000A24E7560002C07D1A04DED6801268E40FA
:10070000B5439E4EF56006E09C4DED6801268E4097
:1007100035439A4EF56034E0002A18D1984D6D6843
:1007200001268E40B543964E7560002B07D13546A5
:10073000AD6801268E40B543914EB5600EE0904DF8
:10074000AD6801268E4035438D4EB56006E08C4D78
:100750006D6801268E403543894E7560002C07D1A7
:10076000874DED6801268E40B543854EF56006E065
:10077000834DED6801268E403543814EF56000E0E3
:1007800000BF00BF70BD002806D001280CD0022891
:1007900012D0032820D117E0764A126901238B403A
:1007A0001A43744B1A6118E0734A126901238B4093
:1007B0001A43714B1A6110E0704A126901238B4091
:1007C0001A436E4B1A6108E06D4A126901238B408F
:1007D0001A436B4B1A6100E000BF00BF704700284E
:1007E00006D001280CD0022812D0032820D117E00F
:1007F000604A126901238B409A435E4B1A6118E0EC
:100800005D4A126901238B409A435B4B1A6110E0E9
:100810005A4A126901238B409A43584B1A6108E0E7
:10082000574A136901228A409343554A136100E0F5
:1008300000BF00BF704710B502460020002A06D056
:10084000012A0CD0022A12D0032A20D117E0494BEA
:100850009B6901248C40234200D0012018E0464BC4
:100860009B6901248C40234200D0012010E0434BBF
:100870009B6901248C40234200D0012008E0404BBA
:100880009B6901248C40234200D0012000E000BF7E
:1008900000BF10BD002806D001280CD0022812D0BD
:1008A000032820D117E0334AD26901238B401A4331
:1008B000304BDA6118E0304AD26901238B401A4389
:1008C0002D4BDA6110E02D4AD26901238B401A4387
:1008D0002A4BDA6108E02A4AD26901238B401A4385
:1008E000274BDA6100E000BF00BF704730B5134608
:1008F0008B408400234D2D5901248C40A4002B51A2
:1009000030BD024690001F4B1B58012088408000DC
:100910001858704730B5002A11D08300194CE3589D
:100920000124E4031B191B6801248C402343840029
:10093000144D2C590125ED036419236010E0830048
:10094000104CE3580124E4031B191B6801248C405C
:10095000A34384000B4D2C590125ED03641923603A
:1009600030BDC206D20E01219140074A1160704786
:1009700080800440008000500080015000800250C0
:1009800000800350EC3A000000E100E0FE49C86935
:10099000C107C90F07D0FD490968491CFB4A11600E
:1009A0000121F94A11620221084207D0F849096879
:1009B000491CF74A11600221F34A116204210842DE
:1009C00004D0F4490968491CF24A11607047F249A1
:1009D000C869C107C90F07D0F0490968491CEF4A27
:1009E00011600121EC4A11620221084207D0EC4952
:1009F0000968491CEA4A11600221E74A1162042190
:100A0000084204D0E7490968491CE64A116070476A
:100A100010B50446002C47D1E34840680121084343
:100A2000E1494860E04880300068C9140843DE4965
:100A30008031086002204861DC48006AC008C000BC
:100A4000DA4908620846006A01210843D74908626A
:100A50000846406AC008C00048620846406A012152
:100A60000843D24948620120D04940310863CF4948
:100A70000863CD488030006840210843CA4980316E
:100A80000860CA484038C069C008C000C74940393A
:100A9000C861012202210020FFF73CFF0122022150
:100AA0000020FFF723FF54E0BF48406804210843BB
:100AB000BD494860BC488030006801218904084372
:100AC000B949803108600220C861B848C069C008CF
:100AD000C000B649C8610846C06902210843B3494D
:100AE000C861B2484030C068C008C000AF4940315A
:100AF000C8600846C06802210843AC494031C8605C
:100B0000AA484038806AC008C000A84940398862B5
:100B10000846806A02210843A44940398862A248F5
:100B200080300068402108439F49803108609F4819
:100B300040388068C008C0009C4940398860012264
:100B400000210220FFF7E6FE012200210220FFF72C
:100B5000CDFE10BD10B50446002C69D19248406806
:100B600001210843904948608F4880300068C914CB
:100B700008438D4980310860022048618B48006A33
:100B8000C008C000894908620846006A012108437C
:100B9000864908620846406AC008C00048620846A4
:100BA000406A012108438149486202207F4940315F
:100BB00008637E49C8607C48803000684021084353
:100BC00079498031086079480068C008C0007749D9
:100BD0000860012204210220FFF79CFE012204216B
:100BE0000220FFF783FE714840380068C008C0004B
:100BF0006E4940390860012206210220FFF78AFE73
:100C0000012206210220FFF771FE68484038006A81
:100C1000C008C0006549403908620122072102204E
:100C2000FFF778FE012207210220FFF75FFE54E064
:100C30005D484068042108435B4948605A48803059
:100C40000068012189040843574980310860022067
:100C5000C8615648C069C008C0005449C861084608
:100C6000C069022108435149C86150484030C068FA
:100C7000C008C0004D494031C8600846C068022124
:100C800008434A494031C86048484038806AC00833
:100C9000C0004649403988620846806A02210843FC
:100CA000424940398862404880300068402108430A
:100CB0003D49803108603D4840388068C008C00028
:100CC0003A4940398860012200210220FFF722FEC4
:100CD000012200210220FFF709FE10BD70B5054674
:100CE00000BF002D16D1324827490860FE20086158
:100CF000002404E024488068C6B2601CC4B2082CFA
:100D0000F8DB142000F003F902201F49486003209B
:100D1000486115E026482049086002200861002447
:100D200004E01D488068C6B2601CC4B2082CF8DB21
:100D30000E2000F0ECF802201749486003204861BB
:100D400070BDF8B507460D46164600980090002F76
:100D500030D1681E0721090208430B490860084684
:100D60000661002405E008488068C0B20090601C5D
:100D7000C4B2082CF7DB142000F0C9F802200249A5
:100D80004860032048612FE000000440100000107C
:100D9000140000100C000010008005401C00001022
:100DA0002000001018000010008004404040044063
:100DB00007070000681E0721090208435749086019
:100DC00008460661002405E054488068C0B20090DF
:100DD000601CC4B2082CF7DB0E2000F098F802204B
:100DE0004E49486003204861F8BD70B500BF00233C
:100DF0002DE0002815D100BF494DED681226354081
:100E0000022DF9D10D78464EB560491C00BF444D06
:100E1000ED6814263540042DF9D1414DAD68ECB292
:100E200014E000BF3D4DED6812263540022DF9D18A
:100E30000D783A4EB560491C00BF384DED68142658
:100E40003540042DF9D1354DAD68ECB25B1C9342B1
:100E5000CFD370BD30B500231FE000280ED1FF2492
:100E60002F4DAC6000BF2E4CE46814252C40042CA0
:100E7000F9D12B4CA4680C70491C0DE0FF24274DC0
:100E8000AC6000BF254CE46814252C40042CF9D13B
:100E9000224CA4680C70491C5B1C9342DDD330BD0E
:100EA0000246002A19D100BF1D48C068122318400D
:100EB0000228F9D11A48816000BF1948C068102380
:100EC0001842FAD100BF1648C068142318400428FD
:100ED000F9D11348806880B2704700BF0F48C068DE
:100EE000122318400228F9D10C48816000BF0B483A
:100EF000C06810231842FAD100BF0848C068142304
:100F000018400428F9D10548806880B2E4E7C20699
:100F1000D20E01219140034A1160704700800540C4
:100F20000000044000E100E000BF1E4949692022A2
:100F30001142FAD01B490860704710B503460C46B1
:100F40001846FFF7F1FF10BD00BF174800680028E2
:100F5000FBD0062013494860002013490860072091
:100F60001049486011480078704710B50446FFF7F3
:100F7000EBFF0346FFF7D8FF10BD00B50346184648
:100F8000FFF7D2FF00BD01460020C043704700BFFD
:100F9000FEE700BF03484069C007C00FFAD0014810
:100FA000006870470080004030000010840000108E
:100FB00070B500BF864A9268D0B240104007400F1B
:100FC000032820D1824A5269D1B29E22114205D013
:100FD000804A11607E4A1268D3B270BDCA07D20F30
:100FE0003ED07B4C2468E5B27B4C2268541C7A4E80
:100FF00034607A4CA55432461268402A30D300221D
:10100000344622602CE0022811D1714C2468E5B2EC
:10101000714C2268541C704E3460704CA55432469A
:101020001268402A1CD300223446226018E00628A9
:1010300007D1684A1268FF2401342243654C2260BC
:101040000EE001280CD1624A5269D1B2202211422D
:1010500003D00122624C227002E00022604C227018
:1010600000BFBAE7F8B5044601205D4908700020CA
:101070005949086000BF152001218140594801608D
:1010800000BF5948406AC008C00057494862084636
:10109000406A01210843544948620846806AC008F2
:1010A000C00088620846806A012108434E49886270
:1010B0004E4800680121090308434C49086001209B
:1010C000886183204249C860484887693946484852
:1010D000006801F01FF806092146304601F01AF8B1
:1010E0000546280A3A494860E8B208600320C8600B
:1010F000072088600846476900BF3548406960217D
:1011000008406028F9D101E031480768304840695B
:10111000C007C00FF8D100BF152001218140314820
:101120008038016000BF052029494860F8BD0AE009
:1011300000BF274A526920231A42FAD00278244B72
:101140001A60401C491E0029F2D1704700BF204997
:10115000496920221142FAD01D490860704700B544
:10116000034603E018785B1CFFF7F0FF18780028AF
:10117000F8D100BD0FB400B59BB01DA8009064214C
:1011800001A8009B1C9AFFF789F801A8FFF7E7FF69
:101190001BB008BC04B018470146164800680E4A48
:1011A0001268904211D00D48124A1268805C087093
:1011B00010480068401C0F4A106010460068402824
:1011C00001D300201060012070470020FCE70000E0
:1011D0000080004038000010300000108400001033
:1011E0002C00001080E100E080400440808004403A
:1011F0000800001034000010F1B582B02148846965
:101200004069019020490298484300900199009854
:1012100000F080FF07460199009800F07BFF0D4623
:10122000002F0ED000260AE000BF16488069A042B9
:10123000FBD300BF13488069A042FBD8761CBE4296
:10124000F2D3002D1DD0A54206D200BF0D48806903
:10125000611B8842FAD814E0A54205D100BF0948B5
:101260008069A042FBD30CE000BF06488069A04221
:10127000FBD300BF034881692A1B0198801A814271
:10128000F8D8FEBD00E000E080BB000000BF0146D2
:10129000421ED0B20029FAD1704770B5064600252B
:1012A00010E000230AE0002404E0CB20FFF7EEFF6B
:1012B000601CC4B20F2CF8DB581CC3B2832BF2DBCA
:1012C000681CC5B2B542ECDB70BD10B50446002207
:1012D00005210220FFF70AFB002204210220FFF76C
:1012E00005FB21460020FFF7DBFD0122042102203F
:1012F000FFF7FCFA012205210220FFF7F7FA10BDE3
:1013000010B50446012205210220FFF7EFFA002262
:1013100004210220FFF7EAFA21460020FFF7C0FD72
:10132000012204210220FFF7E1FA01220521022017
:10133000FFF7DCFA10BD70B504462546E117090F2A
:10134000091909110901611AC8B2FFF7BEFF254644
:10135000E117090F0919091108461030FFF7B5FF09
:1013600070BD10B504462020FFF7AFFF2046FFF701
:10137000ACFF10BD70B505460C462120FFF7A5FF58
:101380002846FFF7A2FF2046FFF79FFF70BD70B50C
:1013900005460C462220FFF798FF2846FFF795FFE9
:1013A0002046FFF792FF70BD10B50446214640224B
:1013B00011430846FFF789FF10BD10B50446812090
:1013C000FFF783FF2046FFF780FF10BD10B50446EE
:1013D0008D20FFF77AFF2146102211430846FFF7C0
:1013E00074FF10BD10B504462146A02211430846E3
:1013F000FFF76BFF10BD10B504462146A422114330
:101400000846FFF762FF10BD10B504462146A6222C
:1014100011430846FFF759FF10BD10B50446A82038
:10142000FFF753FF2046FFF750FF10BD10B50446ED
:101430002146AE2211430846FFF747FF10BD10B505
:1014400004462146B02211430846FFF73EFF10BD77
:1014500010B504462146C02211430846FFF735FF68
:1014600010BD10B50446D320FFF72FFF2046FFF72D
:101470002CFF10BD10B50446D520FFF726FF2046EF
:10148000FFF723FF10BD10B50446D920FFF71DFF5D
:101490002046FFF71AFF10BD10B50446DA20FFF70B
:1014A00014FF2146022211430846FFF70EFF10BD2C
:1014B00010B50446DB20FFF708FF2046FFF705FFC5
:1014C00010BD10B5E320FFF700FF10BD70B5064654
:1014D000002410E02046FFF7B2FF0020FFF72BFFAB
:1014E000002504E03046FFF70BFF681CC5B2802DD5
:1014F000F8DB601CC4B2082CECDB70BD10B500201A
:10150000FFF7E4FF10BDFFB581B00D4616461F463C
:101510002C4615E02046FFF792FF3846FFF70BFFF9
:101520000020009006E00198FFF7EAFE0098401CBA
:10153000C0B200900A9900988842F4DB601CC4B2E3
:10154000701C8442E6DB05B0F0BD70B5002413E0EA
:101550002046FFF774FF0020FFF7EDFE002507E0AF
:101560005520FFF7CDFEAA20FFF7CAFE681CC5B2C2
:10157000402DF5DB601CC4B2082CE9DB70BD70B5F2
:101580000020FFF75CFF0020FFF7D5FE002404E0F9
:101590000120FFF7B5FE601CC4B2802CF8DB0720E9
:1015A000FFF74DFF0020FFF7C6FE002404E0802077
:1015B000FFF7A6FE601CC4B2802CF8DB002411E00B
:1015C0002046FFF73CFF002508E02846FFF7B3FE62
:1015D000FF20FFF795FE28467F30C5B2802DF4DB53
:1015E000601CC4B2082CEBDB70BDFFB581B00746B0
:1015F0000D46012F02D0022F0BD104E0A8002818BD
:10160000FF49441805E0681E81004018FD49441850
:1016100000BF00BF0398FFF712FF0498FFF78BFE8F
:10162000002605E02078FFF76BFE641C701CC6B234
:10163000052EF7DB0020FFF763FE05B0F0BDFFB518
:1016400081B007460D461E462C46334660210120D8
:10165000039AFFF7CAFF0CE0217833463846039A15
:10166000FFF7C3FF641CB01DC6B22078002800D16C
:1016700000E0F1E700BF05B0F0BDFFB583B005465F
:101680000E4617460295344619E02046FFF7D7FE6E
:101690000698FFF750FE002001900AE002990878B2
:1016A000FFF72EFE0298401C02900198401CC0B229
:1016B00001900C9901988842F0DB601CC4B2781C40
:1016C0008442E2DB07B0F0BDFFB581B00F4614469F
:1016D0000498203881004018C94945180198FFF73F
:1016E000AEFE002F0BD10020FFF725FE002C03D10A
:1016F0000020FFF705FE02E0FF20FFF701FE791C46
:10170000C8B2FFF718FE00260DE0002C03D12878A0
:10171000FFF7F6FD04E02978C943C8B2FFF7F0FDF2
:101720006D1C701CC6B2052EEFDB002C03D100200F
:10173000FFF7E6FD02E0FF20FFF7E2FD05B0F0BD98
:10174000F8B506460F4614460025082E18DA08E0BC
:1017500023783A4629463046FFF7B6FFA81D85B2E2
:10176000641C2078002801D0012000E00020691CC2
:1017700089B2802901DA012100E000210842E7D185
:10178000F8BDFFB581B015461F46A320FFF79DFDAC
:101790000298FFF79AFD2846FFF797FD0198002869
:1017A00002D0012825D111E000240CE0E0B2FFF7BF
:1017B000FBFD002603E0C820FFF768FD761C0A98B1
:1017C0008642F8D3E419AC42F0D312E000240DE0D5
:1017D000291BC8B2FFF7E8FD002603E0C820FFF789
:1017E00055FD761C0A988642F8D3E419AC42EFD333
:1017F00000BF00BF0020FFF7D7FD05B0F0BDFFB56B
:1018000081B004460D4616461F4621462622114346
:101810000846FFF75AFD0020FFF757FD2846FFF75F
:1018200054FD3846FFF751FD3046FFF74EFD2F209F
:10183000FFF74BFD0A98FFF730FD05B0F0BDFFB58F
:1018400081B004460D4616461F46A320FFF73DFD16
:101850003846FFF73AFD0A98FFF737FD2146293150
:10186000C8B2FFF732FD0020FFF72FFD2846FFF733
:101870002CFD0C98FFF729FD3046FFF726FD0B984D
:10188000FFF723FD2F20FFF720FD0D98FFF705FD43
:1018900005B0F0BD10B52E20FFF717FD10BD10B537
:1018A0000120FFF7C3FD00240CE0E0B2FFF785FD47
:1018B000C820FFF7EBFCC820FFF7E8FCC820FFF7C3
:1018C000E5FC641CD02CF0D310BD10B5D0240DE085
:1018D000611EC8B2FFF771FDC820FFF7D7FCC82012
:1018E000FFF7D4FCC820FFF7D1FC641E002CEFD119
:1018F0000020FFF79BFD10BD10B50446002C02D060
:10190000012C0ED106E00020FFF790FD0120FFF72B
:1019100072FD06E00020FFF76EFD0120FFF786FD57
:1019200000BF00BF10BD0120FFF765FD0BE00120E7
:10193000FFF77CFD0220FFF7B0FC0020FFF776FDEB
:101940000220FFF7AAFCF2E710B50020FFF76EFDBA
:101950008020FFF78FFD3F20FFF75FFD0020FFF79E
:1019600080FD0020FFF720FD0020FFF72FFD022063
:10197000FFF7F7FC0120FFF735FD0820FFF768FDB2
:101980001020FFF789FDCF20FFF717FD2220FFF77A
:101990007AFD4020FFF78CFD0020FFF72CFD002092
:1019A000FFF732FD0020FFF791FD0120FFF73EFD1C
:1019B00010BD10B5012205210220FEF7ABFF00206B
:1019C000FFF734FD8020FFF755FD3F20FFF725FD91
:1019D0000020FFF746FD0020FFF7E6FC0420FFF79C
:1019E000F5FC0220FFF7BDFC0120FFF7FBFC0820FF
:1019F000FFF72EFD1020FFF74FFDCF2004E0000081
:101A0000CC3B000081400000FFF7D7FCF120FFF73E
:101A10003AFD4020FFF74CFD0020FFF7ECFC0020D2
:101A2000FFF7F2FC0020FFF751FD0120FFF7FEFC5D
:101A300010BD00B587B05AA207CA04AB07C3002087
:101A4000FFF744FD30230093282305220221574845
:101A5000FFF713FE0520FFF720FCFFF736FF0520F8
:101A6000FFF71BFCFFF71BFF0520FFF716FC2023E9
:101A700000930123402200210846FFF782FE052043
:101A8000FFF70BFC2023009301234022002118467E
:101A9000FFF777FE0520FFF700FCFFF7FBFE0520B0
:101AA000FFF7FBFB01230022202001930393029206
:101AB0000090134611461046FFF7C1FE0520FFF7C0
:101AC000ECFB012300221F21202003936B4607C358
:101AD000134611461046FFF7B2FE0520FFF7DDFB67
:101AE000022300220121202003936B4607C31346E3
:101AF000032200210846FFF7A2FE0520FFF7CDFBD9
:101B0000022300221F21202003936B4607C31346A4
:101B1000032200210120FFF792FE0520FFF7BDFB05
:101B2000022300220121202003936B4607C31346A2
:101B3000072204210120FFF782FE0520FFF7ADFBFD
:101B4000022300221F21202003936B4607C3134664
:101B5000072204210020FFF772FE0520FFF79DFBFE
:101B6000FFF798FE0520FFF798FBFF20FFF7AEFC7C
:101B70000520FFF792FBFFF7E8FC0520FFF78DFB40
:101B80000020FFF7A3FCFFF7FAFC0520FFF785FB19
:101B90002523032204A90120FFF751FD07B000BD52
:101BA000354E49564953494F4E0000000C3B00004A
:101BB00010B5002819DA374A03071B0F083B9B08AA
:101BC0009B00D2588307DC0EFF23A3409A434B07A8
:101BD0001B0E8407E40EA3401A432E4B0407240F68
:101BE000083CA408A4001A5118E02B4A03231B0246
:101BF000D21883089B00D2588307DC0EFF23A34032
:101C00009A434B071B0E8407E40EA3401A43224B52
:101C1000032424021B198408A4001A5110BD704724
:101C200010B5FEF7B1FBFEF7BBFC00BF1B481C491B
:101C3000884200D90EE01948401E1A494861072120
:101C40000020C043FFF7B4FF002016498861072039
:101C5000086100BF0020FEF77DFF0222082100205E
:101C6000FFF76FF8FFF7A5FEE1204002FFF7FAF952
:101C700002211520FFF79CFF0BA0FEF729FBFA209D
:101C8000FFF7BAFA0BA0FEF723FB00F087F800205D
:101C900010BD00001CED00E000E100E080BB000092
:101CA000FFFFFF0000E000E00D0A0D0A53656E73B0
:101CB0006F7200000D0A0D0A566F6C746167650043
:101CC00010B52E480068401C2C49086001210020F6
:101CD000FEF7B1FD0446002C08D029480068401CDE
:101CE0002749086001210020FEF7D4FD10BD10B582
:101CF00024480068401C2349086001210846FEF77B
:101D00009AFD0446002C08D01F480068401C1E495C
:101D1000086001210846FEF7BDFD05210120FEF700
:101D20008AFD00280CD019488069194908601948B3
:101D30000068401C1749086005210120FEF7AAFD34
:101D400010BD10B508210220FEF775FD002808D04F
:101D500011480068401C1049086008210220FEF765
:101D600099FD10BD10B503210846FEF764FD00285B
:101D700003D003210846FEF78DFD10BD3C00001086
:101D800040000010440000104800001000E000E097
:101D9000600000105C000010500000108EB0FFF7D3
:101DA000ADFB3AA200210120FFF7CAFC39A20121B4
:101DB0000320FFF7C5FC3AA0FEF78AFA3948FEF780
:101DC00058FB62E00020FEF793FB0446204600F03B
:101DD000A2FC0546344A354B00F0A0FC0022344BEF
:101DE0000191009000F044FA0022324B03910290DE
:101DF00000F094FC0591049000F040FC044623465A
:101E00002DA20D2106A800F067F806AA00210720E0
:101E1000FFF796FC7D21C900204600F07BF9039175
:101E20006421039800F076F90D460A21284600F057
:101E300071F90E467D21C900204600F06BF903912F
:101E40006421039800F066F90D460A21284600F047
:101E500061F97D21C9000590204600F05BF90D462F
:101E60006421284600F056F907467D21C900204626
:101E700000F050F9009604903A46014612A0059BE6
:101E8000FEF726FAFA20FFF7B7F99BE7564F4C54B6
:101E90004147450068656C6C6F20776F726C640019
:101EA0000D0A0000009F24006666666666660A40AA
:101EB00000F88F4000408F40414443203A20256481
:101EC0006D5620200000000025642E256425642521
:101ED00064562020000000000FB47CB50C0009AA55
:101EE000009001D00019401E094B7B4469460190C7
:101EF000089800F02AFE002C054603D06946002011
:101F0000FEF7F7F928467CBC08BC04B0184700006F
:101F1000830C0000F7B5002675291068009914A5F8
:101F200011D000F067FD002802DA404211A508E058
:101F3000009909688A0701D50FA502E0490704D571
:101F40000EA5012601E000F05EFD009F002424376D
:101F500004E000F043FF30313955641C0028F8D10B
:101F600033462A462146009800F07FFDFEBD000062
:101F7000000000002D0000002B00000020000000E9
:101F8000F3B50546002081B0BEE0E96828468847E1
:101F9000002876D0252802D06A68A968B1E05C4F95
:101FA00000267F442846E96888472028044608DB45
:101FB000312C06D2381920380078002801D0064389
:101FC000F0E7B00701D5042086430020E86107460A
:101FD000A8612A2C0BD02146012230390A292BD2A4
:101FE000002A29D0B80040190090816119E00298B8
:101FF000BA00521902C8916102902846E9688847E0
:10200000012F04461AD1E869002822DA20208643ED
:102010001FE000980A218069484300990019303870
:1020200088612846E96888470446012021463039FE
:102030000A2901D20028ECD1012F0AD02E2C08D178
:102040002846E96888470446202006437F1C022F63
:10205000BFDBA869002803DA4042A86101200643DB
:10206000F00701D0102086436C2C0BD0682C09D0CF
:102070004C2C38D06A2C36D0742C34D07A2C32D0F8
:1020800016E043E0E968274628468847B8420446F8
:1020900009D180206C2F00D0C000E9680643284693
:1020A0008847044604E040206C2F00D0800006439F
:1020B000002C2BD020464138192803D80120C0021B
:1020C0000643203428462E602146029A1646FEF723
:1020D00035F8002812D001280DD0F61DF008C000F8
:1020E0000830029051E700204C2CD6D080206A2C7A
:1020F000D3D00020D1E7361D029646E76A68204615
:10210000A9689047286A401C28623EE7286AFEBDFD
:10211000F2220000002203098B422CD3030A8B42D7
:1021200011D300239C464EE003460B433CD40022CF
:1021300043088B4231D303098B421CD3030A8B42E1
:1021400001D394463FE0C3098B4201D3CB01C01AAF
:10215000524183098B4201D38B01C01A524143097A
:102160008B4201D34B01C01A524103098B4201D368
:102170000B01C01A5241C3088B4201D3CB00C01AD5
:10218000524183088B4201D38B00C01A524143084D
:102190008B4201D34B00C01A5241411A00D2014672
:1021A0005241104670475DE0CA0F00D0494203100B
:1021B00000D34042534000229C4603098B422DD35A
:1021C000030A8B4212D3FC22890112BA030A8B4202
:1021D0000CD3890192118B4208D3890192118B4251
:1021E00004D389013AD0921100E08909C3098B42D6
:1021F00001D3CB01C01A524183098B4201D38B0119
:10220000C01A524143098B4201D34B01C01A5241BB
:1022100003098B4201D30B01C01A5241C3088B4200
:1022200001D3CB00C01A524183088B4201D38B00EB
:10223000C01A5241D9D243088B4201D34B00C01A75
:102240005241411A00D20146634652415B1010468A
:1022500001D34042002B00D54942704763465B10D2
:1022600000D3404201B50020C046C04602BD000078
:10227000F0B59446FB4A0E091D0917461640154055
:102280000C46B2435C408BB0002A7ED0AF437CD07A
:10229000002D7BD0002E79D0E20F3243521BFF2459
:1022A000A40412190792420DCC02C70214436046DF
:1022B000420DD9021143C2020120C0070443014369
:1022C0000194080C140CA44604040B46A343089480
:1022D00064462404E44DA2430994040A7D4464192D
:1022E000803C24780546654301262D19F605751BAB
:1022F0006C43E40CA41C490B61430919B501691A2C
:102300000E0C3504A94361436643090C7118890911
:102310000691F90701D00121C907039101997F08AE
:10232000CC0727434C08069DE10B4D43290C65461D
:102330000E464D4346437D1BB44100950D46019426
:102340005D4300242E0C240434430E462F045643D0
:10235000350C2F43039D3604AD1B039502D2002696
:102360007F1C7441009E019DF61BA5410904009647
:1023700001950591AC08069900256143090C0F46AB
:1023800047437C0BED04254301E02AE14FE1FE04C5
:1023900064460F4667437C0B34430294039CFE045F
:1023A000A41B039404D2029C0026641C7541029471
:1023B000029F009E019CF61BAC4101940C465C43BD
:1023C0000096660F0025E700ED000C4635435443A8
:1023D000660F3E43039FE4003C1B039402D200249B
:1023E000761C6541009F019CBE1BAC41B509A4064B
:1023F0002C43039DB606AD092E43039DC900AD06CF
:102400000395059D691805910699E50B6943090C2B
:1024100065460F466F430D464543AE463D46751B28
:102420007746BC4100950D4601945D4300242E0C77
:1024300024040F46344357432D043E0C2E4302968A
:102440002646039D3C042C1B039405D2029C354672
:10245000641C00266E410294009F029D019C7D1B1E
:10246000B44100958D050495059D890A691805916B
:102470000699A5086943090C0D46454300206E0BDB
:10248000C0043043EF040D46664675436E0B3E4371
:10249000039FED047D1B02D20027761C7841009F2C
:1024A000BE1B844108460194B44658430024460F9D
:1024B000E4003443C60008465043470F3743C0008A
:1024C0002D1A02D200207F1C444166460198F61B5B
:1024D000A041B40980062043AC09B6062643B6469F
:1024E0004C02049EAD06059FA41900217941059177
:1024F000089976461943099BB619134300224041B7
:102500009446EA0F6F0032430546D61A8D41A84221
:1025100003D90120844632462846C60F951840410B
:10252000FA0F2A437D00039565466F00B646D61A1A
:102530000546B4468D417646002E01D1A84202D907
:102540007F1C62462846C50FAC4695184041039A49
:102550000646D20F2A437D00D31A8E4161460029D8
:1025600001D1B04202D96D1C30461A46104301D049
:10257000012004436802059A0021001951410222FA
:10258000002902DB012200184941079B4C051B145E
:10259000D318C90A1B05CB1807994205C00AC907F9
:1025A00020435940002A09D00124A24006D3002428
:1025B000401C6141002A01D1400840002B4A002BF9
:1025C00004DB1C46144201D09A4325D1012207980E
:1025D0009206904233DC032040070818C10FC90758
:1025E00034E00E4607184E41214D7A42B5411BD3C7
:1025F000624696181D465D411D4A7642AA4113D394
:10260000012252054D00D5420BD15C00D4420BD0C3
:102610004B4003D5920211430BB0F0BD490049086D
:10262000FAE7E10FC90711E000201249F4E70F486B
:10263000014201D0214605E00342F5D0F1E7052033
:10264000400709180C480143C01241400020E3E74D
:102650005940504010B54B40424059405040FFF760
:1026600007FE10BD0000FF07C91F00000000F07F3B
:102670000000E0FF0000F87FFFFFFF7FCB02420D6C
:1026800010B51A430B1504D00124E4072243002B94
:1026900006DB0A4CE31A05D41046D840FF2B00DDB8
:1026A000002010BD4A00002800D001201018044A64
:1026B0009042F5D8C817C04310BD00001E040000AA
:1026C0000000E0FF1F22030C02D10F22000402D001
:1026D000030E03D004E0002001467047083A0002D0
:1026E000030F01D1121F0001830F01D1921E800040
:1026F000002801DB521E4000120551184205C0128D
:10270000411810467047C10FC90700D0404201224E
:1027100092071143D6E701218907D3E7F0B59D4C15
:102720000D092646AC46AE430D465D4089B0002EED
:102730007ED01E092746B7437AD067462740ED0F63
:102740003D43264075D02401214272D07419FF25E3
:10275000AD04641B0494CC02D90201231B05E40AD6
:10276000C90A1C4319432401030F1C430B01050133
:10277000110F0B43A00B81032D0916018C43A90BEC
:102780008A0395439A0B9703BB4336099C46B30BC8
:102790009F03BE430F465F4303972F46774302963E
:1027A0004E19BE460796029FDF197E430597039F89
:1027B000F71B7646BE1B77463F0100970196039FA5
:1027C000B60BF619B646019E009FB604BF1902D398
:1027D0007646761CB64676467600002F01D0012755
:1027E0003E4367467D430695029D27466F4300970B
:1027F0007F00069DBE196F00BD1966469619079F9A
:10280000AE467743069D03967D1B01950619059DEF
:10281000009F75430296EE1B019D51436D1A0746BA
:102820005F43F31B019500937546EB0606D001E06C
:1028300091E08DE06B0901252B4300E06B09002638
:102840003546B6460E0A2D0609063543CB187646A0
:102850007541AE4600213D0A09063E062943F61899
:1028600075466941B646019B00269D0DB7022F4370
:102870009B0276469B194F41009900258E0DAD02B3
:102880008902C91835437D41504362465443039B36
:10289000029A5A43121A161B0022B70E9301B60170
:1028A00075193B435341070B1205000545193A437F
:1028B0005A4100200306270A20063B4344181426E9
:1028C0006B41AB4200D2521C01204002824203D332
:1028D00015260221C94301E00321C9432020851B9D
:1028E000AA401F46AF40F34013432046049AF040ED
:1028F0001214891809055A1804993843C907514018
:10290000AC4009D001239C4006D30023401C594110
:10291000002C01D1400840001F4B002A03DB1A4263
:1029200001D08B4312D1012204989206904207DB1A
:1029300005204007091819480143C012414004E02E
:10294000032040070818C10FC907002009B0F0BDD7
:102950000020E907FAE706180C464C411048764279
:10296000A04114D394181A465A410D48644290412C
:102970000DD3012049004005814208D3590081420E
:1029800005D3E90F044AC90700201143DEE7002000
:102990000449DBE70000FF070000F07FFFFFFF7F37
:1029A0000000E0FF0000F87F70B50446856900680C
:1029B0003026C10600D42026C00707D070BD62684B
:1029C0003046A1689047206A401C20626D1EF6D5F3
:1029D00070BD70B5044685690068C00707D170BD39
:1029E0006268A16820209047206A401C20626D1E0A
:1029F000F6D570BD09684A0501D540B27047C905D2
:102A0000FCD500B2704709684A0501D5C0B27047CD
:102A1000C905FCD580B2704770B505460C46012A41
:102A200005D02868800600D5EA69002302E001236A
:102A300005E05B1C934202D2E05C0028F9D1A86952
:102A4000E618C01AA861286AC01828622846FFF74D
:102A5000ABFF04E06A682078A968641C9047B44220
:102A6000F8D32846FFF7B5FF70BDFFB504460D4605
:102A700081B0243000902168880604D51022E069D6
:102A80009143216000E001200027A84200DD471BA0
:102A90000498A1697A191018081AA0612068C00664
:102AA00002D42046FFF780FF002608E00398626802
:102AB000A168805D9047206A401C761C20620498C3
:102AC0008642F3DB2068C0060AD52046FFF76CFF7C
:102AD00006E06268A16830209047206A401C2062AE
:102AE00038467F1E0028F4DC07E000986268A16881
:102AF000405D9047206A401C206228466D1E0028D9
:102B0000F3DC2046FFF765FF21680220090600D4A8
:102B1000012005B0F0BD11680268006A530501D5B7
:102B200008700AE0D30501D5088006E0130602D537
:102B3000C21705C101E0520608600120704700007D
:102B400001694A1C02610878704700B58FB0029194
:102B500000210591054901937944039111460490A0
:102B60006846FFF70DFA0FB000BD0000E5FFFFFF5C
:102B70004B680A689A4202D2531C0B60107070476F
:102B8000084B70B50C467B44FFF7DFFF0546204637
:102B9000FEF7F9F9002802D00020C04370BD284696
:102BA00070BD0000B1E3FFFFF7B50446154686B0DF
:102BB0002B497944002703C93E460090019111E05A
:102BC00007986A467100415A02A800F089FB411C2F
:102BD00007D02168890603D5E269391891420ED8D9
:102BE0003F18761C2068800602D5E069B84206DDF1
:102BF000AE42E5DB07987100405A0028E0D1A06999
:102C0000C01BA0612046FFF7CFFE154979445A3911
:102C100003C900900020019116E041006A46079820
:102C2000415A02A800F05CFB0590401C0AD0002528
:102C300005E0626802A8A168405D90476D1C059898
:102C40008542F6D30498401CB0420490E5DB206A2C
:102C5000C01920622046FFF7BCFE09B0F0BD00009D
:102C600076170000F7B5D21D0026D20815A5D200B0
:102C7000F52905CA11D0002A05DA00214042914108
:102C800011A50A4608E0009909688B0701D50FA530
:102C900002E0490701D50EA501261146009F002438
:102CA000243704E000F0AEF830323A55641C024696
:102CB0000A43F7D133462A4621460098FFF7D5FE4E
:102CC000FEBD0000000000002D0000002B000000F1
:102CD0002000000070B504460021243408E05507A8
:102CE000D2086D0F303565545D07491C2A43DB0857
:102CF00015461D43F3D10468002310A2250708D50B
:102D000020252C400C4304D0C46901230CA2641E6E
:102D1000C461FFF7AAFE70BD10B5044621461068D5
:102D2000FFF771FE002302462046FFF7D3FF10BDD8
:102D3000D21DD108C9000CC9CCE70000000000007A
:102D400030000000F8B50F460168090502D5224C95
:102D50007C4402E0204C7C440E340546002124359E
:102D600008E016071209360FA65D6E541E07491CAF
:102D700032431B0916461E43F3D122460468002342
:102D8000240705D5702F06D0002901D01132022367
:102D9000FFF76BFEF8BD10320123F9E770B504466A
:102DA0000D4621461068FFF72EFE002302462946F5
:102DB0002046FFF7C7FF70BDD21DD308DB000CCB48
:102DC000C0E730B40368202412682343036008235B
:102DD000C36130BC0023B5E7E01500000146800860
:102DE000081A02091018020A1018020C1018C0085C
:102DF000820012185200891A01E00A39401C0A297F
:102E0000FBD270470B4670B502461D468907800805
:102E100008439C08111AA5410C09280704432809F6
:102E200064186841250A01060D43010A2C19414125
:102E3000200C0D0428430D0C00194D4100214019B0
:102E40004D41C00869070843E908840F8D002543F8
:102E5000840024184D4124196D41121BAB4107E039
:102E60000925ED432C11521963410024401C614196
:102E70001C460A250026551BB441F1D270BD000046
:102E80007047FFB50C461E468DB003CA06900791E9
:102E90004F007D0D00D16D1E002108460020C04668
:102EA0000321079A89050840002A03DA8200801866
:102EB00040080840800D0128089002DD0020C04332
:102EC0000890069807432CD0EB48EC492818484353
:102ED0000714089840420B901698002839D0754284
:102EE0000B9A291E00DC089A002900DA694203A81F
:102EF00000F088FA0699079800F0EAFA0191014675
:102F0000DF4802920918002D009125DDDC49039865
:102F10004942401803906846089A03A900F004FD4E
:102F200022E01698012802D00020302104E0002081
:102F3000F24305E02154401CB042FBDB3046002246
:102F4000169B002121540D998B600A60486011B0D6
:102F5000F0BDBD1B6D1CC3E70399081803906846BC
:102F6000089A03A900F0AEFC009000040292000C45
:102F7000019103D00020C043410800E01046169A9A
:102F8000002A03D00022009215461EE0751E05D4CB
:102F9000FFF738FF303262556D1EF9D50122084324
:102FA000099602D000227F1C04E02078302801D14D
:102FB00000227F1E002A0A978ED01EE0112D07DA0C
:102FC000FFF720FF303262556D1C02460A43F5D1EF
:102FD00008430FD10021681E05E0235C625C635446
:102FE000491C2254401E8142F7DBA81B401E099554
:102FF0000A9002E0009800280AD0099A1699002049
:10300000A0540D980A9B099A0360426081609EE774
:103010001126002016905FE7D21DF0B50D4604463C
:10302000D10895B0C90003C91090119100F014FDAA
:1030300002461198C10F2D20002906D121682B20AE
:103040008B0702D44807C00F4001032A0F9001D01C
:10305000072A05DB03462946204600F091F908E1DE
:103060002068800601D5E76900E00627284611217F
:10307000652D04D0662810D0672D64D128E0002388
:10308000112F009300DA791C0B4610AA03A90BA894
:10309000FFF7F7FE00267D1C3EE001200123C0075C
:1030A0000E9010AA03A90BA800933B46FFF7E9FE78
:1030B0000D980C9D0026002802D10B99781C0D1844
:1030C000781B02D44642761E7D1CE81B00903AE035
:1030D000012F00DA01270023112F009300DC39466D
:1030E0000B4610AA03A90BA8FFF7CBFE20683D46AC
:1030F000002600070BD40C98A84200DA054603A866
:10310000012D04DD41192039C97F302908D00B98E1
:10311000B84201DA011D05DA012000900B9811E098
:103120006D1EEDE7002802DC86192D1A04E0401C14
:10313000A84201DD0B9D6D1C0B98801B401C00906C
:103140000120C0070E902068000705D40098A8420F
:1031500002DB0020C043009069460020C8720E9830
:10316000012102AF0337C907884224D00220129000
:103170002B2013900E9800280BDA40420E902D2041
:10318000139006E00E98FFF729FE30317F1E0E9057
:1031900039701299481E00291290F3DC0E9800280D
:1031A000F0D113987F1E387021684520090500D49E
:1031B00065207F1E387001A8C01BC01D0E900F989F
:1031C000002800D0012041190098C01709180E9856
:1031D0000818A169081A401EA0612068C00602D420
:1031E0002046FFF7E1FB0F98002805D06268A16830
:1031F0009047206A401C20622068C00624D52046E3
:10320000FFF7D2FB20E0002E07DB0C98B04204DD74
:1032100003A86268805DA16802E06268A16830204E
:103220009047206A761C401C20620098401E009047
:103230000AD100F09FF8C06862680168405CA1682C
:103240009047206A401C206228466D1E0028DADC68
:1032500007E062683878A1687F1C9047206A401CAC
:1032600020620E99481E00290E90F2DC2046FFF7DE
:10327000B0FB15B00220F0BD01FCFFFF104D0000B7
:10328000E1DFFFFF10B54369002B02D0C046C04606
:1032900001E0FFF7C1FB012010BD12680146243197
:1032A0000A7000224A700122ECE711680022D24322
:1032B000E8E710B54369002B02D0C046C04601E0E4
:1032C000FFF772FC012010BD126801462431828490
:1032D0000022C2840122ECE711680022D243E8E711
:1032E00070B505460C46164600F03CF80368FF2012
:1032F0000230C05C012807D0FF2C10D8185D0028D0
:103300000DD001202C7070BDFF20324621460830C0
:10331000C0581B182846FF330833984770BD00205B
:10332000C04370BD754600F03DFBAE4605006946E2
:103330005346C008C000854618B020B5FCF79EFF74
:1033400060BC00274908B6460026C0C5C0C5C0C538
:10335000C0C5C0C5C0C5C0C5C0C5403D49008D463B
:103360007047000010B500F005F8001D10BD00BF4B
:103370004107000001487047704700BFE40000109B
:10338000F8B504461F4601230068DB020326014608
:103390001840072A04DB002816A505D116A503E06E
:1033A000002816A500D116A5102081432160A06930
:1033B000C01E002FA06101D0401EA0612046FFF773
:1033C000F3FA002F09D038466268A1689047206A56
:1033D000401C2062C01C206206E0206AFAE7626896
:1033E0002878A1686D1C9047761EF8D22046FFF71A
:1033F000F0FAF8BD4E414E006E616E00494E460037
:10340000696E6600F7B516468AB0304878446C4657
:1034100003467C33C06F5A689B680DC42B4B7B44BA
:103420006E33083303AC0DCB0DC43720C001081830
:1034300037211B30FEF778FE05460C46803D1B3CCD
:1034400002D56442012000E00020002709900FE02F
:10345000E0070BD00C201D497843794432464E39A1
:103460004118684600F02EFA6B4607C364107F1CB3
:10347000002CEDD1154F7F442E3F16E0E80712D007
:103480002001C01901460EC9069108930792C06831
:10349000F04201D198190890324606A903A800F01D
:1034A00011FA03AB07C36D10641C002DE6D1324640
:1034B00069460998002803A802D000F035FA01E017
:1034C00000F000FA0A9B07C30DB0F0BD4C0F0000DE
:1034D000034640000A4610B5400D0BD00121C90734
:1034E0000F24A40200191C0364082143540D214336
:1034F000D20207E000210120F2E7D40F4900214366
:103500005200401E0029F8DADB0FDB07184310BD1C
:10351000FFB50C46154685B04868516800F084FA3E
:1035200000910190A068A96800F07EFA02910390D2
:10353000A068696800F078FA029A012612180292CF
:103540003246029B834200D3002201988B18C01898
:10355000002A01903046019A02D08A4203D901E044
:103560008A4200D300200099081800906068A9687A
:1035700000F05AFA029A121802923246029B8342D3
:1035800000D3002201988B18C018002A019002D0A5
:10359000884203D901E0884200D3002600988019B0
:1035A00000902068296840004900400849084018F8
:1035B000F649471814E001994000C90F08430090EC
:1035C000019802994000C90F08430190029803999D
:1035D0004000C90F08430290039840007F1E0390EB
:1035E00000980028E7DA0898002801D0E84E00E0AB
:1035F0000026B74228DAF71BF806C00E15D0029B4A
:103600002021091A039A8B401A430392029A019BC4
:10361000C2408B401A430292019A009BC2408B40E9
:1036200000991A430192C14000917A110BD06B4668
:103630000320811A01D5002101E089005958870033
:10364000401ED951F5D5374603980299002800D07D
:103650000120014308980291002808460CD0002858
:1036600000D001200199019A490508430121D20A9D
:10367000C902D202019200E001210E9B0122D20771
:10368000012B02D0002B03D013E0002807D116E055
:10369000904204D890420CD1019B0B4209D0019B6F
:1036A0005918019105D10099491C009101D17F1C45
:1036B0000092002803D0102108460020C046206850
:1036C0002968019B009A4840C10F0598C9073943F2
:1036D0000EC009B0F0BDFFB587B0099A08980899E7
:1036E000099B5268406889689B68039200221746CC
:1036F0009446089A9E4612685300099A5B0812681D
:10370000520052089A1AA34BD4180A9B3522002B58
:1037100000D1402206920022012315460492DB07C5
:10372000059324E0002D05D175460346039E4D1BED
:10373000B34109D375466646039B491B049D9841D6
:10374000059B7519AC465F4163463B4308D0059B1A
:10375000049EDD0776082E435B080496059301E07E
:10376000641E521EC50FED0749184041521C069BAE
:103770009A42D7DB002D04D17546039A6B1A824119
:1037800001D203200CE0039A0B466B4042401343E6
:1037900001D1022004E0014301D0012000E000201B
:1037A000614601910021009702910A99002905D0F4
:1037B000614640020143764B019102E080070023FD
:1037C00002909C423ADA1A1BD006C00E15D0029D18
:1037D0002021019C091AC5408C402543029C8C4045
:1037E00000D001242543019C02953D46C4408D40F4
:1037F00039462C43C1400194009154111DD06D46AF
:103800000221002202290CD10320001B07E000281E
:1038100004DB8600AE59002E00D00122401C032894
:10382000F5DB081B02D588002A5004E080002858E8
:1038300010438A00A850491EE3D51C460A98002868
:1038400002980CD0002800D001200199019A490566
:1038500008430121D20AC902D202019200E00121EB
:10386000109B0122D207012B02D0002B03D013E0C2
:10387000002807D116E0904204D890420CD1019B59
:103880000B4209D0019B5918019105D10099491C9F
:10389000009101D1641C0092002803D01021084639
:1038A0000020C04608980999009B006809684840B4
:1038B0000199C20F0798D2072243436002608160DA
:1038C0000BB0F0BD1FB5002300920A46014601A8C7
:1038D000FFF71EFE01A807C804B010BD1FB50123E5
:1038E00000920A46014601A8FFF712FE01980F2236
:1038F0009202C10F4000C9074008801A0190029847
:10390000002801DB0020019002984000400802904E
:103910000198029A0005D20A104308430299039ABB
:103920004905D20A1143D7E71FB5002300920A4682
:10393000014601A8FFF7CFFE01A807C8CCE71FB5D5
:10394000012300920A46014601A8FFF7C4FE019830
:103950000F229202C10F4000C9074008801A01904F
:103960000298002801DB00200190029840004008E6
:1039700002900198029A0005D20A10430843029966
:10398000039A4905D20A1143A6E7000002C0FFFFCF
:10399000013C0000FF3F00000446C046C0462046F0
:1039A000FCF75AFC00487047C4000010024670B58E
:1039B0000A43920724D11B4DEE0104C808C9541BC9
:1039C0009443344017D0D0B2D9B2401A21060143F3
:1039D00010D190B299B2401A210401430AD11002C9
:1039E0001902000A090A401A2102014302D1100EED
:1039F000190E401A70BD9A42DFD010BA19BAF8E712
:103A000002780B78401C491C002A09D09A4207D141
:103A100002780B78401C491C002A01D09A42EFD052
:103A2000D01A70BD01010101F8B5040C8BB2264615
:103A300082B25E43104658430D0C370C3604002109
:103A40008019164679416E43370C36048019264694
:103A500079416E438919F8BD4900CA02104300D06C
:103A600004204A0D01D001221043054A490D91421C
:103A700001D102210843012800D105207047000030
:103A8000FF07000010B500290AD00878002807D0E9
:103A900005487844FFF78AFF002801D0002010BDB8
:103AA0000248784410BD00007E090000760900003D
:103AB00010B500290AD00878002807D005487844B6
:103AC000FFF774FF002801D0002010BD02487844A1
:103AD00010BD00006E0900006609000003B4024832
:103AE0007844844603BC604735F5FFFF0000005072
:103AF0000000015000000250000003500000005080
:103B00000000015000000250000003500000FCFCC7
:103B1000FCFC000000FCFCFCFC000000E0E0E0E03D
:103B200060E0E0E0C0000000ECECECEC0000000421
:103B30003CFCFCF08080F0FCFC3C04000000070F23
:103B40001F1F1C181C1F1F0F070000001F1F1F1F17
:103B5000001F1F1F1F0000001F1F1F1F000000006D
:103B600000010F1F1F1F1F0F010000000080E0E079
:103B7000F0703070F0E0E080000000F0F0F0F00055
:103B8000000000000000F0F0F0F030303030300085
:103B90000000F0F0F0F03070F0F0E080000F3F3FF8
:103BA0007F7060707F3F3F0F0000007F7F7F7F60EE
:103BB0006060600000007F7F7F7F636363636000FD
:103BC00000007F7F7F7F60707F7F3F0F00000000DD
:103BD0000000004F00000007000700147F147F144E
:103BE000242A7F2A12231308646236495522500082
:103BF00005030000001C2241000041221C001408A3
:103C00003E081408083E0808005030000008080864
:103C10000808006060000020100804023E51494579
:103C20003E00427F400042615149462141454B31AF
:103C30001814127F1027454545393C4A494930013F
:103C4000710905033649494936064949291E003696
:103C500036000000563600000814224100141414E7
:103C60001414004122140802015109063249794115
:103C70003E7E1111117E7F494949363E4141412224
:103C80007F4141221C7F494949417F090909013E81
:103C90004149497A7F0808087F00417F4100204060
:103CA000413F017F081422417F404040407F020C89
:103CB000027F7F0408107F3E4141413E7F09090990
:103CC000063E4151215E7F0919294646494949313D
:103CD00001017F01013F4040403F1F2040201F3F26
:103CE0004038403F631408146307087008076151A7
:103CF000494543007F414100020408102000414132
:103D00007F000402010204404040404001020400E0
:103D10000020545454787F48444438384444442064
:103D2000384444487F3854545418087E0901020628
:103D30004949493F7F0804047800447D4000204001
:103D4000443D007F1028440000417F40007C04185F
:103D5000047C7C0804047838444444387C141414EB
:103D600008081414187C7C0804040848545454208F
:103D7000043F4440203C4040207C1C2040201C3C10
:103D80004030403C44281028440C5050503C44647F
:103D9000544C44000836410000007F0000004136CA
:103DA000080002010204023E5555412200000000B5
:103DB0000000007900001824742E24487E494240F7
:103DC0005D2222225D15167C161500007700000A80
:103DD000555555280001000100000A0D0A04081479
:103DE0002A1422040404041C00080808000101012C
:103DF0000101000205020044445F44440000040243
:103E0000017E2020103E060F7F007F001818000062
:103E10000040502000000A0D0A0022142A1408173E
:103E200008342A7D1708046A593048454020702913
:103E30002628707028262970702A252A7072292653
:103E400029707029242970702A2D2A707E117F49CB
:103E5000490E515171117C555654447C5556544469
:103E60007C565556447C5554554400457E440000CC
:103E7000447E450000467D460000457C45007F4964
:103E800049413E7C0A11227D384546443838444633
:103E9000453838464546383846454639384544451C
:103EA0003822140814222E5149453A3C4142403CE4
:103EB0003C4042413C3C4241423C3C4140413C0C44
:103EC0001062110C7F1212120C403E01493620552F
:103ED00056547820545655782056555678205556C5
:103EE0005578205554557820565756782454785490
:103EF000580C525272133855565418385456551897
:103F00003856555618385554551800497A4000000F
:103F1000487A4100004A794200004A784200314A1A
:103F20004E4A307A110A097030494A483030484ABE
:103F30004930304A494A30304A494A31304A484A81
:103F40003008082A08083864544C38384142207830
:103F50003840422178384241227838424022780C59
:103F60005052513C7E141414080C5150513C1E09FF
:103F700009295E081515354E384446452030484A13
:103F80004920384546452030494A49207C45464528
:103F9000382050507C031F151535510E1515354628
:103FA0007C55565544385556551800447C40007F82
:103FB0004844404000497F44007C0812217C78102E
:103FC0000A09707C0912217C78110A09703847446B
:103FD0004738304B484B303E417F4949384438548C
:103FE000587C1516354878110A0910485456552042
:103FF00020485655204855565520204956552004EE
:10400000057E0504083C4822013C4245423C3842BA
:104010004522783C4340433C38434023780C1160B0
:10402000110C4466554C44486A5948004464554C48
:104030004448685A48004465564D4448695A490006
:104040000002010200000102010000010101000163
:10405000020201000000010000000205020002014E
:104060000201007F05153A503E55554122181408AB
:10407000140C444A4A515151514A4A4474424142F3
:10408000747E1111117E7F494949367F0201010377
:10409000704E414E707F4949494161514945437FC6
:1040A0000808087F3E4949493E00417F41007F089A
:1040B000142241700E010E707F020C027F7F0408F3
:1040C000107F635D495D633E4141413E413F013F99
:1040D000417F09090906635549414101017F0101F9
:1040E00003017E010308557F550863140814630714
:1040F000487F48075E6101615E384448304C7C2A45
:104100002A2A144438040408304B4D59302854549A
:10411000442000185552223E0402027C3C4A4A4A7E
:104120003C003C4020007C1028444041320C304090
:104130007E2020103E1C2040201C142B2A2A603890
:1041400044444438443C047C4470282424180C1211
:1041500012526038444C5424043C4420003C4040FB
:10416000201C18247E241844281028440C107E108B
:104170000C38443044380A0A4A2A1E044434140CC9
:10418000201078040018084C4838484878484848B7
:1041900028187C08087C082818404848784054545F
:1041A000547C001800584038080808080801413DB0
:1041B000090710087C02010E0243221E42427E4281
:1041C0004222120A7F02423F02423E0A0A7F0A0A44
:1041D000084642221E0403423E02424242427E02FE
:1041E0004F221F024A4A40201C4222122A46023F06
:1041F000424A46064840201E08464A321E0A4A3EA7
:1042000009080E004E201E04453D0504007F0810DD
:104210000044241F04044042424240422A122A061B
:1042200022127B16220040201F0078000204783FF3
:1042300044444444024242221E0402040830320232
:104240007F0232021222520E002A2A2A40382422E9
:10425000207040281028060A3E4A4A4A047F041467
:104260000C4042427E404A4A4A4A7E040545251C8B
:104270000F40201F007C007E40307E402010087ED2
:104280004242427E0E0242221E4242402018020456
:1042900001020007050700000400000800000000FC
:1042A00000000002000100001080807F7E7D7C7B8A
:1042B0007A7978777676757473727171706F6E6EC5
:1042C0006D6C6C6B6A6A696868676666656464636E
:1042D0006362616160605F5F5E5E5D5D5C5C5B5BF5
:1042E0005A5A595958585757565655555554545364
:1042F0005352525251515050504F4F4F4E4E4D4DC0
:104300004D4C4C4C4B4B4B4A4A4A4949494848480A
:10431000474747474646464545454444444443434A
:10432000434342424242414141000000000000003C
:1043300000000000303132333435363738394142ED
:1043400043444546403058003031323334353637F7
:10435000383961626364656640307800024000006D
:10436000000000A00000000005400000000000C8A0
:10437000000000000C4000000000409C0000000015
:10438000194000000020BCBE0000000034400000C6
:10439000BFC91B8E00000004B5400000504BCFD0B9
:1043A0006607E2CF010000006C4100003E8251AA86
:1043B000DFEEA73401000000D9420000DCB5A0E226
:1043C0003A301F97FFFFFFFFB4450000FD25A0C84E
:1043D000E9A3C14FFFFFFFFFFF3F00000000008087
:1043E00000000000FF3F000000000080000000000F
:1043F0003C450000000000106400000004010000C3
:10440000A045000064000010C4020000200100006C
:104410001C00000043000000F8FFFFFF0C0000003C
:104420000E0000000F0000002E0000001001000030
:1044300043000000F8FFFFFF004040404040404084
:104440004040414141414140404040404040404067
:10445000404040404040404040050202020202020B
:10446000020202020202020202202020202020205A
:10447000202020020202020202029090909090906E
:10448000101010101010101010101010101010102C
:1044900010101010020202020202888888888888A0
:1044A000080808080808080808080808080808088C
:1044B0000808080802020202400000000000000094
:1044C00000000000000000000000000000000000EC
:1044D00000000000000000000000000000000000DC
:1044E00000000000000000000000000000000000CC
:1044F00000000000000000000000000000000000BC
:1045000000000000000000000000000000000000AB
:10451000000000000000000000000000000000009B
:10452000000000000000000000000000000000008B
:10453000000000000000000000000000001BB700A9
:10454000001BB700001BB7000000000000000000C7
:10455000000000000000000000000000000000005B
:10456000000000000000000001000000000000004A
:10457000000000000000000000000000000000003B
:10458000000000000000000000000000000000002B
:10459000000000000000000000000000000000001B
:04000005000000C136
:00000001FF
