:020000040000FA
:100000000003001065020000690200006B0200009E
:100010006D0200006F02000071020000000000008D
:10002000000000000000000000000000730200005B
:10003000750200000000000077020000C9100000F7
:100040007B0200007B0200007B0200007B020000BC
:100050007B0200007B0200007B0200007B020000AC
:100060007B0200007B0200007B0200007B0200009C
:100070007B0200007B0200000B0800007B020000F6
:100080007B0200007B0200007B0200007B0200007C
:10009000C9070000ED0D00007B0200007B0200009C
:1000A0007B0200007B0200007B0200007B0200005C
:1000B000991200007712000023120000F5110000D1
:1000C00000F002F800F0BFF80CA030C8083824187F
:1000D0002D18A246671EAB4654465D46AC4201D180
:1000E00000F0B1F87E460F3E0FCCB64601263342F3
:1000F00000D0FB1AA246AB46334318472027000026
:1001000040270000103A02D378C878C1FAD85207C5
:1001100001D330C830C101D504680C6070470000BD
:100120000023002400250026103A01D378C1FBD813
:10013000520700D330C100D50B60704710B56E294F
:1001400002D101F00BFA10BD702902D101F03FFB82
:1001500010BD662902D102F0E5FA10BD652902D171
:1001600002F0E0FA10BD672902D102F0DBFA10BDFF
:10017000612902D1C046C04610BD03681B0A01D3E5
:1001800080231943692902D101F0B2F910BD642915
:1001900002D101F0ADF910BD752902D101F0A8F925
:1001A00010BD6F2902D101F0BDFA10BD782902D12E
:1001B00001F0FAFA10BDE92902D101F059FA10BD97
:1001C000E42902D101F054FA10BDF52902D101F061
:1001D0004FFA10BDEF2902D101F0B0FA10BDF82995
:1001E00002D101F0EFFA10BD0368DB0901D38023CF
:1001F0001943632902D101F066FE10BD732902D1B3
:1002000001F069FE10BDE32902D101F073FE10BDBB
:10021000F32902D101F076FE10BD002010BD1FB5FC
:10022000C046C04600F066F804000020002102F03D
:1002300063FA401C60600020002102F047FAE06091
:100240001FBD10B510BD01F097FE1146FFF7E7FF87
:1002500000F03BFF02F0B6F903B4FFF7F2FF03BC76
:1002600000F0B3FD08480047FEE7FEE7FEE7FEE7C3
:10027000FEE7FEE7FEE7FEE7FEE7FEE70348044988
:10028000024A044B70470000C1000000000100104A
:100290000003001000010010704700007CB51D46EF
:1002A00016460C00009001D00019401E084B7B44FC
:1002B0002A4669460190304601F069F9002C05464E
:1002C00003D06946002000F008F828467CBD0000F5
:1002D000330000007047704770470A681070521C66
:1002E0000A6070474B680A689A4202D2531C0B603E
:1002F0001070704700487047BC000010FFFFFFFF00
:100300003049314A11600121304A116051600021A9
:1003100051600121516000BF2C494968C907C90FCC
:10032000FAD02A4940398868400A40020321014333
:10033000264A403A91602649896B80229143244A9B
:10034000916300BF21494039C968C907C90FF9D075
:1003500003211E4A116301215163002151630121D0
:10036000516300BF1949496BC907C90FFAD0012170
:10037000164A9163144909688900164A11601146AA
:100380000968154A1160704700B502200F494039CD
:100390000860002008620E48806B202188430C49C9
:1003A0008863002300E05B1CFF2BFCD9FFF7A8FF4C
:1003B00006484030006801210904084303494031E0
:1003C000086000BD001BB700000000104080044022
:1003D00000820440040000100800001010B5F3482B
:1003E000006840210843F14908601F2000F0D7F958
:1003F0001E2000F0D4F91D2000F0D1F91C2000F0DF
:10040000CEF910BD70B5049C002806D0012838D064
:1004100002286AD003287BD19CE0002A18D1E44D41
:100420006D6801268E40B543E14E7560002B07D103
:100430003546AD6801268E40B543DD4EB5600EE011
:10044000DB4DAD6801268E403543D94EB56006E0E0
:10045000D74D6D6801268E403543D54E7560002C12
:1004600007D1D34DED6801268E40B543D04EF560DF
:1004700006E0CF4DED6801268E403543CC4EF56049
:100480009DE0002A18D1CB4D6D6801268E40B54302
:10049000C84E7560002B07D13546AD6801268E40E9
:1004A000B543C44EB5600EE0C24DAD6801268E4026
:1004B0003543C04EB56006E0BE4D6D6801268E40E6
:1004C0003543BC4E7560002C07D1BA4DED6801264E
:1004D0008E40B543B74EF56006E0B64DED68012697
:1004E0008E403543B34EF56069E0002A19D1B24D14
:1004F0006D6801268E40B543AF4E7560002B08D164
:100500003546AD6801268E40B543AB4EB5600FE071
:1005100054E0A94DAD6801268E403543A64EB56026
:1005200006E0A54D6D6801268E403543A24E7560EC
:10053000002C07D1A04DED6801268E40B5439E4E9C
:10054000F56006E09C4DED6801268E4035439A4EDD
:10055000F56034E0002A18D1984D6D6801268E4070
:10056000B543964E7560002B07D13546AD68012620
:100570008E40B543914EB5600EE0904DAD680126BA
:100580008E4035438D4EB56006E08C4D6D6801267A
:100590008E403543894E7560002C07D1874DED683C
:1005A00001268E40B543854EF56006E0834DED682B
:1005B00001268E403543814EF56000E000BF00BF4C
:1005C00070BD002806D001280CD0022812D00328C4
:1005D00020D117E0764A126901238B401A43744BED
:1005E0001A6118E0734A126901238B401A43714B58
:1005F0001A6110E0704A126901238B401A436E4B56
:100600001A6108E06D4A126901238B401A436B4B53
:100610001A6100E000BF00BF7047002806D0012823
:100620000CD0022812D0032820D117E0604A1269AA
:1006300001238B409A435E4B1A6118E05D4A1269B0
:1006400001238B409A435B4B1A6110E05A4A1269AE
:1006500001238B409A43584B1A6108E0574A1369AB
:1006600001228A409343554A136100E000BF00BF56
:10067000704710B502460020002A06D0012A0CD08F
:10068000022A12D0032A20D117E0494B9B6901248A
:100690008C40234200D0012018E0464B9B69012486
:1006A0008C40234200D0012010E0434B9B69012481
:1006B0008C40234200D0012008E0404B9B6901247C
:1006C0008C40234200D0012000E000BF00BF10BDDD
:1006D000002806D001280CD0022812D0032820D1EF
:1006E00017E0334AD26901238B401A43304BDA6159
:1006F00018E0304AD26901238B401A432D4BDA614E
:1007000010E02D4AD26901238B401A432A4BDA614B
:1007100008E02A4AD26901238B401A43274BDA6149
:1007200000E000BF00BF704730B513468B40840027
:10073000234D2D5901248C40A4002B5130BD02467D
:1007400090001F4B1B5801208840800018587047AC
:1007500030B5002A11D08300194CE3580124E4037A
:100760001B191B6801248C4023438400144D2C5911
:100770000125ED036419236010E08300104CE35859
:100780000124E4031B191B6801248C40A34384004B
:100790000B4D2C590125ED036419236030BDC206B1
:1007A000D20E01219140074A1160704780800440B9
:1007B00000800050008001500080025000800350F3
:1007C0003427000000E100E0FE49C869C107C90FF5
:1007D00007D0FD490968491CFB4A11600121F94A0B
:1007E00011620221084207D0F8490968491CF74AFA
:1007F00011600221F34A11620421084204D0F44935
:100800000968491CF24A11607047F249C869C1077A
:10081000C90F07D0F0490968491CEF4A116001214E
:10082000EC4A11620221084207D0EC490968491CD0
:10083000EA4A11600221E74A11620421084204D009
:10084000E7490968491CE64A1160704710B504463B
:10085000002C47D1E348406801210843E149486042
:10086000E04880300068C9140843DE4980310860E0
:1008700002204861DC48006AC008C000DA4908620A
:100880000846006A01210843D74908620846406AC1
:10089000C008C00048620846406A01210843D249A6
:1008A00048620120D04940310863CF490863CD48F0
:1008B0008030006840210843CA4980310860CA4836
:1008C0004038C069C008C000C7494039C86101222A
:1008D00002210020FFF73CFF012202210020FFF748
:1008E00023FF54E0BF48406804210843BD494860E5
:1008F000BC4880300068012189040843B94980312F
:1009000008600220C861B848C069C008C000B64984
:10091000C8610846C06902210843B349C861B248AA
:100920004030C068C008C000AF494031C8600846C8
:10093000C06802210843AC494031C860AA48403829
:10094000806AC008C000A849403988620846806AA9
:1009500002210843A44940398862A24880300068D7
:10096000402108439F49803108609F484038806893
:10097000C008C0009C494039886001220021022043
:10098000FFF7E6FE012200210220FFF7CDFE10BD99
:1009900010B50446002C69D19248406801210843F3
:1009A000904948608F4880300068C91408438D49D9
:1009B00080310860022048618B48006AC008C0008E
:1009C000894908620846006A01210843864908628D
:1009D0000846406AC008C00048620846406A0121D3
:1009E00008438149486202207F49403108637E49BB
:1009F000C8607C48803000684021084379498031D4
:100A0000086079480068C008C00077490860012282
:100A100004210220FFF79CFE012204210220FFF79F
:100A200083FE714840380068C008C0006E494039F4
:100A30000860012206210220FFF78AFE012206211A
:100A40000220FFF771FE68484038006AC008C00005
:100A5000654940390862012207210220FFF778FE2C
:100A6000012207210220FFF75FFE54E05D48406845
:100A7000042108435B4948605A48803000680121DE
:100A8000890408435749803108600220C8615648EC
:100A9000C069C008C0005449C8610846C069022145
:100AA00008435149C86150484030C068C008C00080
:100AB0004D494031C8600846C068022108434A4990
:100AC0004031C86048484038806AC008C000464984
:100AD000403988620846806A022108434249403909
:100AE0008862404880300068402108433D49803199
:100AF00008603D4840388068C008C0003A49403925
:100B00008860012200210220FFF722FE012200213D
:100B10000220FFF709FE10BD70B5054600BF002D8D
:100B200016D1324827490860FE200861002404E0FD
:100B300024488068C6B2601CC4B2082CF8DB1420BC
:100B400000F003F902201F4948600320486115E0C6
:100B500026482049086002200861002404E01D485E
:100B60008068C6B2601CC4B2082CF8DB0E2000F00E
:100B7000ECF80220174948600320486170BDF8B5C1
:100B800007460D46164600980090002F30D1681E8B
:100B90000721090208430B49086008460661002442
:100BA00005E008488068C0B20090601CC4B2082C00
:100BB000F7DB142000F0C9F8022002494860032046
:100BC00048612FE0000004401000001014000010E5
:100BD0000C000010008005401C00001020000010D8
:100BE0001800001000800440404004400707000047
:100BF000681E072109020843574908600846066134
:100C0000002405E054488068C0B20090601CC4B263
:100C1000082CF7DB0E2000F098F802204E494860BF
:100C200003204861F8BD70B500BF00232DE0002807
:100C300015D100BF494DED6812263540022DF9D17E
:100C40000D78464EB560491C00BF444DED68142632
:100C50003540042DF9D1414DAD68ECB214E000BF30
:100C60003D4DED6812263540022DF9D10D783A4EF2
:100C7000B560491C00BF384DED6814263540042D81
:100C8000F9D1354DAD68ECB25B1C9342CFD370BD4A
:100C900030B500231FE000280ED1FF242F4DAC609B
:100CA00000BF2E4CE46814252C40042CF9D12B4CA9
:100CB000A4680C70491C0DE0FF24274DAC6000BFF8
:100CC000254CE46814252C40042CF9D1224CA4684E
:100CD0000C70491C5B1C9342DDD330BD0246002AD8
:100CE00019D100BF1D48C068122318400228F9D14D
:100CF0001A48816000BF1948C06810231842FAD111
:100D000000BF1648C068142318400428F9D11348BE
:100D1000806880B2704700BF0F48C0681223184037
:100D20000228F9D10C48816000BF0B48C06810232D
:100D30001842FAD100BF0848C0681423184004289C
:100D4000F9D10548806880B2E4E7C206D20E0121DD
:100D50009140034A11607047008005400000044044
:100D600000E100E000BF1E49496920221142FAD08B
:100D70001B490860704710B503460C461846FFF73C
:100D8000F1FF10BD00BF174800680028FBD0062007
:100D90001349486000201349086007201049486043
:100DA00011480078704710B50446FFF7EBFF034683
:100DB000FFF7D8FF10BD00B503461846FFF7D2FF76
:100DC00000BD01460020C043704700BFFEE700BFE2
:100DD00003484069C007C00FFAD001480068704757
:100DE00000800040280000105C00001070B500BFBB
:100DF000864A9268D0B240104007400F032820D1A5
:100E0000824A5269D1B29E22114205D0804A1160B5
:100E10007E4A1268D3B270BDCA07D20F3ED07B4C57
:100E20002468E5B27B4C2268541C7A4E34607A4CBC
:100E3000A55432461268402A30D30022344622603C
:100E40002CE0022811D1714C2468E5B2714C226863
:100E5000541C704E3460704CA55432461268402ABF
:100E60001CD300223446226018E0062807D1684AC5
:100E70001268FF2401342243654C22600EE00128F1
:100E80000CD1624A5269D1B22022114203D0012210
:100E9000624C227002E00022604C227000BFBAE770
:100EA000F8B5044601205D490870002059490860E2
:100EB0001520012181405A4A116000BF5948406AFB
:100EC000C008C000574948620846406A01210843EB
:100ED000544948620846806AC008C00088620846D3
:100EE000806A012108434F4988624F480068012108
:100EF000090308434C490860012088618320434965
:100F0000C8604948866931464848006800F0E0F901
:100F100007092146384600F0DBF90546280A3B4917
:100F20004860E8B208600320C8600720886008466F
:100F3000466900BF35484069602108406028F9D102
:100F400001E03248066831484069C007C00FF8D157
:100F5000152001218140324A803A116000BF0520EE
:100F60002A494860F8BD0AE000BF284A5269202398
:100F70001A42FAD00278254B1A60401C491E0029FB
:100F8000F2D1704700BF2149496920221142FAD0AD
:100F90001E490860704700B5034603E018785B1CE3
:100FA000FFF7F0FF18780028F8D100BD0FB400B5A6
:100FB0009BB01DA80090642101A8009B1C9AFFF71C
:100FC0006DF901A8FFF7E7FF002000901BB008BCF7
:100FD00004B018470146164800680E4A126890424D
:100FE00011D00D48124A1268805C087010480068E1
:100FF000401C0F4A106010460068402801D30020B2
:101000001060012070470020FCE7000000800040D5
:1010100030000010280000105C00001024000010B8
:1010200080E100E08040044080800440080000101F
:101030002C000010F1B582B021488469406901900C
:1010400020490298484300900199009800F040F927
:1010500007460199009800F03BF90D46002F0ED08D
:1010600000260AE000BF16488069A042FBD300BFFB
:1010700013488069A042FBD8761CBE42F2D3002DF3
:101080001DD0A54206D200BF0D488069611B884271
:10109000FAD814E0A54205D100BF09488069A042F2
:1010A000FBD30CE000BF06488069A042FBD300BF21
:1010B000034881692A1B0198801A8142F8D8FEBD35
:1010C00000E000E080BB00007047FFF75DF9FFF72C
:1010D00085F9434C4348844200D90FE02002000ABE
:1010E000401E4149486107210020C04300F041F8FB
:1010F00000203D4988610720086100BF00220621C9
:101100000220FFF725FB012200210320FFF720FB2F
:101110002EE006210220FFF712FB002820D000223B
:1011200011460320FFF700FB0520FFF783FF012294
:1011300000210320FFF7F8FA0520FFF77BFF0022CC
:1011400011460320FFF7F0FA0520FFF773FF012295
:1011500000210320FFF7E8FA0520FFF76BFF04E00A
:10116000012200210320FFF7DFFAFA20FFF762FFD8
:10117000CFE710B5002819DA1C4A03071B0F083BFC
:101180009B089B00D2588307DC0EFF23A3409A43A1
:101190004B071B0E8407E40EA3401A43134B0407AE
:1011A000240F083CA408A4001A5118E0104A032395
:1011B0001B02D21883089B00D2588307DC0EFF2342
:1011C000A3409A434B071B0E8407E40EA3401A4327
:1011D000074B032424021B198408A4001A5110BDD4
:1011E00080BB0000FFFFFF0000E000E01CED00E01E
:1011F00000E100E010B52E480068401C2C49086052
:1012000001210020FFF735FA0446002C08D02948B8
:101210000068401C2749086001210020FFF758FAA8
:1012200010BD10B524480068401C23490860012106
:101230000846FFF71EFA0446002C08D01F48006835
:10124000401C1E49086001210846FFF741FA0521AC
:101250000120FFF70EFA00280CD0194880691949BF
:10126000086019480068401C1749086005210120E2
:10127000FFF72EFA10BD10B508210220FFF7F9F98B
:10128000002808D011480068401C10490860082157
:101290000220FFF71DFA10BD10B503210846FFF725
:1012A000E8F9002803D003210846FFF711FA10BD22
:1012B00034000010380000103C0000104000001006
:1012C00000E000E05800001054000010480000103A
:1012D000002203098B422CD3030A8B4211D3002333
:1012E0009C464EE003460B433CD4002243088B420D
:1012F00031D303098B421CD3030A8B4201D394469A
:101300003FE0C3098B4201D3CB01C01A524183098C
:101310008B4201D38B01C01A524143098B4201D346
:101320004B01C01A524103098B4201D30B01C01A71
:101330005241C3088B4201D3CB00C01A52418308EB
:101340008B4201D38B00C01A524143088B4201D318
:101350004B00C01A5241411A00D201465241104678
:1013600070475DE0CA0F00D04942031000D34042ED
:10137000534000229C4603098B422DD3030A8B4223
:1013800012D3FC22890112BA030A8B420CD38901C1
:1013900092118B4208D3890192118B4204D38901A7
:1013A0003AD0921100E08909C3098B4201D3CB01E5
:1013B000C01A524183098B4201D38B01C01A52419A
:1013C00043098B4201D34B01C01A524103098B429E
:1013D00001D30B01C01A5241C3088B4201D3CB0089
:1013E000C01A524183088B4201D38B00C01A52416C
:1013F000D9D243088B4201D34B00C01A5241411A43
:1014000000D20146634652415B10104601D3404270
:10141000002B00D54942704763465B1000D3404221
:1014200001B50020C046C04602BD70B504468569BE
:101430000068C10601D5302600E02026C00707D08D
:1014400070BD62683046A1689047206A401C2062E7
:101450006D1EF6D570BD70B5044685690078C0076D
:1014600007D170BD6268A16820209047206A401CA7
:1014700020626D1EF6D570BD09684A0501D540B2DF
:101480007047C905FCD500B2704709684A0501D507
:10149000C0B27047C905FCD580B2704770B50C4624
:1014A0000546012A05D02878800600D5EA69002380
:1014B00002E0012305E05B1C934202D2E05C0028BD
:1014C000F9D1A869E618C01AA861286AC01828626C
:1014D0002846FFF7AAFF04E06A682078A968641C20
:1014E0009047B442F8D32846FFF7B5FF70BD00001F
:1014F000F7B5002575291068009914A611D0FFF7DB
:10150000BBFF002802DA404211A608E000990968F2
:101510008A0701D50FA602E0490704D50EA60125CA
:1015200001E0FFF7B2FF009F0024243704E000F041
:101530000FFD30313955641C0028F8D12B46324656
:101540002146009800F051FAFEBD000000000000A6
:101550002D0000002B000000200000001168026830
:10156000006A530501D508700AE0D30501D508804B
:1015700006E0130602D5C21705C101E05206086055
:101580000120704701694A1C02610878704700B564
:101590008FB002910021059105490193794403918F
:1015A00011460490684600F01FF90FB000BD00001E
:1015B000E5FFFFFFF7B51546044686B02B49794491
:1015C000002703C93E460090019111E007986A4642
:1015D0007100415A02A800F099FC411C07D0217803
:1015E000890603D5E269391891420ED83F18761C56
:1015F0002078800602D5E069B84206DDAE42E5DB20
:1016000007987100405A0028E0D1A069C01BA06172
:101610002046FFF70AFF154979445A3903C900905B
:101620000020019116E041006A460798415A02A83D
:1016300000F06CFC0590401C0AD0002505E06268B3
:1016400002A8A168405D90476D1C05988542F6D3BD
:101650000498401CB0420490E5DB206AC019206267
:101660002046FFF7F8FE09B0F0BD0000821100002F
:10167000F7B5D21D0025D20815A6D200F52905CA56
:1016800011D0002A05DA00214042914111A60A46F4
:1016900008E0009909688B0701D50FA602E0490709
:1016A00001D50EA601251146009F0024243704E031
:1016B00000F05EF930323A55641C02460A43F7D115
:1016C0002B4632462146009800F08FF9FEBD0000FF
:1016D000000000002D0000002B0000002000000092
:1016E00070B504460021243408E05507D2086D0F78
:1016F000303565545D07491C2A43DB0815461D43F8
:10170000F3D10468002310A2250708D520252C401A
:101710000C4304D0C46901230CA2641EC46100F010
:1017200064F970BD10B5044621461068FFF7ADFEA0
:10173000002302462046FFF7D3FF10BDD21DD1087B
:10174000C9000CC9CCE70000000000003000000018
:10175000F8B50F460188090502D5224C7C4402E009
:10176000204C7C440E3405460021243508E0160741
:101770001209360FA65D6E541E07491C32431B0921
:1017800016461E43F3D1224604780023240705D5CC
:10179000702F06D0002901D01132022300F025F964
:1017A000F8BD10320123F9E770B504460D46214615
:1017B0001068FFF76AFE0023024629462046FFF71D
:1017C000C7FF70BDD21DD308DB000CCBC0E730B41F
:1017D000036820241268234303600823C36130BCDC
:1017E0000023B5E7EC0F0000F3B50446002081B0FC
:1017F00020622046E1688847002872D0252802D060
:101800006268A168ABE0594F00267F442046E1683A
:1018100088472028054608DB312D06D27819203864
:101820000078002801D00643F0E7B00701D5042076
:1018300086430020E0610746A0612A2D0AD0284691
:1018400000F03CFF002827D0303DB8000019009080
:10185000856119E00298BA00121902C891610290DC
:101860002046E1688847012F054617D1E069002826
:101870001FDA202086431CE000980A218069484333
:1018800000994019303888612046E168884705464C
:1018900000F014FF0028EFD1012F0AD02E2D08D11F
:1018A0002046E16888470546202006437F1C022F1A
:1018B000C3DBA069002803DA4042A061012006438F
:1018C000F00701D0102086436C2D0BD0682D09D075
:1018D0004C2D3CD06A2D38D0742D38D07A2D36D08E
:1018E00016E041E0E1682F4620468847B8420546A9
:1018F00009D16C2F29D001208002E16806432046DF
:101900008847054604E06C2F1DD0FF2001300643B8
:10191000002D29D028464138192803D80120C002BB
:1019200006432035204626602946029A1646FEF7D1
:1019300005FC002810D001280BD0F61DF008C000CF
:101940000830029055E74020E1E78020D5E70020ED
:10195000D3E7361D02964CE762682846A168904797
:10196000206A401C206244E7206AFEBD660F00002A
:101970000B4670B5024689078008084319469D0842
:10198000141AA94125090807054308092C194841DB
:10199000250A01060D43010A2C194141200C0D04B2
:1019A00028430D0C00194D41002140194D41C0083C
:1019B00069070843E908840F8D0025438400241833
:1019C0004D4124196D41121BAB4107E00925ED4340
:1019D0002C11521963410024401C61411C460A2508
:1019E0000026551BB441F1D270BDFFB504460D462B
:1019F00081B0243000902168880604D51022E06967
:101A00009143216000E00120A84201DD471B00E076
:101A100000270498A1697A191018081AA061207883
:101A2000C00602D42046FFF700FD002608E0039818
:101A30006268A168805D9047206A401C761C206225
:101A400004988642F3DB2078C0060AD52046FFF7CB
:101A5000ECFC06E06268A16830209047206A401CD8
:101A6000206238467F1E0028F4DC07E00098626898
:101A7000A168405D9047206A401C206228466D1E88
:101A80000028F3DC2046FFF7E6FC2078000602D5AC
:101A9000022005B0F0BD0120FBE700007047FFB554
:101AA0000C461E468FB003CA089009914F007D0D69
:101AB00000D16D1E002108460020C0460321099A6E
:101AC00089050840002A03DA82008018400808408F
:101AD000800D01280A9002DD0020C0430A9008987A
:101AE00007430DD0EF48F0492818484307141898C9
:101AF00000281DD07542291E1DDD0A9842421BE0B8
:101B00001898012802D00020302104E00020F24380
:101B100005E02154401CB042FBDB30460022189BFC
:101B2000002121540F998B600A60486013B0F0BD0A
:101B3000BD1B6D1CDFE70A9A002900DA69420BA879
:101B400000F086FA0BA803AB07C807C308990998E9
:101B500000F0E4FA01910146D44802920918002DE0
:101B600000910ADDD14903980A9A4942401803A915
:101B70000390684600F0F7FC07E003990A9A0818FA
:101B800003A90390684600F0C4FC00900004029290
:101B9000000C019103D00020C043410800E0104632
:101BA000189A002A03D00022009215461EE0751EE6
:101BB00005D4FFF7DDFE303262556D1EF9D50122E6
:101BC0000843079602D000227F1C04E020783028CA
:101BD00001D100227F1E002A069788D01EE0112D19
:101BE00007DAFFF7C5FE303262556D1C02460A4324
:101BF000F5D108430FD10021681E05E0235C625C2B
:101C00006354491C2254401E8142F7DBA81B401E2E
:101C10000795069002E0009800280AD0079A1899C4
:101C20000020A0540F98079B069A436002608160D1
:101C30007CE711260020189059E7D21DF0B50D461B
:101C40000446D10893B0C90003C90C900D9100F06F
:101C50001FFD02460D98C00F01D02D2007E020681F
:101C6000810701D52B2002E04007C00F4001032A65
:101C70000F9001D0072A05DB03462946204600F0D5
:101C8000A3F90DE12078800601D5E76900E0062779
:101C90002846652D04D0662814D0672D69D12DE023
:101CA0000020112F009001DB112300E07B1C0CAA07
:101CB00003A910A8FFF7F3FE1199002610987D1CC8
:101CC0000E9142E001203B460CAAC0070B90012078
:101CD000009003A910A8FFF7E2FE119D1298109939
:101CE000002600280E9501D1781C0D18781B02D40F
:101CF0004642761E7D1CE81B00903AE0012F00DA78
:101D000001270020112F009001DD112300E03B4648
:101D10000CAA03A910A8FFF7C2FE11993D4610981E
:101D200000260E91217809070BD40E99A94200DAFA
:101D30000D4603A9012D04DD4A19203AD27F302A2D
:101D400006D0B84201DA011D04DA012100910FE04A
:101D50006D1EEFE7002802DC86192D1A03E0411CF6
:101D6000A94200DD0D46801B401C00900120C007E9
:101D70000B902078000705D40098A84202DB0020D1
:101D8000C043009069460020C8720B98012102AF41
:101D90000337C907884225D0022010902B201190CC
:101DA0000B9800280BDA40420B902D20119006E092
:101DB0000B9800F0CDF830317F1E0B9039701099E0
:101DC000481E00291090F3DC0B980028F0D11198E0
:101DD0007F1E38702088000501D5452000E0652071
:101DE0007F1E387001A8C01BC01D0B900F980028E3
:101DF00000D0012041190098C01709180B98081845
:101E0000A169081A401EA0612078C00602D42046AD
:101E1000FFF70BFB0F98002805D06268A168904778
:101E2000206A401C20622078C00624D52046FFF797
:101E3000FCFA20E0002E07DB0E98B04204DD03A878
:101E40006268805DA16802E06268A1683020904706
:101E5000206A761C401C20620098401E00900AD127
:101E6000FEF748FAC06862680168405CA168904764
:101E7000206A401C206228466D1E0028DADC07E03C
:101E800062683878A1687F1C9047206A401C2062F5
:101E90000B99481E00290B90F2DC2046FFF7DBFA75
:101EA000022043E601FCFFFF104D0000E1DFFFFFD1
:101EB00010B54369002B02D0C046C04601E0FFF7D1
:101EC000EDFA012010BD1278014624310A7000227B
:101ED0004A700122ECE711680022D243E8E710B50E
:101EE0004369002B02D0C046C04601E0FFF762FB09
:101EF000012010BD12880146243182840022C28450
:101F00000122ECE711680022D243E8E770B50C46E5
:101F10001646054600F050F80368FF200230C05C0A
:101F2000012807D0FF2C10D8185D00280DD0012003
:101F30002C7070BDFF20324621460830C0581B1857
:101F40002846FF330833984770BD0020C04370BD5A
:101F500001468008081A02091018020A1018020C1B
:101F60001018C008820012185200891A01E00A39BC
:101F7000401C0A29FBD27047754600F029FBAE468B
:101F8000050069465346C008C000854618B020B514
:101F9000FEF774F960BC00274908B6460026C0C5A4
:101FA000C0C5C0C5C0C5C0C5C0C5C0C5C0C5403D11
:101FB00049008D467047000010B5FEF79BF9001DE3
:101FC00010BD00BF35070000F8B51F4604460123C9
:101FD0000068DB02032601461840072A05DB0028BB
:101FE00001D017A506E017A504E0002801D016A52A
:101FF00000E016A5102081432160A069C01E002FBB
:10200000A06101D0401EA0612046FFF70EFA002F0C
:1020100009D038466268A1689047206A401C206257
:10202000C01C206206E0206AFAE762682878A1688E
:102030006D1C9047761EF8D22046FFF70CFAF8BDCB
:102040004E414E006E616E00494E4600696E66005C
:10205000F7B516468AB0304878446C4603467C3360
:10206000C06F5A689B680DC42B4B7B446E3308339A
:1020700003AC0DCB0DC43720C001081837211B302D
:10208000FFF730F905460C46803D1B3C02D5644203
:10209000012000E00020002709900FE0E0070BD0AE
:1020A0000C201D497843794432464E394118684620
:1020B00000F02FFA6B4607C364107F1C002CEDD193
:1020C000154F7F442E3F16E0E80712D02001C019BB
:1020D00001460EC9069108930792C068F04201D1EB
:1020E00098190890324606A903A800F012FA03AB2B
:1020F00007C36D10641C002DE6D13246694609986D
:10210000002803A802D000F02EFA01E000F001FA46
:102110000A9B07C30DB0F0BD2C070000034640002A
:102120000A4610B5400D0BD00121C9070F24A402A7
:1021300000191C0364082143540D2143D20207E017
:1021400000210120F2E7D40F490021435200401E34
:102150000029F8DADB0FDB07184310BDFFB50D4689
:10216000144685B04868516800F07AFA00910190F1
:10217000A868A16800F074FA02910390A8686168E9
:1021800000F06EFA029A12188242029201D20120E5
:1021900000E00020019A0B18D2180028019202D00A
:1021A0008A4202D903E08A4201D2012000E00020E5
:1021B0000099081800906868A16800F051FA029A26
:1021C00012188242029201D2012000E00020019AFE
:1021D0000B18D2180028019202D08A4202D903E0DB
:1021E0008A4201D2012000E00020009908180090E6
:1021F0002868216840004900400849084018EE4915
:10220000471814E001994000C90F08430090019855
:1022100002994000C90F08430190029803994000B9
:10222000C90F08430290039840007F1E0390009856
:102230000028E7DA0898002801D0E04E00E00026E8
:10224000B74228DAF71BF806C00E15D0029B2021F2
:10225000091A039A8B401A430392029A019BC240C7
:102260008B401A430292019A009BC2408B40009916
:102270001A430192C14000917A110BD06B460320A2
:10228000811A01D5002101E0890059588700401EBC
:10229000D951F5D5374603980299002800D001207E
:1022A000014308980291002808460CD0002800D06D
:1022B00001200199019A490508430121D20AC90266
:1022C000D202019200E001210E9B0122D207012BD4
:1022D00002D0002B03D013E0002807D116E0904273
:1022E00004D890420CD1019B0B4209D0019B591894
:1022F000019105D10099491C009101D17F1C0092E8
:10230000002803D0102108460020C0462868216814
:10231000019B009A4840C10F0598C90739430EC078
:1023200009B0F0BDFFB587B0099A089808995368BD
:10233000926840688968964600220393174694463F
:10234000089A12685300099A5B08126852005208F2
:102350009A1A9B4BD4180A9A002A01D0352200E021
:10236000402206920022012315460492DB070593C2
:1023700024E0002D05D175460346039E4D1BB34155
:1023800009D375466646039B491B049D9841059BEE
:102390007519AC465F4163463B4308D0059B049EDC
:1023A000DD0776082E435B080496059301E0641E62
:1023B000521EC50FED0749184041521C069B9A4218
:1023C000D7DB002D04D17546039A6B1A824101D2E6
:1023D00003200CE0039A0B466B404240134301D1AB
:1023E000022004E0014301D0012000E0002061460A
:1023F00001910021009702910A99002905D06146B8
:10240000400201436D4B019102E0800700230290DE
:102410009C423ADA1A1BD006C00E15D0029D20212C
:10242000019C091AC5408C402543029C8C4000D079
:1024300001242543019C02953D46C4408D40394608
:102440002C43C1400194009154111DD06D460221CE
:10245000002202290CD10320001B07E0002804DB26
:102460008600AE59002E00D00122401C0328F5DB67
:10247000081B02D588002A5004E080002858104329
:102480008A00A850491EE3D51C460A9800280298E5
:102490000CD0002800D001200199019A4905084379
:1024A0000121D20AC902D202019200E00121109B4F
:1024B0000122D207012B02D0002B03D013E0002809
:1024C00007D116E0904204D890420CD1019B0B42F8
:1024D00009D0019B5918019105D10099491C00911F
:1024E00001D1641C0092002803D01021084600206E
:1024F000C04608980999019A0068096848400099FF
:10250000C30F0798DB0723430360826041600BB071
:10251000F0BD1FB5002300920A46014601A8FFF74F
:102520001DFE01A807C804B010BD1FB5012300920D
:102530000A46014601A8FFF711FE01A80F2407C8AB
:10254000A402C30F4000DB074008001B002900DB8A
:102550000020490000054908CC0A204349051843DA
:10256000D20A1143DFE71FB5002300920A46014655
:1025700001A8FFF7D7FE01A807C8D4E71FB50123BC
:1025800000920A46014601A8FFF7CCFE01A80F24DD
:1025900007C8A402C30F4000DB074008001B002946
:1025A00000DB0020490000054908CC0A204349050A
:1025B0001843D20A1143B6E702C0FFFF013C0000F6
:1025C000FF3F00000446C046C0462046FDF744FEDB
:1025D000004870479C000010024670B50A439207FD
:1025E0002AD11E4DEE0104C808C9541B944334403F
:1025F00017D0D0B2D9B2401A2106014310D190B2FF
:1026000099B2401A210401430AD110021902000AAA
:10261000090A401A2102014302D1100E190E401A74
:1026200070BD9A42DFD010BA19BA884201D9012090
:1026300070BD0020C04370BD02780B78401C491C5F
:10264000002A09D09A4207D102780B78401C491C15
:10265000002A01D09A42EFD0D01A70BD01010101C9
:10266000F8B5040C8BB2264682B25E43104658433E
:102670000D0C370C360400218019164679416E4343
:10268000370C36048019264679416E438919F8BD06
:102690004900CA02104300D004204A0D01D0012293
:1026A0001043054A490D914201D1022108430128F6
:1026B00000D1052070470000FF07000030380A28CD
:1026C00001D20120704700207047000010B500299A
:1026D0000AD00878002807D005487844FFF77CFF27
:1026E000002801D0002010BD0248784410BD000031
:1026F000620100005A01000010B500290AD00878D4
:10270000002807D005487844FFF766FF002801D06D
:10271000002010BD0248784410BD000052010000A6
:102720004A01000003B402487844844603BC604771
:102730000FF5FFFF000000500000015000000250A4
:102740000000035000000000000000003031323370
:1027500034353637383941424344454640305800D5
:102760003031323334353637383961626364656607
:102770004030780004000008000000000000000263
:10278000000100001000000002400000000000A056
:102790000000000005400000000000C8000000002C
:1027A0000C4000000000409C0000000019400000A8
:1027B0000020BCBE0000000034400000BFC91B8EDA
:1027C00000000004B5400000504BCFD06607E2CFB8
:1027D000010000006C4100003E8251AADFEEA734E8
:1027E00001000000D9420000DCB5A0E23A301F979A
:1027F000FFFFFFFFB4450000FD25A0C8E9A3C14FBE
:10280000FFFFFFFFFF3F000000000080000000000E
:10281000FF3F000000000080000000006829000069
:10282000000000105C00000004010000C42900004A
:102830005C000010A4020000200100001C00000049
:1028400043000000F8FFFFFF0C0000000E00000036
:102850000F0000002E0000001001000043000000E7
:10286000F8FFFFFF004040404040404040404141B1
:102870004141414040404040404040404040404055
:1028800040404040400502020202020202020202EF
:1028900002020202022020202020202020202002EC
:1028A000020202020202909090909090101010107C
:1028B0001010101010101010101010101010101018
:1028C00002020202020288888888888808080808AC
:1028D0000808080808080808080808080808080878
:1028E00002020202400000000000000000000000A0
:1028F00000000000000000000000000000000000D8
:1029000000000000000000000000000000000000C7
:1029100000000000000000000000000000000000B7
:1029200000000000000000000000000000000000A7
:102930000000000000000000000000000000000097
:102940000000000000000000000000000000000087
:102950000000000000000000000000000000000077
:102960000000000000000000001BB700001BB700C3
:10297000001BB70000000000000000000000000085
:102980000000000000000000000000000100000046
:102990000000000000000000000000000000000037
:1029A0000000000000000000000000000000000027
:1029B0000000000000000000000000000000000017
:0429C0000000000013
:04000005000000C136
:00000001FF
