:020000040000FA
:10000000B0020010690100006D0100006F010000E6
:100010007101000073010000750100000000000084
:100020000000000000000000000000007701000058
:1000300079010000000000007B0100007D0100004C
:100040007F0100007F0100007F0100007F010000B0
:100050007F0100007F0100007F0100007F010000A0
:100060007F0100007F0100007F0100007F01000090
:100070007F0100007F0100007F0100007F01000080
:100080007F0100007F0100004308000079080000A4
:100090007F0100007F0100007F0100007F01000060
:1000A0007F0100007F0100007F0100007F01000050
:1000B0004104000013040000E5030000B703000042
:1000C00000F002F800F040F80CA030C808382418FE
:1000D0002D18A246671EAB4654465D46AC4201D180
:1000E00000F032F87E460F3E0FCCB6460126334272
:1000F00000D0FB1AA246AB4633431847500D000010
:10010000700D0000103A02D378C878C1FAD85207AF
:1001100001D330C830C101D504680C6070470000BD
:100120000023002400250026103A01D378C1FBD813
:10013000520700D330C100D50B6070471FB5C046D1
:10014000C0461FBD10B510BD00F099F81146FFF76D
:10015000F5FF00F087FD00F0B1F803B4FFF7F2FF00
:1001600003BC00F0B5F8000008480047FEE7FEE7D2
:10017000FEE7FEE7FEE7FEE7FEE7FEE7FEE7FEE757
:1001800003480449024A044B70470000C1000000C4
:10019000B0000010B0020010B00000102E492F4A2D
:1001A000116001212E4A116051600021516001212E
:1001B000516000BF2A494968C907C90FFAD02949C7
:1001C0008868400A400203210143264A916026497B
:1001D000896B80229143244A916300BF2149C968F9
:1001E000C907C90FFAD003211D4A116301215163C8
:1001F000002151630121516300BF1949496BC907AF
:10020000C90FFAD00121164A91631449096889007F
:10021000164A116011460968154A1160704700B509
:10022000022010490860002008620F48806B2021DE
:1002300088430D498863002300E05B1CFF2BFCD939
:10024000FFF7ACFF0648403000680121090408436D
:100250000849086000BD0000001BB7000000001046
:1002600040800440008004400082044004000010EC
:100270000800001080800440704770477047754642
:1002800000F022F8AE46050069465346C008C0009B
:10029000854618B020B5FFF773FF60BC00274908FA
:1002A000B6460026C0C5C0C5C0C5C0C5C0C5C0C50E
:1002B000C0C5C0C5403D49008D4670470446C04694
:1002C000C0462046FFF749FF004870474C00001029
:1002D00001491820ABBEFEE726000200704700006F
:1002E00000000050000001500000025000000350C8
:1002F000000000000000000000000000FFFFFFFF02
:10030000002806D001280CD0022812D0032820D1C2
:1003100017E0F74AD26901238B401A43F44BDA61A4
:1003200018E0F44AD26901238B401A43F14BDA6199
:1003300010E0F14AD26901238B401A43EE4BDA6197
:1003400008E0EE4AD26901238B401A43EB4BDA6195
:1003500000E000BF00BF704710B502460020002A31
:1003600006D0012A0CD0022A12D0032A20D117E08D
:10037000DF4B9B6901248C40234200D0012018E010
:10038000DC4B9B6901248C40234200D0012010E00B
:10039000D94B9B6901248C40234200D0012008E006
:1003A000D64B9B6901248C40234200D0012000E001
:1003B00000BF00BF10BD10B5D1480068401CD04937
:1003C000086001210020FFF7C7FF0446002C08D079
:1003D000CC480068401CCB49086001210020FFF791
:1003E0008FFF10BD10B5C8480068401CC6490860A2
:1003F00001210846FFF7B0FF0446002C08D0C3488F
:100400000068401CC149086001210846FFF778FFD9
:1004100010BD10B5BE480068401CBD4908600121F0
:100420000220FFF799FF0446002C08D0B948006865
:10043000401CB849086001210220FFF761FF10BD90
:1004400010B5B5480068401CB3490860012103207D
:10045000FFF782FF0446002C08D0B0480068401C1B
:10046000AE49086001210320FFF74AFF10BD10B517
:10047000AB48006840210843A94908601F2000F0EC
:1004800097F91E2000F094F91D2000F091F91C202E
:1004900000F08EF910BD70B5049C002806D001282C
:1004A00038D002286AD003287BD19CE0002A18D1DA
:1004B0008F4D6D6801268E40B5438D4E7560002BC3
:1004C00007D13546AD6801268E40B543884EB560EC
:1004D0000EE0874DAD6801268E403543844EB560F1
:1004E00006E0834D6D6801268E403543804E756071
:1004F000002C07D17E4DED6801268E40B5437C4E21
:10050000F56006E07A4DED6801268E403543784E61
:10051000F5609DE0002A18D1764D6D6801268E4069
:10052000B543744E7560002B07D13546AD68012682
:100530008E40B5436F4EB5600EE06E4DAD6801263E
:100540008E4035436B4EB56006E06A4D6D680126FE
:100550008E403543674E7560002C07D1654DED68C0
:1005600001268E40B543634EF56006E0614DED68AF
:1005700001268E4035435F4EF56069E0002A19D1AF
:100580005D4D6D6801268E40B5435B4E7560002B56
:1005900008D13546AD6801268E40B543564EB5604C
:1005A0000FE054E0544DAD6801268E403543524E65
:1005B000B56006E0504D6D6801268E4035434E4EC5
:1005C0007560002C07D14C4DED6801268E40B54377
:1005D000494EF56006E0484DED6801268E403543F2
:1005E000454EF56034E0002A18D1444D6D6801266F
:1005F0008E40B543414E7560002B07D13546AD683E
:1006000001268E40B5433D4EB5600EE03B4DAD68D2
:1006100001268E403543394EB56006E0374D6D6892
:1006200001268E403543354E7560002C07D1334D81
:10063000ED6801268E40B543304EF56006E02F4D43
:10064000ED6801268E4035432C4EF56000E000BF7A
:1006500000BF70BD002806D001280CD0022812D09F
:10066000032820D117E0224A126901238B401A4344
:100670001F4B1A6118E01F4A126901238B401A436D
:100680001C4B1A6110E01C4A126901238B401A436B
:10069000194B1A6108E0194A126901238B401A4369
:1006A000164B1A6100E000BF00BF7047002806D05B
:1006B00001280CD0022812D003283BD132E00C4A8A
:1006C000126901238B409A43094B1A6133E0094AAE
:1006D000126901238B409A43064B1A612BE0064AAC
:1006E000126901238B409A43034B1A6123E00000F7
:1006F00000800050008001500080025000800350B4
:100700000C00001010000010140000101800001061
:100710001C00001020000010240000102800001011
:1007200080800440264A136901228A409343244A68
:10073000136100E000BF00BF704730B513468B4027
:100740008400204D2D5901248C40A4002B5130BD34
:10075000024690001B4B1B5801208840800018580F
:10076000704730B5002A11D08300164CE35801249D
:10077000E4031B191B6801248C4023438400114DA2
:100780002C590125ED036419236010E083000D4C02
:10079000E3580124E4031B191B6801248C40A34384
:1007A0008400084D2C590125ED036419236030BDE8
:1007B000C206D20E01219140034A11607047000029
:1007C00000800350E002000000E100E070B5044644
:1007D0000D46002C19D10220F74948600020C8605E
:1007E000F649F748006800F083FA6843F2498861E7
:1007F000FF200860042048610120486000BFEE48E7
:100800004068C007C00FFAD11AE0012C18D10220AD
:10081000EC4948600020C860E849E948006800F0F9
:1008200067FA6843E7498861FF200860042048614F
:100830000120486000BFE3484068C007C00FFAD1FC
:1008400070BDDD480068C007C00F07D00120DA493D
:100850000860DD480068401CDB490860D648006835
:100860001021084207D01020D3490860D7480068FB
:10087000401CD64908607047D2480068C007C00FC6
:1008800007D00120CF490860D1480068401CD049FA
:100890000860CC4800681021084207D01020C949E0
:1008A0000860CC480068401CCA49086070470028AE
:1008B00003D10121C04A516002E00121C14A5160C7
:1008C0007047002803D10021BB4A516002E000219B
:1008D000BC4A516070470146002906D1B64A5068AB
:1008E00002221043B44A506005E0B64A5068022222
:1008F0001043B44A5060704770B504460D46002C52
:1009000044D1B5480068012149020843B249086052
:10091000B248006AC008C000B04908620846006AD0
:1009200002210843AD4908620846406AC008C00079
:1009300048620846406A02210843A84948620846BE
:10094000806AC008C00088620846806A02210843A5
:10095000A2498862A2480069C008C000A049086195
:1009600008460069022108439D4908610020964914
:100970000860964908609048856105208E49886224
:1009800003204861122000F060F922E0012C20D100
:1009900091480068A10208438F4908608F48406968
:1009A000C008C0008D4948610846406902210843DB
:1009B0008A49486100208649086086490860814864
:1009C000856105207F49886203204861132000F07B
:1009D0003CF970BD70B504460D46002C12D17E481E
:1009E00000680121490208437B49086000207649DC
:1009F00008607148856103206F494861122000F04A
:100A000024F912E0012C10D173480068A1020843B8
:100A10007149086000206E4908606A4885610320BA
:100A200068494861132000F010F970BD30B50546E3
:100A30000C4613462846FFF744FF012D5ED1664859
:100A40000068A902084364490860664818435D4984
:100A5000C863D807C00F0CD060484038C06BC008CE
:100A6000C0006149C8630846C06B032108435E4962
:100A7000C863022003420BD058480068C008C00079
:100A80005649086008460068032108435349086036
:100A9000042003420BD051480069C008C0004F49F0
:100AA000086108460069032108434C490861082091
:100AB00003420BD049484069C008C000474948611B
:100AC0000846406902210843444948610820184308
:100AD000464948634648046000683A4948624448C9
:100AE000006840088861424800684008C861404882
:100AF0000068400808623F4848614DE03648006899
:100B0000012149020843344908603B4818432A49F7
:100B1000C863022003420BD03048806AC008C0007E
:100B20002E4988620846806A022108432B49886260
:100B3000042003420BD02A480069C008C00028499D
:100B40000861084600690221084325490861082018
:100B500003420BD02448406BC008C00022494863C0
:100B60000846406B032108431F4948630820184387
:100B7000224948632248046000680F4948622048BF
:100B8000006888611E4800684008C8611C48006809
:100B9000400808621748486130BD00283DD0002950
:100BA00006D001292ED002292FD0032933D12FE0DE
:100BB000044B9A6130E0000000400140E80300006F
:100BC0000800001000800140340000103C000010BC
:100BD0003800001040000010808004408040044035
:100BE000004004409805000040400440408001401F
:100BF000480000100004000058060000404001407A
:100C000044000010144BDA6106E0134B1A6203E053
:100C1000114B5A6200E000BF16E0002906D00129FE
:100C200007D0022908D003290CD108E00B4B9A61A8
:100C300009E00A4BDA6106E0084B1A6203E0074B51
:100C40005A6200E000BF00BF7047C206D20E012109
:100C50009140034A1160704700800140004001400C
:100C600000E100E0FFF7DBFAFFF701FC01220221BF
:100C70000020FFF776FD012202210020FFF75DFD35
:100C8000012200210320FFF76CFD01220021032037
:100C9000FFF753FD64211448006800F029F8441E52
:100CA00021460020FFF728FE0020FFF700FE1AE093
:100CB0000E480068322805D2002211460320FFF7B3
:100CC0003CFD10E009480068322809D30748006855
:100CD000642805D2012200210320FFF72EFD02E047
:100CE000002002490860E3E708000010340000100B
:100CF000002203098B422CD3030A8B4211D3002319
:100D00009C464EE003460B433CD4002243088B42F2
:100D100031D303098B421CD3030A8B4201D394467F
:100D20003FE0C3098B4201D3CB01C01A5241830972
:100D30008B4201D38B01C01A524143098B4201D32C
:100D40004B01C01A524103098B4201D30B01C01A57
:100D50005241C3088B4201D3CB00C01A52418308D1
:100D60008B4201D38B00C01A524143088B4201D3FE
:100D70004B00C01A5241411A00D20146524110465E
:100D800070475DE0CA0F00D04942031000D34042D3
:100D9000534000229C4603098B422DD3030A8B4209
:100DA00012D3FC22890112BA030A8B420CD38901A7
:100DB00092118B4208D3890192118B4204D389018D
:100DC0003AD0921100E08909C3098B4201D3CB01CB
:100DD000C01A524183098B4201D38B01C01A524180
:100DE00043098B4201D34B01C01A524103098B4284
:100DF00001D30B01C01A5241C3088B4201D3CB006F
:100E0000C01A524183088B4201D38B00C01A524151
:100E1000D9D243088B4201D34B00C01A5241411A28
:100E200000D20146634652415B10104601D3404256
:100E3000002B00D54942704763465B1000D3404207
:100E400001B50020C046C04602BD00006C0E000087
:100E5000000000104C00000004010000B80E00006B
:100E60004C0000106402000020010000001BB700CD
:100E7000001BB700001BB7000000000000000000CE
:100E80000000000000000000000000000000000062
:100E90000000000000000000000000000000000052
:100EA0000000000000000000000000000000000042
:080EB00000000000000000003A
:04000005000000C136
:00000001FF
