:020000040000FA
:10000000E80700109D020000A1020000A30200000A
:10001000A5020000A7020000A902000000000000E5
:10002000000000000000000000000000AB02000023
:10003000AD02000000000000AF020000033A000023
:10004000B3020000B3020000B3020000B3020000DC
:10005000B3020000B3020000B3020000B3020000CC
:10006000B3020000B3020000B3020000B3020000BC
:10007000B3020000CF180000EF0F00004915000088
:10008000B3020000B30200008F0B0000C50B00009C
:10009000AD0F000041080000B3020000B3020000F1
:1000A000B3020000B3020000B3020000B30200007C
:1000B000AB3E0000893E00005B3E00002D3E00008C
:1000C00000F002F800F0BFF80CA030C8083824187F
:1000D0002D18A246671EAB4654465D46AC4201D180
:1000E00000F0B1F87E460F3E0FCCB64601263342F3
:1000F00000D0FB1AA246AB4633431847685C0000A9
:10010000885C0000103A02D378C878C1FAD8520748
:1001100001D330C830C101D504680C6070470000BD
:100120000023002400250026103A01D378C1FBD813
:10013000520700D330C100D50B60704710B56E294F
:1001400002D104F0E9F910BD702902D103F0CFFF0C
:1001500010BD662902D105F087F910BD652902D1CD
:1001600005F082F910BD672902D105F07DF910BDB7
:10017000612902D1C046C04610BD03681B0A01D3E5
:1001800080231943692902D103F03CFF10BD642983
:1001900002D103F037FF10BD752902D103F032FF01
:1001A00010BD6F2902D104F0BDFA10BD782902D12B
:1001B00003F08AFF10BDE92902D104F059FA10BDFD
:1001C000E42902D104F054FA10BDF52902D104F05B
:1001D0004FFA10BDEF2902D104F0B0FA10BDF82992
:1001E00002D103F07FFF10BD0368DB0901D3802338
:1001F0001943632902D104F00AFD10BD732902D10D
:1002000004F00DFD10BDE32902D104F017FD10BD6F
:10021000F32902D104F01AFD10BD002010BD1FB556
:10022000C046C04604F060FD04000020002105F037
:1002300005F9401C60600020002105F0E9F8E0604D
:100240001FBD10B510BD04F027FD1146FFF7E7FFF5
:1002500003F006FC05F058F803B4FFF7F2FF03BC07
:1002600000F047FC70B505460C46164602E00FCC80
:100270000FC5103E102EFAD2082E02D303CC03C5B0
:10028000083E042E07D301CC01C5361F03E02178B8
:100290002970641C6D1C761EF9D270BD0848004799
:1002A000FEE7FEE7FEE7FEE7FEE7FEE7FEE7FEE726
:1002B000FEE7FEE703480449024A044B704700008A
:1002C000C1000000E8050010E8070010E805001074
:1002D000704700000FB4054910B503AA029804F056
:1002E00055F910BC08BC04B0184700001C000010F1
:1002F000704770477047000000000000FFFFFFFFDD
:100300003049314A11600121304A116051600021A9
:1003100051600121516000BF2C494968C907C90FCC
:10032000FAD02A4940398868400A40020321014333
:10033000264A403A91602649896B80229143244A9B
:10034000916300BF21494039C968C907C90FF9D075
:1003500003211E4A116301215163002151630121D0
:10036000516300BF1949496BC907C90FFAD0012170
:10037000164A9163144909688900164A11601146AA
:100380000968154A1160704700B502200F494039CD
:100390000860002008620E48806B202188430C49C9
:1003A0008863002300E05B1CFF2BFCD9FFF7A8FF4C
:1003B00006484030006801210904084303494031E0
:1003C000086000BD001BB700000000104080044022
:1003D000008204400400001008000010A0211B4A05
:1003E00051621A49C03108610121184AC032516175
:1003F000002151610121516100BF1449C031496997
:10040000C907C90FF9D00121104AC03291611049C2
:10041000896B402291430E4A916370470B49C0316A
:1004200008620121094AC032516200215162012152
:10043000516200BF0549C031496AC907C90FF9D0E7
:100440000121024AC03291627047000000800440DE
:100450000082044010B5F348006840210843F14988
:1004600008601F2000F0D7F91E2000F0D4F91D20ED
:1004700000F0D1F91C2000F0CEF910BD70B5049C3D
:10048000002806D0012838D002286AD003287BD162
:100490009CE0002A18D1E44D6D6801268E40B543DA
:1004A000E14E7560002B07D13546AD6801268E40C0
:1004B000B543DD4EB5600EE0DB4DAD6801268E40E4
:1004C0003543D94EB56006E0D74D6D6801268E40A4
:1004D0003543D54E7560002C07D1D34DED6801260C
:1004E0008E40B543D04EF56006E0CF4DED68012655
:1004F0008E403543CC4EF5609DE0002A18D1CB4D9F
:100500006D6801268E40B543C84E7560002B07D13B
:100510003546AD6801268E40B543C44EB5600EE049
:10052000C24DAD6801268E403543C04EB56006E031
:10053000BE4D6D6801268E403543BC4E7560002C63
:1005400007D1BA4DED6801268E40B543B74EF56030
:1005500006E0B64DED6801268E403543B34EF5609A
:1005600069E0002A19D1B24D6D6801268E40B5436D
:10057000AF4E7560002B08D13546AD6801268E4020
:10058000B543AB4EB5600FE054E0A94DAD68012610
:100590008E403543A64EB56006E0A54D6D68012638
:1005A0008E403543A24E7560002C07D1A04DED68FA
:1005B00001268E40B5439E4EF56006E09C4DED68E9
:1005C00001268E4035439A4EF56034E0002A18D15A
:1005D000984D6D6801268E40B543964E7560002B90
:1005E00007D13546AD6801268E40B543914EB560C2
:1005F0000EE0904DAD6801268E4035438D4EB560BE
:1006000006E08C4D6D6801268E403543894E75603D
:10061000002C07D1874DED6801268E40B543854EED
:10062000F56006E0834DED6801268E403543814E2E
:10063000F56000E000BF00BF70BD002806D00128B3
:100640000CD0022812D0032820D117E0764A126974
:1006500001238B401A43744B1A6118E0734A1269E4
:1006600001238B401A43714B1A6110E0704A1269E2
:1006700001238B401A436E4B1A6108E06D4A1269E0
:1006800001238B401A436B4B1A6100E000BF00BF8F
:100690007047002806D001280CD0022812D0032869
:1006A00020D117E0604A126901238B409A435E4BC8
:1006B0001A6118E05D4A126901238B409A435B4B33
:1006C0001A6110E05A4A126901238B409A43584B31
:1006D0001A6108E0574A136901228A409343554A38
:1006E000136100E000BF00BF704710B50246002054
:1006F000002A06D0012A0CD0022A12D0032A20D1C7
:1007000017E0494B9B6901248C40234200D0012013
:1007100018E0464B9B6901248C40234200D0012005
:1007200010E0434B9B6901248C40234200D0012000
:1007300008E0404B9B6901248C40234200D00120FB
:1007400000E000BF00BF10BD002806D001280CD07B
:10075000022812D0032820D117E0334AD26901239E
:100760008B401A43304BDA6118E0304AD2690123DA
:100770008B401A432D4BDA6110E02D4AD2690123D8
:100780008B401A432A4BDA6108E02A4AD2690123D6
:100790008B401A43274BDA6100E000BF00BF70476F
:1007A00030B513468B408400234D2D5901248C40D5
:1007B000A4002B5130BD024690001F4B1B58012056
:1007C000884080001858704730B5002A11D0830047
:1007D000194CE3580124E4031B191B6801248C40C5
:1007E00023438400144D2C590125ED036419236023
:1007F00010E08300104CE3580124E4031B191B682C
:1008000001248C40A34384000B4D2C590125ED039A
:100810006419236030BDC206D20E01219140074AFF
:1008200011607047808004400080005000800150BB
:1008300000800250008003507854000000E100E086
:1008400070B500BF874A9268D0B240104007400F91
:10085000032820D1834A5269D1B29E22114205D089
:10086000814A11607F4A1268D3B270BDCA07D20FA5
:100870003ED07C4C2468E5B27C4C2268541C7B4EF4
:1008800034607B4CA55432461268402A30D3002293
:10089000344622602CE0022811D1724C2468E5B263
:1008A000724C2268541C714E3460714CA55432460F
:1008B0001268402A1CD300223446226018E0062821
:1008C00007D1694A1268FF2401342243664C226032
:1008D0000EE001280CD1634A5269D1B220221142A4
:1008E00003D00122634C227002E00022614C22708E
:1008F00000BFBAE7F8B5044601205E490870002041
:100900005A49086000BF1520012181405A48016002
:1009100000BF5A48406AC008C000584948620846AB
:10092000406A01210843554948620846806AC00868
:10093000C00088620846806A012108434F498862E6
:100940004F4800680121090308434D490860012010
:10095000886183204349C8604948876939464948C6
:10096000006803F09BFC06092146304603F096FC24
:100970000546280A3B494860E8B208600320C86081
:10098000072088600846476900BF364840696021F3
:1009900008406028F9D101E03248076831484069D1
:1009A000C007C00FF8D100BF152001218140324897
:1009B0008038016000BF05202A494860F8BD0AE080
:1009C00000BF284A526920231A42FAD00278254BE8
:1009D0001A60401C491E0029F2D1704700BF21490E
:1009E000496920221142FAD01E490860704700B5BB
:1009F000034603E018785B1CFFF7F0FF1878002827
:100A0000F8D100BD0FB400B59BB01DA800906421C3
:100A100001A8009B1C9A03F097FA01A8FFF7E7FFD3
:100A2000002000901BB008BC04B0184701461648CF
:100A300000680E4A1268904211D00D48124A12689E
:100A4000805C087010480068401C0F4A1060104617
:100A50000068402801D3002010600120704700206A
:100A6000FCE700000080004018000010100000109B
:100A7000C80000100C00001080E100E0804004403D
:100A800080800440080000101400001000BF1E49C0
:100A9000496920221142FAD01B490860704710B5FD
:100AA00003460C461846FFF7F1FF10BD00BF17487C
:100AB00000680028FBD00620134948600020134935
:100AC000086007201049486011480078704710B549
:100AD0000446FFF7EBFF0346FFF7D8FF10BD00B554
:100AE00003461846FFF7D2FF00BD01460020C04371
:100AF000704700BFFEE700BF03484069C007C00F52
:100B0000FAD00148006870470080004010000010D3
:100B1000C800001070B504460D46002C1AD1022002
:100B2000F84948600020C8607D21C900F648006887
:100B300003F0B4FB6843F3498861FF200860042098
:100B400048610120486000BFEE484068C007C00F00
:100B5000FAD11BE0012C19D10220EC494860002099
:100B6000C8607D21C900E848006803F097FB68432E
:100B7000E6498861FF200860042048610120486040
:100B800000BFE2484068C007C00FFAD170BDDD4821
:100B90000068C007C00F07D00120DA490860DC48B0
:100BA0000068401CDA490860D648006810210842F5
:100BB00007D01020D3490860D6480068401CD549AA
:100BC00008607047D1480068C007C00F07D00120F7
:100BD000CE490860D0480068401CCF490860CB4827
:100BE00000681021084207D01020C8490860CB488F
:100BF0000068401CC94908607047002803D10121E2
:100C0000C04A516002E00121C04A5160704700288B
:100C100003D10021BB4A516002E00021BB4A516070
:100C200070470146002906D1B64A50680222104397
:100C3000B44A506005E0B54A506802221043B34AF6
:100C40005060704770B504460D46002C47D1B4483B
:100C50000068012149020843B1490860B148006AAF
:100C6000C008C000AF4908620846006A0221084374
:100C7000AC4908620846406AC008C000486208469D
:100C8000406A02210843A74948620846806AC008B2
:100C9000C00088620846806A02210843A149886230
:100CA000A04880380069C008C0009E4980390861AA
:100CB00008460069022108439A49803908610020EA
:100CC00093490860934908608E48856105208D49E5
:100CD000886203204861122000F05BF922E0012CB9
:100CE00020D18F480068A10208438D4908608D48D3
:100CF0004069C008C0008B4948610846406902212C
:100D00000843884948610020834908608349086096
:100D10007E48856105207D49886203204861132053
:100D200000F037F970BD70B504460D46002C12D1A5
:100D30007B48006801214902084379490860002086
:100D4000734908606F48856103206E49486112202D
:100D500000F01FF912E0012C10D171480068A102C7
:100D600008436F49086000206B4908606748856147
:100D7000032066494861132000F00BF970BD30B5BF
:100D800005460C4613462846FFF741FF012D62D168
:100D900063480068A902084361490860B320C000A5
:100DA00018435A49C863D807C00F0ED05D48403871
:100DB000C06BC008C0005B494039C8630846C06BBF
:100DC0000321084357494039C863022003420BD02E
:100DD00054480068C008C0005249086008460068CE
:100DE000032108434F490860042003420BD04D48BB
:100DF0000069C008C0004B4908610846006903212A
:100E0000084348490861082003420BD0454840691F
:100E1000C008C000434948610846406902210843B0
:100E200040494861082018433849403148633E48EA
:100E300004600068354948623B48006840088861A2
:100E4000394800684008C8613748006840080862AF
:100E50000815486155E032480068012149020843FD
:100E60002F490860CB20C00018432649C8630220E0
:100E700003420BD02B48806AC008C0002949886211
:100E80000846806A022108432649886204200342FA
:100E90000ED0244880380069C008C000214980393C
:100EA000086108460069022108431E49803908612B
:100EB000082003420ED01B484038406BC008C000D9
:100EC0001849403948630846406B032108431549D7
:100ED00040394863082018430A49403148631348A1
:100EE00004600068074948621048006888610F483C
:100EF00000684008C8610D4800684008086208158D
:100F0000486130BD004001400800001000800140F1
:100F1000240000102C0000102800001030000010E9
:100F200080800440804004403800001034000010ED
:100F3000002816D0002906D0012907D0022908D0A0
:100F400003290CD108E0164B9A6109E0144BDA61D1
:100F500006E0134B1A6203E0114B5A6200E000BF37
:100F600016E0002906D0012907D0022908D003295C
:100F70000CD108E00B4B9A6109E00A4BDA6106E0FC
:100F8000084B1A6203E0074B5A6200E000BF00BF43
:100F90007047C206D20E01219140034A116070478A
:100FA000008001400040014000E100E0FE49C869C6
:100FB000C107C90F07D0FD490968491CFB4A1160E8
:100FC0000121F94A11620221084207D0F849096853
:100FD000491CF74A11600221F34A116204210842B8
:100FE00004D0F4490968491CF24A11607047F2497B
:100FF000C869C107C90F07D0F0490968491CEF4A01
:1010000011600121EC4A11620221084207D0EC492B
:101010000968491CEA4A11600221E74A1162042169
:10102000084204D0E7490968491CE64A1160704744
:1010300010B50446002C47D1E3484068012108431D
:10104000E1494860E04880300068C9140843DE493F
:101050008031086002204861DC48006AC008C00096
:10106000DA4908620846006A01210843D749086244
:101070000846406AC008C00048620846406A01212C
:101080000843D24948620120D04940310863CF4922
:101090000863CD488030006840210843CA49803148
:1010A0000860CA484038C069C008C000C749403914
:1010B000C861012202210020FFF786FB01220221E4
:1010C0000020FFF76DFB54E0BF484068042108434F
:1010D000BD494860BC48803000680121890408434C
:1010E000B949803108600220C861B848C069C008A9
:1010F000C000B649C8610846C06902210843B34927
:10110000C861B2484030C068C008C000AF49403133
:10111000C8600846C06802210843AC494031C86035
:10112000AA484038806AC008C000A849403988628F
:101130000846806A02210843A44940398862A248CF
:1011400080300068402108439F49803108609F48F3
:1011500040388068C008C0009C494039886001223E
:1011600000210220FFF730FB012200210220FFF7BF
:1011700017FB10BD10B50446002C69D19248406899
:1011800001210843904948608F4880300068C914A5
:1011900008438D4980310860022048618B48006A0D
:1011A000C008C000894908620846006A0121084356
:1011B000864908620846406AC008C000486208467E
:1011C000406A012108438149486202207F49403139
:1011D00008637E49C8607C4880300068402108432D
:1011E00079498031086079480068C008C0007749B3
:1011F0000860012204210220FFF7E6FA01220421FF
:101200000220FFF7CDFA714840380068C008C000DE
:101210006E4940390860012206210220FFF7D4FA06
:10122000012206210220FFF7BBFA68484038006A15
:10123000C008C00065494039086201220721022028
:10124000FFF7C2FA012207210220FFF7A9FA54E0B2
:101250005D484068042108435B4948605A48803033
:101260000068012189040843574980310860022041
:10127000C8615648C069C008C0005449C8610846E2
:10128000C069022108435149C86150484030C068D4
:10129000C008C0004D494031C8600846C0680221FE
:1012A00008434A494031C86048484038806AC0080D
:1012B000C0004649403988620846806A02210843D6
:1012C00042494039886240488030006840210843E4
:1012D0003D49803108603D4840388068C008C00002
:1012E0003A4940398860012200210220FFF76CFA58
:1012F000012200210220FFF753FA10BD70B5054608
:1013000000BF002D16D1324827490860FE20086131
:10131000002404E024488068C6B2601CC4B2082CD3
:10132000F8DB142000F003F902201F494860032075
:10133000486115E026482049086002200861002421
:1013400004E01D488068C6B2601CC4B2082CF8DBFB
:101350000E2000F0ECF80220174948600320486195
:1013600070BDF8B507460D46164600980090002F50
:1013700030D1681E0721090208430B49086008465E
:101380000661002405E008488068C0B20090601C37
:10139000C4B2082CF7DB142000F0C9F8022002497F
:1013A0004860032048612FE0000004404000001026
:1013B000440000103C000010008005404C0000106C
:1013C00050000010480000100080044040400440DD
:1013D00007070000681E07210902084357490860F3
:1013E00008460661002405E054488068C0B20090B9
:1013F000601CC4B2082CF7DB0E2000F098F8022025
:101400004E49486003204861F8BD70B500BF002315
:101410002DE0002815D100BF494DED68122635405A
:10142000022DF9D10D78464EB560491C00BF444DE0
:10143000ED6814263540042DF9D1414DAD68ECB26C
:1014400014E000BF3D4DED6812263540022DF9D164
:101450000D783A4EB560491C00BF384DED68142632
:101460003540042DF9D1354DAD68ECB25B1C93428B
:10147000CFD370BD30B500231FE000280ED1FF246C
:101480002F4DAC6000BF2E4CE46814252C40042C7A
:10149000F9D12B4CA4680C70491C0DE0FF24274D9A
:1014A000AC6000BF254CE46814252C40042CF9D115
:1014B000224CA4680C70491C5B1C9342DDD330BDE8
:1014C0000246002A19D100BF1D48C06812231840E7
:1014D0000228F9D11A48816000BF1948C06810235A
:1014E0001842FAD100BF1648C068142318400428D7
:1014F000F9D11348806880B2704700BF0F48C068B8
:10150000122318400228F9D10C48816000BF0B4813
:10151000C06810231842FAD100BF0848C0681423DD
:1015200018400428F9D10548806880B2E4E7C20673
:10153000D20E01219140034A11607047008005409E
:101540000000044000E100E010B501208007406881
:10155000C1B24807400F75D1CB1003F035FF0CB373
:10156000071523AB393AB464AC7496B30020AC4A87
:101570001060AC48007801229207906028209061AA
:101580000120A94A1060A2E00020A84A1060A548E6
:101590000078012292079060282090610220A24AE0
:1015A000106094E0A048006801280DD19C4A1068A2
:1015B000421C9B4B1A609E4A1268125C01239B07D7
:1015C0009A600420984A10600820C20690617EE06C
:1015D00000BF93480068974A126890420ED2904A22
:1015E0001068421C8E4B1A60914A1268125C0123EB
:1015F0009B079A6004208C4A106010E08E480068B7
:10160000002806D02020420610600320864A106081
:1016100005E00520844A1060102082061060082032
:10162000C206906153E084480068012803D1042079
:101630000207906102E00420020710600820C20641
:10164000906144E03EE0012292079268D3B2774A6B
:101650001068421C754C2260784A12681354204668
:101660000068754A1268904205D204206E4A1060E4
:101670000207106005E005206B4A10600420020795
:1016800090610820C206906121E0012292079268D1
:10169000D3B2664A1068421C644C2260674A1268E2
:1016A00013540520604A1060102082061060082044
:1016B00090610CE000BF0820C206906105205A4AE4
:1016C000106004E000BF0820C206906100BF00BFA8
:1016D00010BD00210020202253061A600BE0524A60
:1016E0001268012A01D1012006E0554A914201D336
:1016F000002001E0491CF2E700BF7047102081067E
:1017000008600820886100BF012080070068102160
:101710000842F9D10120704702464A484068022336
:101720001843484B586047488030006820231843CE
:10173000444B803318604448006B80098001424B61
:1017400018631846006B012318433F4B1863184673
:10175000406B8009800158631846406B0123184391
:10176000394B58636C201B049861FF20813058610D
:101770001861022A01D15007C16000BF0F20012368
:1017800083403248036000BF4020030618600120F8
:10179000704700B5002024490860244908602049AA
:1017A0000860FFF796FF012803D0FFF7A7FF00208E
:1017B00000BD06E01C480068052802D1FFF79EFF27
:1017C00000E0F7E700BF0120F2E770B504460D46E0
:1017D0001646204601210843124908701748056043
:1017E00015480660012013490860FFF7D2FF124830
:1017F00000681149086070BD70B504460D46164674
:10180000084804700A4805600A48066000200A4932
:101810000860FFF7BEFF074800680649086070BD12
:10182000640000107C0000105400001060000010E4
:101830006C000010780000107400001070000010A0
:10184000FFFFFF00008004400040044000E100E092
:1018500030B5024600BFC04B1B680124E40323429D
:10186000F9D17F23BC4C6360531C236000BFBA4B8B
:101870001B680124E4032342F9D118235343B74CD6
:101880001819B54B5B690124A403234208D0B24B5D
:1018900019691C466469B24D2C402404214303E0BD
:1018A000AD4B5B69DB04590D02C0AB4B9B691B0759
:1018B0001B0F08C0A84BDB6908C0A74B1B6A08C0F8
:1018C000A54B5B6A08C0A44B9B6A08C030BD70B5CD
:1018D00000BF32E00120C003064214D09E48803889
:1018E00045684020054205D09E480068401C9D493F
:1018F000086070BD802005421FD09B480068401CD6
:1019000099490860F5E76807400F16D17404640C24
:10191000002C12D0202C10D88F488038406810211D
:1019200088438D4980394860611EC8B2FFF790FF37
:101930000121601E80008D4A115087488038066959
:10194000002EC7D100BFD4E70021002053E0F322CE
:10195000814B803B5A6200291AD100229A62844A44
:10196000DA6200221A63C21DF93292000123DB03FE
:101970001A43794B803B5A63C207D20F02D17D4A8A
:101980009A6322E07C4A744B803B9A6301211CE0FD
:101990007A4A714B803B9A62794ADA6282B21A6360
:1019A000012212058218120C03239B031A436A4B6F
:1019B000803B5A63C207D20F02D16E4A9A6304E099
:1019C0006D4A654B803B9A6300210022624B803B4D
:1019D000DA63614B403B1A605A609A60421C5E4B6E
:1019E000803B1A6200BF5C4A803A126A0123DB0323
:1019F0001A42F8D1401C2028A9D3704710B50446DC
:101A000060484068082108435E4948605D4880306E
:101A100000680121490408435A49803108604E4852
:101A200080380068C007C00F07D14B488038006875
:101A3000012108434849803908600520524908605F
:101A40004548803800684021084343498039086090
:101A50004E48C860002088610846006840218843DD
:101A60003D49803908600846006840084000086029
:101A700000BF394880380068C007C00FF9D1FFF7B0
:101A800063FF00BF0D20012181404148016000BF7C
:101A90003148803800680E2108432F49803908609A
:101AA00010BDF0B503460C46002A01D100BFFEE789
:101AB00002CA002C02D0CE00B00800E0084620CABE
:101AC000082D00D908250126B60731420ED186001F
:101AD00005277F033E43204F803F7E6300263E6301
:101AE0001F4EF61EFE620026BE620CE0060C0727A3
:101AF0007F033E43184F803F7E6386B23E63254E90
:101B0000FE621E4EBE622E07360F2327FF013E43A4
:101B1000114F803FBE6340CAFE6340CA0E4F403F34
:101B20003E6040CA7E601668BE60F7260A4F803F5E
:101B30007E62002C02D09E1C3E6203E05E1C064FBB
:101B4000803F3E6200BF044E803E366A0127FF039D
:101B50003E42F8D1F0BD0000800005408801001031
:101B6000FF5F0000840000108000001008010010DA
:101B7000FC1F00008810000088140000FFFF000018
:101B8000FF9F000000800440800105400123000009
:101B900000E100E0FFDF0000F1B582B02148846978
:101BA00040690190204902984843009001990098AB
:101BB00002F074FB07460199009802F06FFB0D4696
:101BC000002F0ED000260AE000BF16488069A04210
:101BD000FBD300BF13488069A042FBD8761CBE42ED
:101BE000F2D3002D1DD0A54206D200BF0D4880695A
:101BF000611B8842FAD814E0A54205D100BF09480C
:101C00008069A042FBD30CE000BF06488069A04277
:101C1000FBD300BF034881692A1B0198801A8142C7
:101C2000F8D8FEBD00E000E080BB000010B5002247
:101C300003211046FEF7C8FD002204210120FEF713
:101C4000C3FD002208210120FEF7BEFD002209216C
:101C50000120FEF7B9FD00220A210120FEF7B4FDA4
:101C600000220B210120FEF7AFFD10BD10B50821A9
:101C70000120FEF7A0FD002801D1012010BD09219F
:101C80000120FEF798FD002801D10220F6E70A2185
:101C90000120FEF790FD002801D10320EEE70B2183
:101CA0000120FEF788FD002801D10420E6E703218A
:101CB0000020FEF780FD002801D10520DEE7042189
:101CC0000120FEF778FD002801D10620D6E700208C
:101CD000D4E7000010B5012209210220FEF774FDAF
:101CE000012209210220FEF75BFD01220A210220C8
:101CF000FEF76AFD01220A210220FEF751FD0122B2
:101D00000B210220FEF760FD10BD70B50446202CAB
:101D100001DBFF2403E0E006C00E11490C5C002249
:101D200009210220FEF73CFD002511E000220A21D6
:101D30000220FEF735FDE207D20F0B210220FEF74D
:101D40002FFD641001220A210220FEF729FD6D1CDF
:101D5000082DEBD3012209210220FEF721FD70BDE1
:101D60009854000000BF0146421ED0B20029FAD1AB
:101D7000704770B50646002510E000230AE00024F5
:101D800004E0CB20FFF7EEFF601CC4B20F2CF8DBA1
:101D9000581CC3B2832BF2DB681CC5B2B542ECDB26
:101DA00070BD10B50446002205210220FEF7F8FCA4
:101DB000002204210220FEF7F3FC21460020FFF759
:101DC0007FFB012204210220FEF7EAFC012205210B
:101DD0000220FEF7E5FC10BD10B5044601220521E6
:101DE0000220FEF7DDFC002204210220FEF7D8FCD1
:101DF00021460020FFF764FB012204210220FEF7A8
:101E0000CFFC012205210220FEF7CAFC10BD70B5EF
:101E100004462546E117090F091909110901611A3C
:101E2000C8B2FFF7BEFF2546E117090F09190911CE
:101E300008461030FFF7B5FF70BD10B504462020EE
:101E4000FFF7AFFF2046FFF7ACFF10BD70B50546AA
:101E50000C462120FFF7A5FF2846FFF7A2FF2046EA
:101E6000FFF79FFF70BD70B505460C462220FFF7B7
:101E700098FF2846FFF795FF2046FFF792FF70BDB9
:101E800010B504462146402211430846FFF789FF5A
:101E900010BD10B504468120FFF783FF2046FFF7F1
:101EA00080FF10BD10B504468D20FFF77AFF214654
:101EB000102211430846FFF774FF10BD10B5044609
:101EC0002146A02211430846FFF76BFF10BD10B555
:101ED00004462146A42211430846FFF762FF10BDC5
:101EE00010B504462146A62211430846FFF759FFC4
:101EF00010BD10B50446A820FFF753FF2046FFF79A
:101F000050FF10BD10B504462146AE2211430846CD
:101F1000FFF747FF10BD10B504462146B02211431C
:101F20000846FFF73EFF10BD10B504462146C0220B
:101F300011430846FFF735FF10BD10B50446D32006
:101F4000FFF72FFF2046FFF72CFF10BD10B504460A
:101F5000D520FFF726FF2046FFF723FF10BD10B561
:101F60000446D920FFF71DFF2046FFF71AFF10BDDA
:101F700010B50446DA20FFF714FF21460222114370
:101F80000846FFF70EFF10BD10B50446DB20FFF733
:101F900008FF2046FFF705FF10BD10B5E320FFF74F
:101FA00000FF10BD70B50646002410E02046FFF784
:101FB000B2FF0020FFF72BFF002504E03046FFF7BB
:101FC0000BFF681CC5B2802DF8DB601CC4B2082C66
:101FD000ECDB70BD10B50020FFF7E4FF10BDFFB5CE
:101FE00081B00D4616461F462C4615E02046FFF7E9
:101FF00092FF3846FFF70BFF0020009006E00198A3
:10200000FFF7EAFE0098401CC0B200900A990098C1
:102010008842F4DB601CC4B2701C8442E6DB05B06D
:10202000F0BD70B5002413E02046FFF774FF0020D8
:10203000FFF7EDFE002507E05520FFF7CDFEAA20B3
:10204000FFF7CAFE681CC5B2402DF5DB601CC4B2A8
:10205000082CE9DB70BD70B50020FFF75CFF0020A5
:10206000FFF7D5FE002404E00120FFF7B5FE601C59
:10207000C4B2802CF8DB0720FFF74DFF0020FFF7EC
:10208000C6FE002404E08020FFF7A6FE601CC4B258
:10209000802CF8DB002411E02046FFF73CFF0025F0
:1020A00008E02846FFF7B3FEFF20FFF795FE28461D
:1020B0007F30C5B2802DF4DB601CC4B2082CEBDB92
:1020C00070BDFFB581B007460D46012F02D0022F2B
:1020D0000BD104E0A8002818FF49441805E0681E49
:1020E00081004018FD49441800BF00BF0398FFF766
:1020F00012FF0498FFF78BFE002605E02078FFF71B
:102100006BFE641C701CC6B2052EF7DB0020FFF7C7
:1021100063FE05B0F0BDFFB581B007460D461E4613
:102120002C46334660210120039AFFF7CAFF0CE0DA
:10213000217833463846039AFFF7C3FF641CB01D6D
:10214000C6B22078002800D100E0F1E700BF05B05A
:10215000F0BDFFB583B005460E46174602953446DE
:1021600019E02046FFF7D7FE0698FFF750FE002043
:1021700001900AE002990878FFF72EFE0298401CB1
:1021800002900198401CC0B201900C9901988842BD
:10219000F0DB601CC4B2781C8442E2DB07B0F0BD07
:1021A000FFB581B00F4614460498203881004018CE
:1021B000C94945180198FFF7AEFE002F0BD100204A
:1021C000FFF725FE002C03D10020FFF705FE02E0FB
:1021D000FF20FFF701FE791CC8B2FFF718FE0026AA
:1021E0000DE0002C03D12878FFF7F6FD04E02978F4
:1021F000C943C8B2FFF7F0FD6D1C701CC6B2052EB6
:10220000EFDB002C03D10020FFF7E6FD02E0FF200A
:10221000FFF7E2FD05B0F0BDF8B506460F461446DF
:102220000025082E18DA08E023783A462946304679
:10223000FFF7B6FFA81D85B2641C2078002801D0E6
:10224000012000E00020691C89B2802901DA012107
:1022500000E000210842E7D1F8BDFFB581B0154686
:102260001F46A320FFF79DFD0298FFF79AFD284621
:10227000FFF797FD0198002802D0012825D111E031
:1022800000240CE0E0B2FFF7FBFD002603E0C820CD
:10229000FFF768FD761C0A988642F8D3E419AC4231
:1022A000F0D312E000240DE0291BC8B2FFF7E8FDCF
:1022B000002603E0C820FFF755FD761C0A988642E9
:1022C000F8D3E419AC42EFD300BF00BF0020FFF702
:1022D000D7FD05B0F0BDF8B504460D4616461F46BD
:1022E0002146262211430846FFF75BFD0020FFF739
:1022F00058FD2846FFF755FD3846FFF752FD30469A
:10230000FFF74FFD2F20FFF74CFD0698FFF731FD3B
:10231000F8BDF8B504460D4616461F46A320FFF744
:1023200040FD3846FFF73DFD0698FFF73AFD214690
:102330002931C8B2FFF735FD0020FFF732FD2846EE
:10234000FFF72FFD0898FFF72CFD3046FFF729FD1A
:102350000798FFF726FD2F20FFF723FD0998FFF7C9
:1023600008FDF8BD10B52E20FFF71BFD10BD10B500
:102370000120FFF7C7FD00240CE0E0B2FFF789FD64
:10238000C820FFF7EFFCC820FFF7ECFCC820FFF7E0
:10239000E9FC641CD02CF0D310BD10B5D0240DE0A6
:1023A000611EC8B2FFF775FDC820FFF7DBFCC8202F
:1023B000FFF7D8FCC820FFF7D5FC641E002CEFD136
:1023C0000020FFF79FFD10BD10B50446002C02D081
:1023D000012C0ED106E00020FFF794FD0120FFF74D
:1023E00076FD06E00020FFF772FD0120FFF78AFD71
:1023F00000BF00BF10BD0120FFF769FD0BE0012009
:10240000FFF780FD0220FFF7B4FC0020FFF77AFD04
:102410000220FFF7AEFCF2E710B50020FFF772FDD7
:102420008020FFF793FD3F20FFF763FD0020FFF7BB
:1024300084FD0020FFF724FD0020FFF733FD02207C
:10244000FFF7FBFC0120FFF739FD0820FFF76CFDCB
:102450001020FFF78DFDCF20FFF71BFD2220FFF797
:102460007EFD4020FFF790FD0020FFF730FD0020AB
:10247000FFF736FD0020FFF795FD0120FFF742FD35
:1024800010BD10B5012205210220FEF79DF90020A4
:10249000FFF738FD8020FFF759FD3F20FFF729FDAA
:1024A0000020FFF74AFD0020FFF7EAFC0420FFF7B9
:1024B000F9FC0220FFF7C1FC0120FFF7FFFC082018
:1024C000FFF732FD1020FFF753FDCF20FFF7E1FCAF
:1024D000F120FFF744FD03E0885500003D5A00005D
:1024E0004020FFF751FD0020FFF7F1FC0020FFF72F
:1024F000F7FC0020FFF756FD0120FFF703FD10BD9C
:1025000000B587B05AA207CA04AB07C30020FFF783
:1025100049FD302300932823052202215748FFF765
:1025200018FE0520FFF725FCFFF737FF0520FFF712
:1025300020FCFFF71CFF0520FFF71BFC2023009366
:102540000123402200210846FFF787FE0520FFF700
:1025500010FC202300930123402200211846FFF79E
:102560007CFE0520FFF705FCFFF7FCFE0520FFF7CA
:1025700000FC01230022202001930393029200908B
:10258000134611461046FFF7C4FE0520FFF7F1FB86
:10259000012300221F21202003936B4607C313460B
:1025A00011461046FFF7B5FE0520FFF7E2FB0223B8
:1025B00000220121202003936B4607C31346032208
:1025C00000210846FFF7A5FE0520FFF7D2FB0223F6
:1025D00000221F21202003936B4607C313460322CA
:1025E00000210120FFF795FE0520FFF7C2FB022323
:1025F00000220121202003936B4607C313460722C4
:1026000004210120FFF785FE0520FFF7B2FB02231E
:1026100000221F21202003936B4607C31346072285
:1026200004210020FFF775FE0520FFF7A2FBFFF74E
:1026300099FE0520FFF79DFBFF20FFF7B3FC052067
:10264000FFF797FBFFF7EDFC0520FFF792FB00205B
:10265000FFF7A8FCFFF7FFFC0520FFF78AFB252307
:10266000032204A90120FFF756FD07B000BD0000BA
:10267000354E49564953494F4E000000C85400009A
:1026800010B501460C78641EE2B2002305E0CC5C74
:10269000AA2C01D1541CE2B25B1C0C789C42F6D8E7
:1026A000087803E08C5C6040541EE2B2002AF9D145
:1026B00010BDF3B581B00E46802208210020FEF740
:1026C00050FE0120FFF768FA002207210220FEF7E2
:1026D00067F80198FFF7D4FF0090AA210020FEF7C9
:1026E000EFFE0120FFF758FA0024BB210020FEF77F
:1026F000E7FE3055641C0120FFF74EFA00270AE080
:102700000198C15D0020FEF7DBFE3055641C0120FE
:10271000FFF742FA7F1C01980078B842F0D80020F9
:102720000099FEF7CDFE3055641CFF20F530FFF711
:1027300033FA0120307000210846FEF7C1FE012067
:10274000FFF72AFA00210846FEF7BAFEAA2806D0AB
:10275000022208210020FEF704FE0020FEBD012019
:10276000FFF71AFA00210846FEF7AAFEBB2806D09A
:10277000022208210020FEF7F4FD0020EEE70120F0
:10278000FFF70AFA0198407820280ED004DC0128CF
:1027900007D019280FD106E0212808D022280AD115
:1027A00007E00B2509E0052507E0072505E01325CF
:1027B00003E0032501E0072500BF00BF0027002438
:1027C00009E000210846FEF77BFE30550120FFF7A7
:1027D000E3F97F1C641CAF42F3D3012207210220DE
:1027E000FDF7DEFF0120FFF7D7F9022208210020C4
:1027F000FEF7B7FDE0B2B1E7F0B5CDB0022120A8F9
:1028000081850121C185FCA02C90FDA02D90FFA108
:102810002BA8C16078222FA96846FDF723FD2BA8BD
:102820000FC801F09FFAFA20FFF7B6F9002208213D
:102830000220FDF7C9FF75E108210220FDF7BBFF6B
:1028400000285DD1C820FFF7A7F922A9F348FFF7B8
:1028500030FF1F90F2A0FDF73DFD0025002429E088
:102860006C2C21DC22A8435DEEA2042120A801F0FB
:1028700085FB20A80378002221460620FFF790FC64
:10288000A01D84B220A84378002221460620FFF72D
:1028900087FCA01D84B220A8837800222146062050
:1028A000FFF77EFCA01D84B222A8415DDDA0FDF7EC
:1028B00011FD6D1C1F988542D2D322A8FFF7E0FEC0
:1028C000074620A8007A22A9085CB84208D1D7A2FE
:1028D00000210720FFF7A0FCD6A0FDF7FBFC0CE0D1
:1028E000D6A200210620FFF797FCDAA200210720DC
:1028F000FFF792FCD9A0FDF7EDFCC820FFF74CF9DB
:10290000FFF7B4F90646012E06D0022E1CD0052E84
:1029100033D0062E7ED1F6E020A8C08D012806DD3A
:1029200020A8C08D401E81B220A8C18502E020A849
:10293000818DC18578222FA96846FDF793FC2BA8CD
:102940000FC801F00FFAE3E020A8C18D808D81420D
:1029500006DA20A8C08D401C81B220A8C18502E003
:10296000012020A9C88578222FA96846FDF77AFCA6
:102970002BA80FC801F0F6F9CAE020A8C08D0128E5
:1029800002D002287ED15DE0B6A0FDF7A3FC22A90B
:10299000A248FFF78EFE1F90A1A0FDF79BFC00252B
:1029A000002429E06C2C21DC22A8435D9DA2042197
:1029B00020A801F0E3FA20A803780022214606208F
:1029C000FFF7EEFBA01D84B220A843780022214629
:1029D0000620FFF7E5FBA01D84B220A88378002223
:1029E00021460620FFF7DCFBA01D84B222A8415D32
:1029F0008CA0FDF76FFC6D1C1F988542D2D322A8D6
:102A0000FFF73EFE074620A8007A22A9085CB842DC
:102A10000AD100E07BE085A200210720FFF7FCFB44
:102A200084A0FDF757FC0CE084A200210620FFF7EC
:102A3000F3FB88A200210720FFF7EEFB87A0FDF73C
:102A400049FC5EE08AA0FDF745FC22A98C48FFF70F
:102A500030FE1F9072A0FDF73DFC002500242BE006
:102A60006C2C23DC22A8435D6EA2042120A801F077
:102A700085FA20A80378002221460620FFF790FB64
:102A8000A01D00E03CE084B220A84378002221464B
:102A90000620FFF785FBA01D84B220A883780022C2
:102AA00021460620FFF77CFBA01D84B222A8415DD1
:102AB0005CA0FDF70FFC6D1C1F988542D0D322A8A7
:102AC000FFF7DEFD074620A8007A22A9085CB8427D
:102AD00008D156A200210720FFF79EFB55A0FDF765
:102AE000F9FB0CE055A200210620FFF795FB59A247
:102AF00000210720FFF790FB58A0FDF7EBFB00E05B
:102B000000BF00BF04E0002020A9C88500E000BF8E
:102B100000BF002E06D020A8C08D002802D0FA20C9
:102B2000FFF73AF820A8C08D002800D084E64DB009
:102B3000F0BDF0B58DB0FFF74DFA52A20021084666
:102B4000FFF76AFB002208210220FDF73DFEEBE0C3
:102B500008210220FDF72FFE00284CD1C820FFF7E6
:102B60001BF804A94B48FFF7A4FD01902CA0FDF72A
:102B7000B1FB022600240125A4E06C2C25DC04A86E
:102B8000835D28A2042102A801F0F8F969460B7AB6
:102B9000691CC8B200222146FFF702FBA01D84B2C7
:102BA00069464B7A691CC8B200222146FFF7F8FA41
:102BB000A01D84B269468B7A691CC8B200222146E6
:102BC000FFF7EEFAA01D84B276E00024681C85B2FF
:102BD00004A8835D13A2042102A801F0CFF969467D
:102BE0000B7A691CC8B200222146FFF7D9FAA41D4E
:102BF00069464B7A50E08FE052464944000000009D
:102C0000312E52656164204361726400322E577226
:102C10006974652043617264000000006A5C000012
:102C20000D0A000025303258200000004F6B202094
:102C3000000000000D0A4F6B200000002020202023
:102C40002020202020202020202020202020202084
:102C5000200000004661696C000000000D0A46611A
:102C6000696C20000D0A5246494420526561640097
:102C70000D0A5246494420577269746500000000ED
:102C8000745C000052656164204361726420547971
:102C900070650000665C0000691CC8B20022214615
:102CA000FFF77EFAA41D69468B7A691CC8B2002220
:102CB0002146FFF775FAA41D04A8815DFF48FDF7C2
:102CC00009FB761C0198052804D30198401EB042E8
:102CD00000D952E704A8FFF7D3FC07466846007CFA
:102CE00004A9095CB94209D1F5A200210720FFF728
:102CF00093FAF2481030FDF7EDFA0DE0EF4A183282
:102D000000210620FFF788FAEFA200210720FFF735
:102D100083FAEFA0FDF7DEFAFEF7A8FF062803D13D
:102D2000C820FEF739FF00E012E700BF0DB0F0BD8C
:102D3000F0B58DB0FFF74EF9E8A200210846FFF785
:102D40006BFA002208210220FDF73EFD98E00821E1
:102D50000220FDF730FD00287BD1C820FEF71CFFC4
:102D600004A9E348FFF7A5FC0190E2A0FDF7B2FA41
:102D700002260024012552E06C2C25DC04A8835D8A
:102D8000CE4A042102A801F0F9F869460B7A691CC1
:102D9000C8B200222146FFF703FAA01D84B269469B
:102DA0004B7A691CC8B200222146FFF7F9F9A01D31
:102DB00084B269468B7A691CC8B200222146FFF7AB
:102DC000EFF9A01D84B224E00024681C85B204A899
:102DD000835DBA4A042102A801F0D0F869460B7A53
:102DE000691CC8B200222146FFF7DAF9A41D694622
:102DF0004B7A691CC8B200222146FFF7D1F9A41D05
:102E000069468B7A691CC8B200222146FFF7C8F9CF
:102E1000A41D04A8815DA948FDF75CFA761C019801
:102E2000072803D30198401EB042A5D804A8FFF795
:102E300027FC07466846007C04A9095CB94209D111
:102E40009FA200210720FFF7E7F99C481030FDF70B
:102E500041FA0DE0994A183200210620FFF7DCF90B
:102E600099A200210720FFF7D7F999A0FDF732FAC0
:102E7000FEF7FCFE062803D1C820FEF78DFE00E019
:102E800065E700BF0DB0F0BDF0B58DB0FFF7A2F85B
:102E900099A200210846FFF7BFF90022082102206D
:102EA000FDF792FC98E008210220FDF784FC002841
:102EB0007BD1C820FEF770FE04A99348FFF7F9FB09
:102EC00001908CA0FDF706FA02260024012552E0AD
:102ED0006C2C25DC04A8835D784A042102A801F04B
:102EE0004DF869460B7A691CC8B200222146FFF7EB
:102EF00057F9A01D84B269464B7A691CC8B20022FA
:102F00002146FFF74DF9A01D84B269468B7A691CF2
:102F1000C8B200222146FFF743F9A01D84B224E085
:102F20000024681C85B204A8835D644A042102A8B9
:102F300001F024F869460B7A691CC8B200222146C8
:102F4000FFF72EF9A41D69464B7A691CC8B200220E
:102F50002146FFF725F9A41D69468B7A691CC8B282
:102F600000222146FFF71CF9A41D04A8815D5348E7
:102F7000FDF7B0F9761C0198112803D30198401E83
:102F8000B042A5D804A8FFF77BFB07466846007C43
:102F900004A9095CB94209D149A200210720FFF721
:102FA0003BF946481030FDF795F90DE0434A1832D9
:102FB00000210620FFF730F943A200210720FFF788
:102FC0002BF943A0FDF786F9FEF750FE062803D142
:102FD000C820FEF7E1FD00E065E700BF0DB0F0BDE1
:102FE000F0B58DB0FEF7F6FF48A200210846FFF7C6
:102FF00013F94BA200210120FFF70EF9002208214E
:103000000220FDF7E1FBDBE008210220FDF7D3FB06
:10301000002852D1FEF72AFE0528FAD127484C3065
:10302000FDF758F904A94248FFF743FB019031A08E
:10303000FDF750F900260024012590E06C2C25DCDA
:1030400004A8835D1D4A042102A800F097FF694689
:103050000B7A691CC8B200222146FFF7A1F8A01D17
:1030600084B269464B7A691CC8B200222146FFF738
:1030700097F8A01D84B269468B7A691CC8B20022F9
:103080002146FFF78DF8A01D84B262E00024681C81
:1030900085B204A8835D094A042102A800F06EFFEE
:1030A00069460B7A691CC8B200222146FFF778F8FE
:1030B000A41D69464B7A691C3CE079E0242C000091
:1030C0004F6B2020202020004E6F2043617264004F
:1030D0000D0A4E6F204361726420000052656164E6
:1030E0002043617264204E756D62657200000000BD
:1030F000685C00000D0A0000526561642044617440
:103100006120426C6F636B006A5C000057726974E7
:1031100065204461746120426C6F636B00000000A5
:1031200050726573732053656C204B657900000005
:10313000745C0000C8B200222146FFF731F8A41DDC
:1031400069468B7A691CC8B200222146FFF728F82D
:10315000A41D04A8815D1C48FDF7BCF8761C0198ED
:10316000864200D26AE704A8FFF78AFA0746684653
:10317000007C04A9095CB9420AD1134A0832002133
:103180000720FFF749F810481030FDF7A3F80FE0CB
:103190000D4A183200210620FFF73EF80A4A303265
:1031A00000210720FFF738F807483830FDF792F87C
:1031B000FEF75CFD062803D1C820FEF7EDFC00E019
:1031C00022E700BF0DB0F0BD242C000070B504460E
:1031D0000D46002211460220FDF7E2FAE8008022A7
:1031E00010436200104301460120FEF769F90021F7
:1031F0000120FEF765F9C6B2012200210220FDF789
:10320000CFFA304670BD10B502210020FFF7DEFF77
:103210000446A406A40E042C13D100210846FFF78F
:10322000D5FFF849F84A12888854F7480088401CAE
:10323000F549088008460088802807DB00200880C0
:1032400004E000210846FFF7C1FF044602210120E7
:10325000FFF7BCFF0446A406A40E042C13D10021E2
:103260000120FFF7B3FFE949E94A12888854E8488A
:103270000088401CE649088008460088802807DB53
:103280000020088004E000210120FFF79FFF044692
:1032900010BD70B504460D461646002211460220A8
:1032A000FDF77EFAE8006200104301460120FEF7B8
:1032B00007F931460120FEF703F90122002102201F
:1032C000FDF76EFA70BDF8B505460E46BF22032124
:1032D0002846FFF7DEFF02212846FFF777FF044666
:1032E000204610210843024602212846FFF7D1FF5D
:1032F000032211462846FFF7CCFF01212846FFF79D
:1033000065FF0446204610218843024601212846D5
:10331000FFF7BFFF04212846FFF758FF0446204669
:1033200080218843024604212846FFF7B2FF83220A
:1033300003212846FFF7ADFF3146E120000300F0EE
:10334000ADFF84B2E2B200212846FFF7A2FF2212AD
:1033500001212846FFF79DFF032211462846FFF76B
:1033600098FF00212846FFF731FF0022032108467D
:10337000FDF72AFA00231A46032108460093FDF7B9
:103380007DF803210846FDF758F901221146284629
:10339000FFF77FFF00212846FFF718FFF8BD70B543
:1033A00005460C4600BF05212846FFF70FFF2021E8
:1033B0000842F8D0224600212846FFF76AFF70BD78
:1033C00010B5044621460020FFF7E9FF10BD10B5F7
:1033D000044604E021780020FFF7E1FF641C207818
:1033E0000028F7D110BD10B5044621460120FFF793
:1033F000D6FF10BD10B5044604E021780120FFF788
:10340000CEFF641C20780028F7D110BD0246002AA8
:1034100017D1804800887C4B1B88984229D0794876
:103420007C4B1B88C05C08707A480088401C794B34
:10343000188018460088802801DB002018800120B1
:10344000704775480088724B1B88984211D06F48AE
:10345000714B1B88C05C08706F480088401C6E4B25
:10346000188018460088802801DB00201880012081
:10347000E6E70020E4E710B5044621460020FFF708
:10348000C5FF10BD10B5044621460120FFF7BEFF61
:1034900010BD70B5C6B00120FDF76CFE02220821F8
:1034A0000120FDF75EFFE12149020120FFF70BFF3C
:1034B000032120A801820121418258A0259059A012
:1034C00026905EA124A8C16061A10161782228A98B
:1034D0006846FCF7C7FE24A80FC800F043FC00268E
:1034E000FA20FEF759FB16E11FA8FDF79FFA002806
:1034F00003D018A8007FFFF776FF1FA8FFF7C2FFD1
:10350000002867D018A8007FFDF768FA18A8037F85
:10351000002231460120FEF743FEB01D86B2782E10
:1035200000DD0026002404E020A9601C085C08558A
:10353000641C072CF8D318A8007F20A9085520A8E0
:103540000078462821D120A8407841281DD120A804
:1035500080784E2819D120A8C078202815D120A81D
:1035600000794F2811D120A840796E280DD120A8CC
:103570008079202809D120A8C079202805D10122EE
:1035800002210020FDF70CF924E020A8007846284D
:1035900020D120A8407841281CD120A880784E282E
:1035A00018D120A8C078202814D120A800794F284D
:1035B00010D120A8407966280CD120A880796628EF
:1035C00008D120A8C079202804D100220221104669
:1035D000FDF7E6F8FEF74AFB05462846012D06D022
:1035E000022850D005286BD0062872D18DE020A883
:1035F000408A012836DD20A8408A401E81B220A8DA
:10360000418232E0880400108C0000100805001090
:10361000900000108E000010920000105A6967425E
:1036200065650000312E53656E642048656C6C6FD3
:10363000205A69674265652100000000322E5365FB
:103640006E64205475726E206F6E2046414E0000ED
:10365000332E53656E64205475726E206F6666203B
:1036600046414E0020A8018A4182782228A9684656
:10367000FCF7F8FD24A80FC800F074FB0026FA2020
:10368000FEF78AFA46E020A8418A008A814206DADB
:1036900020A8408A401C81B220A8418202E001207B
:1036A00020A94882782228A96846FCF7DBFD24A8D7
:1036B0000FC800F057FB0026FA20FEF76DFA29E04C
:1036C00020A8408A012805D002280AD0032816D154
:1036D0000EE01EE070A0FFF78DFE73A0FCF7FAFD70
:1036E0000EE077A0FFF786FE78A0FCF7F3FD07E079
:1036F0007CA0FFF77FFE7EA0FCF7ECFD00E000BFA2
:1037000000BFFA20FEF748FA04E0002020A9488212
:1037100000E000BF00BF20A8408A002800D0E3E6F8
:1037200046B070BD30B5C1B00120FDF723FD0222C7
:1037300008210120FDF715FEE12149020020FFF7D5
:10374000C2FD032110A881870121C1876EA02090AE
:103750006FA0219074A11FA8C16078A10161782297
:1037600023A96846FCF77EFD1FA80FC800F0FAFAEF
:103770000025FA20FEF710FA86E01EA8FDF756F99C
:10378000002807D018A8007EFFF71AFE18A8007EB0
:10379000FDF724F91EA8FFF76EFE00280FD018A829
:1037A000037E002229460720FEF7FAFCA81D85B2F9
:1037B000782D00DD002518A8007EFDF70FF9FEF733
:1037C00055FA0446012C06D0022C1DD0052C35D00C
:1037D000062C4ED149E010A8C08F012806DD10A8A4
:1037E000C08F401E81B210A8C18702E010A8818F4F
:1037F000C187782223A96846FCF734FD1FA80FC8AB
:1038000000F0B0FA002535E010A8C18F808F81420A
:1038100006DA10A8C08F401C81B210A8C18702E050
:10382000012010A9C887782223A96846FCF71AFD51
:103830001FA80FC800F096FA00251BE010A8C08F43
:10384000012802D002280DD106E042A0FFF7BFFDFB
:1038500044A0FCF73FFD06E048A200210720FEF748
:10386000DBFC00E000BF00BF04E0002010A9C88717
:1038700000E000BF00BF002C06D010A8C08F0028B9
:1038800002D0FA20FEF788F910A8C08F002800D0D7
:1038900073E741B030BD000048656C6C6F205A6919
:1038A00067426565212020000D0A53656E6420483B
:1038B000656C6C6F205A69674265652120200000A5
:1038C00046414E204F6E2020000000000D0A536537
:1038D0006E64205475726E206F6E2046414E20201B
:1038E0000000000046414E204F6666202000000088
:1038F0000D0A53656E64205475726E206F666620E3
:1039000046414E202000000052532D34383500002F
:10391000312E53656E642048656C6C6F2052532DB8
:103920003438352100000000322E5475726E206F3D
:103930006E206F746865722046414E00332E5475B8
:10394000726E206F6666206F746865722046414E05
:103950000000000048656C6C6F2052532D343835E0
:103960002120000053656E643A2048656C6C6F201E
:1039700052532D3438352120000000002020202013
:103980002020202020202020202020202020202037
:103990002000000010B5002819DABB4A03071B0FEE
:1039A000083B9B089B00D2588307DC0EFF23A340F3
:1039B0009A434B071B0E8407E40EA3401A43B24BF5
:1039C0000407240F083CA408A4001A5118E0AF4AC9
:1039D00003231B02D21883089B00D2588307DC0EF6
:1039E000FF23A3409A434B071B0E8407E40EA3401A
:1039F0001A43A64B032424021B198408A4001A515D
:103A000010BD10B5A2480068401CA14908600846D6
:103A100000680146FF39F53913D100220121032046
:103A2000FCF7BEFE9B480078FEF76FF999480078D6
:103A3000401C9849087008460078C006C00E0870FF
:103A40000DE0934800687D21C900884207D3012218
:103A500011460320FCF7A4FE00208D49086010BD2C
:103A6000C0B0FCF791FCFCF7F5FC0320FCF7D6FC9A
:103A700089480069C008C000874908610846006994
:103A80000121084384490861012200210320FCF739
:103A90009BFE012200210320FCF782FE0122114639
:103AA0000320FCF791FE012211460320FCF778FE6B
:103AB000012202210020FCF787FE012202210020C2
:103AC000FCF76EFE002000F021FAFEF703F920203B
:103AD000FEF71BF9FEF7AAF800BF7048704988424C
:103AE00000D90EE06D48401E6E4948610721002054
:103AF000C043FFF74FFF00206A4988610720086133
:103B000000BF002211460320FCF74AFE00220121DB
:103B10000320FCF745FEC820FEF73EF801220021F5
:103B20000320FCF73DFE012211460320FCF738FE7E
:103B30000020FDF71FFB022208210020FDF711FCE9
:103B4000FEF79FFC042110A801870121418756A0A0
:103B50001F9057A020905BA11EA8C1605EA10161CB
:103B600062A14161782222A96846FCF77BFB1EA86E
:103B70000FC800F0F7F8E1204002FCF7BBFE02217D
:103B80001520FFF707FF5EA0FCF7A4FBFA20FEF765
:103B900003F877E0FEF76AF80446012C06D0022C01
:103BA0001CD0052C33D0062C64D156E010A8408FD1
:103BB000012806DD10A8408F401E81B210A8418761
:103BC00002E010A8018F4187782222A96846FCF7FD
:103BD00049FB1EA80FC800F0C5F84CE010A8418FA3
:103BE000008F814206DA10A8408F401C81B210A8D5
:103BF000418702E0012010A94887782222A968465F
:103C0000FCF730FB1EA80FC800F0ACF833E010A89A
:103C1000408F012806D002280AD003280ED004289D
:103C200018D111E039A0FCF755FBFEF782FF12E036
:103C30003BA0FCF74FFBFFF77BF80CE03EA0FCF746
:103C400049FBFFF721F906E040A0FCF743FBFFF733
:103C5000C7F900E000BF00BF0DE0782222A9684646
:103C6000FCF700FB1EA80FC800F07CF824A0FCF7AE
:103C700031FB00E000BF00BF002C02D0FA20FDF7AE
:103C80008BFF30BF86E700001CED00E000E100E0A4
:103C900094000010980000100040044080BB000019
:103CA000FFFFFF0000E000E0524649440000000032
:103CB000312E205265616420436172642054797012
:103CC00065000000322E20526561642043617264F9
:103CD000204E756D62657200332E2052656164203E
:103CE0004461746120426C6F636B0000342E205776
:103CF00072697465204461746120426C6F636B006B
:103D00000D0A0D0A52464944000000000D0A0D0A32
:103D100052656164204361726420547970650000CB
:103D20000D0A0D0A526561642043617264204E756C
:103D30006D626572000000000D0A0D0A5265616433
:103D4000204461746120426C6F636B000D0A0D0AA0
:103D50005772697465204461746120426C6F636BB3
:103D6000000000000FB470B56946498A481E06215C
:103D700000F09EFA85B2681C0621484384B2694669
:103D8000088AA04201DD052606E06946098A481E28
:103D9000062100F08DFA8EB2FEF71CF900210846CC
:103DA000059AFEF739FA5023002266211046FEF7E5
:103DB000F7F9672300226C211046FEF7F1F9202362
:103DC000002272211046FEF7EBF928463130C3B2CB
:103DD000002278211046FEF7E3F9002420E068462F
:103DE000418A062068430019401C81420BD10621FC
:103DF000694309198B0006A9CA58A11CC8B2012140
:103E0000FEF70AFA0AE00621694309198B0006A9A0
:103E1000CA58A11CC8B20021FEF7FEF9601C84B28A
:103E2000B442DCDD70BC08BC04B0184710B52F48A4
:103E30000068401C2D49086001210020FCF755FC5A
:103E40000446002C08D02A480068401C2849086015
:103E500001210020FCF778FC10BD10B52548006852
:103E6000401C2449086001210846FCF73EFC04463A
:103E7000002C08D020480068401C1F490860012120
:103E80000846FCF761FC10BD10B508210220FCF7C4
:103E90002CFC002808D019480068401C174908600D
:103EA00008210220FCF750FC10BD10B502210320B0
:103EB000FCF71BFC00280CD01148806911490860F0
:103EC00011480068401C1049086002210320FCF7DB
:103ED0003BFC03210846FCF708FC002805D0FFF74F
:103EE00092F903210846FCF72FFC10BD9C0000103E
:103EF000A0000010A4000010A8000010B0000010E6
:103F000000E000E0C0000010BC00001010B5044646
:103F1000002C0ED0012C10D17F200949C86001224D
:103F2000084801681046FCF72AFF0120FCF765FEEF
:103F300003E00120FCF76BFE00BF00BF10BD0000D6
:103F400000800140C40000107CB515461A460C00E4
:103F5000009001D00019401E074B7B446946019038
:103F6000284600F0F2FA002C054603D069460020EE
:103F700000F0FEFA28467CBD1D0600000FB47CB59B
:103F80000C0009AA009001D00019401E094B7B4487
:103F900069460190089800F0D8FA002C054603D035
:103FA0006946002000F0E4FA28467CBC08BC04B056
:103FB00018470000E905000070B5044685690068EF
:103FC0003026C10600D42026C00707D070BD626825
:103FD0003046A1689047206A401C20626D1EF6D5CD
:103FE00070BD70B5044685690068C00707D170BD13
:103FF0006268A16820209047206A401C20626D1EE4
:10400000F6D570BDF7B5002675291068009914A57E
:1040100011D000F0F0F9002802DA404211A508E0C2
:10402000009909688A0701D50FA502E0490704D560
:104030000EA5012601E000F0E7F9009F00242437D7
:1040400004E000F085FB30313955641C0028F8D1BC
:1040500033462A462146009800F008FAFEBD0000CB
:10406000000000002D0000002B00000020000000D8
:10407000F8B50F460168090502D5224C7C4402E0E0
:10408000204C7C440E3405460021243508E01607F8
:104090001209360FA65D6E541E07491C32431B09D8
:1040A00016461E43F3D1224604680023240705D593
:1040B000702F06D0002901D01132022300F0D6F96A
:1040C000F8BD10320123F9E770B504460D462146CC
:1040D000106800F099F90023024629462046FFF7B0
:1040E000C7FF70BDD21DD308DB000CCBC0E730B4D6
:1040F000036820241268234303600823C36130BC93
:104100000023B5E70E1C0000F3B50546002081B082
:10411000BEE0E96828468847002876D0252802D0E6
:104120006A68A968B1E05C4F00267F442846E968C8
:1041300088472028044608DB312C06D2381920385D
:104140000078002801D00643F0E7B00701D504202D
:1041500086430020E8610746A8612A2C0BD021463F
:10416000012230390A292BD2002A29D0B80040195F
:104170000090816119E00298BA00521902C8916159
:1041800002902846E9688847012F04461AD1E86959
:10419000002822DA202086431FE000980A21806947
:1041A000484300990019303888612846E9688847F3
:1041B00004460120214630390A2901D20028ECD1D9
:1041C000012F0AD02E2C08D12846E96888470446DA
:1041D000202006437F1C022FBFDBA869002803DADA
:1041E0004042A86101200643F00701D01020864319
:1041F0006C2C0BD0682C09D04C2C38D06A2C36D0C3
:10420000742C34D07A2C32D016E043E0E96827468B
:1042100028468847B842044609D180206C2F00D038
:10422000C000E968064328468847044604E0402069
:104230006C2F00D080000643002C2BD02046413844
:10424000192803D80120C0020643203428462E60D6
:104250002146029A1646FBF771FF002812D001286A
:104260000DD0F61DF008C0000830029051E7002084
:104270004C2CD6D080206A2CD3D00020D1E7361D1C
:10428000029646E76A682046A9689047286A401C5B
:1042900028623EE7286AFEBD881B00000022030951
:1042A0008B422CD3030A8B4211D300239C464EE051
:1042B00003460B433CD4002243088B4231D303090D
:1042C0008B421CD3030A8B4201D394463FE0C309BF
:1042D0008B4201D3CB01C01A524183098B4201D3D7
:1042E0008B01C01A524143098B4201D34B01C01AC2
:1042F000524103098B4201D30B01C01A5241C3083A
:104300008B4201D3CB00C01A524183088B4201D3A8
:104310008B00C01A524143088B4201D34B00C01A94
:104320005241411A00D201465241104670475DE0A9
:10433000CA0F00D04942031000D34042534000222C
:104340009C4603098B422DD3030A8B4212D3FC22D5
:10435000890112BA030A8B420CD3890192118B4254
:1043600008D3890192118B4204D389013AD092116A
:1043700000E08909C3098B4201D3CB01C01A524125
:1043800083098B4201D38B01C01A524143098B42EE
:1043900001D34B01C01A524103098B4201D30B01D7
:1043A000C01A5241C3088B4201D3CB00C01A5241FC
:1043B00083088B4201D38B00C01A5241D9D24308E3
:1043C0008B4201D34B00C01A5241411A00D2014620
:1043D000634652415B10104601D34042002B00D58A
:1043E0004942704763465B1000D3404201B500204C
:1043F000C046C04602BD09684A0501D540B27047B3
:10440000C905FCD500B2704709684A0501D5C0B29C
:104410007047C905FCD580B2704770B505460C469B
:10442000012A05D02868800600D5EA69002302E049
:10443000012305E05B1C934202D2E05C0028F9D125
:10444000A869E618C01AA861286AC0182862284618
:10445000FFF7B2FD04E06A682078A968641C904701
:10446000B442F8D32846FFF7BCFD70BDFFB5044643
:104470000D4681B0243000902168880604D51022B2
:10448000E0699143216000E001200027A84200DD9F
:10449000471B0498A1697A191018081AA0612068AE
:1044A000C00602D42046FFF787FD002608E00398E7
:1044B0006268A168805D9047206A401C761C20627B
:1044C00004988642F3DB2068C0060AD52046FFF731
:1044D00073FD06E06268A16830209047206A401CA6
:1044E000206238467F1E0028F4DC07E000986268EE
:1044F000A168405D9047206A401C206228466D1EDE
:104500000028F3DC2046FFF76CFD21680220090635
:1045100000D4012005B0F0BD11680268006A53059F
:1045200001D508700AE0D30501D5088006E013061E
:1045300002D5C21705C101E052060860012070478C
:1045400001694A1C02610878704700B58FB002917A
:104550000021059105490193794403911146049086
:104560006846FFF7D1FD0FB000BD0000E5FFFFFF7B
:104570000A681070521C0A6070474B680A689A42B9
:1045800002D2531C0B60107070470000084B70B5CE
:104590000C467B44FFF7D9FF05462046FCF7A5FAF9
:1045A000002802D00020C04370BD284670BD000026
:1045B00009C5FFFFF7B50446154686B02B49794477
:1045C000002703C93E460090019111E007986A4612
:1045D0007100415A02A800F03DFB411C07D0216840
:1045E000890603D5E269391891420ED83F18761C26
:1045F0002068800602D5E069B84206DDAE42E5DB00
:1046000007987100405A0028E0D1A069C01BA06142
:104610002046FFF7D1FC154979445A3903C9009067
:104620000020019116E041006A460798415A02A80D
:1046300000F010FB0590401C0AD0002505E06268E0
:1046400002A8A168405D90476D1C05988542F6D38D
:104650000498401CB0420490E5DB206AC019206237
:104660002046FFF7BEFC09B0F0BD000006170000B1
:10467000F7B5D21D0026D20815A5D200F52905CA26
:1046800011D0002A05DA00214042914111A50A46C5
:1046900008E0009909688B0701D50FA502E04907DA
:1046A00001D50EA501261146009F0024243704E001
:1046B00000F062F830323A55641C02460A43F7D1E2
:1046C00033462A4621460098FFF7D0FEFEBD000083
:1046D000000000002D0000002B0000002000000062
:1046E00070B504460021243408E05507D2086D0F48
:1046F000303565545D07491C2A43DB0815461D43C8
:10470000F3D10468002310A2250708D520252C40EA
:104710000C4304D0C46901230CA2641EC461FFF7DA
:10472000A5FE70BD10B5044621461068FFF76CFE6B
:10473000002302462046FFF7D3FF10BDD21DD1084B
:10474000C9000CC9CCE700000000000030000000E8
:1047500001468008081A02091018020A1018020CF3
:104760001018C008820012185200891A01E00A3994
:10477000401C0A29FBD270470B4670B502461D4605
:104780008907800808439C08111AA5410C092807CD
:104790000443280964186841250A01060D43010AEB
:1047A0002C194141200C0D0428430D0C00194D41DA
:1047B000002140194D41C00869070843E908840FEA
:1047C0008D002543840024184D4124196D41121B8E
:1047D000AB4107E00925ED432C1152196341002438
:1047E000401C61411C460A250026551BB441F1D2EC
:1047F00070BD00007047FFB50C461E468DB003CA61
:10480000069007914F007D0D00D16D1E00210846D6
:104810000020C0460321079A89050840002A03DAD0
:104820008200801840080840800D0128089002DDB1
:104830000020C0430890069807432CD0EB48EC4971
:10484000281848430714089840420B9016980028EF
:1048500039D075420B9A291E00DC089A002900DA2B
:10486000694203A800F086FA0699079800F0E8FA72
:1048700001910146DF4802920918002D009125DDC3
:10488000DC4903984942401803906846089A03A9F6
:1048900000F002FD22E01698012802D0002030210D
:1048A00004E00020F24305E02154401CB042FBDB51
:1048B00030460022169B002121540D998B600A601E
:1048C000486011B0F0BDBD1B6D1CC3E7039908180B
:1048D00003906846089A03A900F0ACFC009000041D
:1048E0000292000C019103D00020C043410800E077
:1048F0001046169A002A03D00022009215461EE0A8
:10490000751E05D4FFF738FF303262556D1EF9D59C
:1049100001220843099602D000227F1C04E020787F
:10492000302801D100227F1E002A0A978ED01EE077
:10493000112D07DAFFF720FF303262556D1C024659
:104940000A43F5D108430FD10021681E05E0235C1E
:10495000625C6354491C2254401E8142F7DBA81B51
:10496000401E09950A9002E0009800280AD0099A92
:1049700016990020A0540D980A9B099A0360426082
:1049800081609EE71126002016905FE7D21DF0B5EA
:104990000D460446D10895B0C90003C91090119185
:1049A00000F020FD02461198C10F2D20002906D1EC
:1049B00021682B208B0702D44807C00F4001032A2F
:1049C0000F9001D0072A05DB03462946204600F058
:1049D0008FF908E12068800601D5E76900E0062725
:1049E00028461121652D04D0662810D0672D64D18A
:1049F00028E00023112F009300DA791C0B4610AA3F
:104A000003A90BA8FFF7F7FE00267D1C3EE001205E
:104A10000123C0070E9010AA03A90BA800933B46E0
:104A2000FFF7E9FE0D980C9D0026002802D10B9996
:104A3000781C0D18781B02D44642761E7D1CE81B9C
:104A400000903AE0012F00DA01270023112F009394
:104A500000DC39460B4610AA03A90BA8FFF7CBFED2
:104A600020683D46002600070BD40C98A84200DAC7
:104A7000054603A8012D04DD41192039C97F3029DD
:104A800008D00B98B84201DA011D05DA0120009028
:104A90000B9811E06D1EEDE7002802DC86192D1A37
:104AA00004E0401CA84201DD0B9D6D1C0B98801B8F
:104AB000401C00900120C0070E902068000705D41C
:104AC0000098A84202DB0020C04300906946002005
:104AD000C8720E98012102AF0337C907884224D05B
:104AE000022012902B2013900E9800280BDA4042DF
:104AF0000E902D20139006E00E98FFF729FE30311E
:104B00007F1E0E9039701299481E00291290F3DC16
:104B10000E980028F0D113987F1E38702168452028
:104B2000090500D465207F1E387001A8C01BC01D78
:104B30000E900F98002800D0012041190098C0174E
:104B400009180E980818A169081A401EA06120686B
:104B5000C00602D42046FFF72FFA0F98002805D090
:104B60006268A1689047206A401C20622068C006E5
:104B700024D52046FFF720FA20E0002E07DB0C9812
:104B8000B04204DD03A86268805DA16802E062684B
:104B9000A16830209047206A761C401C2062009853
:104BA000401E00900AD100F09FF8C068626801685A
:104BB000405CA1689047206A401C206228466D1E18
:104BC0000028DADC07E062683878A1687F1C90472B
:104BD000206A401C20620E99481E00290E90F2DCCB
:104BE0002046FFF7FEF915B00220F0BD01FCFFFFE3
:104BF000104D0000E1DFFFFF10B54369002B02D02C
:104C0000C046C04601E0FFF708FC012010BD126855
:104C1000014624310A7000224A700122ECE7116833
:104C20000022D243E8E710B54369002B02D0C0460A
:104C3000C04601E0FFF7BEFC012010BD126801462E
:104C4000243182840022C2840122ECE71168002210
:104C5000D243E8E770B505460C46164600F03CF82E
:104C60000368FF200230C05C012807D0FF2C10D859
:104C7000185D00280DD001202C7070BDFF20324639
:104C800021460830C0581B182846FF330833984780
:104C900070BD0020C04370BD754600F03BFBAE46C2
:104CA000050069465346C008C000854618B020B5C7
:104CB000FBF700FB60BC00274908B6460026C0C5CC
:104CC000C0C5C0C5C0C5C0C5C0C5C0C5C0C5403DC4
:104CD00049008D467047000010B500F005F8001D32
:104CE00010BD00BF5907000000487047A80500101C
:104CF000F8B504461F4601230068DB02032601467F
:104D00001840072A04DB002816A505D116A503E0E4
:104D1000002816A500D116A5102081432160A069A6
:104D2000C01E002FA06101D0401EA0612046FFF7E9
:104D300043F9002F09D038466268A1689047206A7D
:104D4000401C2062C01C206206E0206AFAE762680C
:104D50002878A1686D1C9047761EF8D22046FFF790
:104D600040F9F8BD4E414E006E616E00494E46005E
:104D7000696E6600F7B516468AB0304878446C46CE
:104D800003467C33C06F5A689B680DC42B4B7B4431
:104D90006E33083303AC0DCB0DC43720C0010818A7
:104DA00037211B30FFF784FA05460C46803D1B3C3B
:104DB00002D56442012000E00020002709900FE0A6
:104DC000E0070BD00C201D497843794432464E3918
:104DD0004118684600F02EFA6B4607C364107F1C2A
:104DE000002CEDD1154F7F442E3F16E0E80712D07E
:104DF0002001C01901460EC9069108930792C068A8
:104E0000F04201D198190890324606A903A800F093
:104E100011FA03AB07C36D10641C002DE6D13246B6
:104E200069460998002803A802D000F035FA01E08D
:104E300000F000FA0A9B07C30DB0F0BD500F000050
:104E4000034640000A4610B5400D0BD00121C907AA
:104E50000F24A40200191C0364082143540D2143AC
:104E6000D20207E000210120F2E7D40F49002143DC
:104E70005200401E0029F8DADB0FDB07184310BD93
:104E8000FFB50C46154685B04868516800F084FAB5
:104E900000910190A068A96800F07EFA0291039049
:104EA000A068696800F078FA029A01261218029246
:104EB0003246029B834200D3002201988B18C0180F
:104EC000002A01903046019A02D08A4203D901E0BB
:104ED0008A4200D300200099081800906068A968F1
:104EE00000F05AFA029A121802923246029B83424A
:104EF00000D3002201988B18C018002A019002D01C
:104F0000884203D901E0884200D300260098801926
:104F1000009020682968400049004008490840186E
:104F2000F649471814E001994000C90F0843009062
:104F3000019802994000C90F084301900298039913
:104F40004000C90F08430290039840007F1E039061
:104F500000980028E7DA0898002801D0E84E00E021
:104F60000026B74228DAF71BF806C00E15D0029BC0
:104F70002021091A039A8B401A430392029A019B3B
:104F8000C2408B401A430292019A009BC2408B4060
:104F900000991A430192C14000917A110BD06B46DF
:104FA0000320811A01D5002101E0890059588700AA
:104FB000401ED951F5D5374603980299002800D0F4
:104FC0000120014308980291002808460CD00028CF
:104FD00000D001200199019A490508430121D20A14
:104FE000C902D202019200E001210E9B0122D207E8
:104FF000012B02D0002B03D013E0002807D116E0CC
:10500000904204D890420CD1019B0B4209D0019BE5
:105010005918019105D10099491C009101D17F1CBB
:105020000092002803D0102108460020C0462068C6
:105030002968019B009A4840C10F0598C907394368
:105040000EC009B0F0BDFFB587B0099A089808995D
:10505000099B5268406889689B6803920022174642
:105060009446089A9E4612685300099A5B08126893
:10507000520052089A1AA34BD4180A9B3522002BCF
:1050800000D1402206920022012315460492DB073C
:10509000059324E0002D05D175460346039E4D1B64
:1050A000B34109D375466646039B491B049D98414D
:1050B000059B7519AC465F4163463B4308D0059B91
:1050C000049EDD0776082E435B080496059301E0F5
:1050D000641E521EC50FED0749184041521C069B25
:1050E0009A42D7DB002D04D17546039A6B1A824190
:1050F00001D203200CE0039A0B466B40424013435D
:1051000001D1022004E0014301D0012000E0002091
:10511000614601910021009702910A99002905D06A
:10512000614640020143764B019102E08007002373
:1051300002909C423ADA1A1BD006C00E15D0029D8E
:105140002021019C091AC5408C402543029C8C40BB
:1051500000D001242543019C02953D46C4408D406A
:1051600039462C43C1400194009154111DD06D4625
:105170000221002202290CD10320001B07E0002895
:1051800004DB8600AE59002E00D00122401C03280B
:10519000F5DB081B02D588002A5004E0800028585F
:1051A00010438A00A850491EE3D51C460A980028DF
:1051B00002980CD0002800D001200199019A4905DD
:1051C00008430121D20AC902D202019200E0012162
:1051D000109B0122D207012B02D0002B03D013E039
:1051E000002807D116E0904204D890420CD1019BD0
:1051F0000B4209D0019B5918019105D10099491C16
:10520000009101D1641C0092002803D010210846AF
:105210000020C04608980999009B0068096848402A
:105220000199C20F0798D207224343600260816050
:105230000BB0F0BD1FB5002300920A46014601A83D
:10524000FFF71EFE01A807C804B010BD1FB501235B
:1052500000920A46014601A8FFF712FE01980F22AC
:105260009202C10F4000C9074008801A01900298BD
:10527000002801DB002001900298400040080290C5
:105280000198029A0005D20A104308430299039A32
:105290004905D20A1143D7E71FB5002300920A46F9
:1052A000014601A8FFF7CFFE01A807C8CCE71FB54C
:1052B000012300920A46014601A8FFF7C4FE0198A7
:1052C0000F229202C10F4000C9074008801A0190C6
:1052D0000298002801DB002001900298400040085D
:1052E00002900198029A0005D20A104308430299DD
:1052F000039A4905D20A1143A6E7000002C0FFFF46
:10530000013C0000FF3F00000446C046C046204666
:10531000FAF7A2FF0048704788050010024670B5F2
:105320000A43920724D11B4DEE0104C808C9541B3F
:105330009443344017D0D0B2D9B2401A2106014369
:1053400010D190B299B2401A210401430AD110023F
:105350001902000A090A401A2102014302D1100E63
:10536000190E401A70BD9A42DFD010BA19BAF8E788
:1053700002780B78401C491C002A09D09A4207D1B8
:1053800002780B78401C491C002A01D09A42EFD0C9
:10539000D01A70BD01010101F8B5040C8BB226468C
:1053A00082B25E43104658430D0C370C3604002180
:1053B0008019164679416E43370C3604801926460B
:1053C00079416E438919F8BD30B47446641E25785E
:1053D000641CAB4204D3635D5B00E31830BC184728
:1053E0001D46F8E74900CA02104300D004204A0DC8
:1053F00001D001221043054A490D914201D10221F9
:105400000843012800D1052070470000FF07000075
:1054100010B500290AD00878002807D0054878443C
:10542000FFF77CFF002801D0002010BD024878441F
:1054300010BD0000660900005E09000010B50029DB
:105440000AD00878002807D005487844FFF766FF9F
:10545000002801D0002010BD0248784410BD000093
:10546000560900004E09000003B4024878448446FF
:1054700003BC60471DF5FFFF000000500000015015
:1054800000000250000003500000005000000150D6
:105490000000025000000350487BD07063644479E0
:1054A00040604146CC52C4C5083B903023240439A7
:1054B000002001068C12848500000050000001507D
:1054C00000000250000003500000FCFCFCFC000047
:1054D00000FCFCFCFC000000E0E0E0E060E0E0E05C
:1054E000C0000000ECECECEC000000043CFCFCF024
:1054F0008080F0FCFC3C04000000070F1F1F1C18FC
:105500001C1F1F0F070000001F1F1F1F001F1F1F52
:105510001F0000001F1F1F1F0000000000010F1FC1
:105520001F1F1F0F010000000080E0E0F0703070CE
:10553000F0E0E080000000F0F0F0F000000000007B
:105540000000F0F0F0F03030303030000000F0F0CB
:10555000F0F03070F0F0E080000F3F3F7F7060703F
:105560007F3F3F0F0000007F7F7F7F6060606000B3
:1055700000007F7F7F7F63636363600000007F7F45
:105580007F7F60707F7F3F0F000000000000004FB2
:1055900000000007000700147F147F14242A7F2ACC
:1055A0001223130864623649552250000503000097
:1055B000001C2241000041221C0014083E0814086F
:1055C000083E08080050300000080808080800607D
:1055D00060000020100804023E5149453E00427F11
:1055E000400042615149462141454B311814127F18
:1055F0001027454545393C4A4949300171090503A1
:105600003649494936064949291E00363600000008
:1056100056360000081422410014141414140041DA
:105620002214080201510906324979413E7E1111C6
:10563000117E7F494949363E414141227F41412205
:105640001C7F494949417F090909013E4149497A7D
:105650007F0808087F00417F41002040413F017FD3
:10566000081422417F404040407F020C027F7F04AB
:1056700008107F3E4141413E7F090909063E4151E4
:10568000215E7F09192946464949493101017F01B7
:10569000013F4040403F1F2040201F3F4038403FD7
:1056A00063140814630708700807615149454300F3
:1056B0007F41410002040810200041417F000402A4
:1056C00001020440404040400102040000205454C4
:1056D00054787F484444383844444420384444484B
:1056E0007F3854545418087E090102064949493F3D
:1056F0007F0804047800447D40002040443D007F42
:105700001028440000417F40007C0418047C7C0881
:1057100004047838444444387C14141408081414DD
:10572000187C7C080404084854545420043F444026
:10573000203C4040207C1C2040201C3C4030403C11
:1057400044281028440C5050503C4464544C4400AD
:105750000836410000007F000000413608000201C9
:105760000204023E5555412200000000000000796D
:1057700000001824742E24487E4942405D222222D3
:105780005D15167C161500007700000A5555552842
:105790000001000100000A0D0A0408142A14220462
:1057A0000404041C000808080001010101010002B2
:1057B00005020044445F444400000402017E2020AE
:1057C000103E060F7F007F00181800000040502098
:1057D00000000A0D0A0022142A14081708342A7D32
:1057E0001708046A593048454020702926287070EF
:1057F00028262970702A252A707229262970702976
:10580000242970702A2D2A707E117F49490E51512A
:1058100071117C555654447C555654447C5655560B
:10582000447C5554554400457E440000447E450068
:1058300000467D460000457C45007F4949413E7C4D
:105840000A11227D384546443838444645383846A2
:1058500045463838464546393845444538221408C7
:1058600014222E5149453A3C4142403C3C40424181
:105870003C3C4241423C3C4140413C0C1062110CDA
:105880007F1212120C403E014936205556547820A2
:1058900054565578205655567820555655782055EB
:1058A000545578205657567824547854580C5252F0
:1058B000721338555654183854565518385655568C
:1058C00018385554551800497A400000487A41006C
:1058D000004A794200004A784200314A4E4A307A02
:1058E000110A097030494A483030484A4930304A34
:1058F000494A30304A494A31304A484A3008082A31
:1059000008083864544C38384142207838404221E5
:1059100078384241227838424022780C5052513C2B
:105920007E141414080C5150513C1E0909295E08BC
:105930001515354E384446452030484A49203845EB
:1059400046452030494A49207C454645382050503C
:105950007C031F151535510E151535467C555655CA
:1059600044385556551800447C40007F4844404018
:1059700000497F44007C0812217C78100A09707C61
:105980000912217C78110A09703847444738304B96
:10599000484B303E417F494938443854587C1516AD
:1059A000354878110A091048545655202048565554
:1059B000204855565520204956552004057E05049B
:1059C000083C4822013C4245423C38424522783C52
:1059D0004340433C38434023780C1160110C44662B
:1059E000554C44486A5948004464554C4448685AE8
:1059F00048004465564D4448695A49000002010276
:105A00000000010201000001010100010202010089
:105A10000000010000000205020002010201007FF7
:105A200005153A503E55554122181408140C444AA5
:105A30004A515151514A4A4474424142747E1111B3
:105A4000117E7F494949367F02010103704E414E64
:105A5000707F4949494161514945437F0808087FA2
:105A60003E4949493E00417F41007F081422417070
:105A70000E010E707F020C027F7F0408107F635DB1
:105A8000495D633E4141413E413F013F417F09093C
:105A90000906635549414101017F010103017E016E
:105AA0000308557F5508631408146307487F4807A7
:105AB0005E6101615E384448304C7C2A2A2A1444D5
:105AC00038040408304B4D593028545444200018F1
:105AD0005552223E0402027C3C4A4A4A3C003C4069
