:020000040000FA
:06000000020A6B0201C8B8
:03002B00021F159C
:030033000206CBF7
:030043000208C6EA
:03004B0002076445
:0300530002011B8C
:03005B0002077326
:0300630002077F12
:03006B000206B1D9
:10008300020164010101010503010F10FEFF0300DA
:100093000300030003000300030003000300030045
:1000A30005000A00140028004F009E0000003E12C5
:1000B3003E123E123E12FA10F4103E12AA1F000026
:1000C30000000C20000000000C0000000C000100E8
:1000D30000BE1300000000000054140000000000E4
:1000E3000000000D05FF0102005211000000C511C0
:1000F30064000202000800000501071E02051E023B
:100103000A03B80B803E01301202020606060606F9
:100113000014141414140006C0E074F21203DAE598
:10012300A7F8E5A1F95854106008121B0253A1EF78
:10013300802AE8A2E0C0D0E9A2E092F01209A81553
:100143008182F05017906198E0F89014D1E0C39841
:10015300A2D265D0335002E8F053A1FE7F0102041E
:1001630091C0E074F21203DA9061A4E0F8759B0089
:10017300E59158540860087591F7121B44802AE5ED
:100183009158541060087591EF121B4A801BE8A226
:10019300E0C0D0E591A2E092F01209A8158182F0A7
:1001A3005007E0C2E0F0121C6A9061A3E0F8E5E9B1
:1001B300585404600E121C4075E9FB906193E0A251
:1001C300E640F28097C0E074F21203DA9061A5E092
:1001D300F8E5BF585404600653BFFB121C820201AA
:1001E3005FC3E498F8E499F91202258026C3E49AE0
:1001F300FAE49BFBE920E7E9120225E498F8E49985
:10020300F922C3E498F8E499F9120225E498F8E492
:1002130099F9C3E49AFAE49BFB22EB20E7CFE920A8
:10022300E7E0B90010BB0008E88AF084F8AAF022DE
:10023300E4FBC8FA22EB70227B10C833C8C933C968
:10024300335007C39AC3DBF280069A50012ADBEAD4
:10025300C833F4C8C933F4C9FA2275F008E4C833C3
:10026300C8C933C933C99AC99B5004C92AC93BD5E4
:10027300F0ECFBC833F4C8E4C9FA22080808EAC062
:10028300E0EBC0E086F0E7A4FA180986F0E7A42AB9
:10029300FA180986F0E7A42AFA180986F0E7A42ACF
:1002A300FA1986F0E7A4FBE5F02AFA190886F0E7C5
:1002B300A42BFBE5F03AFA190886F0E7A42BFBE53B
:1002C300F03AFA18180986F0E7A4C5F02BFBE43AD4
:1002D300FA1908E7C5F0C6A426F6E5F03BFBE43AB5
:1002E300FA1886F0E7A4F6E5F00826F6E43B08F6EC
:1002F300E43A08F6D0E0FBD0E0FA22E4CFC0E0E431
:10030300CEC0E0E4CDC0E0E4CCC0E075F020C3E6AD
:1003130033F608E633F608E633F608E633F618183C
:1003230018EC33FCED33FDEE33FEEF33FFC3EC97F4
:1003330009ED9709EE9709EF97191919400FFFEC8B
:1003430097FC09ED97FD09EE97FE191906D5F0BE46
:10035300ECF709EDF709EEF709EFF7191919D0E0F2
:10036300FCD0E0FDD0E0FED0E0FF222518C582C01E
:10037300E0E51934FFC583C0E0E518C3958224F88E
:1003830010AF0885831985821880088583198582B3
:1003930018D2AFCEF0A3E520F0A37808E608F0A3C7
:1003A300DEFAEFF0A3E58124FAF8E608F0A3E60805
:1003B300F0A3E608F0A30808E608F0A3E608F0A314
:1003C30015811581D0E0FED0E0F8158115811581E6
:1003D300E8C0E0EEC0E022C0D02518C582C0E0E549
:1003E3001934FFC583C0E0E518C3958224F310AF29
:1003F300088583198582188008858319858218D218
:10040300AFC8F0A3E9F0A3EAF0A3EBF0A37908E700
:1004130009F0A3D8FAECF0A3EDF0A3EEF0A3EFF00C
:10042300A3D0E0F0A3D0E0F0A3D0E0F0A3E520F068
:10043300A3E5F0F0A322120ACDB9000302047BE482
:1004430090030178F279178002F0A3D8FCD9FA90CF
:1004530019F2AA82AB83900086789679018015E41D
:1004630093A3AC82AD838A828B83F0A3AA82AB83EE
:100473008C828D83D8E9D9E775822A7583A97403A1
:1004830012053575821075831F74001205358519A1
:1004930083851882E0C0E0A3E0F9A3E0FAA3E0FBC0
:1004A300A37808E0F608A3DFFAE0FCA3E0FDA3E0ED
:1004B300FEA3E0FFA3E0C0E0A3E0C0E0A3E0F5D02B
:1004C300A3E0F520A3E0A3F5F010AF088583198519
:1004D30082188008858319858218D2AFD082D08391
:1004E300D0E0F8D0E032D083D082ECC0E0EDC0E0C1
:1004F300E493A3FCE493A3FDED4C600D12060BEC17
:1005030024FFFCED34FFFD80EFE493A3FCE493A30D
:10051300FDED4C600D12070FEC24FFFCED34FFFDE5
:1005230080EFD0E0FDD0E0FCE493A3C0E0E493C00F
:10053300E022C0F0F5F0E59F5407C0E0E59F54F8D2
:1005430045F0D0F0F59FE473859FF053F0F8D0E0C9
:1005530045F0F59F22D083D082E59F5407C0E0E4A5
:1005630093C0E0740193C0E07402935407C0F0F5A4
:10057300F0E59F54F845F0D0F0F59F22D083D08268
:10058300E9C0E0E493A3C386F0C5F095F0F908E46D
:1005930093A386F0C5F095F0700BE493A3C3994041
:1005A30005E9048002A3E475F002A42582F582E53F
:1005B300F03583F583D0E0F9E493A3C0E0E493C07E
:1005C300E022851983851882E0A3FEE0A3F5207855
:1005D30008E0A3F608DFFAE0A3FFE0A3C0E0E0A38E
:1005E300C0E0E0A3C0E0E0A3C0E0E0A3C0E010AF40
:1005F300088582188583198008858218858319D216
:10060300AFD083D08202054BC0E0C3E49396087455
:1006130001939618400FE49366700808740193667B
:100623001870007019A3A3C3E493960874019396FA
:1006330018A3A3400DD0E0D0E0D0E0020525A3A38A
:10064300A3A3A3A3D0E022D083D082C5F0E493A3D5
:10065300C5F0C395F0F5F0E493A3C395F04005E529
:10066300F0048001E475F002A42582F582E5F035FB
:1006730083F583E493A3C0E0E493C0E02274048091
:100683000474028000CCC0E0EDC0E0E518C39CCC4C
:10069300AD1950011D10AF068C188D1980068C18EA
:1006A3008D19D2AF1207ADD0E0FDD0E0FC22C0E03F
:1006B30074F21203DAE589A2E150031219B87589BD
:1006C30000C2C57F01020491C0E074F21203DAE5AF
:1006D3008BA2E050031219B8758B00C2E880E47452
:1006E300028000CCC0E0EDC0E0E518C39CCCAD199E
:1006F30050011D10AF068C188D1980068C188D19AA
:10070300D2AF12078BD0E0FDD0E0FC22C0E0C0F0F6
:1007130088F0E4936670080874019366187000A863
:10072300F0A3A3700BD0F0D0E0D0E0D0E002052519
:10073300A3A3D0F0D0E022D083D082CCC0E0E49356
:10074300A360061207ED1470FAE493A3600612087F
:10075300F31470FAD0E0FCE493A3C0E0E493C0E0A8
:1007630022C0E074F21203DA121A427F01020491EA
:10077300C0E074F21203DA121A4880EFC0E074F298
:100783001203DA121A4E80E3CAC0E0E493A3C582CF
:10079300CCC582C583CDC583F0A3C582CCC582C534
:1007A30083CDC583DAE5D0E0CA22CAC0E0E0A3C5A1
:1007B30082CCC582C583CDC583F0A3C582CCC58257
:1007C300C583CDC583DAE6D0E0CA227009080808DC
:1007D300226016181818C6C333C608C633C608C61F
:1007E30033C608C633C6D5E0EA22C0E0E493A3D3F8
:1007F3009C5010E493A3C39C400AD0E0D0E0D0E027
:10080300020757A3A3A3D0E022C008C3E096F508CC
:1008130008A3E096420808A3E096420808A3E096DE
:1008230045087001D3D008222518F58210AF08F5CA
:1008330018400215198008F51840021519D2AF8522
:100843001983227404800A7403800674028002747C
:1008530001C0E0F40412082BD0E0120AA822BB0165
:1008630002E722C082C08389828A83BB0003E080BF
:1008730002E493D083D08222C0D0251810AF08F5AC
:1008830018500205198008F51850020519D2AFD087
:10089300D0226016080808C6C313C618C613C618A4
:1008A300C613C618C613C6D5E0EA22C3E0C696F639
:1008B30008A3E0C696F608A3E0C696F608A3E0C62A
:1008C30096F622C0E074F21203DAC2C0E5D1A2E4C4
:1008D3005003121A787F01020491251810AF08F50E
:1008E30018400215198008F51840021519D2AF22D5
:1008F300C0E0E493A36C7009D0E0D0E0D0E002073D
:1009030057A3A3D0E022C3E09608A3E09608A3E090
:100913009608A3E096A2D265D03322C3E7960809CE
:10092300E7960809E7960809E796A2D265D033222D
:10093300E066701008A3E066700A08A3E06670041E
:1009430008A3E06622C3E096F008A3E096F008A3AC
:10095300E096F008A3E096F022E627F60809E637CA
:10096300F60809E637F60809E637F622E026F60820
:10097300A3E036F608A3E036F608A3E036F622E055
:1009830026F008A3E036F008A3E036F008A3E0362B
:10099300F022E657F60809E657F60809E657F6087F
:1009A30009E657F622C0E0E8C0E0E58124FCF8E65A
:1009B300A2E7D0E0F8D0E022700422600D18C6C38D
:1009C30033C608C633C6D5E0F41822E056F608A3AA
:1009D300E056F608A3E056F608A3E056F622E056E2
:1009E300F008A3E056F008A3E056F008A3E056F0A1
:1009F30022E647F60809E647F60809E647F6080936
:100A0300E647F622E046F008A3E046F008A3E046F6
:100A1300F008A3E046F022E4C396F608E496F6084D
:100A2300E496F608E496F622C3E7960809E79608E3
:100A330009E7960809E79622C6F4C608C6F4C6086D
:100A4300C6F4C608C6F4C622600D08C6A2E713C6DC
:100A530018C613C6D5E0F322C3E09608A3E09608B0
:100A6300A3E09608A3E0962275D00075814075181F
:100A73000175190300020439600C08C6C313C618B4
:100A8300C613C6D5E0F422E6F008A3E6F008A3E611
:100A9300F008A3E6F022E0F608A3E0F608A3E0F6E8
:100AA30008A3E0F622CAC0E0E6F0A308DAFAD0E031
:100AB300FA22E0FAA3E0FBA3E0FCA3E0FD22EAF0C4
:100AC300A3EBF0A3ECF0A3EDF022E5C754F8440147
:100AD300F5C77901222518F582E43519F583221229
:100AE3000558568401120558918401120558CE8485
:100AF30001120558EF84011205583B850112055870
:100B0300158601120558C68601120558568701122B
:100B13000558468801120558898801120558AE8880
:100B2300011205580089011205582589011205583B
:100B3300538A01120558808A01120558928A0112BC
:100B430005589C8A01120558208B011205588F8B7A
:100B530001120558388C01120558408C01120558B2
:100B63002C8D01120558A38D01120558E08D011239
:100B73000558478E01120558948F01120558B08FFE
:100B830001120558099001120558A6900112055843
:100B9300F690011205589191011205583E920112E7
:100BA30005587C9201120558EC92011205583793AF
:100BB300011205587093011205589E9401120558AD
:100BC300D8950112055839960112055882960112DB
:100BD3000558AA96011205582D9701120558AD978D
:100BE300011205582098011205584598011205581D
:100BF300BB98011205585F9901120558E599011236
:100C030005580C9A01120558319B01120558449B53
:100C130001120558D69B01120558FF9B0112055876
:100C23009F9C01120558DE9C01120558209D01125C
:100C330005580C9E011205580FA00112055819A062
:100C43000112055823A0011205582DA001120558C1
:100C530037A00112055851A0011205585BA00112DB
:100C6300055865A0011205586FA00112055890A000
:100C730001120558DEA001120558ECA00112055817
:100C830010A10112055834A10112055893A10112B4
:100C93000558DEA101120558FCA1011205586CA2EA
:100CA30001120558A9A201120558F0A20112055814
:100CB30058A301120558CAA301120558FEA4011234
:100CC300055821A501120558E4A501120558C4A62B
:100CD3000112055825A9011205588CAA01120558BD
:100CE3004FAC01120558A1AC0112055884AD011295
:100CF3000558C9AD0112055881AE011205580FAF51
:100D03000112055837AF01120558F9AF0112055802
:100D130002B20112055827B20112055878B2011226
:100D2300055879B301120558B1B301120558F1B34F
:100D33000112055854B4011205586DB50112055836
:100D4300CDB501120558B3B601120558B9B8011251
:100D53000558D5B8011205587ABA01120558C0BA18
:100D6300011205589EBB01120558F8BB0112055824
:100D73002DBC0112055858BC0112055843BD011280
:100D830005587FBD01120558BBBD0112055849BE68
:100D9300011205584CBE01120558B8BE0112055880
:100DA3005C2300120558AE2300120558E5250012F6
:100DB3000558312600120558F326001205586227FC
:100DC300001205588A2800120558C72A0012055830
:100DD3005E2B00120558FE310012055884320012B2
:100DE3000558013500120558E535001205589136AE
:100DF30000120558C23700120558B53800120558BD
:100E0300E63B00120558A93D00120558093E0012A1
:100E13000558BF3E00120558EA3E00120558773FB9
:100E23000012055864400012055838410012055855
:100E3300CC4100120558F941001205581B4200121B
:100E43000558144400120558EF44001205583C4558
:100E5300001205589D45001205585F4600120558BB
:100E6300944600120558E246001205581247001234
:100E73000558504700120558A84700120558AD47BA
:100E8300001205580848001205583048001205584A
:100E93004F4900120558BB4900120558254A001254
:100EA3000558AE4A00120558CD4C00120558AB4DFB
:100EB300001205581A4F00120558AC50001205587D
:100EC3003C5100120558435200120558CC520012EF
:100ED30005581353001205588A54001205589E549E
:100EE30000120558B85400120558D354001205587F
:100EF300DF5400120558FD5400120558075700121D
:100F03000558FA57001205583E5800120558C158A3
:100F130000120558C55900120558815A0012055888
:100F2300FC5B00120558D65C001205586D5D00127B
:100F33000558FF5D00120558165E001205583A5E0B
:100F430000120558445E00120558505E0012055801
:100F53006E5E00120558B25E00120558035F001260
:100F63000558645F00120558C65F001205583F60BC
:100F730000120558506100120558FC610012055813
:100F8300E962001205584D6300120558E46300122C
:100F93000558B46400120558E3640012055842650D
:100FA30000120558F0650012055816660012055820
:100FB300166700120558356700120558A46700121A
:100FC30005581E68001205584468001205587068D9
:100FD30000120558BB6800120558556900120558E0
:100FE3007E6900120558E469001205583E6A001232
:100FF3000558636A00120558A96A00120558C66AA3
:1010030000120558706B00120558E4CA0312055804
:101013002FCB0312055877BF01120558ABBF01123E
:10102300055881C00112055855C10112055880C2E7
:101033000112055804C40112055882C4011205584F
:1010430049C5011205586AC601120558DCC60112CA
:1010530005583EC7011205588CC70112055896C79B
:1010630001120558D4C7011205583DC8011205588D
:10107300DCC8011205585AC9011205580FCA0112DA
:10108300055881CA01120558A7CA01120558D7CAC3
:101093000112055804CB01120558AACB01120558B9
:1010A300BACB011205580DCC0112055819CC011207
:1010B300055825CC011205582ECC011205588FCCAA
:1010C30001120558EFCC0112055840CD0112055805
:1010D3005BCD011205588BCD01120558ACCD011221
:1010E3000558B8CD01120558F9CE0112055817CF8E
:1010F3000112055880CF0112055893CF01120558EC
:10110300AACF011205583DD0011205583CD1011256
:10111300055838D201120558BAD201120558C4D263
:101123000112055827D30112055838D30112055867
:101133007BD301120558C2D301120558F8D301120B
:1011430005582ED4011205584CD40112055870D4F9
:1011530001120558B1D401120558A4D5011205583E
:10116300EAD50112055825D60112055884D6011275
:101173000558ACD601120558E5D601120558F3D629
:101183000112055854D70112055891D70112055879
:10119300D3D70112055804D80112055838D80112C3
:1011A300055843D80112055861D80112055829D9A9
:1011B3000112055833D90112055878D9011205587F
:1011C300E2D901120558F6D901120558EEDA0112D7
:1011D300055801DB0112055816DB01120558B6DB71
:1011E300011205581ADC01120558DDDC01120558FD
:1011F300E8DC0112055807DE0112055823DE01124F
:1012030005587BDE01120558B2DE01120558CCDE0B
:101213000112055840DF01120558D1DF01120558AC
:1012230019E00112055834E2011205589EE2011239
:10123300055809E30112055862E50112055872E5E4
:101243000112055875E50112055881E5011205588B
:1012530095E5011205589DE501120558D2E50112E5
:10126300055880E601120558F0E60112055854E7C7
:1012730001120558EDE70112055887E801120558D8
:10128300B5E8011205584BE9011205587AE9011234
:1012930005589CE901120558C3E90112055829EACA
:1012A3000112055893EB0112055896EB01120558EC
:1012B3000DEC01120558F9EC01120558D1ED01129C
:1012C30005585BEE0112055890EF0112055842F0E4
:1012D300011205587BF001120558ACF001120558B4
:1012E300B5F001120558A1F1011205581DF20112C2
:1012F3000558ADF20112055877F301120558FBF3B7
:101303000112055831F4011205587AF401120558F7
:10131300BEDF02120558CCDF0212055835E0021277
:1013230005586DE002120558C0E00212055862E24A
:101333000212055844E4021205581DE7021205582B
:101343004FE70212055865E702120558C3E7021278
:10135300055801E8021205583FE80212055887E8CC
:101363000212055820AC031205586CAC0312055841
:10137300F7AC0312055835AD03120558B6AD031289
:101383000558F6AD0312055849AE031205585D9E84
:10139300031205589EC003120558BCC0031205581A
:1013A3000DC10312055848C103120558F2C10312B7
:1013B3000558FBBB0312055840BD03120558A3F89B
:1013C3000212055826F90212055830F9021205587F
:1013D30057F9021205586BF902120558D1F9021296
:1013E300055801FA0212055803FB02120558D3FBF4
:1013F3000212055833FC021205587CFC02120558F0
:10140300B9FC021205581CFD0212055848FD0212D0
:101413000558D3FD021205582DFE0212055807C2C6
:101423000312055820C2031205589AC20312055825
:1014330047C303120558F8C8031205586FC90312AE
:1014430005587AC903120558BDA1021205588ECC5E
:101453000212055891CC0212055852CD02120558BA
:1014630080CD02120558DBCD02120558FFCD0212C2
:1014730005581FCE0212055869CE0212055897CEA1
:1014830002120558C6CF02120558F5CF02120558AD
:1014930016D00212055871D00212055834D1021227
:1014A300055854D10212055832840112055861D3EC
:1014B300021205586AD402120558D3D402120558F1
:1014C30001D502120558C6D502120558FBD50212E2
:1014D30005582ED6021205586AD60212055874D63C
:1014E30002120558BCD6021205582AD70212055813
:1014F3004DD702120558EDD7021205589CDA021295
:101503000558A5DA02120558F2DA021205581BDB58
:10151300021205587BDB0212055811DC0212055832
:1015230045DC0212055892DC02120558ECDC02126B
:1015330005581ADD02120558A2DD02120558E7DD2F
:101543000212055826DE021205585BDE0212055808
:101553006DDE021205587FDE021205589EDE02126E
:10156300055855DF0212055895DF02120558FAC7D0
:10157300031205583DB803120558A1B803120558C4
:10158300C5B803120558BEB903120558F4BB0212BD
:101593000558D3BC021205580FBD02120558ACBE44
:1015A30002120558EEBE02120558A2C002120558D7
:1015B300E6C002120558C7C10212055854C20212EE
:1015C3000558DFC20212055835C30212055875C308
:1015D3000212055817C502120558A0C60212055873
:1015E300B7C802120558C5C8021205582AC9021203
:1015F300055874C9021205584DCC02120558B5CCD2
:1016030003120558CBCC0312055839CB03120558E6
:10161300D3A503120558E6A50312055884A60312A1
:101623000558BFA603120558DAA603120558FFA6EC
:101633000312055844A70312055875A7031205584A
:10164300A6A7031205581DA9031205581BBF0312B1
:1016530005588FBF03120558D1BF03120558E1BFC8
:101663000312055879C00312055883C003120558A5
:101673009BC003120558C0F4011205580EF5011260
:101683000558F5F50112055887F601120558D1F6EC
:101693000112055820F7011205587DF7011205586C
:1016A30091F701120558C5F701120558DDF801122B
:1016B30005584FF90112055870F901120558B1F98F
:1016C30001120558E6F9011205583FFA01120558AF
:1016D3005DFA01120558C0FA011205583FFC0112C8
:1016E300055861FC0112055896FC01120558BEFC11
:1016F30001120558C3FC011205580FFD01120558CC
:10170300B4FD01120558D9FD01120558E3FD01127C
:101713000558E6FD011205585AFE0112055875FEDB
:101723000112055892FE0112055895FE0112055843
:1017330084CB031205589CCB03120558FFF0021209
:1017430005584EF102120558F2F202120558A8F498
:1017530002120558F0F40212055836F60212055823
:1017630081F702120558A3F702120558EDF702128A
:1017730005586FF802120558EFA10212055819A275
:1017830002120558A3A2021205582CA302120558EF
:10179300A8A3021205580BA4021205584DA4021265
:1017A3000558C6A40212055850A502120558C7A52C
:1017B3000212055809A602120558CCA902120558AF
:1017C30092AB02120558B7AB0212055876AC02125F
:1017D300055879AC0212055859AD021205589EAE50
:1017E3000212055830AF0212055898B1021205587B
:1017F3001BB20212055811B3021205586EB602123B
:1018030005587EB602120558DEB70212055859B8BC
:1018130002120558ACB902120558CABA0212055889
:101823005EBB02120558AA6B00120558696C0012C0
:101833000558E06C00120558EF6C00120558746DE2
:1018430000120558DD6D00120558DD6E00120558B3
:10185300066F001205589F6F00120558E26F0012C1
:1018630005583F7000120558197300120558D373B9
:1018730000120558387400120558DF750012055818
:101883009376001205582E770012055887770012B9
:101893000558F27700120558027900120558BF7AED
:1018A30000120558F67B001205588F7C001205586C
:1018B300F97C00120558EF7D00120558608503126C
:1018C3000558CC8503120558358603120558A3869F
:1018D30003120558DB86031205584F870312055878
:1018E300D387031205580088031205581988031279
:1018F3000558798803120558C688031205583E898E
:1019030003120558438903120558AF89031205587A
:101913006BB103120558BAB10312055873B203121F
:101923000558D9B2031205584AB303120558A7A99B
:101933000312055800AA031205587FAB031205587A
:101943006FC303120558A9C30312055864C40312D5
:1019530005584CFE021205585AFE02120558F3CCE4
:1019630003120558DFC903120558EFC903120558BE
:101973000DCA031205586ECA03120558DCC50312BB
:10198300055803C60312055888C603120558E1C655
:1019930003120558DD9E0312055897BD031205581F
:1019A300B9BD0312055823BE0312055843BE0312E3
:1019B300055889BE03120558E4BE03120558098F62
:1019C300031205581E8F031205583390031205584E
:1019D3007490031205588E90031205580A9103124E
:1019E3000558259203120558999203120558B3928C
:1019F30003120558C69203120558D49203120558D0
:101A0300EE92031205580593031205582F93031200
:101A130005588093031205586EA2031205587CA241
:101A230003120558F6A203120558C2A30312055860
:101A33006EA503120558A0FE01120558D9FE011226
:101A43000558F6FE0112055854FF01120558B9FF57
:101A5300011205580080031205586D8003120558C2
:101A6300248103120558918103120558AE82031293
:101A730005584A8403120558AE840312055803859A
:101A8300031205580C85031205581B8503120558CC
:101A93002E85031205584485031205584D850312FC
:101AA3000558598A03120558AC8A03120558B48C99
:101AB30003120558E68C03120558088D03120558C6
:101AC300218D031205583A8D031205583C8E0312DB
:101AD3000558CA8E031205582CBA031205585EBA6C
:101AE300031205586ABA031205589DBA0312055822
:101AF300CEBA03120558FCBA0312055871BB031280
:101B03000558A0BB03120558D5AE03120558FBAE0A
:101B13000312055838AF031205584AAF031205588C
:101B230066AF03120558D4AF03120558DDAF031295
:101B330005583CB00312055860B0031205581FB195
:101B4300031205582CB1031205583DB10312055871
:101B530078CA03120558C5CA03120558469F0312D3
:101B630005588EA0031205589BA003120558AEA07A
:101B730003120558CDA003120558E3A0031205581C
:101B8300F7A00312055871A10312055807A2031207
:101B930005584FA2031205585FA203120558367F5A
:101BA300001205585A7F00120558827F001205580B
:101BB300AA7F00120558CDB303120558E6B30312EA
:101BC3000558F2B30312055806B40312055824B49A
:101BD300031205582EB40312055838B403120558DE
:101BE3004BB4031205589FB403120558D8B403121B
:101BF300055807B50312055855B503120558A4B582
:101C030003120558BFB503120558C9B50312055889
:101C1300DAB50312055820B603120558CFCB0312C9
:101C23000558C5E802120558F1E8021205580DE9F6
:101C33000212055820E90212055836E90212055826
:101C4300A2E902120558D5E90212055832ED021233
:101C530005585DEE0212055890EE02120558F5EE96
:101C630002120558DDEF0212055805F0021205585D
:101C73001AF0021205582AF0021205586EF00212E9
:101C83000558C3F002120558D3F002120558A9C42F
:101C930003120558C4C403120558EDC403120558B2
:101CA30007C5031205582CC5031205584BC503126B
:101CB300055863C50312055891C503120558ABC5F2
:101CC3000312055817CC03120558DD9A0312055861
:101CD300E49A03120558F09B03120558209C031243
:101CE3000558469C03120558799C031205588B9C92
:101CF30003120558C59C031205582B9D0312055862
:101D0300649D03120558B09D03120558DD9D03120F
:101D13000558FD9D031205582BB60312055867B6E7
:101D23000312055855B703120558FAC6031205588E
:101D330059C70312055897C703120558D8C703128A
:101D43000558B59303120558D493031205581F94ED
:101D5300031205583B940312055873940312055854
:101D63008094031205589D9403120558809503121D
:101D73000558B79503120558BE9603120558C99620
:101D830003120558DB9603120558E496031205580F
:101D9300EE9603120558559703120558CF9A03126E
:101DA3000558CF7F0012055857CC031205588DCC28
:101DB30003120558D5CC031205589FA102120558EA
:101DC300BDA00212055821A002120558AD9E0212B1
:101DD3000558599C02120558709B02120558519BD5
:101DE30002120558D99A02120558889A0212055808
:101DF3003A9A021205587E99021205583C9602122D
:101E03000558149602120558B9950212055896956D
:101E130002120558F09402120558989402120558BC
:101E2300F59202120558F29202120558019202121B
:101E33000558E19102120558319102120558B38FEA
:101E430002120558178401120558A683011205587A
:101E5300D48201120558398201120558C881011232
:101E630005587A8F021205584B8F02120558488F76
:101E7300021205583A8F02120558A981011205581A
:101E8300268F02120558198F021205583C8E021232
:101E93000558C88D02120558C9D2021205589781F8
:101EA300011205588E8D02120558368D02120558FF
:101EB300058D02120558378A02120558208A02122C
:101EC3000558938902120558E18802120558808645
:101ED30002120558EA8302120558B4830212055808
:101EE3005282021205580182021205583A810212E7
:101EF30005580D81021205586780021205583A8071
:101F0300021205580080021205589BC90300000005
:101F130080FBC2C732E473000136360101000102BF
:101F23000100010301000104010606050200000788
:101F33000100340801000F090401010D0100FF0E27
:101F430008000017020000190100FF1A0100011B1D
:101F53000100FE1C0100081D0200001F01000120FA
:101F6300010001210200002301000F2402000026CA
:101F730001000127010008280200FF2A0100072BA6
:101F83000102402C0100002D0100012E0100012F50
:101F93000100FF30010B1C310800003A0100083B2F
:101FA30001000F2F010000030071003001600011D8
:101FB3000070003102200350048000100061000013
:101FC30000140063007300720062004300000013FA
:101FD30000060000000000040012000000000000E2
:101FE30000000004000400370037003C02440000F6
:101FF30000000000000000650000003500810000C3
:1020030000050000008300000001037103010301C8
:10201300030103010301032203020301031003006D
:102023000300030003000300030003000342030053
:1020330003240306030003000304031203250323FD
:1020430003250323030403040300030003000344E1
:102053000300030003230300036503210035038109
:1020630003000305030003000300030304710402D8
:102073000460041104700402040204010402041045
:1020830004610400041404630473047204620443CB
:1020930004000413040604000400040404120400EE
:1020A300040004000400045104640000040004005C
:1020B300044404000400040004000465040004351F
:1020C3000481046400050400048304000401017115
:1020D300010101010111010101310101010101802E
:1020E30001100161013B001400630173017201627D
:1020F3000143010001130106013D013500040112F2
:102103000100010001000100010401040133013356
:10211300013C014401320136000001000165010068
:1021230001350081010001050182018301000103E2
:102133000271023001600211027002010202020206
:10214300028002100261023A0041006302730272CC
:10215300026202430200021302380000020002047A
:10216300021202000200020002000204020402370B
:102173000037003C024402000239000002000265FD
:10218300020002350281020002050282028302007C
:102193000236000100060000000F000000000000EE
:1021A3000000000000000003FFFF00000403FFFF26
:1021B3000000FFFF0FF4010005C404032000010029
:1021C300000B000000000000000003010F0000628C
:1021D300181300DE17010062180200961703009C13
:1021E300170400A2170500A8170600B4171100D2A0
:1021F300171400D8171500C617FFFF000001DC0DE8
:10220300060C0E08060E0B180E10520D02E20D05F9
:10221300FA0D07E80D0CC40D0DD00DFF00000300EF
:1022230003000400080010001F003E007B00F600BE
:10223300EC01D703AF075D0FB91E713D000003EA40
:10224300F5E5D5D5C5B5A5959585857575656555AB
:1022530055454535352525151505541184115A1154
:1022630060117E1172116C118A1190119611A211D5
:1022730066114E1148119C36063A703DD9404344CD
:10228300AD47174B814EEA5100160F00000B150B9B
:10229300020002220F3200000600010203040506B9
:1022A3000708090A0B0C0D0E0F3E12501256121E90
:1022B300115C1218112411581052108E10941088AA
:1022C300104010B012CE12D412B612C212BC1200B9
:1022D3000119161816161523030030301618192085
:1022E300231A1C1E3000383C3E363B3B352B432C17
:1022F30000034948424D18172505023030171819B5
:1023030021301B1D1F300C0E020B040B0A070800A3
:102313000FA4126212681274126E1278119C11C803
:1023230012A811AE1164106A105E109A1000051500
:102333000D09100804000000000000701082100056
:10234300BE040A0E00040015000103090C05100A5F
:1023530009000008040F102808C082C083E9900315
:10236300CEF0E4900382F0121D189003E1E4F0A391
:10237300F09003CFF0A3F0120FB0120B18120CB0B1
:10238300121D1E900342E4F0A3F09003F3E07002E9
:10239300A3E060099003F31256CB121F1890235841
:1023A300E493FA7902121D780249B474F212036EAF
:1023B300EAFEEBFF74805FF9E47001E9606190036A
:1023C300CEE0F91215148A088B09EA7001EB604616
:1023D3007B0080010BEB75F003A42400F8E5F034D7
:1023E30022F988828983E493FA74FF6A602185085D
:1023F30082850983E06A70DCAA08AB098882898335
:10240300A3E493C0E0740193F583D082121F18AA4A
:1024130008AB09121508EEFA74806FFB0225D77416
:10242300105FF9E47001E9601D120E968A088B09AA
:10243300EA7001EB600A120DD0AA08AB0912150865
:10244300EEFA741080D4EE54207003022524750C28
:10245300001246517001EB70107C027D007A207BE4
:10246300009003CEE0F912162E7C0079047A007BEB
:1024730000120E608A088B09800D7401888289839B
:10248300F0850A08850B09E5087002E509606D7C93
:10249300007904AA08AB09120E608A0A8B0B750C2B
:1024A30001E50824041266DB24FFF0A3E034FF12E5
:1024B300691E7002A3E070C9E5082409F8E5093430
:1024C30000F9850882850983A3A3A3A3A3A3A3A3D8
:1024D300A3A3E0640170A3850882850983A3A3A352
:1024E300A3A3A3E054047092740688828983F07ACC
:1024F300B78508828509831226E88085120E307C11
:102503000079017A007B00120E60EA7001EB70091A
:10251300E50C70057A201225DA74206EFAEF022496
:102523001EEE54106007120CE6741080EEEE544059
:102533006007120D3A744080E2EE54806007120C7B
:1025430008748080D674015FF9E47001E9601A9021
:1025530003F5E07002A3E060099003F51256CB1275
:102563001F18EEFA740102241D74085FF9E4700168
:10257300E9602D120CBC901224E06401701B9012D0
:1025830025E06015FC75F0E8A4CCAAF075F003A46F
:102593002AFD7A007B08122759EEFA740802241DDB
:1025A30074025FF9E47001E9600A120FAAEEFA748B
:1025B3000202241D74045FF9E47001E96012125AE7
:1025C3005712540679011235DBEEFA740402241D06
:1025D3007A007B0002326F7B009003CEE0F9121683
:1025E300342274F712036E74E11208DDEAFEEBFF86
:1025F300EE7001EF6033851882851983AC82AD8359
:10260300120EC07406120AD8E0601E7417120AD89C
:10261300E0FD7401120AD8E0FCEEFAEFFB79001238
:102623001DBAE9600479A4800279000248F974F6BE
:1026330012036EEAFEEBFF8E828F83A3A3A3A3A3F1
:10264300A3E0544060178E828F831256CB125BCF68
:1026530060067AFF7BFF80241226DC801590036DD1
:10266300E0A2E1500A79001226DC120CC2800312A8
:102673000EE474FE6A700374FF6B60458E828F8371
:102683001256CB125BEB120F50E98E828F836006DA
:102693001226D5E480051226D57401F07CAC7D0D9D
:1026A3008E828F831254B4121D72E9F5087015EEF1
:1026B3007001EF60097901EEFAEFFB120E3C02564E
:1026C300C17508CDAA088E828F831226E8E960DFE0
:1026D30080ECE0240D124F04228E828F83125DE47E
:1026E300FAA3E0FB22E0240C12494AF9120DB822A6
:1026F30074F612036EE9FEEAFF7A0F7B00121502ED
:10270300EA7001EB6019740C8A828B83F0EEA3A349
:10271300F0EF8A828B83A3F01258B879008034EEED
:10272300F9120E668A088B09A808A909E87001E95D
:10273300601F740688828983A3A3A3A3A3A3A31200
:1027430066A6A3A3A3A3A3E0F9120D4CEEF9120E00
:102753004279100256E19003CEE0F9121628227452
:10276300EE12036EEAFEEBFF8C088D09890E7412DC
:10277300120AD8E0F510A3E0F511851082F583E481
:10278300F0A3F0122872EE241DF8EF3400F9880C40
:10279300890D888212287F601F850A82850B831228
:1027A3002B587014850A82850B83124D8485108201
:1027B3008511831254068003750E00850C82850DE6
:1027C30083125DE012064A01096D28E227FC270502
:1027D3002810286D2834286D2844285D2866287819
:1027E3001012084EAC08AD09EEFAEFFB120CCE74D2
:1027F3000212087BE9F50E8071EEFAEFFB120CD49E
:102803008068A90EEEFAEFFB120F6880E7126923C6
:1028130064027056E50E7010850A82850B83126080
:10282300397003A3E0697042EEFAEFFB120F2080C8
:102833003912692364027032EEFAEFFB120F08803B
:10284300299003F7E07002A3E0601FEEFAEFFB901C
:1028530003F71256CB121F188010EEFAEFFB120F7C
:10286300748007EEFAEFFB120F80A90E0243FDEE10
:102873002409F8EF3400F9880A890B22F583125DE5
:10288300E4F9120F32E92274ED12036E74DE1208BA
:10289300DDEAFEEBFFEE240212507FF9120E668A88
:1028A300088B09EA7001EB7003022976EE240CF51C
:1028B3000CEF124050EA2409F50AEB126691EA2460
:1028C30006F50EEB1231758E828F83A3AE82AF8332
:1028D300E064F16017E064CD6012E0641A600DE01B
:1028E30064E96008E064E160030229F7850E8285EC
:1028F3000F83A3E05408F9E47001E970030229830C
:102903007405850A82850B83F09003FBE07002A3B4
:10291300E060099003FB1256CB121F189003FDE0F1
:102923007002A3E0603490036DE0A2E1502C8508AF
:10293300828509831266EEA3A3A3A3A3A3A3A31271
:102943004903123193EA7001EB600F8E828F83E0AB
:10295300F99003FD1256CB121F18850A82850B834B
:10296300E0640270037406F0851082851183E0F938
:10297300120E42120E30742212087B7F0B0205C521
:102983007900120E3CE9606C90036DE0A2E15058AF
:102993008508828509831263CF7002A3E0604974BE
:1029A30003120AD81263B68E828F83E064E970182B
:1029B300122AB81208528E828F83E0F5127812120F
:1029C3000852123BA312087B740C120AD81254B497
:1029D3001256C5125BEB7900740E120AD8124CAF73
:1029E300740C120AD812318C850E82850F83124C17
:1029F300B902290B8E828F83E0C0E07402120AD8D9
:102A0300D0E01231C31259AC123B7D1269298518EB
:102A130082851983AA82AB837005120C2C80031262
:102A23000F2C8E828F83E064F16034E064CD602FDD
:102A3300E0641A602AE064E16025E064F0602074D9
:102A430002120AD8E0FC74B76C6014122AB8120898
:102A530052ECF5127812120852123BA312087B9023
:102A6300036DE0A2E1400302295D850A82850B83A1
:102A7300E06402702A850E82850F83E05404601F90
:102A83001256C5125BCF70131256C574FFF0A3F034
:102A93007405850A82850B8302296A740380F38E89
:102AA300828F83E064E9600302295DAA08AB0912FF
:102AB3000F8602295D850882850983125DED7512F3
:102AC3000178122274F512036E8A088B09750A00C5
:102AD300EA2409124A8FFEE9FF8E828F83122B5854
:102AE3007003750A018E828F8312530A7003A3E069
:102AF3006B7006E50AD2E1F50AE5082402FEE50952
:102B03003400FFE50A60138E828F83E07006E50AC6
:102B1300D2E58004E50AD2E6F50A120F50E9640112
:102B23007006E50AD2E0F50A8E828F83E06017E52E
:102B330008241DF582E509340012287F640160062C
:102B4300E50AC2E0F50AE50AA2E14004D2E7F50A84
:102B5300A90A025F44125BD364022274E812036E73
:102B630074DC1208DDEAFEEBFF7403120AD8125973
:102B7300BD7514007515007405120AD8AC82AD83B7
:102B83008E828F83A3A3A3125BBC1254B4120EC014
:102B9300EE241B124D7E7412120AD8125406740BC3
:102BA300120AD8E06022741C120AD8E0FD740612DF
:102BB3000AD8E0FC8E828F83A3A31254B479011246
:102BC3001DBAE960030231687405120AD8AA82AB00
:102BD30083120DCAE9F508740B120AD8E0700E903F
:102BE300036AE06008E9A2E14003023168EE2412BF
:102BF300F516EF3400F517EE242A12668EEE242C18
:102C030012317D12368AE0687003A3E069701C7587
:102C1300090078091208527809120852EE242E127C
:102C2300318412319F123BB312087B7408120AD805
:102C3300E0FA900370E06A6003023168740B120AD1
:102C4300D8E07003022CE112319F1231938A0A8B70
:102C53000BA80AA90BE87001E97003022D8574061D
:102C6300120AD812319AFAA3E03400FB740D2AF544
:102C730082E43BF583E0FAE82404F50AE91266915D
:102C8300E82403F582E91269296A600DEAF090816C
:102C930085780C120A991231E879047406120AD85D
:102CA30012319AFCA3E034008C82F583A3AA82AB91
:102CB300831214F08A0C8B0D8C0E8D0F850A82857E
:102CC3000B837810120A997810790C120A2B50038F
:102CD300023168908181780C12096F1231E8EE2479
:102CE30024123172EE2430F50CEF124050EE242FF3
:102CF30012668E90036DE0A2E15003022E1C900336
:102D030082E0FA74046A600874096A600302316835
:102D1300E508A2E54003022DCB1231CFC0E07401D8
:102D2300120AD8D0E0123BDDC0E07402120AD8D0F8
:102D3300E0F07416120AD8E0640170207410120ACD
:102D4300D81231B77003A3E0697011740E120AD858
:102D5300122B5870077416120AD8E4F0850E828578
:102D63000F831206807404120AD8AC82AD837409EF
:102D7300120AD8AA82AB83120C32740412087B02A3
:102D830031689003C7E064016003022CE1742212EE
:102D93000AD8125DE064067009E508A2E650030252
:102DA3002CE17412120AD8E064FF7004A3E064FFFC
:102DB3007003023168EEFCEFFD7405120AD8AA8293
:102DC300AB83120DD6023168A2E640030231687468
:102DD30022120AD81231AF701C741C120AD8E06494
:102DE3000260030231687405120AD8AA82AB831207
:102DF3000F2002316874076A6003023168741C1281
:102E03000AD8E0640460030231687405120AD8AA80
:102E130082AB83120F140231687416120AD8E06071
:102E23001D8E828F83A3A3123BCF14125216A312BB
:102E33003BCFC0E07416120AD8D0E0F07006E50864
:102E4300C2E7F508900382E0FA74046A6005740926
:102E53006A7061740E120AD812530A7003A3E06BEE
:102E63006017120F50E96402600F740A120AD8E067
:102E73005403640160030231687407120AD8E070D6
:102E83001B1231CFC0E07401120AD8D0E0123BDD2F
:102E9300C0E07402120AD8D0E0022D5E7422120A36
:102EA300D81231AF7003022DDC74076A600302315C
:102EB30068022E00750900746155087003022FD053
:102EC300E508A2E05070851682851783124CAF7413
:102ED30005120AD8AA82AB83120D40E97055120E6F
:102EE300F0E9F5097416120AD8E0700F7410120A8B
:102EF300D81231B77003A3E069603BA90985168234
:102F0300851783124CAF7405120AD8AA82AB8312B9
:102F13000D46E96013740E120AD8125FC0120AD864
:102F2300125406751404800EE508C2E5F508750908
:102F330000800353089FE508A2E5503C1231CFC03F
:102F4300E07401120AD8D0E0123BDDC0E074021233
:102F53000AD8D0E0F0850E82850F831206807404B0
:102F6300120AD8AC82AD837409120AD8AA82AB8341
:102F7300120C32740412087BE508A2E64003023007
:102F83008F7403120AD885820A85830B780A120884
:102F93004EA909851682851783124CAF7407120A4E
:102FA300D8AA82AB83120DBE740212087BE9F5091D
:102FB300700302308F7422120AD8125DE06401603C
:102FC3000302308F74104514F51402308F74071206
:102FD3000AD8E06401703B7422120AD8125DE064DF
:102FE30005702F7403120AD885820885830978082F
:102FF30012084E7900851682851783124CAF740729
:10300300120AD8AA82AB83120DBE740212087B0285
:1030130031687416120AD8E07003022DB8120E3606
:10302300E96003023168740E120AD8125FC0120AF3
:10303300D81254067809120852741E120AD8AC82A8
:10304300AD83740F120AD81254B4740A120AD8E06A
:10305300F9120D82740112087BE9600F7514208E3A
:10306300828F83A3A3125DE0543FF07900741012A2
:103073000AD8124CAF740E120AD812318CE96006CA
:1030830074204514F514120EF0E9F5097403120ABD
:10309300D8E064FE7004A3E064FF7003750900E5E3
:1030A30008A2E74003023168E5097003023168743E
:1030B30003120AD81231B77003A3E069700B741DB1
:1030C300120AD8E07003022DB88E828F83A3A3A3C4
:1030D300A3E0FA7B001215808A0A8B0BEA7001EBDE
:1030E30070030231688E828F83A3A3E0F50CA3E003
:1030F300F50D750E00780C12084A8E828F83A3A3F8
:10310300A3A3E0FC7D0012412112087B7407120A7D
:10311300D8E0851882851983F07401120AD8E4F087
:10312300A31231C385820C85830D780C12084E7867
:103133001412084EE509F50878081208528E828F9A
:1031430083A3A3A3A3E0F97408120AD8124CAFAA6D
:103153000AAB0B120EAE740512087BE96007AA0ACC
:10316300AB0B121586742412087B7F100205C5F57C
:103173000EEF3400F50F22EE240BF582EF126702F7
:1031830022F582EF125A7BF922124946120CC82209
:10319300124946120FD42212631A2A22850A828503
:1031A3000B83124AA885168285178322125DE4FADF
:1031B30074046A22124D96851682851783E068226D
:1031C3001231C722F085188285198322EE242E122C
:1031D3005A788518828519831231DF22F0850A8295
:1031E300850B83E022850A82850B83E50CF0A3E53A
:1031F3000DF0A3E50EF0A3E50FF02274F212036EB7
:10320300EAFEEBFF8C088D0912287279008882F59B
:10321300831254B4120D5E8A828B83E5827002E5B9
:1032230083603AA3A3A3A3A3A3E05418602FE508E4
:10323300241BF582E509123180120684E508241265
:10324300F582E509123180120684EE2418123184C6
:10325300123274120D8E740412087B8008790012E6
:103263003274120CE08005740312087B7F0602059A
:10327300C5850A82850B83124AA8EE240B12493FA7
:103283002274EE12036E74EA1208DD8A0C8B0DEAC7
:103293002402F50EEB1231750A0AFB120B3C8A0865
:1032A3008B09AE08AF09750901850C82850D83A3CF
:1032B300E0F508750A01AC0EAD0F851882851983F8
:1032C300AA82AB83121D3C7408120AD81259BD742A
:1032D3000A120AD87402F07413120AD8E4F0E50C47
:1032E300240AF50CE50D1240509019F4E07010EE2D
:1032F3007001EF700AE50870067509C302345A902D
:103303000382E0640860067509C2023456850C82A4
:10331300850D83E0A2E1500EA2E35005750A0480F7
:103323000C750A038007A2E35003750A02EE7001CD
:10333300EF60648E828F83A3A3A3A3E0FA74046A6D
:10334300600574036A700C7404650A601C74036579
:103353000A601674026A600574016A70207402655B
:103363000A60067401650A700F8E828F83123EB95C
:10337300120AD8125406801F74026A600574016A27
:10338300700A8E828F83123F6D121F18AA0EAB0F25
:10339300120B487E007F007408120AD8E064FE70A6
:1033A30004A3E064FF7038120B12E97032E5086081
:1033B300179003BFE06402700F9019FB123EB9121D
:1033C3000AD8E8F0A3E98016850C82850D83E054C2
:1033D30002F9120CEC7408120AD8EAF0A3EBF074A9
:1033E30008120AD81234FA700374FF6B700575095A
:1033F300C78060E508F50B780B120852850C8285AF
:103403000D83E0F9AC0EAD0F120C50740112087B62
:10341300E97040A90AAC0EAD0F7408120AD8123530
:10342300D48A108B11AE10AF11EE7001EF601C74D3
:10343300026508700BEE240512692654FB4408F05C
:10344300740A120AD8E4F0F50980087408120AD83D
:103453001259BDE508700F851882851983AA82ABBE
:1034630083121D5A8010FCA90A851882851983AA24
:1034730082AB83120F0EE9FAEE7001EF603EEE2489
:1034830005F8EF3400F9E508601288828983E0D2F9
:10349300E6F0740265087004E0D2E5F0850C8285DD
:1034A3000D83E0A2E6500888828983E0D2E7F08E9C
:1034B300828F83A3A3A3A3A3A3E004F0E50970036E
:1034C300EA602FFC7D007A017B10121D24EE70014F
:1034D300EF6007AA0EAB0F120B487408120AD8123A
:1034E30034FA700374FF6B600990035A1256CB12BF
:1034F3001F1874160243FA12494674FE6A2274F6C0
:1035030012036E74F71208DD8A088B09900382E0B8
:10351300FA74036A600D74016A600874096A6003CF
:103523000235D18508828B83A3AE82AF83E060032B
:103533000235B67C007D007A027B00121D24E5086B
:103543002402124402125F371254067953121D5497
:1035530079001235DB900382E064096009900380EF
:103563001254B4120FCE74011256FE7404900382E7
:10357300F07401120AD8AA82AB83794A121D4E74E1
:1035830001120AD8AC82AD837A787B03121D3C7991
:10359300007401120AD8AC82AD839003761235D43D
:1035A30090036DE0A2E35004D2F08002C2F0125601
:1035B300E68018FC7D007A037B10121D248E828F17
:1035C30083E0F91235DBE4900382F0120E12025607
:1035D300DC124946120B2A22900380124946120C30
:1035E3004A22C082C083900342E07002A3E070418C
:1035F300900382E012073A000301073605163606E8
:103603002536343690034AE07002A3E060769003D7
:103613004A806B900346E07002A3E0606790034624
:10362300805C900348E07002A3E0605890034880F8
:103633004D900342E07002A3E06009123BCCFC749E
:10364300016C702379009003CF800909EA1261436A
:10365300EB1231801246DD7001EB70EF9003CF1255
:1036630054B4120C38801D74026C7005120F9E80C6
:10367300139003F9E07002A3E060099003F9125676
:10368300CB121F180249B4124D969003802274F492
:1036930012036E74EB1208DDEA124A89FAE9FB8A17
:1036A300828B837808120A997808120A3B90038365
:1036B30078081209E17F7F7E7F7C00750801750918
:1036C30000750A00750B00EC78081207CE9003838F
:1036D30078081209CE9081857808120933602A7D13
:1036E300009003CF801288828983A3A3E06C7001CA
:1036F3000D126142E912318012474B7001E970E605
:10370300EDC39F5004EDFFECFE0CECC3941B40ABE8
:103713008A828B837808120A999081857808120926
:103723003360459003837808120A8A8A828B8378F0
:1037330008120A998518828519837808120A8A74EF
:1037430004120AD87401F0900389E0C0E0740512F2
:103753000AD8D0E0F07407120AD81238AD805B1291
:103763000C74900380125BEB9003CF12474B7001F4
:10377300E9602290038012653CE06A7003A3E06B6A
:10378300700A88828983A3A3E06E60D3126142E941
:1037930012318080D6EE900375F0120E00E9601AA4
:1037A300E4900382F090034CE07002A3E0600B7995
:1037B300C490034C1256CB121F187415024A1D7481
:1037C300F012036E74EB1208DD8A828B83A3A3A32A
:1037D300A3A3A3A3A3A3125DE97C00750C01750D3C
:1037E30000750E00750F00EC780C1207CE850C08DF
:1037F300850D09850E0A850F0B900383780812093E
:10380300CE908185780812093360259019FAE0C0BB
:10381300E08C08EA2508F582EB126929FDD0E0C3A4
:103823009D500D780C120A3B900383780C1209E12A
:103833000CECC3941B40A49003837808120A99905C
:103843008185780812093360398518828519837850
:1038530008120A8A7404120AD87401F07407120A4F
:10386300D87401F0900389E0C0E07405120AD8D03F
:10387300E0F07407120AD81238AD7406900382F090
:103883008023E4900382F0FCFD7A047B10121D2454
:1038930090034CE07002A3E0600B79C490034C12D8
:1038A30056CB121F1874150266C5E4125F4E121D23
:1038B300662274EC12036E74ED1208DD8A828B8328
:1038C300A3123B94EA2408124A8FFEE9FF8518826B
:1038D300851983AC82AD838E828F83123BBCA3A3F5
:1038E300A3A31254B4120E24851882851983E070A1
:1038F300768E828F83E0C3940B406C8508828509A2
:1039030083A3A3A3A3A3A3A3A3E064027059900377
:1039130082E0FAE5082410F510E5093400F511E515
:1039230008240912404C74026A604174066A603CC0
:10393300900342E07002A3E06007123BCC64016095
:103943005474086A600574046A701C7402120AD8FD
:10395300E0F97407120AD8AC82AD83850C82850D19
:10396300831254B4120E2A74130262B2900342E01B
:103973007002A3E0701F750A00780A120852780AD1
:10398300120852851082851183123B8612440A1253
:103993003BB312087B9003CF1267109003CF1262E0
:1039A300AAE508240DF50EE50912317580318E82E2
:1039B3008F83E0F8A3123B86E0687003A3E069708D
:1039C300128E828F83A3A3E0FA850E82850F83E094
:1039D3006A606B8E0A8F0BEE126143EF12670DEE76
:1039E3007001EF70C97A187B001215808A128B134D
:1039F300AE12AF13EE7001EF700302396A7C181236
:103A030068661259B4EE240C12317D74FFF0E50898
:103A1300240B1266DB123B7412691DC4123B74A3A0
:103A2300A3F09003CFE07002A3E070059003CF8072
:103A33000AE50A126143E50B1231801266887401AC
:103A4300120AD8123B9EA3F07402120AD8123B9EAC
:103A5300F0850E82850F83123B8FA3123BDD123B51
:103A63006B125221240DFAEF3400FB7402120AD8B0
:103A7300E06401600E7407120AD8AC82AD83121D94
:103A83003C80097C087D0079FF1214EA7412120A43
:103A9300D8E0C0E0EE241512317DD0E0123BD4FC17
:103AA300901A86E0C39C400302396A123B7D1231AF
:103AB30080A3E05480F9E47001E97009901149E0B2
:103AC300700302396A7D00EE240CF8EF3400F9EE3E
:103AD300240BFAEF3400FB9003BFE06402701D8AED
:103AE300828B83E0F50AC39C500D7405120AD8E05B
:103AF300C39405401B801AE50A6C70157405120AFD
:103B0300D8E0C0E088828983E0FCD0E0C39C500108
:103B13000D7404120AD8E06020ED601D85088285CB
:103B23000983125F58ECF0A3ED123BD48A828B8396
:103B3300F07405120AD8124CC07406120AD8E06059
:103B43000D74018E828F83A3A3A3A3A3A3F0740494
:103B5300120AD8E0700302396A74018E828F83A33C
:103B6300A3A3A3A3F002396AF8A3E0F98E828F839B
:103B730022540F8E828F83A3A322E508240BF582A0
:103B8300E50922E0F9850C82850D8322124048A3C2
:103B930022A3A3E0F508A3E0F509221240488021FF
:103BA300850C82850D83123BBC124AA48A828B83C7
:103BB300124946120EF6740222E0F98A828B838040
:103BC30002A3A3A3A3A3A3A322900342124F14E02F
:103BD30022F0851082851183E022F0850C82850D09
:103BE30083E02274F612036E74C91208DD90038217
:103BF300E064086062900393E0F8247AF582E43489
:103C03001AF583E0FA900364F0E82480F582E43443
:103C13001AF583E0FB900362F07508FF7509FFEA6C
:103C230078081209BBE508F4FCE509F4FD3395E0D7
:103C3300FE90038B123D867508FF7509FFEBC39A4F
:103C430078081209BBE508F4FCE509F4FD3395E0B7
:103C5300FE90038F123D86E41256F47904121D542C
:103C6300900393E07009741E120AD87401800674DD
:103C73001E120AD8E4F0740F851882851983F09018
:103C830019F9125F4A7946121D547401120AD8E4D5
:103C9300F0901A68E0C0E07402120AD8D0E0F09005
:103CA3000370E0C0E07403120AD8D0E0F074041289
:103CB3000AD8E4F07405120AD8E4F07407120AD89B
:103CC300E4F0900393E0FAC3940F74065006120ACB
:103CD300D8EA8005120AD8740FF07C947D03740827
:103CE300120AD8AA82AB83121D3C7C037D0079FFA4
:103CF3007410120AD8AA82AB831214EA9003CDE09F
:103D0300C0E07413120AD8D0E01257F4120AD81282
:103D130057E3120EFC900387E0C0E0741C120AD82C
:103D2300D0E0F0900388E0C0E0741D120AD8D0E020
:103D3300F0900375E0C0E0741A120AD8D0E0F09056
:103D43000380124D847418120AD812540674201278
:103D53000AD8E4F090038AE0C0E0741F120AD8D0B6
:103D6300E0F07434120AD8E4F07429120AD8E41289
:103D73003D917414120AD8AA82AB83121D6C743756
:103D83000256DEECF0A3EDF0A3EEF0A3F022F07AFE
:103D9300737B037953123D9C22121D547A767B0365
:103DA300794B121D5422C082C0838A828B83A3E085
:103DB3006007E4900382F0804A7408900382F090D5
:103DC3000393E0701F90034CE07002A3E0600B7953
:103DD3000090034C1256CB121F18900380124CAF65
:103DE3007A05801A7900120C44900373124CAF7A4F
:103DF300067B00121D24900376124CAF7A047B00DD
:103E0300121D240249B474F412036E74EA1208DD1D
:103E1300EA2402FEEB3400FF0A0AFB120B3C8A0879
:103E23008B09EA7001EB7003023EB48A828B83A391
:103E3300A3A3A3E0FA74016A600F74026A600A74B0
:103E4300036A600574046A7068EEFCEFFD851882EE
:103E5300851983125D56123EB9120AD8125406749C
:103E63000A120AD87401F07413120AD8125F4912A5
:103E73001D60890AAC0A7D007A077B00121D248528
:103E83000882850983A3A3A3A3A3E0C2E0F074017E
:103E9300850882850983A3A3A3A3A3A3A3A3A3F054
:103EA3007402850882850983A3A3A3A3A3A3A3A361
:103EB300F07416024A1D124D9674082274F7120309
:103EC3006E9003CFE0FAA3E0800CEA241612670A8F
:103ED300121586EEFAEFFBEA7001EB70ED9003CF5B
:103EE300E4F0A3F00248FE74F412036E8A088B090F
:103EF300EA240BFEEB3400FFEA2413F582EB12698C
:103F03002964037009EEFAEFFB120B3C800CE064AA
:103F13000270548E828F831266E7EA7001EB60476A
:103F2300EA2406F8EB122877850882850983A3E043
:103F33007007E488828983802D64F16005E064E181
:103F4300701A88828983E0640170118A828B8312DC
:103F53003F6D121F18EEFAEFFB120B48850A82859C
:103F63000B83E0600214F0024A2012494690035A80
:103F73001256CF2274F112036E8A088B09ECFEED00
:103F8300FF890A8A828B831262DF8A828B831240C3
:103F930047F0EEF8EFF9A30EAF838A828B83A3A3D6
:103FA300E0C454F0FA88828983E04A12405A1240EE
:103FB30048124055E0333354FCFA8E828F83E04A33
:103FC300124055A3E033333354F8FA8E828F83E0E3
:103FD3004AF008EFF9A30EAF838508828B83A3A36E
:103FE300A3A3A3A3E0A2E0E492E013135480FA880E
:103FF300828983E04AF0E5082407F50CEB12405070
:10400300750E00780C12084A7C0812506812087B5F
:104013001262C9E508240F12404C780C12084A7C3E
:104023000312506812087BE50AC3940F4011E50898
:104033002412F582E509123180123B8FA3A3F07F8E
:10404300070205C5A3E0023B6FF50CE5093400F553
:104053000D2212405AA322F08508828B83A3A3A3C7
:104063002274F112036EEAFEEBFF890A8C088D09B4
:104073008E828F83E08C828D83125216AE82AF8341
:10408300E01252BC124133C41252BC124127E05415
:10409300038C828D83124131A2E2E492E08C828D03
:1040A30083124130131313541F1252BCA312413015
:1040B300A2E7E492E08C828D83A3A3A3A3124127FA
:1040C3008E0C8F0D750E00780C12084A7C087D004B
:1040D300E508240712411B12087B1262C98E0C8F5C
:1040E3000D780C12084A7C037D00E508240F124169
:1040F3001B12087BE5082412F8E5093400F9E50AE8
:10410300C3940F400A8E828F83A3A3A3E08001E4AC
:1041130088828983F0024042FAE5093400FB1214D5
:10412300DE740322A3A312521A0EAF8322A3A3A306
:10413300A3F00261F674F412036E74F91208DDEA57
:10414300FEEBFF900342E07002A3E06010123BCC51
:1041530064027009EEFAEFFB120F988062900380FD
:10416300E06E7003A3E06F705674016960097A947E
:104173007B0312634870487A007B02124655700134
:10418300EB703C9003837808120A9985188285198D
:10419300837808120A8A900389E0C0E07404120A43
:1041A300D8D0E0F07405120AD87401F07406120A2C
:1041B300D87402125F4A120BF6E96098120BFC7472
:1041C30007024A1DE0F90249B474F612036E900324
:1041D300E0E0701F7C0079017A007B00120E60EA38
:1041E3007001EB600E8A828B83E07002A3E06003B0
:1041F300120DB20256E1C082C083124635401079D7
:10420300FF120E5AE9FA90234FE493C39A500479AC
:1042130001800279000249B474EE12036E8A088B9E
:1042230009890D750E00EA2408F50AEB124CA2E089
:10423300F9120E668A108B11AE10AF11750C01EED8
:104243007001EF60030242D0850882850983A3A32E
:10425300124CC7F98508828509831254B4120E4E95
:104263008A0A8B0BAE0AAF0BEE7001EF70030243A9
:10427300F38E828F83A3A3A3A3E4F0A3F0E5082422
:104283000B124402E0C0E012317AD0E0F0120F5C6E
:10429300EE240C125BE4750E01EE2406F8EF1246D1
:1042A30044E0547FF0A3E054FC1244EA5404600356
:1042B300024362901A61125135740778081209BBE0
:1042C3008A828B83E04508F0A3E04509F0EE2406DB
:1042D300F8EF124A91FCE9FD8C828D831254B47479
:1042E300805AF50874035BF50974077808120A7B92
:1042F300E508F510EE240412668EEE2409F508EFA6
:104303003400F509E50D6060740285088285098330
:10431300124134240D124F00E0A2E2500F90036EBD
:10432300124D84850A82850B83125406E5107003AF
:104333000243C0747F5AFA74FC5BFB74FF2510F5CB
:104343001074FF3400F511740778101209BBE510DF
:104353004AF8E5114BF98C828D83125406805EE096
:104363004480F0A3E00242CFE5107005750C008095
:104373004CEA542060151214FC8A10747F5510F80F
:10438300745F28850A82850B83801BEA5410600EB4
:104393001214FC8A10740F5510F8740F80E4850A08
:1043A30082850B837401F0A3E4F07404850882858D
:1043B300098312464C7001EB70031256B474016505
:1043C3000E7030850A82850B8312440AE0F9EEFAF7
:1043D300EFFB120E54E9601BEE240C12317D1246E2
:1043E300DD7001EB6003121586EEFAEFFB12158602
:1043F300750C00A90C800312087B7F0A0205C5FA1D
:10440300E5093400024DA5124AA88508828509836F
:104413002274F612036E74F71208DD7E00120E6624
:10442300EA7001EB70030244E58A828B83A3A3A3A2
:10443300A3A3A3A3A3A3E0640660030244E58A82C3
:104443008B83A3A3A3A3A3A3A3E0FF8A828B8312DB
:104453004F0EE0C0E07408120AD8D0E01244EAF824
:10446300A3E0F5838882125CD0125406120E847482
:10447300085FF9E47001E960678518828519831282
:104483004CAF7A007B00120E48EA7001EB7051903A
:104493000380124A96121D847C007D007A007B0003
:1044A30080288E828F83125A61E064FF7004A3E038
:1044B30064FF602C900380124CAF121AA8E9641AAF
:1044C300601E7C007D00EEFAEFFB120E488A088B1B
:1044D30009AE08AF09EE7001EF70C77900121D8AAB
:1044E3007E01EEF90256DC124DA2E02274F71203AC
:1044F3006EEA7001EB70059003E180068A828B837C
:10450300A3A31246DD7001EB60288A828B83A3A3E9
:10451300A3A3A3A3A3E05408F9E47001E960DDECCD
:104523007001ED6011125DDC6C7003A3E06D70CC63
:1045330080047A007B000248FE74F212036EEAFEE6
:10454300EBFF890A8C088D097A0E7B00121580EA2D
:104553007001EB603BE48A828B83A3A3A3A3A3A391
:10456300A3A3124596E50A1249131259AA8A828B0C
:1045730083A3A3A3A3E4F0124596A3A3F012668436
:10458300EA240CF582EB126917A3124D9CF0A3F0F9
:1045930002326FA3124917023BC774F512036EEA86
:1045A300FEEBFF890A8C088D09EE7001EF605674EB
:1045B30001650A70147901120E5AE9FA90235BE43B
:1045C30093C39A500F791180667404650A70301290
:1045D300463540F18E828F83A3A3A3A3A3A3A3A3F2
:1045E300A3E50A1252281269CCE4F0A3F09003E188
:1045F300E07002A3E09003E16024124D84800A740A
:1046030002650A60CF79C18026E824020808E9120E
:10461300464412474B7001E970EF8A828B83EEF0B8
:10462300A3EF12464C7001EB70031256B4790002EB
:104633005F447904120E5AE9FA902350E493C39A23
:1046430022124A91FAE9024DA5F0124651227A202C
:104653007B009003CEE0F912163AEA22C082C083AF
:10466300E9FC79009003E1801D8A828B83A3A3A3D5
:10467300A3A3A3A3A3A3E06C600574FF6C7001095B
:104683008A828B83A3A31246DD7001EB70DB0249A0
:10469300B474F712036EEA7001EB70059003E180C6
:1046A300068A828B83A3A31246DD7001EB60248A02
:1046B300828B83A3A3A3A3A3A3A3A3A3E06970E112
:1046C300EC60148A828B83E0240D1261F0A2E24035
:1046D300D080047A007B000248FE124946EA22C0D9
:1046E30082C0839003E180068A828B83A3A3124650
:1046F300DD7001EB60128A828B83A3A3A3A3A3A320
:10470300A3A3E06970E280047A007B000249B4C08D
:1047130082C0839003E1800688828983A3A3124722
:104723004B7001E9601B88828983E0FCA3E0F58379
:104733008C82E06A7003A3E06B70DDE8FAE9FB802A
:10474300047A007B000249B4124D96E82274F112F8
:10475300036E8A0A8B0B8C0C8D0D7508007509008E
:10476300EA7001EB60319003E180068E828F83A3B0
:10477300A31247A17001EF601EAC0CAD0DEEFAEF72
:10478300FB850A82850B83121F18E9640170DCEE36
:10479300F8EFF988088909AA08AB09024042E0FE4C
:1047A300A3E0FFEE22790002054B74F712036E902B
:1047B30003E1124D847C007D008007E8FCE9FD12D3
:1047C3004D84E87001E9603AE82402F582E9123188
:1047D30080EA687002EB6970E21254B49003E1124C
:1047E3006710E86E7002E96F70099003E1EAF0A3C5
:1047F300EB800EEAF8EBF98C828D83A3A3E8F0A398
:10480300E9F00248FE74F712036EEAFEEBFFEE7066
:1048130001EF6016120E7E12491DEA7001EB600370
:10482300121586EEFAEFFB1215860248FE74F71294
:10483300036E125DDCFCA3E0FD9003E1124D847571
:1048430008007E00803388828983A3A3A3A3A3A344
:10485300A3A3A3E0640570180E88828983E0FFA3F5
:10486300E0F5838F82E06C7003A3E06D70020508AE
:1048730088828983A3A3124D84E87001E970C7EA93
:104883002404F8EB3400F990234DE493FCE508C3CA
:104893009C500B90234EE493FCEEC39C400B888208
:1048A30089837401F0A3E4800A90036E124903EC38
:1048B300F0A3EDF074058A828B83A3A3A3A3A3A320
:1048C300124910A3A3E0F0A3E044081244EAFAA3B8
:1048D300E0FB8A828B83E064FF7004A3E064FF60E3
:1048E3000E900380124CAF121D7EE9641A70057995
:1048F30001121D8A8005741F12087B7F010205C502
:10490300124AA880033400F98882898322A3A3A3CF
:1049130012491722124DA2023BC78E828F83E024D5
:104923001C12494AFAA3E0FB1215868E828F83126A
:104933004946121586EE240C12493F22F582EF34C4
:1049430000F583E00226E3124F08E022C082C08311
:10495300EAFCEBFDEC7001ED70047905804CEC246E
:10496300FBF582ED34FFF583E07002A3E07011ECF8
:1049730024FFF8ED34FFF988828983E064FF600542
:1049830012150880D59003CE124CC0902352E493A5
:10499300F97AE37B03121538E96401700B7A007B23
:1049A300101256B879008002790480057402120847
:1049B3007BD083D08202054B74F412036EA2AFE462
:1049C30092E0F508C2AF9003E31247A17001EF60D4
:1049D3003DEE24FBF582EF34FFF583E07002A3E0A4
:1049E3007A007B109003CE60051256BB8005E0F978
:1049F300121544750A00750B00780A12084EEEFC76
:104A0300EFFD7AE37B03121532740212087BE5088B
:104A1300A2E092AFEEFAEFFB800312087B7F040261
:104A230005C574F712036E74E11208DDEA2413F569
:104A330082EB126929C0E07411120AD8D0E0124D3A
:104A43008F7409120AD8124D88124A89FCE9FD8C29
:104A5300828D83124D84740B120AD8124D8824144C
:104A6300F582EB126929C0E07412120AD8D0E0F083
:104A7300EA240EF582EB1231878C828D83124A96DB
:104A8300120D460248F92404124A8F22F8EB34002F
:104A9300F9E822124AA8851882851983AA82AB8372
:104AA30022A3A3A3A3E0FCA3E0FD2274EE12036EF2
:104AB30074FC1208DDEAFEEBFF120E36E96005799D
:104AC30011024C9DEE2412F510EF3400F511EE2483
:104AD30002F50AEF124CA2125BCF6008E485108244
:104AE300851183F0EE24131250717003741EF0EEDF
:104AF3002411F8EF125BB4701990121BE0600D9053
:104B0300036AE0700D8E828F83E07006E4888289E9
:104B130083F0EE2414080808EF1266DE700C90038D
:104B23005F124CC090035FE004F0EE240FF508EF32
:104B33003400F509EE240B12317290036DE0A2E10B
:104B4300504F850A82850B83125BCF60448E828F20
:104B530083E0600B850E82850F8312288160328586
:104B63000882850983E05440601A850C82850D8391
:104B7300E06401700F850882850983E054FBF0A38C
:104B8300E0F0800DEEFAEFFB120E9CE97003024A8F
:104B9300C28E828F83E06401701A850E82850F8333
:104BA300125DE06402700D850882850983E044404C
:104BB300F0A3E0F0850882850983E05440705790A4
:104BC300036DE0A2E1504F750C00780C120852EE11
:104BD3002406FCEF3400FD850A82850B831254B44E
:104BE300851082851183E0F9120D82740112087B0E
:104BF300E9600CE4851082851183F0124CB3F079DF
:104C0300008E828F83124CC7FAA3E0FB120CC8E913
:104C13006004124CB3F0851882851983AC82AD838E
:104C2300EEFAEFFB120EB48A0C8B0D850A82850B0C
:104C330083124CAFEA7001EB605C8E828F83E0C01D
:104C4300E07401120AD8D0E0F07402120AD8126696
:104C5300887401120AD885820A85830B780A1208A0
:104C63004E850882850983120684EE240E12692676
:104C7300F50878081208527405120AD8E0F9120EE2
:104C8300AE740512087BE9FE74106E700BAA0CABB0
:104C93000D12158680027E10EEF974040243FA3475
:104CA30000F50B850A82F583221266FF124AA822B9
:104CB300850882850983E04420F0A3E022E088820E
:104CC3008983F022124AA40231E0C082C08374DED9
:104CD3001208DD8A828B83A3A3A3A3124D84740ECF
:104CE300120AD8E8F0A3E9124D8F740C120AD812F5
:104CF3004D88240DF582EB126929C0E0741A120A5B
:104D0300D8D0E0F0EA240BF582EB124D8174201227
:104D13000AD8124D882415F582EB126929C0E07474
:104D230008120AD8D0E0F0EA241CF582EB124D8178
:104D33007412120AD812540674FF851882851983D7
:104D4300F07401120AD874FFF07402120AD874FFC7
:104D5300F09081851206807404120AD8AC82AD8368
:104D63007407120AD8AA82AB83120C327404120895
:104D73007B790074220249B1EE240BF582EF1267AE
:104D830002124D9622E8F0A3E9F0EA22124D9C129A
:104D93004D9622E0F8A3E0F922124DA2A3A322F03C
:104DA3008001FB8A828B832274EC12036E74F012EF
:104DB30008DD8A128B13ECFEEDFF890F7424120AAF
:104DC300D8E0F50C7425120AD8123B967427120A00
:104DD300D81262AA750D107A1E7B00121580740218
:104DE300120AD8125BEB7402120AD8E07002A3E035
:104DF3007003024EF9750E00EEFAEFFB120B368AC2
:104E0300828B83E5827002E583601CA3A3A3A3E0E6
:104E1300FA74016A600574036A700CE50854407003
:104E23000674044509F50974045509F9E47001E9A8
:104E33006003750E01851882851983AA82AB837975
:104E4300501254AB7402120AD8124F0EA3125BEB2A
:104E53007402120AD8E0240B124F007402F0120AF3
:104E6300D8124F0E7402F0120AD81256CB1266886B
:104E73007402120AD8125DD5E50FF07402120AD833
:104E8300E0240C124F00E50CF07402120AD8E0245F
:104E93001C124F00E512F0A3E513F07408120AD8B0
:104EA3001259AC740A120AD8E50CF0850A82850BF4
:104EB30083C082C083740D120AD8AC82AD83D083C1
:104EC300D08274031207ADA90E7402120AD8AA8203
:104ED300AB83120E3CE964017011E50E6008A90C66
:104EE300120E66120E8A750D00800B7402120AD818
:104EF3001254B4121586A90D74100262B2124F0433
:104F030022124F0822F8A3E0024908124F14A3A368
:104F1300221256D3023BC574EA12036EEAFEEBFF7C
:104F23008C088D098E828F83A385820A85830B74F7
:104F330008F0EE241612507160097410850A8285F8
:104F43000B83F0EE241712507F600A850A82850BCB
:104F530083E02408F0EE2411F8EF1266DE60057595
:104F63000E0E8003750E00EE240DF514EF3400F5DC
:104F730015850A82850B83E0851482851583FAE003
:104F83002A250E8C828D8312691E601390036BE0B9
:104F9300F9121448E9FA850882850983E02AF08525
:104FA3000882850983E0FAC3947540097508007582
:104FB300090002505F7B001265EA7001EB70030287
:104FC300505FEEFAEFFB120EBAEA85088285098379
:104FD300125BECEE2402F8125A67125097F0EE249B
:104FE300040808125A67A3A3125097A3A3F0EE2450
:104FF3001312508DF0EE241412508DA3F07A08850D
:105003000C82850D83E0600FEE2418124CACE5088A
:1050130024081262A07A10851082851183E0600F44
:10502300EE241A124CAC8A0CE508250C1262A0EE91
:10503300240B126926F510A3E0F511751200781000
:1050430012084A851482851583E0FC7D001253EE15
:10505300E50E28FAE43912506D12087BAA08AB0951
:105063007F0E0205C57D00EEFAEFFB024121F50C30
:10507300EF3400F50D850C82F583E022F510EF3453
:1050830000F511851082F583E0221266FF1250A10C
:10509300A3A3A322A3A31266A2A31250A122E08575
:1050A3000882850983A3A3A32274F612036E8A825E
:1050B3008B83E0FC90037012513574027808120957
:1050C300BBE5084CFCAD09EA241212512F74067893
:1050D300081209BBE5084CFCE5094DFDEA24111251
:1050E300512F740978081209BBE5094DFDEA24160E
:1050F30012512F740B78081209BBE5094DFDEA2400
:105103001712512F740C78081209BBE5094DFD8A5B
:10511300828B83A3A3A3A3A3A3125135740A780894
:105123001209BBECFAE5094DFB0256E1F582EB12DD
:105133006702E0F5087509002274F212036E8A080B
:105143008B09ECFEEDFFE98E828F83F012543FC092
:10515300E0EE241112317DD0E012543AC0E0EE2487
:105163001212317DD0E0125216A882A98312540C78
:105173006010E5082408FAE5093400FBEE24131255
:1051830052348E828F83A3A3A3A3A3A3A3A3E0601C
:105193001588828983E0FAE5082AFAE5093400FBD9
:1051A300EE2415125234EE2419126914EE241B1244
:1051B300691412691DF50AF50CE508250CF8E509D3
:1051C3003400F9EE241DFAEF3400FBEAFCEBFD8C0E
:1051D300828D831252212417FAEF3400FB8A088B45
:1051E300098E828F83E0C3950A8A828B83125228A9
:1051F300A3A3E0601B8A828B83E024F2F0E8240EF1
:10520300F8E9125416FA850882850983E0C39AF0F7
:1052130002326F12521A22F08E828F83A322E8F099
:10522300A3E9F0EE2212522C22F08E828F83023BEE
:10523300C71266FFEAF0A3EB1266A2E02408F0228D
:1052430074F412036E8A088B09EA1252C3F0EA134C
:1052530013543F1252BCA3A3A3F0EAC41313125274
:10526300C3A3A3F0E48C828D83A3A3A3A3A3F08A97
:105273000A8B0B7409780A120A7BE50A1252B3F0FF
:10528300EC2418F582ED1269178A0A8B0B740B78DC
:105293000A120A7BE50A1252AEF0740C7808120A5D
:1052A3007BE5081252AEA3F0024A201252B3A322A6
:1052B30054018C828D83023BC5540F8C828D8322D3
:1052C30054038C828D83A3A322C082C08379009070
:1052D300036A12602BA3A3A3E0600FEC70268A82FB
:1052E3008B83A3A3E0701D09801AEC60178A828B5D
:1052F30083A3A3A3A3A3A3A3A3A312530A7003A3E8
:10530300E06B70E30249B4124946900373E06A22EA
:1053130074EE12036E8A088B09890CECFEEDFF1202
:10532300543FC0E0EE241112317DD0E012543AC054
:10533300E0EE241212317DD0E012521685820A85E6
:10534300830B12540C6010E5082408F8E5093400B7
:10535300F9EE241312542C8E828F83A3A3A3A3A349
:10536300A3A3A3E060091253EEEE241512542CEE0E
:10537300FAEFFB120ECCE9F50D706B850A82850BF3
:1053830083E0F50EF510E5082510FAE5093400FB76
:10539300EE2417F8EF3400F988088909EE241DF884
:1053A300EF124A91FCE9FD8E828F83A3A3A3A3A3EB
:1053B300A3E07012EAF8EBF98C828D83125406E5B0
:1053C3000CC3950E8019EA240EF8EB125416FB85D4
:1053D3000A82850B83E0FAE50CC39A24F2C39B850A
:1053E3000882850983F0A90D0243FD850A82850B96
:1053F30083E0F8E50828F8E5093400F922E0123BD8
:105403006BA3A3E8F0A3E9F022740812522CA3A320
:10541300A3E0223400F98C828D83E8F0A3E9F090B5
:10542300036BE0F9121448E9221266FFE8F0A3E9DE
:105433001231DF2408F022125BA680D28A828B838A
:10544300124946120EC6850882850983A3A3125406
:105453007EE0F9EA8E828F83A3A3A3A3A3A3A3A3CE
:10546300A312548312547EA3A3E0F9EAF8EE240BAB
:105473001266FFE8125483A3A3E022E0FA0250A2CB
:10548300F0A3E9125BAA22C082C0837AE87B037986
:10549300E2121D4E7AE87B030249B4C082C08390B6
:1054A30003731254B40249B4121D4E851882851930
:1054B3008312494622C082C08374FE1208DD851818
:1054C30082851983AA82AB83794B1254AB0249AF0D
:1054D300C082C083794A121D4E0249B474F6120386
:1054E3006E9003F0E0FE04F0EEF9120E66EA70012E
:1054F300EB70EEEE60EBF90256E174EC12036EEA28
:10550300FEEBFF8C128D13890E7414120AD8E0F58A
:105513000A7415120AD8E0F50B750C00750D00120C
:105523000FD48A088B09EA7001EB7017E50B60034F
:105533000255F8A90EAC12AD13EEFAEFFB120FE011
:105543000256B1EA2402F8EB3400F9E50E6016883E
:10555300828983E0FAE50E2AFAE4340013EA13F0B1
:1055630070037401F0E50B60789003FBE07002A315
:10557300E060099003FB1256CB121F18E50A70175F
:10558300850882850983E0700302561114F06402D2
:10559300707C750D01807790036DE0A2E1507790E8
:1055A30003FDE07002A3E0600FA90AAA08AB09900B
:1055B30003FD1256CB121F18850882850983E0C3A9
:1055C30094045003E004F0E06403700A750C01EEE8
:1055D300FAEFFB120D94E4850882850983A3F0801A
:1055E3002D901A86E0C0E088828983E0FAD0E0C378
:1055F3009A501B809D7401650B7013E50E600F902C
:10560300036DE0A2E15015EEFAEFFB120D94900347
:105613006DE0A2E140257401650B701FE50A601679
:105623009003FFE004F0C0E0901A62E0FAD0E0C318
:105633009A4008750C01E49003FFF0E50D7004E552
:105643000C606B90036DE0A2E15030EEFAEFFB12B9
:105653000B368A088B09A808A909E87001E9601BC1
:10566300E82405F582E9123180E50D6004E0C2E02B
:10567300F0E50C6039E0D2E0F08004E50C602F9097
:10568300036DE0A2E15012EEFAEFFB120B30E9607A
:1056930008EEFAEFFB79008012900376E06E700358
:1056A300A3E06F7009EEFAEFFB7901120C6202625C
:1056B300B57A207B009003CEE0F912153E22A908AB
:1056C300801C8508828509831256CF221256D32265
:1056D300E0F8A3E0F583888222740912087B7F0235
:1056E3000205C5A2F0E492E01256F47952121D5459
:1056F30022851882851983F0024A9F1256F4794253
:10570300121D542274F412036E74EC1208DD74013A
:10571300120AD8AC82AD831258319003BFE0640201
:1057230070367A047900120B1E126696EA98EB998A
:105733005017120B12E970117405120AD87401F094
:105743007407120AD8740180527405120AD8E4F05F
:105753007407120AD8E480439081857808120A9965
:1057630075830375828B780812093360047A01808C
:10577300027A007405120AD8EAF09081857808123B
:105783000A9975830375828F780812093360047A46
:105793000180027A007407120AD8EA1257F4120A37
:1057A300D81257E37407120AD8E0700B7405120A73
:1057B300D8E07003E480027401851882851983F0B0
:1057C3009019F5E09019F4FAE05AFA8518828519D0
:1057D30083E05A1256FA7941121D547414024A1D79
:1057E300AA82AB83120E1E7AD17B037945121D5414
:1057F3002212582674012274F712036E74ED1208F4
:10580300DDE9FE9003CD125DF71258317412120ACE
:10581300D8EE1258268518828519831257E374131C
:105823000248FBF09019F9E0F97CD17D032290192D
:10583300F9E0F97AD17B03120E242274F412036E79
:10584300EAFEEBFF9019FBE064FE7004A3E064FF43
:10585300705C7A16125A4C7001EB605274018A82A2
:105863008B831266B5A3A3A3A3A3E0600474028091
:1058730002740188828983125D608A828B83A3A369
:10588300A3A3A3A3A3A3A3125A6FFCA3E0FDEA243B
:10589300020A0AEB1262A3E5082413F582E5091252
:1058A30069171258B412317A125F30125406024A41
:1058B30020AA08AB099003CEE0F912150E2274F268
:1058C30012036E74FD1208DD8A088B09890A8C0B9A
:1058D3007401120AD87404125BF18A0C8B0DAE0C9E
:1058E300AF0DEE7001EF700302597B124D7B74070D
:1058F30088828983F0A3A882A983E5082408124437
:105903000212599F8A828B83A312599F850882852D
:105913000983A3A3A3A3A3A3A3A3A3A3124CC0EE8E
:105923002416125997EE241812317D1259ACEE2425
:1059330017F582EF126148EE241A125BE4125986BE
:105943001266F77403650A60067401650A700874C9
:1059530040F0A3740480057440F0A3E4F09019FBB5
:105963001254007401650B7006EE2411126914EED3
:10597300FAEFFB120BEA800279109019FB1259BD62
:1059830002326AEE2413F582EF125990223400F5A5
:1059930083740122F582EF125990F022E088828904
:1059A30083F0A308A98322A3A3E508F0A3E509F0E4
:1059B30022A3A3A3A3A3A3A3A3A374FEF0A374FF8F
:1059C300F02274F412036EEAFEEBFF7A007B0412FA
:1059D30025DC125A571254067409900382F0120EF2
:1059E300D88A088B09AC08AD09EE241312317D1255
:1059F30054B41263486401704D7A0F125A4C70010B
:105A0300EB604374028A828B83F0EE241DF8EF125D
:105A13006A35125A61A3126030E0FBEC8508828577
:105A23000983A3A3F0A3EB12691EF8A3E0F583880F
:105A330082A3A3A3125A6B125A6FFAA3E0FB794A0B
:105A4300121D541258B4024A207B001215028A0810
:105A53008B09EA22900344124D96901A5F22124951
:105A630046024DA6EF124908E002440DA3F0EE24CE
:105A730015125A7822F582EF3400F583E02274F090
:105A830012036E74FD1208DD8A088B097401120A71
:105A9300D87402125BF18A0A8B0BAE0AAF0BEE705D
:105AA30001EF7003025B9F124D7B8882898374042C
:105AB300F0A3AA82AB83E4125BA6E06401700774CF
:105AC300208A828B83F0E5082405F8E509125BB48C
:105AD30070088A828B83E0D2E6F085088285098389
:105AE300A3A3A3A3A3A3E0640170098A828B83E029
:105AF300D2E78003125986F0EE241A12317212692A
:105B03004AEE241712668E88828983E0640170113D
:105B1300EE2416125989125BDDEE241812317D80B2
