:020000040000FA
:10000000F009001081020000850200008702000054
:10001000890200008B0200008D0200000000000039
:100020000000000000000000000000008F0200003F
:100030009102000000000000930200004D36000015
:10004000970200009702000097020000970200004C
:10005000970200009702000097020000970200003C
:10006000970200009702000097020000970200002C
:10007000970200002F190000EB0F0000A9150000E7
:1000800097020000970200008B0B0000C10B0000DC
:10009000A90F00004108000097020000970200002D
:1000A00097020000BD1D00009702000097020000AB
:1000B00005430000DF4200003D420000F541000022
:1000C00000F002F800F0B1F80CA030C8083824188D
:1000D0002D18A246671EAB4654465D46AC4201D180
:1000E00000F0A3F87E460F3E0FCCB6460126334201
:1000F00000D0FB1AA246AB46334318477C7400007D
:100100009C7400000023002400250026103A01D32F
:1001100078C1FBD8520700D330C100D50B607047BF
:1001200010B56E2902D105F052FD10BD702902D123
:1001300004F0FFFE10BD662902D106F06FFD10BD70
:10014000652902D106F06AFD10BD672902D106F0CB
:1001500065FD10BD612902D1C046C04610BD0368CF
:100160001B0A01D380231943692902D104F06CFED4
:1001700010BD642902D104F067FE10BD752902D1BB
:1001800004F062FE10BD6F2902D105F021FE10BD02
:10019000782902D104F0BAFE10BDE92902D105F098
:1001A000BDFD10BDE42902D105F0B8FD10BDF52953
:1001B00002D105F0B3FD10BDEF2902D105F014FE08
:1001C00010BDF82902D104F0AFFE10BD0368DB09B1
:1001D00001D380231943632902D106F06EF810BDC4
:1001E000732902D106F071F810BDE32902D106F09F
:1001F0007BF810BDF32902D106F07EF810BD002077
:1002000010BD1FB5C046C04606F0C4F8040000206B
:10021000002106F095FC401C60600020002106F0E3
:1002200079FCE0601FBD10B510BD06F08BF81146DB
:10023000FFF7E7FF03F03FFA06F0BEFB03B4FFF75A
:10024000F2FF03BC00F053FC70B505460C461646A1
:1002500002E00FCC0FC5103E102EFAD2082E02D3AA
:1002600003CC03C5083E042E07D301CC01C5361FBD
:1002700003E021782970641C6D1C761EF9D270BDD4
:1002800008480047FEE7FEE7FEE7FEE7FEE7FEE779
:10029000FEE7FEE7FEE7FEE703480449024A044B97
:1002A00070470000C1000000F0070010F0090010C6
:1002B000F0070010704700007CB515461A460C0088
:1002C000009001D00019401E074B7B446946019005
:1002D000284605F096FC002C054603D06946002010
:1002E00000F007F828467CBD5B5900007047704756
:1002F00070470A681070521C0A607047FFFFFFFFCA
:100300003049314A11600121304A116051600021A9
:1003100051600121516000BF2C494968C907C90FCC
:10032000FAD02A4940398868400A40020321014333
:10033000264A403A91602649896B80229143244A9B
:10034000916300BF21494039C968C907C90FF9D075
:1003500003211E4A116301215163002151630121D0
:10036000516300BF1949496BC907C90FFAD0012170
:10037000164A9163144909688900164A11601146AA
:100380000968154A1160704700B502200F494039CD
:100390000860002008620E48806B202188430C49C9
:1003A0008863002300E05B1CFF2BFCD9FFF7A8FF4C
:1003B00006484030006801210904084303494031E0
:1003C000086000BD001BB700000000104080044022
:1003D000008204400400001008000010A0211B4A05
:1003E00051621A49C03108610121184AC032516175
:1003F000002151610121516100BF1449C031496997
:10040000C907C90FF9D00121104AC03291611049C2
:10041000896B402291430E4A916370470B49C0316A
:1004200008620121094AC032516200215162012152
:10043000516200BF0549C031496AC907C90FF9D0E7
:100440000121024AC03291627047000000800440DE
:100450000082044010B5F348006840210843F14988
:1004600008601F2000F0D7F91E2000F0D4F91D20ED
:1004700000F0D1F91C2000F0CEF910BD70B5049C3D
:10048000002806D0012838D002286AD003287BD162
:100490009CE0002A18D1E44D6D6801268E40B543DA
:1004A000E14E7560002B07D13546AD6801268E40C0
:1004B000B543DD4EB5600EE0DB4DAD6801268E40E4
:1004C0003543D94EB56006E0D74D6D6801268E40A4
:1004D0003543D54E7560002C07D1D34DED6801260C
:1004E0008E40B543D04EF56006E0CF4DED68012655
:1004F0008E403543CC4EF5609DE0002A18D1CB4D9F
:100500006D6801268E40B543C84E7560002B07D13B
:100510003546AD6801268E40B543C44EB5600EE049
:10052000C24DAD6801268E403543C04EB56006E031
:10053000BE4D6D6801268E403543BC4E7560002C63
:1005400007D1BA4DED6801268E40B543B74EF56030
:1005500006E0B64DED6801268E403543B34EF5609A
:1005600069E0002A19D1B24D6D6801268E40B5436D
:10057000AF4E7560002B08D13546AD6801268E4020
:10058000B543AB4EB5600FE054E0A94DAD68012610
:100590008E403543A64EB56006E0A54D6D68012638
:1005A0008E403543A24E7560002C07D1A04DED68FA
:1005B00001268E40B5439E4EF56006E09C4DED68E9
:1005C00001268E4035439A4EF56034E0002A18D15A
:1005D000984D6D6801268E40B543964E7560002B90
:1005E00007D13546AD6801268E40B543914EB560C2
:1005F0000EE0904DAD6801268E4035438D4EB560BE
:1006000006E08C4D6D6801268E403543894E75603D
:10061000002C07D1874DED6801268E40B543854EED
:10062000F56006E0834DED6801268E403543814E2E
:10063000F56000E000BF00BF70BD002806D00128B3
:100640000CD0022812D0032820D117E0764A126974
:1006500001238B401A43744B1A6118E0734A1269E4
:1006600001238B401A43714B1A6110E0704A1269E2
:1006700001238B401A436E4B1A6108E06D4A1269E0
:1006800001238B401A436B4B1A6100E000BF00BF8F
:100690007047002806D001280CD0022812D0032869
:1006A00020D117E0604A126901238B409A435E4BC8
:1006B0001A6118E05D4A126901238B409A435B4B33
:1006C0001A6110E05A4A126901238B409A43584B31
:1006D0001A6108E0574A136901228A409343554A38
:1006E000136100E000BF00BF704710B50246002054
:1006F000002A06D0012A0CD0022A12D0032A20D1C7
:1007000017E0494B9B6901248C40234200D0012013
:1007100018E0464B9B6901248C40234200D0012005
:1007200010E0434B9B6901248C40234200D0012000
:1007300008E0404B9B6901248C40234200D00120FB
:1007400000E000BF00BF10BD002806D001280CD07B
:10075000022812D0032820D117E0334AD26901239E
:100760008B401A43304BDA6118E0304AD2690123DA
:100770008B401A432D4BDA6110E02D4AD2690123D8
:100780008B401A432A4BDA6108E02A4AD2690123D6
:100790008B401A43274BDA6100E000BF00BF70476F
:1007A00030B513468B408400234D2D5901248C40D5
:1007B000A4002B5130BD024690001F4B1B58012056
:1007C000884080001858704730B5002A11D0830047
:1007D000194CE3580124E4031B191B6801248C40C5
:1007E00023438400144D2C590125ED036419236023
:1007F00010E08300104CE3580124E4031B191B682C
:1008000001248C40A34384000B4D2C590125ED039A
:100810006419236030BDC206D20E01219140074AFF
:1008200011607047808004400080005000800150BB
:1008300000800250008003502C6C000000E100E0BA
:1008400070B500BF864A9268D0B240104007400F92
:10085000032820D1824A5269D1B29E22114205D08A
:10086000804A11607E4A1268D3B270BDCA07D20FA7
:100870003ED07B4C2468E5B27B4C2268541C7A4EF7
:1008800034607A4CA55432461268802A30D3002254
:10089000344622602CE0022811D1714C2468E5B264
:1008A000714C2268541C704E3460704CA554324612
:1008B0001268802A1CD300223446226018E00628E1
:1008C00007D1684A1268FF2401342243654C226034
:1008D0000EE001280CD1624A5269D1B220221142A5
:1008E00003D00122624C227002E00022604C227090
:1008F00000BFBAE7F8B5044601205D490870002042
:100900005949086000BF1520012181405948016004
:1009100000BF5948406AC008C000574948620846AD
:10092000406A01210843544948620846806AC00869
:10093000C00088620846806A012108434E498862E7
:100940004E4800680121090308434C490860012012
:10095000886183204249C8604848876939464848C9
:10096000006804F027FC06092146304604F022FC0A
:100970000546280A3A494860E8B208600320C86082
:10098000072088600846476900BF354840696021F4
:1009900008406028F9D101E03148076830484069D3
:1009A000C007C00FF8D100BF152001218140314898
:1009B0008038016000BF052029494860F8BD0AE081
:1009C00000BF274A526920231A42FAD00278244BEA
:1009D0001A60401C491E0029F2D1704700BF20490F
:1009E000496920221142FAD01D490860704700B5BC
:1009F000034603E018785B1CFFF7F0FF1878002827
:100A0000F8D100BD0FB400B59BB01DA800906421C3
:100A100001A8009B1C9AFFF74FFC01A8FFF7E7FF16
:100A20001BB008BC04B018470146164800680E4ABF
:100A30001268904211D00D48124A1268805C08700A
:100A400010480068401C0F4A10601046006880285B
:100A500001D300201060012070470020FCE7000057
:100A60000080004018000010100000103401001039
:100A70000C00001080E100E08040044080800440D1
:100A8000080000101400001000BF1E494969202210
:100A90001142FAD01B490860704710B503460C4656
:100AA0001846FFF7F1FF10BD00BF17480068002887
:100AB000FBD0062013494860002013490860072036
:100AC0001049486011480078704710B50446FFF798
:100AD000EBFF0346FFF7D8FF10BD00B503461846ED
:100AE000FFF7D2FF00BD01460020C043704700BFA2
:100AF000FEE700BF03484069C007C00FFAD00148B5
:100B000000687047008000401000001034010010A1
:100B100070B504460D46002C1AD10220F8494860F1
:100B20000020C8607D21C900F648006804F042FB3F
:100B30006843F3498861FF20086004204861012070
:100B4000486000BFEE484068C007C00FFAD11BE004
:100B5000012C19D10220EC4948600020C8607D2199
:100B6000C900E848006804F025FB6843E64988614D
:100B7000FF200860042048610120486000BFE2486F
:100B80004068C007C00FFAD170BDDD480068C007DB
:100B9000C00F07D00120DA490860DC480068401C1B
:100BA000DA490860D64800681021084207D01020B2
:100BB000D3490860D6480068401CD5490860704792
:100BC000D1480068C007C00F07D00120CE49086097
:100BD000D0480068401CCF490860CB48006810210D
:100BE000084207D01020C8490860CB480068401C64
:100BF000C94908607047002803D10121C04A5160EB
:100C000002E00121C04A51607047002803D1002151
:100C1000BB4A516002E00021BB4A51607047014667
:100C2000002906D1B64A506802221043B44A5060E7
:100C300005E0B54A506802221043B34A506070473D
:100C400070B504460D46002C47D1B4480068012118
:100C500049020843B1490860B148006AC008C000B1
:100C6000AF4908620846006A02210843AC4908629D
:100C70000846406AC008C00048620846406A02212F
:100C80000843A74948620846806AC008C0008862D5
:100C90000846806A02210843A1498862A04880383A
:100CA0000069C008C0009E49803908610846006993
:100CB000022108439A49803908610020934908605D
:100CC000934908608E48856105208D49886203201C
:100CD0004861122000F05BF922E0012C20D18F48FE
:100CE0000068A10208438D4908608D484069C0082A
:100CF000C0008B4948610846406902210843884981
:100D00004861002083490860834908607E48856106
:100D100005207D49886203204861132000F037F9DF
:100D200070BD70B504460D46002C12D17B4800689A
:100D3000012149020843794908600020734908608D
:100D40006F48856103206E494861122000F01FF949
:100D500012E0012C10D171480068A10208436F49CC
:100D6000086000206B490860674885610320664978
:100D70004861132000F00BF970BD30B505460C46F4
:100D800013462846FFF741FF012D62D163480068F2
:100D9000A902084361490860B320C00018435A49BA
:100DA000C863D807C00F0ED05D484038C06BC0087C
:100DB000C0005B494039C8630846C06B0321084343
:100DC00057494039C863022003420BD05448006899
:100DD000C008C00052490860084600680321084363
:100DE0004F490860042003420BD04D480069C008F9
:100DF000C0004B490861084600690321084348497F
:100E00000861082003420BD045484069C008C00073
:100E10004349486108464069022108434049486106
:100E2000012018433849403148633E480460006857
:100E3000354948623B480068400888613948006885
:100E40004008C861374800684008086202204861CD
:100E500055E0324800680121490208432F490860E3
:100E6000CB20C00018432649C863022003420BD0A0
:100E70002B48806AC008C000294988620846806AF9
:100E80000221084326498862042003420ED02448E8
:100E900080380069C008C0002149803908610846CF
:100EA0000069022108431E49803908610820034275
:100EB0000ED01B484038406BC008C000184940396C
:100EC00048630846406B032108431549403948638D
:100ED000082018430A4940314863134804600068F9
:100EE000074948621048006888610F480068400858
:100EF000C8610D480068400808620815486130BDA7
:100F00000040014008000010008001402400001053
:100F10002C000010280000103000001080800440D9
:100F2000804004403800001034000010002816D023
:100F3000002906D0012907D0022908D003290CD1A5
:100F400008E0164B9A6109E0144BDA6106E0134B96
:100F50001A6203E0114B5A6200E000BF16E000295C
:100F600006D0012907D0022908D003290CD108E0B6
:100F70000B4B9A6109E00A4BDA6106E0084B1A62F2
:100F800003E0074B5A6200E000BF00BF7047C20693
:100F9000D20E01219140034A116070470080014048
:100FA0000040014000E100E0FE49C869C107C90FE7
:100FB00007D0FD490968491CFB4A11600121F94A23
:100FC00011620221084207D0F8490968491CF74A12
:100FD00011600221F34A11620421084204D0F4494D
:100FE0000968491CF24A11607047F249C869C10793
:100FF000C90F07D0F0490968491CEF4A1160012167
:10100000EC4A11620221084207D0EC490968491CE8
:10101000EA4A11600221E74A11620421084204D021
:10102000E7490968491CE64A1160704710B5044653
:10103000002C47D1E348406801210843E14948605A
:10104000E04880300068C9140843DE4980310860F8
:1010500002204861DC48006AC008C000DA49086222
:101060000846006A01210843D74908620846406AD9
:10107000C008C00048620846406A01210843D249BE
:1010800048620120D04940310863CF490863CD4808
:101090008030006840210843CA4980310860CA484E
:1010A0004038C069C008C000C7494039C861012242
:1010B00002210020FFF788FB012202210020FFF718
:1010C0006FFB54E0BF48406804210843BD494860B5
:1010D000BC4880300068012189040843B949803147
:1010E00008600220C861B848C069C008C000B6499D
:1010F000C8610846C06902210843B349C861B248C3
:101100004030C068C008C000AF494031C8600846E0
:10111000C06802210843AC494031C860AA48403841
:10112000806AC008C000A849403988620846806AC1
:1011300002210843A44940398862A24880300068EF
:10114000402108439F49803108609F4840388068AB
:10115000C008C0009C49403988600122002102205B
:10116000FFF732FB012200210220FFF719FB10BD1F
:1011700010B50446002C69D192484068012108430B
:10118000904948608F4880300068C91408438D49F1
:1011900080310860022048618B48006AC008C000A6
:1011A000894908620846006A0121084386490862A5
:1011B0000846406AC008C00048620846406A0121EB
:1011C00008438149486202207F49403108637E49D3
:1011D000C8607C48803000684021084379498031EC
:1011E000086079480068C008C0007749086001229B
:1011F00004210220FFF7E8FA012204210220FFF770
:10120000CFFA714840380068C008C0006E494039C4
:101210000860012206210220FFF7D6FA01220621EA
:101220000220FFF7BDFA68484038006AC008C000D5
:10123000654940390862012207210220FFF7C4FAFC
:10124000012207210220FFF7ABFA54E05D48406815
:10125000042108435B4948605A48803000680121F6
:10126000890408435749803108600220C861564804
:10127000C069C008C0005449C8610846C06902215D
:1012800008435149C86150484030C068C008C00098
:101290004D494031C8600846C068022108434A49A8
:1012A0004031C86048484038806AC008C00046499C
:1012B000403988620846806A022108434249403921
:1012C0008862404880300068402108433D498031B1
:1012D00008603D4840388068C008C0003A4940393D
:1012E0008860012200210220FFF76EFA012200210E
:1012F0000220FFF755FA10BD70B5054600BF002D5E
:1013000016D1324827490860FE200861002404E015
:1013100024488068C6B2601CC4B2082CF8DB1420D4
:1013200000F035F902201F4948600320486115E0AC
:1013300026482049086002200861002404E01D4876
:101340008068C6B2601CC4B2082CF8DB0E2000F026
:101350001EF90220174948600320486170BDF8B5A6
:1013600007460D46164600980090002F30D1681EA3
:101370000721090208430B4908600846066100245A
:1013800005E008488068C0B20090601CC4B2082C18
:10139000F7DB142000F0FBF802200249486003202C
:1013A00048612FE00000044040000010440000109D
:1013B0003C000010008005404C0000105000001060
:1013C000480000100080044040400440070700002F
:1013D000681E072109020843704908600846066133
:1013E000002405E06D488068C0B20090601CC4B263
:1013F000082CF7DB0E2000F0CAF80220674948608D
:1014000003204861F8BD70B500BF00232DE000281F
:1014100015D100BF624DED6812263540022DF9D17D
:101420000D785F4EB560491C00BF5D4DED68142618
:101430003540042DF9D15A4DAD68ECB214E000BF2F
:10144000564DED6812263540022DF9D10D78534ED8
:10145000B560491C00BF514DED6814263540042D80
:10146000F9D14E4DAD68ECB25B1C9342CFD370BD49
:1014700030B500231FE000280ED1FF24484DAC609A
:1014800000BF474CE46814252C40042CF9D1444C8F
:10149000A4680C70491C0DE0FF24404DAC6000BFF7
:1014A0003E4CE46814252C40042CF9D13B4CA46834
:1014B0000C70491C5B1C9342DDD330BD0246002AF0
:1014C00019D100BF3648C068122318400228F9D14C
:1014D0003348816000BF3248C06810231842FAD1F7
:1014E00000BF2F48C068142318400428F9D12C48A5
:1014F000806880B2704700BF2848C0681223184037
:101500000228F9D12548816000BF2448C068102313
:101510001842FAD100BF2148C0681423184004289B
:10152000F9D11E48806880B2E4E770B504460D46E4
:10153000002C28D1002207210220FFF731F900BF3B
:101540001748C0680221084204D01548C06810211D
:10155000084201D0012000E000200028F0D110480E
:10156000856000BF0E48C06810210842FAD100BF54
:101570000B48C068142108400428F9D10122072132
:101580000220FFF70DF90648806880B270BDC206E0
:10159000D20E01219140034A11607047008005403E
:1015A0000000044000E100E010B501208007406821
:1015B000C1B24807400F75D1CB1005F088FA0CB3C3
:1015C000071523AB393AB464AC7496B30020AC4A27
:1015D0001060AC480078012292079060282090614A
:1015E0000120A94A1060A2E00020A84A1060A54886
:1015F0000078012292079060282090610220A24A80
:10160000106094E0A048006801280DD19C4A106841
:10161000421C9B4B1A609E4A1268125C01239B0776
:101620009A600420984A10600820C20690617EE00B
:1016300000BF93480068974A126890420ED2904AC1
:101640001068421C8E4B1A60914A1268125C01238A
:101650009B079A6004208C4A106010E08E48006856
:10166000002806D02020420610600320864A106021
:1016700005E00520844A10601020820610600820D2
:10168000C206906153E084480068012803D1042019
:101690000207906102E00420020710600820C206E1
:1016A000906144E03EE0012292079268D3B2774A0B
:1016B0001068421C754C2260784A12681354204608
:1016C0000068754A1268904205D204206E4A106084
:1016D0000207106005E005206B4A10600420020735
:1016E00090610820C206906121E001229207926871
:1016F000D3B2664A1068421C644C2260674A126882
:1017000013540520604A10601020820610600820E3
:1017100090610CE000BF0820C206906105205A4A83
:10172000106004E000BF0820C206906100BF00BF47
:1017300010BD00210020202253061A600BE0524AFF
:101740001268012A01D1012006E0554A914201D3D5
:10175000002001E0491CF2E700BF7047102081061D
:1017600008600820886100BF012080070068102100
:101770000842F9D10120704702464A4840680223D6
:101780001843484B5860474880300068202318436E
:10179000444B803318604448006B80098001424B01
:1017A00018631846006B012318433F4B1863184613
:1017B000406B8009800158631846406B0123184331
:1017C000394B58636C201B049861FF2081305861AD
:1017D0001861022A01D15007C16000BF0F20012308
:1017E00083403248036000BF402003061860012098
:1017F000704700B50020244908602449086020494A
:101800000860FFF796FF012803D0FFF7A7FF00202D
:1018100000BD06E01C480068052802D1FFF79EFFC6
:1018200000E0F7E700BF0120F2E770B504460D467F
:1018300016462046012108431249087017480560E2
:1018400015480660012013490860FFF7D2FF1248CF
:1018500000681149086070BD70B504460D46164613
:10186000084804700A4805600A48066000200A49D2
:101870000860FFF7BEFF074800680649086070BDB2
:10188000640000107C000010540000106000001084
:101890006C00001078000010740000107000001040
:1018A000FFFFFF00008004400040044000E100E032
:1018B00030B5024600BFC04B1B680124E40323423D
:1018C000F9D17F23BC4C6360531C236000BFBA4B2B
:1018D0001B680124E4032342F9D118235343B74C76
:1018E0001819B54B5B690124A403234208D0B24BFD
:1018F00019691C466469B24D2C402404214303E05D
:10190000AD4B5B69DB04590D02C0AB4B9B691B07F8
:101910001B0F08C0A84BDB6908C0A74B1B6A08C097
:10192000A54B5B6A08C0A44B9B6A08C030BD70B56C
:1019300000BF32E00120C003064214D09E48803828
:1019400045684020054205D09E480068401C9D49DE
:10195000086070BD802005421FD09B480068401C75
:1019600099490860F5E76807400F16D17404640CC4
:10197000002C12D0202C10D88F48803840681021BD
:1019800088438D4980394860611EC8B2FFF790FFD7
:101990000121601E80008D4A1150874880380669F9
:1019A000002EC7D100BFD4E70021002053E0F3226E
:1019B000814B803B5A6200291AD100229A62844AE4
:1019C000DA6200221A63C21DF93292000123DB039E
:1019D0001A43794B803B5A63C207D20F02D17D4A2A
:1019E0009A6322E07C4A744B803B9A6301211CE09D
:1019F0007A4A714B803B9A62794ADA6282B21A6300
:101A0000012212058218120C03239B031A436A4B0E
:101A1000803B5A63C207D20F02D16E4A9A6304E038
:101A20006D4A654B803B9A6300210022624B803BEC
:101A3000DA63614B403B1A605A609A60421C5E4B0D
:101A4000803B1A6200BF5C4A803A126A0123DB03C2
:101A50001A42F8D1401C2028A9D3704710B504467B
:101A600060484068082108435E4948605D4880300E
:101A700000680121490408435A49803108604E48F2
:101A800080380068C007C00F07D14B488038006815
:101A900001210843484980390860052052490860FF
:101AA0004548803800684021084343498039086030
:101AB0004E48C8600020886108460068402188437D
:101AC0003D498039086008460068400840000860C9
:101AD00000BF394880380068C007C00FF9D1FFF750
:101AE00063FF00BF0D20012181404148016000BF1C
:101AF0003148803800680E2108432F49803908603A
:101B000010BDF0B503460C46002A01D100BFFEE728
:101B100002CA002C02D0CE00B00800E0084620CA5D
:101B2000082D00D908250126B60731420ED18600BE
:101B300005277F033E43204F803F7E6300263E63A0
:101B40001F4EF61EFE620026BE620CE0060C072742
:101B50007F033E43184F803F7E6386B23E63254E2F
:101B6000FE621E4EBE622E07360F2327FF013E4344
:101B7000114F803FBE6340CAFE6340CA0E4F403FD4
:101B80003E6040CA7E601668BE60F7260A4F803FFE
:101B90007E62002C02D09E1C3E6203E05E1C064F5B
:101BA000803F3E6200BF044E803E366A0127FF033D
:101BB0003E42F8D1F0BD0000800005403402001024
:101BC000FF5F00008400001080000010B4010010CE
:101BD000FC1F00008810000088140000FFFF0000B8
:101BE000FF9F0000008004408001054001230000A9
:101BF00000E100E0FFDF000070B505466848806B3B
:101C000010218843664988636648006801214903BA
:101C1000084364490860002404E00020A100624AEF
:101C20005050641C082CF8D3604840698F218843C9
:101C30005E49486108464069012108435B494861A3
:101C40005A484038C06A8F21884358494039C86291
:101C50000846C06A0121084354494039C8625348C4
:101C600080698F2188435149886108468069012134
:101C700008434E49886129464D48006803F09AFAA6
:101C8000401E00024B4908434B49086070BD70B5C7
:101C900005464348806B1021884341498863414889
:101CA00000680121490308433E490860002404E01C
:101CB0000020A1003C4A5050641C082CF8D33B483B
:101CC0004038406B8721884338494039486308468B
:101CD000406B022108433549403948633348006866
:101CE000872188433149086008460068022108437B
:101CF0002E49086029462E48006803F05BFA401E12
:101D000000022C4908432C49086070BD30B50146DB
:101D1000082900DB002128480068000A0002264C40
:101D20002060204604680120884001252D062843B4
:101D300004432148046007E088001F4C0019026931
:101D4000D00FC00700D000E0F6E700BF1A480068D7
:101D500007242406A043184C20600120800702427B
:101D600001D0002030BD1004830D1846FAE7124858
:101D7000006807210906084204D00F48006888431C
:101D80000D4908600C480068FF2108430A490860B3
:101D900008460068012109040843074908607047A4
:101DA00000820440808004403405001080400440DC
:101DB000080000100100200000C001404249C9682D
:101DC000424A116003E04049C968404A11603F49F6
:101DD00009683F4A9142F6D2AA213B4A91605521B7
:101DE0009160002000E0401C0121C9048842FAD320
:101DF0003549C968354A116003E03349C968334A37
:101E0000116032490968012252029142F5D32E49EC
:101E10000968042291432C4A11601146096808227E
:101E20009143294A116070472A4909680122D20367
:101E30001143284A11603F21264A803A51622649BF
:101E4000896B40229143244A91630221214A403206
:101E5000116101215161002151610121516100BFD6
:101E60001C4940314969C907C90FF9D08021194A75
:101E7000403291610021154A116000BF19210122F1
:101E80008A4016490A6000BF15490F4A516009137C
:101E9000516001211160AA219160552191600020BB
:101EA00000E0401C0121C9048842FAD30849064ACF
:101EB0005161112111600B4991617047AA200249BB
:101EC0008860552088607047004000408C000010FA
:101ED000FF010000808004400082044000E100E037
:101EE000FFFF3F00FF020000F1B582B02148846986
:101EF0004069019020490298484300900199009858
:101F000003F058F907460199009803F053F90D467C
:101F1000002F0ED000260AE000BF16488069A042BC
:101F2000FBD300BF13488069A042FBD8761CBE4299
:101F3000F2D3002D1DD0A54206D200BF0D48806906
:101F4000611B8842FAD814E0A54205D100BF0948B8
:101F50008069A042FBD30CE000BF06488069A04224
:101F6000FBD300BF034881692A1B0198801A814274
:101F7000F8D8FEBD00E000E080BB000010B50022F4
:101F800003211046FEF720FC002204210120FEF769
:101F90001BFC002208210120FEF716FC002209216B
:101FA0000120FEF711FC00220A210120FEF70CFCA3
:101FB00000220B210120FEF707FC10BD10B50821FF
:101FC0000120FEF7F8FB002801D1012010BD0921F6
:101FD0000120FEF7F0FB002801D10220F6E70A21DC
:101FE0000120FEF7E8FB002801D10320EEE70B21DA
:101FF0000120FEF7E0FB002801D10420E6E70321E1
:102000000020FEF7D8FB002801D10520DEE70421DF
:102010000120FEF7D0FB002801D10620D6E70020E2
:10202000D4E7000010B5012209210220FEF7CCFB05
:10203000012209210220FEF7B3FB01220A2102201E
:10204000FEF7C2FB01220A210220FEF7A9FB0122B2
:102050000B210220FEF7B8FB10BD70B50446202C02
:1020600001DBFF2403E0E006C00E11490C5C0022F6
:1020700009210220FEF794FB002511E000220A212D
:102080000220FEF78DFBE207D20F0B210220FEF7A4
:1020900087FB641001220A210220FEF781FB6D1CE0
:1020A000082DEBD3012209210220FEF779FB70BD38
:1020B0004C6C000000BF0146421ED0B20029FAD18C
:1020C000704770B50646002510E000230AE00024A2
:1020D00004E0CB20FFF7EEFF601CC4B20F2CF8DB4E
:1020E000581CC3B2832BF2DB681CC5B2B542ECDBD3
:1020F00070BD10B50446002205210220FEF750FBFA
:10210000002204210220FEF74BFB21460020FFF7AE
:10211000D5F9012204210220FEF742FB012205210C
:102120000220FEF73DFB10BD10B50446012205213B
:102130000220FEF735FB002204210220FEF730FBCF
:1021400021460020FFF7BAF9012204210220FEF700
:1021500027FB012205210220FEF722FB10BD70B5EE
:1021600004462546E117090F091909110901611AE9
:10217000C8B2FFF7BEFF2546E117090F091909117B
:1021800008461030FFF7B5FF70BD10B5044620209B
:10219000FFF7AFFF2046FFF7ACFF10BD70B5054657
:1021A0000C462120FFF7A5FF2846FFF7A2FF204697
:1021B000FFF79FFF70BD70B505460C462220FFF764
:1021C00098FF2846FFF795FF2046FFF792FF70BD66
:1021D00010B504462146402211430846FFF789FF07
:1021E00010BD10B504468120FFF783FF2046FFF79E
:1021F00080FF10BD10B504468D20FFF77AFF214601
:10220000102211430846FFF774FF10BD10B50446B5
:102210002146A02211430846FFF76BFF10BD10B501
:1022200004462146A42211430846FFF762FF10BD71
:1022300010B504462146A62211430846FFF759FF70
:1022400010BD10B50446A820FFF753FF2046FFF746
:1022500050FF10BD10B504462146AE22114308467A
:10226000FFF747FF10BD10B504462146B0221143C9
:102270000846FFF73EFF10BD10B504462146C022B8
:1022800011430846FFF735FF10BD10B50446D320B3
:10229000FFF72FFF2046FFF72CFF10BD10B50446B7
:1022A000D520FFF726FF2046FFF723FF10BD10B50E
:1022B0000446D920FFF71DFF2046FFF71AFF10BD87
:1022C00010B50446DA20FFF714FF2146022211431D
:1022D0000846FFF70EFF10BD10B50446DB20FFF7E0
:1022E00008FF2046FFF705FF10BD10B5E320FFF7FC
:1022F00000FF10BD70B50646002410E02046FFF731
:10230000B2FF0020FFF72BFF002504E03046FFF767
:102310000BFF681CC5B2802DF8DB601CC4B2082C12
:10232000ECDB70BD10B50020FFF7E4FF10BDFFB57A
:1023300081B00D4616461F462C4615E02046FFF795
:1023400092FF3846FFF70BFF0020009006E001984F
:10235000FFF7EAFE0098401CC0B200900A9900986E
:102360008842F4DB601CC4B2701C8442E6DB05B01A
:10237000F0BD70B5002413E02046FFF774FF002085
:10238000FFF7EDFE002507E05520FFF7CDFEAA2060
:10239000FFF7CAFE681CC5B2402DF5DB601CC4B255
:1023A000082CE9DB70BD70B50020FFF75CFF002052
:1023B000FFF7D5FE002404E00120FFF7B5FE601C06
:1023C000C4B2802CF8DB0720FFF74DFF0020FFF799
:1023D000C6FE002404E08020FFF7A6FE601CC4B205
:1023E000802CF8DB002411E02046FFF73CFF00259D
:1023F00008E02846FFF7B3FEFF20FFF795FE2846CA
:102400007F30C5B2802DF4DB601CC4B2082CEBDB3E
:1024100070BDFFB581B007460D46012F02D0022FD7
:102420000BD104E0A8002818FF49441805E0681EF5
:1024300081004018FD49441800BF00BF0398FFF712
:1024400012FF0498FFF78BFE002605E02078FFF7C7
:102450006BFE641C701CC6B2052EF7DB0020FFF774
:1024600063FE05B0F0BDFFB581B007460D461E46C0
:102470002C46334660210120039AFFF7CAFF0CE087
:10248000217833463846039AFFF7C3FF641CB01D1A
:10249000C6B22078002800D100E0F1E700BF05B007
:1024A000F0BDFFB583B005460E461746029534468B
:1024B00019E02046FFF7D7FE0698FFF750FE0020F0
:1024C00001900AE002990878FFF72EFE0298401C5E
:1024D00002900198401CC0B201900C99019888426A
:1024E000F0DB601CC4B2781C8442E2DB07B0F0BDB4
:1024F000FFB581B00F46144604982038810040187B
:10250000C94945180198FFF7AEFE002F0BD10020F6
:10251000FFF725FE002C03D10020FFF705FE02E0A7
:10252000FF20FFF701FE791CC8B2FFF718FE002656
:102530000DE0002C03D12878FFF7F6FD04E02978A0
:10254000C943C8B2FFF7F0FD6D1C701CC6B2052E62
:10255000EFDB002C03D10020FFF7E6FD02E0FF20B7
:10256000FFF7E2FD05B0F0BDF8B506460F4614468C
:102570000025082E18DA08E023783A462946304626
:10258000FFF7B6FFA81D85B2641C2078002801D093
:10259000012000E00020691C89B2802901DA0121B4
:1025A00000E000210842E7D1F8BDFFB581B0154633
:1025B0001F46A320FFF79DFD0298FFF79AFD2846CE
:1025C000FFF797FD0198002802D0012825D111E0DE
:1025D00000240CE0E0B2FFF7FBFD002603E0C8207A
:1025E000FFF768FD761C0A988642F8D3E419AC42DE
:1025F000F0D312E000240DE0291BC8B2FFF7E8FD7C
:10260000002603E0C820FFF755FD761C0A98864295
:10261000F8D3E419AC42EFD300BF00BF0020FFF7AE
:10262000D7FD05B0F0BDFFB581B004460D46164696
:102630001F462146262211430846FFF75AFD002077
:10264000FFF757FD2846FFF754FD3846FFF751FDC9
:102650003046FFF74EFD2F20FFF74BFD0A98FFF79E
:1026600030FD05B0F0BDFFB581B004460D461646FD
:102670001F46A320FFF73DFD3846FFF73AFD0A98B5
:10268000FFF737FD21462931C8B2FFF732FD0020A0
:10269000FFF72FFD2846FFF72CFD0C98FFF729FDCB
:1026A0003046FFF726FD0B98FFF723FD2F20FFF79D
:1026B00020FD0D98FFF705FD05B0F0BD10B52E20EB
:1026C000FFF717FD10BD10B50120FFF7C3FD002473
:1026D0000CE0E0B2FFF785FDC820FFF7EBFCC82057
:1026E000FFF7E8FCC820FFF7E5FC641CD02CF0D312
:1026F00010BD10B5D0240DE0611EC8B2FFF771FD0A
:10270000C820FFF7D7FCC820FFF7D4FCC820FFF78C
:10271000D1FC641E002CEFD10020FFF79BFD10BD03
:1027200010B50446002C02D0012C0ED106E000208A
:10273000FFF790FD0120FFF772FD06E00020FFF794
:102740006EFD0120FFF786FD00BF00BF10BD012018
:10275000FFF765FD0BE00120FFF77CFD0220FFF78E
:10276000B0FC0020FFF776FD0220FFF7AAFCF2E79D
:1027700010B50020FFF76EFD8020FFF78FFD3F2092
:10278000FFF75FFD0020FFF780FD0020FFF720FD31
:102790000020FFF72FFD0220FFF7F7FC0120FFF7D5
:1027A00035FD0820FFF768FD1020FFF789FDCF20D9
:1027B000FFF717FD2220FFF77AFD4020FFF78CFD81
:1027C0000020FFF72CFD0020FFF732FD0020FFF76F
:1027D00091FD0120FFF73EFD10BD10B5012205213E
:1027E0000220FDF7F1FF0020FFF734FD8020FFF706
:1027F00055FD3F20FFF725FD0020FFF746FD002097
:10280000FFF7E6FC0420FFF7F5FC0220FFF7BDFC14
:102810000120FFF7FBFC0820FFF72EFD1020FFF73B
:102820004FFDCF2004E000003C6D0000F17100007E
:10283000FFF7D7FCF120FFF73AFD4020FFF74CFDF2
:102840000020FFF7ECFC0020FFF7F2FC0020FFF770
:1028500051FD0120FFF7FEFC10BD00B587B05AA264
:1028600007CA04AB07C30020FFF744FD30230093E1
:102870002823052202215748FFF713FE0520FFF702
:1028800020FCFFF736FF0520FFF71BFCFFF71BFFBF
:102890000520FFF716FC202300930123402200218E
:1028A0000846FFF782FE0520FFF70BFC202300936C
:1028B0000123402200211846FFF777FE0520FFF78D
:1028C00000FCFFF7FBFE0520FFF7FBFB01230022C6
:1028D0002020019303930292009013461146104664
:1028E000FFF7C1FE0520FFF7ECFB012300221F21AB
:1028F000202003936B4607C3134611461046FFF78B
:10290000B2FE0520FFF7DDFB02230022012120207B
:1029100003936B4607C31346032200210846FFF7C3
:10292000A2FE0520FFF7CDFB022300221F2120205D
:1029300003936B4607C31346032200210120FFF7D0
:1029400092FE0520FFF7BDFB02230022012120207B
:1029500003936B4607C31346072204210120FFF7A8
:1029600082FE0520FFF7ADFB022300221F2120205D
:1029700003936B4607C31346072204210020FFF789
:1029800072FE0520FFF79DFBFFF798FE0520FFF77D
:1029900098FBFF20FFF7AEFC0520FFF792FBFFF747
:1029A000E8FC0520FFF78DFB0020FFF7A3FCFFF7F5
:1029B000FAFC0520FFF785FB2523032204A901204B
:1029C000FFF751FD07B000BD354E49564953494FF9
:1029D0004E0000007C6C0000FFB587B005460E4637
:1029E000174600207B4908600846006806900521CC
:1029F0000120FDF74EFE012205211046FDF7E4FE01
:102A0000002205210120FDF7CBFE1E20FFF76CFA06
:102A1000012205211046FDF7C3FE002205210120F9
:102A2000FDF7D2FE00231A46052101200093FDF791
:102A300025FD05210120FDF700FE002412E0E3073B
:102A4000DB0F009300231A4605210120FDF716FD38
:102A500000BF6048016806988142FAD05D4800686E
:102A60000690641C032CEAD3002482E00123009327
:102A700000231A4605210120FDF700FD00BF55483F
:102A8000016806988142FAD0524800680690524880
:102A90000068039000231A46052101200093FDF7EA
:102AA000EDFC00BF4B48016806988142FAD04948C6
:102AB00000680690484801680398814205D246495B
:102AC00003980968401A029006E043480168039899
:102AD000081A4249081A0290082C10D20A98007865
:102AE0004006010E0A9801703D49029888423FD382
:102AF0000A980078012108430A99087038E0102CE0
:102B00000CD238784006000E387035490298884259
:102B10002ED3387801210843387029E0182C0CD2C4
:102B200030784006000E30702D49029888421FD33D
:102B300030780121084330701AE0202C0CD228781C
:102B40004006000E287026490298884210D3287843
:102B50000121084328700BE005984006000E0590FF
:102B60001F490298884203D3012105980843059024
:102B7000641C282C00D279E70123009300231A4615
:102B800005210120FDF77AFC00BF12480168069874
:102B90008142FAD005210120FDF77BFD0A980078DB
:102BA0000490397804980818C0B2049031780498D9
:102BB0000818C0B20490297804980818C0B204908C
:102BC00005990498884202D101200BB0F0BD002085
:102BD000FBE70000080100101401001080BB00009A
:102BE0001809000008B500210091012269468820DB
:102BF000FEF732FE012269468820FEF716FE68467F
:102C0000007808BD08B5012100910122694688209D
:102C1000FEF722FE012269468820FEF706FE68467E
:102C2000007808BD704708B5002168460170802112
:102C30004170022269468820FEF70EFEB548B6496B
:102C4000086001200004B549086008BD38B5044695
:102C5000FFF7D8FF054628460C2188430546A0000B
:102C60002843C5B2012168460170457002226946B9
:102C70008820FEF7F1FD002C06D0012C08D0022C94
:102C80000AD0032C10D10BE0A248A34908600BE046
:102C9000A348A149086007E0A2489F49086003E0F3
:102CA000A1489D49086000BF00BF38BD38B5002469
:102CB00000210120FEF760FDFFF7B4FFFFF7B3FF2F
:102CC0000120FFF7C3FF04210091012269468820FB
:102CD000FEF7C2FD012269468820FEF7A6FD684680
:102CE000047805210091012269468820FEF7B4FD91
:102CF000012269468820FEF798FD684600780002A8
:102D0000044385480068444384480168204602F033
:102D100051FA0446204638BD38B50546FFF762FF34
:102D2000044620460C2188430446A8002043C4B230
:102D30000021684601704470022269468820FEF72F
:102D40008BFD38BD38B50446FFF74CFF0546AD088E
:102D5000AD002846204305460021684601704570B5
:102D6000022269468820FEF777FD002C06D0012C50
:102D700009D0022C0CD0032C13D10EE0012000044A
:102D8000664908600DE0012000036449086008E01E
:102D9000FF2001306149086003E010205F490860AE
:102DA00000BF00BF38BD38B5044600255B4909683F
:102DB000614308465849096802F0FCF905460221BA
:102DC000684601702804010E684641700222694677
:102DD0008820FEF741FD38BD38B5044600254F492F
:102DE0000968614308464C49096802F0E3F9054661
:102DF0000321684601702804010E684641700222D2
:102E000069468820FEF728FD38BD38B50546FFF72E
:102E1000F9FE0446204620218843044620462843E4
:102E200004460121684601704470022269468820E8
:102E3000FEF712FD38BD10B5FFF7E4FE0446202072
:102E40002040400910BD38B5FFF7DCFE044620469F
:102E500020218843044641216846017044700222C3
:102E600069468820FEF7F8FC38BD38B5FFF7BAFE92
:102E700004462046802188430446002168460170AC
:102E80004470022269468820FEF7E6FC2046402175
:102E900008430446002168460170447002226946D6
:102EA0008820FEF7D9FC38BD10B586B0FFF73AFA96
:102EB0001EA200210846FFF757FB00210120FEF764
:102EC0005BFCFFF7AFFEFFF7AEFE0120FFF7BEFE93
:102ED00018A001F067FF19E0FFF7E8FE044623465B
:102EE00015A21421684601F06BFF6A4600210220FA
:102EF000FFF73AFB214612A001F054FFFA20FEF73B
:102F0000F3FFFFF75BF8062800D100E0E4E700BF1D
:102F100006B010BDCD03000090000010940000101A
:102F2000340F0000D03C000040F300004C6967689B
:102F3000740000000D0A00002564202020200000FD
:102F4000256420200000000008B50921009101221D
:102F500069463A20FEF780FC012269463A20FEF7D6
:102F600064FC6846007808BD08B51621009101226E
:102F700069463A20FEF770FC012269463A20FEF7C6
:102F800054FC6846007808BD38B5044616216846EA
:102F900001704470022269463A20FEF75DFC38BD9C
:102FA00010B50520FFF7F0FF10BDF8B504460D463B
:102FB000164600BFFFF7C8FFC007C00FFAD00621B2
:102FC0000091012269463A20FEF746FC012269463B
:102FD0003A20FEF72AFC6846007840B220700721AC
:102FE0000091012269463A20FEF736FC012269462B
:102FF0003A20FEF71AFC6846007840B22870082193
:103000000091012269463A20FEF726FC012269461A
:103010003A20FEF70AFC6846007840B23070F8BDEE
:1030200070B505460024FFF79FFF044620460C219B
:1030300088430446A8002043C4B22046FFF7A4FFFB
:1030400070BD70B505460024FFF78EFF0446A40846
:10305000A4002046284304462046FFF795FF70BD94
:1030600070B58AB00024002500260021039102914A
:103070000191FFF757F936A200210846FFF774FACD
:1030800000210120FEF778FBFFF78AFF01AA02A9C1
:1030900003A8FFF78AFF68460C2141564C420821DD
:1030A00041564D42042141564E4201AA02A903A8AD
:1030B000FFF77BFF6846007B001941B20391684629
:1030C000007A401941B2029168460079801941B2F4
:1030D000019168460C23C3561FA2142104A801F0D5
:1030E0006FFE04AA00210220FFF73EFA68460C2179
:1030F00041561CA001F056FE68460823C3561DA287
:10310000142104A801F05CFE04AA00210320FFF7AB
:103110002BFA68460821415619A001F043FE684683
:103120000423C3561AA2142104A801F049FE04AADC
:1031300000210420FFF718FA68460421415617A021
:1031400001F030FEFA20FEF7CFFE0AB070BD00009D
:10315000417869732D33000041636320783A20255C
:10316000642020000D0A41636320783A2025642CF6
:103170002020000041636320793A2025642020004C
:1031800041636320793A2025642C20200000000050
:10319000416363207A3A2025642020004163632044
:1031A0007A3A2025642E200010B501460C78641E62
:1031B000E2B2002305E0CC5CAA2C01D1541CE2B29F
:1031C0005B1C0C789C42F6D8087803E08C5C60406D
:1031D000541EE2B2002AF9D110BDF3B581B00D46FC
:1031E000802208210020FEF7BAF80198FFF7DCFFE3
:1031F0000090AA210020FEF798F90024BB210020AE
:10320000FEF793F92855641C00270AE00198C15D78
:103210000020FEF78AF92855641C0120FEF764FEA1
:103220007F1C01980078B842F0D800200099FEF782
:103230007CF92855641CC820FEF756FE0120287032
:1032400000210846FEF771F9AA2806D002220821BB
:103250000020FEF784F80020FEBD0120FEF744FEAA
:1032600000210846FEF761F9BB2806D0022208219A
:103270000020FEF774F80020EEE70120FEF734FE90
:1032800001984078012806D0202806D0212806D0B1
:10329000222808D105E00B2607E0072605E01326C3
:1032A00003E0032601E0072600BF00BF002700243B
:1032B00009E000210846FEF738F928550120FEF7FD
:1032C00013FE7F1C641CB742F3D9022208210020A0
:1032D000FEF745F8E0B2BFE770B586B005461421A9
:1032E00001A801F065FF002208210220FDF76CFA19
:1032F00001A8FFF759FF06466846007901A9085C56
:10330000B04212D1002404E0A01C01A9085C285599
:10331000641C042CF8DB002028550BA20021072098
:10332000FFF722F9012006B070BD09A20021062096
:10333000FFF71AF90CA200210720FFF715F90CA0DE
:1033400001F030FD0020EEE74F6B20202020200010
:10335000202020202020202020202020202020206D
:1033600020202020200000004E6F20436172640066
:103370000D0A4661696C200070B504460D460022B6
:1033800011460220FDF70CFAE8008022104362008B
:10339000104301460120FEF791F800210120FEF7BD
:1033A0008DF8C6B2012200210220FDF7F9F930465E
:1033B00070BD10B502210120FFF7DEFF0446A40610
:1033C000A40E042C2FD100210120FFF7D5FF99492D
:1033D000994A12888854084697490988405CDD2834
:1033E00007D1002094490880DD209249924A128832
:1033F0008854904890490988405CAA2807D1002049
:103400008D490880AA208B498B4A128888548A48A3
:103410000088401C88490880084600886C2807DB23
:103420000020088004E000210120FFF7A5FF0446EA
:1034300010BD70B504460D46164600221146022006
:10344000FDF7AEF9E8006200104301460120FEF7E7
:1034500035F831460120FEF731F801220021022023
:10346000FDF79EF970BDF8B505460E46BF22032153
:103470002846FFF7DEFF02212846FFF77DFF0446BE
:10348000204610210843024602212846FFF7D1FFBB
:10349000032211462846FFF7CCFF01212846FFF7FB
:1034A0006BFF04462046102188430246012128462E
:1034B000FFF7BFFF04212846FFF75EFF04462046C2
:1034C00080218843024604212846FFF7B2FF832269
:1034D00003212846FFF7ADFF3146E120000301F04C
:1034E00069FE84B2E2B200212846FFF7A2FF221251
:1034F00001212846FFF79DFF032211462846FFF7CA
:1035000098FF00212846FFF737FF002203210846D5
:10351000FDF75AF900231A46032108460093FCF7E9
:10352000ADFF03210846FDF788F801221146284621
:10353000FFF77FFF00212846FFF71EFFF8BD70B59B
:1035400005460C4600BF05212846FFF715FF202140
:103550000842F8D0224600212846FFF76AFF70BDD6
:1035600010B5044621460020FFF7E9FF10BD10B555
:10357000044604E021780020FFF7E1FF641C207876
:103580000028F7D110BD10B5044621460120FFF7F1
:10359000D6FF10BD10B5044604E021780120FFF7E6
:1035A000CEFF641C20780028F7D110BD0246002A07
:1035B00017D122480088224B1B88984229D02148E5
:1035C0001E4B1B88C05C08701C480088401C1B4BAD
:1035D0001880184600886C2801DB00201880012024
:1035E000704719480088144B1B88984211D0114825
:1035F000154B1B88C05C087013480088401C124B98
:103600001880184600886C2801DB002018800120F3
:10361000E6E70020E4E710B5044621460020FFF766
:10362000C5FF10BD10B5044621460120FFF7BEFFBF
:1036300010BD0000C00500109C0000109A00001092
:1036400098000010540500109E00001010B5FF48AF
:103650000068401CFD490860084600680146FF39C3
:10366000F5390FD1002201210320FDF799F8F84820
:103670000078401CF649087008460078C006C00E65
:10368000087017E0F14800687D21C900884211D315
:10369000F0480068401CEF490860EF480068401C93
:1036A000ED490860012211460320FDF779F800205A
:1036B000E649086010BD88B0E848E949086001F0B3
:1036C00078FA00230093019324230022AA21E548DD
:1036D00001F00BFAE34801F026FA1AE0E24800781C
:1036E000002815D124220021DE4801F03AFD0023F4
:1036F0000093019324230022AA21DA4801F0F5F96E
:10370000D84801F010FA7D200001FEF7EDFB00E043
:1037100000E0E3E700BF16E0D4480078242811DA7F
:103720000020D1490870CE480068FFF77BFFCC48E5
:103730000068401CCA490860CC480078401CCB494E
:10374000087000E000E0E7E700BF0020C74908700C
:10375000C248C3490860084600680078AA2804D116
:10376000084600684078C249087024220021C148F8
:1037700001F0F7FC2422B949BE48FCF765FD24227C
:103780000021B84801F0EDFCB648B5490860B848DA
:1037900000780968C8700023009301932423B4487B
:1037A0000278AA21AF4801F0A0F9AE4801F0BBF9B8
:1037B0002CE0AD480078002800D127E00020AA497D
:1037C0000870AD480178ADA001F0ECFAAA48417844
:1037D000B2A001F0E7FAA8488178B8A001F0E2FAB7
:1037E000A548C178BDA001F0DDFAA1480178C3A0C9
:1037F00001F0D8FAA0480078AA2806D19E48C078DF
:103800009B490978884200D101E000BFD1E700BFA1
:103810008AE290480068022849D924220021914870
:1038200001F09FFCBC4ABD49BD4800F0A1FDBD4868
:1038300000F002FEBC4800F05CFEBC4800F0ADFEAB
:10384000BA4800680390B4480068B649029003C9BA
:1038500001910090B4480068B04907900A78684622
:10386000027649784176AE490A7802754978417501
:10387000AF4805A90EC901F0FBF80023AC4A01933B
:1038800000921A466521AB4801F008F90023A94AC5
:1038900001930092242376480278BB21714801F0FD
:1038A00024F9704801F03FF900206A4908606A482D
:1038B0000068032804D9FEF701FB00206649086070
:1038C00024226D496B4801F00BFC6A480078DD2822
:1038D00062D1684840786649097888425CD1654879
:1038E000037903F0F4F80C070D282F1354545419DE
:1038F0001F243354002211460320FCF751FF4AE0F5
:10390000012200210320FCF74BFF44E000220221AA
:103910001046FCF745FF3EE0012202210020FCF7A3
:103920003FFF38E04A480078FEF797FB33E020205D
:10393000FEF793FB2FE0002000F074FA012000F066
:1039400071FA28E0002000F06DFA24E00122002145
:103950000320FCF725FF012202210020FCF720FFB5
:103960002020FEF77AFB002000F05CFAFEF7DAFC7C
:1039700071A21021734801F023FA724A002101203C
:10398000FEF7F2FD70487149086100BFFEE770A0C4
:1039900001F008FA00BF2CE036480078DD2828D175
:1039A00034484078FF2824D1324800790B2820D1B0
:1039B000012200210320FCF7F3FE01220221002056
:1039C000FCF7EEFE2020FEF748FB002000F02AFA6C
:1039D000FEF7A8FC58A210215A4801F0F1F9594A03
:1039E00000210120FEF7C0FD57485849086100BF7B
:1039F000FEE75C48007800281DD000205949087077
:103A00000021594801F011F8574B00220193009210
:103A100013466B21474801F041F80023454A0193C2
:103A20000092242312480278EE210E4801F05DF83E
:103A30000C4801F078F84D480078002805D00020A7
:103A40004A4908700121484892E0AAE0B4000010F9
:103A5000B0000010A8000010AC0000102C060010F0
:103A6000D8000010FC0600100C010010B10000107E
:103A7000A400001020070010C00500100D0A2D2D15
:103A80002D2D2D2D2D2D2D5350493735325F72623E
:103A900075665F315B305D3A257800000D0A2D2D8B
:103AA0002D2D2D2D2D2D2D5350493735325F72621E
:103AB00075665F315B315D3A257800000D0A2D2D6A
:103AC0002D2D2D2D2D2D2D5350493735325F7262FE
:103AD00075665F315B325D3A257800000D0A2D2D49
:103AE0002D2D2D2D2D2D2D5350493735325F7262DE
:103AF00075665F315B335D3A257800000D0A2D2D28
:103B00002D2D2D2D2D2D53544F524147455F4E5590
:103B10004D3A257800000000C0000010BB000010E6
:103B2000B9000010C8000010C4000010D000001040
:103B3000C8060010E006001049276D20646965641E
:103B4000000000008C060010F8FFFFFF00E000E01E
:103B50006E6F7420777269746520636F6D6D616E2E
:103B6000640000000E010010D60000100F010010CC
:103B700000F05BFF6D4B00220193009213466B2116
:103B80006B4800F08BFF0023694A019300922423C5
:103B900068480278EE21684800F0A7FF664800F008
:103BA000C2FF6648007800281DD0002063490870D5
:103BB00002215E4800F039FF5C4B00220193009225
:103BC00013466B215A4800F069FF0023584A0193BD
:103BD0000092242357480278EE21574800F085FFD1
:103BE000554800F0A0FF5648007800281DD000205E
:103BF0005349087003214D4800F017FF4B4B00223A
:103C00000193009213466B21494800F047FF0023BF
:103C1000474A01930092242346480278EE21464801
:103C200000F063FF444800F07EFF4648007800281B
:103C30001DD000204349087004213C4800F0F5FEE7
:103C40003A4B00220193009213466B21384800F052
:103C500025FF0023364A0193009224233548027839
:103C6000EE21354800F041FF334800F05CFF364854
:103C7000007800281DD000203349087005212B480A
:103C800000F0D3FE294B00220193009213466B21D2
:103C9000274800F003FF0023254A019300922423C4
:103CA00024480278EE21244800F01FFF224800F04B
:103CB0003AFF26480078002835D0002023490870B4
:103CC00023491C48007800F0F4FD002827D0242266
:103CD0000021194801F045FA30221D491D48FCF722
:103CE000B3FA00231A461B48009301681A4800F0F3
:103CF000A5FE00230093184A72210D48019300F09D
:103D0000CDFE00230A4A0193009224230948027839
:103D1000CC21094800F0E9FE074800F004FF082123
:103D20000220FCF78AFC30BF73E50000D6000010CB
:103D3000E0060010A4000010FC06001010010010A6
:103D40001101001013010010120100100D010010EC
:103D50005C060010DC000010AC0600100FB470B55B
:103D60006946498A481E062101F02EFA85B2681C70
:103D70000621484384B26946088AA04201DD05262F
:103D800006E06946098A481E062101F01DFA8EB236
:103D9000FEF7C8FA00210846059AFEF7E5FB502316
:103DA000002266211046FEF7A3FB672300226C2148
:103DB0001046FEF79DFB2023002272211046FEF7DD
:103DC00097FB28463130C3B2002278211046FEF717
:103DD0008FFB002420E06846418A062068430019D2
:103DE000401C81420BD10621694309198B0006A9A9
:103DF000CA58A11CC8B20121FEF7B6FB0AE0062191
:103E0000694309198B0006A9CA58A11CC8B2002130
:103E1000FEF7AAFB601C84B2B442DCDD70BC08BCB7
:103E200004B0184710B50446002C0ED0012C10D158
:103E30007F20D049C8600122CF4801681046FCF7B6
:103E40009CFF0120FCF7D7FE03E00120FCF7DDFE1C
:103E500000BF00BF10BD10B5C0B0022110A801877F
:103E600001214187C5A01F90C5A02090C8A11EA810
:103E7000C160782222A96846FCF7E6F91EA80FC89F
:103E8000FFF76CFFFA20FEF72FF86BE0FEF796F8CD
:103E90000446012C06D0022C1CD0052C33D0062C55
:103EA00055D150E010A8408F012806DD10A8408FA2
:103EB000401E81B210A8418702E010A8018F4187FF
:103EC000782222A96846FCF7BFF91EA80FC8FFF7A1
:103ED00045FF3DE010A8418F008F814206DA10A80F
:103EE000408F401C81B210A8418702E0012010A938
:103EF0004887782222A96846FCF7A6F91EA80FC8B1
:103F0000FFF72CFF24E010A8408F012802D00228E0
:103F100016D10AE0002211460320FCF741FC0022E2
:103F200001210320FCF73CFC0BE0012200210320CF
:103F3000FCF736FC012211460320FCF731FC00E0BF
:103F400000BF00BF04E0002010A9488700E000BFC8
:103F500000BF002C06D010A8408F002802D0FA2005
:103F6000FDF7C2FF10A8408F00288FD140B010BDD0
:103F700010B5C0B0022110A801870121418788A097
:103F80001F9089A020908DA11EA8C160782222A92F
:103F90006846FCF759F91EA80FC8FFF7DFFEC820D6
:103FA000FDF7A2FF5DE0FEF709F80446012C06D0FC
:103FB000022C1CD0052C33D0062C47D142E010A88F
:103FC000408F012806DD10A8408F401E81B210A846
:103FD000418702E010A8018F4187782222A9684614
:103FE000FCF732F91EA80FC8FFF7B8FE2FE010A8A3
:103FF000418F008F814206DA10A8408F401C81B2A9
:1040000010A8418702E0012010A94887782222A940
:104010006846FCF719F91EA80FC8FFF79FFE16E0C7
:1040200010A8408F012802D0022808D103E0012007
:10403000FFF7F8FE04E00020FFF7F4FE00E000BF09
:1040400000BF04E0002010A9488700E000BF00BFC7
:10405000002C06D010A8408F002802D0FA20FDF7CF
:1040600043FF10A8408F00289DD140B010BD10B56F
:10407000C0B0022110A801870121418754A01F90E0
:1040800054A0209057A11EA8C160782222A968469A
:10409000FCF7DAF81EA80FC8FFF760FEFA20FDF75C
:1040A00023FF61E0FDF78AFF0446012C06D0022CB5
:1040B0001CD0052C33D0062C4BD146E010A8408FE5
:1040C000012806DD10A8408F401E81B210A841874C
:1040D00002E010A8018F4187782222A96846FCF7E8
:1040E000B3F81EA80FC8FFF739FE33E010A8418FC0
:1040F000008F814206DA10A8408F401C81B210A8C0
:10410000418702E0012010A94887782222A9684649
:10411000FCF79AF81EA80FC8FFF720FE1AE010A8B7
:10412000408F012802D002280CD105E00022022194
:104130001046FCF735FB06E0012202210020FCF7C7
:104140002FFB00E000BF00BF04E0002010A948875B
:1041500000E000BF00BF002C06D010A8408F002850
:1041600002D0FA20FDF7C0FE10A8408F002899D198
:1041700040B010BD00800140E00000104C454400FC
:10418000312E5475726E206F6E204C454400000035
:10419000322E5475726E206F6666204C45440000C6
:1041A000537065616B657200312E5475726E206FAD
:1041B0006E20537065616B6572000000322E54757D
:1041C000726E206F666620537065616B65720000C9
:1041D00046414E00312E5475726E206F6E2046415E
:1041E0004E000000322E5475726E206F66662046B7
:1041F000414E000010B551480068401C4F4908600E
:1042000001210020FCF771FA0446002C08D04C482C
:104210000068401C4A49086001210020FCF794FA1C
:1042200003210020FCF761FA002806D0012045494F
:10423000087003210020FCF787FA10BD10B5042197
:104240000120FCF752FA002805D001203E490870F1
:104250000421FCF779FA05210120FCF746FA002831
:104260000CD03A4880693A4908603A480068401CD6
:104270003849086005210120FCF766FA0821012071
:10428000FCF733FA002805D00120334908700821D3
:10429000FCF75AFA09210120FCF727FA002805D07B
:1042A00001202E4908700921FCF74EFA0A2101204D
:1042B000FCF71BFA002805D00120294908700A21C3
:1042C000FCF742FA0B210120FCF70FFA002805D079
:1042D0000120244908700B21FCF736FA10BD10B5F7
:1042E00008210220FCF701FA00280AD001201E490B
:1042F000087008210220FCF7CCF908210220FCF705
:1043000023FA10BD10B502210320FCF7EEF90028B6
:1043100003D002210320FCF717FA03210846FCF71B
:10432000E4F9002808D0012010490870FFF741F88F
:1043300003210846FCF708FA10BD0000E800001051
:10434000EC000010130100101201001000E000E06A
:1043500014010010080100100E0100100F010010E0
:1043600010010010110100100D0100100C010010CF
:10437000F0B587B005460C461646631C2246691CFC
:104380002846FEF729FBC7B200210120FDF7F4F90A
:10439000FEF748FCFEF747FC0120FEF757FCFEF74E
:1043A00085FC3060002F29D0FDF7BCFF9A480378C8
:1043B0002A78019300926B7898A2102103A800F04C
:1043C000FFFC03AA00210120FEF7CEF8237800931A
:1043D000637897A2102103A800F0F2FC03AA002141
:1043E0000220FEF7C1F895A2142103A8336800F05B
:1043F000E7FC03AA00210320FEF7B6F807B0F0BDE2
:1044000070B505460E46002400BF04E0285DFFF7A6
:10441000BAF8601CC4B2B442F8DB70BD70B5054692
:104420000E46002400BF04E0285DFCF7D7FA601CAC
:10443000C4B2B442F8DB70BDF0B589B0044683481D
:10444000FDF725FC0020FDF761FC2060206801F0ED
:10445000CCF905467E4A7F4B01F0CAF900227E4B1B
:104460000191009000F092FF0391029000F050FF44
:1044700007467A49384602F079FB054601F0FEFA14
:1044800020600320FDF742FC6060606801F0ADF938
:1044900005466F4A6F4B01F0ABF900226E4B01915C
:1044A000009000F073FF0391029000F031FF074687
:1044B0006A49384602F05AFB054601F0DFFA6060AF
:1044C0000A21206800F076FE0D460A21206800F0DF
:1044D00071FE0646034662A2152104A8009500F06D
:1044E0006FFC04AA00210420FEF73EF8012009B069
:1044F000F0BDF0B585B00446002500260027002059
:1045000020706070A07000210120FDF735F9FEF7E2
:1045100047FDA21C611C2046FEF747FD605745423F
:10452000012020564642022020564742A21C611C10
:104530002046FEF73AFD2078401940B2207060789E
:10454000801940B26070A078C01940B2A0700023FA
:10455000E35647A21421684600F032FC6A46002167
:104560000520FEF701F80123E35644A21421684612
:1045700000F026FC6A4600210620FDF7F5FF022325
:10458000E35641A21421684600F01AFC6A46002155
:104590000720FDF7E9FF05B0F0BD10B50446002186
:1045A0000320FCF708F9002802D00020207001E069
:1045B0000120207001210320FCF7FDF8002804D021
:1045C000207801210843207003E02078022108436D
:1045D000207002210020FCF7EEF8002802D0002015
:1045E000607001E00120607001210846FCF7E3F8EB
:1045F000002802D00020A07001E00120A0700B2153
:104600000220FCF7D8F8002802D00120E07001E079
:104610000020E07010BD0000A400001054656D7013
:104620003A2025642E25642049443A256400000080
:1046300048756D3A2025642E256400006C69676812
:10464000742025642020202000000000009F24000A
:104650009A99999999990D4000F88F40000020414E
:10466000566F6C746167653A2025642E2564560088
:1046700041636320783A2025642020004163632051
:10468000793A202564202000416363207A3A20256E
:104690006420200010B5802208210020FCF75FFE76
:1046A0000120FDF721FC002208210220FCF78CF8F4
:1046B00010BDF3B583B00746002207210220FCF7A6
:1046C0006FF8049B02F003FA065B04193A40465B5C
:1046D0000A20BC4908702120487000208870012001
:1046E000C870002406E0B848015D201DB54A115489
:1046F000601CC4B2062CF6DB42E01A20B1490870F7
:1047000022204870002088700120C870002406E034
:10471000AD48015D201DAB4A1154601CC4B2062C8B
:10472000F6DB002407E0A948015D20460A30A54ACF
:104730001154601CC4B2102CF5DB21E00220A14909
:104740000870012048701BE002209E49087020205C
:10475000487015E00A209B4908702420487000200A
:1047600088700120C870002406E09748015D201D74
:10477000944A1154601CC4B2062CF6DB00E000BF62
:1047800000BF9048FEF710FD0290AA210020FCF720
:1047900095FE0120FDF7A8FB0025BB210020FCF7BA
:1047A0008DFEC2B228466D1C3A540120FDF79CFBD9
:1047B00000260CE08348815D0020FCF77FFEC2B23A
:1047C00028466D1C3A540120FDF78EFB761C7D486F
:1047D0000078B042EED800200299FCF76FFE7855C1
:1047E0006D1CFF20F530FDF77FFB012038700021A4
:1047F0000846FCF763FE0120FDF776FB0021084622
:10480000FCF75CFEAA2807D0022208210020FCF752
:10481000A6FD002005B0F0BD0120FDF765FB0021DD
:104820000846FCF74BFEBB2806D0022208210020D8
:10483000FCF795FD0020EDE70120FDF755FB6148F1
:104840004078012806D0202807D0212808D0222827
:104850000CD108E00B2001900BE00720019008E04C
:104860001320019005E00320019002E00720019051
:1048700000BF00BF0026002509E000210846FCF724
:104880001DFE78550120FDF72FFB761C6D1C01984D
:104890008642F2D3012207210220FBF781FF01208B
:1048A000FDF722FB022208210020FCF758FDE8B2A8
:1048B000B0E770B506460C46002521464448FEF791
:1048C0008CFC0546284670BD10B54248C06BC00838
:1048D000C000401C3F49C863012211461046FBF747
:1048E00073FF10BD10B50446FFF7EEFF0120FFF780
:1048F00099FA7D20C000FDF7F7FA0020FFF792FA41
:1049000010BD70B50446FFF7DFFF002505E0224625
:1049100001210846FBF744FF6D1C052DF7DB70BD38
:10492000FEB506460F46002E0AD12BA20021062016
:10493000FDF71AFE2EA200210720FDF715FEFEBD91
:104940000025002425E06C2C1DDC7B5D2AA20421BF
:10495000684600F035FA68460378A1B200220620C6
:10496000FDF7C6FDA41D68464378A1B200220620CB
:10497000FDF7BEFDA41D68468378A1B20022062083
:10498000FDF7B6FDA41D1EA200210720FDF7ECFDDA
:104990006D1CB542D7DB00BFD1E770B505460E46AA
:1049A000144608210220FBF706FF002808D1214603
:1049B0002846FFF77EFF6420FDF796FA012070BDC0
:1049C0000020FCE74407001018010010220100102D
:1049D0001874000040400440202020202020202087
:1049E0002020202020202020202020202000000027
:1049F0004661696C0000000025303258200000003C
:104A00004F4B000001704270704701704270704758
:104A10000160704710B54CB2047054B244705CB27F
:104A2000847010BD0160426070470170704710B51E
:104A3000029C017042708370C47010BDFFB581B0DC
:104A400004460D4616461F46256010223146201D9D
:104A500000F046FB042239462046143000F040FBAB
:104A60000422204618300A9900F03AFB05B0F0BD48
:104A70001FB50446684680882080694609896180A0
:104A8000032203A9201DFBF7DFFB07990698E160CD
:104A9000A06008982061099860611FBDFFB581B0D2
:104AA00004460D4617461E46632D0BD0652D0ED0CD
:104AB0006B2D12D0722D14D11C2239462046FBF7E3
:104AC000C3FB0FE030782070707860700AE0182225
:104AD00020460A99FBF7B8FB04E00B980078207099
:104AE00000E000BF00BF05B0F0BDFFB581B00446D7
:104AF0000D4616461F4625706670A7701C22201DA5
:104B00000A99FBF7A1FB0B98208405B0F0BD10B506
:104B10000446242221460A4800F0E2FA24210848EB
:104B2000FFF77CFC10BD10B5044624222146044842
:104B300000F0D6FA24210248FFF762FC10BD000005
:104B40004E07001010B5002819DA894A03071B0F19
:104B5000083B9B089B00D2588307DC0EFF23A34031
:104B60009A434B071B0E8407E40EA3401A43804B65
:104B70000407240F083CA408A4001A5118E07D4A39
:104B800003231B02D21883089B00D2588307DC0E34
:104B9000FF23A3409A434B071B0E8407E40EA34058
:104BA0001A43744B032424021B198408A4001A51CD
:104BB00010BD08B5FBF7E8FBFBF74CFC0320FBF747
:104BC0002DFC6D480069C008C0006B4908610846AB
:104BD000006901210843684908610122002103207E
:104BE000FBF7F2FD012200210320FBF7D9FD012292
:104BF00011460320FBF7E8FD012211460320FBF7D5
:104C0000CFFD012202210020FBF7DEFD012202215F
:104C10000020FBF7C5FD58484030C06BC008C000FD
:104C200055494031C8630846C06B012108435249C9
:104C30004031C863012211461046FBF7C5FDFDF760
:104C4000F1F92020FDF709FA00BF4C484C49884291
:104C500000D90EE04948401E4A494861072100201A
:104C6000C043FFF76FFF00204649886107200861B5
:104C700000BF0020FCF77CFA022208210020FCF78C
:104C80006EFBFDF7AAFDE1204002FBF733FE022197
:104C90001520FFF757FF002301220421104600933F
:104CA000FBF7ECFB04210120FBF7C7FC00230122EA
:104CB000032118460093FBF7E1FB03210020FBF7DB
:104CC000BCFC00230122082102200093FBF7D6FB45
:104CD00008210220FBF7B1FC002301220321084632
:104CE0000093FBF7CBFB03210846FBF7A6FC002350
:104CF0000122082110460093FBF7C0FB0821012088
:104D0000FBF79BFC00230122092110460093FBF7CF
:104D1000B5FB09210120FBF790FC002301220A21A9
:104D200010460093FBF7AAFB0A210120FBF785FC44
:104D3000002301220B2110460093FBF79FFB0B2160
:104D40000120FBF77AFC10A000F02CF8FA20FDF708
:104D5000CBF80120FCF70CFA022208210120FCF715
:104D6000FEFAE12149020120FEF77DFB08BD0000AB
:104D70001CED00E000E100E00040044080BB0000CA
:104D8000FFFFFF0000E000E00D0A0D0A46535F310F
:104D900031433134204D61696E204D656E750D0AC9
:104DA000000000000FB4054910B503AA029800F0F6
:104DB00043FF10BC08BC04B0184700001C000010E2
:104DC0000FB47CB50C0009AA009001D00019401E58
:104DD000094B7B4469460190089800F012FF002CB3
:104DE000054603D069460020FBF783FA28467CBCC1
:104DF00008BC04B018470000530E000070B504460C
:104E0000856900683026C10600D42026C00707D077
:104E100070BD62683046A1689047206A401C2062DD
:104E20006D1EF6D570BD70B5044685690068C00773
:104E300007D170BD6268A16820209047206A401C9D
:104E400020626D1EF6D570BDF7B500267529106875
:104E5000009914A511D000F029FE002802DA404282
:104E600011A508E0009909688A0701D50FA502E09D
:104E7000490704D50EA5012601E000F020FE009FA1
:104E80000024243704E000F0B9FF30313955641CA8
:104E90000028F8D133462A462146009800F041FE0A
:104EA000FEBD0000000000002D0000002B000000EF
:104EB00020000000F8B50F460168090502D5224C14
:104EC0007C4402E0204C7C440E340546002124350D
:104ED00008E016071209360FA65D6E541E07491C1E
:104EE00032431B0916461E43F3D1224604680023B1
:104EF000240705D5702F06D0002901D011320223D6
:104F000000F00FFEF8BD10320123F9E770B504463A
:104F10000D462146106800F0D2FD002302462946C6
:104F20002046FFF7C7FF70BDD21DD308DB000CCBB6
:104F3000C0E730B4036820241268234303600823C9
:104F4000C36130BC0023B5E75E250000F3B505461C
:104F5000002081B0BEE0E96828468847002876D066
:104F6000252802D06A68A968B1E05C4F00267F441A
:104F70002846E96888472028044608DB312C06D2F9
:104F8000381920380078002801D00643F0E7B00730
:104F900001D5042086430020E8610746A8612A2C39
:104FA0000BD02146012230390A292BD2002A29D0E0
:104FB000B80040190090816119E00298BA005219B6
:104FC00002C8916102902846E9688847012F04468B
:104FD0001AD1E869002822DA202086431FE00098D1
:104FE0000A218069484300990019303888612846B1
:104FF000E968884704460120214630390A2901D250
:105000000028ECD1012F0AD02E2C08D12846E968BF
:1050100088470446202006437F1C022FBFDBA86977
:10502000002803DA4042A86101200643F00701D0BE
:10503000102086436C2C0BD0682C09D04C2C38D017
:105040006A2C36D0742C34D07A2C32D016E043E05F
:10505000E968274628468847B842044609D1802097
:105060006C2F00D0C000E9680643284688470446F4
:1050700004E040206C2F00D080000643002C2BD091
:1050800020464138192803D80120C00206432034A5
:1050900028462E602146029A1646FBF741F8002862
:1050A00012D001280DD0F61DF008C0000830029083
:1050B00051E700204C2CD6D080206A2CD3D0002081
:1050C000D1E7361D029646E76A682046A9689047F0
:1050D000286A401C28623EE7286AFEBDD8240000EA
:1050E000F8B5042A2CD3830712D00B78491C03701F
:1050F000401C521E83070BD00B78491C0370401CC8
:10510000521E830704D00B78491C0370401C521EAA
:105110008B079B0F05D0C91ADF002023DE1B08C9AF
:105120000AE0FBF791F8F8BD1D4608C9FD401C4692
:10513000B4402C4310C0121F042AF5D2F308C91A38
:10514000521EF0D40B78491C0370401C521EEAD446
:105150000B78491C0370401C521EE4D4097801707E
:10516000F8BDD2B210B513029A1813049A1800F0C1
:105170000EF810BD01E004C0091F0429FBD28B0703
:1051800001D50280801CC90700D002707047002939
:105190000BD0C30702D00270401C491E022904D361
:1051A000830702D50280801C891EE3E70022EEE718
:1051B0000022DFE7002203098B422CD3030A8B4233
:1051C00011D300239C464EE003460B433CD40022FF
:1051D00043088B4231D303098B421CD3030A8B4211
:1051E00001D394463FE0C3098B4201D3CB01C01ADF
:1051F000524183098B4201D38B01C01A52414309AA
:105200008B4201D34B01C01A524103098B4201D397
:105210000B01C01A5241C3088B4201D3CB00C01A04
:10522000524183088B4201D38B00C01A524143087C
:105230008B4201D34B00C01A5241411A00D20146A1
:105240005241104670475DE0CA0F00D0494203103A
:1052500000D34042534000229C4603098B422DD389
:10526000030A8B4212D3FC22890112BA030A8B4231
:105270000CD3890192118B4208D3890192118B4280
:1052800004D389013AD0921100E08909C3098B4205
:1052900001D3CB01C01A524183098B4201D38B0148
:1052A000C01A524143098B4201D34B01C01A5241EB
:1052B00003098B4201D30B01C01A5241C3088B4230
:1052C00001D3CB00C01A524183088B4201D38B001B
:1052D000C01A5241D9D243088B4201D34B00C01AA5
:1052E0005241411A00D20146634652415B101046BA
:1052F00001D34042002B00D54942704763465B1002
:1053000000D3404201B50020C046C04602BD0000A7
:105310000246C80FC00781434B0030B54B405B00CD
:105320009B0D20D01923DB06C91801231B059942C8
:1053300020DB0324A40704251346AB400BD3002B2A
:1053400004D1EB0613409B001B1904D4012464070D
:10535000002312195941FF231B0599420BD2C900A2
:105360000143500F09E0CB0204D501430803024377
:1053700005D0054830BDFF21C905084330BD0846AA
:1053800007210905884330BD0000C07FF0B5944671
:10539000FB4A0E091D091746164015400C46B2433C
:1053A0005C408BB0002A7ED0AF437CD0002D7BD0F8
:1053B000002E79D0E20F3243521BFF24A4041219AD
:1053C0000792420DCC02C70214436046420DD90237
:1053D0001143C2020120C007044301430194080C99
:1053E000140CA44604040B46A34308946446240406
:1053F000E44DA2430994040A7D446419803C247856
:105400000546654301262D19F605751B6C43E40C12
:10541000A41C490B61430919B501691A0E0C350426
:10542000A94361436643090C711889090691F9077C
:1054300001D00121C907039101997F08CC072743B7
:105440004C08069DE10B4D43290C65460E464D4325
:1054500046437D1BB44100950D4601945D430024F5
:105460002E0C240434430E462F045643350C2F4390
:10547000039D3604AD1B039502D200267F1C7441A8
:10548000009E019DF61BA54109040096019505911A
:10549000AC08069900256143090C0F4647437C0B75
:1054A000ED04254301E02AE14FE1FE0464460F4686
:1054B00067437C0B34430294039CFE04A41B0394B7
:1054C00004D2029C0026641C75410294029F009E37
:1054D000019CF61BAC4101940C465C430096660FA0
:1054E0000025E700ED000C4635435443660F3E436C
:1054F000039FE4003C1B039402D20024761C654108
:10550000009F019CBE1BAC41B509A4062C43039D22
:10551000B606AD092E43039DC900AD060395059D52
:10552000691805910699E50B6943090C65460F4614
:105530006F430D464543AE463D46751B7746BC411D
:1055400000950D4601945D4300242E0C24040F4663
:10555000344357432D043E0C2E4302962646039DAA
:105560003C042C1B039405D2029C3546641C002687
:105570006E410294009F029D019C7D1BB4410095E9
:105580008D050495059D890A691805910699A50858
:105590006943090C0D46454300206E0BC00430439F
:1055A000EF040D46664675436E0B3E43039FED04C4
:1055B0007D1B02D20027761C7841009FBE1B8441D0
:1055C00008460194B44658430024460FE40034438F
:1055D000C60008465043470F3743C0002D1A02D279
:1055E00000207F1C444166460198F61BA041B40987
:1055F00080062043AC09B6062643B6464C02049EFC
:10560000AD06059FA41900217941059108997646B8
:105610001943099BB6191343002240419446EA0FEF
:105620006F0032430546D61A8D41A84203D90120A6
:10563000844632462846C60F95184041FA0F2A4341
:105640007D00039565466F00B646D61A0546B446FA
:105650008D417646002E01D1A84202D97F1C6246B8
:105660002846C50FAC4695184041039A0646D20F0E
:105670002A437D00D31A8E416146002901D1B042F0
:1056800002D96D1C30461A46104301D00120044354
:105690006802059A0021001951410222002902DB0B
:1056A000012200184941079B4C051B14D318C90A55
:1056B0001B05CB1807994205C00AC907204359406A
:1056C000002A09D00124A24006D30024401C6141D5
:1056D000002A01D1400840002B4A002B04DB1C4665
:1056E000144201D09A4325D1012207989206904294
:1056F00033DC032040070818C10FC90734E00E4609
:1057000007184E41214D7A42B5411BD36246961887
:105710001D465D411D4A7642AA4113D3012252051E
:105720004D00D5420BD15C00D4420BD04B4003D589
:10573000920211430BB0F0BD49004908FAE7E10FAE
:10574000C90711E000201249F4E70F48014201D0D7
:10575000214605E00342F5D0F1E70520400709188E
:105760000C480143C01241400020E3E7594050403B
:1057700010B54B40424059405040FFF707FE10BD66
:105780000000FF075F2000000000F07F0000E0FF46
:105790000000F87FFFFFFF7F1F22030C02D10F22C2
:1057A000000402D0030E03D004E00020014670473D
:1057B000083A0002030F01D1121F0001830F01D12B
:1057C000921E8000002801DB521E40001205511875
:1057D0004205C012411810467047C10FC90700D0DA
:1057E0004042012292071143D6E701218907D3E7FE
:1057F000F0B59D4C0D092646AC46AE430D465D40C6
:1058000089B0002E7ED01E092746B7437AD067465E
:105810002740ED0F3D43264075D02401214272D030
:105820007419FF25AD04641B0494CC02D902012332
:105830001B05E40AC90A1C4319432401030F1C4336
:105840000B010501110F0B43A00B81032D0916015C
:105850008C43A90B8A0395439A0B9703BB433609E4
:105860009C46B30B9F03BE430F465F4303972F46EF
:10587000774302964E19BE460796029FDF197E4374
:105880000597039FF71B7646BE1B77463F0100979F
:105890000196039FB60BF619B646019E009FB6040B
:1058A000BF1902D37646761CB64676467600002FA0
:1058B00001D001273E4367467D430695029D27465A
:1058C0006F4300977F00069DBE196F00BD196646A5
:1058D0009619079FAE467743069D03967D1B01955B
:1058E0000619059D009F75430296EE1B019D5143CD
:1058F0006D1A07465F43F31B019500937546EB064F
:1059000006D001E091E08DE06B0901252B4300E01A
:105910006B0900263546B6460E0A2D0609063543A4
:10592000CB1876467541AE4600213D0A09063E0673
:105930002943F61875466941B646019B00269D0D20
:10594000B7022F439B0276469B194F4100990025D1
:105950008E0DAD028902C91835437D415043624620
:105960005443039B029A5A43121A161B0022B70E85
:105970009301B60175193B435341070B120500050E
:1059800045193A435A4100200306270A20063B43A3
:10599000441814266B41AB4200D2521C0120400235
:1059A000824203D315260221C94301E00321C943E2
:1059B0002020851BAA401F46AF40F34013432046DA
:1059C000049AF0401214891809055A1804993843AA
:1059D000C9075140AC4009D001239C4006D30023A5
:1059E000401C5941002C01D1400840001F4B002AA7
:1059F00003DB1A4201D08B4312D101220498920694
:105A0000904207DB05204007091819480143C012DE
:105A1000414004E0032040070818C10FC9070020D7
:105A200009B0F0BD0020E907FAE706180C464C4122
:105A300010487642A04114D394181A465A410D4892
:105A4000644290410DD3012049004005814208D3B2
:105A50005900814205D3E90F044AC90700201143C8
:105A6000DEE700200449DBE70000FF070000F07FCD
:105A7000FFFFFF7F0000E0FF0000F87F014600020B
:105A8000CA1504D00123DB071843002A09DB9E2333
:105A90009A1A01D4D0407047FF2248001206904263
:105AA00001D900207047C817C043704709684A05EC
:105AB00001D540B27047C905FCD500B270470968EE
:105AC0004A0501D5C0B27047C905FCD580B2704700
:105AD00070B505460C46012A05D02868800600D519
