:020000040000FA
:10000000180700109D020000A1020000A3020000DA
:10001000A5020000A7020000A902000000000000E5
:10002000000000000000000000000000AB02000023
:10003000AD02000000000000AF0200006B250000D0
:10004000B3020000B3020000B3020000B3020000DC
:10005000B3020000B3020000B3020000B3020000CC
:10006000B3020000B3020000B3020000B3020000BC
:10007000B3020000171800007B0F00009914000065
:10008000B3020000B3020000170B00004D0B00008C
:10009000390F0000C9070000B3020000B3020000DE
:1000A000B3020000B3020000B3020000B30200007C
:1000B000B3020000B3020000B3020000B30200006C
:1000C00000F002F800F0BFF80CA030C8083824187F
:1000D0002D18A246671EAB4654465D46AC4201D180
:1000E00000F0B1F87E460F3E0FCCB64601263342F3
:1000F00000D0FB1AA246AB4633431847904A000093
:10010000B04A0000103A02D378C878C1FAD8520732
:1001100001D330C830C101D504680C6070470000BD
:100120000023002400250026103A01D378C1FBD813
:10013000520700D330C100D50B60704710B56E294F
:1001400002D102F0C1FF10BD702902D103F017F9EE
:1001500010BD662902D104F0CFF810BD652902D187
:1001600004F0CAF810BD672902D104F0C5F810BD2B
:10017000612902D1C046C04610BD03681B0A01D3E5
:1001800080231943692902D102F068FF10BD642958
:1001900002D102F063FF10BD752902D102F05EFFAB
:1001A00010BD6F2902D103F095F810BD782902D156
:1001B00003F0D2F810BDE92902D103F031F810BDE7
:1001C000E42902D103F02CF810BDF52902D103F087
:1001D00027F810BDEF2902D103F088F810BDF829E7
:1001E00002D103F0C7F810BD0368DB0901D38023F7
:1001F0001943632902D103F03EFC10BD732902D1DB
:1002000003F041FC10BDE32902D103F04BFC10BD0B
:10021000F32902D103F04EFC10BD002010BD1FB524
:10022000C046C04603F0A8FC04000020002104F0F2
:100230004DF8401C60600020002104F031F8E060BF
:100240001FBD10B510BD03F06FFC1146FFF7E7FFAF
:1002500002F08CF903F092FF03B4FFF7F2FF03BC46
:1002600000F00AFC70B505460C46164602E00FCCBD
:100270000FC5103E102EFAD2082E02D303CC03C5B0
:10028000083E042E07D301CC01C5361F03E02178B8
:100290002970641C6D1C761EF9D270BD0848004799
:1002A000FEE7FEE7FEE7FEE7FEE7FEE7FEE7FEE726
:1002B000FEE7FEE703480449024A044B704700008A
:1002C000C1000000180500101807001018050010E4
:1002D000704700000FB4054910B503AA029802F058
:1002E0002DFF10BC08BC04B0184700001C00001013
:1002F000704770477047000000000000FFFFFFFFDD
:100300002E492F4A116001212E4A116051600021AF
:1003100051600121516000BF2A494968C907C90FCE
:10032000FAD029498868400A400203210143264A3D
:1003300091602649896B80229143244A916300BFD2
:100340002149C968C907C90FFAD003211D4A1163A1
:1003500001215163002151630121516300BF1949FB
:10036000496BC907C90FFAD00121164A9163144994
:1003700009688900164A116011460968154A11601A
:10038000704700B5022010490860002008620F483D
:10039000806B202188430D498863002300E05B1CAB
:1003A000FF2BFCD9FFF7ACFF064840300068012165
:1003B000090408430849086000BD0000001BB7009D
:1003C000000000104080044000800440008204408F
:1003D00004000010080000108080044010B5F348AD
:1003E000006840210843F14908601F2000F0D7F958
:1003F0001E2000F0D4F91D2000F0D1F91C2000F0DF
:10040000CEF910BD70B5049C002806D0012838D064
:1004100002286AD003287BD19CE0002A18D1E44D41
:100420006D6801268E40B543E14E7560002B07D103
:100430003546AD6801268E40B543DD4EB5600EE011
:10044000DB4DAD6801268E403543D94EB56006E0E0
:10045000D74D6D6801268E403543D54E7560002C12
:1004600007D1D34DED6801268E40B543D04EF560DF
:1004700006E0CF4DED6801268E403543CC4EF56049
:100480009DE0002A18D1CB4D6D6801268E40B54302
:10049000C84E7560002B07D13546AD6801268E40E9
:1004A000B543C44EB5600EE0C24DAD6801268E4026
:1004B0003543C04EB56006E0BE4D6D6801268E40E6
:1004C0003543BC4E7560002C07D1BA4DED6801264E
:1004D0008E40B543B74EF56006E0B64DED68012697
:1004E0008E403543B34EF56069E0002A19D1B24D14
:1004F0006D6801268E40B543AF4E7560002B08D164
:100500003546AD6801268E40B543AB4EB5600FE071
:1005100054E0A94DAD6801268E403543A64EB56026
:1005200006E0A54D6D6801268E403543A24E7560EC
:10053000002C07D1A04DED6801268E40B5439E4E9C
:10054000F56006E09C4DED6801268E4035439A4EDD
:10055000F56034E0002A18D1984D6D6801268E4070
:10056000B543964E7560002B07D13546AD68012620
:100570008E40B543914EB5600EE0904DAD680126BA
:100580008E4035438D4EB56006E08C4D6D6801267A
:100590008E403543894E7560002C07D1874DED683C
:1005A00001268E40B543854EF56006E0834DED682B
:1005B00001268E403543814EF56000E000BF00BF4C
:1005C00070BD002806D001280CD0022812D00328C4
:1005D00020D117E0764A126901238B401A43744BED
:1005E0001A6118E0734A126901238B401A43714B58
:1005F0001A6110E0704A126901238B401A436E4B56
:100600001A6108E06D4A126901238B401A436B4B53
:100610001A6100E000BF00BF7047002806D0012823
:100620000CD0022812D0032820D117E0604A1269AA
:1006300001238B409A435E4B1A6118E05D4A1269B0
:1006400001238B409A435B4B1A6110E05A4A1269AE
:1006500001238B409A43584B1A6108E0574A1369AB
:1006600001228A409343554A136100E000BF00BF56
:10067000704710B502460020002A06D0012A0CD08F
:10068000022A12D0032A20D117E0494B9B6901248A
:100690008C40234200D0012018E0464B9B69012486
:1006A0008C40234200D0012010E0434B9B69012481
:1006B0008C40234200D0012008E0404B9B6901247C
:1006C0008C40234200D0012000E000BF00BF10BDDD
:1006D000002806D001280CD0022812D0032820D1EF
:1006E00017E0334AD26901238B401A43304BDA6159
:1006F00018E0304AD26901238B401A432D4BDA614E
:1007000010E02D4AD26901238B401A432A4BDA614B
:1007100008E02A4AD26901238B401A43274BDA6149
:1007200000E000BF00BF704730B513468B40840027
:10073000234D2D5901248C40A4002B5130BD02467D
:1007400090001F4B1B5801208840800018587047AC
:1007500030B5002A11D08300194CE3580124E4037A
:100760001B191B6801248C4023438400144D2C5911
:100770000125ED036419236010E08300104CE35859
:100780000124E4031B191B6801248C40A34384004B
:100790000B4D2C590125ED036419236030BDC206B1
:1007A000D20E01219140074A1160704780800440B9
:1007B00000800050008001500080025000800350F3
:1007C0000843000000E100E070B500BF854A926870
:1007D000D0B240104007400F032820D1814A52690F
:1007E000D1B29E22114205D07F4A11607D4A126823
:1007F000D3B270BDCA07D20F3ED07A4C2468E5B29E
:100800007A4C2268541C794E3460794CA554324697
:100810001268402A30D30022344622602CE002289D
:1008200011D1704C2468E5B2704C2268541C6F4E94
:1008300034606F4CA55432461268402A1CD3002203
:100840003446226018E0062807D1674A1268FF2460
:1008500001342243644C22600EE001280CD1614A2D
:100860005269D1B22022114203D00122614C227080
:1008700002E000225F4C227000BFBAE7F8B50446E0
:1008800001205C49087000205849086015200121AA
:100890008140594A116000BF5848406AC008C000F2
:1008A000564948620846406A012108435349486254
:1008B0000846806AC008C00088620846806A012134
:1008C00008434E4988624E4800684E4908434C49E7
:1008D00008600120886183204249C86048488769D0
:1008E00039464948006802F0A9FA0609214630460F
:1008F00002F0A4FA0546280A3A494860E8B20860BE
:100900000320C860072088600846476900BF354853
:100910004069602108406028F9D101E0314807684A
:1009200030484069C007C00FF8D11520012181402F
:10093000364A116000BF05202A494860F8BD0AE028
:1009400000BF284A526920231A42FAD00278254B68
:100950001A60401C491E0029F2D1704700BF21498E
:10096000496920221142FAD01E490860704700B53B
:10097000034603E018785B1CFFF7F0FF18780028A7
:10098000F8D100BD0FB400B59BB01DA80090642144
:1009900001A8009B1C9A02F037FA01A8FFF7E7FFB5
:1009A000002000901BB008BC04B01847014618484E
:1009B00000680E4A1268904211D00D48144A12681D
:1009C000805C087012480068401C114A1060104694
:1009D0000068402801D300201060012070470020EB
:1009E000FCE700000080004018000010100000101C
:1009F000B80000100C00001080E100E080400440CE
:100A000080800440001000000800001000E100E0B9
:100A10001400001000BF1E49496920221142FAD07B
:100A20001B490860704710B503460C461846FFF78F
:100A3000F1FF10BD00BF174800680028FBD006205A
:100A40001349486000201349086007201049486096
:100A500011480078704710B50446FFF7EBFF0346D6
:100A6000FFF7D8FF10BD00B503461846FFF7D2FFC9
:100A700000BD01460948704700BFFEE700BF0448BB
:100A80004069C007C00FFAD00148006870470000F5
:100A90000080004010000010B8000010FFFFFFFFB2
:100AA00070B504460D46002C19D10220F749486064
:100AB0000020C860F649F748006802F0BFF96843B3
:100AC000F2498861FF2008600420486101204860E5
:100AD00000BFEE484068C007C00FFAD11AE0012CF1
:100AE00018D10220EC4948600020C860E849E94874
:100AF000006802F0A3F96843E7498861FF200860B5
:100B0000042048610120486000BFE3484068C007F6
:100B1000C00FFAD170BDDD480068C007C00F07D014
:100B20000120DA490860DD480068401CDB490860A4
:100B3000D64800681021084207D01020D349086029
:100B4000D7480068401CD64908607047D248006802
:100B5000C007C00F07D00120CF490860D148006806
:100B6000401CD0490860CC4800681021084207D0DA
:100B70001020C9490860CC480068401CCA49086078
:100B80007047002803D10121C04A516002E00121D1
:100B9000C14A51607047002803D10021BB4A51600F
:100BA00002E00021BC4A516070470146002906D18D
:100BB000B64A506802221043B44A506005E0B64A73
:100BC000506802221043B44A5060704770B5044622
:100BD0000D46002C44D1B548006801214902084364
:100BE000B2490860B248006AC008C000B049086253
:100BF0000846006A02210843AD4908620846406A77
:100C0000C008C00048620846406A02210843A8495B
:100C100048620846806AC008C00088620846806A48
:100C200002210843A2498862A2480069C008C000A6
:100C3000A049086108460069022108439D490861EE
:100C40000020964908609649086090488561052013
:100C50008E49886203204861122000F060F922E08A
:100C6000012C20D191480068A10208438F490860F7
:100C70008F484069C008C0008D49486108464069F6
:100C8000022108438A494861002086490860864954
:100C900008608148856105207F498862032048619A
:100CA000132000F03CF970BD70B504460D46002CD1
:100CB00012D17E4800680121490208437B4908603F
:100CC0000020764908607148856103206F494861BA
:100CD000122000F024F912E0012C10D173480068B2
:100CE000A10208437149086000206E4908606A4803
:100CF0008561032068494861132000F010F970BD38
:100D000030B505460C4613462846FFF744FF012D33
:100D10005ED166480068A9020843644908606648D5
:100D200018435D49C863D807C00F0CD060484038ED
:100D3000C06BC008C0006149C8630846C06B03218E
:100D400008435E49C863022003420BD0584800683C
:100D5000C008C000564908600846006803210843DF
:100D600053490860042003420BD051480069C00871
:100D7000C0004F49086108460069032108434C49F7
:100D80000861082003420BD049484069C008C000F0
:100D9000474948610846406902210843444948617F
:100DA00001201843464948634648046000683A49B0
:100DB000486244480068400888614248006840082A
:100DC000C8614048006840080862022048614DE060
:100DD00036480068012149020843344908603A480E
:100DE00018432A49C863022003420BD03048806A66
:100DF000C008C0002E4988620846806A0221084364
:100E00002B498862042003420BD02A480069C0089D
:100E1000C0002849086108460069022108432549A5
:100E20000861082003420BD02448406BC008C00072
:100E3000224948630846406B032108431F49486321
:100E400008201843214948632148046000680F497D
:100E500048621F48006888611D4800684008C861F2
:100E60001B480068400808621A48486130BD0028E5
:100E70003DD0002906D001292ED002292FD00329E8
:100E800033D12FE0044B9A6130E000000040014074
:100E9000E80300000800001000800140240000105A
:100EA0002C0000102800001030000010808004404A
:100EB0008040044000400440980500004040044049
:100EC00040800140380000105806000040400140BA
:100ED0003400001000040000144BDA6106E0134BEC
:100EE0001A6203E0114B5A6200E000BF16E00029CD
:100EF00006D0012907D0022908D003290CD108E027
:100F00000B4B9A6109E00A4BDA6106E0084B1A6262
:100F100003E0074B5A6200E000BF00BF7047C20603
:100F2000D20E01219140034A1160704700800140B8
:100F30000040014000E100E0F749C869C107C90F5E
:100F400007D0F6490968491CF44A11600121F24AA8
:100F500011620221084207D0F1490968491CF04A90
:100F600011600221EC4A11620421084204D0ED49CB
:100F70000968491CEB4A11607047EB49C869C10711
:100F8000C90F07D0E9490968491CE84A11600121E5
:100F9000E54A11620221084207D0E5490968491C67
:100FA000E34A11600221E04A11620421084204D0A0
:100FB000E0490968491CDF4A1160704710B50446D2
:100FC000002C40D1DC48406801210843DA494860E0
:100FD000DA480068DA490843D849086002204861C5
:100FE000D848006AC008C000D64908620846006AAE
:100FF00001210843D34908620846406AC008C0007E
:1010000048620846406A01210843CE4948620120EF
:10101000CD490863CB490863C848006840210843AC
:10102000C6490860C948C069C008C000C749C8614E
:10103000012202210020FFF78BFB01220221002068
:10104000FFF772FB47E0BC48406804210843BA49F7
:101050004860BA480068BE490843B84908600220A1
:10106000C861B848C069C008C000B649C861084630
:10107000C06902210843B349C861B348C068C008C9
:10108000C000B149C8600846C06802210843AE49A3
:10109000C860AE48806AC008C000AC498862084693
:1010A000806A02210843A9498862A4480068402157
:1010B0000843A2490860A5488068C008C000A34949
:1010C0008860012200210220FFF742FB012200215B
:1010D0000220FFF729FB10BD10B50446002C60D19B
:1010E0009548406801210843934948609348006847
:1010F0009349084391490860022048619148006A79
:10110000C008C0008F4908620846006A01210843F0
:101110008C4908620846406AC008C0004862084618
:10112000406A0121084387494862022086490863D2
:101130008449C86081480068402108437F490860AD
:1011400080480068C008C0007E4908600122042170
:101150000220FFF7FDFA012204210220FFF7E4FA42
:101160007A480068C008C00078490860012206215A
:101170000220FFF7EDFA012206210220FFF7D4FA40
:101180007248006AC008C000704908620122072145
:101190000220FFF7DDFA012207210220FFF7C4FA3F
:1011A00047E0654840680421084363494860634854
:1011B000006867490843614908600220C8616148C6
:1011C000C069C008C0005F49C8610846C069022103
:1011D00008435C49C8615C48C068C008C0005A49FF
:1011E000C8600846C068022108435749C86057488C
:1011F000806AC008C000554988620846806A02219A
:101200000843524988624D480068402108434B49D1
:1012100008604E488068C008C0004C4988600122C0
:1012200000210220FFF794FA012200210220FFF79B
:101230007BFA10BD70B5054600BF002D16D145489C
:1012400035490860FE200861002404E032488068C7
:10125000C6B2601CC4B2082CF8DB142000F00EF9F2
:1012600002202D4948600320486115E039482E4985
:10127000086002200861002404E02B488068C6B2A0
:10128000601CC4B2082CF8DB0E2000F0F7F8022036
:10129000254948600320486170BDF8B507460D46F2
:1012A000164600980090002F1AD1681E07210902E7
:1012B00008431949086008460661002405E01648FD
:1012C0008068C0B20090601CC4B2082CF7DB142008
:1012D00000F0D4F80220104948600320486119E06A
:1012E000681E0721090208430F4908600846066185
:1012F000002405E00C488068C0B20090601CC4B2B5
:10130000082CF7DB0E2000F0B9F8022006494860EF
:1013100003204861F8BD00000000044040000010B8
:10132000440000103C000010008005404C000010FC
:1013300050000010480000100080044080800440ED
:101340000008000040400440804004400040044049
:10135000000004000707000070B500BF00232DE067
:10136000002815D100BF494DED6812263540022DE9
:10137000F9D10D78454EB560491C00BF434DED686D
:1013800014263540042DF9D1404DAD68ECB214E07F
:1013900000BF3F4DED6812263540022DF9D10D7882
:1013A0003B4EB560491C00BF394DED6814263540F1
:1013B000042DF9D1364DAD68ECB25B1C9342CFD30E
:1013C00070BD30B500231FE000280ED1FF242F4D43
:1013D000AC6000BF2D4CE46814252C40042CF9D1DE
:1013E0002A4CA4680C70491C0DE0FF24284DAC6009
:1013F00000BF274CE46814252C40042CF9D1244C60
:10140000A4680C70491C5B1C9342DDD330BD0246BE
:10141000002A19D100BF1D48C068122318400228B5
:10142000F9D11A48816000BF1848C06810231842DB
:10143000FAD100BF1548C068142318400428F9D118
:101440001248806880B2704700BF1148C0681223FC
:1014500018400228F9D10E48816000BF0C48C068CE
:1014600010231842FAD100BF0948C068142318405D
:101470000428F9D10648806880B2E4E7C206D20E9B
:1014800001219140034A11607047000000000440B0
:101490000080054000E100E010B5012080074068B1
:1014A000C1B24807400F72D1C810030002F0CCFE51
:1014B0000CAD071421A53637AE60A67091AD0020A3
:1014C000A64A1060A6480078A64A9060282090613D
:1014D0000120A54A10609DE00020A44A1060A048A9
:1014E0000078A04A90602820906102209E4A1060F7
:1014F00090E09D48006801280CD1984A1068421C71
:10150000964B1A609A4A1268125C964B9A600420B5
:10151000954A10600820934A90617BE000BF8F4895
:101520000068944A126890420DD28C4A1068421C9E
:101530008A4B1A608E4A1268125C8A4B9A600420A9
:10154000894A106010E08C480068002806D02020EE
:10155000844A10600320844A106005E00520824A16
:10156000106010207F4A106008207E4A906151E090
:1015700081480068012803D104207A4A906102E082
:101580000420784A10600820764A906142E03CE0EE
:10159000744A9268D3B2754A1068421C734C226038
:1015A000764A1268135420460068734A12689042C3
:1015B00005D204206C4A10606A4A106005E00520DC
:1015C000694A10600420674A90610820654A90616A
:1015D00020E0644A9268D3B2644A1068421C634CAB
:1015E0002260664A1268135405205F4A106010207A
:1015F0005C4A1060082090610CE000BF0820594A46
:1016000090610520584A106004E000BF0820554A48
:10161000906100BF00BF10BD002100202022514B6F
:101620001A600BE0504A1268012A01D1012006E03D
:10163000534A914201D3002001E0491CF2E700BF68
:1016400070471020474908600820886100BF45485E
:10165000006810210842FAD10120704710B50246F7
:101660004848406802231843464B58604648006883
:1016700020231843444B18604448006B80098001C4
:10168000424B18631846006B012318433F4B186305
:101690001846406B8009800158631846406B01234F
:1016A00018433A4B58636C202E4B98613848586168
:1016B0001861022A01D12B48C1600F200123834009
:1016C000344C236000BF4020264B1860012010BD21
:1016D00000B5002024490860244908601F490860BB
:1016E000FFF79AFF012803D0FFF7ABFF002000BDF2
:1016F00006E01D480068052802D1FFF7A2FF00E0C0
:10170000F7E700BF0120F2E770B504460D46164624
:1017100001202043124908701848056016480660E9
:10172000012014490860FFF7D3FF134800681249ED
:10173000086070BD70B504460D4616460848047032
:101740000B4805600B48066000200B490860FFF756
:10175000BFFF084800680749086070BD64000010BA
:101760007C000010000000405400001060000010D9
:101770006C00001078000010740000107000001061
:10178000FFFFFF00008004408080044000400440D0
:101790008001000000E100E030B5024600BFAF4B21
:1017A0001B680124E4032342F9D17F23AB4C63601F
:1017B000531C236000BFA94B1B680124E403234290
:1017C000F9D118235343A64C1819A44B5B69012483
:1017D000A403234208D0A14B19691C466469A14D9A
:1017E0002C402404214303E09C4B5B69DB04590D2E
:1017F00002C09A4B9B691B071B0F08C0974BDB6904
:1018000008C0964B1B6A08C0944B5B6A08C0934B98
:101810009B6A08C030BD70B500BF2FE00120C00337
:10182000064213D0904845684020054205D08F48B5
:101830000068401C8D49086070BD802005421DD0A5
:101840008B480068401C8A490860F5E76807400F2C
:1018500014D17404640C002C10D0202C0ED88248B3
:1018600040681021884380494860611EC8B2FFF774
:1018700093FF0121601E80007E4A11507A4806695C
:10188000002ECBD100BFD7E7002100204AE0F32291
:10189000754B5A62002918D100229A62764ADA62A0
:1018A00000221A63C21DF93292000123DB031A439E
:1018B0006D4B5A63C207D20F02D1704A9A631FE080
:1018C0006F4A694B9A6301211AE06E4A664B9A622D
:1018D0006D4ADA626D4A821892B21A636B4A8218B4
:1018E000120C03239B031A435F4B5A63C207D20FA8
:1018F00002D1624A9A6303E0614A5B4B9A6300211A
:101900000022594BDA63624B1A605A609A60421C9B
:10191000554B1A6200BF544A126A0123DB031A4274
:10192000F9D1401C2028B2D3704710B5044659485D
:10193000406808210843574948605748006857499C
:1019400008435549086048480068C007C00F05D1E2
:101950004548006801210843434908600520504973
:10196000086041480068402108433F4908604D48ED
:10197000C8600020886108460068402188433A49D1
:1019800008600846006840084000086000BF36480C
:101990000068C007C00FFAD1FFF776FF0D200121C4
:1019A0008140414A116000BF2F4800680E21084362
:1019B0002D49086010BDF0B503460C46002A01D140
:1019C00000BFFEE702CA002C02D0CE00B00800E043
:1019D000084620CA082D00D908250126B60731423D
:1019E0000CD1860005277F033E431F4F7E630026F0
:1019F0003E632E4EFE620026BE620BE0060C0727F9
:101A00007F033E43184F7E6386B23E63284EFE62DC
:101A10001C4EBE622E07360F2327FF013E43124F96
:101A2000BE6340CAFE6340CA194F3E6040CA7E6032
:101A30001668BE60F7260C4F7E62002C02D09E1CFA
:101A40003E6202E05E1C084F3E6200BF064E366AF0
:101A50000127FF033E42F9D1F0BD000080000540A0
:101A600078010010FF5F00000000054084000010B6
:101A700080000010F8000010FC1F0000881000001B
:101A800088140000FFFF0000FF9F0000000010000E
:101A900040000540008004408080044000000200B7
:101AA000800105400123000000E100E0FC5F000030
:101AB000FFDF0000F1B582B02148846940690190E0
:101AC00020490298484300900199009801F0B6F926
:101AD00007460199009801F0B1F90D46002F0ED08C
:101AE00000260AE000BF16488069A042FBD300BF71
:101AF00013488069A042FBD8761CBE42F2D3002D69
:101B00001DD0A54206D200BF0D488069611B8842E6
:101B1000FAD814E0A54205D100BF09488069A04267
:101B2000FBD30CE000BF06488069A042FBD300BF96
:101B3000034881692A1B0198801A8142F8D8FEBDAA
:101B400000E000E080BB000010B500220321104639
:101B5000FEF7FEFD002204210120FEF7F9FD002220
:101B600008210120FEF7F4FD002209210120FEF7E3
:101B7000EFFD00220A210120FEF7EAFD00220B21E1
:101B80000120FEF7E5FD10BD10B508210120FEF78C
:101B9000D6FD002801D1012010BD09210120FEF74A
:101BA000CEFD002801D10220F6E70A210120FEF730
:101BB000C6FD002801D10320EEE70B210120FEF72E
:101BC000BEFD002801D10420E6E703210020FEF736
:101BD000B6FD002801D10520DEE704210120FEF733
:101BE000AEFD002801D10620D6E70020D4E7000092
:101BF00000BF0146421ED0B20029FAD1704770B52D
:101C00000646002510E000230AE0002404E0CB2073
:101C1000FFF7EEFF601CC4B20F2CF8DB581CC3B2F8
:101C2000832BF2DB681CC5B2B542ECDB70BD10B58E
:101C30000446002205210220FEF776FD0022042141
:101C40000220FEF771FD21460020FFF7E0FB012294
:101C500004210220FEF768FD012205210220FEF783
:101C600063FD10BD10B50446012205210220FEF7D8
:101C70005BFD002204210220FEF756FD21460020D4
:101C8000FFF7C5FB012204210220FEF74DFD0122D2
:101C900005210220FEF748FD10BD70B5044625461B
:101CA000E117090F491909110901611AC8B2FFF7B3
:101CB000BEFF2546E117090F4919091108461030E2
:101CC000FFF7B5FF70BD10B504462020FFF7AFFF4A
:101CD0002046FFF7ACFF10BD70B505460C4621202D
:101CE000FFF7A5FF2846FFF7A2FF2046FFF79FFF5B
:101CF00070BD70B505460C462220FFF798FF2846B8
:101D0000FFF795FF2046FFF792FF70BD10B5044620
:101D1000402121430846FFF78AFF10BD10B5044655
:101D20008120FFF784FF2046FFF781FF10BD10B52B
:101D300004468D20FFF77BFF102121430846FFF763
:101D400076FF10BD10B50446A02121430846FFF7D9
:101D50006EFF10BD10B50446A42121430846FFF7CD
:101D600066FF10BD10B50446A62121430846FFF7C3
:101D70005EFF10BD10B50446A820FFF758FF2046AF
:101D8000FFF755FF10BD10B50446AE2121430846AC
:101D9000FFF74DFF10BD10B50446B02121430846A2
:101DA000FFF745FF10BD10B50446C021214308468A
:101DB000FFF73DFF10BD10B50446D320FFF737FFF6
:101DC0002046FFF734FF10BD10B50446D520FFF7BD
:101DD0002EFF2046FFF72BFF10BD10B50446D9207B
:101DE000FFF725FF2046FFF722FF10BD10B5044680
:101DF000DA20FFF71CFF022121430846FFF717FFF7
:101E000010BD10B50446DB20FFF711FF2046FFF799
:101E10000EFF10BD10B5E320FFF709FF10BD70B530
:101E20000646002410E02046FFF7B5FF0020FFF72C
:101E300034FF002504E03046FFF714FF681CC5B2EC
:101E4000802DF8DB601CC4B2082CECDB70BD10B533
:101E50000020FFF7E4FF10BDFFB581B00D46164628
:101E60001F462C4615E02046FFF795FF3846FFF742
:101E700014FF0020009006E00198FFF7F3FE0098A1
:101E8000401CC0B200900A9900988842F4DB601CA4
:101E9000C4B2701C8442E6DB05B0F0BD70B500240E
:101EA00013E02046FFF777FF0020FFF7F6FE00253E
:101EB00007E05520FFF7D6FEAA20FFF7D3FE681CE7
:101EC000C5B2402DF5DB601CC4B2082CE9DB70BD47
:101ED00070B50020FFF75FFF0020FFF7DEFE002453
:101EE00004E00120FFF7BEFE601CC4B2802CF8DBCA
:101EF0000720FFF750FF0020FFF7CFFE002404E08B
:101F00008020FFF7AFFE601CC4B2802CF8DB0024F9
:101F100011E02046FFF73FFF002508E02846FFF7C5
:101F2000BCFEFF20FFF79EFE28467F30C5B2802D05
:101F3000F4DB601CC4B2082CEBDB70BDFFB581B0D4
:101F400007460D46012F02D0022F0BD104E0A80056
:101F50002818FE49441805E0681E81004018FC4915
:101F6000441800BF00BF0398FFF715FF0498FFF760
:101F700094FE002605E02078FFF774FE641C701CB8
:101F8000C6B2052EF7DB0020FFF76CFE05B0F0BDF2
:101F9000FFB581B007460D461E462C4633466021EC
:101FA0000120039AFFF7CAFF0CE021783346384638
:101FB000039AFFF7C3FF641CB01DC6B22078002847
:101FC00000D100E0F1E700BF05B0F0BDFFB583B080
:101FD00005460E4617460295344619E02046FFF79F
:101FE000DAFE0698FFF759FE002001900AE00299F8
:101FF0000878FFF737FE0298401C02900198401CB9
:10200000C0B201900C9901988842F0DB601CC4B208
:10201000781C8442E2DB07B0F0BDFFB581B00F460B
:1020200014460498203881004018C8494518019882
:10203000FFF7B1FE002F0BD10020FFF72EFE002C82
:1020400003D10020FFF70EFE02E0FF20FFF70AFE9B
:10205000791CC8B2FFF721FE00260DE0002C03D149
:102060002878FFF7FFFD04E02978C943C8B2FFF7DD
:10207000F9FD6D1C701CC6B2052EEFDB002C03D1E0
:102080000020FFF7EFFD02E0FF20FFF7EBFD05B0BA
:10209000F0BDF8B506460F4614460025082E18DA9E
:1020A00008E023783A4629463046FFF7B6FFA81DD8
:1020B00085B2641C2078002801D0012000E00020B7
:1020C000691C89B2802901DA012100E0002108425F
:1020D000E7D1F8BDFFB581B015461F46A320FFF735
:1020E000A6FD0298FFF7A3FD2846FFF7A0FD019883
:1020F000002802D0012825D111E000240CE0E0B234
:10210000FFF704FE002603E0C820FFF771FD761CF0
:102110000A988642F8D3E419AC42F0D312E00024C6
:102120000DE0291BC8B2FFF7F1FD002603E0C8202F
:10213000FFF75EFD761C0A988642F8D3E419AC429C
:10214000EFD300BF00BF0020FFF7E0FD05B0F0BDFA
:10215000F8B504460D4616461F462621214308467B
:10216000FFF765FD0020FFF762FD2846FFF75FFDE2
:102170003846FFF75CFD3046FFF759FD2F20FFF78B
:1021800056FD0698FFF73BFDF8BDF8B504460D4631
:1021900016461F46A320FFF74AFD3846FFF747FDC6
:1021A0000698FFF744FD21462931C8B2FFF73FFDED
:1021B0000020FFF73CFD2846FFF739FD0898FFF7A0
:1021C00036FD3046FFF733FD0798FFF730FD2F202F
:1021D000FFF72DFD0998FFF712FDF8BD10B52E2071
:1021E000FFF725FD10BD10B50120FFF7CCFD002441
:1021F0000CE0E0B2FFF792FDC820FFF7F9FCC82021
:10220000FFF7F6FCC820FFF7F3FC641CD02CF0D3DA
:1022100010BD10B5D0240DE0611EC8B2FFF77EFDE1
:10222000C820FFF7E5FCC820FFF7E2FCC820FFF755
:10223000DFFC641E002CEFD10020FFF7A4FD10BDD1
:1022400010B50446002C02D0012C0ED106E000206F
:10225000FFF799FD0120FFF77DFD06E00020FFF765
:1022600079FD0120FFF78FFD00BF00BF10BD0120E9
:10227000FFF770FD0BE00120FFF785FD0220FFF75F
:10228000BEFC0020FFF77FFD0220FFF7B8FCF2E75D
:1022900010B50020FFF777FD8020FFF795FD3F2068
:1022A000FFF768FD0020FFF786FD0020FFF72EFDF9
:1022B0000020FFF73CFD0220FFF705FD0120FFF79E
:1022C00041FD0820FFF76FFD1020FFF78FFDCF20A5
:1022D000FFF724FD2220FFF780FD4020FFF791FD4E
:1022E0000020FFF737FD0020FFF73CFD0020FFF73F
:1022F00096FD0120FFF747FD10BD10B50122052115
:102300000220FEF725FA0020FFF73DFD8020FFF7B1
:102310005BFD3F20FFF72EFD0020FFF74CFD002066
:10232000FFF7F4FC0420FFF702FD0220FFF7CBFCCF
:102330000120FFF707FD0820FFF735FD1020FFF70C
:1023400055FDCF20FFF7EAFCF12003E0E843000051
:102350009D480000FFF741FD4020FFF752FD00209F
:10236000FFF7F8FC0020FFF7FDFC0020FFF757FD0A
:102370000120FFF708FD10BD00B587B05BA207CABA
:1023800004AB07C30020FFF74AFD302028230522B5
:10239000022100905848FFF719FE0520FFF72FFC97
:1023A000FFF737FF0520FFF72AFCFFF71CFF05208A
:1023B000FFF725FC20200123402200210090084641
:1023C000FFF788FE0520FFF71AFC2020012340229A
:1023D000002100901846FFF77DFE0520FFF70FFC57
:1023E000FFF7FCFE0520FFF70AFC01200021202357
:1023F00001900093029103900B460A460846FFF7AE
:10240000C4FE0520FFF7FBFB012000211F22202333
:1024100000930192029103900B460A460846FFF78B
:10242000B4FE0520FFF7EBFB022000210122202350
:1024300000930192029103900B4603220846FFF796
:10244000A4FE0520FFF7DBFB022000211F22202332
:1024500000930192029103900B4603220120FFF7A3
:1024600094FE0520FFF7CBFB022000210122202350
:1024700000930192029103900B4607220421012050
:10248000FFF783FE0520FFF7BAFB022000211F2281
:10249000202300930192029103900B46072204210E
:1024A0000020FFF772FE0520FFF7A9FBFFF796FE5D
:1024B0000520FFF7A4FBFF20FFF7B1FC0520FFF785
:1024C0009EFBFFF7EBFC0520FFF799FB0020FFF7D1
:1024D000A6FCFFF7FDFC0520FFF791FB2523032257
:1024E00004A90120FFF754FD07B000BD354E495641
:1024F0004953494F4E0000002843000010B5002802
:1025000019DA3D4A03071B0F083B9B089B00D25872
:102510008307DC0EFF23A3409A434B071B0E84075F
:10252000E40EA3401A43344B0407240F083CA408CC
:10253000A4001A5118E0314A03231B02D218830861
:102540009B00D2588307DC0EFF23A3409A434B071E
:102550001B0E8407E40EA3401A43284B03242402D5
:102560001B198408A4001A5110BD7047FDF709FF1C
:10257000FDF734FF22480069C008C0002049086107
:1025800008460069012108431D490861FFF7DCFA8C
:102590001C4C1D48844200D90FE02002000A401E56
:1025A0001A49486107210020C043FFF7A7FF002018
:1025B000164988610720086100BF0020FEF78CFDE6
:1025C000022208210020FEF768FEFFF796FEE120B8
:1025D0004002FEF753F902211520FFF78FFF0CA0F0
:1025E000FDF778FEFA20FFF765FA04E00EA0FDF78C
:1025F00071FE00F069F9F9E71CED00E000E100E090
:102600000040044080BB0000FFFFFF0000E000E04E
:102610000D0A0D0A46535F3131433134204D616953
:102620006E204D656E7500000D0A0D0A43414E2067
:10263000546573740000000010B50446FE484474ED
:10264000FE48006800688068C168FB488847012C24
:102650000ED10220F849487408460068FF30013066
:102660000860F6480068006880680169F248884799
:1026700010BD70477047F248F24908600820486072
:1026800001208860EE49C91CEE48C160EE49016135
:10269000EE49416104E0EB4A00210846FFF78BF95F
:1026A000F9E7002404E00020A100E94A5050641C2E
:1026B000202CF8D315E0002411E0A000E4490858CC
:1026C00001280BD118216143DE4BCA18E0B2012169
:1026D000FFF771F90020A100DD4A5050641C202C46
:1026E000EBD3E8E730B5C1B0D44800680068806833
:1026F00001210268D74890470D2001218140D64A28
:10270000116000BF032110A881870121C187D3A0D8
:102710002090D3A02190D7A11FA8C160DAA10161A8
:10272000782223A96846FDF79DFD1FA80FC800F079
:1027300007FB0025FA20FFF7BDF9BEE0D848406846
:102740001021084220D0D64840688843D4494860C8
:102750000120D4494874D4480860D44848602020F7
:10276000D34908722021D248417281722D21C17251
:102770000173417381730021C173B0480068006820
:1027800080688168C74888470021C648C173002413
:1027900013E0C4480830035D002229460720FFF7F4
:1027A0003CFCA81D85B2782D00DD0025BD4908310F
:1027B000085DFEF7D3F8601C84B2082CE9DBFFF754
:1027C000E3F90446012C06D0022C1DD0052C35D08F
:1027D000062C67D162E010A8C08F012806DD10A882
:1027E000C08F401E81B210A8C18702E010A8818F5F
:1027F000C187782223A96846FDF734FD1FA80FC8BA
:1028000000F09EFA00254EE010A8C18F808F814213
:1028100006DA10A8C08F401C81B210A8C18702E060
:10282000012010A9C887782223A96846FDF71AFD60
:102830001FA80FC800F084FA002534E010A8C08F4C
:10284000012802D0022826D124E0002098494874AB
:1028500095480860002048600820087448200872E5
:10286000692193484172202181724321C172412123
:1028700001734E214173212181730021C1736F487F
:1028800000680068806801698948884789A0FDF769
:1028900021FD01E000E000BF00BF04E0002010A91E
:1028A000C88700E000BF00BF002C06D010A8C08F72
:1028B000002802D0FA20FFF7FDF810A8C08F0028EA
:1028C00000D03BE741B030BDF0B5C1B0002404E01A
:1028D0000020A1005E4A5050641C202CF8D3012235
:1028E00002210020FDF734FFFF200430FFF71DF820
:1028F000032110A881870121C18758A0209058A0EA
:1029000021905CA11FA8C1605FA10161782223A969
:102910006846FDF7A7FC1FA80FC800F011FA0025B4
:10292000FA20FFF7C7F8C2E100241CE1A0004849E3
:10293000085801287ED100263AE01820604341491A
:1029400040180830B1004058C3B200222946072081
:10295000FFF763FBA81D85B2782D00DD0025182048
:102960006043384940180830B10040580004030E55
:10297000002229460720FFF750FBA81D85B2782DBD
:1029800000DD0025182161432E4A89180831B20064
:102990008958C8B2FDF7E2FF18216143294A891816
:1029A0000831B20089580904080EFDF7D7FF761CDC
:1029B000042EC2D318206043224940188068C0B258
:1029C000462838D118206043401880680004000E63
:1029D00041287ED1182060434018C068C0B24E28FC
:1029E00077D1182060434018C0680004000E2028EA
:1029F0006FD11820604340180069C0B24F2868D1D9
:102A000018206043401800690004000E6E2860D151
:102A10001820604340184069C0B2202859D11820BE
:102A20006043401840690004000E202851D1002264
:102A3000022147E096E04CE0780400108C00001082
:102A400000020000780100100504000007060000E5
:102A5000F80000109000001000E100E043414E003B
:102A6000312E53656E642048656C6C6F2043414E77
:102A700021000000322E5475726E206F6E206F742C
:102A80006865722046414E00332E5475726E206F79
:102A90006666206F746865722046414E0000000033
:102AA00000000540A0040010000400000007000022
:102AB0008C04001053656E643A2048692043414EEF
:102AC000210000001046FDF72FFE7CA0FDF702FC60
:102AD00044E0182060437D4940188068C0B2462811
:102AE0003CD118206043401880680004000E412843
:102AF00034D1182060434018C068C0B24E282DD190
:102B0000182060434018C0680004000E202825D11A
:102B10001820604340180069C0B24F281ED1182009
:102B20006043401800690004000E662816D1182082
:102B3000604340184069C0B266280FD11820604336
:102B4000401840690004000E202807D1012202210C
:102B50000020FDF7E9FD5EA0FDF7BCFB0020A10011
:102B60005F4A5050641C202C00D2DFE6FFF70CF8BF
:102B70000746012F06D0022F1DD0052F35D0062F76
:102B80007ED185E010A8C08F012806DD10A8C08F77
:102B9000401E81B210A8C18702E010A8818FC187B2
:102BA000782223A96846FDF75DFB1FA80FC800F037
:102BB000C7F8002571E010A8C18F808F814206DA26
:102BC00010A8C08F401C81B210A8C18702E001206C
:102BD00010A9C887782223A96846FDF743FB1FA8E0
:102BE0000FC800F0ADF8002557E010A8C08F0128ED
:102BF00004D0022819D0032847D12DE039483349A1
:102C00000860082048603848886038492F48C1600B
:102C10003749016137494161024600210846FEF704
:102C2000CAFE35A0FDF756FB30E02E482749086064
:102C3000082048603448886034492448C1603449D9
:102C4000016134494161024600210846FEF7B3FEA6
:102C500031A0FDF73FFB19E022481C49086008201D
:102C600048602948886029491848C1602E49016197
:102C70002E494161024600210846FEF79CFE00E015
:102C80000AE02BA0FDF726FB00E000BF00BF04E038
:102C9000002010A9C88700E000BF00BF002F06D0A9
:102CA00010A8C08F002802D0FA20FEF703FF10A85A
:102CB000C08F002800D037E641B0F0BD0D0A547532
:102CC000726E206F6E2046616E0000007801001069
:102CD0000D0A5475726E206F66662046616E0000A4
:102CE000F8000010010100004869000020430000C6
:102CF000414E00002120000053656E643A2048696F
:102D00002043414E21200000464100004E2000009B
:102D10004F6E00002020000053656E643A2046414B
:102D20004E204F6E202000004F66000066200000FD
:102D300053656E643A2046414E204F66662000007F
:102D40000FB470B56946498A481E062100F080F824
:102D500085B2681C0621484384B26946088AA042AD
:102D600001DD052606E06946098A481E062100F0B5
:102D70006FF88EB2FFF76BF800210846059AFFF74F
:102D800088F95023002266211046FFF746F9672391
:102D900000226C211046FFF740F920230022722107
:102DA0001046FFF73AF928463130C3B200227821A5
:102DB0001046FFF732F9002420E06846418A0620D9
:102DC00068430019401C81420BD10621694309194F
:102DD0008B0006A9CA58A11CC8B20121FFF759F9F6
:102DE0000AE00621694309198B0006A9CA58A11CEB
:102DF000C8B20021FFF74DF9601C84B2B442DCDD9B
:102E000070BC08BC04B018477CB515461A460C00C7
:102E1000009001D00019401E074B7B446946019089
:102E2000284600F06AF9002C054603D069460020C8
:102E300000F076F928467CBD0D030000002203094E
:102E40008B422CD3030A8B4211D300239C464EE0C5
:102E500003460B433CD4002243088B4231D3030981
:102E60008B421CD3030A8B4201D394463FE0C30933
:102E70008B4201D3CB01C01A524183098B4201D34B
:102E80008B01C01A524143098B4201D34B01C01A36
:102E9000524103098B4201D30B01C01A5241C308AE
:102EA0008B4201D3CB00C01A524183088B4201D31D
:102EB0008B00C01A524143088B4201D34B00C01A09
:102EC0005241411A00D201465241104670475DE01E
:102ED000CA0F00D04942031000D3404253400022A1
:102EE0009C4603098B422DD3030A8B4212D3FC224A
:102EF000890112BA030A8B420CD3890192118B42C9
:102F000008D3890192118B4204D389013AD09211DE
:102F100000E08909C3098B4201D3CB01C01A524199
:102F200083098B4201D38B01C01A524143098B4262
:102F300001D34B01C01A524103098B4201D30B014B
:102F4000C01A5241C3088B4201D3CB00C01A524170
:102F500083088B4201D38B00C01A5241D9D2430857
:102F60008B4201D34B00C01A5241411A00D2014694
:102F7000634652415B10104601D34042002B00D5FE
:102F80004942704763465B1000D3404201B50020C0
:102F9000C046C04602BD70B5044685690068C106DA
:102FA00001D5302600E02026C00707D070BD62683A
:102FB0003046A1689047206A401C20626D1EF6D5FD
:102FC00070BD70B5044685690068C00707D170BD43
:102FD0006268A16820209047206A401C20626D1E14
:102FE000F6D570BD09684A0501D540B27047C905DC
:102FF000FCD500B2704709684A0501D5C0B27047D8
:10300000C905FCD580B2704770B505460C46012A4B
:1030100005D02868800600D5EA69002302E0012374
:1030200005E05B1C934202D2E05C0028F9D1A8695C
:10303000E618C01AA861286AC01828622846FFF757
:10304000AAFF04E06A682078A968641C9047B4422B
:10305000F8D32846FFF7B5FF70BD0000F7B500268E
:1030600075291068009914A511D0FFF7BBFF00283F
:1030700002DA404211A508E0009909688A0701D5E3
:103080000FA502E0490704D50EA5012601E0FFF7D0
:10309000B2FF009F0024243704E000F031FD3031FE
:1030A0003955641C0028F8D133462A462146009839
:1030B00000F073FAFEBD0000000000002D000000CB
:1030C0002B0000002000000011680268006A530510
:1030D00001D508700AE0D30501D5088006E0130683
:1030E00002D5C21705C101E05206086001207047F1
:1030F00001694A1C02610878704700B58FB00291DF
:1031000000210591054901937944039111460490EA
:10311000684600F041F90FB000BD0000E5FFFFFF79
:103120000A681070521C0A6070474B680A689A421D
:1031300002D2531C0B60107070470000084B70B532
:103140000C467B44FFF7D9FF05462046FDF791FC6E
:10315000002802D00020C04370BD284670BD00008A
:10316000E1D8FFFFF7B50446154686B02B497944F0
:10317000002703C93E460090019111E007986A4676
:103180007100415A02A800F099FC411C07D0216847
:10319000890603D5E269391891420ED83F18761C8A
:1031A0002068800602D5E069B84206DDAE42E5DB64
:1031B00007987100405A0028E0D1A069C01BA061A7
:1031C0002046FFF7E8FE154979445A3903C90090B3
:1031D0000020019116E041006A460798415A02A872
:1031E00000F06CFC0590401C0AD0002505E06268E8
:1031F00002A8A168405D90476D1C05988542F6D3F2
:103200000498401CB0420490E5DB206AC01920629B
:103210002046FFF7D6FE09B0F0BD000042190000BD
:10322000F7B5D21D0026D20815A5D200F52905CA8A
:1032300011D0002A05DA00214042914111A50A4629
:1032400008E0009909688B0701D50FA502E049073E
:1032500001D50EA501261146009F0024243704E065
:1032600000F05EF930323A55641C02460A43F7D149
:1032700033462A462146009800F08FF9FEBD000033
:10328000000000002D0000002B00000020000000C6
:1032900070B504460021243408E05507D2086D0FAC
:1032A000303565545D07491C2A43DB0815461D432C
:1032B000F3D10468002310A2250708D520252C404F
:1032C0000C4304D0C46901230CA2641EC46100F045
:1032D00064F970BD10B5044621461068FFF78BFEF7
:1032E000002302462046FFF7D3FF10BDD21DD108B0
:1032F000C9000CC9CCE7000000000000300000004D
:10330000F8B50F460168090502D5224C7C4402E05D
:10331000204C7C440E3405460021243508E0160775
:103320001209360FA65D6E541E07491C32431B0955
:1033300016461E43F3D1224604680023240705D510
:10334000702F06D0002901D01132022300F025F998
:10335000F8BD10320123F9E770B504460D46214649
:103360001068FFF748FE0023024629462046FFF773
:10337000C7FF70BDD21DD308DB000CCBC0E730B453
:10338000036820241268234303600823C36130BC10
:103390000023B5E7AC170000F3B50446002081B068
:1033A000B8E0E16820468847002872D0252802D07E
:1033B0006268A168ABE0594F00267F442046E1686F
:1033C00088472028054608DB312D06D27819203899
:1033D0000078002801D00643F0E7B00701D50420AB
:1033E00086430020E0610746A0612A2D0AD02846C6
:1033F00000F04EFF002827D0303DB80000190090A3
:10340000856119E00298BA00121902C89161029010
:103410002046E1688847012F054617D1E06900285A
:103420001FDA202086431CE000980A218069484367
:1034300000994019303888612046E1688847054680
:1034400000F026FF0028EFD1012F0AD02E2D08D141
:103450002046E16888470546202006437F1C022F4E
:10346000C3DBA069002803DA4042A06101200643C3
:10347000F00701D0102086436C2D0BD0682D09D0A9
:103480004C2D3CD06A2D38D0742D38D07A2D36D0C2
:1034900016E041E0E1682F4620468847B8420546DD
:1034A00009D16C2F29D001208002E1680643204613
:1034B0008847054604E06C2F1DD0FF2001300643ED
:1034C000002D29D028464138192803D80120C002F0
:1034D00006432035204626602946029A1646FCF708
:1034E0002DFE002810D001280BD0F61DF008C000DA
:1034F0000830029055E74020E1E78020D5E7002022
:10350000D3E7361D02964CE762682846A1689047CB
:10351000206A401C206244E7206AFEBD2617000096
:103520000B4670B502461D468907800808439C0873
:10353000111AA5410C092807044328096418684199
:10354000250A01060D43010A2C194141200C0D04E6
:1035500028430D0C00194D41002140194D41C00870
:1035600069070843E908840F8D0025438400241867
:103570004D4124196D41121BAB4107E00925ED4374
:103580002C11521963410024401C61411C460A253C
:103590000026551BB441F1D270BDFFB504460D465F
:1035A00081B0243000902168880604D51022E0699B
:1035B0009143216000E00120A84201DD471B00E0AB
:1035C00000270498A1697A191018081AA0612068C8
:1035D000C00602D42046FFF7DEFC002608E0039870
:1035E0006268A168805D9047206A401C761C20625A
:1035F00004988642F3DB2068C0060AD52046FFF710
:10360000CAFC06E06268A16830209047206A401C2E
:10361000206238467F1E0028F4DC07E000986268CC
:10362000A168405D9047206A401C206228466D1EBC
:103630000028F3DC2046FFF7C4FC2068000602D512
:10364000022005B0F0BD0120FBE700007047FFB588
:103650000C461E468FB003CA089009914F007D0D9D
:1036600000D16D1E002108460020C0460321099AA2
:1036700089050840002A03DA8200801840080840C3
:10368000800D01280A9002DD0020C0430A900898AE
:1036900007430DD0EF48F0492818484307141898FD
:1036A00000281DD07542291E1DDD0A9842421BE0EC
:1036B0001898012802D00020302104E00020F243B5
:1036C00005E02154401CB042FBDB30460022189B31
:1036D000002121540F998B600A60486013B0F0BD3F
:1036E000BD1B6D1CDFE70A9A002900DA69420BA8AE
:1036F00000F08AFA0BA803AB07C807C3089909981A
:1037000000F0E8FA01910146D44802920918002D10
:1037100000910ADDD14903980A9A4942401803A949
:103720000390684600F0FBFC07E003990A9A08182A
:1037300003A90390684600F0C8FC009000040292C0
:10374000000C019103D00020C043410800E0104666
:10375000189A002A03D00022009215461EE0751E1A
:1037600005D4FFF7DDFE303262556D1EF9D501221A
:103770000843079602D000227F1C04E020783028FE
:1037800001D100227F1E002A069788D01EE0112D4D
:1037900007DAFFF7C5FE303262556D1C02460A4358
:1037A000F5D108430FD10021681E05E0235C625C5F
:1037B0006354491C2254401E8142F7DBA81B401E63
:1037C0000795069002E0009800280AD0079A1899F9
:1037D0000020A0540F98079B069A43600260816006
:1037E0007CE711260020189059E7D21DF0B50D4650
:1037F0000446D10893B0C90003C90C900D9100F0A4
:1038000031FD02460D98C00F01D02D2007E0206841
:10381000810701D52B2002E04007C00F4001032A99
:103820000F9001D0072A05DB03462946204600F009
:10383000A7F90DE12068800601D5E76900E00627B9
:103840002846652D04D0662814D0672D69D12DE057
:103850000020112F009001DB112300E07B1C0CAA3B
:1038600003A910A8FFF7F3FE1199002610987D1CFC
:103870000E9142E001203B460CAAC0070B900120AC
:10388000009003A910A8FFF7E2FE119D129910986D
:10389000002600290E9501D1791C4518781B02D409
:1038A0004642761E7D1CE81B00903AE0012F00DAAC
:1038B00001270020112F009001DD112300E03B467D
:1038C0000CAA03A910A8FFF7C2FE11993D46109853
:1038D00000260E91216809070BD40E99A94200DA3F
:1038E0000D4603A9012D04DD4A19203AD27F302A62
:1038F00006D0B84201DA011D04DA012100910FE07F
:103900006D1EEFE7002802DC86192D1A03E0411C2A
:10391000A94200DD0D46801B401C00900120C0071D
:103920000B902068000705D40098A84202DB002015
:10393000C043009069460020C8720B98012102AF75
:103940000337C907884225D0022010902B20119000
:103950000B9800280BDA40420B902D20119006E0C6
:103960000B9800F0CDF830317F1E0B903970109914
:10397000481E00291090F3DC0B980028F0D1119814
:103980007F1E38702068000501D5452000E06520C5
:103990007F1E387001A8C01BC01D0B900F98002817
:1039A00000D0012041190098C01709180B98081879
:1039B000A169081A401EA0612068C00602D42046F2
:1039C000FFF7E9FA0F98002805D06268A1689047D0
:1039D000206A401C20622068C00624D52046FFF7DC
:1039E000DAFA20E0002E07DB0E98B04204DD03A8CF
:1039F0006268805DA16802E06268A168302090473B
:103A0000206A761C401C20620098401E00900AD15B
:103A100000F0B2F8C06862680168405CA168904735
:103A2000206A401C206228466D1E0028DADC07E070
:103A300062683878A1687F1C9047206A401C206229
:103A40000B99481E00290B90F2DC2046FFF7B9FACB
:103A5000022043E601FCFFFF104D0000E1DFFFFF05
:103A600010B54369002B02D0C046C04601E0FFF705
:103A7000CBFA012010BD1268014624310A700022E1
:103A80004A700122ECE711680022D243E8E710B542
:103A90004369002B02D0C046C04601E0FFF762FB3D
:103AA000012010BD12680146243182840022C284A4
:103AB0000122ECE711680022D243E8E770B5054621
:103AC0000C46164600F050F80368FF200230C05C38
:103AD000012807D0FF2C10D8185D00280DD0012038
:103AE0002C7070BDFF20324621460830C0581B188C
:103AF0002846FF330833984770BD0020C04370BD8F
:103B000001468008081A02091018020A1018020C4F
:103B10001018C008820012185200891A01E00A39F0
:103B2000401C0A29FBD27047754600F02DFBAE46BB
:103B3000050069465346C008C000854618B020B548
:103B4000FCF7B8FB60BC00274908B6460026C0C594
:103B5000C0C5C0C5C0C5C0C5C0C5C0C5C0C5403D45
:103B600049008D467047000010B500F005F8001DB3
:103B700010BD00BF5907000000487047D404001072
:103B8000F8B504461F4601230068DB020326014600
:103B90001840072A05DB002801D017A506E017A565
:103BA00004E0002801D016A500E016A510208143EE
:103BB0002160A069C01E002FA06101D0401EA0613D
:103BC0002046FFF7E8F9002F09D038466268A1685F
:103BD0009047206A401C2062C01C206206E0206AD8
:103BE000FAE762682878A1686D1C9047761EF8D2C3
:103BF0002046FFF7E6F9F8BD4E414E006E616E00BB
:103C0000494E4600696E6600F7B516468AB03048E0
:103C100078446C4603467C33C06F5A689B680DC479
:103C20002B4B7B446E33083303AC0DCB0DC43720D4
:103C3000C001081837211B30FFF70AF905460C466A
:103C4000803D1B3C02D56442012000E0002000279B
:103C500009900FE0E0070BD00C201D497843794410
:103C600032464E394118684600F02FFA6B4607C3BA
:103C700064107F1C002CEDD1154F7F442E3F16E0C1
:103C8000E80712D02001C01901460EC90691089319
:103C90000792C068F04201D198190890324606A9EF
:103CA00003A800F012FA03AB07C36D10641C002DCB
:103CB000E6D1324669460998002803A802D000F0F0
:103CC0002EFA01E000F001FA0A9B07C30DB0F0BD27
:103CD000E40E0000034640000A4610B5400D0BD02C
:103CE0000121C9070F24A40200191C036408214301
:103CF000540D2143D20207E000210120F2E7D40F46
:103D0000490021435200401E0029F8DADB0FDB078F
:103D1000184310BDFFB50C46154685B0486851687C
:103D200000F07AFA00910190A068A96800F074FA96
:103D300002910390A068696800F06EFA029A121866
:103D40008242029201D2012000E00020019A0B1869
:103D5000D2180028019202D08A4202D903E08A4296
:103D600001D2012000E0002000990818009060684E
:103D7000A96800F051FA029A12188242029201D206
:103D8000012000E00020019A0B18D21800280192AF
:103D900002D08A4202D903E08A4201D2012000E027
:103DA0000020009908180090206829684000490008
:103DB000400849084018EE49471814E001994000AE
:103DC000C90F08430090019802994000C90F0843A9
:103DD0000190029803994000C90F0843029003988C
:103DE00040007F1E039000980028E7DA089800281A
:103DF00001D0E04E00E00026B74228DAF71BF806B3
:103E0000C00E15D0029B2021091A039A8B401A4339
:103E10000392029A019BC2408B401A430292019A7C
:103E2000009BC2408B4000991A430192C14000910F
:103E30007A110BD06B460320811A01D5002101E0D5
:103E4000890059588700401ED951F5D53746039847
:103E50000299002800D0012001430898029100280F
:103E600008460CD0002800D001200199019A49058C
:103E700008430121D20AC902D202019200E00121C5
:103E80000E9B0122D207012B02D0002B03D013E09E
:103E9000002807D116E0904204D890420CD1019B33
:103EA0000B4209D0019B5918019105D10099491C79
:103EB000009101D17F1C0092002803D010210846F8
:103EC0000020C04620682968019B009A4840C10F25
:103ED0000598C90739430EC009B0F0BDFFB587B0DA
:103EE000099A0898089953689268406889689646C4
:103EF0000022039317469446089A12685300099AC1
:103F00005B081268520052089A1A9B4BD4180A9AFE
:103F1000002A01D0352200E040220692002201232F
:103F200015460492DB07059324E0002D05D1754664
:103F30000346039E4D1BB34109D375466646039B5A
:103F4000491B049D9841059B7519AC465F4163462A
:103F50003B4308D0059B049EDD0776082E435B0893
:103F60000496059301E0641E521EC50FED07491823
:103F70004041521C069B9A42D7DB002D04D1754666
:103F8000039A6B1A824101D203200CE0039A0B467C
:103F90006B404240134301D1022004E0014301D0B1
:103FA000012000E00020614601910021009702916C
:103FB0000A99002905D06146400201436D4B0191E9
:103FC00002E08007002302909C423ADA1A1BD006D6
:103FD000C00E15D0029D2021019C091AC5408C40BD
:103FE0002543029C8C4000D001242543019C02956E
:103FF0003D46C4408D4039462C43C1400194009158
:1040000054111DD06D460221002202290CD103203B
:10401000001B07E0002804DB8600AE59002E00D00C
:104020000122401C0328F5DB081B02D588002A501A
:1040300004E08000285810438A00A850491EE3D5A8
:104040001C460A98002802980CD0002800D00120B5
:104050000199019A490508430121D20AC902D202F5
:10406000019200E00121109B0122D207012B02D016
:10407000002B03D013E0002807D116E0904204D8AB
:1040800090420CD1019B0B4209D0019B5918019120
:1040900005D10099491C009101D1641C00920028AF
:1040A00003D0102108460020C04608980999019ABB
:1040B0000068096848400099C30F0798DB0723434D
:1040C0000360826041600BB0F0BD1FB50023009219
:1040D0000A46014601A8FFF71DFE01A807C804B063
:1040E00010BD1FB5012300920A46014601A8FFF743
:1040F00011FE01A80F2407C8A402C30F4000DB076C
:104100004008001B002900DB002049000005490889
:10411000CC0A204349051843D20A1143DFE71FB5F3
:10412000002300920A46014601A8FFF7D7FE01A826
:1041300007C8D4E71FB5012300920A46014601A82B
:10414000FFF7CCFE01A80F2407C8A402C30F40004C
:10415000DB074008001B002900DB002049000005A8
:104160004908CC0A204349051843D20A1143B6E74F
:1041700002C0FFFF013C0000FF3F00000446C046B4
:10418000C0462046FCF768F800487047B4040010A9
:10419000024670B50A4392072AD11E4DEE0104C8AB
:1041A00008C9541B9443344017D0D0B2D9B2401A36
:1041B0002106014310D190B299B2401A2104014363
:1041C0000AD110021902000A090A401A2102014309
:1041D00002D1100E190E401A70BD9A42DFD010BAEB
:1041E00019BA884201D9012070BD0020C04370BDBA
:1041F00002780B78401C491C002A09D09A4207D14A
:1042000002780B78401C491C002A01D09A42EFD05A
:10421000D01A70BD01010101F8B5040C8BB226461D
:1042200082B25E43104658430D0C370C3604002111
:104230008019164679416E43370C3604801926469C
:1042400079416E438919F8BD30B47446641E2578EF
:10425000641CAB4204D3635D5B00E31830BC1847B9
:104260001D46F8E74900CA02104300D004204A0D59
:1042700001D001221043054A490D914201D102218A
:104280000843012800D1052070470000FF07000007
:1042900030380A2801D20120704700207047000002
:1042A00010B500290AD00878002807D005487844BE
:1042B000FFF76EFF002801D0002010BD02487844AF
:1042C00010BD0000FE080000F608000010B500292F
:1042D0000AD00878002807D005487844FFF758FF2F
:1042E000002801D0002010BD0248784410BD000015
:1042F000EE080000E608000003B402487844844653
:1043000003BC6047EBF4FFFF0000005000000150C9
:104310000000025000000350000000500000015057
:1043200000000250000003500000FCFCFCFC0000F8
:1043300000FCFCFCFC000000E0E0E0E060E0E0E00D
:10434000C0000000ECECECEC000000043CFCFCF0D5
:104350008080F0FCFC3C04000000070F1F1F1C18AD
:104360001C1F1F0F070000001F1F1F1F001F1F1F04
:104370001F0000001F1F1F1F0000000000010F1F73
:104380001F1F1F0F010000000080E0E0F070307080
:10439000F0E0E080000000F0F0F0F000000000002D
:1043A0000000F0F0F0F03030303030000000F0F07D
:1043B000F0F03070F0F0E080000F3F3F7F706070F1
:1043C0007F3F3F0F0000007F7F7F7F606060600065
:1043D00000007F7F7F7F63636363600000007F7FF7
:1043E0007F7F60707F7F3F0F000000000000004F64
:1043F00000000007000700147F147F14242A7F2A7E
:104400001223130864623649552250000503000048
:10441000001C2241000041221C0014083E08140820
:10442000083E08080050300000080808080800602E
:1044300060000020100804023E5149453E00427FC2
:10444000400042615149462141454B311814127FC9
:104450001027454545393C4A494930017109050352
:104460003649494936064949291E003636000000BA
:10447000563600000814224100141414141400418C
:104480002214080201510906324979413E7E111178
:10449000117E7F494949363E414141227F414122B7
:1044A0001C7F494949417F090909013E4149497A2F
:1044B0007F0808087F00417F41002040413F017F85
:1044C000081422417F404040407F020C027F7F045D
:1044D00008107F3E4141413E7F090909063E415196
:1044E000215E7F09192946464949493101017F0169
:1044F000013F4040403F1F2040201F3F4038403F89
:1045000063140814630708700807615149454300A4
:104510007F41410002040810200041417F00040255
:104520000102044040404040010204000020545475
:1045300054787F48444438384444442038444448FC
:104540007F3854545418087E090102064949493FEE
:104550007F0804047800447D40002040443D007FF3
:104560001028440000417F40007C0418047C7C0833
:1045700004047838444444387C141414080814148F
:10458000187C7C080404084854545420043F4440D8
:10459000203C4040207C1C2040201C3C4030403CC3
:1045A00044281028440C5050503C4464544C44005F
:1045B0000836410000007F0000004136080002017B
:1045C0000204023E5555412200000000000000791F
:1045D00000001824742E24487E4942405D22222285
:1045E0005D15167C161500007700000A55555528F4
:1045F0000001000100000A0D0A0408142A14220414
:104600000404041C00080808000101010101000263
:1046100005020044445F444400000402017E20205F
:10462000103E060F7F007F00181800000040502049
:1046300000000A0D0A0022142A14081708342A7DE3
:104640001708046A593048454020702926287070A0
:1046500028262970702A252A707229262970702927
:10466000242970702A2D2A707E117F49490E5151DC
:1046700071117C555654447C555654447C565556BD
:10468000447C5554554400457E440000447E45001A
:1046900000467D460000457C45007F4949413E7CFF
:1046A0000A11227D38454644383844464538384654
:1046B0004546383846454639384544453822140879
:1046C00014222E5149453A3C4142403C3C40424133
:1046D0003C3C4241423C3C4140413C0C1062110C8C
:1046E0007F1212120C403E01493620555654782054
:1046F000545655782056555678205556557820559D
:10470000545578205657567824547854580C5252A1
:10471000721338555654183854565518385655563D
:1047200018385554551800497A400000487A41001D
:10473000004A794200004A784200314A4E4A307AB3
:10474000110A097030494A483030484A4930304AE5
:10475000494A30304A494A31304A484A3008082AE2
:1047600008083864544C3838414220783840422197
:1047700078384241227838424022780C5052513CDD
:104780007E141414080C5150513C1E0909295E086E
:104790001515354E384446452030484A492038459D
:1047A00046452030494A49207C45464538205050EE
:1047B0007C031F151535510E151535467C5556557C
:1047C00044385556551800447C40007F48444040CA
:1047D00000497F44007C0812217C78100A09707C13
:1047E0000912217C78110A09703847444738304B48
:1047F000484B303E417F494938443854587C15165F
:10480000354878110A091048545655202048565505
:10481000204855565520204956552004057E05044C
:10482000083C4822013C4245423C38424522783C03
:104830004340433C38434023780C1160110C4466DC
:10484000554C44486A5948004464554C4448685A99
:1048500048004465564D4448695A49000002010227
:10486000000001020100000101010001020201003B
:104870000000010000000205020002010201007FA9
:1048800005153A503E55554122181408140C444A57
:104890004A515151514A4A4474424142747E111165
:1048A000117E7F494949367F02010103704E414E16
:1048B000707F4949494161514945437F0808087F54
:1048C0003E4949493E00417F41007F081422417022
:1048D0000E010E707F020C027F7F0408107F635D63
:1048E000495D633E4141413E413F013F417F0909EE
:1048F0000906635549414101017F010103017E0120
:104900000308557F5508631408146307487F480758
:104910005E6101615E384448304C7C2A2A2A144486
:1049200038040408304B4D593028545444200018A2
:104930005552223E0402027C3C4A4A4A3C003C401A
:1049400020007C1028444041320C30407E20201052
:104950003E1C2040201C142B2A2A60384444443832
:10496000443C047C4470282424180C1212526038F1
:10497000444C5424043C4420003C4040201C182457
:104980007E241844281028440C107E100C38443023
:1049900044380A0A4A2A1E044434140C20107804AD
:1049A0000018084C483848487848484828187C0877
:1049B000087C08281840484878405454547C001813
:1049C00000584038080808080801413D0907100848
:1049D0007C02010E0243221E42427E424222120A01
:1049E0007F02423F02423E0A0A7F0A0A08464222EA
:1049F0001E0403423E02424242427E024F221F02F6
:104A00004A4A40201C4222122A46023F424A460697
:104A10004840201E08464A321E0A4A3E09080E0037
:104A20004E201E04453D0504007F08100044241F4D
:104A300004044042424240422A122A0622127B16B5
:104A4000220040201F0078000204783F4444444480
:104A5000024242221E040204083032027F02320265
:104A60001222520E002A2A2A40382422207040287E
:104A70001028060A3E4A4A4A047F04140C40424267
:104A80007E404A4A4A4A7E040545251C0F40201FA5
:104A9000007C007E40307E402010087E4242427EF4
:104AA0000E0242221E424240201802040102000768
:104AB0000507000000000000000000003031323324
:104AC0003435363738394142434445464030580042
:104AD0003031323334353637383961626364656674
:104AE00040307800040000080000000000000002D0
:104AF000000100001000000002400000000000A0C3
:104B00000000000005400000000000C80000000098
:104B10000C4000000000409C000000001940000014
:104B20000020BCBE0000000034400000BFC91B8E46
:104B300000000004B5400000504BCFD06607E2CF24
:104B4000010000006C4100003E8251AADFEEA73454
:104B500001000000D9420000DCB5A0E23A301F9706
:104B6000FFFFFFFFB4450000FD25A0C8E9A3C14F2A
:104B7000FFFFFFFFFF3F000000000080000000007B
:104B8000FF3F00000000008000000000D84C000043
:104B900000000010B800000004010000904D00006B
:104BA000B800001060060000200100001C0000009A
:104BB00043000000F8FFFFFF0C0000000E000000A3
:104BC0000F0000002E000000100100004300000054
:104BD000F8FFFFFF0040404040404040404041411E
:104BE00041414140404040404040404040404040C2
:104BF000404040404005020202020202020202025C
:104C00000202020202202020202020202020200258
:104C100002020202020290909090909010101010E8
:104C20001010101010101010101010101010101084
:104C30000202020202028888888888880808080818
:104C400008080808080808080808080808080808E4
:104C5000020202024000000000000000000000000C
:104C60000000000000000000000000000000000044
:104C70000000000000000000000000000000000034
:104C80000000000000000000000000000000000024
:104C90000000000000000000000000000000000014
:104CA0000000000000000000000000000000000004
:104CB00000000000000000000000000000000000F4
:104CC00000000000000000000000000000000000E4
:104CD0000000000000000000001BB700001BB70030
:104CE000001BB700010000000000000000000000F1
:104CF00000000000000000000000000000000000B4
:104D000000000000000000000000000000000000A3
:104D10000000000000000000000000000000000093
:104D20000000000000000000000000000000000083
:104D30000000000000000000000000000000000073
:104D40000000000000000000000000000000000063
:104D50000000000000000000000000000000000053
:104D600000000000F81FFF1F00000000571C00009B
:104D700039260000732600007526000000000000A0
:104D80000000000000000000000000000000000023
:04000005000000C136
:00000001FF
