:020000040000FA
:10000000280300102D010000350100003701000019
:1000100000000000000000000000000000000000E0
:100020000000000000000000000000003901000096
:1000300000000000000000003B0100003D01000046
:100040003F0100003F0100003F0100003F010000B0
:100050003F0100003F0100003F0100003F010000A0
:100060003F0100003F0100003F0100003F01000090
:100070003F0100003F0100003F0100003F01000080
:100080003F0100003F0100003F0100003F01000070
:10009000F90C0000010300003F0100003F010000D7
:1000A0003F0100003F0100003F0100003F01000050
:1000B000B306000085060000570600002306000076
:1000C0000348854601F0B8FD004800470D110000C7
:1000D0002803001000460046004600460046004641
:1000E00000460046004600460046004600460046E0
:1000F00000460046004600460046004600460046D0
:1001000000460046004600460046004600460046BF
:1001100000460046004600460046004600460046AF
:1001200000460046004600467047000004488047ED
:1001300004480047FEE7FEE7FEE7FEE7FEE7FEE7CE
:1001400049020000C10000005049514A11600121DC
:10015000504A11605160002151600121516000BF7F
:100160004C494968C907C90FFAD04B498868400A09
:1001700040022021014303221143474A916047492D
:10018000896B80229143454A916300BF4249C96807
:10019000C907C90FFAD003213E4A116301215163F7
:1001A000002151630121516300BF3A49496BC907DE
:1001B000C90FFAD00121374A91633549096889008E
:1001C000374A116011460968364A11607047334951
:1001D000896B052212029143304A916301212D4A15
:1001E0009160D1600021D1600121D16000BF294917
:1001F000C968C907C90FFAD027490869400A4002EF
:100200002021014303221143234A116100BF2249E7
:100210004969C907C90FFAD00121234A1160516009
:10022000002151600121516000BF1F494968C90781
:10023000C90FFAD001211C4A91601849896B1B4AE9
:100240001143164A9163704700B5022012490860B5
:10025000002008621148806B202188430F49886381
:10026000002300E05B1CFF2BFCD9FFF76DFF0B4860
:10027000806B052109028843084988630C4800689F
:100280000C4908430A49086000BD0000001BB70084
:1002900000000010408004400080044000820440C0
:1002A0000400001008000010C0800440000100009D
:1002B000808004400000010000BF044A52692023EE
:1002C0001A42FAD0014A10607047000000800040D6
:1002D00030B50B46014600202022012409E00D46DE
:1002E000D5409D4205D31D469540491B2546954066
:1002F00040191546521E002DF1DC30BDFFFFFFFFF7
:1003000070B500BF8C4A9268D0B240104007400FD1
:10031000032820D1884A5269D1B29E22114205D0C9
:10032000864A1160844A1268D3B270BDCA07D20FE0
:100330003ED0814C2468E5B2814C2268541C804E2A
:100340003460804CA55432461268402A30D10022D5
:10035000344622602CE0022811D1774C2468E5B2A3
:10036000774C2268541C764E3460764CA554324645
:100370001268402A1CD100223446226018E0062868
:1003800007D16E4A1268FF24013422436B4C22606D
:100390000EE001280CD1684A5269D1B220221142E4
:1003A00003D00122684C227002E00022664C2270C9
:1003B00000BFBAE765488068C008C000634988602C
:1003C00008468068012108436049886060480069E8
:1003D000C008C0005E490861084600690121084361
:1003E0005B4908615B48006AC008C000594908625F
:1003F0000846006A01210843564908620020486304
:100400005248806AC008C000504988620846806A25
:10041000012108434D49886200204E4988634C48B9
:10042000C069C008C0004A49C8610846C0690121C6
:1004300008434749C86100204649C8630846C06868
:10044000C008C000C8600846C0680121084341498F
:10045000C860C020384908617047F8B504460120DB
:100460003949087000203649086015200121814073
:10047000394A116000BF3748406AC008C00035499A
:1004800048620846406A01210843324948620846EA
:10049000806AC008C00088620846806A012108435B
:1004A0002C4988622D4800682D4908432B49086073
:1004B0000120886183202049C8602848876939461F
:1004C00028480068FFF704FF060921463046FFF779
:1004D000FFFE0546280A18494860E8B20860032074
:1004E000C860072088600846476900BF1248406915
:1004F00000200028FAD101E00F4807680E48406943
:10050000C007C00FF8D1152001218140164A1160A3
:1005100000BF052008494860F8BD0AE000BF064A50
:10052000526920231A42FAD00278034B1A60401C09
:10053000491E0029F2D170470080004014000010CD
:1005400010000010780000100C0000100040044063
:10055000404004408040044080E100E0808004404E
:10056000001000000800001000E100E0002806D0A4
:1005700001280CD0022812D0032820D117E0FE4A0F
:10058000D26901238B401A43FB4BDA6118E0FB4A26
:10059000D26901238B401A43F84BDA6110E0F84A24
:1005A000D26901238B401A43F54BDA6108E0F54A22
:1005B000D26901238B401A43F24BDA6100E000BF9D
:1005C00000BF704710B502460020002A06D0012A5D
:1005D0000CD0022A12D0032A20D117E0E64B9B69E7
:1005E00001248C40234200D0012018E0E34B9B699A
:1005F00001248C40234200D0012010E0E04B9B6995
:1006000001248C40234200D0012008E0DD4B9B698F
:1006100001248C40234200D0012000E000BF00BF35
:1006200010BD10B5D8480068401CD74908600121AA
:100630000020FFF7C7FF0446002C08D0D34800680D
:10064000401CD249086001210020FFF78FFFD0A095
:1006500001F004FB10BD10B5D4480068401CD3491C
:10066000086001210846FFF7ADFF0446002C08D0C2
:10067000CF480068401CCE49086001210846FFF7BA
:1006800075FF10BD10B5CB480068401CC949086013
:1006900001210220FFF796FF0446002C08D0C6482F
:1006A0000068401CC449086001210220FFF75EFF7A
:1006B00010BD10B5C1480068401CC0490860012148
:1006C0000320FFF77FFF0446002C08D0BC480068D9
:1006D000401CBB49086001210320FFF747FF10BD04
:1006E00010B5B848006840210843B64908601F208B
:1006F00000F08FFA1E2000F08CFA1D2000F089FA1D
:100700001C2000F086FA10BD10B5002806D0012884
:1007100024D0022842D0032870D15FE0964B1B689A
:1007200001248C40234209D1012A07D1924B1B6836
:1007300001248C402343904C23600EE08E4B1B68B9
:1007400001248C40234208D0002A06D18A4B1B6822
:1007500001248C40A343884C236061E0874B1B68D5
:1007600001248C40234209D1012A07D1834B1B6805
:1007700001248C402343814C23600EE07F4B1B6897
:1007800001248C40234208D0002A06D17B4B1C68F0
:1007900001238B409C43794B1C6041E0784B1B68E4
:1007A00001248C40234209D1012A07D1744B1B68D4
:1007B00001248C402343724C23600EE0704B1B6875
:1007C00001248C40234208D0002A06D16C4B1B68C0
:1007D00001248C40A3436A4C236021E0694B1B68D1
:1007E00001248C4023420AD1012A08D1654B1B68A1
:1007F00001248C402343634C23600FE00FE0614BE6
:100800001B6801248C40234208D0002A06D15D4B8E
:100810001B6801248C40A3435A4C236000E000BFB6
:1008200000BF10BD10B5002806D0012824D0022832
:1008300042D0032870D15FE0634BDB6B01248C4016
:10084000234209D1012A07D15F4BDB6B01248C4085
:1008500023435D4CE3630EE05B4BDB6B01248C4078
:10086000234208D0002A06D1574BDB6B01248C4071
:10087000A343554CE36361E0544BDB6B01248C4094
:10088000234209D1012A07D1504BDB6B01248C4054
:1008900023434E4CE3630EE04C4BDB6B01248C4056
:1008A000234208D0002A06D1484BDC6B01238B4041
:1008B0009C43464BDC6341E0454BDB6B01248C40A1
:1008C000234209D1012A07D1414BDB6B01248C4023
:1008D00023433F4CE3630EE03D4BDB6B01248C4034
:1008E000234208D0002A06D1394BDB6B01248C400F
:1008F000A343374CE36321E0364BDB6B01248C4090
:1009000023420AD1012A08D1324BDB6B01248C40EF
:100910002343304CE3630FE00FE02E4BDB6B0124ED
:100920008C40234208D0002A06D12A4BDB6B0124DD
:100930008C40A343274CE36300E000BF00BF10BD21
:1009400070B5049C002806D0012869D002287AD00E
:10095000032879D1CEE0002A49D1074D6D680126E0
:100960008E40B543044E7560002B38D13546AD68D6
:1009700001268E40B5432FE00080005000800150DA
:100980000080025000800350180000102800001062
:100990000A0D2050494F494E54305F495251486129
:1009A0006E646C657221200A0D0000001C000010AE
:1009B0002C00001020000010300000102400001057
:1009C0003400001080800440C03F0050C03F015000
:1009D000C03F0250C03F0350914EB5600EE0904DB5
:1009E000AD6801268E4035438D4EB56006E08C4DD6
:1009F0006D6801268E403543894E7560002C07D105
:100A0000874DED6801268E40B543854EF56006E0C2
:100A1000834DED6801268E403543814EF5609EE0A2
:100A2000002A1AD17F4D6D6801268E40B5437D4E58
:100A30007560002B09D13546AD6801268E40B5435F
:100A4000784EB56010E021E088E0764DAD68012673
:100A50008E403543734EB56006E0724D6D680126D9
:100A60008E4035436F4E7560002C07D16D4DED689B
:100A700001268E40B5436B4EF56006E0694DED688A
:100A800001268E403543674EF56068E0002A18D194
:100A9000654D6D6801268E40B543634E7560002B31
:100AA00007D13546AD6801268E40B5435E4EB56030
:100AB0000EE05D4DAD6801268E4035435A4EB5605F
:100AC00006E0594D6D6801268E403543564E7560DF
:100AD000002C07D1544DED6801268E40B543524E8F
:100AE000F56006E0504DED6801268E4035434E4ED0
:100AF000F56034E0002A18D14C4D6D6801268E4017
:100B0000B5434A4E7560002B07D13546AD680126C6
:100B10008E40B543454EB5600EE0444DAD680126AC
:100B20008E403543414EB56006E0404D6D6801266C
:100B30008E4035433D4E7560002C07D13B4DED682E
:100B400001268E40B543394EF56006E0374DED681D
:100B500001268E403543354EF56000E000BF00BFF2
:100B600070BD002806D001280CD0022812D003281E
:100B700020D117E02A4A126901238B401A43284BDF
:100B80001A6118E0274A126901238B401A43254B4A
:100B90001A6110E0244A126901238B401A43224B48
:100BA0001A6108E0214A126901238B401A431F4B46
:100BB0001A6100E000BF00BF7047002806D001287E
:100BC0000CD0022812D0032820D117E0144A126951
:100BD00001238B409A43124B1A6118E0114A1269A3
:100BE00001238B409A430F4B1A6110E00E4A1269A1
:100BF00001238B409A430C4B1A6108E00B4A13699E
:100C000001228A409343094A136100E000BF00BFFC
:100C10007047C206D20E01219140054A116070470B
:100C2000008000500080015000800250008003507E
:100C300000E100E070B504460D46002C32D10122DF
:100C400007210220FFF760FD012207210220FFF7A4
:100C5000E9FD002207210220FFF7E4FD00BFF8486C
:100C6000C0680221084204D0F548C068102108423B
:100C700001D0012000E000200028F0D1F04885607C
:100C800000BFEF48C06810210842FAD100BFEC480D
:100C9000C068142108400428F9D10122072102204C
:100CA000FFF7C0FDE648806880B270BD0246002AAA
:100CB0001ED100BFE248C0680223184204D0E048B9
:100CC000C0681023184201D0012000E00020002855
:100CD000F0D1DB48816000BFD948C06810231842BA
:100CE000FAD100BFD648C068142318400428F9D1AF
:100CF000D348806880B2704710B50021D04AD069CF
:100D0000C207D20F07D0CF4A1268521CCD4B1A60CF
:100D10000122CB4B1A620222104244D0CA4A1278F6
:100D2000012A28D1C94A1278521CC84B1A70C44AE9
:100D3000926891B2C64BC54C247819551A469278E0
:100D4000921CC24B1B789A4215D10022C14B1A70DB
:100D5000BE4B1A700122C04B1A700022BA4B1A7097
:100D6000BE4A1278012A06D1142201239340BC4CBA
:100D7000236000BF00BFB74A1278002A10D1B04AE2
:100D8000926891B2AA290BD10122AF4B1A70B14BD4
:100D90001A700022AD4B1A70AD4BAC4C247819552B
:100DA0000322A74B1A620422104204D0AD4A1268F3
:100DB000521CAC4B1A6010BD10B50446002C3CD13F
:100DC000A948406801210843A7494860A74800682E
:100DD000A7490843A549086002204861A548006A60
:100DE000C008C000A34908620846006A0121084300
:100DF000A04908620846406AC008C0004862084628
:100E0000406A012108439B49486202209A490863CD
:100E10009849C86095480068402108439349086094
:100E20009648C069C008C0009449C8610846C069B6
:100E3000012108439149C86147E08B48406804217B
:100E4000084389494860894800688D4908438749B3
:100E500008600220C8618748C069C008C000854991
:100E6000C8610846C069022108438249C8618248B6
:100E7000C068C008C0008049C8600846C068022138
:100E800008437D49C8607D48806AC008C0007B492E
:100E900088620846806A022108437849886273485C
:100EA0000068402108437149086074488068C008A0
:100EB000C00072498860012200210220FFF724FC53
:100EC000012200210220FFF7ADFC10BD10B5044641
:100ED000002C60D1644840680121084362494860A1
:100EE000624800686249084360490860022048611E
:100EF0006048006AC008C0005E4908620846006A8F
:100F0000012108435B4908620846406AC008C000E6
:100F100048620846406A0121084356494862022057
:100F2000554908635349C860504800684021084348
:100F30004E4908604F480068C008C0004D4908602D
:100F4000012204210220FFF7DFFB012204210220FD
:100F5000FFF768FC49480068C008C00047490860BE
:100F6000012206210220FFF7CFFB012206210220E9
:100F7000FFF758FC4148006AC008C0003F490862BA
:100F8000012207210220FFF7BFFB012207210220D7
:100F9000FFF748FC47E034484068042108433249E1
:100FA00048603248006836490843304908600220EA
:100FB000C8613048C069C008C0002E49C8610846F1
:100FC000C069022108432B49C8612B48C068C0088A
:100FD000C0002949C8600846C06802210843264964
:100FE000C8602648806AC008C00024498862084654
:100FF000806A02210843214988621C480068402118
:1010000008431A4908601D488068C008C0001B4991
:101010008860012200210220FFF776FB01220021D7
:101020000220FFF7FFFB10BD30B5024600BF002ACB
:1010300052D11449024C21600821216100BF28E0EF
:10104000000004403C00001050000010520000104E
:10105000B8000010510000105400001053000010A0
:1010600080E100E0380000100080044080800440EF
:10107000000800004040044080400440004004401C
:10108000000004000707000014498968CBB2411C26
:10109000C8B20828F8DB142101248C40104D2C60C4
:1010A00000BF0E4949680224214204D00B49496817
:1010B000A1430A4C61600421084C616021464968E3
:1010C0000824A143054C616021464968022421435C
:1010D000024C61600721616130BD000000000440E6
:1010E00000E100E09D4800E0401E0028FCD1704770
:1010F00001460022002000BF04E08B5C1B18D8B220
:10110000531CDAB20B789342F7DC70478AB00027A1
:10111000002600200190FFF797F8E1204002FFF73A
:101120009CF90020FFF748FE0020FFF77DFF8CA010
:1011300000F094FD00F032FD00F0E9F900F0E1F973
:1011400000F02CFA02E18F480078012870D18E4817
:1011500000780128FAD18D48C078212802D02228B1
:1011600067D15CE0122602A800F059FB074602ABEB
:10117000874A0121602000F08AFB074602A901206E
:1011800000F0B8FB0746002205210320FFF74AFBC9
:10119000002F38D112207F49087021204870022486
:1011A000002515E002A8405D7A49085502A8405D77
:1011B000AA2809D1601CC4B2701CC6B208460078C7
:1011C000401C087000200855601CC4B2681CC5B2E1
:1011D000B442E7DB6F48FFF78BFF05466D48855546
:1011E000AA210020FFF762FDBB210020FFF75EFD72
:1011F000002406E06748015D0020FFF757FD601CF2
:10120000C4B2B442F6DD00205E4908700122042118
:101210001046FFF707FB142000F099F856E002266D
:101220001D20019001205C4908700C24002509E074
:101230004DE04AE05548005D57494855601CC4B22E
:10124000681CC5B201988442F4DB10215248FFF7B4
:1012500064F902A800F0E3FA074602AB4C4A012108
:10126000602000F014FB07464B49012000F06CFBA6
:101270000746002F1DD103204649087022204870E0
:101280000846FFF735FF054642488570AA21002031
:10129000FFF70CFDBB210020FFF708FD002406E04E
:1012A0003C48015D0020FFF701FD601CC4B2B44260
:1012B000F6DB002033490870012204211046FFF7B5
:1012C000B1FA142000F043F800E000BF00BF02A90B
:1012D000522000F008FA0746002F0DD00122042109
:1012E0000320FFF79FFA012204211046FFF79AFA24
:1012F00000202549087029E0002204210120FFF781
:1013000091FA01202049087002A800F017FA074658
:10131000002F0DD0012204210320FFF783FA0122C0
:1013200004211046FFF77EFA0020174908700DE0EF
:10133000002204210120FFF775FA012012490870EC
:10134000002204210320FFF76DFA00BFFBE6C2066E
:10135000D20E01219140114A11607047F401000042
:10136000737461727420636865636B2052464944EC
:101370002063617264202121212121212121210A60
:101380000D0000005400001053000010B8000010C1
:101390006B000010EA0000100801001000E100E0FE
:1013A000F8B507460025002211460120FFF73AFA5A
:1013B00000220B211046FFF735FA78007E21084005
:1013C00006468036082414E080203040C2090121FE
:1013D0000846FFF727FA012200211046FFF722FAFC
:1013E0007006060E002211460120FFF71BFA601E50
:1013F000C4B2002CE8DC082412E0012200211046CF
:10140000FFF710FA6806050EFE48C06B4007C00FD4
:101410000543002211460120FFF704FA601EC4B202
:10142000002CEADC01220B210020FFF7FBF901224E
:1014300000211046FFF7F6F92846F8BDF8B5074633
:101440000D46002211460120FFF7ECF900220B2186
:101450001046FFF7E7F978007E2108400646082489
:1014600014E080203040C20901210846FFF7DAF974
:10147000012200211046FFF7D5F97006060E002262
:1014800011460120FFF7CEF9601EC4B2002CE8DC43
:10149000082418E0FEF71EFE80202840C209012122
:1014A0000846FFF7BFF9012200211046FFF7BAF9FD
:1014B0006806050EFEF70EFE002211460120FFF71A
:1014C000B1F9601EC4B2002CE4DCFEF703FE012279
:1014D0000B210020FFF7A6F9012200211046FFF79B
:1014E000A1F9F8BD70B506460C4600253046FFF759
:1014F00057FF05462846A04301463046FFF79EFFAA
:1015000070BD10B503211420FFF7ECFF10BD10B51E
:10151000012203210020FFF785F9FEF7DBFD002201
:1015200003211046FFF77EF9FEF7D4FD01220321C7
:101530000020FFF777F9FEF7CDFD0F210120FFF71F
:101540007DFFFEF7C7FD3D211120FFF777FFFEF776
:10155000C1FD1E212D20FFF771FF00212C20FFF778
:101560006DFF8D212A20FFF769FF3E212B20FFF719
:1015700065FF40211520FFF761FF002010BD70B509
:1015800006460C4600253046FFF70AFF054628466A
:10159000204301463046FFF751FF70BD10B51420BF
:1015A000FFF7FEFE0446A007800F03D1032114209D
:1015B000FFF7E5FF10BDFFB583B00646FE200290A1
:1015C0000020019000900C2E06D00E2E09D1122082
:1015D00001901020009005E07720019030200090CD
:1015E00000E000BF00BF80220198104301460220A6
:1015F000FFF724FF80210420FFF774FF0021012062
:10160000FFF71CFF80210A20FFF7B9FF002505E046
:101610000498415D0920FFF711FF6D1C0598854274
:10162000F6D331460120FFF709FF0C2E03D18021AC
:101630000D20FFF7A4FF744D00BF0420FFF7B0FE9C
:1016400004466D1E002D05D0E007C00F02D10098A2
:101650000442F2D080210D20FFF744FF002D37D047
:101660000620FFF79DFE1B2108422FD1002002908B
:1016700001982040C007C00F01D0FF2002900C2E1F
:1016800026D10A20FFF78CFE04460C20FFF788FEC7
:1016900047077F0F002F05D0601EC000C1190C98AE
:1016A000016002E0E1000C980160002C00D10124EF
:1016B000122C00DD1224002505E00920FFF770FE42
:1016C000069948556D1CA542F7D301E0FE20029013
:1016D00080210C20FFF753FF00210120FFF7AEFE11
:1016E000029807B0F0BD70B588B005460C460821D9
:1016F0000846FFF7F7FE07210D20FFF79FFE0321A5
:101700001420FFF73CFF6846057207A802AB0122D0
:1017100002A900900C20FFF74EFF0646002E09D1CB
:101720000798102806D16846007A20706846407AEB
:10173000607000E0FE26304608B070BDF0B587B09E
:101740000546002608210846FFF7CCFE00210D20A3
:10175000FFF774FE80210E20FFF7C4FE9321684638
:1017600001712021417106A801AB022201A900905C
:101770000C20FFF720FF0746002F10D1002407E0C0
:1017800001A8005D285501A8005D4640601CC4B258
:10179000042CF5DB01A8005DB04200D0FE278021BB
:1017A0000E20FFF7ECFE384607B0F0BDF7B5074650
:1017B000154604210520FFF795FE00210120FFF7C3
:1017C0003DFE80210A20FFF7DAFE002405E0395DA6
:1017D0000920FFF733FE601CC4B201988442F6DB97
:1017E00003210120FFF72AFEFF2400BF0520FFF799
:1017F000D7FD0646601EC4B2002C02D0042006426B
:10180000F4D003E0C03F0150F40100002220FFF7B4
:10181000C7FD28702120FFF7C3FD6870FEBD70B5BD
:1018200088B00546FF2693216846017270214172F7
:101830000021817300240BE0295D02AAA01C115431
:101840006946887B295D484069468873601CC4B23C
:10185000042CF1DB03AA0332072102A8FFF7A6FF3D
:1018600008210846FFF73EFE07A802AB092202A99D
:1018700000900C20FFF79FFE0646002E03D107982C
:10188000182800D100E0FE26304608B070BDFFB534
:1018900087B006460F46684606714771002406E089
:1018A0000998015D01AAA01C1154601CC4B2062C49
:1018B000F6DB002407E00A98015D01AA2046083003
:1018C0001154601CC4B2062CF5DB06A801AB0C2237
:1018D00001A900900E20FFF76EFE0546002D05D1F0
:1018E0000820FFF75DFD0821084200D1FE252846AB
:1018F0000BB0F0BDF0B587B005460E463021684606
:1019000001714571C84A6A44022101A8FFF74EFFE0
:1019100006A801AB042201A900900C20FFF74BFEA2
:101920000746002F0CD10698902809D1002404E026
:1019300001A8005D3055601CC4B2102CF8DB00E03B
:10194000FE27384607B0F0BDF0B587B006460F4613
:10195000A021684601714671B34A6A44022101A878
:10196000FFF724FF06A801AB042201A900900C2078
:10197000FFF721FE0546002D08D10698042805D161
:10198000684600790007000F0A2800D0FE25002DC8
:1019900022D1002404E0385D01A90855601CC4B2BE
:1019A000102CF8DB05AA102101A8FFF7FFFE06A8FE
:1019B00001AB122201A900900C20FFF7FCFD0546A7
:1019C000002D08D10698042805D168460079000743
:1019D000000F0A2800D0FE25284607B0F0BD00B54C
:1019E00087B0502168460171002141718E4A6A44D6
:1019F000022101A8FFF7DAFE06A801AB042201A923
:101A000000905020FFF7D7FD002007B000BDF7B5CC
:101A100088B007460E46684607724672834A6A4493
:101A2000022102A8FFF7C2FE07A802AB042202A906
:101A300000900C20FFF7BFFD0446002C08D107984A
:101A4000042805D16846007A0007000F0A2800D054
:101A5000FE24002C1CD1002505E00A98405D02A957
:101A60004855681CC5B2102DF7DB03AA042102A853
:101A7000FFF79CFE0020079007A802AB062202A9F0
:101A800000900C20FFF797FD0446FE2C00D00024A8
:101A9000002C1ED1B021684601724672634A6A4426
:101AA000022102A8FFF782FE07A802AB042202A9C6
:101AB00000900C20FFF77FFD0446002C08D107980A
:101AC000042805D16846007A0007000F0A2800D0D4
:101AD000FE2420460BB0F0BD70B588B005460E461A
:101AE000C221684601724572504A6A44022102A826
:101AF000FFF75CFE07A802AB042202A900900C20AD
:101B0000FFF759FD0446002C08D10798042805D199
:101B10006846007A0007000F0A2800D0FE24002C37
:101B200016D100216846017241728172C17203AA06
:101B3000042102A8FFF73AFE07A802AB062202A979
:101B400000900C20FFF737FD0446FE2C00D0002447
:101B5000002C02D0FE2008B070BDB0216846017292
:101B60004672324A6A44022102A8FFF71FFE07A804
:101B700002AB042202A900900C20FFF71CFD0446D2
:101B8000002C08D10798042805D16846007A000780
:101B9000000F0A2800D0FE242046DCE710B52448B8
:101BA000806BC008C000401C214988630846C06B98
:101BB000C008C000401CC8631E480068000A00023C
:101BC00081301C4908601A48406BC008C000401CA6
:101BD00017494863012200211046FEF795FD0122B6
:101BE0000B210020FEF790FD012211461046FEF762
:101BF0008BFD002202210120FEF786FD0122032138
:101C00000020FEF781FD012204210320FEF77CFD68
:101C1000012205210320FEF777FD01220421104651
:101C2000FEF772FD10BD0000060000000A00000073
:101C30004040044080400440064C0125064E05E02B
:101C40002046E36807C82B4398471034B442F7D3C3
:101C5000FEF73AFAAC1C0000CC1C000010B5024A9A
:101C6000024900F014F810BDB90200007400001021
:101C700002E008C8121F08C1002AFAD17047704755
:101C8000002001E001C1121F002AFBD17047F8B506
:101C900004460F461646002503E03946B0476D1C42
:101CA000641C20780028F8D12846F8BDCC1C000020
:101CB0000000001078000000701C0000441D0000AF
:101CC00078000010B0020000801C000000093D00F8
:101CD00000093D0000093D00010000000000000077
:101CE00000000000000000000000000000000000F4
:101CF00000000000000000000000000000000000E4
:101D000000000000000000000000000000000000D3
:101D100000000000000000000000000000000000C3
:101D200000000012345678EDCBA9871234567801A2
:101D3000FE01FE01000000FFFFFFFFFFFF000000AB
:041D4000000000009F
:04000005000000C136
:00000001FF
