:020000040000FA
:10000000780800109D020000A1020000A302000079
:10001000A5020000A7020000A902000000000000E5
:10002000000000000000000000000000AB02000023
:10003000AD02000000000000AF0200006D3E0000B5
:10004000B3020000B3020000B3020000B3020000DC
:10005000B3020000B3020000B3020000B3020000CC
:10006000B3020000B3020000B3020000B3020000BC
:10007000B302000083180000E70F00000515000020
:10008000B3020000B3020000830B0000B90B0000B4
:10009000A50F000035080000B3020000B302000005
:1000A000B3020000B3020000B3020000B30200007C
:1000B00093500000715000004350000015500000A4
:1000C00000F002F800F0BFF80CA030C8083824187F
:1000D0002D18A246671EAB4654465D46AC4201D180
:1000E00000F0B1F87E460F3E0FCCB64601263342F3
:1000F00000D0FB1AA246AB46334318471C770000DA
:100100003C770000103A02D378C878C1FAD8520779
:1001100001D330C830C101D504680C6070470000BD
:100120000023002400250026103A01D378C1FBD813
:10013000520700D330C100D50B60704710B56E294F
:1001400002D105F0A2FE10BD702902D105F0A7F87A
:1001500010BD662902D106F0A1FE10BD652902D1AD
:1001600006F09CFE10BD672902D106F097FE10BD77
:10017000612902D1C046C04610BD03681B0A01D3E5
:1001800080231943692902D105F014F810BD6429B0
:1001900002D105F00FF810BD752902D105F00AF85B
:1001A00010BD6F2902D105F077FF10BD782902D16B
:1001B00005F062F810BDE92902D105F013FF10BD6A
:1001C000E42902D105F00EFF10BDF52902D105F09A
:1001D00009FF10BDEF2902D105F06AFF10BDF82913
:1001E00002D105F057F810BD0368DB0901D3802365
:1001F0001943632902D106F0CCF910BD732902D14D
:1002000006F0CFF910BDE32902D106F0D9F910BDEF
:10021000F32902D106F0DCF910BD002010BD1FB596
:10022000C046C04606F022FA04000020002106F075
:10023000C7FD401C60600020002106F0ABFDE060BF
:100240001FBD10B510BD06F0E9F91146FFF7E7FF35
:1002500003F03BFE06F00CFD03B4FFF7F2FF03BC16
:1002600000F040FC70B505460C46164602E00FCC87
:100270000FC5103E102EFAD2082E02D303CC03C5B0
:10028000083E042E07D301CC01C5361F03E02178B8
:100290002970641C6D1C761EF9D270BD0848004799
:1002A000FEE7FEE7FEE7FEE7FEE7FEE7FEE7FEE726
:1002B000FEE7FEE703480449024A044B704700008A
:1002C000C1000000780600107808001078060010C1
:1002D000704700000FB4054910B503AA029805F055
:1002E0000FFE10BC08BC04B0184700001C00001032
:1002F000704770477047000000000000FFFFFFFFDD
:100300002E492F4A116001212E4A116051600021AF
:1003100051600121516000BF2A494968C907C90FCE
:10032000FAD029498868400A400203210143264A3D
:1003300091602649896B80229143244A916300BFD2
:100340002149C968C907C90FFAD003211D4A1163A1
:1003500001215163002151630121516300BF1949FB
:10036000496BC907C90FFAD00121164A9163144994
:1003700009688900164A116011460968154A11601A
:10038000704700B5022010490860002008620F483D
:10039000806B202188430D498863002300E05B1CAB
:1003A000FF2BFCD9FFF7ACFF064840300068012165
:1003B000090408430849086000BD0000001BB7009D
:1003C000000000104080044000800440008204408F
:1003D000040000100800001080800440A021174A8B
:1003E0005162174908610121154A5161002151618B
:1003F0000121516100BF12494969C907C90FFAD0EB
:1004000001210F4A91610F49896B402291430D4AA6
:10041000916370470A4908620121094A516200212B
:1004200051620121516200BF0549496AC907C90FDC
:10043000FAD00121024A9162704700000080044016
:10044000C08004400082044010B5F3480068402199
:100450000843F14908601F2000F0D7F91E2000F082
:10046000D4F91D2000F0D1F91C2000F0CEF910BD08
:1004700070B5049C002806D0012838D002286AD024
:1004800003287BD19CE0002A18D1E44D6D68012639
:100490008E40B543E14E7560002B07D13546AD68FF
:1004A00001268E40B543DD4EB5600EE0DB4DAD68F4
:1004B00001268E403543D94EB56006E0D74D6D68B4
:1004C00001268E403543D54E7560002C07D1D34DA3
:1004D000ED6801268E40B543D04EF56006E0CF4D65
:1004E000ED6801268E403543CC4EF5609DE0002A34
:1004F00018D1CB4D6D6801268E40B543C84E75604E
:10050000002B07D13546AD6801268E40B543C44E59
:10051000B5600EE0C24DAD6801268E403543C04E39
:10052000B56006E0BE4D6D6801268E403543BC4E79
:100530007560002C07D1BA4DED6801268E40B54399
:10054000B74EF56006E0B64DED6801268E403543A6
:10055000B34EF56069E0002A19D1B24D6D680126ED
:100560008E40B543AF4E7560002B08D13546AD685F
:1005700001268E40B543AB4EB5600FE054E0A94D67
:10058000AD6801268E403543A64EB56006E0A54D08
:100590006D6801268E403543A24E7560002C07D150
:1005A000A04DED6801268E40B5439E4EF56006E0F5
:1005B0009C4DED6801268E4035439A4EF56034E03F
:1005C000002A18D1984D6D6801268E40B543964E8D
:1005D0007560002B07D13546AD6801268E40B543C6
:1005E000914EB5600EE0904DAD6801268E403543CA
:1005F0008D4EB56006E08C4D6D6801268E4035430A
:10060000894E7560002C07D1874DED6801268E401C
:10061000B543854EF56006E0834DED6801268E40BA
:100620003543814EF56000E000BF00BF70BD00287B
:1006300006D001280CD0022812D0032820D117E0C0
:10064000764A126901238B401A43744B1A6118E0F1
:10065000734A126901238B401A43714B1A6110E0EF
:10066000704A126901238B401A436E4B1A6108E0ED
:100670006D4A126901238B401A436B4B1A6100E0EB
:1006800000BF00BF7047002806D001280CD0022808
:1006900012D0032820D117E0604A126901238B4051
:1006A0009A435E4B1A6118E05D4A126901238B4040
:1006B0009A435B4B1A6110E05A4A126901238B403E
:1006C0009A43584B1A6108E0574A136901228A403D
:1006D0009343554A136100E000BF00BF704710B557
:1006E00002460020002A06D0012A0CD0022A12D08D
:1006F000032A20D117E0494B9B6901248C402342F7
:1007000000D0012018E0464B9B6901248C40234215
:1007100000D0012010E0434B9B6901248C40234210
:1007200000D0012008E0404B9B6901248C4023420B
:1007300000D0012000E000BF00BF10BD002806D09F
:1007400001280CD0022812D0032820D117E0334A08
:10075000D26901238B401A43304BDA6118E0304AEA
:10076000D26901238B401A432D4BDA6110E02D4AE8
:10077000D26901238B401A432A4BDA6108E02A4AE6
:10078000D26901238B401A43274BDA6100E000BF96
:1007900000BF704730B513468B408400234D2D5960
:1007A00001248C40A4002B5130BD024690001F4B09
:1007B0001B580120884080001858704730B5002A27
:1007C00011D08300194CE3580124E4031B191B6862
:1007D00001248C4023438400144D2C590125ED0342
:1007E0006419236010E08300104CE3580124E403F3
:1007F0001B191B6801248C40A34384000B4D2C590A
:100800000125ED036419236030BDC206D20E01211B
:100810009140074A1160704780800440008000507A
:10082000008001500080025000800350AC6E000038
:1008300000E100E070B500BF854A9268D0B2401078
:100840004007400F032820D1814A5269D1B29E222D
:10085000114205D07F4A11607D4A1268D3B270BD43
:10086000CA07D20F3ED07A4C2468E5B27A4C22688F
:10087000541C794E3460794CA55432461268402A93
:1008800030D30022344622602CE0022811D1704C73
:100890002468E5B2704C2268541C6F4E34606F4C73
:1008A000A55432461268402A1CD3002234462260E6
:1008B00018E0062807D1674A1268FF240134224352
:1008C000644C22600EE001280CD1614A5269D1B219
:1008D0002022114203D00122614C227002E000224A
:1008E0005F4C227000BFBAE7F8B5044601205C49AE
:1008F0000870002058490860152001218140594A9C
:10090000116000BF5848406AC008C000564948629C
:100910000846406A01210843534948620846806AF4
:10092000C008C00088620846806A012108434E4919
:1009300088624E4800684E4908434C4908600120CF
:10094000886183204249C8604848876939464948D8
:10095000006804F075FD06092146304604F070FD7C
:100960000546280A3A494860E8B208600320C86092
:10097000072088600846476900BF35484069602104
:1009800008406028F9D101E03148076830484069E3
:10099000C007C00FF8D1152001218140364A1160EF
:1009A00000BF05202A494860F8BD0AE000BF284A78
:1009B000526920231A42FAD00278254B1A60401C53
:1009C000491E0029F2D1704700BF21494969202200
:1009D0001142FAD01E490860704700B5034603E093
:1009E00018785B1CFFF7F0FF18780028F8D100BDDD
:1009F0000FB400B59BB01DA80090642101A8009B16
:100A00001C9A04F077FB01A8FFF7E7FF0020009095
:100A10001BB008BC04B018470146184800680E4ACD
:100A20001268904211D00D48144A1268805C087018
:100A300012480068401C114A1060104600684028A7
:100A400001D300201060012070470020FCE7000067
:100A5000008000401800001010000010F800001086
:100A60000C00001080E100E08040044080800440E1
:100A7000001000000800001000E100E01400001069
:100A800000BF1E49496920221142FAD01B49086063
:100A9000704710B503460C461846FFF7F1FF10BD2E
:100AA00000BF174800680028FBD0062013494860A3
:100AB0000020134908600720104948601148007859
:100AC000704710B50446FFF7EBFF0346FFF7D8FF6A
:100AD00010BD00B503461846FFF7D2FF00BD014622
:100AE0000948704700BFFEE700BF04484069C007DF
:100AF000C00FFAD001480068704700000080004035
:100B000010000010F8000010FFFFFFFF70B5044652
:100B10000D46002C19D10220F74948600020C8601A
:100B2000F649F748006804F08BFC6843F249886195
:100B3000FF200860042048610120486000BFEE48A3
:100B40004068C007C00FFAD11AE0012C18D102206A
:100B5000EC4948600020C860E849E948006804F0B2
:100B60006FFC6843E7498861FF2008600420486102
:100B70000120486000BFE3484068C007C00FFAD1B9
:100B800070BDDD480068C007C00F07D00120DA49FA
:100B90000860DD480068401CDB490860D6480068F2
:100BA0001021084207D01020D3490860D7480068B8
:100BB000401CD64908607047D2480068C007C00F83
:100BC00007D00120CF490860D1480068401CD049B7
:100BD0000860CC4800681021084207D01020C9499D
:100BE0000860CC480068401CCA490860704700286B
:100BF00003D10121C04A516002E00121C14A516084
:100C00007047002803D10021BB4A516002E0002157
:100C1000BC4A516070470146002906D1B64A506867
:100C200002221043B44A506005E0B64A50680222DE
:100C30001043B44A5060704770B504460D46002C0E
:100C400044D1B5480068012149020843B24908600F
:100C5000B248006AC008C000B04908620846006A8D
:100C600002210843AD4908620846406AC008C00036
:100C700048620846406A02210843A849486208467B
:100C8000806AC008C00088620846806A0221084362
:100C9000A2498862A2480069C008C000A049086152
:100CA00008460069022108439D49086100209649D1
:100CB0000860964908609048856105208E498862E1
:100CC00003204861122000F060F922E0012C20D1BD
:100CD00091480068A10208438F4908608F48406925
:100CE000C008C0008D494861084640690221084398
:100CF0008A49486100208649086086490860814821
:100D0000856105207F49886203204861132000F037
:100D10003CF970BD70B504460D46002C12D17E48DA
:100D200000680121490208437B4908600020764998
:100D300008607148856103206F494861122000F006
:100D400024F912E0012C10D173480068A102084375
:100D50007149086000206E4908606A488561032077
:100D600068494861132000F010F970BD30B50546A0
:100D70000C4613462846FFF744FF012D5ED1664816
:100D80000068A902084364490860664818435D4941
:100D9000C863D807C00F0CD060484038C06BC0088B
:100DA000C0006149C8630846C06B032108435E491F
:100DB000C863022003420BD058480068C008C00036
:100DC00056490860084600680321084353490860F3
:100DD000042003420BD051480069C008C0004F49AD
:100DE000086108460069032108434C49086108204E
:100DF00003420BD049484069C008C00047494861D8
:100E000008464069022108434449486108201843C4
:100E1000464948634648046000683A494862444885
:100E2000006840088861424800684008C86140483E
:100E30000068400808623F4848614DE03648006855
:100E4000012149020843344908603B4818432A49B4
:100E5000C863022003420BD03048806AC008C0003B
:100E60002E4988620846806A022108432B4988621D
:100E7000042003420BD02A480069C008C00028495A
:100E800008610846006902210843254908610820D5
:100E900003420BD02448406BC008C000224948637D
:100EA0000846406B032108431F4948630820184344
:100EB000224948632248046000680F49486220487C
:100EC000006888611E4800684008C8611C480068C6
:100ED000400808621748486130BD00283DD000290D
:100EE00006D001292ED002292FD0032933D12FE09B
:100EF000044B9A6130E0000000400140E80300002C
:100F00000800001000800140240000102C00001098
:100F10002800001030000010808004408040044011
:100F200000400440980500004040044040800140DB
:100F30003800001000040000580600004040014046
:100F400034000010144BDA6106E0134B1A6203E020
:100F5000114B5A6200E000BF16E0002906D00129BB
:100F600007D0022908D003290CD108E00B4B9A6165
:100F700009E00A4BDA6106E0084B1A6203E0074B0E
:100F80005A6200E000BF00BF7047C206D20E0121C6
:100F90009140034A116070470080014000400140C9
:100FA00000E100E0F749C869C107C90F07D0F64959
:100FB0000968491CF44A11600121F24A11620221B8
:100FC000084207D0F1490968491CF04A1160022122
:100FD000EC4A11620421084204D0ED490968491C19
:100FE000EB4A11607047EB49C869C107C90F07D0C8
:100FF000E9490968491CE84A11600121E54A116282
:101000000221084207D0E5490968491CE34A1160FA
:101010000221E04A11620421084204D0E049096833
:10102000491CDF4A1160704710B50446002C40D1BE
:10103000DC48406801210843DA494860DA48006822
:10104000DA490843D849086002204861D848006A54
:10105000C008C000D64908620846006A012108435A
:10106000D34908620846406AC008C0004862084682
:10107000406A01210843CE4948620120CD490863F6
:10108000CB490863C848006840210843C649086046
:10109000C948C069C008C000C749C861012202210F
:1010A0000020FFF78BFB012202210020FFF772FBDB
:1010B00047E0BC48406804210843BA494860BA4840
:1010C0000068BE490843B84908600220C861B848B2
:1010D000C069C008C000B649C8610846C06902219D
:1010E0000843B349C861B348C068C008C000B149EB
:1010F000C8600846C06802210843AE49C860AE48CF
:10110000806AC008C000AC4988620846806A022133
:101110000843A9498862A448006840210843A249BD
:101120000860A5488068C008C000A3498860012203
:1011300000210220FFF742FB012200210220FFF7DD
:1011400029FB10BD10B50446002C60D195484068BD
:101150000121084393494860934800689349084334
:1011600091490860022048619148006AC008C000A7
:101170008F4908620846006A012108438C490862C9
:101180000846406AC008C00048620846406A01211B
:101190000843874948620220864908638449C86039
:1011A00081480068402108437F4908608048006802
:1011B000C008C0007E490860012204210220FFF718
:1011C000FDFA012204210220FFF7E4FA7A480068C0
:1011D000C008C00078490860012206210220FFF7FC
:1011E000EDFA012206210220FFF7D4FA7248006AC4
:1011F000C008C00070490862012207210220FFF7E1
:10120000DDFA012207210220FFF7C4FA47E0654812
:10121000406804210843634948606348006867499F
:101220000843614908600220C8616148C069C0087C
:10123000C0005F49C8610846C069022108435C4993
:10124000C8615C48C068C008C0005A49C860084608
:10125000C068022108435749C8605748806AC008DF
:10126000C000554988620846806A022108435249F5
:1012700088624D480068402108434B4908604E4849
:101280008068C008C0004C4988600122002102200B
:10129000FFF794FA012200210220FFF77BFA10BD2C
:1012A00070B5054600BF002D16D145483549086088
:1012B000FE200861002404E032488068C6B2601C49
:1012C000C4B2082CF8DB142000F00EF902202D49DE
:1012D00048600320486115E039482E490860022023
:1012E0000861002404E02B488068C6B2601CC4B2C8
:1012F000082CF8DB0E2000F0F7F8022025494860A2
:101300000320486170BDF8B507460D4616460098A3
:101310000090002F1AD1681E0721090208431949BD
:10132000086008460661002405E016488068C0B2DF
:101330000090601CC4B2082CF7DB142000F0D4F835
:101340000220104948600320486119E0681E072107
:10135000090208430F49086008460661002405E0B9
:101360000C488068C0B20090601CC4B2082CF7DB47
:101370000E2000F0B9F802200649486003204861B9
:10138000F8BD0000000004404000001044000010C0
:101390003C000010008005404C0000105000001080
:1013A00048000010008004408080044000080000D5
:1013B00040400440804004400040044000000400DD
:1013C0000707000070B500BF00232DE0002815D1ED
:1013D00000BF494DED6812263540022DF9D10D7838
:1013E000454EB560491C00BF434DED68142635409D
:1013F000042DF9D1404DAD68ECB214E000BF3F4D73
:10140000ED6812263540022DF9D10D783B4EB560BE
:10141000491C00BF394DED6814263540042DF9D123
:10142000364DAD68ECB25B1C9342CFD370BD30B586
:1014300000231FE000280ED1FF242F4DAC6000BF19
:101440002D4CE46814252C40042CF9D12A4CA468B6
:101450000C70491C0DE0FF24284DAC6000BF274CE8
:10146000E46814252C40042CF9D1244CA4680C7099
:10147000491C5B1C9342DDD330BD0246002A19D1C2
:1014800000BF1D48C068122318400228F9D11A482D
:10149000816000BF1848C06810231842FAD100BF0D
:1014A0001548C068142318400428F9D112488068F0
:1014B00080B2704700BF1148C0681223184002284C
:1014C000F9D10E48816000BF0C48C0681023184253
:1014D000FAD100BF0948C068142318400428F9D184
:1014E0000648806880B2E4E7C206D20E012191402E
:1014F000034A11607047000000000440008005406E
:1015000000E100E010B5012080074068C1B2480743
:10151000400F72D1C810030005F010FC0CAD071489
:1015200021A53637AE60A67091AD0020A64A1060A6
:10153000A6480078A64A9060282090610120A54A1C
:1015400010609DE00020A44A1060A0480078A04AE6
:1015500090602820906102209E4A106090E09D4893
:10156000006801280CD1984A1068421C964B1A60FA
:101570009A4A1268125C964B9A600420954A106051
:101580000820934A90617BE000BF8F480068944A2E
:10159000126890420DD28C4A1068421C8A4B1A6025
:1015A0008E4A1268125C8A4B9A600420894A106045
:1015B00010E08C480068002806D02020844A106083
:1015C0000320844A106005E00520824A1060102044
:1015D0007F4A106008207E4A906151E0814800688F
:1015E000012803D104207A4A906102E00420784A5D
:1015F00010600820764A906142E03CE0744A9268AC
:10160000D3B2754A1068421C734C2260764A126845
:10161000135420460068734A1268904205D2042091
:101620006C4A10606A4A106005E00520694A106043
:101630000420674A90610820654A906120E0644A6E
:101640009268D3B2644A1068421C634C2260664AB6
:101650001268135405205F4A106010205C4A106025
:10166000082090610CE000BF0820594A90610520D5
:10167000584A106004E000BF0820554A906100BF3E
:1016800000BF10BD002100202022514B1A600BE04A
:10169000504A1268012A01D1012006E0534A9142C2
:1016A00001D3002001E0491CF2E700BF7047102081
:1016B000474908600820886100BF4548006810213C
:1016C0000842FAD10120704710B5024648484068E8
:1016D00002231843464B58604648006820231843AD
:1016E000444B18604448006B80098001424B1863EA
:1016F0001846006B012318433F4B18631846406B94
:101700008009800158631846406B012318433A4B07
:1017100058636C202E4B9861384858611861022A32
:1017200001D12B48C1600F2001238340344C23603A
:1017300000BF4020264B1860012010BD00B50020DE
:1017400024490860244908601F490860FFF79AFF90
:10175000012803D0FFF7ABFF002000BD06E01D48C5
:101760000068052802D1FFF7A2FF00E0F7E700BFFD
:101770000120F2E770B504460D46164601202043CD
:10178000124908701848056016480660012014497F
:101790000860FFF7D3FF134800681249086070BD66
:1017A00070B504460D461646084804700B4805609F
:1017B0000B48066000200B490860FFF7BFFF084890
:1017C00000680749086070BD640000107C000010CC
:1017D0000000004054000010600000106C00001079
:1017E000780000107400001070000010FFFFFF0070
:1017F00000800440808004400040044080010000DC
:1018000000E100E030B5024600BFAF4B1B68012489
:10181000E4032342F9D17F23AB4C6360531C236064
:1018200000BFA94B1B680124E4032342F9D118230C
:101830005343A64C1819A44B5B690124A40323420B
:1018400008D0A14B19691C466469A14D2C402404A1
:10185000214303E09C4B5B69DB04590D02C09A4BAA
:101860009B691B071B0F08C0974BDB6908C0964B91
:101870001B6A08C0944B5B6A08C0934B9B6A08C004
:1018800030BD70B500BF2FE00120C003064213D069
:10189000904845684020054205D08F480068401CAC
:1018A0008D49086070BD802005421DD08B480068BE
:1018B000401C8A490860F5E76807400F14D174049A
:1018C000640C002C10D0202C0ED8824840681021C7
:1018D000884380494860611EC8B2FFF793FF012129
:1018E000601E80007E4A11507A480669002ECBD1D6
:1018F00000BFD7E7002100204AE0F322754B5A626F
:10190000002918D100229A62764ADA6200221A630C
:10191000C21DF93292000123DB031A436D4B5A6357
:10192000C207D20F02D1704A9A631FE06F4A694B17
:101930009A6301211AE06E4A664B9A626D4ADA6236
:101940006D4A821892B21A636B4A8218120C0323F2
:101950009B031A435F4B5A63C207D20F02D1624AFC
:101960009A6303E0614A5B4B9A6300210022594B62
:10197000DA63624B1A605A609A60421C554B1A62D5
:1019800000BF544A126A0123DB031A42F9D1401CFA
:101990002028B2D3704710B5044659484068082142
:1019A0000843574948605748006857490843554914
:1019B000086048480068C007C00F05D14548006866
:1019C0000121084343490860052050490860414807
:1019D0000068402108433F4908604D48C860002026
:1019E000886108460068402188433A4908600846F3
:1019F000006840084000086000BF36480068C00723
:101A0000C00FFAD1FFF776FF0D2001218140414A36
:101A1000116000BF2F4800680E2108432D4908605F
:101A200010BDF0B503460C46002A01D100BFFEE709
:101A300002CA002C02D0CE00B00800E0084620CA3E
:101A4000082D00D908250126B60731420CD18600A1
:101A500005277F033E431F4F7E6300263E632E4EC5
:101A6000FE620026BE620BE0060C07277F033E43A2
:101A7000184F7E6386B23E63284EFE621C4EBE62E5
:101A80002E07360F2327FF013E43124FBE6340CA85
:101A9000FE6340CA194F3E6040CA7E601668BE6051
:101AA000F7260C4F7E62002C02D09E1C3E6202E0A4
:101AB0005E1C084F3E6200BF064E366A0127FF03D8
:101AC0003E42F9D1F0BD000080000540B801001091
:101AD000FF5F00000000054084000010800000103F
:101AE00038010010FC1F000088100000881400005E
:101AF000FFFF0000FF9F00000000100040000540B5
:101B00000080044080800440000002008001054005
:101B10000123000000E100E0FC5F0000FFDF0000A7
:101B200070B505466348806B10218843614988631E
:101B300061480068614908435F490860002404E087
:101B40000020A1005E4A5050641C082CF8D35D4868
:101B500040698F2188435B494861084640690121FB
:101B60000843584948615848C06A8F2188435649FC
:101B7000C8620846C06A012108435349C8625148F7
:101B800080698F2188434F49886108468069012117
:101B900008434C49886129464C48006803F050FCD2
:101BA000401E00024A4908434A49086070BD70B5AA
:101BB00005464048806B102188433E4988633E4873
:101BC00000683E4908433C490860002404E00020C6
:101BD000A1003B4A5050641C082CF8D33A48406B93
:101BE00087218843384948630846406B02210843EF
:101BF0003549486333480068872188433149086084
:101C000008460068022108432E49086029462F48EB
:101C1000006803F015FC401E00022D4908432D49C1
:101C2000086070BD30B50146082900DB0021294855
:101C30000068000A0002274C20602046046801204A
:101C4000884001252D06284304432248046007E00C
:101C50008800204C00190269D00FC00700D000E0B6
:101C6000F6E700BF1B48006807242406A043194C70
:101C700020601948024201D0002030BD1004830DBD
:101C80001846FAE71348006807210906084204D0FD
:101C90001048006888430F4908600E480068FF211B
:101CA00008430C490860084600680C490843094984
:101CB00008607047008204408080044000200000DB
:101CC000B804001080400440404004400800001068
:101CD0000100200000C001400000004000000100A1
:101CE000F1B582B021488469406901902049029889
:101CF000484300900199009803F0A2FB0746019920
:101D0000009803F09DFB0D46002F0ED000260AE040
:101D100000BF16488069A042FBD300BF134880690A
:101D2000A042FBD8761CBE42F2D3002D1DD0A542A6
:101D300006D200BF0D488069611B8842FAD814E0C2
:101D4000A54205D100BF09488069A042FBD30CE041
:101D500000BF06488069A042FBD300BF03488169E9
:101D60002A1B0198801A8142F8D8FEBD00E000E0ED
:101D700080BB000010B5002203211046FEF71EFDB7
:101D8000002204210120FEF719FD00220821012074
:101D9000FEF714FD002209210120FEF70FFD0022AD
:101DA0000A210120FEF70AFD00220B210120FEF787
:101DB00005FD10BD10B508210120FEF7F6FC002836
:101DC00001D1012010BD09210120FEF7EEFC002801
:101DD00001D10220F6E70A210120FEF7E6FC0028E7
:101DE00001D10320EEE70B210120FEF7DEFC0028E5
:101DF00001D10420E6E703210020FEF7D6FC0028ED
:101E000001D10520DEE704210120FEF7CEFC0028E9
:101E100001D10620D6E70020D4E7000010B501224A
:101E200009210220FEF7CAFC012209210220FEF747
:101E3000B1FC01220A210220FEF7C0FC01220A2186
:101E40000220FEF7A7FC01220B210220FEF7B6FCC0
:101E500010BD70B50446202C01DBFF2403E0E00632
:101E6000C00E11490C5C002209210220FEF792FCF1
:101E7000002511E000220A210220FEF78BFCE20778
:101E8000D20F0B210220FEF785FC641001220A21EB
:101E90000220FEF77FFC6D1C082DEBD301220921E7
:101EA0000220FEF777FC70BDCC6E000000BF01463B
:101EB000421ED0B20029FAD1704770B506460025FF
:101EC00010E000230AE0002404E0CB20FFF7EEFF3F
:101ED000601CC4B20F2CF8DB581CC3B2832BF2DB9E
:101EE000681CC5B2B542ECDB70BD10B504460022DB
:101EF00005210220FEF74EFC002204210220FEF7FD
:101F000049FC21460020FFF7B8FA012204210220F3
:101F1000FEF740FC012205210220FEF73BFC10BD2C
:101F200010B50446012205210220FEF733FC0022F1
:101F300004210220FEF72EFC21460020FFF79DFA27
:101F4000012204210220FEF725FC012205210220A6
:101F5000FEF720FC10BD70B504462546E117090FB9
:101F6000491909110901611AC8B2FFF7BEFF2546D8
:101F7000E117090F4919091108461030FFF7B5FF9D
:101F800070BD10B504462020FFF7AFFF2046FFF7D5
:101F9000ACFF10BD70B505460C462120FFF7A5FF2C
:101FA0002846FFF7A2FF2046FFF79FFF70BD70B5E0
:101FB00005460C462220FFF798FF2846FFF795FFBD
:101FC0002046FFF792FF70BD10B504464021214323
:101FD0000846FFF78AFF10BD10B504468120FFF7C1
:101FE00084FF2046FFF781FF10BD10B504468D2009
:101FF000FFF77BFF102121430846FFF776FF10BD56
:1020000010B50446A02121430846FFF76EFF10BD1E
:1020100010B50446A42121430846FFF766FF10BD12
:1020200010B50446A62121430846FFF75EFF10BD08
:1020300010B50446A820FFF758FF2046FFF755FFCC
:1020400010BD10B50446AE2121430846FFF74DFFF1
:1020500010BD10B50446B02121430846FFF745FFE7
:1020600010BD10B50446C02121430846FFF73DFFCF
:1020700010BD10B50446D320FFF737FF2046FFF709
:1020800034FF10BD10B50446D520FFF72EFF2046C3
:10209000FFF72BFF10BD10B50446D920FFF725FF31
:1020A0002046FFF722FF10BD10B50446DA20FFF7E7
:1020B0001CFF022121430846FFF717FF10BD10B592
:1020C0000446DB20FFF711FF2046FFF70EFF10BD8F
:1020D00010B5E320FFF709FF10BD70B506460024D8
:1020E00010E02046FFF7B5FF0020FFF734FF002582
:1020F00004E03046FFF714FF681CC5B2802DF8DB02
:10210000601CC4B2082CECDB70BD10B50020FFF7DA
:10211000E4FF10BDFFB581B00D4616461F462C46A4
:1021200015E02046FFF795FF3846FFF714FF002023
:10213000009006E00198FFF7F3FE0098401CC0B243
:1021400000900A9900988842F4DB601CC4B2701CAD
:102150008442E6DB05B0F0BD70B5002413E02046F4
:10216000FFF777FF0020FFF7F6FE002507E0552078
:10217000FFF7D6FEAA20FFF7D3FE681CC5B2402D9C
:10218000F5DB601CC4B2082CE9DB70BD70B5002023
:10219000FFF75FFF0020FFF7DEFE002404E00120D0
:1021A000FFF7BEFE601CC4B2802CF8DB0720FFF7EF
:1021B00050FF0020FFF7CFFE002404E08020FFF74F
:1021C000AFFE601CC4B2802CF8DB002411E0204676
:1021D000FFF73FFF002508E02846FFF7BCFEFF2081
:1021E000FFF79EFE28467F30C5B2802DF4DB601CD1
:1021F000C4B2082CEBDB70BDFFB581B007460D46BD
:10220000012F02D0022F0BD104E0A8002818FE49AC
:10221000441805E0681E81004018FC49441800BFBE
:1022200000BF0398FFF715FF0498FFF794FE002600
:1022300005E02078FFF774FE641C701CC6B2052E02
:10224000F7DB0020FFF76CFE05B0F0BDFFB581B0F5
:1022500007460D461E462C46334660210120039A50
:10226000FFF7CAFF0CE0217833463846039AFFF7A0
:10227000C3FF641CB01DC6B22078002800D100E066
:10228000F1E700BF05B0F0BDFFB583B005460E46CF
:1022900017460295344619E02046FFF7DAFE069805
:1022A000FFF759FE002001900AE002990878FFF735
:1022B00037FE0298401C02900198401CC0B2019069
:1022C0000C9901988842F0DB601CC4B2781C8442EF
:1022D000E2DB07B0F0BDFFB581B00F4614460498AD
:1022E000203881004018C84945180198FFF7B1FE11
:1022F000002F0BD10020FFF72EFE002C03D1002071
:10230000FFF70EFE02E0FF20FFF70AFE791CC8B2BD
:10231000FFF721FE00260DE0002C03D12878FFF7FF
:10232000FFFD04E02978C943C8B2FFF7F9FD6D1C31
:10233000701CC6B2052EEFDB002C03D10020FFF786
:10234000EFFD02E0FF20FFF7EBFD05B0F0BDF8B5B3
:1023500006460F4614460025082E18DA08E02378B2
:102360003A4629463046FFF7B6FFA81D85B2641CE1
:102370002078002801D0012000E00020691C89B2EB
:10238000802901DA012100E000210842E7D1F8BDEF
:10239000FFB581B015461F46A320FFF7A6FD0298A2
:1023A000FFF7A3FD2846FFF7A0FD0198002802D003
:1023B000012825D111E000240CE0E0B2FFF704FE73
:1023C000002603E0C820FFF771FD761C0A988642BC
:1023D000F8D3E419AC42F0D312E000240DE0291B3D
:1023E000C8B2FFF7F1FD002603E0C820FFF75EFD4D
:1023F000761C0A988642F8D3E419AC42EFD300BFAA
:1024000000BF0020FFF7E0FD05B0F0BDF8B50446C1
:102410000D4616461F46262121430846FFF765FD57
:102420000020FFF762FD2846FFF75FFD3846FFF703
:102430005CFD3046FFF759FD2F20FFF756FD06984B
:10244000FFF73BFDF8BDF8B504460D4616461F469E
:10245000A320FFF74AFD3846FFF747FD0698FFF730
:1024600044FD21462931C8B2FFF73FFD0020FFF7A8
:102470003CFD2846FFF739FD0898FFF736FD30464A
:10248000FFF733FD0798FFF730FD2F20FFF72DFDF5
:102490000998FFF712FDF8BD10B52E20FFF725FDB6
:1024A00010BD10B50120FFF7CCFD00240CE0E0B218
:1024B000FFF792FDC820FFF7F9FCC820FFF7F6FCF4
:1024C000C820FFF7F3FC641CD02CF0D310BD10B56E
:1024D000D0240DE0611EC8B2FFF77EFDC820FFF7D3
:1024E000E5FCC820FFF7E2FCC820FFF7DFFC641E14
:1024F000002CEFD10020FFF7A4FD10BD10B504465D
:10250000002C02D0012C0ED106E00020FFF799FD2F
:102510000120FFF77DFD06E00020FFF779FD012097
:10252000FFF78FFD00BF00BF10BD0120FFF770FD5A
:102530000BE00120FFF785FD0220FFF7BEFC002025
:10254000FFF77FFD0220FFF7B8FCF2E710B500208F
:10255000FFF777FD8020FFF795FD3F20FFF768FD2F
:102560000020FFF786FD0020FFF72EFD0020FFF77B
:102570003CFD0220FFF705FD0120FFF741FD08208B
:10258000FFF76FFD1020FFF78FFDCF20FFF724FD31
:102590002220FFF780FD4020FFF791FD0020FFF78C
:1025A00037FD0020FFF73CFD0020FFF796FD0120DE
:1025B000FFF747FD10BD10B5012205210220FEF7EF
:1025C000FDF80020FFF73DFD8020FFF75BFD3F2079
:1025D000FFF72EFD0020FFF74CFD0020FFF7F4FC75
:1025E0000420FFF702FD0220FFF7CBFC0120FFF7DC
:1025F00007FD0820FFF735FD1020FFF755FDCF2020
:10260000FFF7EAFCF12003E0BC6F000071740000EA
:10261000FFF741FD4020FFF752FD0020FFF7F8FCD7
:102620000020FFF7FDFC0020FFF757FD0120FFF71A
:1026300008FD10BD00B587B05BA207CA04AB07C395
:102640000020FFF74AFD30202823052202210090B8
:102650005848FFF719FE0520FFF72FFCFFF737FF5B
:102660000520FFF72AFCFFF71CFF0520FFF725FCDC
:10267000202001234022002100900846FFF788FE19
:102680000520FFF71AFC20200123402200210090A2
:102690001846FFF77DFE0520FFF70FFCFFF7FCFE55
:1026A0000520FFF70AFC0120002120230190009360
:1026B000029103900B460A460846FFF7C4FE052028
:1026C000FFF7FBFB012000211F2220230093019232
:1026D000029103900B460A460846FFF7B4FE052018
:1026E000FFF7EBFB0220002101222023009301923F
:1026F000029103900B4603220846FFF7A4FE052033
:10270000FFF7DBFB022000211F2220230093019210
:10271000029103900B4603220120FFF794FE05204F
:10272000FFF7CBFB0220002101222023009301921E
:10273000029103900B46072204210120FFF783FE3C
:102740000520FFF7BAFB022000211F22202300935F
:102750000192029103900B46072204210020FFF70B
:1027600072FE0520FFF7A9FBFFF796FE0520FFF795
:10277000A4FBFF20FFF7B1FC0520FFF79EFBFFF74E
:10278000EBFC0520FFF799FB0020FFF7A6FCFFF705
:10279000FDFC0520FFF791FB2523032204A901205E
:1027A000FFF754FD07B000BD354E49564953494F18
:1027B0004E000000FC6E0000F3B587B00020C54954
:1027C000086008460768012202210320FDF7F6FF92
:1027D000002202210320FDF7DDFF1E20FFF780FA13
:1027E000012202210320FDF7D5FF00220221032050
:1027F000FDF7E4FF0020034602460221009003207B
:10280000FDF736FE02210320FDF711FF002410E042
:10281000E007C00F00231A46022100900320FDF7B5
:1028200027FE00BFAB480068B842FBD0A948076844
:10283000641C032CECD3002470E0012000231A4612
:10284000022100900320FDF713FE00BFA14800689D
:10285000B842FBD09F4807689F480068019000205D
:1028600003460246022100900320FDF701FE00BF4F
:1028700098480068B842FBD09648076896480168B7
:102880000198814204D2944901980968461A05E0EA
:10289000914801680198081A90490E1A082C07D22D
:1028A0006806050E8E48864237D30120054334E082
:1028B000102C0BD206984006000E069088488642DF
:1028C0002BD3012106980843069026E0182C0BD242
:1028D00005984006000E0590814886421DD30121CF
:1028E00005980843059018E0202C0BD20498400668
:1028F000000E04907A4886420FD3012104980843C1
:1029000004900AE003984006000E03907448864243
:1029100003D30121039808430390641C282C8CD313
:10292000012000231A46022100900320FDF7A0FD9C
:1029300000BF68480068B842FBD007990598087046
:102940000799049848700898057008990698487087
:102950000295029D06982818C0B202900599029827
:102960004018C0B20290049902984018C0B2029078
:1029700003990298884202D1012009B0F0BD0020DD
:10298000FBE730B589B00025FFF7BFFB55A200215A
:102990000846FFF7DCFC98E007A908A8FFF70CFF42
:1029A0000446002C3ED008A80078802108420FD0B1
:1029B00008A800784106490E08A8017040780090E8
:1029C00008A803784AA2102102A802F0ADFB09E092
:1029D00008A84078009008A8037849A2102102A80E
:1029E00002F0A2FB02AA00210220FFF7B0FC684619
:1029F000407F00906846037F45A2102102A802F0A4
:102A000093FB02AA00210320FFF7A1FC6846407F48
:102A100000906846037F08A84278017840A0FDF73F
:102A200059FC02E045A0FDF755FC08A800783228C3
:102A30000FDD002D0DD1012202210020FDF7AAFE9D
:102A400040A200210720FFF782FC44A0FDF742FCD2
:102A5000012508A800782D280FDA002D0DD00022BE
:102A600002211046FDF796FE42A200210720FFF743
:102A70006EFC46A0FDF72EFC0025C820FFF730F9BC
:102A8000FFF798F9062800D120E0C820FFF728F9C1
:102A9000FFF790F9062800D118E0C820FFF720F9C9
:102AA000FFF788F9062800D110E0C820FFF718F9D1
:102AB000FFF780F9062800D108E0C820FFF710F9D9
:102AC000FFF778F9062800D100E065E700BF09B0FC
:102AD00030BD0000F0000010F400001080BB0000CA
:102AE0001809000054656D7020262048756D00009F
:102AF00054656D703A202D25642E25642020000039
:102B000054656D703A2025642E2564202000000055
:102B100048756D3A202025642E2564202000000091
:102B20000D0A54656D703A2025642E2564202020FE
:102B300048756D3A202025642E2564000D0A6661D3
:102B4000696C000054656D703E35302C20547572F0
:102B50006E206F6E2046414E000000000D0A546545
:102B60006D703E35302C205475726E206F6E20468D
:102B7000414E000054656D703C34352C2054757204
:102B80006E206F66662046414E0000000D0A5465B7
:102B90006D703C34352C205475726E206F66662043
:102BA00046414E0008B50021009101226946882067
:102BB000FEF7F6FD012269468820FEF7DBFD684638
:102BC000007808BD08B501210091012269468820DE
:102BD000FEF7E6FD012269468820FEF7CBFD684638
:102BE000007808BD704708B5002168460170802153
:102BF0004170022269468820FEF7D2FDAD48AE49F9
:102C00000860AE48AE49086008BD38B5002404210C
:102C10000091012269468820FEF7C2FD0122694623
:102C20008820FEF7A7FD684604780521009101225F
:102C300069468820FEF7B4FD012269468820FEF728
:102C400099FD68460078000204439B4800684443AD
:102C50009B480168204602F0F3FB0446204638BD3D
:102C600038B50546FFF79EFF04460C2120468843F1
:102C70000446A8002043C4B2002168460170447095
:102C8000022269468820FEF78BFD38BD38B5044620
:102C9000FFF788FF0546AD08AD00284620430546EE
:102CA0000021684601704570022269468820FEF7BF
:102CB00077FD002C06D0012C08D0022C0AD0032C62
:102CC00010D10BE07D487E4908600BE07D487C49CF
:102CD000086007E07C487A49086003E010207849E2
:102CE000086000BF00BF38BD38B50446FFF76AFF73
:102CF00005460C21284688430546A0002843C5B256
:102D00000121684601704570022269468820FEF75D
:102D100047FD002C06D0012C08D0022C0AD0032C31
:102D200010D10BE06348644908600BE067486249D2
:102D3000086007E066486049086003E065485E494E
:102D4000086000BF00BF38BD38B5044600255C49A7
:102D50000968614308465849096802F071FB054655
:102D60000221684601702804010E68464170022263
:102D700069468820FEF714FD38BD38B504460025A5
:102D80004F490968614308464B49096802F058FBFE
:102D900005460321684601702804010E684641700B
:102DA000022269468820FEF7FBFC38BD38B505468F
:102DB000FFF708FF044620212046884304462046AA
:102DC0002843044601216846017044700222694686
:102DD0008820FEF7E5FC38BD10B5FFF7F3FE04468A
:102DE00020202040400910BD38B5FFF7EBFE044617
:102DF00020212046884304464121684601704470E2
:102E0000022269468820FEF7CBFC38BD38B5FFF7B3
:102E1000C9FE0446802120468843044600216846B6
:102E200001704470022269468820FEF7B9FC4020F8
:102E300004430021684601704470022269468820DC
:102E4000FEF7AEFC38BD10B586B0FFF75EF922A2E2
:102E500000210846FFF77BFA00210120FEF734FC31
:102E6000FFF7C0FEFFF7BFFE0120FFF73DFF1CA0EC
:102E7000FDF730FA1AE0FFF7C8FE0446234619A210
:102E80001421684602F050F96A4600210220FFF73B
:102E90005EFA214615A0FDF71DFAFF202D30FEF742
:102EA0001FFFFEF787FF062800D100E0E3E700BF21
:102EB00006B010BDCD0300008C0000100000010022
:102EC000900000100010000000010000340F00000E
:102ED000D03C000040F300004C69676874000000BB
:102EE0000D0A0000256420202020000025642020F9
:102EF0000000000008B509210091012269463A202E
:102F0000FEF74EFC012269463A20FEF733FC684684
:102F1000007808BD08B516210091012269463A20C3
:102F2000FEF73EFC012269463A20FEF723FC684684
:102F3000007808BD38B50446162168460170447013
:102F4000022269463A20FEF72BFC38BD10B5052059
:102F5000FFF7F0FF10BDF8B504460D46164600BF5A
:102F6000FFF7C8FFC007C00FFAD006210091012269
:102F700069463A20FEF714FC012269463A20FEF722
:102F8000F9FB6846007840B22070072100910122C9
:102F900069463A20FEF704FC012269463A20FEF712
:102FA000E9FB6846007840B22870082100910122B0
:102FB00069463A20FEF7F4FB012269463A20FEF703
:102FC000D9FB6846007840B23070F8BD70B5054650
:102FD0000024FFF79FFF04460C2120468843044647
:102FE000A8002043C4B22046FFF7A4FF70BD70B50F
:102FF00005460024FFF78EFF0446A408A4002046DF
:10300000284304462046FFF795FF70BD70B58AB08F
:103010000024002500260021039102910191FFF771
:1030200074F83CA200210846FFF791F90021012025
:10303000FEF74AFBFFF78AFF01AA02A903A8FFF7E0
:103040008AFF68460C2141560020441A6846082130
:1030500041560020451A6846042141560020461A70
:1030600054E001AA02A903A8FFF775FF6846007B98
:10307000001941B203916846007A401941B20291A9
:1030800068460079801941B2019168460C23C35605
:1030900022A2142104A802F047F804AA0021022069
:1030A000FFF755F968460C2141561FA0FDF712F9AC
:1030B00068460823C35620A2142104A802F034F85D
:1030C00004AA00210320FFF742F96846082141566F
:1030D0001CA0FDF7FFF868460423C3561DA2142167
:1030E00004A802F021F804AA00210420FFF72FF918
:1030F0006846042141561AA0FDF7ECF8FA20FEF7C5
:10310000EFFDFEF757FE062800D100E0A9E700BF5B
:103110000AB070BD417869732D33000041636320AC
:10312000783A2025642020000D0A41636320783A14
:103130002025642C2020000041636320793A20255B
:103140006420200041636320793A2025642C2020EC
:1031500000000000416363207A3A202564202000AB
:10316000416363207A3A2025642E200010B5014681
:103170000C78641EE2B2002305E0CC5CAA2C01D1DD
:10318000541CE2B25B1C0C789C42F6D8087803E031
:103190008C5C6040541EE2B2002AF9D110BDF3B538
:1031A00081B00D46802208210020FEF7ACF80120F6
:1031B000FEF796FD002207210220FDF7EBFA0198A9
:1031C000FFF7D4FF0090AA210020FEF756F9012056
:1031D000FEF786FD0024BB210020FEF74EF928559E
:1031E000641C0120FEF77CFD00270AE00198C15D08
:1031F0000020FEF742F92855641C0120FEF770FDFF
:103200007F1C01980078B842F0D800200099FEF7A2
:1032100034F92855641CFF20F530FEF761FD0120CC
:10322000287000210846FEF728F90120FEF758FD16
:1032300000210846FEF721F9AA2806D0022208211B
:103240000020FEF760F80020FEBD0120FEF748FDDB
:1032500000210846FEF711F9BB2806D002220821FA
:103260000020FEF750F80020EEE70120FEF738FDC1
:1032700001984078012806D0202806D0212806D0C1
:10328000222808D105E00B2607E0072605E01326D3
:1032900003E0032601E0072600BF00BF002700244B
:1032A00009E000210846FEF7E8F828550120FEF75E
:1032B00017FD7F1C641CB742F3D3012207210220B3
:1032C000FDF768FA0120FEF70BFD0222082100201D
:1032D000FEF719F8E0B2B7E7F0B5CDB0022120A8AB
:1032E00081850121C185CBA02C90CCA02D90CEA1B1
:1032F0002BA8C16078222FA96846FCF7B3FF2BA842
:103300000FC801F0D9FBFA20FEF7EAFC00220821E1
:103310000220FDF753FA75E108210220FDF745FA76
:1033200000285DD1C820FEF7DBFC22A9C248FFF7C8
:1033300036FF1F90C1A0FCF7CDFF0025002429E037
:103340006C2C21DC22A8435DBDA2042120A801F041
:10335000EBFE20A80378002221460620FEF7BBFFE3
:10336000A01D84B220A84378002221460620FEF743
:10337000B2FFA01D84B220A8837800222146062037
:10338000FEF7A9FFA01D84B222A8415DACA0FCF706
:10339000A1FF6D1C1F988542D2D322A8FFF7E6FE3D
:1033A000074620A8007A22A9085CB84208D1A6A244
:1033B00000210720FEF7CBFFA5A0FCF78BFF0CE058
:1033C000A5A200210620FEF7C2FFA9A20021072026
:1033D000FEF7BDFFA8A0FCF77DFFC820FEF780FC2C
:1033E000FEF7E8FC0646012E06D0022E1CD0052E64
:1033F00033D0062E7ED1F6E020A8C08D012806DD50
:1034000020A8C08D401E81B220A8C18502E020A85E
:10341000818DC18578222FA96846FCF723FF2BA850
:103420000FC801F049FBE3E020A8C18D808D8142E7
:1034300006DA20A8C08D401C81B220A8C18502E018
:10344000012020A9C88578222FA96846FCF70AFF29
:103450002BA80FC801F030FBCAE020A8C08D0128BE
:1034600002D002287ED15DE085A0FCF733FF22A9BF
:103470007148FFF794FE1F9070A0FCF72BFF00250A
:10348000002429E06C2C21DC22A8435D6CA20421DD
:1034900020A801F049FE20A803780022214606203A
:1034A000FEF719FFA01D84B220A843780022214610
:1034B0000620FEF710FFA01D84B220A8837800220A
:1034C00021460620FEF707FFA01D84B222A8415D19
:1034D0005BA0FCF7FFFE6D1C1F988542D2D322A88B
:1034E000FFF744FE074620A8007A22A9085CB842EC
:1034F0000AD100E07BE054A200210720FEF727FF5D
:1035000053A0FCF7E7FE0CE053A200210620FEF7D3
:103510001EFF57A200210720FEF719FF56A0FCF757
:10352000D9FE5EE059A0FCF7D5FE22A95B48FFF763
:1035300036FE1F9041A0FCF7CDFE002500242BE0B5
:103540006C2C23DC22A8435D3DA2042120A801F0BD
:10355000EBFD20A80378002221460620FEF7BBFEE3
:10356000A01D00E03CE084B220A843780022214660
:103570000620FEF7B0FEA01D84B220A883780022AA
:1035800021460620FEF7A7FEA01D84B222A8415DB9
:103590002BA0FCF79FFE6D1C1F988542D0D322A85C
:1035A000FFF7E4FD074620A8007A22A9085CB8428C
:1035B00008D125A200210720FEF7C9FE24A0FCF7B0
:1035C00089FE0CE024A200210620FEF7C0FE28A2FE
:1035D00000210720FEF7BBFE27A0FCF77BFE00E0E2
:1035E00000BF00BF04E0002020A9C88500E000BFA4
:1035F00000BF002E06D020A8C08D002802D0FA20DF
:10360000FEF76EFB20A8C08D002800D084E64DB0E8
:10361000F0BD00005246494400000000312E5265C2
:103620006164204361726400322E577269746520B0
:1036300043617264000000009C7600000D0A0000E7
:1036400025303258200000004F6B20200000000081
:103650000D0A4F6B20000000202020202020202079
:1036600020202020202020202020202020000000BA
:103670004661696C000000000D0A4661696C20001B
:103680000D0A524649442052656164000D0A5246B3
:10369000494420577269746500000000A676000056
:1036A00070B504460D46002211460220FDF772F85F
:1036B000E800802210436200104301460120FDF71C
:1036C000DCFE00210120FDF7D8FEC6B20122002158
:1036D0000220FDF75FF8304670BD10B502210020D2
:1036E000FFF7DEFF0446A406A40E042C13D100212C
:1036F0000846FFF7D5FFF949F94A12888854F84877
:103700000088401CF649088008460088802807DBAE
:103710000020088004E000210846FFF7C1FF0446AE
:1037200002210120FFF7BCFF0446A406A40E042CCE
:1037300013D100210120FFF7B3FFEA49EA4A1288BA
:103740008854E9480088401CE749088008460088FA
:10375000802807DB0020088004E000210120FFF71B
:103760009FFF044610BD70B504460D461646002264
:1037700011460220FDF70EF8E800620010430146F2
:103780000120FDF77AFE31460120FDF776FE012289
:1037900000210220FCF7FEFF70BDF8B505460E467D
:1037A000BF2203212846FFF7DEFF02212846FFF74C
:1037B00077FF04462046102108430246022128468E
:1037C000FFF7D1FF032211462846FFF7CCFF012166
:1037D0002846FFF765FF044620461021884302462D
:1037E00001212846FFF7BFFF04212846FFF758FFB5
:1037F0000446204680218843024604212846FFF7DC
:10380000B2FF832203212846FFF7ADFF3146E120B6
:10381000000301F015FE84B2E2B200212846FFF752
:10382000A2FF221201212846FFF79DFF0322114625
:103830002846FFF798FF00212846FFF731FF0022B6
:1038400003210846FCF7BAFF002003460246032185
:1038500000900846FCF70CFE03210846FCF7E7FE43
:10386000012211462846FFF77EFF00212846FFF778
:1038700017FFF8BD70B505460C4600BF0521284668
:10388000FFF70EFF20210842F8D0224600212846EB
:10389000FFF769FF70BD10B5044621460020FFF711
:1038A000E9FF10BD10B5044604E021780020FFF7C1
:1038B000E1FF641C20780028F7D110BD10B5044644
:1038C00021460120FFF7D6FF10BD10B5044604E0E5
:1038D00021780120FFF7CEFF641C20780028F7D163
:1038E00010BD0246002A17D1804800887C4B1B88F7
:1038F000984229D079487D4B1B88C05C08707B4872
:103900000088401C794B188018460088802801DB0D
:10391000002018800120704775480088724B1B8872
:10392000984211D06F48724B1B88C05C0870704879
:103930000088401C6E4B188018460088802801DBE8
:10394000002018800120E6E70020E4E710B50446D7
:1039500021460020FFF7C5FF10BD10B504462146E3
:103960000120FFF7BEFF10BD70B5C6B00120FDF706
:10397000E9FB022208210120FDF7C5FCE1214902F3
:103980000120FFF70AFF032120A8018201214182C3
:1039900058A0259059A026905EA124A8C16062A1DC
:1039A0000161782228A96846FCF75CFC24A80FC8AE
:1039B00001F082F80026FA20FEF792F917E11FA81D
:1039C000FDF72AF8002803D018A8007FFFF776FF3C
:1039D0001FA8FFF7C2FF002867D018A8007FFCF7D8
:1039E000F3FF18A8037F002231460120FEF773FC85
:1039F000B01D86B2782E00DD0026002404E020A948
:103A0000601C085C0855641C072CF8D318A8007FBC
:103A100020A9085520A80078462821D120A8407860
:103A200041281DD120A880784E2819D120A8C0781F
:103A3000202815D120A800794F2811D120A840793D
:103A40006E280DD120A88079202809D120A8C0791E
:103A5000202805D1012202210020FCF79BFE24E052
:103A600020A80078462820D120A8407841281CD1E1
:103A700020A880784E2818D120A8C078202814D1FA
:103A800020A800794F2810D120A8407966280CD1B1
:103A900020A88079662808D120A8C079202804D1E0
:103AA000002202211046FCF775FEFEF783F9054659
:103AB0002846012D06D0022851D005286CD00628B2
:103AC00073D18EE020A8408A012837DD20A8408AE3
:103AD000401E81B220A8418233E00000D8040010CB
:103AE0009400001058050010980000109600001077
:103AF0009A0000105A69674265650000312E5365CF
:103B00006E642048656C6C6F205A69674265652158
:103B100000000000322E53656E64205475726E20D2
:103B20006F6E2046414E0000332E53656E64205464
:103B300075726E206F66662046414E0020A8018A8D
:103B40004182782228A96846FCF78CFB24A80FC87C
:103B500000F0B2FF0026FA20FEF7C2F846E020A8E7
:103B6000418A008A814206DA20A8408A401C81B23C
:103B700020A8418202E0012020A94882782228A9B9
:103B80006846FCF76FFB24A80FC800F095FF0026DD
:103B9000FA20FEF7A5F829E020A8408A012805D0E0
:103BA00002280AD0032816D10EE01EE070A0FFF70D
:103BB0008CFE73A0FCF78EFB0EE077A0FFF785FE6E
:103BC00078A0FCF787FB07E07CA0FFF77EFE7EA0D5
:103BD000FCF780FB00E000BF00BFFA20FEF780F892
:103BE00004E0002020A9488200E000BF00BF20A818
:103BF000408A002800D0E2E646B070BD30B5C1B0C2
:103C00000120FDF79FFA022208210120FDF77BFB2E
:103C1000E12149020020FFF7C0FD032110A88187A0
:103C20000121C1876EA020906FA0219074A11FA8D0
:103C3000C16078A10161782223A96846FCF712FBD4
:103C40001FA80FC800F038FF0025FA20FEF748F83B
:103C500086E01EA8FCF7E0FE002807D018A8007E2A
:103C6000FFF719FE18A8007EFCF7AEFE1EA8FFF7AE
:103C70006DFE00280FD018A8037E002229460720D9
:103C8000FEF729FBA81D85B2782D00DD002518A8B8
:103C9000007EFCF799FEFEF78DF80446012C06D055
:103CA000022C1DD0052C35D0062C4ED149E010A891
:103CB000C08F012806DD10A8C08F401E81B210A859
:103CC000C18702E010A8818FC187782223A96846A6
:103CD000FCF7C8FA1FA80FC800F0EEFE002535E07B
:103CE00010A8C18F808F814206DA10A8C08F401CB7
:103CF00081B210A8C18702E0012010A9C8877822EC
:103D000023A96846FCF7AEFA1FA80FC800F0D4FE3E
:103D100000251BE010A8C08F012802D002280DD179
:103D200006E042A0FFF7BEFD44A0FCF7D3FA06E090
:103D300048A200210720FEF70AFB00E000BF00BFF9
:103D400004E0002010A9C88700E000BF00BF002CDD
:103D500006D010A8C08F002802D0FA20FDF7C0FFBF
:103D600010A8C08F002800D073E741B030BD00001C
:103D700048656C6C6F205A69674265652120200098
:103D80000D0A53656E642048656C6C6F205A696734
:103D9000426565212020000046414E204F6E2020C4
:103DA000000000000D0A53656E64205475726E2089
:103DB0006F6E2046414E20200000000046414E20FC
:103DC0004F666620200000000D0A53656E64205483
:103DD00075726E206F66662046414E2020000000FE
:103DE00052532D3438350000312E53656E6420480F
:103DF000656C6C6F2052532D343835210000000063
:103E0000322E5475726E206F6E206F74686572204A
:103E100046414E00332E5475726E206F6666206FD9
:103E2000746865722046414E0000000048656C6C65
:103E30006F2052532D3438352120000053656E64B5
:103E40003A2048656C6C6F2052532D343835212050
:103E500000000000202020202020202020202020E2
:103E600020202020202020202000000010B5E6483F
:103E70000068401CE4490860084600680146FF39B4
:103E8000F53913D1002201210320FCF783FCDF4820
:103E90000078FDF7DEFFDD480078401CDB49087044
:103EA00008460078C006C00E08700DE0D6480068CD
:103EB0007D21C900884207D3012211460320FCF767
:103EC00069FC0020D049086010BDC0B0FCF759FA69
:103ED000FCF7BAFA0320FCF79DFACD480069C00848
:103EE000C000CB4908610846006901210843C84960
:103EF0000861012200210320FCF760FC012200215F
:103F00000320FCF747FC012211460320FCF756FC76
:103F1000012211460320FCF73DFC01220221002072
:103F2000FCF74CFC002202211046FCF733FCB84899
:103F30004030C06BC008C000B649C8630846C06BBB
:103F400001210843B349C863012211461046FCF71A
:103F500035FC012211461046FCF71CFCFDF75EFF04
:103F60002020FDF776FFFDF705FFAB4DAB488542FE
:103F700000D90FE02802000A401EA9494861072124
:103F80000020C04300F008F90020A54988610720FF
:103F9000086100BF002211460320FCF7FBFB002252
:103FA00001210320FCF7F6FBC820FDF799FE012252
:103FB00000210320FCF7EEFB012211460320FCF751
:103FC000E9FB0020FDF7BEF8022208210020FDF7E2
:103FD0009AF9FEF7F0FA0C2110A801870121418718
:103FE00090A01F9091A0209092A11EA8C16094A1C2
:103FF000016195A1416196A1816199A1C1619BA1D6
:1040000001629DA141629FA18162A0A1C162A2A1A2
:104010000163A4A14163782222A96846FCF722F932
:104020001EA80FC800F048FDE1204002FCF75CFC30
:104030009EA0FCF74FF9FA20FDF752FEABE0FDF72A
:10404000B9FE04462046012C06D002281CD00528C3
:1040500033D0062874D189E010A8408F012806DDEE
:1040600010A8408F401E81B210A8418702E010A81E
:10407000018F4187782222A96846FCF7F3F81EA831
:104080000FC800F019FD7FE010A8418F008F81421A
:1040900006DA10A8408F401C81B210A8418702E0C8
:1040A000012010A94887782222A96846FCF7DAF88F
:1040B0001EA80FC800F000FD66E010A8408F0300A6
:1040C00002F03CFE0D51080E141A20262C32383F07
:1040D000454B51007BA0FCF7FDF800F0CBFD43E021
:1040E0007CA0FCF7F7F800F052FE3DE07EA0FCF764
:1040F000F1F800F0CFFE37E07FA0FCF7EBF8FEF719
:1041000099FA31E080A0FCF7E5F8FEF73AFC2BE0E5
:1041100085A0FCF7DFF8FEF796FE25E086A0FCF709
:10412000D9F8FEF773FF1FE08BA0FCF7D3F800F07F
:1041300027FD19E08DA0FCF7CDF8FFF7CDF813E0CF
:1041400021E08EA0FCF7C6F8FFF70EFC0CE08FA074
:10415000FCF7C0F8FFF752FD06E090A0FCF7BAF8B4
:1041600000F070FA00E000BF00BF0DE0782222A945
:104170006846FCF777F81EA80FC800F09DFC4BA01E
:10418000FCF7A8F800E000BF00BF002C02D0FA2026
:10419000FDF7A6FD30BF52E710B5002819DA834AB3
:1041A00003071B0F083B9B089B00D2588307DC0EBC
:1041B000FF23A3409A434B071B0E8407E40EA34042
:1041C0001A437A4B0407240F083CA408A4001A5190
:1041D00018E0774A03231B02D21883089B00D258A9
:1041E0008307DC0EFF23A3409A434B071B0E840773
:1041F000E40EA3401A436E4B032424021B198408C7
:10420000A4001A5110BD00009C000010A000001076
:10421000004004404040044080BB0000FFFFFF001E
:1042200000E000E04D61696E00000000312E204C7E
:1042300045440000322E20537065616B65720000AA
:10424000332E2046616E0000342E204F4C45440032
:10425000352E2054656D7020262048756D000000B5
:10426000362E204C6967687400000000372E20410C
:104270007869732D33000000382E20566F6C7461FE
:1042800067650000392E20524649440031302E2007
:104290005A6967426565000031312E52532D34381A
:1042A0003500000031322E43414E00000D0A0D0A48
:1042B00046535F3131433134204D61696E204D6585
:1042C0006E7500000D0A0D0A4C4544205465737448
:1042D000000000000D0A0D0A537065616B657220C5
:1042E00054657374000000000D0A0D0A46616E20CB
:1042F00054657374000000000D0A0D0A4F4C4544CC
:1043000020546573740000000D0A0D0A54656D7029
:104310006572617475726520262048756D696469DF
:1043200074792054657374000D0A0D0A4C6967682E
:1043300074205465737400000D0A0D0A332041780F
:10434000697320416363656C65726F6D6574657236
:1043500020546573740000000D0A0D0A566F6C74CA
:104360006167652054657374000000000D0A0D0A32
:104370005246494420546573740000000D0A0D0A2A
:104380005A69674265652054657374000D0A0D0A09
:1043900052532D3438352054657374000D0A0D0ABC
:1043A00043414E2054657374000000001CED00E092
:1043B00000E100E010B50446FE484474FE48006881
:1043C00000688068C168FB488847012C0ED1022034
:1043D000F849487408460068FF3001300860F64824
:1043E0000068006880680169F248884710BD70471E
:1043F0007047F248F2490860082048600120886050
:10440000EE49C91CEE48C160EE490161EE494161C7
:1044100004E0EB4A00210846FDF703FBF9E700241E
:1044200004E00020A100E94A5050641C202CF8D37D
:1044300015E0002411E0A000E449085801280BD140
:1044400018216143DE4BCA18E0B20121FDF7E9FAF9
:104450000020A100DD4A5050641C202CEBD3E8E77B
:1044600030B5C1B0D4480068006880680121026896
:10447000D74890470D2001218140D64A116000BFE6
:10448000032110A881870121C187D3A02090D3A048
:104490002190D7A11FA8C160DAA10161782223A9C8
:1044A0006846FBF7DFFE1FA80FC800F005FB0025DC
:1044B000FA20FDF715FCBEE0D848406810210842FC
:1044C00020D0D64840688843D44948600120D44968
:1044D0004874D4480860D44848602020D349087202
:1044E0002021D248417281722D21C1720173417322
:1044F00081730021C173B0480068006880688168DA
:10450000C74888470021C648C173002413E0C44847
:104510000830035D002229460720FDF7DCFEA81DB8
:1045200085B2782D00DD0025BD490831085DFCF716
:104530004BFA601C84B2082CE9DBFDF73BFC044617
:10454000012C06D0022C1DD0052C35D0062C67D1AD
:1045500062E010A8C08F012806DD10A8C08F401EA1
:1045600081B210A8C18702E010A8818FC18778228C
:1045700023A96846FBF776FE1FA80FC800F09CFA37
:1045800000254EE010A8C18F808F814206DA10A866
:10459000C08F401C81B210A8C18702E0012010A981
:1045A000C887782223A96846FBF75CFE1FA80FC8BE
:1045B00000F082FA002534E010A8C08F012802D054
:1045C000022826D124E000209849487495480860C4
:1045D0000020486008200874482008726921934828
:1045E0004172202181724321C172412101734E2108
:1045F0004173212181730021C1736F4800680068F5
:10460000806801698948884789A0FBF763FE01E05B
:1046100000E000BF00BF04E0002010A9C88700E050
:1046200000BF00BF002C06D010A8C08F002802D009
:10463000FA20FDF755FB10A8C08F002800D03BE7FB
:1046400041B030BDF0B5C1B0002404E00020A100AD
:104650005E4A5050641C202CF8D3FF200430FDF734
:104660009AF9032110A881870121C1875AA02090BF
:104670005AA021905EA11FA8C16062A101617822A9
:1046800023A96846FBF7EEFD1FA80FC800F014FA37
:104690000025FA20FDF724FBC4E100241EE1A00060
:1046A0004A49085801287DD100263AE01820604385
:1046B000434940180830B1004058C3B2002229468F
:1046C0000720FDF708FEA81D85B2782D00DD002526
:1046D000182060433A4940180830B100405800049F
:1046E000030E002229460720FDF7F5FDA81D85B21F
:1046F000782D00DD002518216143314A89180831E1
:10470000B2008958C8B2FCF75FF9182161432C4AFE
:1047100089180831B20089580904080EFCF754F9C9
:10472000761C042EC2D318206043254940188068A7
:10473000C0B246283CD1182060434018806800046D
:10474000000E412834D1182060434018C068C0B220
:104750004E2879D1182060434018C0680004000E2C
:10476000202871D11820604340180069C0B24F283A
:104770006AD118206043401800690004000E6E28BA
:1047800062D11820604340184069C0B220285BD134
:1047900018206043401840690004000E202853D1BF
:1047A000012200E099E002210020FBF7F3FF47E03F
:1047B0004AE00000D8050010A4000010000200002C
:1047C000B8010010050400000706000038010010C1
:1047D000A800001000E100E043414E00312E536577
:1047E0006E642048656C6C6F2043414E21000000D0
:1047F000322E5475726E206F6E206F746865722051
:1048000046414E00332E5475726E206F6666206FDF
:10481000746865722046414E0000000000000540AB
:10482000000600100004000000070000EC05001066
:1048300053656E643A2048692043414E21000000D0
:104840007CA0FBF747FD44E0182060437D494018F9
:104850008068C0B246283CD1182060434018806868
:104860000004000E412834D1182060434018C0686D
:10487000C0B24E282DD1182060434018C0680004F3
:10488000000E202825D11820604340180069C0B2CE
:104890004F281ED118206043401800690004000E04
:1048A000662816D11820604340184069C0B26628B7
:1048B0000FD118206043401840690004000E2028E2
:1048C00007D1002202211046FBF764FF5EA0FBF730
:1048D00001FD0020A100604A5050641C202C00D231
:1048E000DDE6FDF767FA0746012F06D0022F1DD03F
:1048F000052F35D0062F7CD185E010A8C08F012868
:1049000006DD10A8C08F401E81B210A8C18702E04A
:1049100010A8818FC187782223A96846FBF7A2FCE3
:104920001FA80FC800F0C8F8002571E010A8C18FBB
:10493000808F814206DA10A8C08F401C81B210A877
:10494000C18702E0012010A9C887782223A9684600
:10495000FBF788FC1FA80FC800F0AEF8002557E051
:1049600010A8C08F012804D0022819D0032847D1ED
:104970002DE03A483349086008204860384888608C
:1049800038493048C16038490161384941610246BF
:1049900000210846FDF745F835A0FBF79BFC30E009
:1049A0002E48284908600820486035488860354905
:1049B0002448C16034490161344941610246002103
:1049C0000846FDF72EF832A0FBF784FC19E02348D7
:1049D0001C4908600820486029488860294919480E
:1049E000C1602F4901612F494161024600210846FB
:1049F00000E00CE0FDF715F82BA0FBF76BFC00E0E6
:104A000000BF00BF04E0002010A9C88700E000BF7D
:104A100000BF002F06D010A8C08F002802D0FA20B7
:104A2000FDF75EF910A8C08F002800D035E641B030
:104A3000F0BD00000D0A5475726E206F6E20466145
:104A40006E000000B80100100D0A5475726E206FE0
:104A500066662046616E000038010010010100000A
:104A60004869000020430000414E00002120000062
:104A700053656E643A2048692043414E212000006E
:104A8000464100004E2000004F6E00002020000034
:104A900053656E643A2046414E204F6E2020000040
:104AA0004F6600006620000053656E643A20464160
:104AB0004E204F66662000000FB470B56946498AE3
:104AC000481E062100F0C6FC85B2681C062148433A
:104AD00084B26946088AA04201DD052606E06946DF
:104AE000098A481E062100F0B5FC8EB2FDF70DFBC9
:104AF00000210846059AFDF72AFC50230022662172
:104B00001046FDF7E8FB672300226C211046FDF7F5
:104B1000E2FB2023002272211046FDF7DCFB284631
:104B20003130C3B2002278211046FDF7D4FB0024B7
:104B300020E06846418A062068430019401C8142F3
:104B40000BD10621694309198B0006A9CA58A11C7B
:104B5000C8B20121FDF7FBFB0AE0062169430919F0
:104B60008B0006A9CA58A11CC8B20021FDF7EFFBB3
:104B7000601C84B2B442DCDD70BC08BC04B01847D1
:104B8000F0B58BB0FDF7C1FA2CA200210846FDF765
:104B9000DEFB2CA0FBF79EFB2B48FDF708F846E058
:104BA0000020FDF73FF80746384600F079FF05463C
:104BB000264A274B00F078FF0022264B01910090F7
:104BC00000F02AFD0391029000F0E8FC044622491F
:104BD000204602F00BF9054601F0ACF807460A2121
:104BE000384600F02DFC0D460A21384600F028FC1E
:104BF0000646334619A2152104A8009500F094FA40
:104C000004AA00210220FDF7A2FB0A21384600F089
:104C100017FC0D460A21384600F012FC06462A46CB
:104C2000314611A0FBF756FBFA20FDF759F8FDF7C6
:104C3000C1F80628B4D10BB0F0BD0000566F6C74FB
:104C4000616765000D0A0000009F240066666666C5
:104C500066660A4000F88F400000204125642E253A
:104C6000645620202000000025642E256456202054
:104C70000000000010B5C0B0022110A8018701217A
:104C80004187C6A01F90C6A02090C9A11EA8C160E0
:104C9000782222A96846FBF7E5FA1EA80FC8FFF79D
:104CA0000BFFFA20FDF71CF86BE0FDF783F80446D4
:104CB000012C06D0022C1CD0052C33D0062C55D14B
:104CC00050E010A8408F012806DD10A8408F401E3C
:104CD00081B210A8418702E010A8018F4187782295
:104CE00022A96846FBF7BEFA1EA80FC8FFF7E4FE2C
:104CF0003DE010A8418F008F814206DA10A8408F56
:104D0000401C81B210A8418702E0012010A9488709
:104D1000782222A96846FBF7A5FA1EA80FC8FFF75C
:104D2000CBFE24E010A8408F012802D0022816D123
:104D30000AE0002211460320FBF72CFD002201218E
:104D40000320FBF727FD0BE0012200210320FBF7E6
:104D500021FD012211460320FBF71CFD00E000BFEE
:104D600000BF04E0002010A9488700E000BF00BF9A
:104D7000002C06D010A8408F002802D0FA20FCF7A3
:104D8000AFFF10A8408F00288FD140B010BD10B5E4
:104D9000C0B0022110A801870121418788A01F907F
:104DA00089A020908DA11EA8C160782222A9684602
:104DB000FBF758FA1EA80FC8FFF77EFEFA20FCF793
:104DC0008FFF61E0FCF7F6FF0446012C06D0022CB1
:104DD0001CD0052C33D0062C4BD146E010A8408FB8
:104DE000012806DD10A8408F401E81B210A841871F
:104DF00002E010A8018F4187782222A96846FBF7BC
:104E000031FA1EA80FC8FFF757FE33E010A8418FF4
:104E1000008F814206DA10A8408F401C81B210A892
:104E2000418702E0012010A94887782222A968461C
:104E3000FBF718FA1EA80FC8FFF73EFE1AE010A8ED
:104E4000408F012802D002280CD105E00022012168
:104E50000846FBF79FFC06E0012211461046FBF7CF
:104E600099FC00E000BF00BF04E0002010A94887C3
:104E700000E000BF00BF002C06D010A8408F002823
:104E800002D0FA20FCF72CFF10A8408F002899D1FF
:104E900040B010BD10B5C0B0022110A8018701219B
:104EA000418753A01F9053A0209056A11EA8C16017
:104EB000782222A96846FBF7D5F91EA80FC8FFF78C
:104EC000FBFDFA20FCF70CFF61E0FCF773FF0446E2
:104ED000012C06D0022C1CD0052C33D0062C4BD133
:104EE00046E010A8408F012806DD10A8408F401E24
:104EF00081B210A8418702E010A8018F4187782273
:104F000022A96846FBF7AEF91EA80FC8FFF7D4FD2B
:104F100033E010A8418F008F814206DA10A8408F3D
:104F2000401C81B210A8418702E0012010A94887E7
:104F3000782222A96846FBF795F91EA80FC8FFF74B
:104F4000BBFD1AE010A8408F012802D002280CD126
:104F500005E0012202210020FBF71CFC06E00022F4
:104F600002211046FBF716FC00E000BF00BF04E082
:104F7000002010A9488700E000BF00BF002C06D029
:104F800010A8408F002802D0FA20FCF7A9FE10A834
:104F9000408F002899D140B010BD00004C4544001E
:104FA000312E5475726E206F6E204C454400000007
:104FB000322E5475726E206F6666204C4544000098
:104FC000537065616B657200312E5475726E206F7F
:104FD0006E20537065616B6572000000322E54754F
:104FE000726E206F666620537065616B657200009B
:104FF00046414E00312E5475726E206F6E20464130
:105000004E000000322E5475726E206F6666204688
:10501000414E000010B52F480068401C2D49086023
:1050200001210020FBF75BFB0446002C08D02A4836
:105030000068401C2849086001210020FBF77EFB26
:1050400010BD10B525480068401C244908600121A6
:105050000846FBF744FB0446002C08D020480068B3
:10506000401C1F49086001210846FBF767FB10BD83
:1050700010B508210220FBF732FB002808D01948A0
:105080000068401C1749086008210220FBF756FB06
:1050900010BD10B502210320FBF721FB00280CD026
:1050A000114880691149086011480068401C104986
:1050B000086002210320FBF741FB03210846FBF7B0
:1050C0000EFB002805D0FEF708FB03210846FBF77E
:1050D00035FB10BDD0000010D4000010D800001027
:1050E000DC000010E400001000E000E0F40000101C
:1050F000F00000107CB515461A460C00009001D057
:105100000019401E074B7B4469460190284600F079
:10511000D6FE002C054603D06946002000F0E2FED2
:1051200028467CBDE50D00000FB47CB50C0009AA33
:10513000009001D00019401E094B7B446946019044
:10514000089800F0BCFE002C054603D069460020FC
:1051500000F0C8FE28467CBC08BC04B0184700001C
:10516000B10D000070B5044685690068C10601D51F
:10517000302600E02026C00707D070BD62683046A8
:10518000A1689047206A401C20626D1EF6D570BD54
:1051900070B5044685690068C00707D170BD6268B4
:1051A000A16820209047206A401C20626D1EF6D521
:1051B00070BD0000F7B5002675291068009914A588
:1051C00011D000F0CFFD002802DA404211A508E01E
:1051D000009909688A0701D50FA502E0490704D59F
:1051E0000EA5012601E000F0C6FD009F0024243733
:1051F00004E000F067FF30313955641C0028F8D115
:1052000033462A462146009800F0E7FDFEBD000027
:10521000000000002D0000002B0000002000000016
:10522000F8B50F460168090502D5224C7C4402E01E
:10523000204C7C440E3405460021243508E0160736
:105240001209360FA65D6E541E07491C32431B0916
:1052500016461E43F3D1224604680023240705D5D1
:10526000702F06D0002901D01132022300F0B5FDC5
:10527000F8BD10320123F9E770B504460D4621460A
:10528000106800F078FD0023024629462046FFF70B
:10529000C7FF70BDD21DD308DB000CCBC0E730B414
:1052A000036820241268234303600823C36130BCD1
:1052B0000023B5E790240000F3B50446002081B038
:1052C000B8E0E16820468847002872D0252802D03F
:1052D0006268A168ABE0594F00267F442046E16830
:1052E00088472028054608DB312D06D2781920385A
:1052F0000078002801D00643F0E7B00701D504206C
:1053000086430020E0610746A0612A2D0AD0284686
:1053100001F038FD002827D0303DB800001900907A
:10532000856119E00298BA00121902C891610290D1
:105330002046E1688847012F054617D1E06900281B
:105340001FDA202086431CE000980A218069484328
:1053500000994019303888612046E1688847054641
:1053600001F010FD0028EFD1012F0AD02E2D08D119
:105370002046E16888470546202006437F1C022F0F
:10538000C3DBA069002803DA4042A0610120064384
:10539000F00701D0102086436C2D0BD0682D09D06A
:1053A0004C2D3CD06A2D38D0742D38D07A2D36D083
:1053B00016E041E0E1682F4620468847B84205469E
:1053C00009D16C2F29D001208002E16806432046D4
:1053D0008847054604E06C2F1DD0FF2001300643AE
:1053E000002D29D028464138192803D80120C002B1
:1053F00006432035204626602946029A1646FAF7CB
:105400009DFE002810D001280BD0F61DF008C0002A
:105410000830029055E74020E1E78020D5E70020E2
:10542000D3E7361D02964CE762682846A16890478C
:10543000206A401C206244E7206AFEBD0A24000066
:10544000002203098B422CD3030A8B4211D3002381
:105450009C464EE003460B433CD4002243088B425B
:1054600031D303098B421CD3030A8B4201D39446E8
:105470003FE0C3098B4201D3CB01C01A52418309DB
:105480008B4201D38B01C01A524143098B4201D395
:105490004B01C01A524103098B4201D30B01C01AC0
:1054A0005241C3088B4201D3CB00C01A524183083A
:1054B0008B4201D38B00C01A524143088B4201D367
:1054C0004B00C01A5241411A00D2014652411046C7
:1054D00070475DE0CA0F00D04942031000D340423C
:1054E000534000229C4603098B422DD3030A8B4272
:1054F00012D3FC22890112BA030A8B420CD3890110
:1055000092118B4208D3890192118B4204D38901F5
:105510003AD0921100E08909C3098B4201D3CB0133
:10552000C01A524183098B4201D38B01C01A5241E8
:1055300043098B4201D34B01C01A524103098B42EC
:1055400001D30B01C01A5241C3088B4201D3CB00D7
:10555000C01A524183088B4201D38B00C01A5241BA
:10556000D9D243088B4201D34B00C01A5241411A91
:1055700000D20146634652415B10104601D34042BF
:10558000002B00D54942704763465B1000D3404270
:1055900001B50020C046C04602BD00000246C80F4B
:1055A000C00781434B0030B54B405B009B0D20D0C2
:1055B0001923DB06C91801231B05994220DB0324AC
:1055C000A40704251346AB400BD3002B04D1EB06F4
:1055D00013409B001B1904D40124640700231219F3
:1055E0005941FF231B0599420BD2C9000143500FBB
:1055F00009E0CB0204D501430803024305D0054866
:1056000030BDFF21C905084330BD08460721090503
:10561000884330BD0000C07FF0B59446F74A0E09BC
:105620001D091746164015400C46B2435C408BB02E
:10563000002A7DD0AF43FCD0002D7AD0002EFCD0C4
:10564000E20F3243521BFF24A40412190792420DA9
:10565000C902C70211436046420DDC021443C20274
:105660000120C007014304430191200C110C8C461A
:10567000010423468B43089161460904E04D8A43A7
:105680000991010A7D4449198039097805464D433D
:1056900001266D18F605751B6943C90C891C640B3E
:1056A0004C436418B5012D1B2C0C2604B5434D4307
:1056B0004C43290C611889090691F90701D0012191
:1056C000C907039101997F08CC0727434C08069D21
:1056D000E10B4D43290C65460E464D4346437D1B69
:1056E000B44100950D465D432E0C2F040D460194E8
:1056F00055430024AE4624042D0C34433D43264636
:1057000002957546039C2D04641B039405D2029CEC
:105710003546641C00266E410294009F029D019C48
:105720007D1BB4410904009501940591A40801E092
:105730003EE16DE1069900266143090C0C464443A5
:10574000650BE70464464C43F604A6462E43640BFF
:10575000274335467446039EE404341B039402D267
:1057600000267F1C7541009E019CF61BAC410194F4
:105770000C465C43650FE70000960C460026544338
:10578000F600A6462E43640F274335467446039E13
:10579000E400341B039402D200267F1C7541009E56
:1057A000019CF61BAC41B509A4062C43039DB7062A
:1057B000AD092F43039DC900AD060395059D6918EA
:1057C00005910699E50B6943090C65460E464D4364
:1057D00046437D1BB44100950D465D432E0C2F04BE
:1057E0000D4655430194AE46002424042D0C344349
:1057F0003D43264602957446039D24042C1B0394C6
:1058000005D2029C3546641C00266E410294009F1E
:10581000029D019C7D1BB44101948C05009504946C
:10582000059C890A61180591019C0699A4086143A9
:10583000090C0C4644430020650BC0042843E504D2
:1058400064464C43660B074603982E43E404001B52
:10585000039002D20020761C4741009C0198A41BB3
:10586000B84101900846A44658430024450FE6007D
:105870002E430D46C7005543680F3443039E3843FB
:10588000ED00751B02D20026401C74416746019E44
:10589000381AA6418409B7062743AC09800620437D
:1058A0004C02AE06049984466418059D00206841A8
:1058B0000590002008990090604619430018099B44
:1058C0007F411343F20F3D46104377002A46C61A24
:1058D0008A41954203D90120009030461546EE0FCB
:1058E00000186D41B646FA0F0026024330462843A1
:1058F0007D000395009D6F00D61A0546B4468D4184
:105900007646002E01D1A84202D97F1C6246284665
:10591000C50F9618039AAC464041D50F0246354351
:1059200078001646EB1A8E4119466346002B01D1CA
:10593000B24202D9401C0D4632462A4301D0012111
:105940000C434002059A002100195141022200290E
:1059500002DB012200184941079B4C051B14D31898
:10596000C90A1B05CB1807994205C00AC90720437D
:105970005940002A09D00124A24006D30024401C2B
:105980006141002A01D1400840001E4A002B04DB7F
:105990001C46144201D09A4325D101220798920651
:1059A00090423DDC032040070818C10FC9073EE0C4
:1059B0000E4607184E41144D7A42B5411BD362463C
:1059C00096181D465D41104A7642AA4113D3012222
:1059D00052054D00D5420BD15C00D4420BD04B4058
:1059E00003D5920211430BB0F0BD49004908FAE714
:1059F000E10FC9071BE000200449F4E70000FF079E
:105A0000712000000000F07F0000E0FF0000F87F40
:105A10000D48014201D0214605E00342EBD0E7E703
:105A200005204007091809480143C01241400020E1
:105A3000D9E75940504010B54B4042405940504082
:105A4000FFF7EAFD10BD00000000F07FFFFFFF7FC1
:105A50001F22030C02D10F22000402D0030E02D039
:105A600003E000217047083A0002030F01D1121F22
:105A70000001830F01D1921E8000002801DB521E1D
:105A80004000120551184205C012411810467047D7
:105A9000C10FC90700D04042012292071143D7E746
:105AA00001218907D4E70000F0B59D4C0D09264679
:105AB000AC46AE430D465D4089B0002E7ED01E0937
:105AC0002746B743FAD067462740ED0F3D432640AF
:105AD00075D024012142FBD07419FF25AD04641B4D
