:020000040000FA
:10000000780300109D020000A1020000A30200007E
:10001000A5020000A7020000A902000000000000E5
:10002000000000000000000000000000AB02000023
:10003000AD02000000000000AF020000512E0000E1
:10004000B3020000B3020000B3020000B3020000DC
:10005000B3020000B3020000B3020000B3020000CC
:10006000B3020000B3020000B3020000B3020000BC
:10007000B3020000B3020000E70F00000515000006
:10008000B3020000B3020000830B0000B90B0000B4
:10009000A50F000035080000B3020000B302000005
:1000A000B3020000B3020000B3020000B30200007C
:1000B000BF3700009D3700006F3700004137000058
:1000C00000F002F800F0BFF80CA030C8083824187F
:1000D0002D18A246671EAB4654465D46AC4201D180
:1000E00000F0B1F87E460F3E0FCCB64601263342F3
:1000F00000D0FB1AA246AB46334318470C5E000003
:100100002C5E0000103A02D378C878C1FAD85207A2
:1001100001D330C830C101D504680C6070470000BD
:100120000023002400250026103A01D378C1FBD813
:10013000520700D330C100D50B60704710B56E294F
:1001400002D104F0EAF910BD702902D104F041FB9C
:1001500010BD662902D105F035FA10BD652902D11E
:1001600005F030FA10BD672902D105F02BFA10BD59
:10017000612902D1C046C04610BD03681B0A01D3E5
:1001800080231943692902D103F0A8FB10BD64291B
:1001900002D103F0A3FB10BD752902D103F09EFB31
:1001A00010BD6F2902D104F0BFFA10BD782902D129
:1001B00004F0FCFA10BDE92902D104F05BFA10BD8D
:1001C000E42902D104F056FA10BDF52902D104F059
:1001D00051FA10BDEF2902D104F0B2FA10BDF8298E
:1001E00002D104F0F1FA10BD0368DB0901D38023CA
:1001F0001943632902D104F060FD10BD732902D1B7
:1002000004F063FD10BDE32902D104F06DFD10BDC3
:10021000F32902D104F070FD10BD002010BD1FB500
:10022000C046C04604F0B6FD04000020002105F0E1
:100230005BF9401C60600020002105F03FF9E060A0
:100240001FBD10B510BD04F07DFD1146FFF7E7FF9F
:1002500002F02DFE05F0A0F803B4FFF7F2FF03BC97
:1002600000F040FC70B505460C46164602E00FCC87
:100270000FC5103E102EFAD2082E02D303CC03C5B0
:10028000083E042E07D301CC01C5361F03E02178B8
:100290002970641C6D1C761EF9D270BD0848004799
:1002A000FEE7FEE7FEE7FEE7FEE7FEE7FEE7FEE726
:1002B000FEE7FEE703480449024A044B704700008A
:1002C000C1000000780100107803001078010010D0
:1002D000704700000FB4054910B503AA029804F056
:1002E00057F910BC08BC04B0184700001C000010EF
:1002F000704770477047000000000000FFFFFFFFDD
:100300002E492F4A116001212E4A116051600021AF
:1003100051600121516000BF2A494968C907C90FCE
:10032000FAD029498868400A400203210143264A3D
:1003300091602649896B80229143244A916300BFD2
:100340002149C968C907C90FFAD003211D4A1163A1
:1003500001215163002151630121516300BF1949FB
:10036000496BC907C90FFAD00121164A9163144994
:1003700009688900164A116011460968154A11601A
:10038000704700B5022010490860002008620F483D
:10039000806B202188430D498863002300E05B1CAB
:1003A000FF2BFCD9FFF7ACFF064840300068012165
:1003B000090408430849086000BD0000001BB7009D
:1003C000000000104080044000800440008204408F
:1003D000040000100800001080800440A021174A8B
:1003E0005162174908610121154A5161002151618B
:1003F0000121516100BF12494969C907C90FFAD0EB
:1004000001210F4A91610F49896B402291430D4AA6
:10041000916370470A4908620121094A516200212B
:1004200051620121516200BF0549496AC907C90FDC
:10043000FAD00121024A9162704700000080044016
:10044000C08004400082044010B5F3480068402199
:100450000843F14908601F2000F0D7F91E2000F082
:10046000D4F91D2000F0D1F91C2000F0CEF910BD08
:1004700070B5049C002806D0012838D002286AD024
:1004800003287BD19CE0002A18D1E44D6D68012639
:100490008E40B543E14E7560002B07D13546AD68FF
:1004A00001268E40B543DD4EB5600EE0DB4DAD68F4
:1004B00001268E403543D94EB56006E0D74D6D68B4
:1004C00001268E403543D54E7560002C07D1D34DA3
:1004D000ED6801268E40B543D04EF56006E0CF4D65
:1004E000ED6801268E403543CC4EF5609DE0002A34
:1004F00018D1CB4D6D6801268E40B543C84E75604E
:10050000002B07D13546AD6801268E40B543C44E59
:10051000B5600EE0C24DAD6801268E403543C04E39
:10052000B56006E0BE4D6D6801268E403543BC4E79
:100530007560002C07D1BA4DED6801268E40B54399
:10054000B74EF56006E0B64DED6801268E403543A6
:10055000B34EF56069E0002A19D1B24D6D680126ED
:100560008E40B543AF4E7560002B08D13546AD685F
:1005700001268E40B543AB4EB5600FE054E0A94D67
:10058000AD6801268E403543A64EB56006E0A54D08
:100590006D6801268E403543A24E7560002C07D150
:1005A000A04DED6801268E40B5439E4EF56006E0F5
:1005B0009C4DED6801268E4035439A4EF56034E03F
:1005C000002A18D1984D6D6801268E40B543964E8D
:1005D0007560002B07D13546AD6801268E40B543C6
:1005E000914EB5600EE0904DAD6801268E403543CA
:1005F0008D4EB56006E08C4D6D6801268E4035430A
:10060000894E7560002C07D1874DED6801268E401C
:10061000B543854EF56006E0834DED6801268E40BA
:100620003543814EF56000E000BF00BF70BD00287B
:1006300006D001280CD0022812D0032820D117E0C0
:10064000764A126901238B401A43744B1A6118E0F1
:10065000734A126901238B401A43714B1A6110E0EF
:10066000704A126901238B401A436E4B1A6108E0ED
:100670006D4A126901238B401A436B4B1A6100E0EB
:1006800000BF00BF7047002806D001280CD0022808
:1006900012D0032820D117E0604A126901238B4051
:1006A0009A435E4B1A6118E05D4A126901238B4040
:1006B0009A435B4B1A6110E05A4A126901238B403E
:1006C0009A43584B1A6108E0574A136901228A403D
:1006D0009343554A136100E000BF00BF704710B557
:1006E00002460020002A06D0012A0CD0022A12D08D
:1006F000032A20D117E0494B9B6901248C402342F7
:1007000000D0012018E0464B9B6901248C40234215
:1007100000D0012010E0434B9B6901248C40234210
:1007200000D0012008E0404B9B6901248C4023420B
:1007300000D0012000E000BF00BF10BD002806D09F
:1007400001280CD0022812D0032820D117E0334A08
:10075000D26901238B401A43304BDA6118E0304AEA
:10076000D26901238B401A432D4BDA6110E02D4AE8
:10077000D26901238B401A432A4BDA6108E02A4AE6
:10078000D26901238B401A43274BDA6100E000BF96
:1007900000BF704730B513468B408400234D2D5960
:1007A00001248C40A4002B5130BD024690001F4B09
:1007B0001B580120884080001858704730B5002A27
:1007C00011D08300194CE3580124E4031B191B6862
:1007D00001248C4023438400144D2C590125ED0342
:1007E0006419236010E08300104CE3580124E403F3
:1007F0001B191B6801248C40A34384000B4D2C590A
:100800000125ED036419236030BDC206D20E01211B
:100810009140074A1160704780800440008000507A
:10082000008001500080025000800350D455000029
:1008300000E100E070B500BF854A9268D0B2401078
:100840004007400F032820D1814A5269D1B29E222D
:10085000114205D07F4A11607D4A1268D3B270BD43
:10086000CA07D20F3ED07A4C2468E5B27A4C22688F
:10087000541C794E3460794CA55432461268402A93
:1008800030D30022344622602CE0022811D1704C73
:100890002468E5B2704C2268541C6F4E34606F4C73
:1008A000A55432461268402A1CD3002234462260E6
:1008B00018E0062807D1674A1268FF240134224352
:1008C000644C22600EE001280CD1614A5269D1B219
:1008D0002022114203D00122614C227002E000224A
:1008E0005F4C227000BFBAE7F8B5044601205C49AE
:1008F0000870002058490860152001218140594A9C
:10090000116000BF5848406AC008C000564948629C
:100910000846406A01210843534948620846806AF4
:10092000C008C00088620846806A012108434E4919
:1009300088624E4800684E4908434C4908600120CF
:10094000886183204249C8604848876939464948D8
:10095000006803F0BDF806092146304603F0B8F8F8
:100960000546280A3A494860E8B208600320C86092
:10097000072088600846476900BF35484069602104
:1009800008406028F9D101E03148076830484069E3
:10099000C007C00FF8D1152001218140364A1160EF
:1009A00000BF05202A494860F8BD0AE000BF284A78
:1009B000526920231A42FAD00278254B1A60401C53
:1009C000491E0029F2D1704700BF21494969202200
:1009D0001142FAD01E490860704700B5034603E093
:1009E00018785B1CFFF7F0FF18780028F8D100BDDD
:1009F0000FB400B59BB01DA80090642101A8009B16
:100A00001C9A02F00BFF01A8FFF7E7FF00200090FF
:100A10001BB008BC04B018470146184800680E4ACD
:100A20001268904211D00D48144A1268805C087018
:100A300012480068401C114A1060104600684028A7
:100A400001D300201060012070470020FCE7000067
:100A5000008000401800001010000010B8000010C6
:100A60000C00001080E100E08040044080800440E1
:100A7000001000000800001000E100E01400001069
:100A800000BF1E49496920221142FAD01B49086063
:100A9000704710B503460C461846FFF7F1FF10BD2E
:100AA00000BF174800680028FBD0062013494860A3
:100AB0000020134908600720104948601148007859
:100AC000704710B50446FFF7EBFF0346FFF7D8FF6A
:100AD00010BD00B503461846FFF7D2FF00BD014622
:100AE0000948704700BFFEE700BF04484069C007DF
:100AF000C00FFAD001480068704700000080004035
:100B000010000010B8000010FFFFFFFF70B5044692
:100B10000D46002C19D10220F74948600020C8601A
:100B2000F649F748006802F0D3FF6843F24988614C
:100B3000FF200860042048610120486000BFEE48A3
:100B40004068C007C00FFAD11AE0012C18D102206A
:100B5000EC4948600020C860E849E948006802F0B4
:100B6000B7FF6843E7498861FF20086004204861B7
:100B70000120486000BFE3484068C007C00FFAD1B9
:100B800070BDDD480068C007C00F07D00120DA49FA
:100B90000860DD480068401CDB490860D6480068F2
:100BA0001021084207D01020D3490860D7480068B8
:100BB000401CD64908607047D2480068C007C00F83
:100BC00007D00120CF490860D1480068401CD049B7
:100BD0000860CC4800681021084207D01020C9499D
:100BE0000860CC480068401CCA490860704700286B
:100BF00003D10121C04A516002E00121C14A516084
:100C00007047002803D10021BB4A516002E0002157
:100C1000BC4A516070470146002906D1B64A506867
:100C200002221043B44A506005E0B64A50680222DE
:100C30001043B44A5060704770B504460D46002C0E
:100C400044D1B5480068012149020843B24908600F
:100C5000B248006AC008C000B04908620846006A8D
:100C600002210843AD4908620846406AC008C00036
:100C700048620846406A02210843A849486208467B
:100C8000806AC008C00088620846806A0221084362
:100C9000A2498862A2480069C008C000A049086152
:100CA00008460069022108439D49086100209649D1
:100CB0000860964908609048856105208E498862E1
:100CC00003204861122000F060F922E0012C20D1BD
:100CD00091480068A10208438F4908608F48406925
:100CE000C008C0008D494861084640690221084398
:100CF0008A49486100208649086086490860814821
:100D0000856105207F49886203204861132000F037
:100D10003CF970BD70B504460D46002C12D17E48DA
:100D200000680121490208437B4908600020764998
:100D300008607148856103206F494861122000F006
:100D400024F912E0012C10D173480068A102084375
:100D50007149086000206E4908606A488561032077
:100D600068494861132000F010F970BD30B50546A0
:100D70000C4613462846FFF744FF012D5ED1664816
:100D80000068A902084364490860664818435D4941
:100D9000C863D807C00F0CD060484038C06BC0088B
:100DA000C0006149C8630846C06B032108435E491F
:100DB000C863022003420BD058480068C008C00036
:100DC00056490860084600680321084353490860F3
:100DD000042003420BD051480069C008C0004F49AD
:100DE000086108460069032108434C49086108204E
:100DF00003420BD049484069C008C00047494861D8
:100E000008464069022108434449486108201843C4
:100E1000464948634648046000683A494862444885
:100E2000006840088861424800684008C86140483E
:100E30000068400808623F4848614DE03648006855
:100E4000012149020843344908603B4818432A49B4
:100E5000C863022003420BD03048806AC008C0003B
:100E60002E4988620846806A022108432B4988621D
:100E7000042003420BD02A480069C008C00028495A
:100E800008610846006902210843254908610820D5
:100E900003420BD02448406BC008C000224948637D
:100EA0000846406B032108431F4948630820184344
:100EB000224948632248046000680F49486220487C
:100EC000006888611E4800684008C8611C480068C6
:100ED000400808621748486130BD00283DD000290D
:100EE00006D001292ED002292FD0032933D12FE09B
:100EF000044B9A6130E0000000400140E80300002C
:100F00000800001000800140240000102C00001098
:100F10002800001030000010808004408040044011
:100F200000400440980500004040044040800140DB
:100F30003800001000040000580600004040014046
:100F400034000010144BDA6106E0134B1A6203E020
:100F5000114B5A6200E000BF16E0002906D00129BB
:100F600007D0022908D003290CD108E00B4B9A6165
:100F700009E00A4BDA6106E0084B1A6203E0074B0E
:100F80005A6200E000BF00BF7047C206D20E0121C6
:100F90009140034A116070470080014000400140C9
:100FA00000E100E0F749C869C107C90F07D0F64959
:100FB0000968491CF44A11600121F24A11620221B8
:100FC000084207D0F1490968491CF04A1160022122
:100FD000EC4A11620421084204D0ED490968491C19
:100FE000EB4A11607047EB49C869C107C90F07D0C8
:100FF000E9490968491CE84A11600121E54A116282
:101000000221084207D0E5490968491CE34A1160FA
:101010000221E04A11620421084204D0E049096833
:10102000491CDF4A1160704710B50446002C40D1BE
:10103000DC48406801210843DA494860DA48006822
:10104000DA490843D849086002204861D848006A54
:10105000C008C000D64908620846006A012108435A
:10106000D34908620846406AC008C0004862084682
:10107000406A01210843CE4948620120CD490863F6
:10108000CB490863C848006840210843C649086046
:10109000C948C069C008C000C749C861012202210F
:1010A0000020FFF78BFB012202210020FFF772FBDB
:1010B00047E0BC48406804210843BA494860BA4840
:1010C0000068BE490843B84908600220C861B848B2
:1010D000C069C008C000B649C8610846C06902219D
:1010E0000843B349C861B348C068C008C000B149EB
:1010F000C8600846C06802210843AE49C860AE48CF
:10110000806AC008C000AC4988620846806A022133
:101110000843A9498862A448006840210843A249BD
:101120000860A5488068C008C000A3498860012203
:1011300000210220FFF742FB012200210220FFF7DD
:1011400029FB10BD10B50446002C60D195484068BD
:101150000121084393494860934800689349084334
:1011600091490860022048619148006AC008C000A7
:101170008F4908620846006A012108438C490862C9
:101180000846406AC008C00048620846406A01211B
:101190000843874948620220864908638449C86039
:1011A00081480068402108437F4908608048006802
:1011B000C008C0007E490860012204210220FFF718
:1011C000FDFA012204210220FFF7E4FA7A480068C0
:1011D000C008C00078490860012206210220FFF7FC
:1011E000EDFA012206210220FFF7D4FA7248006AC4
:1011F000C008C00070490862012207210220FFF7E1
:10120000DDFA012207210220FFF7C4FA47E0654812
:10121000406804210843634948606348006867499F
:101220000843614908600220C8616148C069C0087C
:10123000C0005F49C8610846C069022108435C4993
:10124000C8615C48C068C008C0005A49C860084608
:10125000C068022108435749C8605748806AC008DF
:10126000C000554988620846806A022108435249F5
:1012700088624D480068402108434B4908604E4849
:101280008068C008C0004C4988600122002102200B
:10129000FFF794FA012200210220FFF77BFA10BD2C
:1012A00070B5054600BF002D16D145483549086088
:1012B000FE200861002404E032488068C6B2601C49
:1012C000C4B2082CF8DB142000F00EF902202D49DE
:1012D00048600320486115E039482E490860022023
:1012E0000861002404E02B488068C6B2601CC4B2C8
:1012F000082CF8DB0E2000F0F7F8022025494860A2
:101300000320486170BDF8B507460D4616460098A3
:101310000090002F1AD1681E0721090208431949BD
:10132000086008460661002405E016488068C0B2DF
:101330000090601CC4B2082CF7DB142000F0D4F835
:101340000220104948600320486119E0681E072107
:10135000090208430F49086008460661002405E0B9
:101360000C488068C0B20090601CC4B2082CF7DB47
:101370000E2000F0B9F802200649486003204861B9
:10138000F8BD0000000004404000001044000010C0
:101390003C000010008005404C0000105000001080
:1013A00048000010008004408080044000080000D5
:1013B00040400440804004400040044000000400DD
:1013C0000707000070B500BF00232DE0002815D1ED
:1013D00000BF494DED6812263540022DF9D10D7838
:1013E000454EB560491C00BF434DED68142635409D
:1013F000042DF9D1404DAD68ECB214E000BF3F4D73
:10140000ED6812263540022DF9D10D783B4EB560BE
:10141000491C00BF394DED6814263540042DF9D123
:10142000364DAD68ECB25B1C9342CFD370BD30B586
:1014300000231FE000280ED1FF242F4DAC6000BF19
:101440002D4CE46814252C40042CF9D12A4CA468B6
:101450000C70491C0DE0FF24284DAC6000BF274CE8
:10146000E46814252C40042CF9D1244CA4680C7099
:10147000491C5B1C9342DDD330BD0246002A19D1C2
:1014800000BF1D48C068122318400228F9D11A482D
:10149000816000BF1848C06810231842FAD100BF0D
:1014A0001548C068142318400428F9D112488068F0
:1014B00080B2704700BF1148C0681223184002284C
:1014C000F9D10E48816000BF0C48C0681023184253
:1014D000FAD100BF0948C068142318400428F9D184
:1014E0000648806880B2E4E7C206D20E012191402E
:1014F000034A11607047000000000440008005406E
:1015000000E100E010B5012080074068C1B2480743
:10151000400F72D1C810030003F0A4FF0CAD0714F4
:1015200021A53637AE60A67091AD0020A64A1060A6
:10153000A6480078A64A9060282090610120A54A1C
:1015400010609DE00020A44A1060A0480078A04AE6
:1015500090602820906102209E4A106090E09D4893
:10156000006801280CD1984A1068421C964B1A60FA
:101570009A4A1268125C964B9A600420954A106051
:101580000820934A90617BE000BF8F480068944A2E
:10159000126890420DD28C4A1068421C8A4B1A6025
:1015A0008E4A1268125C8A4B9A600420894A106045
:1015B00010E08C480068002806D02020844A106083
:1015C0000320844A106005E00520824A1060102044
:1015D0007F4A106008207E4A906151E0814800688F
:1015E000012803D104207A4A906102E00420784A5D
:1015F00010600820764A906142E03CE0744A9268AC
:10160000D3B2754A1068421C734C2260764A126845
:10161000135420460068734A1268904205D2042091
:101620006C4A10606A4A106005E00520694A106043
:101630000420674A90610820654A906120E0644A6E
:101640009268D3B2644A1068421C634C2260664AB6
:101650001268135405205F4A106010205C4A106025
:10166000082090610CE000BF0820594A90610520D5
:10167000584A106004E000BF0820554A906100BF3E
:1016800000BF10BD002100202022514B1A600BE04A
:10169000504A1268012A01D1012006E0534A9142C2
:1016A00001D3002001E0491CF2E700BF7047102081
:1016B000474908600820886100BF4548006810213C
:1016C0000842FAD10120704710B5024648484068E8
:1016D00002231843464B58604648006820231843AD
:1016E000444B18604448006B80098001424B1863EA
:1016F0001846006B012318433F4B18631846406B94
:101700008009800158631846406B012318433A4B07
:1017100058636C202E4B9861384858611861022A32
:1017200001D12B48C1600F2001238340344C23603A
:1017300000BF4020264B1860012010BD00B50020DE
:1017400024490860244908601F490860FFF79AFF90
:10175000012803D0FFF7ABFF002000BD06E01D48C5
:101760000068052802D1FFF7A2FF00E0F7E700BFFD
:101770000120F2E770B504460D46164601202043CD
:10178000124908701848056016480660012014497F
:101790000860FFF7D3FF134800681249086070BD66
:1017A00070B504460D461646084804700B4805609F
:1017B0000B48066000200B490860FFF7BFFF084890
:1017C00000680749086070BD640000107C000010CC
:1017D0000000004054000010600000106C00001079
:1017E000780000107400001070000010FFFFFF0070
:1017F00000800440808004400040044080010000DC
:1018000000E100E070B505466348806B1021884315
:101810006149886361480068614908435F4908601D
:10182000002404E00020A1005E4A5050641C082CF3
:10183000F8D35D4840698F2188435B494861084679
:10184000406901210843584948615848C06A8F21BE
:1018500088435649C8620846C06A01210843534973
:10186000C862514880698F2188434F498861084682
:101870008069012108434C49886129464C48006829
:1018800002F026F9401E00024A4908434A4908600E
:1018900070BD70B505464048806B102188433E49B5
:1018A00088633E4800683E4908433C49086000247C
:1018B00004E00020A1003B4A5050641C082CF8D3DF
:1018C0003A48406B87218843384948630846406B53
:1018D000022108433549486333480068872188431B
:1018E0003149086008460068022108432E49086013
:1018F00029462F48006802F0EBF8401E00022D49EF
:1019000008432D49086070BD30B50146082900DB49
:10191000002129480068000A0002274C2060204668
:1019200004680120884001252D06284304432248ED
:10193000046007E08800204C00190269D00FC0073E
:1019400000D000E0F6E700BF1B480068072424062B
:10195000A043194C20601948024201D0002030BD3C
:101960001004830D1846FAE713480068072109069A
:10197000084204D01048006888430F4908600E48A8
:101980000068FF2108430C490860084600680C49BC
:101990000843094908607047008204408080044081
:1019A00000200000F8000010804004404040044047
:1019B000080000100100200000C0014000000040AD
:1019C00000000100F1B582B02148846940690190AE
:1019D00020490298484300900199009802F078F855
:1019E00007460199009802F073F80D46002F0ED0BB
:1019F00000260AE000BF16488069A042FBD300BF62
:101A000013488069A042FBD8761CBE42F2D3002D59
:101A10001DD0A54206D200BF0D488069611B8842D7
:101A2000FAD814E0A54205D100BF09488069A04258
:101A3000FBD30CE000BF06488069A042FBD300BF87
:101A4000034881692A1B0198801A8142F8D8FEBD9B
:101A500000E000E080BB000010B50022032110462A
:101A6000FEF7ACFE002204210120FEF7A7FE0022B3
:101A700008210120FEF7A2FE002209210120FEF725
:101A80009DFE00220A210120FEF798FE00220B2174
:101A90000120FEF793FE10BD10B508210120FEF7CE
:101AA00084FE002801D1012010BD09210120FEF78C
:101AB0007CFE002801D10220F6E70A210120FEF772
:101AC00074FE002801D10320EEE70B210120FEF770
:101AD0006CFE002801D10420E6E703210020FEF778
:101AE00064FE002801D10520DEE704210120FEF775
:101AF0005CFE002801D10620D6E70020D4E70000D4
:101B000010B5012209210220FEF758FE0122092109
:101B10000220FEF73FFE01220A210220FEF74EFEC0
:101B200001220A210220FEF735FE01220B210220AC
:101B3000FEF744FE10BD70B50446202C01DBFF24E7
:101B400003E0E006C00E11490C5C002209210220CE
:101B5000FEF720FE002511E000220A210220FEF7F8
:101B600019FEE207D20F0B210220FEF713FE6410CC
:101B700001220A210220FEF70DFE6D1C082DEBD379
:101B8000012209210220FEF705FE70BDF455000078
:101B900000BF0146421ED0B20029FAD1704770B58D
:101BA0000646002510E000230AE0002404E0CB20D4
:101BB000FFF7EEFF601CC4B20F2CF8DB581CC3B259
:101BC000832BF2DB681CC5B2B542ECDB70BD10B5EF
:101BD0000446002205210220FEF7DCFD002204213C
:101BE0000220FEF7D7FD21460020FFF746FC012228
:101BF00004210220FEF7CEFD012205210220FEF77E
:101C0000C9FD10BD10B50446012205210220FEF7D2
:101C1000C1FD002204210220FEF7BCFD2146002068
:101C2000FFF72BFC012204210220FEF7B3FD012265
:101C300005210220FEF7AEFD10BD70B50446254615
:101C4000E117090F491909110901611AC8B2FFF713
:101C5000BEFF2546E117090F491909110846103042
:101C6000FFF7B5FF70BD10B504462020FFF7AFFFAA
:101C70002046FFF7ACFF10BD70B505460C4621208D
:101C8000FFF7A5FF2846FFF7A2FF2046FFF79FFFBB
:101C900070BD70B505460C462220FFF798FF284618
:101CA000FFF795FF2046FFF792FF70BD10B5044681
:101CB000402121430846FFF78AFF10BD10B50446B6
:101CC0008120FFF784FF2046FFF781FF10BD10B58C
:101CD00004468D20FFF77BFF102121430846FFF7C4
:101CE00076FF10BD10B50446A02121430846FFF73A
:101CF0006EFF10BD10B50446A42121430846FFF72E
:101D000066FF10BD10B50446A62121430846FFF723
:101D10005EFF10BD10B50446A820FFF758FF20460F
:101D2000FFF755FF10BD10B50446AE21214308460C
:101D3000FFF74DFF10BD10B50446B0212143084602
:101D4000FFF745FF10BD10B50446C02121430846EA
:101D5000FFF73DFF10BD10B50446D320FFF737FF56
:101D60002046FFF734FF10BD10B50446D520FFF71D
:101D70002EFF2046FFF72BFF10BD10B50446D920DB
:101D8000FFF725FF2046FFF722FF10BD10B50446E0
:101D9000DA20FFF71CFF022121430846FFF717FF57
:101DA00010BD10B50446DB20FFF711FF2046FFF7FA
:101DB0000EFF10BD10B5E320FFF709FF10BD70B591
:101DC0000646002410E02046FFF7B5FF0020FFF78D
:101DD00034FF002504E03046FFF714FF681CC5B24D
:101DE000802DF8DB601CC4B2082CECDB70BD10B594
:101DF0000020FFF7E4FF10BDFFB581B00D46164689
:101E00001F462C4615E02046FFF795FF3846FFF7A2
:101E100014FF0020009006E00198FFF7F3FE009801
:101E2000401CC0B200900A9900988842F4DB601C04
:101E3000C4B2701C8442E6DB05B0F0BD70B500246E
:101E400013E02046FFF777FF0020FFF7F6FE00259E
:101E500007E05520FFF7D6FEAA20FFF7D3FE681C47
:101E6000C5B2402DF5DB601CC4B2082CE9DB70BDA7
:101E700070B50020FFF75FFF0020FFF7DEFE0024B3
:101E800004E00120FFF7BEFE601CC4B2802CF8DB2A
:101E90000720FFF750FF0020FFF7CFFE002404E0EB
:101EA0008020FFF7AFFE601CC4B2802CF8DB00245A
:101EB00011E02046FFF73FFF002508E02846FFF726
:101EC000BCFEFF20FFF79EFE28467F30C5B2802D66
:101ED000F4DB601CC4B2082CEBDB70BDFFB581B035
:101EE00007460D46012F02D0022F0BD104E0A800B7
:101EF0002818FE49441805E0681E81004018FC4976
:101F0000441800BF00BF0398FFF715FF0498FFF7C0
:101F100094FE002605E02078FFF774FE641C701C18
:101F2000C6B2052EF7DB0020FFF76CFE05B0F0BD52
:101F3000FFB581B007460D461E462C46334660214C
:101F40000120039AFFF7CAFF0CE021783346384698
:101F5000039AFFF7C3FF641CB01DC6B220780028A7
:101F600000D100E0F1E700BF05B0F0BDFFB583B0E0
:101F700005460E4617460295344619E02046FFF7FF
:101F8000DAFE0698FFF759FE002001900AE0029958
:101F90000878FFF737FE0298401C02900198401C19
:101FA000C0B201900C9901988842F0DB601CC4B269
:101FB000781C8442E2DB07B0F0BDFFB581B00F466C
:101FC00014460498203881004018C84945180198E3
:101FD000FFF7B1FE002F0BD10020FFF72EFE002CE3
:101FE00003D10020FFF70EFE02E0FF20FFF70AFEFC
:101FF000791CC8B2FFF721FE00260DE0002C03D1AA
:102000002878FFF7FFFD04E02978C943C8B2FFF73D
:10201000F9FD6D1C701CC6B2052EEFDB002C03D140
:102020000020FFF7EFFD02E0FF20FFF7EBFD05B01A
:10203000F0BDF8B506460F4614460025082E18DAFE
:1020400008E023783A4629463046FFF7B6FFA81D38
:1020500085B2641C2078002801D0012000E0002017
:10206000691C89B2802901DA012100E000210842BF
:10207000E7D1F8BDFFB581B015461F46A320FFF795
:10208000A6FD0298FFF7A3FD2846FFF7A0FD0198E3
:10209000002802D0012825D111E000240CE0E0B294
:1020A000FFF704FE002603E0C820FFF771FD761C51
:1020B0000A988642F8D3E419AC42F0D312E0002427
:1020C0000DE0291BC8B2FFF7F1FD002603E0C82090
:1020D000FFF75EFD761C0A988642F8D3E419AC42FD
:1020E000EFD300BF00BF0020FFF7E0FD05B0F0BD5B
:1020F000F8B504460D4616461F46262121430846DC
:10210000FFF765FD0020FFF762FD2846FFF75FFD42
:102110003846FFF75CFD3046FFF759FD2F20FFF7EB
:1021200056FD0698FFF73BFDF8BDF8B504460D4691
:1021300016461F46A320FFF74AFD3846FFF747FD26
:102140000698FFF744FD21462931C8B2FFF73FFD4D
:102150000020FFF73CFD2846FFF739FD0898FFF700
:1021600036FD3046FFF733FD0798FFF730FD2F208F
:10217000FFF72DFD0998FFF712FDF8BD10B52E20D1
:10218000FFF725FD10BD10B50120FFF7CCFD0024A1
:102190000CE0E0B2FFF792FDC820FFF7F9FCC82081
:1021A000FFF7F6FCC820FFF7F3FC641CD02CF0D33B
:1021B00010BD10B5D0240DE0611EC8B2FFF77EFD42
:1021C000C820FFF7E5FCC820FFF7E2FCC820FFF7B6
:1021D000DFFC641E002CEFD10020FFF7A4FD10BD32
:1021E00010B50446002C02D0012C0ED106E00020D0
:1021F000FFF799FD0120FFF77DFD06E00020FFF7C6
:1022000079FD0120FFF78FFD00BF00BF10BD012049
:10221000FFF770FD0BE00120FFF785FD0220FFF7BF
:10222000BEFC0020FFF77FFD0220FFF7B8FCF2E7BD
:1022300010B50020FFF777FD8020FFF795FD3F20C8
:10224000FFF768FD0020FFF786FD0020FFF72EFD59
:102250000020FFF73CFD0220FFF705FD0120FFF7FE
:1022600041FD0820FFF76FFD1020FFF78FFDCF2005
:10227000FFF724FD2220FFF780FD4020FFF791FDAE
:102280000020FFF737FD0020FFF73CFD0020FFF79F
:1022900096FD0120FFF747FD10BD10B50122052175
:1022A0000220FEF78BFA0020FFF73DFD8020FFF7AC
:1022B0005BFD3F20FFF72EFD0020FFF74CFD0020C7
:1022C000FFF7F4FC0420FFF702FD0220FFF7CBFC30
:1022D0000120FFF707FD0820FFF735FD1020FFF76D
:1022E00055FDCF20FFF7EAFCF12003E0E4560000A3
:1022F000995B0000FFF741FD4020FFF752FD0020F1
:10230000FFF7F8FC0020FFF7FDFC0020FFF757FD6A
:102310000120FFF708FD10BD00B587B05BA207CA1A
:1023200004AB07C30020FFF74AFD30202823052215
:10233000022100905848FFF719FE0520FFF72FFCF7
:10234000FFF737FF0520FFF72AFCFFF71CFF0520EA
:10235000FFF725FC202001234022002100900846A1
:10236000FFF788FE0520FFF71AFC202001234022FA
:10237000002100901846FFF77DFE0520FFF70FFCB7
:10238000FFF7FCFE0520FFF70AFC012000212023B7
:1023900001900093029103900B460A460846FFF70E
:1023A000C4FE0520FFF7FBFB012000211F22202394
:1023B00000930192029103900B460A460846FFF7EC
:1023C000B4FE0520FFF7EBFB0220002101222023B1
:1023D00000930192029103900B4603220846FFF7F7
:1023E000A4FE0520FFF7DBFB022000211F22202393
:1023F00000930192029103900B4603220120FFF704
:1024000094FE0520FFF7CBFB0220002101222023B0
:1024100000930192029103900B46072204210120B0
:10242000FFF783FE0520FFF7BAFB022000211F22E1
:10243000202300930192029103900B46072204216E
:102440000020FFF772FE0520FFF7A9FBFFF796FEBD
:102450000520FFF7A4FBFF20FFF7B1FC0520FFF7E5
:102460009EFBFFF7EBFC0520FFF799FB0020FFF731
:10247000A6FCFFF7FDFC0520FFF791FB25230322B7
:1024800004A90120FFF754FD07B000BD354E4956A1
:102490004953494F4E00000024560000F3B587B061
:1024A0000020C54908600846076801220221032070
:1024B000FEF784F9002202210320FEF76BF91E20AB
:1024C000FFF780FA012202210320FEF763F90022C0
:1024D00002210320FEF772F9002003460246022182
:1024E00000900320FDF7C4FF02210320FEF79FF8B0
:1024F000002410E0E007C00F00231A4602210090DC
:102500000320FDF7B5FF00BFAB480068B842FBD021
:10251000A9480768641C032CECD3002470E0012058
:1025200000231A46022100900320FDF7A1FF00BFFF
:10253000A1480068B842FBD09F4807689F480068E0
:102540000190002003460246022100900320FDF77F
:102550008FFF00BF98480068B842FBD096480768D4
:10256000964801680198814204D29449019809680B
:10257000461A05E0914801680198081A90490E1A18
:10258000082C07D26806050E8E48864237D30120F4
:10259000054334E0102C0BD206984006000E06903E
:1025A000884886422BD3012106980843069026E0EE
:1025B000182C0BD205984006000E059081488642E3
:1025C0001DD3012105980843059018E0202C0BD25B
:1025D00004984006000E04907A4886420FD30121E9
:1025E0000498084304900AE003984006000E039004
:1025F0007448864203D30121039808430390641C66
:10260000282C8CD3012000231A460221009003209D
:10261000FDF72EFF00BF68480068B842FBD007995D
:1026200005980870079904984870089805700899EB
:10263000069848700295029D06982818C0B202902C
:10264000059902984018C0B2029004990298401867
:10265000C0B2029003990298884202D1012009B0C9
:10266000F0BD0020FBE730B589B00025FFF7BFFBC8
:1026700055A200210846FFF7DCFC98E007A908A84E
:10268000FFF70CFF0446002C3ED008A800788021FC
:1026900008420FD008A800784106490E08A801702A
:1026A0004078009008A803784AA2102102A801F0FF
:1026B000CFF809E008A84078009008A8037849A25C
:1026C000102102A801F0C4F802AA00210220FFF79D
:1026D000B0FC6846407F00906846037F45A2102109
:1026E00002A801F0B5F802AA00210320FFF7A1FC1F
:1026F0006846407F00906846037F08A842780178CA
:1027000040A0FDF7E7FD02E045A0FDF7E3FD08A8C6
:10271000007832280FDD002D0DD10122022100208A
:10272000FEF738F840A200210720FFF782FC44A002
:10273000FDF7D0FD012508A800782D280FDA002D1F
:102740000DD0002202211046FEF724F842A20021FB
:102750000720FFF76EFC46A0FDF7BCFD0025C82052
:10276000FFF730F9FFF798F9062800D120E0C820DC
:10277000FFF728F9FFF790F9062800D118E0C820E4
:10278000FFF720F9FFF788F9062800D110E0C820EC
:10279000FFF718F9FFF780F9062800D108E0C820F4
:1027A000FFF710F9FFF778F9062800D100E065E798
:1027B00000BF09B030BD0000B0000010B400001030
:1027C00080BB00001809000054656D702026204869
:1027D000756D000054656D703A202D25642E2564BA
:1027E0002020000054656D703A2025642E25642059
:1027F0002000000048756D3A202025642E256420B5
:10280000200000000D0A54656D703A2025642E25C5
:102810006420202048756D3A202025642E25640010
:102820000D0A6661696C000054656D703E35302C90
:10283000205475726E206F6E2046414E00000000DD
:102840000D0A54656D703E35302C205475726E2023
:102850006F6E2046414E000054656D703C34352C3F
:10286000205475726E206F66662046414E0000004F
:102870000D0A54656D703C34352C205475726E20F1
:102880006F66662046414E0008B500210091012286
:1028900069468820FEF784FF012269468820FEF7FA
:1028A00069FF6846007808BD08B501210091012242
:1028B00069468820FEF774FF012269468820FEF7EA
:1028C00059FF6846007808BD704708B50021684682
:1028D000017080214170022269468820FEF760FF66
:1028E000AD48AE490860AE48AE49086008BD38B58D
:1028F000002404210091012269468820FEF750FF40
:10290000012269468820FEF735FF684604780521D4
:102910000091012269468820FEF742FF01226946A4
:102920008820FEF727FF68460078000204439B4892
:10293000006844439B480168204601F0C9F80446FA
:10294000204638BD38B50546FFF79EFF04460C21EA
:10295000204688430446A8002043C4B200216846AC
:1029600001704470022269468820FEF719FF38BDC5
:1029700038B50446FFF788FF0546AD08AD00284688
:1029800020430546002168460170457002226946D1
:102990008820FEF705FF002C06D0012C08D0022C61
:1029A0000AD0032C10D10BE07D487E4908600BE073
:1029B0007D487C49086007E07C487A49086003E06C
:1029C00010207849086000BF00BF38BD38B5044604
:1029D000FFF76AFF05460C21284688430546A000FC
:1029E0002843C5B20121684601704570022269463C
:1029F0008820FEF7D5FE002C06D0012C08D0022C32
:102A00000AD0032C10D10BE06348644908600BE046
:102A100067486249086007E066486049086003E06B
:102A200065485E49086000BF00BF38BD38B5044640
:102A300000255C490968614308465849096801F066
:102A400047F805460221684601702804010E6846D1
:102A50004170022269468820FEF7A2FE38BD38B5D3
:102A6000044600254F490968614308464B490968F7
:102A700001F02EF805460321684601702804010E76
:102A800068464170022269468820FEF789FE38BDFB
:102A900038B50546FFF708FF044620212046884345
:102AA00004462046284304460121684601704470CC
:102AB000022269468820FEF773FE38BD10B5FFF785
:102AC000F3FE044620202040400910BD38B5FFF732
:102AD000EBFE0446202120468843044641216846F7
:102AE00001704470022269468820FEF759FE38BD05
:102AF00038B5FFF7C9FE04468021204688430446C6
:102B00000021684601704470022269468820FEF761
:102B100047FE4020044300216846017044700222B1
:102B200069468820FEF73CFE38BD10B586B0FFF739
:102B30005EF922A200210846FFF77BFA002101205E
:102B4000FEF7C2FDFFF7C0FEFFF7BFFE0120FFF753
:102B50003DFF1CA0FDF7BEFB1AE0FFF7C8FE0446D0
:102B6000234619A21421684600F072FE6A4600212D
:102B70000220FFF75EFA214615A0FDF7ABFBFF2010
:102B80002D30FEF71FFFFEF787FF062800D100E07B
:102B9000E3E700BF06B010BDCD03000080000010C9
:102BA000000001008400001000100000000100007F
:102BB000340F0000D03C000040F300004C6967680F
:102BC000740000000D0A0000256420202020000071
:102BD000256420200000000008B509210091012291
:102BE00069463A20FEF7DCFD012269463A20FEF7ED
:102BF000C1FD6846007808BD08B516210091012284
:102C000069463A20FEF7CCFD012269463A20FEF7DC
:102C1000B1FD6846007808BD38B5044616216846FF
:102C200001704470022269463A20FEF7B9FD38BDB2
:102C300010B50520FFF7F0FF10BDF8B504460D46AE
:102C4000164600BFFFF7C8FFC007C00FFAD0062125
:102C50000091012269463A20FEF7A2FD0122694651
:102C60003A20FEF787FD6846007840B220700721C1
:102C70000091012269463A20FEF792FD0122694641
:102C80003A20FEF777FD6846007840B228700821A8
:102C90000091012269463A20FEF782FD0122694631
:102CA0003A20FEF767FD6846007840B23070F8BD04
:102CB00070B505460024FFF79FFF04460C2120460F
:102CC00088430446A8002043C4B22046FFF7A4FF6F
:102CD00070BD70B505460024FFF78EFF0446A408BA
:102CE000A4002046284304462046FFF795FF70BD08
:102CF00070B58AB0002400250026002103910291BE
:102D00000191FFF774F83CA200210846FFF791F902
:102D100000210120FEF7D8FCFFF78AFF01AA02A9D3
:102D200003A8FFF78AFF68460C2141560020441A89
:102D30006846082141560020451A6846042141563C
:102D40000020461A54E001AA02A903A8FFF775FF64
:102D50006846007B001941B203916846007A401929
:102D600041B2029168460079801941B201916846EA
:102D70000C23C35622A2142104A800F069FD04AA62
:102D800000210220FFF755F968460C2141561FA08B
:102D9000FDF7A0FA68460823C35620A2142104A810
:102DA00000F056FD04AA00210320FFF742F968460F
:102DB000082141561CA0FDF78DFA68460423C3562E
:102DC0001DA2142104A800F043FD04AA0021042040
:102DD000FFF72FF96846042141561AA0FDF77AFA49
:102DE000FA20FEF7EFFDFEF757FE062800D100E0BF
:102DF000A9E700BF0AB070BD417869732D330000A8
:102E000041636320783A2025642020000D0A416345
:102E10006320783A2025642C202000004163632041
:102E2000793A20256420200041636320793A2025E7
:102E3000642C202000000000416363207A3A2025A2
:102E400064202000416363207A3A2025642E20000C
:102E500010B5C7480068401CC549086008460068AE
:102E60000146FF39F53913D1002201210320FDF776
:102E700091FCC0480078FEF75EFEBE480078401C1A
:102E8000BC49087008460078C006C00E08700DE006
:102E9000B74800687D21C900884207D30122114646
:102EA0000320FDF777FC0020B149086010BDC0B0D9
:102EB000FDF767FAFDF7C8FA0320FDF7ABFAAE4855
:102EC0000069C008C000AC490861084600690121DA
:102ED0000843A9490861012200210320FDF76EFC87
:102EE000012200210320FDF755FC01221146032099
:102EF000FDF764FC012211460320FDF74BFC012283
:102F000002210020FDF75AFC002202211046FDF7A5
:102F100041FC99484030C06BC008C0009749C86365
:102F20000846C06B012108439449C8630122114639
:102F30001046FDF743FC012211461046FDF72AFC1E
:102F4000FEF7DEFD2020FEF7F6FDFEF785FD8C4D39
:102F50008C48854200D90FE02802000A401E8A49A9
:102F6000486107210020C04300F0CBF800208649CB
:102F700088610720086100BF002211460320FDF789
:102F800009FC002201210320FDF704FCC820FEF704
:102F900019FD012200210320FDF7FCFB012211464F
:102FA0000320FDF7F7FB0020FEF7CCF802220821F2
:102FB0000020FEF7A8F9FFF770F9052110A8018796
:102FC0000121418771A01F9072A0209075A11EA8B9
:102FD000C16077A1016179A141617BA18161782202
:102FE00022A96846FDF73EF91EA80FC800F026F991
:102FF000E1204002FDF778FC75A0FDF76BF9FA209F
:10300000FEF7E0FC7CE0FEF747FD04462046012C7D
:1030100006D002281CD0052833D0062868D15AE0F3
:1030200010A8408F012806DD10A8408F401E81B2F5
:1030300010A8418702E010A8018F4187782222A9B9
:103040006846FDF70FF91EA80FC800F0F7F850E02A
:1030500010A8418F008F814206DA10A8408F401CD3
:1030600081B210A8418702E0012010A94887782288
:1030700022A96846FDF7F6F81EA80FC800F0DEF892
:1030800037E010A8408F030002F0ECF90622040A92
:1030900010161C2251A0FDF71DF9FFF7E4FA18E005
:1030A00055A0FDF717F9FFF740FD12E055A0FDF719
:1030B00011F9FFF71DFE0CE059A0FDF70BF900F028
:1030C00021F906E059A0FDF705F900F078F900E0D4
:1030D00000BF00BF0DE0782222A96846FDF7C2F8C4
:1030E0001EA80FC800F0AAF839A0FDF7F3F800E019
:1030F00000BF00BF002C02D0FA20FEF763FC30BFF7
:1031000081E710B5002819DA4A4A03071B0F083B6C
:103110009B089B00D2588307DC0EFF23A3409A43F1
:103120004B071B0E8407E40EA3401A43414B0407D0
:10313000240F083CA408A4001A5118E03E4A0323B7
:103140001B02D21883089B00D2588307DC0EFF2392
:10315000A3409A434B071B0E8407E40EA3401A4377
:10316000354B032424021B198408A4001A5110BDF6
:10317000880000108C0000100040044040400440D3
:1031800080BB0000FFFFFF0000E000E053656E73AE
:103190006F720000312E2054656D70202620487516
:1031A0006D000000322E204C69676874000000003A
:1031B000332E20417869732D33000000342E2056C1
:1031C0006F6C746167650000352E20416C6C0000E7
:1031D0000D0A0D0A53656E736F7200000D0A0D0A19
:1031E00054656D706572617475726520262048752E
:1031F0006D696469747900000D0A0D0A4C6967688D
:10320000740000000D0A0D0A3320417869732041D3
:103210006363656C65726F6D6574657200000000B4
:103220000D0A0D0A566F6C74616765000D0A0D0A70
:10323000416C6C001CED00E000E100E00FB470B5E3
:103240006946498A481E062100F04CFC85B2681C7C
:103250000621484384B26946088AA04201DD05265A
:1032600006E06946098A481E062100F03BFC8EB242
:10327000FEF7BDFD00210846059AFEF7DAFE502351
:10328000002266211046FEF798FE672300226C217B
:103290001046FEF792FE2023002272211046FEF710
:1032A0008CFE28463130C3B2002278211046FEF74A
:1032B00084FE002420E06846418A06206843001905
:1032C000401C81420BD10621694309198B0006A9D4
:1032D000CA58A11CC8B20121FEF7ABFE0AE00621C4
:1032E000694309198B0006A9CA58A11CC8B200215C
:1032F000FEF79FFE601C84B2B442DCDD70BC08BCEB
:1033000004B01847F0B58BB0FEF771FDCAA20021DA
:103310000846FEF78EFECAA0FCF7DCFFC948FEF7A0
:10332000B8FA46E00020FEF7EFFA0746384600F00C
:10333000FFFE0546C44AC54B00F0FEFE0022C44B0A
:103340000191009000F0B0FC0391029000F06EFC3F
:103350000446C049204602F0DDF8054601F032F887
:1033600007460A21384600F0B3FB0D460A213846CD
:1033700000F0AEFB06463346B7A2152104A800951F
:1033800000F066FA04AA00210220FEF752FE0A218C
:10339000384600F09DFB0D460A21384600F098FBA8
:1033A00006462A463146AFA0FCF794FFFA20FEF706
:1033B00009FBFEF771FB0628B4D10BB0F0BDF0B5E8
:1033C00095B000200A90099008900021079106917D
:1033D0000591FEF70CFDA6A200210846FEF729FE86
:1033E00000210120FEF770F9FFF76EFAFFF76DFA82
:1033F0000120FFF7EBFAFFF71BFC05AA06A907A8B7
:10340000FFF71BFC68461C2141560020401A0A9019
:103410006846182141560020401A09906846142138
:1034200041560020401A08908648FEF732FAFBE029
:103430000CA90DA8FFF732F80446002C3FD008A8CD
:10344000007D802108420FD008A8007D4106490E6A
:1034500008A80175407D009008A8037D85A2102171
:103460000EA800F0F5F909E008A8407D009008A832
:10347000037D84A210210EA800F0EAF90EAA002113
:103480000220FEF7D6FD08A8407C009008A8037C27
:1034900080A210210EA800F0DBF90EAA0021032063
:1034A000FEF7C7FD08A8427D017D7EA0FCF712FF54
:1034B00008A8427C017C7FA0FCF70CFF02E081A001
:1034C000FCF708FFFFF713FA0B9080A214210EA857
:1034D0000B9B00F0BDF90EAA00210420FEF7A9FD08
:1034E0007EA00B99FCF7F6FE05AA06A907A8FFF730
:1034F000A4FB6846017F0A98081841B20791684604
:10350000017E0998081841B206916846017D089825
:10351000081841B205916846142141561822825676
:103520001C2300920191C3566FA214210EA800F033
:103530008FF90EAA00210520FEF77BFD68461423B3
:10354000C356182282561C2141566DA0FCF7C2FEBC
:103550000020FEF7D9F90490049800F0E9FD064632
:10356000394A3A4B00F0E8FD0022394B01910090B6
:1035700000F09AFB0391029000F058FB0546354994
:10358000284601F0C7FF064600F01CFF04900A2100
:10359000049800F09DFA0E460A21049800F098FA6B
:1035A00007463B465CA215210EA8009600F050F994
:1035B0000EAA00210620FEF73CFD0A21049800F027
:1035C00087FA0E460A21049800F082FA074632462E
:1035D000394656A0FCF77EFEC820FEF7F3F9FEF749
:1035E0005BFA062800D124E0C820FEF7EBF9FEF7CD
:1035F00053FA062800D11CE0C820FEF7E3F9FEF7D5
:103600004BFA062800D114E0C820FEF7DBF9FEF7DC
:1036100043FA062800D10CE0C820FEF7D3F9FEF7E4
:103620003BFA062800D104E0FEF736FA062800D05F
:10363000FEE600BF15B0F0BD566F6C7461676500A3
:103640000D0A0000009F24006666666666660A40F2
:1036500000F88F400000204125642E25645620206C
:103660002000000025642E25645620200000000064
:10367000416C6C0054656D703A202D25642E2564D4
:103680002020000054656D703A2025642E256420AA
:103690002000000048756D3A202025642E25642006
:1036A000200000000D0A0D0A54656D703A20256453
:1036B0002E2564000D0A48756D3A202025642E25BC
:1036C000640000000D0A6661696C00004C6967685F
:1036D000743A202564202020000000000D0A4C6967
:1036E0006768743A20256400783A2532642020798E
:1036F0003A25326420207A3A2532642020200000C6
:103700000D0A783A2532642020793A253264202047
:103710007A3A253264000000566F6C746167653A2E
:103720002025642E25645620202000000D0A566FA7
:103730006C746167653A2025642E2564562020004C
:1037400010B52E480068401C2C490860012100205B
:10375000FCF7C5FF0446002C08D029480068401C2F
:103760002749086001210020FCF7E8FF10BD10B5D3
:1037700024480068401C2349086001210846FCF7E2
:10378000AEFF0446002C08D01F480068401C1E49AC
:10379000086001210846FCF7D1FF10BD10B50821D3
:1037A0000220FCF79CFF002808D018480068401C45
:1037B0001649086008210220FCF7C0FF10BD10B5B3
:1037C00002210320FCF78BFF00280CD010488069F1
:1037D0001049086010480068401C0F490860022129
:1037E0000320FCF7ABFF03210846FCF778FF002815
:1037F00003D003210846FCF7A1FF10BD9000001084
:1038000094000010980000109C000010A40000100C
:1038100000E000E0B4000010B00000107CB51546D8
:103820001A460C00009001D00019401E074B7B4443
:1038300069460190284600F08AFE002C054603D018
:103840006946002000F096FE28467CBD4D0D000024
:103850000FB47CB50C0009AA009001D00019401EDD
:10386000094B7B4469460190089800F070FE002CDB
:10387000054603D06946002000F07CFE28467CBC4B
:1038800008BC04B018470000190D000070B50446CC
:1038900085690068C10601D5302600E02026C007F2
:1038A00007D070BD62683046A1689047206A401C0E
:1038B00020626D1EF6D570BD70B50446856900683E
:1038C000C00707D170BD6268A16820209047206AB8
:1038D000401C20626D1EF6D570BD0000F7B50026B5
:1038E00075291068009914A511D000F083FD0028F7
:1038F00002DA404211A508E0009909688A0701D55B
:103900000FA502E0490704D50EA5012601E000F04D
:103910007AFD009F0024243704E000F067FF303177
:103920003955641C0028F8D133462A4621460098B0
:1039300000F09BFDFEBD0000000000002D00000017
:103940002B00000020000000F3B50446002081B0E9
:10395000B8E0E16820468847002872D0252802D0C8
:103960006268A168ABE0594F00267F442046E168B9
:1039700088472028054608DB312D06D278192038E3
:103980000078002801D00643F0E7B00701D50420F5
:1039900086430020E0610746A0612A2D0AD0284610
:1039A00001F084FD002827D0303DB80000190090B8
:1039B000856119E00298BA00121902C8916102905B
:1039C0002046E1688847012F054617D1E0690028A5
:1039D0001FDA202086431CE000980A2180694843B2
:1039E00000994019303888612046E16888470546CB
:1039F00001F05CFD0028EFD1012F0AD02E2D08D157
:103A00002046E16888470546202006437F1C022F98
:103A1000C3DBA069002803DA4042A061012006430D
:103A2000F00701D0102086436C2D0BD0682D09D0F3
:103A30004C2D3CD06A2D38D0742D38D07A2D36D00C
:103A400016E041E0E1682F4620468847B842054627
:103A500009D16C2F29D001208002E168064320465D
:103A60008847054604E06C2F1DD0FF200130064337
:103A7000002D29D028464138192803D80120C0023A
:103A800006432035204626602946029A1646FCF752
:103A900055FB002810D001280BD0F61DF008C000FF
:103AA0000830029055E74020E1E78020D5E700206C
:103AB000D3E7361D02964CE762682846A168904716
:103AC000206A401C206244E7206AFEBD42240000B8
:103AD000002203098B422CD3030A8B4211D300230B
:103AE0009C464EE003460B433CD4002243088B42E5
:103AF00031D303098B421CD3030A8B4201D3944672
:103B00003FE0C3098B4201D3CB01C01A5241830964
:103B10008B4201D38B01C01A524143098B4201D31E
:103B20004B01C01A524103098B4201D30B01C01A49
:103B30005241C3088B4201D3CB00C01A52418308C3
:103B40008B4201D38B00C01A524143088B4201D3F0
:103B50004B00C01A5241411A00D201465241104650
:103B600070475DE0CA0F00D04942031000D34042C5
:103B7000534000229C4603098B422DD3030A8B42FB
:103B800012D3FC22890112BA030A8B420CD3890199
:103B900092118B4208D3890192118B4204D389017F
:103BA0003AD0921100E08909C3098B4201D3CB01BD
:103BB000C01A524183098B4201D38B01C01A524172
:103BC00043098B4201D34B01C01A524103098B4276
:103BD00001D30B01C01A5241C3088B4201D3CB0061
:103BE000C01A524183088B4201D38B00C01A524144
:103BF000D9D243088B4201D34B00C01A5241411A1B
:103C000000D20146634652415B10104601D3404248
:103C1000002B00D54942704763465B1000D34042F9
:103C200001B50020C046C04602BD00000246C80FD4
:103C3000C00781434B0030B54B405B009B0D20D04B
:103C40001923DB06C91801231B05994220DB032435
:103C5000A40704251346AB400BD3002B04D1EB067D
:103C600013409B001B1904D401246407002312197C
:103C70005941FF231B0599420BD2C9000143500F44
:103C800009E0CB0204D501430803024305D00548EF
:103C900030BDFF21C905084330BD0846072109058D
:103CA000884330BD0000C07FF0B59446F74A0E0946
:103CB0001D091746164015400C46B2435C408BB0B8
:103CC000002A7DD0AF43FCD0002D7AD0002EFCD04E
:103CD000E20F3243521BFF24A40412190792420D33
:103CE000C902C70211436046420DDC021443C202FE
:103CF0000120C007014304430191200C110C8C46A4
:103D0000010423468B43089161460904E04D8A4330
:103D10000991010A7D4449198039097805464D43C6
:103D200001266D18F605751B6943C90C891C640BC7
:103D30004C436418B5012D1B2C0C2604B5434D4390
:103D40004C43290C611889090691F90701D001211A
:103D5000C907039101997F08CC0727434C08069DAA
:103D6000E10B4D43290C65460E464D4346437D1BF2
:103D7000B44100950D465D432E0C2F040D46019471
:103D800055430024AE4624042D0C34433D432646BF
:103D900002957546039C2D04641B039405D2029C76
:103DA0003546641C00266E410294009F029D019CD2
:103DB0007D1BB4410904009501940591A40801E01C
:103DC0003EE16DE1069900266143090C0C4644432F
:103DD000650BE70464464C43F604A6462E43640B89
:103DE000274335467446039EE404341B039402D2F1
:103DF00000267F1C7541009E019CF61BAC4101947E
:103E00000C465C43650FE70000960C4600265443C1
:103E1000F600A6462E43640F274335467446039E9C
:103E2000E400341B039402D200267F1C7541009EDF
:103E3000019CF61BAC41B509A4062C43039DB706B3
:103E4000AD092F43039DC900AD060395059D691873
:103E500005910699E50B6943090C65460E464D43ED
:103E600046437D1BB44100950D465D432E0C2F0447
:103E70000D4655430194AE46002424042D0C3443D2
:103E80003D43264602957446039D24042C1B03944F
:103E900005D2029C3546641C00266E410294009FA8
:103EA000029D019C7D1BB44101948C0500950494F6
:103EB000059C890A61180591019C0699A408614333
:103EC000090C0C4644430020650BC0042843E5045C
:103ED00064464C43660B074603982E43E404001BDC
:103EE000039002D20020761C4741009C0198A41B3D
:103EF000B84101900846A44658430024450FE60007
:103F00002E430D46C7005543680F3443039E384384
:103F1000ED00751B02D20026401C74416746019ECD
:103F2000381AA6418409B7062743AC098006204306
:103F30004C02AE06049984466418059D0020684131
:103F40000590002008990090604619430018099BCD
:103F50007F411343F20F3D46104377002A46C61AAD
:103F60008A41954203D90120009030461546EE0F54
:103F700000186D41B646FA0F00260243304628432A
:103F80007D000395009D6F00D61A0546B4468D410D
:103F90007646002E01D1A84202D97F1C62462846EF
:103FA000C50F9618039AAC464041D50F02463543DB
:103FB00078001646EB1A8E4119466346002B01D154
:103FC000B24202D9401C0D4632462A4301D001219B
:103FD0000C434002059A0021001951410222002998
:103FE00002DB012200184941079B4C051B14D31822
:103FF000C90A1B05CB1807994205C00AC907204307
:104000005940002A09D00124A24006D30024401CB4
:104010006141002A01D1400840001E4A002B04DB08
:104020001C46144201D09A4325D1012207989206DA
:1040300090423DDC032040070818C10FC9073EE04D
:104040000E4607184E41144D7A42B5411BD36246C5
:1040500096181D465D41104A7642AA4113D30122AB
:1040600052054D00D5420BD15C00D4420BD04B40E1
:1040700003D5920211430BB0F0BD49004908FAE79D
:10408000E10FC9071BE000200449F4E70000FF0727
:10409000A92000000000F07F0000E0FF0000F87F92
:1040A0000D48014201D0214605E00342EBD0E7E78D
:1040B00005204007091809480143C012414000206B
:1040C000D9E75940504010B54B404240594050400C
:1040D000FFF7EAFD10BD00000000F07FFFFFFF7F4B
:1040E0001F22030C02D10F22000402D0030E02D0C3
:1040F00003E000217047083A0002030F01D1121FAC
:104100000001830F01D1921E8000002801DB521EA6
:104110004000120551184205C01241181046704760
:10412000C10FC90700D04042012292071143D7E7CF
:1041300001218907D4E70000F0B59D4C0D09264602
:10414000AC46AE430D465D4089B0002E7ED01E09C0
:104150002746B743FAD067462740ED0F3D43264038
:1041600075D024012142FBD07419FF25AD04641BD6
:104170000494CC02D90201231B05E40AC90A1C439A
:1041800019432401030F1C430B010501110F0B43BD
:10419000A00B81032D0916018C43A90B8A039543BB
:1041A0009A0B9703BB4336099C46B30B9F03BE4350
:1041B0000F465F4303972F46774302964E19BE463C
:1041C0000796029FDF197E430597039FF71B7646EC
:1041D000BE1B77463F0100970196039FB60BF61969
:1041E000B646019E009FB604BF1902D37646761CE0
:1041F000B64676467600002F01D001273E4367463B
:104200007D430695029D27466F4300977F00069DDC
:10421000BE196F00BD1966469619079FAE467743D3
:10422000069D03967D1B01950619059D009F75430C
:104230000296EE1B019D51436D1A07465F43F31B27
:10424000019500937546EB0606D001E091E08DE004
:104250006B0901252B4300E06B0900263546B64665
:104260000E0A2D0609063543CB1876467541AE4633
:1042700000213D0A09063E062943F61875466941A4
:10428000B646019B00269D0DB7022F439B02764642
:104290009B194F41009900258E0DAD028902C91866
:1042A00035437D41504362465443039B029A5A432F
:1042B000121A161B0022B70E9301B60175193B4363
:1042C0005341070B1205000545193A435A41002096
:1042D0000306270A20063B43441814266B41AB42D1
:1042E00000D2521C01204002824203D31526022133
:1042F000C94301E00321C9432020851BAA401F4672
:10430000AF40F34013432046049AF040121489183A
:1043100009055A1804993843C9075140AC4009D0DF
:1043200001239C4006D30023401C5941002C01D19D
:10433000400840001F4B002A03DB1A4201D08B4388
:1043400012D1012204989206904207DB0520400713
:10435000091819480143C012414004E003204007F6
:104360000818C10FC907002009B0F0BD0020E907F7
:10437000FAE706180C464C4110487642A04114D387
:1043800094181A465A410D48644290410DD30120B9
:1043900049004005814208D35900814205D3E90F05
:1043A000044AC90700201143DEE700200449DBE787
:1043B0000000FF070000F07FFFFFFF7F0000E0FF2D
:1043C0000000F87F01460002CA1504D00123DB0774
:1043D0001843002A09DB9E239A1A01D4D040704763
:1043E000FF2248001206904201D900207047C817EA
:1043F000C043704709684A0501D540B27047C905F6
:10440000FCD500B2704709684A0501D5C0B27047B3
:10441000C905FCD580B2704770B505460C46012A27
:1044200005D02868800600D5EA69002302E0012350
:1044300005E05B1C934202D2E05C0028F9D1A86938
:10444000E618C01AA861286AC01828622846FFF733
:104450001DFA04E06A682078A968641C9047B44299
:10446000F8D32846FFF728FA70BDFFB504460D467D
:1044700081B0243000902168880604D51022E069BC
:104480009143216000E00120A84201DD471B00E0CC
:1044900000270498A1697A191018081AA0612068E9
:1044A000C00602D42046FFF7F1F9002608E0039881
:1044B0006268A168805D9047206A401C761C20627B
:1044C00004988642F3DB2068C0060AD52046FFF731
:1044D000DDF906E06268A16830209047206A401C40
:1044E000206238467F1E0028F4DC07E000986268EE
:1044F000A168405D9047206A401C206228466D1EDE
:104500000028F3DC2046FFF7D7F92068000602D523
:10451000022005B0F0BD0120FBE711680268006AC7
:10452000530501D508700AE0D30501D5088006E0DF
:10453000130602D5C21705C101E05206086001202A
:104540007047000001694A1C02610878704700B595
:104550008FB002910021059105490193794403919F
:10456000114604906846FFF7EFF90FB000BD000058
:10457000E5FFFFFF0A681070521C0A6070474B6825
:104580000A689A4202D2531C0B60107070470000F8
:10459000084B70B50C467B44FFF7D9FF0546204613
:1045A000FCF79DFA002802D00020C04370BD2846C9
:1045B00070BD0000F9C4FFFFF7B50446154686B08C
:1045C0002B497944002703C93E460090019111E030
:1045D00007986A467100415A02A800F091FB411CFD
:1045E00007D02168890603D5E269391891420ED8AF
:1045F0003F18761C2068800602D5E069B84206DDC7
:10460000AE42E5DB07987100405A0028E0D1A0696E
:10461000C01BA0612046FFF739F9154979445A3982
:1046200003C900900020019116E041006A460798F6
:10463000415A02A800F064FB0590401C0AD00025F6
:1046400005E0626802A8A168405D90476D1C05986E
:104650008542F6D30498401CB0420490E5DB206A02
:10466000C01920622046FFF727F909B0F0BD00000D
:104670007E180000F7B5D21D0026D20815A5D2007D
:10468000F52905CA11D0002A05DA002140429141DE
:1046900011A50A4608E0009909688B0701D50FA506
:1046A00002E0490701D50EA501261146009F00240E
:1046B000243704E000F0AEF830323A55641C02466C
:1046C0000A43F7D133462A4621460098FFF7CDFE2C
:1046D000FEBD0000000000002D0000002B000000C7
:1046E0002000000070B504460021243408E055077E
:1046F000D2086D0F303565545D07491C2A43DB082D
:1047000015461D43F3D10468002310A2250708D5E0
:1047100020252C400C4304D0C46901230CA2641E44
:10472000C461FFF7A2FE70BD10B5044621461068B3
:10473000FFF769FE002302462046FFF7D3FF10BDB6
:10474000D21DD108C9000CC9CCE700000000000050
:1047500030000000F8B50F460168090502D5224C6B
:104760007C4402E0204C7C440E3405460021243574
:1047700008E016071209360FA65D6E541E07491C85
:1047800032431B0916461E43F3D122460468002318
:10479000240705D5702F06D0002901D0113202233D
:1047A000FFF763FEF8BD10320123F9E770B5044648
:1047B0000D4621461068FFF726FE002302462946D3
:1047C0002046FFF7C7FF70BDD21DD308DB000CCB1E
:1047D000C0E730B403682024126823430360082331
:1047E000C36130BC0023B5E7E8160000014680082D
:1047F000081A02091018020A1018020C1018C00832
:10480000820012185200891A01E00A39401C0A2954
:10481000FBD270470B4670B502461D4689078008DB
:1048200008439C08111AA5410C09280704432809CC
:1048300064186841250A01060D43010A2C194141FB
:10484000200C0D0428430D0C00194D410021401986
:104850004D41C00869070843E908840F8D002543CE
:10486000840024184D4124196D41121BAB4107E00F
:104870000925ED432C11521963410024401C61416C
:104880001C460A250026551BB441F1D270BD00001C
:104890007047FFB50C461E468FB003CA08900991B9
:1048A0004F007D0D00D16D1E002108460020C0463E
:1048B0000321099A89050840002A03DA820080183A
:1048C00040080840800D01280A9002DD0020C04306
:1048D0000A90089807430DD0EF48F049281848433C
:1048E0000714189800281DD07542291E1DDD0A984E
:1048F00042421BE01898012802D00020302104E039
:104900000020F24305E02154401CB042FBDB30465E
:104910000022189B002121540F998B600A60486087
:1049200013B0F0BDBD1B6D1CDFE70A9A002900DA49
:1049300069420BA800F076FA0BA803AB07C807C3BF
:104940000899099800F0D4FA01910146D4480292DE
:104950000918002D00910ADDD14903980A9A4942AD
:10496000401803A90390684600F0E7FC07E00399AC
:104970000A9A081803A90390684600F0B4FC009056
:1049800000040292000C019103D00020C0434108B2
:1049900000E01046189A002A03D000220092154623
:1049A0001EE0751E05D4FFF735FF303262556D1ECF
:1049B000F9D501220843079602D000227F1C04E0AB
:1049C0002078302801D100227F1E002A069788D047
:1049D0001EE0112D07DAFFF71DFF303262556D1C06
:1049E00002460A43F5D108430FD10021681E05E0B5
:1049F000235C625C6354491C2254401E8142F7DBF5
:104A0000A81B401E0795069002E0009800280AD0D7
:104A1000079A18990020A0540F98079B069A4360A4
:104A2000026081607CE711260020189059E7D21DB2
:104A3000F0B50D460446D10893B0C90003C90C90E7
:104A40000D9100F01DFD02460D98C00F01D02D20E4
:104A500007E02068810701D52B2002E04007C00F46
:104A60004001032A0F9001D0072A05DB034629469F
:104A7000204600F093F90DE12068800601D5E76932
:104A800000E006272846652D04D0662814D0672D3F
:104A900069D12DE00020112F009001DB112300E0EF
:104AA0007B1C0CAA03A910A8FFF7F3FE119900269E
:104AB00010987D1C0E9142E001203B460CAAC007D5
:104AC0000B900120009003A910A8FFF7E2FE119DB2
:104AD00012991098002600290E9501D1791C4518CD
:104AE000781B02D44642761E7D1CE81B00903AE0FB
:104AF000012F00DA01270020112F009001DD112382
:104B000000E03B460CAA03A910A8FFF7C2FE1199CA
:104B10003D46109800260E91216809070BD40E9986
:104B2000A94200DA0D4603A9012D04DD4A19203AF5
:104B3000D27F302A06D0B84201DA011D04DA012101
:104B400000910FE06D1EEFE7002802DC86192D1A98
:104B500003E0411CA94200DD0D46801B401C009073
:104B60000120C0070B902068000705D40098A842D8
:104B700002DB0020C043009069460020C8720B98F9
:104B8000012102AF0337C907884225D002201090C7
:104B90002B2011900B9800280BDA40420B902D200F
:104BA000119006E00B98FFF721FE30317F1E0B902D
:104BB00039701099481E00291090F3DC0B980028DA
:104BC000F0D111987F1E38702068000501D545206E
:104BD00000E065207F1E387001A8C01BC01D0B902F
:104BE0000F98002800D0012041190098C01709181B
:104BF0000B980818A169081A401EA0612068C00619
:104C000002D42046FEF742FE0F98002805D06268C5
:104C1000A1689047206A401C20622068C00624D505
:104C20002046FEF733FE20E0002E07DB0E98B04250
:104C300004DD03A86268805DA16802E06268A16883
:104C400030209047206A761C401C20620098401E4D
:104C500000900AD100F09EF8C06862680168405C6C
:104C6000A1689047206A401C206228466D1E0028DB
:104C7000DADC07E062683878A1687F1C9047206A18
:104C8000401C20620B99481E00290B90F2DC204644
:104C9000FEF712FE022043E601FCFFFF104D00006C
:104CA000E1DFFFFF10B54369002B02D0C046C046CC
:104CB00001E0FFF7B1FB012010BD1268014624316D
:104CC0000A7000224A700122ECE711680022D243E8
:104CD000E8E710B54369002B02D0C046C04601E0AA
:104CE000FFF76AFC012010BD12680146243182845E
:104CF0000022C2840122ECE711680022D243E8E7D7
:104D000070B505460C46164600F03CF80368FF20D7
:104D10000230C05C012807D0FF2C10D8185D002895
:104D20000DD001202C7070BDFF2032462146083086
:104D3000C0581B182846FF330833984770BD002021
:104D4000C04370BD754600F02DFBAE4605006946B8
:104D50005346C008C000854618B020B5FBF7AAFA34
:104D600060BC00274908B6460026C0C5C0C5C0C5FE
:104D7000C0C5C0C5C0C5C0C5C0C5403D49008D4601
:104D80007047000010B500F005F8001D10BD00BF11
:104D9000590700000048704738010010F8B5044674
:104DA0001F4601230068DB02032601461840072A3C
:104DB00005DB002801D017A506E017A504E00028B0
:104DC00001D016A500E016A5102081432160A0693E
:104DD000C01E002FA06101D0401EA0612046FEF73A
:104DE00055FD002F09D038466268A1689047206AB7
:104DF000401C2062C01C206206E0206AFAE762685C
:104E00002878A1686D1C9047761EF8D22046FEF7E0
:104E100053FDF8BD4E414E006E616E00494E460096
:104E2000696E6600F7B516468AB0304878446C461D
:104E300003467C33C06F5A689B680DC42B4B7B4480
:104E40006E33083303AC0DCB0DC43720C0010818F6
:104E500037211B30FEF746FE05460C46803D1B3CC5
:104E600002D56442012000E00020002709900FE0F5
:104E7000E0070BD00C201D497843794432464E3967
:104E80004118684600F02FFA6B4607C364107F1C78
:104E9000002CEDD1154F7F442E3F16E0E80712D0CD
:104EA0002001C01901460EC9069108930792C068F7
:104EB000F04201D198190890324606A903A800F0E3
:104EC00012FA03AB07C36D10641C002DE6D1324605
:104ED00069460998002803A802D000F02EFA01E0E4
:104EE00000F001FA0A9B07C30DB0F0BD44100000AA
:104EF000034640000A4610B5400D0BD00121C907FA
:104F00000F24A40200191C0364082143540D2143FB
:104F1000D20207E000210120F2E7D40F490021432B
:104F20005200401E0029F8DADB0FDB07184310BDE2
:104F3000FFB50C46154685B04868516800F07AFA0E
:104F400000910190A068A96800F074FA02910390A2
:104F5000A068696800F06EFA029A12188242029202
:104F600001D2012000E00020019A0B18D21800287D
:104F7000019202D08A4202D903E08A4201D2012082
:104F800000E000200099081800906068A96800F00F
:104F900051FA029A12188242029201D2012000E0D4
:104FA0000020019A0B18D2180028019202D08A42E0
:104FB00002D903E08A4201D2012000E000200099DA
:104FC00008180090206829684000490040084908F6
:104FD0004018EE49471814E001994000C90F0843F2
:104FE0000090019802994000C90F0843019002986F
:104FF00003994000C90F08430290039840007F1EA8
:10500000039000980028E7DA0898002801D0E04EC5
:1050100000E00026B74228DAF71BF806C00E15D0CC
:10502000029B2021091A039A8B401A430392029A89
:10503000019BC2408B401A430292019A009BC240DE
:105040008B4000991A430192C14000917A110BD014
:105050006B460320811A01D5002101E089005958CF
:105060008700401ED951F5D537460398029900288C
:1050700000D00120014308980291002808460CD076
:10508000002800D001200199019A49050843012117
:10509000D20AC902D202019200E001210E9B012234
:1050A000D207012B02D0002B03D013E0002807D138
:1050B00016E0904204D890420CD1019B0B4209D0DB
:1050C000019B5918019105D10099491C009101D10A
:1050D0007F1C0092002803D0102108460020C04603
:1050E00020682968019B009A4840C10F0598C907AC
:1050F00039430EC009B0F0BDFFB587B0099A0898D2
:10510000089953689268406889689646002203931C
:1051100017469446089A12685300099A5B08126869
:10512000520052089A1A9B4BD4180A9A002A01D0AE
:10513000352200E040220692002201231546049207
:10514000DB07059324E0002D05D175460346039E39
:105150004D1BB34109D375466646039B491B049D0D
:105160009841059B7519AC465F4163463B4308D0A7
:10517000059B049EDD0776082E435B080496059385
:1051800001E0641E521EC50FED0749184041521C34
:10519000069B9A42D7DB002D04D17546039A6B1A01
:1051A000824101D203200CE0039A0B466B4042403F
:1051B000134301D1022004E0014301D0012000E0AB
:1051C0000020614601910021009702910A9900296F
:1051D00005D06146400201436D4B019102E080071A
:1051E000002302909C423ADA1A1BD006C00E15D05A
:1051F000029D2021019C091AC5408C402543029C38
:105200008C4000D001242543019C02953D46C440BA
:105210008D4039462C43C1400194009154111DD05A
:105220006D460221002202290CD10320001B07E059
:10523000002804DB8600AE59002E00D00122401C5D
:105240000328F5DB081B02D588002A5004E0800003
:10525000285810438A00A850491EE3D51C460A98D6
:10526000002802980CD0002800D001200199019A52
:10527000490508430121D20AC902D202019200E085
:105280000121109B0122D207012B02D0002B03D059
:1052900013E0002807D116E0904204D890420CD1C8
:1052A000019B0B4209D0019B5918019105D100992E
:1052B000491C009101D1641C0092002803D01021E8
:1052C00008460020C04608980999019A00680968B4
:1052D00048400099C30F0798DB07234303608260AF
:1052E00041600BB0F0BD1FB5002300920A46014695
:1052F00001A8FFF71DFE01A807C804B010BD1FB527
:10530000012300920A46014601A8FFF711FE01A8F9
:105310000F2407C8A402C30F4000DB074008001B8E
:10532000002900DB0020490000054908CC0A204381
:1053300049051843D20A1143DFE71FB50023009245
:105340000A46014601A8FFF7D7FE01A807C8D4E71F
:105350001FB5012300920A46014601A8FFF7CCFEC3
:1053600001A80F2407C8A402C30F4000DB074008B0
:10537000001B002900DB0020490000054908CC0A79
:10538000204349051843D20A1143B6E702C0FFFF84
:10539000013C0000FF3F00000446C046C0462046D6
:1053A000FAF75AFF0048704718010010024670B51E
:1053B0000A4392072AD11E4DEE0104C808C9541BA6
:1053C0009443344017D0D0B2D9B2401A21060143D9
:1053D00010D190B299B2401A210401430AD11002AF
:1053E0001902000A090A401A2102014302D1100ED3
:1053F000190E401A70BD9A42DFD010BA19BA88420D
:1054000001D9012070BD0020C04370BD02780B7827
:10541000401C491C002A09D09A4207D102780B7817
:10542000401C491C002A01D09A42EFD0D01A70BD0E
:1054300001010101F8B5040C8BB2264682B25E432D
:10544000104658430D0C370C3604002180191646BF
:1054500079416E43370C36048019264679416E43F4
:105460008919F8BD30B47446641E2578641CAB42BB
:1054700004D3635D5B00E31830BC18471D46F8E7B2
:105480004900CA02104300D004204A0D01D0012275
:105490001043054A490D914201D1022108430128D8
:1054A00000D1052070470000FF07000030380A28AF
:1054B00001D20120704700207047000010B500297C
:1054C0000AD00878002807D005487844FFF76EFF17
:1054D000002801D0002010BD0248784410BD000013
:1054E0005E0A0000560A000010B500290AD00878AC
:1054F000002807D005487844FFF758FF002801D05E
:10550000002010BD0248784410BD00004E0A000083
:10551000460A000070B5420064414B005C41120E27
:1055200039D01B0E38D0FF2A3CD0FF2B3AD0400296
:105530004902400A490A060045184E43000A090A72
:10554000D2184843ED017F3A0104731A4019190C2F
:105550004318990F04D001215B0849075B1A521CBC
:10556000D80904D3401CF50301D19D0607D0FF2ABA
:1055700008D2D50506D0E4072043401970BD0125A7
:10558000A843F4E7002A01DCE00770BD2402FF20F5
:105590002043C00570BD1B0EFF2A03D0FF2B01D096
:1055A000E00770BDFF2645003606B54206D84D001F
:1055B000B54203D8D218FF2A00D0E7E7004870BDF3
:1055C0000000C07F03B402487844844603BC6047AF
:1055D00063F4FFFF00000050000001500000025083
:1055E0000000035000000050000001500000025075
:1055F00000000350487BD0706364447940604146AA
:10560000CC52C4C5083B9030232404390020010645
:105610008C128485000000500000015000000250F0
:10562000000003500000FCFCFCFC000000FCFCFC43
:10563000FC000000E0E0E0E060E0E0E0C00000002E
:10564000ECECECEC000000043CFCFCF08080F0FC96
:10565000FC3C04000000070F1F1F1C181C1F1F0F1D
:10566000070000001F1F1F1F001F1F1F1F0000003B
:105670001F1F1F1F0000000000010F1F1F1F1F0F13
:10568000010000000080E0E0F0703070F0E0E080A9
:10569000000000F0F0F0F000000000000000F0F06A
:1056A000F0F03030303030000000F0F0F0F03070CA
:1056B000F0F0E080000F3F3F7F7060707F3F3F0F52
:1056C0000000007F7F7F7F606060600000007F7F60
:1056D0007F7F63636363600000007F7F7F7F607014
:1056E0007F7F3F0F000000000000004F0000000718
:1056F000000700147F147F14242A7F2A1223130822
:10570000646236495522500005030000001C224106
:10571000000041221C0014083E081408083E080836
:1057200000503000000808080808006060000020F1
:10573000100804023E5149453E00427F400042614C
:105740005149462141454B311814127F10274545D8
:1057500045393C4A494930017109050336494949EF
:1057600036064949291E003636000000563600002C
:1057700008142241001414141414004122140802C5
:1057800001510906324979413E7E1111117E7F494E
:105790004949363E414141227F4141221C7F4949CE
:1057A00049417F090909013E4149497A7F080808B2
:1057B0007F00417F41002040413F017F081422418A
:1057C0007F404040407F020C027F7F0408107F3EF4
:1057D0004141413E7F090909063E4151215E7F0951
:1057E000192946464949493101017F01013F40409D
:1057F000403F1F2040201F3F4038403F63140814A3
:105800006307087008076151494543007F41410023
:1058100002040810200041417F00040201020440FC
:1058200040404040010204000020545454787F4816
:105830004444383844444420384444487F3854541D
:105840005418087E090102064949493F7F080404AB
:105850007800447D40002040443D007F10284400F3
:1058600000417F40007C0418047C7C0804047838E4
:10587000444444387C14141408081414187C7C081C
:105880000404084854545420043F4440203C404001
:10589000207C1C2040201C3C4030403C44281028E8
:1058A000440C5050503C4464544C44000836410071
:1058B00000007F0000004136080002010204023EA1
:1058C0005555412200000000000000790000182416
:1058D000742E24487E4942405D2222225D15167CAA
:1058E000161500007700000A5555552800010001E3
:1058F00000000A0D0A0408142A1422040404041CDB
:10590000000808080001010101010002050200442D
:10591000445F444400000402017E2020103E060F34
:105920007F007F00181800000040502000000A0D82
:105930000A0022142A14081708342A7D1708046A5A
:105940005930484540207029262870702826297033
:10595000702A252A707229262970702924297070CE
:105960002A2D2A707E117F49490E515171117C55A3
:105970005654447C555654447C565556447C555494
:10598000554400457E440000447E450000467D4667
:105990000000457C45007F4949413E7C0A11227D3B
:1059A0003845464438384446453838464546383800
:1059B00046454639384544453822140814222E51AC
:1059C00049453A3C4142403C3C4042413C3C4241DA
:1059D000423C3C4140413C0C1062110C7F121212BF
:1059E0000C403E014936205556547820545655787F
:1059F00020565556782055565578205554557820C0
:105A00005657567824547854580C525272133855BD
:105A10005654183854565518385655561838555443
:105A2000551800497A400000487A4100004A7942FE
:105A300000004A784200314A4E4A307A110A097011
:105A400030494A483030484A4930304A494A303073
:105A50004A494A31304A484A3008082A0808386416
:105A6000544C3838414220783840422178384241FD
:105A7000227838424022780C5052513C7E14141443
:105A8000080C5150513C1E0909295E081515354E68
:105A9000384446452030484A49203845464520305C
:105AA000494A49207C454645382050507C031F1503
:105AB0001535510E151535467C55565544385556F5
:105AC000551800447C40007F4844404000497F44D2
:105AD000007C0812217C78100A09707C0912217C54
