:020000040000FA
:10000000B8020010690100006D0100006F010000DE
:100010007101000073010000750100000000000084
:100020000000000000000000000000007701000058
:1000300079010000000000007B0100007D0100004C
:100040007F0100007F0100007F0100007F010000B0
:100050007F0100007F0100007F0100007F010000A0
:100060007F0100007F0100007F0100007F01000090
:100070007F0100007F0100007F0100007F01000080
:100080007F0100007F0100007F0100007F01000070
:100090007F0100007F0100007F0100007F01000060
:1000A0007F0100007F0100007F0100007F01000050
:1000B0004104000013040000E5030000B703000042
:1000C00000F002F800F040F80CA030C808382418FE
:1000D0002D18A246671EAB4654465D46AC4201D180
:1000E00000F032F87E460F3E0FCCB6460126334272
:1000F00000D0FB1AA246AB46334318472007000046
:1001000040070000103A02D378C878C1FAD85207E5
:1001100001D330C830C101D504680C6070470000BD
:100120000023002400250026103A01D378C1FBD813
:10013000520700D330C100D50B6070471FB5C046D1
:10014000C0461FBD10B510BD00F040FB1146FFF7C3
:10015000F5FF00F093F800F0BCF803B4FFF7F2FFEE
:1001600003BC00F0C1F8000008480047FEE7FEE7C6
:10017000FEE7FEE7FEE7FEE7FEE7FEE7FEE7FEE757
:1001800003480449044A054B70470000C1000000C1
:1001900098000010B8020010B8000010B80000105D
:1001A0003049314A11600121304A1160516000210B
:1001B00051600121516000BF2C494968C907C90F2E
:1001C000FAD02A4940398868400A40020321014395
:1001D000264A403A91602649896B80229143244AFD
:1001E000916300BF21494039C968C907C90FF9D0D7
:1001F00003211E4A11630121516300215163012132
:10020000516300BF1949496BC907C90FFAD00121D1
:10021000164A9163144909688900164A116011460B
:100220000968154A1160704700B502200F4940392E
:100230000860002008620E48806B202188430C492A
:100240008863002300E05B1CFF2BFCD9FFF7A8FFAD
:100250000648403000680121090408430349403141
:10026000086000BD001BB700000000104080044083
:10027000008204400400001008000010FFF7D4FFC3
:1002800000F0F5F801220021032000F06AFA0122B3
:100290000021032000F051FA15E0002400E0641C66
:1002A00009488442FBD300221146032000F045FA9E
:1002B000002400E0641C04488442FBD30122002196
:1002C000032000F03AFAE8E790D003007047704747
:1002D00070470446C046C0462046FFF73EFF000078
:1002E000004870473400001001491820ABBEFEE7FB
:1002F000260002007047000000000000FFFFFFFF23
:10030000002806D001280CD0022812D0032820D1C2
:1003100017E0F74AD26901238B401A43F44BDA61A4
:1003200018E0F44AD26901238B401A43F14BDA6199
:1003300010E0F14AD26901238B401A43EE4BDA6197
:1003400008E0EE4AD26901238B401A43EB4BDA6195
:1003500000E000BF00BF704710B502460020002A31
:1003600006D0012A0CD0022A12D0032A20D117E08D
:10037000DF4B9B6901248C40234200D0012018E010
:10038000DC4B9B6901248C40234200D0012010E00B
:10039000D94B9B6901248C40234200D0012008E006
:1003A000D64B9B6901248C40234200D0012000E001
:1003B00000BF00BF10BD10B5D1480068401CD04937
:1003C000086001210020FFF7C7FF0446002C08D079
:1003D000CC480068401CCB49086001210020FFF791
:1003E0008FFF10BD10B5C8480068401CC6490860A2
:1003F00001210846FFF7B0FF0446002C08D0C3488F
:100400000068401CC149086001210846FFF778FFD9
:1004100010BD10B5BE480068401CBD4908600121F0
:100420000220FFF799FF0446002C08D0B948006865
:10043000401CB849086001210220FFF761FF10BD90
:1004400010B5B5480068401CB3490860012103207D
:10045000FFF782FF0446002C08D0B0480068401C1B
:10046000AE49086001210320FFF74AFF10BD10B517
:10047000AB48006840210843A94908601F2000F0EC
:1004800097F91E2000F094F91D2000F091F91C202E
:1004900000F08EF910BD70B5049C002806D001282C
:1004A00038D002286AD003287BD19CE0002A18D1DA
:1004B0008F4D6D6801268E40B5438D4E7560002BC3
:1004C00007D13546AD6801268E40B543884EB560EC
:1004D0000EE0874DAD6801268E403543844EB560F1
:1004E00006E0834D6D6801268E403543804E756071
:1004F000002C07D17E4DED6801268E40B5437C4E21
:10050000F56006E07A4DED6801268E403543784E61
:10051000F5609DE0002A18D1764D6D6801268E4069
:10052000B543744E7560002B07D13546AD68012682
:100530008E40B5436F4EB5600EE06E4DAD6801263E
:100540008E4035436B4EB56006E06A4D6D680126FE
:100550008E403543674E7560002C07D1654DED68C0
:1005600001268E40B543634EF56006E0614DED68AF
:1005700001268E4035435F4EF56069E0002A19D1AF
:100580005D4D6D6801268E40B5435B4E7560002B56
:1005900008D13546AD6801268E40B543564EB5604C
:1005A0000FE054E0544DAD6801268E403543524E65
:1005B000B56006E0504D6D6801268E4035434E4EC5
:1005C0007560002C07D14C4DED6801268E40B54377
:1005D000494EF56006E0484DED6801268E403543F2
:1005E000454EF56034E0002A18D1444D6D6801266F
:1005F0008E40B543414E7560002B07D13546AD683E
:1006000001268E40B5433D4EB5600EE03B4DAD68D2
:1006100001268E403543394EB56006E0374D6D6892
:1006200001268E403543354E7560002C07D1334D81
:10063000ED6801268E40B543304EF56006E02F4D43
:10064000ED6801268E4035432C4EF56000E000BF7A
:1006500000BF70BD002806D001280CD0022812D09F
:10066000032820D117E0224A126901238B401A4344
:100670001F4B1A6118E01F4A126901238B401A436D
:100680001C4B1A6110E01C4A126901238B401A436B
:10069000194B1A6108E0194A126901238B401A4369
:1006A000164B1A6100E000BF00BF7047002806D05B
:1006B00001280CD0022812D003283BD132E00C4A8A
:1006C000126901238B409A43094B1A6133E0094AAE
:1006D000126901238B409A43064B1A612BE0064AAC
:1006E000126901238B409A43034B1A6123E00000F7
:1006F00000800050008001500080025000800350B4
:100700000C00001010000010140000101800001061
:100710001C00001020000010240000102800001011
:1007200080800440264A136901228A409343244A68
:10073000136100E000BF00BF704730B513468B4027
:100740008400204D2D5901248C40A4002B5130BD34
:10075000024690001B4B1B5801208840800018580F
:10076000704730B5002A11D08300164CE35801249D
:10077000E4031B191B6801248C4023438400114DA2
:100780002C590125ED036419236010E083000D4C02
:10079000E3580124E4031B191B6801248C40A34384
:1007A0008400084D2C590125ED036419236030BDE8
:1007B000C206D20E01219140034A11607047000029
:1007C000008003500C08000000E100E07546FFF7D0
:1007D00087FDAE46050069465346C008C000854601
:1007E00018B020B5FFF7CCFC60BC00274908B6461E
:1007F0000026C0C5C0C5C0C5C0C5C0C5C0C5C0C530
:10080000C0C5403D49008D467047000000000050C3
:100810000000015000000250000003503C0800009E
:100820000000001034000000040100007008000007
:10083000340000108402000020010000001BB700FB
:10084000001BB700001BB700000000000000000004
:100850000000000000000000000000000000000098
:100860000000000000000000000000000000000088
:04000005000000C136
:00000001FF
