:020000040000FA
:1000000020110010D5000000D9000000DB00000026
:10001000DD000000DF000000E10000000000000043
:10002000000000000000000000000000E3000000ED
:10003000E500000000000000E7000000BB3B0000FE
:10004000EB000000EB000000EB000000EB00000004
:10005000EB000000EB000000EB000000EB000000F4
:10006000EB000000EB000000EB000000EB000000E4
:10007000EB00000043170000630E0000BD130000FA
:10008000EB000000EB000000AF0900002F0A0000A9
:10009000210E0000ED060000EB000000EB00000068
:1000A000EB000000EB000000EB000000EB000000A4
:1000B000F3480000EB000000A34800007548000072
:1000C0000348854605F06EFA0048004717470000D0
:1000D0002011001005480047FEE7FEE7FEE7FEE7B7
:1000E000FEE7FEE7FEE7FEE7FEE7FEE7C1000000F1
:1000F0003049314A11600121304A116051600021BC
:1001000051600121516000BF2C494968C907C90FDE
:10011000FAD02A4940398868400A40020321014345
:10012000264A403A91602649896B80229143244AAD
:10013000916300BF21494039C968C907C90FF9D087
:1001400003211E4A116301215163002151630121E2
:10015000516300BF1949496BC907C90FFAD0012182
:10016000164A9163144909688900164A11601146BC
:100170000968154A1160704700B502200F494039DF
:100180000860002008620E48806B202188430C49DB
:100190008863002300E05B1CFF2BFCD9FFF7A8FF5E
:1001A00006484030006801210904084303494031F2
:1001B000086000BD001BB700000000104080044034
:1001C000008204400400001008000010A0211B4A17
:1001D00051621A49C03108610121184AC032516187
:1001E000002151610121516100BF1449C0314969A9
:1001F000C907C90FF9D00121104AC03291611049D5
:10020000896B402291430E4A916370470B49C0317C
:1002100008620121094AC032516200215162012164
:10022000516200BF0549C031496AC907C90FF9D0F9
:100230000121024AC03291627047000000800440F0
:100240000082044000BF1E49496920221142FAD0B1
:100250001B490860704710B503460C461846FFF767
:10026000F1FF10BD00BF174800680028FBD0062032
:10027000134948600020134908600720104948606E
:1002800011480078704710B50446FFF7EBFF0346AE
:10029000FFF7D8FF10BD00B503461846FFF7D2FFA1
:1002A00000BD01460020C043704700BFFEE700BF0D
:1002B00003484069C007C00FFAD001480068704782
:1002C00000800040100000104804001010B500210C
:1002D0000CE0002205E0002300E05B1C1E2BFCD399
:1002E000521CFF242D34A242F5D3491C8142F0D385
:1002F00010BD70470000000000000000FFFFFFFF7E
:1003000010B5F348006840210843F14908601F20F8
:1003100000F0D7F91E2000F0D4F91D2000F0D1F92B
:100320001C2000F0CEF910BD70B5049C002806D04A
:10033000012838D002286AD003287BD19CE0002A0B
:1003400018D1E44D6D6801268E40B543E14E7560CD
:10035000002B07D13546AD6801268E40B543DD4EF2
:10036000B5600EE0DB4DAD6801268E403543D94EB9
:10037000B56006E0D74D6D6801268E403543D54EF9
:100380007560002C07D1D34DED6801268E40B54332
:10039000D04EF56006E0CF4DED6801268E40354326
:1003A000CC4EF5609DE0002A18D1CB4D6D6801263A
:1003B0008E40B543C84E7560002B07D13546AD68F9
:1003C00001268E40B543C44EB5600EE0C24DAD6807
:1003D00001268E403543C04EB56006E0BE4D6D68C7
:1003E00001268E403543BC4E7560002C07D1BA4DB6
:1003F000ED6801268E40B543B74EF56006E0B64D78
:10040000ED6801268E403543B34EF56069E0002A61
:1004100019D1B24D6D6801268E40B543AF4E75605F
:10042000002B08D13546AD6801268E40B543AB4E52
:10043000B5600FE054E0A94DAD6801268E4035430C
:10044000A64EB56006E0A54D6D6801268E40354389
:10045000A24E7560002C07D1A04DED6801268E409C
:10046000B5439E4EF56006E09C4DED6801268E403A
:1004700035439A4EF56034E0002A18D1984D6D68E6
:1004800001268E40B543964E7560002B07D1354648
:10049000AD6801268E40B543914EB5600EE0904D9B
:1004A000AD6801268E4035438D4EB56006E08C4D1B
:1004B0006D6801268E403543894E7560002C07D14A
:1004C000874DED6801268E40B543854EF56006E008
:1004D000834DED6801268E403543814EF56000E086
:1004E00000BF00BF70BD002806D001280CD0022834
:1004F00012D0032820D117E0764A126901238B40DD
:100500001A43744B1A6118E0734A126901238B4035
:100510001A43714B1A6110E0704A126901238B4033
:100520001A436E4B1A6108E06D4A126901238B4031
:100530001A436B4B1A6100E000BF00BF70470028F0
:1005400006D001280CD0022812D0032820D117E0B1
:10055000604A126901238B409A435E4B1A6118E08E
:100560005D4A126901238B409A435B4B1A6110E08C
:100570005A4A126901238B409A43584B1A6108E08A
:10058000574A136901228A409343554A136100E098
:1005900000BF00BF704710B502460020002A06D0F9
:1005A000012A0CD0022A12D0032A20D117E0494B8D
:1005B0009B6901248C40234200D0012018E0464B67
:1005C0009B6901248C40234200D0012010E0434B62
:1005D0009B6901248C40234200D0012008E0404B5D
:1005E0009B6901248C40234200D0012000E000BF21
:1005F00000BF10BD002806D001280CD0022812D060
:10060000032820D117E0334AD26901238B401A43D3
:10061000304BDA6118E0304AD26901238B401A432B
:100620002D4BDA6110E02D4AD26901238B401A4329
:100630002A4BDA6108E02A4AD26901238B401A4327
:10064000274BDA6100E000BF00BF704730B51346AA
:100650008B408400234D2D5901248C40A4002B5144
:1006600030BD024690001F4B1B580120884080007F
:100670001858704730B5002A11D08300194CE35840
:100680000124E4031B191B6801248C4023438400CC
:10069000144D2C590125ED036419236010E08300EB
:1006A000104CE3580124E4031B191B6801248C40FF
:1006B000A34384000B4D2C590125ED0364192360DD
:1006C00030BDC206D20E01219140074A1160704729
:1006D0008080044000800050008001500080025063
:1006E000008003507064000000E100E070B500BFBE
:1006F000864A9268D0B240104007400F032820D1AC
:10070000824A5269D1B29E22114205D0804A1160BC
:100710007E4A1268D3B270BDCA07D20F3ED07B4C5E
:100720002468E5B27B4C2268541C7A4E34607A4CC3
:10073000A55432461268402A30D300223446226043
:100740002CE0022811D1714C2468E5B2714C22686A
:10075000541C704E3460704CA55432461268402AC6
:100760001CD300223446226018E0062807D1684ACC
:100770001268FF2401342243654C22600EE00128F8
:100780000CD1624A5269D1B22022114203D0012217
:10079000624C227002E00022604C227000BFBAE777
:1007A000F8B5044601205D490870002059490860E9
:1007B0001520012181405A4A116000BF5948406A02
:1007C000C008C000574948620846406A01210843F2
:1007D000544948620846806AC008C00088620846DA
:1007E000806A012108434F4988624F48006801210F
:1007F000090308434C49086001208861832043496C
:10080000C8604948866931464848006804F0ACFB36
:1008100007092146384604F0A7FB0546280A3B494C
:100820004860E8B208600320C86007208860084676
:10083000466900BF35484069602108406028F9D109
:1008400001E03248066831484069C007C00FF8D15E
:10085000152001218140324A803A116000BF0520F5
:100860002A494860F8BD0AE000BF284A526920239F
:100870001A42FAD00278254B1A60401C491E002902
:10088000F2D1704700BF2149496920221142FAD0B4
:100890001E490860704700B5034603E018785B1CEA
:1008A000FFF7F0FF18780028F8D100BD0FB400B5AD
:1008B0009BB01DA80090642101A8009B1C9A04F025
:1008C000E9FE01A8FFF7E7FF002000901BB008BC7D
:1008D00004B018470146164800680E4A1268904254
:1008E00011D00D48124A1268805C087010480068E8
:1008F000401C0F4A106010460068402801D30020B9
:100900001060012070470020FCE7000000800040DC
:100910001800001010000010480400100C00001017
:1009200080E100E080400440808004400800001026
:100930001400001070B504460D46002C1AD1022098
:10094000FE4948600020C8607D21C900FC4800685D
:1009500004F00AFB6843F9498861FF20086004201D
:1009600048610120486000BFF4484068C007C00FDC
:10097000FAD11BE0012C19D10220F2494860002075
:10098000C8607D21C900EE48006804F0EDFA6843B4
:10099000EC498861FF20086004204861012048601C
:1009A00000BFE8484068C007C00FFAD170BD10B55D
:1009B000E2480068C007C00F2BD00120DF49086063
:1009C000E1480068401CE0490860084600687D2155
:1009D000C900884202D30020DB490860DA48006879
:1009E000DA49097888420AD2012202210020FFF761
:1009F00041FE012202210020FFF728FE09E001222A
:100A000002210020FFF736FE002202211046FFF7E8
:100A10001DFECA4800681021084207D01020C749AF
:100A20000860CB480068401CC949086010BDC54833
:100A30000068C007C00F07D00120C2490860C54840
:100A40000068401CC3490860BE4800681021084285
:100A500007D01020BB490860BF480068401CBE4951
:100A600008607047002803D10121B44A516002E0B8
:100A70000121B44A51607047002803D10021AF4AD8
:100A8000516002E00021AF4A5160704701460029E1
:100A900006D1AA4A506802221043A84A506005E0D5
:100AA000A84A506802221043A64A5060704770B5A9
:100AB00004460D46002C44D1A84800680121490293
:100AC0000843A6490860A648006AC008C000A449B7
:100AD00008620846006A08620846406AC008C0000A
:100AE00048620846406A022108439D494862084618
:100AF000806AC008C00088620846806A02210843F4
:100B000097498862964880380069C008C0009449B7
:100B100080390861084600690221084390498039FC
:100B20000861002088490860894908608348856118
:100B300005208249886203204861122000F060F994
:100B400022E0012C20D185480068A1020843834996
:100B5000086083484069C008C00081494861084670
:100B60004069022108437E494861002079490860B4
:100B700079490860734885610520724988620320BD
:100B80004861132000F03CF970BD70B504460D4675
:100B9000002C12D1714800680121490208436F49B5
:100BA0000860002068490860644885610320634943
:100BB0004861122000F024F912E0012C10D167489E
:100BC0000068A10208436549086000206149086087
:100BD0005C48856103205B494861132000F010F9EF
:100BE00070BD30B505460C4613462846FFF744FF56
:100BF000012D62D159480068A9020843574908608D
:100C0000B320C00018434F49C863D807C00F0ED0A7
:100C100053484038C06BC008C00051494039C863D0
:100C20000846C06B032108434D494039C863022080
:100C300003420BD04A480068C008C0004849086019
:100C40000846006803210843454908600420034220
:100C50000BD043480069C008C000414908610846FC
:100C60000069032108433E490861082003420BD074
:100C70003B484069C008C00039494861084640699E
:100C80000221084336494861082018432D49403164
:100C900048633448046000682A4948623148006863
:100CA000400888612F4800684008C8612D480068E6
:100CB00040080862081548616CE028480068012176
:100CC0004902084325490860CB20C00018431B494E
:100CD000C863022003420BD02148806AC008C000CC
:100CE0001F4988620846806A022108431C498862BD
:100CF000042003420ED01A4880380069C008C000A2
:100D000017498039086108460069022108431449DF
:100D100080390861082003420ED011484038406BEA
:100D2000C008C0000E49403948630846406B0321A3
:100D300008430B4940394863082015E00040014052
:100D40000800001000800140240000103C0000104A
:100D50002C0000102800001030000010808004409B
:100D6000804004403800001018432949486329484E
:100D70000460006826494039486226480068886156
:100D8000244800684008C86122480068400808629A
:100D90000815486130BD002816D0002906D0012969
:100DA00007D0022908D003290CD108E01A4B9A6118
:100DB00009E0194BDA6106E0174B1A6203E0164BA3
:100DC0005A6200E000BF1AE0002906D0012908D0CD
:100DD00002290AD0032910D10BE00D4B403B9A6148
:100DE0000CE00B4B403BDA6108E0094B403B1A62D8
:100DF00004E0074B403B5A6200E000BF00BF704771
:100E0000C206D20E01219140044A116070470000D1
:100E100040400140340000100080014000E100E04B
:100E2000FE49C869C107C90F07D0FD490968491CB7
:100E3000FB4A11600121F94A11620221084207D0E0
:100E4000F8490968491CF74A11600221F34A116206
:100E50000421084204D0F4490968491CF24A11608F
:100E60007047F249C869C107C90F07D0F04909683E
:100E7000491CEF4A11600121EC4A1162022108422B
:100E800007D0EC490968491CEA4A11600221E74A87
:100E900011620421084204D0E7490968491CE64A66
:100EA0001160704710B50446002C47D1E3484068F4
:100EB00001210843E1494860E04880300068C914D6
:100EC0000843DE498031086002204861DC48006A3E
:100ED000C008C000DA4908620846006A01210843D8
:100EE000D74908620846406AC008C0004862084600
:100EF000406A01210843D24948620120D04940316B
:100F00000863CF490863CD4880300068402108431A
:100F1000CA4980310860CA484038C069C008C0006A
:100F2000C7494039C861012202210020FFF7A2FB16
:100F3000012202210020FFF789FB54E0BF484068EE
:100F400004210843BD494860BC4880300068012145
:100F500089040843B949803108600220C861B84853
:100F6000C069C008C000B649C8610846C06902210E
:100F70000843B349C861B2484030C068C008C000E7
:100F8000AF494031C8600846C06802210843AC49F7
:100F90004031C860AA484038806AC008C000A849EB
:100FA000403988620846806A02210843A4494039D2
:100FB0008862A24880300068402108439F49803100
:100FC00008609F4840388068C008C0009C4940398C
:100FD0008860012200210220FFF74CFB0122002142
:100FE0000220FFF733FB10BD10B50446002C69D179
:100FF0009248406801210843904948608F488030FA
:101000000068C91408438D49803108600220486196
:101010008B48006AC008C000894908620846006A17
:1010200001210843864908620846406AC008C0009A
:1010300048620846406A012108438149486202200B
:101040007F49403108637E49C8607C488030006831
:101050004021084379498031086079480068C00818
:10106000C00077490860012204210220FFF702FB3B
:10107000012204210220FFF7E9FA71484038006894
:10108000C008C0006E4940390860012206210220D4
:10109000FFF7F0FA012206210220FFF7D7FA68488D
:1010A0004038006AC008C000654940390862012222
:1010B00007210220FFF7DEFA012207210220FFF7B5
:1010C000C5FA54E05D484068042108435B49486024
:1010D0005A4880300068012189040843574980310B
:1010E00008600220C8615648C069C008C000544961
:1010F000C8610846C069022108435149C861504887
:101100004030C068C008C0004D494031C860084642
:10111000C068022108434A494031C8604848403805
:10112000806AC008C0004649403988620846806A23
:1011300002210843424940398862404880300068B3
:10114000402108433D49803108603D48403880686F
:10115000C008C0003A4940398860012200210220BD
:10116000FFF788FA012200210220FFF76FFA10BD75
:1011700070B5054600BF002D16D1324827490860DA
:10118000FE200861002404E024488068C6B2601C88
:10119000C4B2082CF8DB142000F003F902201F4928
:1011A00048600320486115E0264820490860022075
:1011B0000861002404E01D488068C6B2601CC4B207
:1011C000082CF8DB0E2000F0ECF8022017494860EC
:1011D0000320486170BDF8B507460D4616460098D5
:1011E0000090002F30D1681E0721090208430B49E7
:1011F000086008460661002405E008488068C0B21F
:101200000090601CC4B2082CF7DB142000F0C9F871
:10121000022002494860032048612FE0000004409A
:1012200044000010480000104000001000800540FD
:1012300050000010540000104C00001000800440CA
:101240004040044007070000681E072109020843C8
:101250005749086008460661002405E05448806844
:10126000C0B20090601CC4B2082CF7DB0E2000F066
:1012700098F802204E49486003204861F8BD70B5D7
:1012800000BF00232DE0002815D100BF494DED68B7
:1012900012263540022DF9D10D78464EB560491C15
:1012A00000BF444DED6814263540042DF9D1414D61
:1012B000AD68ECB214E000BF3D4DED68122635403C
:1012C000022DF9D10D783A4EB560491C00BF384D5A
:1012D000ED6814263540042DF9D1354DAD68ECB2DA
:1012E0005B1C9342CFD370BD30B500231FE00028B4
:1012F0000ED1FF242F4DAC6000BF2E4CE4681425A6
:101300002C40042CF9D12B4CA4680C70491C0DE026
:10131000FF24274DAC6000BF254CE46814252C4009
:10132000042CF9D1224CA4680C70491C5B1C93421C
:10133000DDD330BD0246002A19D100BF1D48C06868
:10134000122318400228F9D11A48816000BF1948B9
:10135000C06810231842FAD100BF1648C068142391
:1013600018400428F9D11348806880B2704700BF44
:101370000F48C068122318400228F9D10C48816038
:1013800000BF0B48C06810231842FAD100BF0848BC
:10139000C068142318400428F9D10548806880B239
:1013A000E4E7C206D20E01219140034A1160704762
:1013B000008005400000044000E100E010B501207D
:1013C00080074068C1B24807400F6FD1C8100300C2
:1013D00004F089F90CB3071523AB393AB464AC7443
:1013E00096B30020AB4A1060AB4800780122920708
:1013F0009060282090610120A84A1060A2E000209F
:10140000A74A1060A4480078012292079060282023
:1014100090610220A14A106094E0A0480068012871
:101420000DD19C4A1068421C9A4B1A609D4A126862
:10143000125C01239B079A600420984A10600820E0
:10144000C20690617EE000BF92480068964A12682A
:1014500090420ED28F4A1068421C8E4B1A60914AFD
:101460001268125C01239B079A6004208B4A10606B
:1014700010E08E480068002806D020204206106048
:101480000320864A106005E00520844A1060102081
:10149000820610600820C206906153E0834800680D
:1014A000012804D104200207906103E045E00420F4
:1014B000020710600820C206906143E001229207F3
:1014C0009268D3B2764A1068421C754C2260784A02
:1014D0001268135420460068744A1268904205D27C
:1014E00004206E4A10600207106005E005206B4A78
:1014F00010600420020790610820C206906121E07C
:10150000012292079268D3B2654A1068421C644C6B
:101510002260674A126813540520604A1060102048
:1015200082061060082090610CE000BF0820C2060F
:1015300090610520594A106004E000BF0820C206EF
:10154000906100BF00BF10BD002100202022530683
:101550001A600BE0514A1268012A01D1012006E00D
:10156000544A914201D3002001E0491CF2E700BF38
:1015700070471020810608600820886100BF0120A4
:101580008007006810210842F9D10120704710B58A
:1015900002464948406802231843474B5860464872
:1015A0008030006820231843434B80331860434841
:1015B000006B80098001414B18631846006B0123C2
:1015C00018433E4B18631846406B800980015863EE
:1015D0001846406B01231843384B58636C201B049A
:1015E0009861FF20813058611861022A01D15007AB
:1015F000C1600F2001238340314C236000BF402095
:1016000003061860012010BD00B5002023490860C2
:10161000234908601F490860FFF796FF012803D09F
:10162000FFF7A7FF002000BD06E01C480068052862
:1016300002D1FFF79EFF00E0F7E700BF0120F2E7CD
:1016400070B506460C461546012030431249087015
:101650001748046015480560012013490860FFF72A
:10166000D3FF124800681149086070BD70B5064686
:101670000C461546084806700A4804600A4805608A
:1016800000200A490860FFF7BFFF074800680649C5
:10169000086070BD68000010800000105800001045
:1016A00064000010700000107C0000107800001032
:1016B00074000010FFFFFF00008004400040044061
:1016C00000E100E030B5024600BFC14B1B680124B9
:1016D000E4032342F9D17F23BD4C6360531C236094
:1016E00000BFBB4B1B680124E4032342F9D118233C
:1016F0005343B84C1819B64B5B690124A403234229
:1017000008D0B34B19691C466469B34D2C402404BE
:10171000214303E0AE4B5B69DB04590D02C0AC4BC7
:101720009B691B071B0F08C0A94BDB6908C0A84BAE
:101730001B6A08C0A64B5B6A08C0A54B9B6A08C021
:1017400030BD70B500BF32E00120C003064214D0A6
:101750009F48803845684020054205D09F48006872
:10176000401C9E49086070BD802005421FD09C48E7
:101770000068401C9A490860F5E76807400F16D1D9
:101780007404640C002C12D0202C10D8904880389F
:101790004068102188438E4980394860611EC8B274
:1017A000FFF790FF0121601E80008E4A115088488B
:1017B00080380669002EC7D100BFD4E70021002081
:1017C00056E0F322824B803B5A6200291AD1002254
:1017D0009A62854ADA6200221A63C21DF9329200C7
:1017E0000123DB031A437A4B803B5A63C207D20FB3
:1017F00002D17E4A9A6325E07D4A754B803B9A630D
:1018000001211FE07B4A724B803B9A627A4ADA627E
:1018100001221205821892B21A630122120582185F
:10182000120C03239B031A43694B803B5A63C20784
:10183000D20F02D16D4A9A6304E06D4A644B803B3B
:101840009A6300210022624B803BDA63604B403B8D
:101850001A605A609A60421C5D4B803B1A6200BF5E
:101860005B4A803A126A0123DB031A42F8D1401C1A
:101870002028A6D3704710B5044660484068082168
:1018800008435E4948605D48803000680121490492
:1018900008435A49803108604D4880380068C007C5
:1018A000C00F07D14A4880380068012108434849E1
:1018B0008039086005205249086045488038006832
:1018C000402108434249803908604E48C8600020E2
:1018D000886108460068402188433D498039086096
:1018E0000846006840084000086000BF384880385B
:1018F0000068C007C00FF9D1FFF760FF0D2001217C
:101900008140414A116000BF3148803800680E2193
:1019100008432F498039086010BDF0B503460C46D6
:10192000002A01D100BFFEE702CA002C02D0CE007F
:10193000B00800E0084620CA082D00D90825012675
:10194000B60731420ED1860005277F033E43204F64
:10195000803F7E6300263E631F4EF61EFE62002619
:10196000BE620CE0060C07277F033E43184F803F02
:101970007E6386B23E63254EFE621E4EBE622E0719
:10198000360F2327FF013E43114F803FBE6340CAFD
:10199000FE6340CA0E4F403F3E6040CA7E601668FC
:1019A000BE60F7260A4F803F7E62002C02D09E1C4C
:1019B0003E6203E05E1C064F803F3E6200BF044E65
:1019C000803E366A0127FF033E42F8D1F0BD000099
:1019D0008000054008050010FF5F0000880000102F
:1019E0008400001088040010FC1F00008810000014
:1019F00088140000FFFF0000FF9F000000800440EB
:101A0000800105400123000000E100E0FFDF00004D
:101A100070B505466848806B102188436649886325
:101A200066480068012149030843644908600024AE
:101A300004E00020A100624A5050641C082CF8D336
:101A4000604840698F2188435E4948610846406983
:101A5000012108435B4948615A484038C06A8F21D8
:101A6000884358494039C8620846C06A0121084382
:101A700054494039C862534880698F21884351498D
:101A8000886108468069012108434E4988612946DA
:101A90004D48006803F068FA401E00024B490843B5
:101AA0004B49086070BD70B505464348806B1021F6
:101AB000884341498863414800680121490308433C
:101AC0003E490860002404E00020A1003C4A505038
:101AD000641C082CF8D33B484038406B872188436E
:101AE0003849403948630846406B0221084335496C
:101AF000403948633348006887218843314908608A
:101B000008460068022108432E49086029462E48ED
:101B1000006803F029FA401E00022C4908432C49B2
:101B2000086070BD30B50146082900DB0021284857
:101B30000068000A0002264C20602046046801204C
:101B4000884001252D06284304432148046007E00E
:101B500088001F4C00190269D00FC00700D000E0B8
:101B6000F6E700BF1A48006807242406A043184C73
:101B7000206001208007024201D0002030BD100407
:101B8000830D1846FAE71248006807210906084243
:101B900004D00F48006888430D4908600C4800686D
:101BA000FF2108430A49086008460068012109042A
:101BB0000843074908607047008204408080044061
:101BC00008080010804004400800001001002000B8
:101BD00000C0014010B5002203211046FEF74AFD67
:101BE000002204210120FEF745FD002208210120EA
:101BF000FEF740FD002209210120FEF73BFD0022F7
:101C00000A210120FEF736FD00220B210120FEF7FC
:101C100031FD10BD10B508210120FEF722FD00287E
:101C200001D1012010BD09210120FEF71AFD002875
:101C300001D10220F6E70A210120FEF712FD00285B
:101C400001D10320EEE70B210120FEF70AFD002859
:101C500001D10420E6E703210020FEF702FD002861
:101C600001D10520DEE704210120FEF7FAFC00285F
:101C700001D10620D6E70020D4E7000010B50122EC
:101C800009210220FEF7F6FC012209210220FEF7BD
:101C9000DDFC01220A210220FEF7ECFC01220A21D0
:101CA0000220FEF7D3FC01220B210220FEF7E2FC0A
:101CB00010BD70B50446202C01DBFF2403E0E006D4
:101CC000C00E11490C5C002209210220FEF7BEFC67
:101CD000002511E000220A210220FEF7B7FCE207EE
:101CE000D20F0B210220FEF7B1FC641001220A2161
:101CF0000220FEF7ABFC6D1C082DEBD3012209215D
:101D00000220FEF7A3FC70BD90640000002106E0F5
:101D1000002200E0521CFC4B9A42FBDB491C814232
:101D2000F6D37047F0B50446002710E000250AE01E
:101D3000002604E0CB20FFF7E9FF701CC6B20F2E8F
:101D4000F8DB681CC5B2832DF2DB781CC7B2A74252
:101D5000ECDBF0BD10B50446002205210220FEF7A1
:101D600075FC002204210220FEF770FC21460020B1
:101D7000FFF7E0FA012204210220FEF767FC0122AE
:101D800005210220FEF762FC10BD10B504460122B9
:101D900005210220FEF75AFC002204210220FEF752
:101DA00055FC21460020FFF7C5FA0122042102203C
:101DB000FEF74CFC012205210220FEF747FC10BD76
:101DC00070B504462546E117090F491909110901A3
:101DD000611AC8B2FFF7BEFF2546E117090F49197E
:101DE000091108461030FFF7B5FF70BD10B5044665
:101DF0002020FFF7AFFF2046FFF7ACFF10BD70B506
:101E000005460C462120FFF7A5FF2846FFF7A2FF55
:101E10002046FFF79FFF70BD70B505460C46222097
:101E2000FFF798FF2846FFF795FF2046FFF792FF40
:101E300070BD10B50446402121430846FFF78AFFD4
:101E400010BD10B504468120FFF784FF2046FFF740
:101E500081FF10BD10B504468D20FFF77BFF1021D8
:101E600021430846FFF776FF10BD10B50446A021B8
:101E700021430846FFF76EFF10BD10B50446A421AC
:101E800021430846FFF766FF10BD10B50446A621A2
:101E900021430846FFF75EFF10BD10B50446A82099
:101EA000FFF758FF2046FFF755FF10BD10B5044659
:101EB000AE2121430846FFF74DFF10BD10B5044683
:101EC000B02121430846FFF745FF10BD10B5044679
:101ED000C02121430846FFF73DFF10BD10B5044661
:101EE000D320FFF737FF2046FFF734FF10BD10B5B2
:101EF0000446D520FFF72EFF2046FFF72BFF10BD2D
:101F000010B50446D920FFF725FF2046FFF722FF32
:101F100010BD10B50446DA20FFF71CFF0221214353
:101F20000846FFF717FF10BD10B50446DB20FFF78A
:101F300011FF2046FFF70EFF10BD10B5E320FFF79D
:101F400009FF10BD70B50646002410E02046FFF7DB
:101F5000B5FF0020FFF734FF002504E03046FFF70F
:101F600014FF681CC5B2802DF8DB601CC4B2082CBD
:101F7000ECDB70BD70B50646022410E02046FFF78A
:101F80009DFF0020FFF71CFF002504E03046FFF70F
:101F9000FCFE681CC5B2802DF8DB601CC4B2082CA6
:101FA000ECDB70BD10B5A320FFF7D4FE1020FFF7C7
:101FB000D1FE3020FFF7CEFE00240BE03021091BBC
:101FC000C8B2FFF736FF1121091B504A505CFFF7DA
:101FD0009DFE641C112CF1D3002409E02146203120
:101FE000C8B2FFF726FF4A49085DFFF78FFE641C61
:101FF0000E2CF3D36420FFF789FE00240BE02D2183
:10200000091BC8B2FFF715FF0E21091B404A505C9F
:10201000FFF77CFE641C0E2CF1D3002409E021465E
:102020002031C8B2FFF705FF3A49085DFFF76EFEA1
:10203000641C0A2CF3D34620FFF768FE00240BE053
:102040002921091BC8B2FFF7F4FE0A21091B314AF6
:10205000505CFFF75BFE641C0A2CF1D3002409E0FE
:1020600021462031C8B2FFF7E4FE2B49085DFFF797
:102070004DFE641C072CF3D34620FFF747FE0024D7
:102080000BE02621091BC8B2FFF7D3FE0721091B6D
:10209000214A505CFFF73AFE641C072CF1D3002460
:1020A00009E021462031C8B2FFF7C3FE1B49085D95
:1020B000FFF72CFE641C042CF3D34620FFF726FE0A
:1020C00000240BE02321091BC8B2FFF7B2FE042154
:1020D000091B124A505CFFF719FE641C042CF1D353
:1020E000002409E021462031C8B2FFF7A2FE0C49C6
:1020F000085DFFF70BFE641C022CF3D34620FFF7AC
:1021000005FE00241AE00000881300009000001073
:10211000A1000010AF000010BA000010C1000010B4
:10212000C50000102121091BC8B2FFF782FE022161
:10213000091BFE4A505CFFF7E9FD641C022CF1D339
:1021400019204001FFF7E2FD002408E02021091BCF
:10215000C8B2FFF76EFE0220FFF7D8FD641C202CEA
:10216000F4D3002408E03021091BC8B2FFF761FE58
:102170000A20FFF7CBFD641C312CF4D3FF209130F3
:10218000FFF7C4FD10BDF8B505460027022411E095
:102190002046FFF793FE0020FFF712FE002605E021
:1021A000E85DFFF7F2FD7F1C701CC6B2802EF7DBE6
:1021B000601CC4B2082CEBDBF8BD10B50020FFF7A3
:1021C000C1FE10BDFFB581B00D4616461F462C4618
:1021D00015E02046FFF772FE3846FFF7F1FD0020BC
:1021E000009006E00198FFF7D0FD0098401CC0B2B7
:1021F00000900A9900988842F4DB601CC4B2701CFD
:102200008442E6DB05B0F0BD70B5002413E0204643
:10221000FFF754FE0020FFF7D3FD002507E055200F
:10222000FFF7B3FDAA20FFF7B0FD681CC5B2402D33
:10223000F5DB601CC4B2082CE9DB70BD70B5002072
:10224000FFF73CFE0020FFF7BBFD002404E0012067
:10225000FFF79BFD601CC4B2802CF8DB0720FFF762
:102260002DFE0020FFF7ACFD002404E08020FFF7E6
:102270008CFD601CC4B2802CF8DB002411E02046E9
:10228000FFF71CFE002508E02846FFF799FDFF2018
:10229000FFF77BFD28467F30C5B2802DF4DB601C44
:1022A000C4B2082CEBDB70BDFFB581B007460D460C
:1022B000012F02D0022F0BD104E0A80028189C495E
:1022C000441805E0681E810040189A49441800BF70
:1022D00000BF0398FFF7F2FD0498FFF771FD002699
:1022E00005E02078FFF751FD641C701CC6B2052E76
:1022F000F7DB0020FFF749FD05B0F0BDFFB581B069
:1023000007460D461E462C46334660210120039A9F
:10231000FFF7CAFF0CE0217833463846039AFFF7EF
:10232000C3FF641CB01DC6B22078002800D100E0B5
:10233000F1E700BF05B0F0BDFFB583B005460E461E
:1023400017460295344619E02046FFF7B7FD069878
:10235000FFF736FD002001900AE002990878FFF7A8
:1023600014FD0298401C02900198401CC0B20190DC
:102370000C9901988842F0DB601CC4B2781C84423E
:10238000E2DB07B0F0BDFFB581B00D4614460498FE
:10239000203881004018664946180198FFF78EFDE5
:1023A000002D0BD10020FFF70BFD002C03D10020E6
:1023B000FFF7EBFC02E0FF20FFF7E7FC691CC8B267
:1023C000FFF7FEFC00270DE0002C03D13078FFF76B
:1023D000DCFC04E03178C943C8B2FFF7D6FC761CB8
:1023E000781CC7B2052FEFDB002C03D10020FFF7CC
:1023F000CCFC02E0FF20FFF7C8FC05B0F0BDF8B54B
:1024000006460F4614460025082E18DA08E0237801
:102410003A4629463046FFF7B6FFA81D85B2641C30
:102420002078002801D0012000E00020691C89B23A
:10243000802901DA012100E000210842E7D1F8BD3E
:10244000FFB581B015461F46A320FFF783FC029815
:10245000FFF780FC2846FFF77DFC0198002802D09A
:10246000012825D111E000240CE0E0B2FFF7E1FCE7
:10247000002603E0C820FFF749FC761C0A98864234
:10248000F8D3E419AC42F0D312E000240DE0291B8C
:10249000C8B2FFF7CEFC002603E0C820FFF736FCE9
:1024A000761C0A988642F8D3E419AC42EFD300BFF9
:1024B00000BF0020FFF7BDFC05B0F0BDF8B5044635
:1024C0000D4616461F46262121430846FFF742FCCB
:1024D0000020FFF73FFC2846FFF73CFC3846FFF79B
:1024E00039FC3046FFF736FC2F20FFF733FC069807
:1024F000FFF718FCF8BDF8B504460D4616461F4612
:10250000A320FFF727FC3846FFF724FC0698FFF7C7
:1025100021FC21462931C8B2FFF71CFC0020FFF73F
:1025200019FC2846FFF716FC089805E0C5000010C6
:1025300080650000356A0000FFF70CFC3046FFF7AD
:1025400009FC0798FFF706FC2F20FFF703FC09980A
:10255000FFF7E8FBF8BD10B52E20FFF7FBFB10BD21
:1025600010B50120FFF7A2FC00240CE0E0B2FFF759
:1025700068FCC820FFF7CAFBC820FFF7C7FBC820CC
:10258000FFF7C4FB641CD02CF0D310BD10B5D024D1
:102590000DE0611EC8B2FFF754FCC820FFF7B6FB80
:1025A000C820FFF7B3FBC820FFF7B0FB641E002C68
:1025B000EFD10020FFF77AFC10BD10B50446002CC7
:1025C00002D0012C0ED106E00020FFF76FFC0120A5
:1025D000FFF753FC06E00020FFF74FFC0120FFF758
:1025E00065FC00BF00BF10BD0120FFF746FC0BE0FB
:1025F0000120FFF75BFC0220FFF794FB0020FFF7B0
:1026000055FC0220FFF78EFBF2E710B50020FFF724
:102610004DFC8020FFF76BFC3F20FFF73EFC0020C5
:10262000FFF75CFC0020FFF704FC0020FFF712FC22
:102630000220FFF7DBFB0120FFF717FC0820FFF764
:1026400045FC1020FFF765FCCF20FFF7FAFB2220A6
:10265000FFF756FC4020FFF767FC0020FFF70DFC5A
:102660000020FFF712FC0020FFF76CFC0120FFF7B1
:102670001DFC10BD10B5012205210220FDF7FAFF57
:102680000020FFF713FC8020FFF731FC3F20FFF70D
:1026900004FC0020FFF722FC0020FFF7CAFB042007
:1026A000FFF7D8FB0220FFF7A1FB0120FFF7DDFBBE
:1026B0000820FFF70BFC1020FFF72BFCCF20FFF7C3
:1026C000C0FBF120FFF71CFC4020FFF72DFC002091
:1026D000FFF7D3FB0020FFF7D8FB0020FFF732FC09
:1026E0000120FFF7E3FB10BD00B587B05BA207CA6E
:1026F00004AB07C30020FFF725FC30202823052268
:10270000022100905848FFF717FE0520FFF70AFB4B
:10271000FFF73CFF0520FFF705FBFFF721FF052032
:10272000FFF700FB202001234022002100900846F3
:10273000FFF786FE0520FFF7F5FA2020012340224F
:10274000002100901846FFF77BFE0520FFF7EAFA0C
:10275000FFF701FF0520FFF7E5FA01200021202304
:1027600001900093029103900B460A460846FFF73A
:10277000C2FE0520FFF7D6FA012000211F222023E8
:1027800000930192029103900B460A460846FFF718
:10279000B2FE0520FFF7C6FA022000210122202305
:1027A00000930192029103900B4603220846FFF723
:1027B000A2FE0520FFF7B6FA022000211F222023E7
:1027C00000930192029103900B4603220120FFF730
:1027D00092FE0520FFF7A6FA022000210122202305
:1027E00000930192029103900B46072204210120DD
:1027F000FFF781FE0520FFF795FA022000211F2236
:10280000202300930192029103900B46072204219A
:102810000020FFF770FE0520FFF784FAFFF79BFE0C
:102820000520FFF77FFAFF20FFF78CFB0520FFF75D
:1028300079FAFFF7E9FC0520FFF774FA0020FFF7AB
:1028400081FBFFF7FBFC0520FFF76CFA2523032231
:1028500004A90120FFF752FD07B000BD354E4956CF
:102860004953494F4E000000C0640000F3B587B0E3
:102870000020C44908600846076801220521104667
:10288000FDF7F8FE002205210120FDF7DFFE1E20E6
:10289000FDF71CFD012205211046FDF7D7FE0022A1
:1028A00005210120FDF7E6FE002003460246052132
:1028B00000900120FDF738FD05210120FDF713FEF2
:1028C000002410E0E007C00F00231A460521009005
:1028D0000120FDF729FD00BFAA480068B842FBD0DF
:1028E000A8480768641C032CECD300246FE0012087
:1028F00000231A4605210090FDF716FD00BFA148F0
:102900000068B842FBD09F4807689F480068019064
:10291000002003460246052100900120FDF704FD3A
:1029200000BF98480068B842FBD0964807689648B0
:1029300001680198814204D2934901980968461AB6
:1029400005E0914801680198081A90490E1A082C70
:1029500007D26806050E8E48864237D3012005430C
:1029600034E0102C0BD206984006000E06908848E2
:1029700086422BD3012106980843069026E0182CA6
:102980000BD205984006000E0590814886421DD363
:10299000012105980843059018E0202C0BD20498DB
:1029A0004006000E04907A4886420FD30121049815
:1029B000084304900AE003984006000E0390744810
:1029C000864203D30121039808430390641C282CFA
:1029D0008DD3012000231A4605210090FDF7A4FCA9
:1029E00000BF68480068B842FBD007990598087096
:1029F00007990498487008980570089906984870D7
:102A00000295029D06982818C0B202900599029876
:102A10004018C0B20290049902984018C0B20290C7
:102A200003990298884202D1012009B0F0BD00202C
:102A3000FBE730B589B00025FFF7BFFB55A20021A9
:102A40000846FFF7DCFC98E007A908A8FFF70EFF8F
:102A50000446002C3ED008A80078802108420FD000
:102A600008A800784106490E08A801704078009037
:102A700008A803784AA2102102A802F0E1FD09E0AB
:102A800008A84078009008A8037849A2102102A85D
:102A900002F0D6FD02AA00210220FFF7B0FC684632
:102AA000407F00906846037F45A2102102A802F0F3
:102AB000C7FD02AA00210320FFF7A1FC6846407F62
:102AC00000906846037F08A84278017840A002F091
:102AD000A7FD02E045A002F0A3FD08A80078322877
:102AE0000FDD002D0DD1012202210020FDF7AEFDEA
:102AF00040A200210720FFF782FC44A002F090FDD5
:102B0000012508A800782D280FDA002D0DD000220D
:102B100002211046FDF79AFD42A200210720FFF78F
:102B20006EFC46A002F07CFD0025C820FDF7CEFB20
:102B3000FFF770F8062800D120E0C820FDF7C6FB9B
:102B4000FFF768F8062800D118E0C820FDF7BEFBA3
:102B5000FFF760F8062800D110E0C820FDF7B6FBAB
:102B6000FFF758F8062800D108E0C820FDF7AEFBB3
:102B7000FFF750F8062800D100E065E700BF09B074
:102B800030BD0000340400103C04001080BB000085
:102B90001809000054656D7020262048756D0000EE
:102BA00054656D703A202D25642E25642020000088
:102BB00054656D703A2025642E25642020000000A5
:102BC00048756D3A202025642E25642020000000E1
:102BD0000D0A54656D703A2025642E25642020204E
:102BE00048756D3A202025642E2564000D0A666123
:102BF000696C000054656D703E35302C2054757240
:102C00006E206F6E2046414E000000000D0A546594
:102C10006D703E35302C205475726E206F6E2046DC
:102C2000414E000054656D703C34352C2054757253
:102C30006E206F66662046414E0000000D0A546506
:102C40006D703C34352C205475726E206F66662092
:102C500046414E0008B500210091012269468820B6
:102C6000FEF704FD012269468820FEF7E9FC68466C
:102C7000007808BD08B5012100910122694688202D
:102C8000FEF7F4FC012269468820FEF7D9FC68466D
:102C9000007808BD704708B50021684601708021A2
:102CA0004170022269468820FEF7E0FCAF48B04937
:102CB000086001200004AF49086008BD38B5002451
:102CC00004210091012269468820FEF7CFFC0122F1
:102CD00069468820FEF7B4FC684604780521009117
:102CE000012269468820FEF7C1FC0122694688203E
:102CF000FEF7A6FC68460078000204439C48006882
:102D000044439C480168204602F02EF904462046C0
:102D100038BD38B50546FFF79DFF04460C21204617
:102D200088430446A8002043C4B2002168460170CD
:102D30004470022269468820FEF798FC38BD38B5F9
:102D40000446FFF787FF0546AD08AD00284620433F
:102D500005460021684601704570022269468820B8
:102D6000FEF784FC002C06D0012C09D0022C0CD0DC
:102D7000032C13D10EE0012000047E4908600DE011
:102D8000012000037B49086008E0FF2001307949F9
:102D9000086003E010207749086000BF00BF38BD1D
:102DA00038B50446FFF766FF05460C2128468843E0
:102DB0000546A0002843C5B2012168460170457050
:102DC000022269468820FEF751FC002C06D0012C17
:102DD00008D0022C0AD0032C10D10BE063486449C0
:102DE00008600BE064486249086007E06348604996
:102DF000086003E062485E49086000BF00BF38BD5C
:102E000038B5044600255B490968614308465849BE
:102E1000096802F0A9F805460221684601702804F5
:102E2000010E68464170022269468820FEF71EFCAA
:102E300038BD38B5044600254E4909686143084647
:102E40004B49096802F090F8054603216846017075
:102E50002804010E68464170022269468820FEF768
:102E600005FC38BD38B50546FFF704FF04462021B0
:102E700020468843044620462843044601216846EC
:102E800001704470022269468820FEF7EFFB38BDCE
:102E900010B5FFF7EFFE044620202040400910BD8A
:102EA00038B5FFF7E7FE0446202120468843044654
:102EB0004121684601704470022269468820FEF76D
:102EC000D5FB38BD38B5FFF7C5FE04468021204646
:102ED0008843044600216846017044700222694616
:102EE0008820FEF7C3FB40200443002168460170A0
:102EF0004470022269468820FEF7B8FB38BD10B541
:102F000086B0FFF75AF91FA200210846FFF777FAAB
:102F100000210120FEF73BFBFFF7BCFEFFF7BBFEE5
:102F20000120FFF73DFF19A002F07AFB1AE0FFF73E
:102F3000C5FE0446234616A21421684602F080FB13
:102F40006A4600210220FFF75AFA214612A002F039
:102F500067FBFF202D30FDF7B9F9FEF75BFE062871
:102F600000D100E0E3E700BF06B010BDCD030000D4
:102F7000C8000010CC000010340F0000D03C00004E
:102F800040F300004C696768740000000D0A0000FF
:102F9000256420202020000025642020000000005F
:102FA00008B509210091012269463A20FEF75EFB2F
:102FB000012269463A20FEF743FB6846007808BDC7
:102FC00008B516210091012269463A20FEF74EFB12
:102FD000012269463A20FEF733FB6846007808BDB7
:102FE00038B50446162168460170447002226946CD
:102FF0003A20FEF73BFB38BD10B50520FFF7F0FF88
:1030000010BDF8B504460D46164600BFFFF7C8FFD1
:10301000C007C00FFAD006210091012269463A206C
:10302000FEF724FB012269463A20FEF709FB6846B9
:10303000007840B2207007210091012269463A20B1
:10304000FEF714FB012269463A20FEF7F9FA6846BA
:10305000007840B2287008210091012269463A2088
:10306000FEF704FB012269463A20FEF7E9FA6846BA
:10307000007840B23070F8BD70B506460C46154673
:1030800000210120FEF783FAFFF7B6FF69480078B8
:10309000012817D12A4621463046FFF7B2FF307883
:1030A00065490978401840B2307020786349097842
:1030B000401840B22070287861490978401840B221
:1030C000287070BD2A4621463046FFF79AFF3078B7
:1030D000404240B2584908702078404240B25749B7
:1030E00008702878404240B2554908700120514983
:1030F000087000BFE5E770B505460024FFF760FFE4
:1031000004460C21204688430446A8002043C4B24C
:103110002046FFF765FF70BD70B505460024FFF738
:103120004FFF0446A408A400204628430446204636
:10313000FFF756FF70BD70B58AB000240025002649
:103140000021039102910191FFF737F83DA2002180
:103150000846FFF754F900210120FEF718FAFFF79F
:103160004BFF01AA02A903A8FFF74BFF68460C21F9
:1031700041564C42082141564D42042141564E428F
:1031800054E001AA02A903A8FFF73BFF6846007BB1
:10319000001941B203916846007A401941B2029188
:1031A00068460079801941B2019168460C23C356E4
:1031B00026A2142104A802F043FA04AA0021022046
:1031C000FFF71DF968460C21415623A002F028FAAA
:1031D00068460823C35624A2142104A802F030FA3A
:1031E00004AA00210320FFF70AF968460821415686
:1031F00020A002F015FA68460423C35621A2142128
:1032000004A802F01DFA04AA00210420FFF7F7F831
:103210006846042141561EA002F002FAFA20FDF78A
:1032200055F8FEF7F7FC062800D100E0A9E700BF3B
:103230000AB070BDD3000010D0000010D100001003
:10324000D2000010417869732D3300004163632080
:10325000783A2025642020000D0A41636320783AE3
:103260002025642C2020000041636320793A20252A
:103270006420200041636320793A2025642C2020BB
:1032800000000000416363207A3A2025642020007A
:10329000416363207A3A2025642E200010B5014650
:1032A0000C78641EE2B2002305E0CC5CAA2C01D1AC
:1032B000541CE2B25B1C0C789C42F6D8087803E000
:1032C0008C5C6040541EE2B2002AF9D110BDF3B507
:1032D00081B00D46802208210020FDF77CFF0120EF
:1032E000FCF7F4FF002207210220FDF7AFF9019857
:1032F000FFF7D4FF0090AA210020FEF71BF8012061
:10330000FCF7E4FF0024BB210020FEF713F8C2B253
:103310002046641C2A540120FCF7D8FF00270AE04D
:103320000198C15D0020FEF705F82855641C0120B6
:10333000FCF7CCFF7F1C01980078B842F0D8002041
:103340000099FDF7F7FF2855641CFF20F530FCF7C6
:10335000BDFF0120287000210846FDF7EBFF01208A
:10336000FCF7B4FF00210846FDF7E4FFAA2806D0C9
:10337000022208210020FDF72EFF0020FEBD0120C3
:10338000FCF7A4FF00210846FDF7D4FFBB2806D0B8
:10339000022208210020FDF71EFF0020EEE7012099
:1033A000FCF794FF01984078012806D0202806D029
:1033B000212806D0222808D105E00B2607E00726A1
:1033C00005E0132603E0032601E0072600BF00BF47
:1033D0000027002409E000210846FDF7ABFF28552F
:1033E0000120FCF773FF7F1C641CB742F3D301225A
:1033F00007210220FDF72AF90120FCF767FF0222CE
:1034000008210020FDF7E7FEE0B2B7E770B50446FB
:103410000D46002211460220FDF718F9E80080222F
:1034200010436200104301460120FDF783FF002195
:103430000120FDF77FFFC6B2012200210220FDF727
:1034400005F9304670BD10B502210020FFF7DEFF00
:103450000446A406A40E042C13D100210846FFF74D
:10346000D5FFF849F84A12888854F7480088401C6C
:10347000F549088008460088802807DB002008807E
:1034800004E000210846FFF7C1FF044602210120A5
:10349000FFF7BCFF0446A406A40E042C13D10021A0
:1034A0000120FFF7B3FFE949E94A12888854E84848
:1034B0000088401CE649088008460088802807DB11
:1034C0000020088004E000210120FFF79FFF044650
:1034D00010BD70B504460D46164600221146022066
:1034E000FDF7B4F8E8006200104301460120FDF743
:1034F00021FF31460120FDF71DFF0122002102209E
:10350000FDF7A4F870BDF8B505460E46BF220321AD
:103510002846FFF7DEFF02212846FFF777FF044623
:10352000204610210843024602212846FFF7D1FF1A
:10353000032211462846FFF7CCFF01212846FFF75A
:1035400065FF044620461021884302460121284693
:10355000FFF7BFFF04212846FFF758FF0446204627
:1035600080218843024604212846FFF7B2FF8322C8
:1035700003212846FFF7ADFF3146E120000301F0AB
:10358000F3FC84B2E2B200212846FFF7A2FF221228
:1035900001212846FFF79DFF032211462846FFF729
:1035A00098FF00212846FFF731FF0022032108463B
:1035B000FDF760F80020034602460321009008460C
:1035C000FCF7B2FE03210846FCF78DFF01221146ED
:1035D0002846FFF77EFF00212846FFF717FFF8BDBA
:1035E00070B505460C4600BF05212846FFF70EFFC3
:1035F00020210842F8D0224600212846FFF769FF23
:1036000070BD10B5044621460020FFF7E9FF10BD4C
:1036100010B5044604E021780020FFF7E1FF641CA8
:1036200020780028F7D110BD10B5044621460120AE
:10363000FFF7D6FF10BD10B5044604E02178012045
:10364000FFF7CEFF641C20780028F7D110BD02469A
:10365000002A17D17F4800887B4B1B88984229D0CD
:1036600078487C4B1B88C05C08707A480088401CF6
:10367000784B188018460088802801DB00201880CD
:103680000120704774480088714B1B88984211D004
:103690006E48714B1B88C05C08706F480088401CE6
:1036A0006D4B188018460088802801DB00201880A8
:1036B0000120E6E70020E4E710B50446214600209B
:1036C000FFF7C5FF10BD10B5044621460120FFF7E6
:1036D000BEFF10BD70B5C6B00120FDF785FC02220B
:1036E00008210120FDF777FDE12149020120FFF7C4
:1036F0000AFF032120A801820121418257A02590C1
:1037000058A026905DA124A8C16061A10161782222
:1037100028A9684601F064FC24A80FC801F046F807
:103720000026FA20FCF7D2FD17E11FA8FDF7D2F81A
:10373000002803D018A8007FFFF776FF1FA8FFF727
:10374000C2FF002867D018A8007FFDF79BF818A8D3
:10375000037F002231460720FEF715FEB01D86B21A
:10376000782E00DD0026002404E020A9601C085CFF
:103770000855641C072CF8D318A8007F20A9085509
:1037800020A80078462821D120A8407841281DD1C2
:1037900020A880784E2819D120A8C078202815D1DB
:1037A00020A800794F2811D120A840796E280DD18A
:1037B00020A88079202809D120A8C079202805D107
:1037C000012202210020FCF741FF24E020A800781C
:1037D000462820D120A8407841281CD120A88078F4
:1037E0004E2818D120A8C078202814D120A800790C
:1037F0004F2810D120A8407966280CD120A88079C4
:10380000662808D120A8C079202804D100220221EE
:103810001046FCF71BFFFEF7FDF90546012D06D00B
:10382000022D4FD0052D67D0062D6ED186E020A841
:10383000408A012838DD20A8408A401E81B220A895
:10384000418234E028080010D4000010A8080010BD
:10385000D8000010D6000010DA0000105A69674244
:1038600065650000312E53656E642048656C6C6F91
:10387000205A69674265652100000000322E5475A8
:10388000726E206F6E206F746865722046414E0024
:10389000332E5475726E206F6666206F7468657281
:1038A0002046414E0000000020A8018A4182782273
:1038B00028A9684601F094FB24A80FC800F076FF01
:1038C000002640E020A8418A008A814206DA20A82A
:1038D000408A401C81B220A8418202E0012020A938
:1038E0004882782228A9684601F07AFB24A80FC8EC
:1038F00000F05CFF002626E020A8408A012805D0C1
:1039000002280AD0032816D10EE01BE073A0FFF7AF
:1039100092FE76A001F084FE0EE07AA0FFF78BFE07
:103920007BA001F07DFE07E07DA0FFF784FE7FA075
:1039300001F076FE00E000BF00BF04E0002020A9F7
:10394000488200E000BF00BF002D06D020A8408ABA
:10395000002802D0FA20FCF7B9FC20A8408A0028F1
:1039600000D0E2E646B070BD30B5C1B00120FDF731
:103970003BFB022208210120FDF72DFCE121490239
:103980000020FFF7C0FD032110A881870121C18716
:103990006AA020906BA0219070491FA8C1601431CB
:1039A0000161782223A9684601F01AFB1FA80FC8FD
:1039B00000F0FCFE0025FA20FCF788FC86E01EA83B
:1039C000FCF788FF002807D018A8007EFFF719FE33
:1039D00018A8007EFCF756FF1EA8FFF76DFE002812
:1039E0000FD018A8037E002229460720FEF7CBFC43
:1039F000A81D85B2782D00DD002518A8007EFCF7F3
:103A000041FFFEF707F90446012C06D0022C1DD019
:103A1000052C35D0062C4ED149E010A8C08F0128C6
:103A200006DD10A8C08F401E81B210A8C18702E039
:103A300010A8818FC187782223A9684601F0D0FAA7
:103A40001FA80FC800F0B2FE002535E010A8C18FF6
:103A5000808F814206DA10A8C08F401C81B210A866
:103A6000C18702E0012010A9C887782223A96846EF
:103A700001F0B6FA1FA80FC800F098FE00251BE061
:103A800010A8C08F012802D002280DD106E034A072
:103A9000FFF7BEFD36A001F0C3FD06E03AA200210B
:103AA0000720FEF7ACFC00E000BF00BF04E00020F0
:103AB00010A9C88700E000BF00BF002C06D010A8E6
:103AC000C08F002802D0FA20FCF700FC10A8C08F9D
:103AD000002800D073E741B030BD000048656C6C31
:103AE0006F205A69674265652120000053656E6446
:103AF0003A2048656C6C6F205A69674265652120E1
:103B00000000000046414E204F6E202000000000C3
:103B100053656E643A2046414E204F6E20200000CF
:103B200046414E204F6666200000000053656E64DB
:103B30003A2046414E204F666620000052532D34F5
:103B400038350000312E53656E642048656C6C6F0B
:103B50002052532D34383521000000007C380000FD
:103B600048656C6C6F2052532D343835212000008D
:103B700053656E643A2048656C6C6F2052532D3447
:103B80003835212000000000202020202020202087
:103B90002020202020202020202020202000000085
:103BA00010B50120FE490870C820FCF78FFB0020EB
:103BB000FB49087000F0BCFE10BD10B5F948006864
:103BC000401CF8490860F8480068401CF649086045
:103BD000F3480078012802D100F0AAFE02E000209C
:103BE00000F0A6FEF0480068642802D30020EE49E9
:103BF0000860EC4800680146FF39F5390FD1002212
:103C000001210320FCF722FDE8480068401CE74939
:103C10000860E7480068401CE54908600DE0E1489D
:103C200000687D21C900884207D301221146032084
:103C3000FCF70CFD0020DB49086010BD70B58EB0AC
:103C4000142109A801F0E5F900200790089000244C
:103C50007225492609A801F0C5F808A800790128AD
:103C600009D108A84079FF2803D008A84079002886
:103C700001D10EB070BDFFF793FFC820FCF726FB03
:103C8000CC480021016041608160002409E009A85E
:103C9000015DC848401C0155015DC7A001F0C0FC92
:103CA000641C062CF3D3C5A001F0BAFC08A8417A25
:103CB000027AC3798079019302920391009008A857
:103CC00043790279BEA107A801F0D0FC042108A81D
:103CD00081720521C1727321684601757421417595
:103CE0003A218175C575BE480178684601764676E9
:103CF00008A8817A6846817608A8C17A6846C176A4
:103D0000B848069A059906C00821083800F08FFEC9
:103D100000BFAEE7632303708170427070470246B4
:103D2000002107E0B048405C904201D1012070477B
:103D3000481CC1B26429F5DB0020F8E7F0B585B076
:103D4000AA480190062001F042F9002403E0FF2177
:103D500001980155641C032000028442F7DB01989E
:103D6000FEF711FAAF208000FCF7B0FA00273C46BE
:103D7000002404E09E48015D01980155641C032065
:103D800000028442F6DB9A48FEF7FDF9AF2080007E
:103D9000FCF79CFA022001F01AF9002734E001F048
:103DA0000DF93021009001F0F5F8CEB2202E01DCA3
:103DB000012E00DA28E03046FFF7B1FF002800D0DE
:103DC00022E07007400F0390F010029000240EE0F4
:103DD0000298C00186494018005D012203998A407B
:103DE00090430299C901824A89180855641C802CA5
:103DF000EEDB38467F1C7C490E547D48FEF7C3F944
:103E00001420FCF763FA00BF202FC8D1FF205F30D9
:103E1000FCF75CFA052001F0DAF800272BE001F04E
:103E2000CDF80090C017410E00980818C011C101CC
:103E30000098401AC5B26E2D01DC0F2D00DA1AE091
:103E40002846FFF76CFF002800D014E0002408E0AB
:103E5000E00166494018405DE101654A891848550E
:103E6000641C062CF4DB38467F1C5F490D54604807
:103E7000FEF789F900BF5F2FD1DB05B0F0BD38B583
:103E8000612000906C465BA200210120FEF7B7FA8A
:103E90002BE012E05D48007800280DD10022AA2115
:103EA0005B48FFF737FF0321594800F0C0FD7D2034
:103EB0000001FCF70BFA00E000E0EBE700BF06E0D2
:103EC00000205249087053480068FFF7FCFB4F4838
:103ED00000780128F4D04F4800680078592804D1B0
:103EE0000121204600F0A3FD00E0D2E700BFFEF76D
:103EF00064F949A200210320FEF781FA7D20C00069
:103F0000FCF7E4F9002038BDF0B5ADB0054600245B
:103F10000020109000260F9000270E900D900C901E
:103F20002C46414800784B2802D1002000F077FF52
:103F30003E480078012806D1002000F070FF0421DF
:103F40000120FCF7D0FA39480078022805D1012079
:103F500000F065FF0020354908701448006800280B
:103F60006CD000201149086011AB12AA13A91C489B
:103F70000095007800F007FD284601F055F8052867
:103F80007ED91821284600F052FD202124A801F0F6
:103F900040F827A200210846FEF731FA10A84EE0AB
:103FA000F1000010F4030010F8030010E00000100E
:103FB000E400001028090010256420000A00000019
:103FC000253032782025303278202530327820256F
:103FD00030327820253032782025303278000000C9
:103FE000DD000010FC030010540C001054090010F8
:103FF000F2000010636F6E6E65637420746F206151
:10400000382E2E2E2E2E2020000000003804001006
:1040100007040010EC000010636F6E6E656374207F
:104020006973206F6B210000050400103904001033
:1040300073746F72616765206F6E6500A0E1407BED
:10404000009010A8037BF8A2102124A801F0F8FA30
:10405000F9A200210220FEF7D2F924AA00210220B1
:10406000FEF7CDF910A8407A009010A8037AF8A2C4
:10407000102124A801F0E4FA24AA0021032000E082
:10408000E0E0FEF7BCF9F6A2142124A8119B01F090
:10409000D7FA24AA00210420FEF7B1F9F4480068F9
:1040A0001E2802D30120F3490870F2480078012845
:1040B0007ED1F1A3F1A2102114A801F0C1FA10A839
:1040C000007B0A2803DB10A8007B32282EDD0120AC
:1040D0000D904B20ED490870002000F0A0FEEB4849
:1040E0000378EBA2202124A801F0AAFA10A8007BF3
:1040F00032281BDD0020FCF7B5FCFF20F530E94934
:10410000086008460068322809DCE7A3E7A210210E
:1041100024A801F095FA0020FCF7AEFC06E0E14887
:10412000E6A21021036824A801F08AFA10A8007BF7
:104130000A282EDB10A8007B32282ADC00200D90F4
:1041400010A8007B322824DC0020FCF795FC01221B
:1041500002210020FCF78EFA012202210020FCF748
:1041600075FA3220CF49086008460068322809DC19
:10417000CDA3D6A2102124A801F062FA0020FCF7FA
:104180007BFC06E0C748CDA21021036824A801F0FB
:1041900057FA10A8007A0A2803DB10A8007A322800
:1041A0000CDD01200C90CD490870B848037800E080
:1041B00049E0B7A2202124A801F042FA10A8007A11
:1041C0000A2805DB10A8007A322801DC00200C90B8
:1041D00011980A2804D3FF21F531119888420ED98D
:1041E00001200E904B20A9490870002000F033FEFA
:1041F000A6480378A6A2202124A801F021FA11984C
:104200000A2806D3FF21F5311198884201D80020F1
:104210000E900C990D9841180E980818B04900227C
:104220008A56801812D147209849087001221146F9
:104230001046FCF70BFA9548037895A2202124A894
:1042400001F0FEF902E00020A54908700B2020567D
:104250000A216156092300910190E356A1A214217D
:104260001CA801F0EDF91CAA00210720FEF7C7F8F1
:10427000206901F073F8A14AA14B0791069000F064
:104280008DFF00229F4B0991089000F0EFFF0B91EA
:104290000A9001F071F80646304601F05FF8079188
:1042A0000690206901F05AF8944A954B01910090CC
:1042B00000F074FF0022934B0391029000F0D6FFB0
:1042C00005910490079B069A00F059FF00228E4B3F
:1042D0000991089000F062FF0B910A9001F04CF8F0
:1042E0001090606901F03AF8844A854B0791069076
:1042F00000F054FF0022834B0991089000F0B6FFB4
:104300000B910A9001F038F80746384601F026F87C
:1043100007910690606901F021F8784A784B019185
:10432000009000F03BFF0022764B0391029000F0DA
:104330009DFF05910490079B069A00F020FF002244
:10434000714B0991089000F029FF0B910A9001F040
:1043500013F80F9032466DA124A8109B01F086F946
:1043600024AA00210520FEF74AF83A466AA124A8AB
:104370000F9B01F07BF924AA00210620FEF73FF8ED
:104380002DB0F0BD00B589B066480078012842D153
:1043900000206449087064480068FFF794F9002819
:1043A0003AD0614800680078C02108405F49097828
:1043B0008901884230D100202D4908602D480078BD
:1043C00001280ED138A32DA2102104A801F038F93C
:1043D0000020002802D0012000F03DFD00202549EA
:1043E00008705148006800783021084006D0102835
:1043F00013D0202812D0302811D14FE14A4800684C
:1044000000780007000F0BD001280AD0022809D03D
:10441000032808D1CAE07CE177E1DBE014E15BE14D
:1044200086E0A0E0B1E0D2E054656D703A202564EA
:104430002E25642020000000202020202020202085
:1044400020202020202020202020202020200000AC
:104450002048756D3A2025642E2564202000000038
:104460004C696768743A2564202020200000000011
:10447000E4000010E90000104F4E00004155544F79
:10448000203A202025732020202000000504001061
:104490004245455020535441545553203A202563FA
:1044A000000000003C0000104F46460046414E20F0
:1044B0003A202573202020200000000046414E2095
:1044C0003A202025642020202000000046414E2074
:1044D0003A2020257320202020000000F100001049
:1044E000EA000010783A252D33642020793A252DF2
:1044F000336420207A3A252D33642000CDCCCCCCF7
:10450000CCCC0C4000009040000059404241543A4D
:1045100025642E25645620004144433A25642E2507
:104520006456000038040010EC000010DD0000109C
:10453000854A00210120FDF762FF84A200210120AD
:10454000FDF75DFF0020FCF797FA01220221002011
:10455000FCF790F8012202210020FCF777F80A20EE
:104560007C49086034E0784A00210120FDF747FFCC
:1045700079A200210120FDF742FF0020FCF772FA2A
:10458000FF20F5307349086022E06F4A00210120C6
:10459000FDF735FF72A200210120FDF730FF00205A
:1045A000FCF760FAFA206B49086011E0664A0021C6
:1045B0000120FDF724FF6CA200210120FDF71FFF61
:1045C0000020FCF74FFA64206249086000E000BF59
:1045D00000BF82E06648006800780007000F06D040
:1045E000012815D0022828D003282AD121E0564AD4
:1045F00000210120FDF703FF5EA200210120FDF74D
:10460000FEFE47205E49087000205E49087019E0F0
:104610004D4A00210120FDF7F2FE5BA2002101209E
:10462000FDF7EDFE4B2056490870012055490870F2
:1046300008E001205749087004E0472050490870FD
:1046400000E000BF00BF48E049480068007800076C
:10465000000F10D001281ED13B4A0021FDF7CFFEEC
:104660004DA200210120FDF7CAFE002211460320C1
:10467000FBF7ECFF10E0344A00210120FDF7BFFEFC
:1046800047A200210120FDF7BAFE012200210320EC
:10469000FBF7DCFF00E000BF00BF1EE0344800680D
:1046A00000780007000F0F2801D1012000E0002052
:1046B000002802D001280CD107E02D4909680978AB
:1046C0000807000FFDF7F5FA04E02020FDF7F1FAE6
:1046D00000E000BF00BF00E000BF00BF1D48006851
:1046E00032280ADC1AA3184A94321021684600F0D6
:1046F000A7FF0020FCF7C0F907E01648124A8432F1
:1047000010210368684600F09BFF03210846FBF771
:10471000EAFE09B000BD86B000202349086000F021
:10472000CCF9FFF73DFAFFF709FBFFF7A8FBFFF70E
:1047300037FAFDF742FD06E06846FFF7E5FBFFF7B5
:104740007DFAFFF71FFEF7E73844000046414E5F51
:104750004F4646003C00001046414E5F4F4E310030
:1047600046414E5F4F4E320046414E5F4F4E330042
:10477000EC000010535045414B45525F4F464600F8
:1047800005040010F1000010535045414B45525FA5
:104790004F4E0000E90000104C45445F4F4E0000B2
:1047A0004C45445F4F464600E40000100FB470B51E
:1047B0006946498A481E062100F0ECFB85B2681C58
:1047C0000621484384B26946088AA04201DD0526D5
:1047D00006E06946098A481E062100F0DBFB8EB21E
:1047E000FDF7EBFC00210846059AFDF708FE502373
:1047F000002266211046FDF7C6FD672300226C21CA
:104800001046FDF7C0FD2023002272211046FDF75F
:10481000BAFD28463130C3B2002278211046FDF798
:10482000B2FD002420E06846418A06206843001952
:10483000401C81420BD10621694309198B0006A94E
:10484000CA58A11CC8B20121FDF7D9FD0AE0062112
:10485000694309198B0006A9CA58A11CC8B20021D6
:10486000FDF7CDFD601C84B2B442DCDD70BC08BC39
:1048700004B0184710B527480068401C2549086057
:1048800001210020FBF787FE0446002C08D02248B7
:104890000068401C2049086001210020FBF7AAFEA7
:1048A00010BD10B504210120FBF775FE00280CD0C7
:1048B00004210120FBF743FE18480078401C1749EB
:1048C000087004210120FBF795FE05210120FBF76C
:1048D00062FE00280CD01248806912490860124814
:1048E0000068401C1049086005210120FBF782FE8A
:1048F00010BD10B503210846FBF74DFE002808D077
:1049000001200A490870FEF79EFD03210846FBF7C7
:1049100071FE10BD140400101804001039040010BA
:1049200000E000E03C0400103404001038040010E3
:1049300010B50446002C0ED0012C10D17F2009495F
:10494000C8600122084801681046FCF74AF90120B6
:10495000FCF788F803E00120FCF78EF800BF00BFE9
:1049600010BD0000008001404004001070B50446F6
:104970000D4629462046FDF779FFC0B270BD10B53F
:10498000FEF79CF910BDF0B58DB007460C461546F4
:104990001E4600200C9065200B9000200A90099084
:1049A000002108910791069129462046FFF7DEFF76
:1049B0000C90FFF7E4FF306006AA07A908A8FEF7ED
:1049C0005BFB0320FDF7AEF80A900020FDF7AAF884
:1049D00009900C98002828D0732168460170742132
:1049E00041703A2181700B99C17007712178417132
:1049F000617881712978C17169780172306803909A
:104A000008A800214156684641721C214156817216
:104A100018214156C1720A980490099805901822ED
:104A20006946129800F0DCFA00BF0DB0F0BD70B519
:104A300005460E46002400BF04E0285DFEF7F4FDA5
:104A4000601CC4B2B442F8DB70BD000010B5002891
:104A500019DA854A03071B0F083B9B089B00D258B5
:104A60008307DC0EFF23A3409A434B071B0E8407EA
:104A7000E40EA3401A437C4B0407240F083CA4080F
:104A8000A4001A5118E0794A03231B02D2188308A4
:104A90009B00D2588307DC0EFF23A3409A434B07A9
:104AA0001B0E8407E40EA3401A43704B0324240218
:104AB0001B198408A4001A5110BD38B5FBF75CFB24
:104AC000FBF71EFC0320FBF7A1FB694C69488442FD
:104AD00000D90FE02002000A401E67494861072103
:104AE0000020C043FFF7B2FF002063498861072020
:104AF000086100BF61480069C008C0005F490861E3
:104B000008460069012108435C490861012200212F
:104B10000320FBF7AFFD012200210320FBF796FDE8
:104B2000012211460320FBF7A5FD012211460320B7
:104B3000FBF78CFD012202210020FBF79BFD0122E7
:104B400002210020FBF782FD4C484030C06BC008BA
:104B5000C0004A494031C8630846C06B0121084380
:104B600046494031C863012211461046FBF782FDD9
:104B7000012211461046FBF769FDFDF77FF8202062
:104B8000FDF797F8FDF726F80020FCF72DFA022232
:104B900008210020FCF71FFBFDF76CFDE12040021F
:104BA000FBF7FEFD002211460320FBF74FFD00221C
:104BB00001210320FBF74AFDC820FBF787FB0122F8
:104BC00000210320FBF742FD012211460320FBF7E1
:104BD0003DFD002208210220FBF74CFD01220821A7
:104BE0000220FBF733FD002003460246042100901B
:104BF0000120FBF799FB04210120FBF774FC002046
:104C0000FCF7F2F9022208210020FCF7E4FA012067
:104C1000FCF7EAF9022208210120FCF7DCFAE12185
:104C200049020120FEF76FFCFDF724FD1448FCF754
:104C30003AFF00210120FCF7AAFCFEF7DDF9FEF7A0
:104C400029F8FEF728F80120FEF7AAF84B21890180
:104C50000020FBF72CFF02211220FFF7F7FE0121B5
:104C6000881EFFF7F3FE38BD1CED00E000E100E018
:104C700080BB0000FFFFFF0000E000E000400440B8
:104C8000009F240010B5802208210020FCF7A3FA21
:104C90000120FBF71BFB002208210220FBF7EAFCA6
:104CA00010BDFEB505460F466420FBF70FFB002242
:104CB00007210220FBF7CAFC3846FEF7EFFA019005
:104CC000AA210020FCF736FB0120FBF7FFFA0024A5
:104CD000BB210020FCF72EFBC2B22046641C2A54E4
:104CE0000120FBF7F3FA002000900EE00098395CF9
:104CF0000020FCF71FFBC2B22046641C2A5401208E
:104D0000FBF7E4FA0098401C009039780098814243
:104D1000ECD800200199FCF70DFB2855641C0220FB
:104D2000FBF7D4FA0120287000210846FCF702FBAB
:104D30000120FBF7CBFA00210846FCF7FBFAAA2872
:104D400006D0022208210020FCF745FA0020FEBD13
:104D50000120FBF7BBFA00210846FCF7EBFABB2861
:104D600006D0022208210020FCF735FA0020EEE7E9
:104D70000120FBF7ABFA7878012806D0202806D06E
:104D8000212806D0222808D105E00B2607E00726B7
:104D900005E0132603E0032601E0072600BF00BF5D
:104DA0000020009000240BE000210846FCF7C2FA26
:104DB00028550120FBF78AFA0098401C0090641CDB
:104DC0000098B042F0D3012207210220FBF73EFCFD
:104DD0000120FBF77BFA022208210020FCF7FBF9F7
:104DE000E0B2B4E710B50446FFF74CFF5149204646
:104DF000FFF757FF10BD10B500210DE0002207E0BE
:104E0000002301E05C1CE3B28342FBDB541CE2B2F2
:104E10000A2AF5DB4C1CE1B20A29EFDB10BD10B504
:104E200004464548C06BC008C000401C4249C863E6
:104E3000012211461046FBF71DFC224601210846BF
:104E4000FBF704FC6420FFF7D6FF01221146104651
:104E5000FBF7FCFB10BD10B504463748C06BC0081B
:104E6000C000401C3449C863012211461046FBF7BC
:104E700001FC224601210846FBF7E8FB10BD10B5F6
:104E800004462D4840380069C008C0002A4940390E
:104E9000C861012202210020FBF7ECFB224602211F
:104EA0000020FBF7D3FBC820FBF710FA01220221F8
:104EB0000020FBF7CBFB10BDFEB506460F46002ECB
:104EC0000AD11EA200210620FDF799FA21A2002195
:104ED0000720FDF794FAFEBD0025002425E06C2C88
:104EE0001DDC7B5D1DA20421684600F0A9FB68461D
:104EF0000378A1B200220620FDF745FAA41D6846FA
:104F00004378A1B200220620FDF73DFAA41D6846B1
:104F10008378A1B200220620FDF735FAA41D11A264
:104F200000210720FDF76BFA6D1CB542D7DB00BFEF
:104F3000D1E700005C6C00004040044020202020AD
:104F40002020202020202020202020202020202061
:104F5000200000004661696C0000000025303258D6
:104F6000200000004F4B000030B50B4601460020EA
:104F70002022012409E00D46D5409D4205D31D465F
:104F80009540491B2546954040191546521E002D57
:104F9000F1DC30BD70B500242546002801DA01247B
:104FA0004042002901DA01254942FFF7DDFFAC420A
:104FB00000D04042002C00D0494270BD0549064A4D
:104FC00008685043054A8018086040087047014946
:104FD00008607047440400106D4EC641393000002F
:104FE00003460B439B0703D009E008C9121F08C002
:104FF000042AFAD203E00B78491C0370401C521EAD
:10500000F9D27047D2B201E00270401C491EFBD2B7
:1050100070470022F6E710B513460A4604461946C3
:10502000FFF7F0FF204610BD0146002000E0401CC5
:105030000A5C002AFBD17047F0B507460846584085
:1050400087B0C00F049048000E4659004008490838
:10505000BC1A884105D2384631461E4617460B46D3
:10506000024658004008104303D13846314607B085
:10507000F0BD300D039040055900400D490D0590DD
:10508000401A029040286DDA18030121000B09052F
:105090000843019004980092002805D001995242DB
:1050A0000020884100920190029840210A1A01993B
:1050B000009800F0AFF905460C46684607C800F0B6
:1050C000CAF9C0197141039A0E0D0023D717564033
:1050D0001A467A40164340D0049A002A29D0029AF0
:1050E000012A039A11DC1205C01A914101263605E6
:1050F000001C7141D20F059ED207009301920296C7
:105100002A46234600F0C7F9B1E71605224A0F46A2
:10511000B218C01AB74101210905001C4F410018FF
:105120007F41114618187941E20F10436D1964410F
:1051300013E0E2076D0815436408C2071443039A9D
:1051400001261205C01A91413605001C7141CE0797
:10515000400830434908C01851412A46234600F010
:105160008DF984E7049801224000C117121A002328
:105170008B4104983146C417381AA141EFE730B487
:105180000124E407634030BC56E730B40124E4074F
:10519000614030BC50E700000000E0FFF0B51FB4F4
:1051A00088B00B990998002448400999C00F49001C
:1051B00049080991C0070B990090490049080B91D3
:1051C00009990898A646084303D00B990A98084302
:1051D00003D1002001460DB0F0BD09980124400024
:1051E000420D4800410D099824050003000B20439F
:1051F00009900B980003000B20430B9050181A499C
:105200004018002201901446104601E0032801DAFC
:10521000034600E003239C46C11A0AAE0AE05F0081
:1052200008ADED5B4F00F75B7D430027AA187C417A
:105230005B1E491C6145F2DD410004AB5A5221045A
:10524000120C0A43240C401C0828DFDB0198029052
:105250000099704601910090059B049A0799069861
:1052600000F019F9B7E700000DFCFFFFF0B50C46A0
:105270005C4085B0E40FE40703944C00002664080A
:1052800059009446490802460296224321D06246BC
:105290000A431ED06200570D4A000E032303550D2A
:1052A000012402462C492405781B1B0B360B4018A1
:1052B00023432643614600901C46501AB44103D351
:1052C0000098401C009002E0921800985B41002872
:1052D00003DA0020014605B0F0BD002001210905D8
:1052E0000746864611E064461D46141BB54106D3A9
:1052F0006546521BB341744607430C43A646CD078F
:1053000040084908284392185B4105460D43EAD1FD
:105310001046184313D06046194650407140084368
:1053200003D100220123DB0709E06046101AB341D4
:1053300002D20122002302E00122D243531000983E
:1053400074460105381C6141029C039D00196941A6
:1053500000F094F8BFE70000FD0300000EB505491A
:105360000291002100910A460B46019100F093F84A
:1053700003B000BD330400004A0009030123090BF8
:105380001B051943094B10B5520D9A4201DA002052
:1053900010BD064B34339A4203DC9A1A00F04AF8E7
:1053A00010BD03495118884010BD0000FF030000E4
:1053B000CDFBFFFFF0B51FB40646002082B00546C6
:1053C0004024019100901BE0019922460F4630468F
:1053D00000F030F8049A059B801A994110D31046CA
:1053E0001946224600F016F8361A8F4101972246D8
:1053F00001200021009F00F00DF838184D41009069
:105400002046641E0028DFDC019B009829463246B6
:1054100007B0F0BD10B5202A04DB0146203A9140C8
:10542000002010BD914020239C1A0346E3401943FD
:10543000904010BD10B5202A04DB0846203AD04029
:10544000002110BD0B46D340D0402024A21A914029
:105450000843194610BD10B5202A06DBCB170846B5
:10546000203A1041C1170B4306E00B461341D040D0
:105470002024A21A91400843194610BD10B5002BF4
:1054800008DA0024401C614192185B411A4301D1A3
:105490004008400010BDF0B51FB482B005460C00B6
:1054A00003D0084600F008F902E000F005F92030CA
:1054B0000246009021462846FFF7ACFF049B059A60
:1054C00004460F4618431143084303D1204639468A
:1054D00007B0F0BD1846104317D0009840210A1AB3
:1054E00018460599FFF7A6FF05460E46009A05994E
:1054F0000498FFF78FFF084301D0012000E000204F
:10550000C11705430E432C43374300990E9863059A
:10551000401A7905E40A0A3000220C43FD0A0028EB
:1055200002DA00200146D3E70105101969410C9CFD
:105530000D9D00196941FFF7A1FFC9E74A00090362
:105540000123090B1B0519430A4B10B5520D9A4252
:1055500002DA0020014610BD064B34339A4203DCC8
:105560009A1AFFF767FF10BD034BD218FFF752FFDF
:1055700010BD0000FF030000CDFBFFFF10B50029A8
:1055800004DB0124E40740428C412146002B04DB6C
:105590001C460123DB075242A341994200D19042AD
:1055A00010BD0000064C0125064E05E02046E368CC
:1055B00007C82B4398471034B442F7D3FAF784FD59
:1055C000686C0000886C000070B58C180578401C71
:1055D0006B075B0F01D10378401C2A1106D10278BA
:1055E000401C03E00678401C0E70491C5B1EF9D17C
:1055F0002B0705D40023521E0DD40B70491CFAE76B
:105600000378401CCB1A921C03E01D785B1C0D70C4
:10561000491C521EF9D5A142D8D3002070BD00000C
:105620000FB410B503A9044B044A029800F024F902
:1056300010BC08BC04B01847570200001C00001042
:105640000FB41CB50A46521E0192009007A9064BE2
:105650006A46069800F010F9009A002111701CBCEF
:1056600008BC04B018470000396400000FB410B53E
:1056700004A9074B02AA039800F0FEF8044602A909
:10568000002000F0EFFE204610BC08BC04B0184714
:10569000656400007CB51C461546491E01910090CA
:1056A000044B6A462146284600F0FEFA009A002183
:1056B00011707CBD4F6400002021020C01D010212C
:1056C0001046020A01D008391046020901D0091F0C
:1056D0001046820801D0891E1046420801D0881E5B
:1056E0007047081A704730B47446641E2578641CED
:1056F000AB4204D3635D5B00E31830BC18471D4622
:10570000F8E702E008C8121F08C1002AFAD1704762
:10571000002001E001C1121F002AFBD170470000E8
:10572000F0B51FB484B007980699020D01430FD15C
:105730000F98012449A3012807D004980F9A846088
:105740000360C260416009B0F0BD0E98C143F4E748
:10575000434844491018484305140F9801280E98EF
:105760000BD0281A401C00243F4E40490094019160
:105770000290002803DA474216E04042F3E707466A
:1057800012E0F80707D02246334601990098FFF748
:1057900005FD019100902246334610461946FFF759
:1057A000FDFC04460E467F10002FEAD10298019BB3
:1057B0000028009A0799069802DAFFF7EFFC01E04B
:1057C000FFF754FD04460E460022294BFFF7D6FE94
:1057D00003D80020C043014607E00022254B2046A5
:1057E0003146FFF729FCFFF7A9FE102409E0002C41
:1057F0000ADB0A220023FFF7DDFD059B30321A5534
:10580000641E02460A43F2D1641C1122059B121B3E
:105810001C190F9B012B08D00123084302D10E98BD
:1058200082420DDD00236D1C0EE0084303D10E986B
:10583000151A6D1E0AE011200E9000200F908CE7C3
:10584000824201DA00236D1E002B86D004980F9946
:10585000456004608260C16075E7000030000000B0
:1058600001FCFFFF104D0000000024400000F03F4D
:105870000000F0430000E03FFFB591B00F46054641
:105880000026F9E0252876D100246D1CFB4A0094FF
:10589000012102942B780846203B9840034613428E
:1058A00002D004436D1CF5E728782A280ED0022187
:1058B00028780246303A092A15D8009A0A235A4312
:1058C000303A80180C436D1C0090F1E701CF009036
:1058D000002805DA0120400304430098404200906C
:1058E000022004436D1C28782E2815D1042004437F
:1058F0006D1C28782A280AD101CF6D1C02900BE07C
:1059000002990A225143303940186D1C02902878C0
:10591000014630390929F3D928786C2810D006DCE3
:105920004C281AD068280ED06A2817D104E07428B1
:1059300013D07A2812D110E00120400504430CE076
:105940000121090501E0032109050C436978814221
:1059500003D101206D1C000524186D1C28780390CC
:105960006E281FD00DDC632833D005DC00287DD0E5
:10597000582812D1BEE010E0642801D069280CD16B
:1059800081E073282FD004DC6F2870D0702804D1F8
:10599000B2E075286CD078286BD0149A1399904790
:1059A000761C68E06002400F022807D003280AD066
:1059B000042838680AD03F1D06605CE001CFF1176B
:1059C0000660416057E001CF068054E03F1D06703D
:1059D00051E03878694608740020487404A83F1DD7
:1059E0000390012003E001CF03900020C043610732
:1059F0000FD5002101E00199491C029A01919142C1
:105A000013DA8142F7DB019A0399895C0029F2D10C
:105A10000BE0002101E00199491C01918142FADB70
:105A2000019A0399895C0029F5D101990098139A8C
:105A3000401A00902146149B00F0D2FC0199801975
:105A4000461807E0039803990078491C0391149ABB
:105A5000139990470198401E0190401CF2D12146B5
:105A6000149B139A009800F09BFC03E008E04CE0C4
:105A70003EE03FE086196D1C2878002800D001E741
:105A8000304615B0F0BD0A20002104900591600257
:105A9000410F022905D001CFC2179446032907D030
:105AA00009E0FF1DFF08FF0079683868083706E045
:105AB00000B2C2179446042902D140B2C1178C46E5
:105AC00000226146944506DA0A460021404291418F
:105AD0008C462D2102E0210504D52B216A46117642
