:020000040000FA
:10000000F009001081020000850200008702000054
:10001000890200008B0200008D0200000000000039
:100020000000000000000000000000008F0200003F
:1000300091020000000000009302000065340000FF
:10004000970200009702000097020000970200004C
:10005000970200009702000097020000970200003C
:10006000970200009702000097020000970200002C
:10007000970200002F190000EB0F0000A9150000E7
:1000800097020000970200008B0B0000C10B0000DC
:10009000A90F00004108000097020000970200002D
:1000A00097020000C11D00009702000097020000A7
:1000B000314100000B410000694000002140000078
:1000C00000F002F800F0B1F80CA030C8083824188D
:1000D0002D18A246671EAB4654465D46AC4201D180
:1000E00000F0A3F87E460F3E0FCCB6460126334201
:1000F00000D0FB1AA246AB463343184704740000F5
:10010000247400000023002400250026103A01D3A7
:1001100078C1FBD8520700D330C100D50B607047BF
:1001200010B56E2902D105F00EFD10BD702902D167
:1001300004F0A7FE10BD662902D106F033FD10BD04
:10014000652902D106F02EFD10BD672902D106F007
:1001500029FD10BD612902D1C046C04610BD03680B
:100160001B0A01D380231943692902D104F014FE2C
:1001700010BD642902D104F00FFE10BD752902D113
:1001800004F00AFE10BD6F2902D105F0DDFD10BD9F
:10019000782902D104F062FE10BDE92902D105F0F0
:1001A00079FD10BDE42902D105F074FD10BDF529DB
:1001B00002D105F06FFD10BDEF2902D105F0D0FD91
:1001C00010BDF82902D104F057FE10BD0368DB0909
:1001D00001D380231943632902D106F032F810BD00
:1001E000732902D106F035F810BDE32902D106F0DB
:1001F0003FF810BDF32902D106F042F810BD0020EF
:1002000010BD1FB5C046C04606F088F804000020A7
:10021000002106F059FC401C60600020002106F01F
:100220003DFCE0601FBD10B510BD06F04FF8114653
:10023000FFF7E7FF03F04BF906F072FB03B4FFF79B
:10024000F2FF03BC00F053FC70B505460C461646A1
:1002500002E00FCC0FC5103E102EFAD2082E02D3AA
:1002600003CC03C5083E042E07D301CC01C5361FBD
:1002700003E021782970641C6D1C761EF9D270BDD4
:1002800008480047FEE7FEE7FEE7FEE7FEE7FEE779
:10029000FEE7FEE7FEE7FEE703480449024A044B97
:1002A00070470000C1000000F0070010F0090010C6
:1002B000F0070010704700007CB515461A460C0088
:1002C000009001D00019401E074B7B446946019005
:1002D000284605F052FC002C054603D06946002054
:1002E00000F007F828467CBDD358000070477047DF
:1002F00070470A681070521C0A607047FFFFFFFFCA
:100300003049314A11600121304A116051600021A9
:1003100051600121516000BF2C494968C907C90FCC
:10032000FAD02A4940398868400A40020321014333
:10033000264A403A91602649896B80229143244A9B
:10034000916300BF21494039C968C907C90FF9D075
:1003500003211E4A116301215163002151630121D0
:10036000516300BF1949496BC907C90FFAD0012170
:10037000164A9163144909688900164A11601146AA
:100380000968154A1160704700B502200F494039CD
:100390000860002008620E48806B202188430C49C9
:1003A0008863002300E05B1CFF2BFCD9FFF7A8FF4C
:1003B00006484030006801210904084303494031E0
:1003C000086000BD001BB700000000104080044022
:1003D000008204400400001008000010A0211B4A05
:1003E00051621A49C03108610121184AC032516175
:1003F000002151610121516100BF1449C031496997
:10040000C907C90FF9D00121104AC03291611049C2
:10041000896B402291430E4A916370470B49C0316A
:1004200008620121094AC032516200215162012152
:10043000516200BF0549C031496AC907C90FF9D0E7
:100440000121024AC03291627047000000800440DE
:100450000082044010B5F348006840210843F14988
:1004600008601F2000F0D7F91E2000F0D4F91D20ED
:1004700000F0D1F91C2000F0CEF910BD70B5049C3D
:10048000002806D0012838D002286AD003287BD162
:100490009CE0002A18D1E44D6D6801268E40B543DA
:1004A000E14E7560002B07D13546AD6801268E40C0
:1004B000B543DD4EB5600EE0DB4DAD6801268E40E4
:1004C0003543D94EB56006E0D74D6D6801268E40A4
:1004D0003543D54E7560002C07D1D34DED6801260C
:1004E0008E40B543D04EF56006E0CF4DED68012655
:1004F0008E403543CC4EF5609DE0002A18D1CB4D9F
:100500006D6801268E40B543C84E7560002B07D13B
:100510003546AD6801268E40B543C44EB5600EE049
:10052000C24DAD6801268E403543C04EB56006E031
:10053000BE4D6D6801268E403543BC4E7560002C63
:1005400007D1BA4DED6801268E40B543B74EF56030
:1005500006E0B64DED6801268E403543B34EF5609A
:1005600069E0002A19D1B24D6D6801268E40B5436D
:10057000AF4E7560002B08D13546AD6801268E4020
:10058000B543AB4EB5600FE054E0A94DAD68012610
:100590008E403543A64EB56006E0A54D6D68012638
:1005A0008E403543A24E7560002C07D1A04DED68FA
:1005B00001268E40B5439E4EF56006E09C4DED68E9
:1005C00001268E4035439A4EF56034E0002A18D15A
:1005D000984D6D6801268E40B543964E7560002B90
:1005E00007D13546AD6801268E40B543914EB560C2
:1005F0000EE0904DAD6801268E4035438D4EB560BE
:1006000006E08C4D6D6801268E403543894E75603D
:10061000002C07D1874DED6801268E40B543854EED
:10062000F56006E0834DED6801268E403543814E2E
:10063000F56000E000BF00BF70BD002806D00128B3
:100640000CD0022812D0032820D117E0764A126974
:1006500001238B401A43744B1A6118E0734A1269E4
:1006600001238B401A43714B1A6110E0704A1269E2
:1006700001238B401A436E4B1A6108E06D4A1269E0
:1006800001238B401A436B4B1A6100E000BF00BF8F
:100690007047002806D001280CD0022812D0032869
:1006A00020D117E0604A126901238B409A435E4BC8
:1006B0001A6118E05D4A126901238B409A435B4B33
:1006C0001A6110E05A4A126901238B409A43584B31
:1006D0001A6108E0574A136901228A409343554A38
:1006E000136100E000BF00BF704710B50246002054
:1006F000002A06D0012A0CD0022A12D0032A20D1C7
:1007000017E0494B9B6901248C40234200D0012013
:1007100018E0464B9B6901248C40234200D0012005
:1007200010E0434B9B6901248C40234200D0012000
:1007300008E0404B9B6901248C40234200D00120FB
:1007400000E000BF00BF10BD002806D001280CD07B
:10075000022812D0032820D117E0334AD26901239E
:100760008B401A43304BDA6118E0304AD2690123DA
:100770008B401A432D4BDA6110E02D4AD2690123D8
:100780008B401A432A4BDA6108E02A4AD2690123D6
:100790008B401A43274BDA6100E000BF00BF70476F
:1007A00030B513468B408400234D2D5901248C40D5
:1007B000A4002B5130BD024690001F4B1B58012056
:1007C000884080001858704730B5002A11D0830047
:1007D000194CE3580124E4031B191B6801248C40C5
:1007E00023438400144D2C590125ED036419236023
:1007F00010E08300104CE3580124E4031B191B682C
:1008000001248C40A34384000B4D2C590125ED039A
:100810006419236030BDC206D20E01219140074AFF
:1008200011607047808004400080005000800150BB
:100830000080025000800350B46B000000E100E033
:1008400070B500BF864A9268D0B240104007400F92
:10085000032820D1824A5269D1B29E22114205D08A
:10086000804A11607E4A1268D3B270BDCA07D20FA7
:100870003ED07B4C2468E5B27B4C2268541C7A4EF7
:1008800034607A4CA55432461268802A30D3002254
:10089000344622602CE0022811D1714C2468E5B264
:1008A000714C2268541C704E3460704CA554324612
:1008B0001268802A1CD300223446226018E00628E1
:1008C00007D1684A1268FF2401342243654C226034
:1008D0000EE001280CD1624A5269D1B220221142A5
:1008E00003D00122624C227002E00022604C227090
:1008F00000BFBAE7F8B5044601205D490870002042
:10090000594908601520012181405A4A116000BFF1
:100910005948406AC008C000574948620846406AC2
:1009200001210843544948620846806AC008C00053
:1009300088620846806A012108434F4988624F480F
:1009400000680121090308434C49086001208861BF
:1009500083204349C8604948876939464848006848
:1009600004F0CAFB06092146304604F0C5FB0546E3
:10097000280A3B494860E8B208600320C8600720A5
:1009800088600846476900BF3548406960210840D3
:100990006028F9D101E03248076831484069C00752
:1009A000C00FF8D1152001218140324A803A1160F0
:1009B00000BF05202A494860F8BD0AE000BF284A68
:1009C000526920231A42FAD00278254B1A60401C43
:1009D000491E0029F2D1704700BF214949692022F0
:1009E0001142FAD01E490860704700B5034603E083
:1009F00018785B1CFFF7F0FF18780028F8D100BDCD
:100A00000FB400B59BB01DA80090642101A8009B05
:100A10001C9AFFF751FC01A8FFF7E7FF00200090A8
:100A20001BB008BC04B018470146164800680E4ABF
:100A30001268904211D00D48124A1268805C08700A
:100A400010480068401C0F4A10601046006880285B
:100A500001D300201060012070470020FCE7000057
:100A60000080004018000010100000103401001039
:100A70000C00001080E100E08040044080800440D1
:100A8000080000101400001000BF1E494969202210
:100A90001142FAD01B490860704710B503460C4656
:100AA0001846FFF7F1FF10BD00BF17480068002887
:100AB000FBD0062013494860002013490860072036
:100AC0001049486011480078704710B50446FFF798
:100AD000EBFF0346FFF7D8FF10BD00B503461846ED
:100AE000FFF7D2FF00BD01460020C043704700BFA2
:100AF000FEE700BF03484069C007C00FFAD00148B5
:100B000000687047008000401000001034010010A1
:100B100070B504460D46002C1AD10220F8494860F1
:100B20000020C8607D21C900F648006804F0E4FA9E
:100B30006843F3498861FF20086004204861012070
:100B4000486000BFEE484068C007C00FFAD11BE004
:100B5000012C19D10220EC4948600020C8607D2199
:100B6000C900E848006804F0C7FA6843E6498861AC
:100B7000FF200860042048610120486000BFE2486F
:100B80004068C007C00FFAD170BDDD480068C007DB
:100B9000C00F07D00120DA490860DC480068401C1B
:100BA000DA490860D64800681021084207D01020B2
:100BB000D3490860D6480068401CD5490860704792
:100BC000D1480068C007C00F07D00120CE49086097
:100BD000D0480068401CCF490860CB48006810210D
:100BE000084207D01020C8490860CB480068401C64
:100BF000C94908607047002803D10121C04A5160EB
:100C000002E00121C04A51607047002803D1002151
:100C1000BB4A516002E00021BB4A51607047014667
:100C2000002906D1B64A506802221043B44A5060E7
:100C300005E0B54A506802221043B34A506070473D
:100C400070B504460D46002C47D1B4480068012118
:100C500049020843B1490860B148006AC008C000B1
:100C6000AF4908620846006A02210843AC4908629D
:100C70000846406AC008C00048620846406A02212F
:100C80000843A74948620846806AC008C0008862D5
:100C90000846806A02210843A1498862A04880383A
:100CA0000069C008C0009E49803908610846006993
:100CB000022108439A49803908610020934908605D
:100CC000934908608E48856105208D49886203201C
:100CD0004861122000F05BF922E0012C20D18F48FE
:100CE0000068A10208438D4908608D484069C0082A
:100CF000C0008B4948610846406902210843884981
:100D00004861002083490860834908607E48856106
:100D100005207D49886203204861132000F037F9DF
:100D200070BD70B504460D46002C12D17B4800689A
:100D3000012149020843794908600020734908608D
:100D40006F48856103206E494861122000F01FF949
:100D500012E0012C10D171480068A10208436F49CC
:100D6000086000206B490860674885610320664978
:100D70004861132000F00BF970BD30B505460C46F4
:100D800013462846FFF741FF012D62D163480068F2
:100D9000A902084361490860B320C00018435A49BA
:100DA000C863D807C00F0ED05D484038C06BC0087C
:100DB000C0005B494039C8630846C06B0321084343
:100DC00057494039C863022003420BD05448006899
:100DD000C008C00052490860084600680321084363
:100DE0004F490860042003420BD04D480069C008F9
:100DF000C0004B490861084600690321084348497F
:100E00000861082003420BD045484069C008C00073
:100E10004349486108464069022108434049486106
:100E2000012018433849403148633E480460006857
:100E3000354948623B480068400888613948006885
:100E40004008C861374800684008086202204861CD
:100E500055E0324800680121490208432F490860E3
:100E6000CB20C00018432649C863022003420BD0A0
:100E70002B48806AC008C000294988620846806AF9
:100E80000221084326498862042003420ED02448E8
:100E900080380069C008C0002149803908610846CF
:100EA0000069022108431E49803908610820034275
:100EB0000ED01B484038406BC008C000184940396C
:100EC00048630846406B032108431549403948638D
:100ED000082018430A4940314863134804600068F9
:100EE000074948621048006888610F480068400858
:100EF000C8610D480068400808620815486130BDA7
:100F00000040014008000010008001402400001053
:100F10002C000010280000103000001080800440D9
:100F2000804004403800001034000010002816D023
:100F3000002906D0012907D0022908D003290CD1A5
:100F400008E0164B9A6109E0144BDA6106E0134B96
:100F50001A6203E0114B5A6200E000BF16E000295C
:100F600006D0012907D0022908D003290CD108E0B6
:100F70000B4B9A6109E00A4BDA6106E0084B1A62F2
:100F800003E0074B5A6200E000BF00BF7047C20693
:100F9000D20E01219140034A116070470080014048
:100FA0000040014000E100E0FE49C869C107C90FE7
:100FB00007D0FD490968491CFB4A11600121F94A23
:100FC00011620221084207D0F8490968491CF74A12
:100FD00011600221F34A11620421084204D0F4494D
:100FE0000968491CF24A11607047F249C869C10793
:100FF000C90F07D0F0490968491CEF4A1160012167
:10100000EC4A11620221084207D0EC490968491CE8
:10101000EA4A11600221E74A11620421084204D021
:10102000E7490968491CE64A1160704710B5044653
:10103000002C47D1E348406801210843E14948605A
:10104000E04880300068C9140843DE4980310860F8
:1010500002204861DC48006AC008C000DA49086222
:101060000846006A01210843D74908620846406AD9
:10107000C008C00048620846406A01210843D249BE
:1010800048620120D04940310863CF490863CD4808
:101090008030006840210843CA4980310860CA484E
:1010A0004038C069C008C000C7494039C861012242
:1010B00002210020FFF788FB012202210020FFF718
:1010C0006FFB54E0BF48406804210843BD494860B5
:1010D000BC4880300068012189040843B949803147
:1010E00008600220C861B848C069C008C000B6499D
:1010F000C8610846C06902210843B349C861B248C3
:101100004030C068C008C000AF494031C8600846E0
:10111000C06802210843AC494031C860AA48403841
:10112000806AC008C000A849403988620846806AC1
:1011300002210843A44940398862A24880300068EF
:10114000402108439F49803108609F4840388068AB
:10115000C008C0009C49403988600122002102205B
:10116000FFF732FB012200210220FFF719FB10BD1F
:1011700010B50446002C69D192484068012108430B
:10118000904948608F4880300068C91408438D49F1
:1011900080310860022048618B48006AC008C000A6
:1011A000894908620846006A0121084386490862A5
:1011B0000846406AC008C00048620846406A0121EB
:1011C00008438149486202207F49403108637E49D3
:1011D000C8607C48803000684021084379498031EC
:1011E000086079480068C008C0007749086001229B
:1011F00004210220FFF7E8FA012204210220FFF770
:10120000CFFA714840380068C008C0006E494039C4
:101210000860012206210220FFF7D6FA01220621EA
:101220000220FFF7BDFA68484038006AC008C000D5
:10123000654940390862012207210220FFF7C4FAFC
:10124000012207210220FFF7ABFA54E05D48406815
:10125000042108435B4948605A48803000680121F6
:10126000890408435749803108600220C861564804
:10127000C069C008C0005449C8610846C06902215D
:1012800008435149C86150484030C068C008C00098
:101290004D494031C8600846C068022108434A49A8
:1012A0004031C86048484038806AC008C00046499C
:1012B000403988620846806A022108434249403921
:1012C0008862404880300068402108433D498031B1
:1012D00008603D4840388068C008C0003A4940393D
:1012E0008860012200210220FFF76EFA012200210E
:1012F0000220FFF755FA10BD70B5054600BF002D5E
:1013000016D1324827490860FE200861002404E015
:1013100024488068C6B2601CC4B2082CF8DB1420D4
:1013200000F035F902201F4948600320486115E0AC
:1013300026482049086002200861002404E01D4876
:101340008068C6B2601CC4B2082CF8DB0E2000F026
:101350001EF90220174948600320486170BDF8B5A6
:1013600007460D46164600980090002F30D1681EA3
:101370000721090208430B4908600846066100245A
:1013800005E008488068C0B20090601CC4B2082C18
:10139000F7DB142000F0FBF802200249486003202C
:1013A00048612FE00000044040000010440000109D
:1013B0003C000010008005404C0000105000001060
:1013C000480000100080044040400440070700002F
:1013D000681E072109020843704908600846066133
:1013E000002405E06D488068C0B20090601CC4B263
:1013F000082CF7DB0E2000F0CAF80220674948608D
:1014000003204861F8BD70B500BF00232DE000281F
:1014100015D100BF624DED6812263540022DF9D17D
:101420000D785F4EB560491C00BF5D4DED68142618
:101430003540042DF9D15A4DAD68ECB214E000BF2F
:10144000564DED6812263540022DF9D10D78534ED8
:10145000B560491C00BF514DED6814263540042D80
:10146000F9D14E4DAD68ECB25B1C9342CFD370BD49
:1014700030B500231FE000280ED1FF24484DAC609A
:1014800000BF474CE46814252C40042CF9D1444C8F
:10149000A4680C70491C0DE0FF24404DAC6000BFF7
:1014A0003E4CE46814252C40042CF9D13B4CA46834
:1014B0000C70491C5B1C9342DDD330BD0246002AF0
:1014C00019D100BF3648C068122318400228F9D14C
:1014D0003348816000BF3248C06810231842FAD1F7
:1014E00000BF2F48C068142318400428F9D12C48A5
:1014F000806880B2704700BF2848C0681223184037
:101500000228F9D12548816000BF2448C068102313
:101510001842FAD100BF2148C0681423184004289B
:10152000F9D11E48806880B2E4E770B504460D46E4
:10153000002C28D1002207210220FFF731F900BF3B
:101540001748C0680221084204D01548C06810211D
:10155000084201D0012000E000200028F0D110480E
:10156000856000BF0E48C06810210842FAD100BF54
:101570000B48C068142108400428F9D10122072132
:101580000220FFF70DF90648806880B270BDC206E0
:10159000D20E01219140034A11607047008005403E
:1015A0000000044000E100E010B501208007406821
:1015B000C1B24807400F6FD1C810030005F041FACF
:1015C0000CB3071523AB393AB464AC7496B300205E
:1015D000AB4A1060AB480078012292079060282047
:1015E00090610120A84A1060A2E00020A74A106084
:1015F000A448007801229207906028209061022080
:10160000A14A106094E0A048006801280DD19C4ACE
:101610001068421C9A4B1A609D4A1268125C0123A2
:101620009B079A600420984A10600820C2069061C7
:101630007EE000BF92480068964A126890420ED23F
:101640008F4A1068421C8E4B1A60914A1268125CD5
:1016500001239B079A6004208B4A106010E08E489B
:101660000068002806D02020420610600320864A29
:10167000106005E00520844A10601020820610608A
:101680000820C206906153E083480068012804D115
:1016900004200207906103E045E004200207106087
:1016A0000820C206906143E0012292079268D3B2FB
:1016B000764A1068421C754C2260784A12681354AE
:1016C00020460068744A1268904205D204206E4A8F
:1016D00010600207106005E005206B4A10600420CE
:1016E000020790610820C206906121E00122920762
:1016F0009268D3B2654A1068421C644C2260674A03
:10170000126813540520604A106010208206106091
:10171000082090610CE000BF0820C20690610520FF
:10172000594A106004E000BF0820C206906100BF63
:1017300000BF10BD00210020202253061A600BE0DC
:10174000514A1268012A01D1012006E0544A91420F
:1017500001D3002001E0491CF2E700BF70471020D0
:10176000810608600820886100BF012080070068AA
:1017700010210842F9D10120704710B502464948AE
:10178000406802231843474B586046488030006841
:1017900020231843434B803318604348006B800973
:1017A0008001414B18631846006B012318433E4BE0
:1017B00018631846406B8009800158631846406BD7
:1017C00001231843384B58636C201B049861FF2099
:1017D000813058611861022A01D15007C1600F2081
:1017E00001238340314C236000BF40200306186072
:1017F000012010BD00B5002023490860234908607E
:101800001F490860FFF796FF012803D0FFF7A7FFE5
:10181000002000BD06E01C480068052802D1FFF743
:101820009EFF00E0F7E700BF0120F2E770B5044635
:101830000D461646012020431249087017480560DE
:1018400015480660012013490860FFF7D3FF1248CE
:1018500000681149086070BD70B504460D46164613
:10186000084804700A4805600A48066000200A49D2
:101870000860FFF7BFFF074800680649086070BDB1
:10188000640000107C000010540000106000001084
:101890006C00001078000010740000107000001040
:1018A000FFFFFF00008004400040044000E100E032
:1018B00030B5024600BFC14B1B680124E40323423C
:1018C000F9D17F23BD4C6360531C236000BFBB4B29
:1018D0001B680124E4032342F9D118235343B84C75
:1018E0001819B64B5B690124A403234208D0B34BFB
:1018F00019691C466469B34D2C402404214303E05C
:10190000AE4B5B69DB04590D02C0AC4B9B691B07F6
:101910001B0F08C0A94BDB6908C0A84B1B6A08C095
:10192000A64B5B6A08C0A54B9B6A08C030BD70B56A
:1019300000BF32E00120C003064214D09F48803827
:1019400045684020054205D09F480068401C9E49DC
:10195000086070BD802005421FD09C480068401C74
:101960009A490860F5E76807400F16D17404640CC3
:10197000002C12D0202C10D89048803840681021BC
:1019800088438E4980394860611EC8B2FFF790FFD6
:101990000121601E80008E4A1150884880380669F7
:1019A000002EC7D100BFD4E70021002056E0F3226B
:1019B000824B803B5A6200291AD100229A62854AE2
:1019C000DA6200221A63C21DF93292000123DB039E
:1019D0001A437A4B803B5A63C207D20F02D17E4A28
:1019E0009A6325E07D4A754B803B9A6301211FE095
:1019F0007B4A724B803B9A627A4ADA620122120574
:101A0000821892B21A63012212058218120C032363
:101A10009B031A43694B803B5A63C207D20F02D122
:101A20006D4A9A6304E06D4A644B803B9A630021DF
:101A30000022624B803BDA63604B403B1A605A6085
:101A40009A60421C5D4B803B1A6200BF5B4A803A41
:101A5000126A0123DB031A42F8D1401C2028A6D3C6
:101A6000704710B5044660484068082108435E4945
:101A700048605D48803000680121490408435A49A4
:101A8000803108604D4880380068C007C00F07D11A
:101A90004A48803800680121084348498039086075
:101AA00005205249086045488038006840210843B5
:101AB0004249803908604E48C86000208861084665
:101AC0000068402188433D49803908600846006825
:101AD00040084000086000BF384880380068C007F0
:101AE000C00FF9D1FFF760FF0D2001218140414A6D
:101AF000116000BF3148803800680E2108432F492B
:101B00008039086010BDF0B503460C46002A01D1AB
:101B100000BFFEE702CA002C02D0CE00B00800E0F1
:101B2000084620CA082D00D908250126B6073142EB
:101B30000ED1860005277F033E43204F803F7E6302
:101B400000263E631F4EF61EFE620026BE620CE0BB
:101B5000060C07277F033E43184F803F7E6386B203
:101B60003E63254EFE621E4EBE622E07360F2327B1
:101B7000FF013E43114F803FBE6340CAFE6340CA2F
:101B80000E4F403F3E6040CA7E601668BE60F7263A
:101B90000A4F803F7E62002C02D09E1C3E6203E012
:101BA0005E1C064F803F3E6200BF044E803E366A98
:101BB0000127FF033E42F8D1F0BD00008000054040
:101BC00034020010FF5F000084000010800000104D
:101BD000B4010010FC1F00008810000088140000F1
:101BE000FFFF0000FF9F00000080044080010540CF
:101BF0000123000000E100E0FFDF000070B50546B2
:101C00006848806B1021884366498863664800688D
:101C100001214903084364490860002404E00020CE
:101C2000A100624A5050641C082CF8D360484069F7
:101C30008F2188435E494861084640690121084375
:101C40005B4948615A484038C06A8F2188435849E7
:101C50004039C8620846C06A0121084354494039E6
:101C6000C862534880698F2188435149886108467A
:101C70008069012108434E49886129464D48006822
:101C800003F03AFA401E00024B4908434B490860F2
:101C900070BD70B505464348806B102188434149AB
:101CA0008863414800680121490308433E490860B0
:101CB000002404E00020A1003C4A5050641C082C81
:101CC000F8D33B484038406B872188433849403936
:101CD00048630846406B0221084335494039486350
:101CE0003348006887218843314908600846006806
:101CF000022108432E49086029462E48006803F057
:101D0000FBF9401E00022C4908432C49086070BDB5
:101D100030B50146082900DB002128480068000A88
:101D20000002264C206020460468012088400125DE
:101D30002D06284304432148046007E088001F4C17
:101D400000190269D00FC00700D000E0F6E700BF1D
:101D50001A48006807242406A043184C206001207C
:101D60008007024201D0002030BD1004830D1846C8
:101D7000FAE71248006807210906084204D00F4814
:101D8000006888430D4908600C480068FF2108433B
:101D90000A49086008460068012109040843074908
:101DA00008607047008204408080044034050010C1
:101DB00080400440080000100100200000C00140E5
:101DC0004249C968424A116003E04049C968404A33
:101DD00011603F4909683F4A9142F6D2AA213B4A25
:101DE000916055219160002000E0401C0121C90450
:101DF0008842FAD33549C968354A116003E033494E
:101E0000C968334A1160324909680122520291427D
:101E1000F5D32E490968042291432C4A11601146DA
:101E2000096808229143294A116070472A490968C4
:101E30000122D2031143284A11603F21264A803AE9
:101E400051622649896B40229143244A91630221C1
:101E5000214A40321161012151610021516101216A
:101E6000516100BF1C4940314969C907C90FF9D008
:101E70008021194A403291610021154A11601921CF
:101E800001228A40164B1A6000BF16490F4A516062
:101E90000913516001211160AA21916055219160BF
:101EA000002000E0401C0121C9048842FAD30949FE
:101EB000064A5161112111600B4991617047AA20B6
:101EC000024988605520886070470000004000404B
:101ED0008C000010FF01000080800440008204405C
:101EE00000E100E0FFFF3F00FF020000F1B582B01B
:101EF0002148846940690190204902984843009034
:101F00000199009803F0F8F807460199009803F04A
:101F1000F3F80D46002F0ED000260AE000BF164849
:101F20008069A042FBD300BF13488069A042FBD860
:101F3000761CBE42F2D3002D1DD0A54206D200BFB2
:101F40000D488069611B8842FAD814E0A54205D18A
:101F500000BF09488069A042FBD30CE000BF0648DF
:101F60008069A042FBD300BF034881692A1B019806
:101F7000801A8142F8D8FEBD00E000E080BB00007E
:101F800010B5002203211046FEF71EFC002204219A
:101F90000120FEF719FC002208210120FEF714FCA5
:101FA000002209210120FEF70FFC00220A21012056
:101FB000FEF70AFC00220B210120FEF705FC10BDF4
:101FC00010B508210120FEF7F6FB002801D1012001
:101FD00010BD09210120FEF7EEFB002801D10220EF
:101FE000F6E70A210120FEF7E6FB002801D10320D5
:101FF000EEE70B210120FEF7DEFB002801D10420D3
:10200000E6E703210020FEF7D6FB002801D10520DA
:10201000DEE704210120FEF7CEFB002801D10620D7
:10202000D6E70020D4E7000010B5012209210220E4
:10203000FEF7CAFB012209210220FEF7B1FB0122B3
:102040000A210220FEF7C0FB01220A210220FEF72E
:10205000A7FB01220B210220FEF7B6FB10BD70B5D5
:102060000446202C01DBFF2403E0E006C00E1149EA
:102070000C5C002209210220FEF792FB002511E0F2
:1020800000220A210220FEF78BFBE207D20F0B2170
:102090000220FEF785FB641001220A210220FEF7D0
:1020A0007FFB6D1C082DEBD3012209210220FEF7D6
:1020B00077FB70BDD46B000000BF0146421ED0B25A
:1020C0000029FAD1704770B50646002510E00023BC
:1020D0000AE0002404E0CB20FFF7EEFF601CC4B24E
:1020E0000F2CF8DB581CC3B2832BF2DB681CC5B283
:1020F000B542ECDB70BD10B504460022052102207C
:10210000FEF74EFB002204210220FEF749FB214688
:102110000020FFF7D3F9012204210220FEF740FB43
:10212000012205210220FEF73BFB10BD10B504463D
:10213000012205210220FEF733FB002204210220A8
:10214000FEF72EFB21460020FFF7B8F901220421FB
:102150000220FEF725FB012205210220FEF720FBCD
:1021600010BD70B504462546E117090F491909113C
:102170000901611AC8B2FFF7BEFF2546E117090F32
:102180004919091108461030FFF7B5FF70BD10B5A9
:1021900004462020FFF7AFFF2046FFF7ACFF10BD3D
:1021A00070B505460C462120FFF7A5FF2846FFF72E
:1021B000A2FF2046FFF79FFF70BD70B505460C4695
:1021C0002220FFF798FF2846FFF795FF2046FFF7EC
:1021D00092FF70BD10B50446402121430846FFF729
:1021E0008AFF10BD10B504468120FFF784FF20460A
:1021F000FFF781FF10BD10B504468D20FFF77BFF70
:10220000102121430846FFF776FF10BD10B50446A4
:10221000A02121430846FFF76EFF10BD10B504460C
:10222000A42121430846FFF766FF10BD10B5044600
:10223000A62121430846FFF75EFF10BD10B50446F6
:10224000A820FFF758FF2046FFF755FF10BD10B537
:102250000446AE2121430846FFF74DFF10BD10B5DF
:102260000446B02121430846FFF745FF10BD10B5D5
:102270000446C02121430846FFF73DFF10BD10B5BD
:102280000446D320FFF737FF2046FFF734FF10BD89
:1022900010B50446D520FFF72EFF2046FFF72BFF91
:1022A00010BD10B50446D920FFF725FF2046FFF7E3
:1022B00022FF10BD10B50446DA20FFF71CFF0221F3
:1022C00021430846FFF717FF10BD10B50446DB2079
:1022D000FFF711FF2046FFF70EFF10BD10B5E320FA
:1022E000FFF709FF10BD70B50646002410E0204638
:1022F000FFF7B5FF0020FFF734FF002504E030466C
:10230000FFF714FF681CC5B2802DF8DB601CC4B257
:10231000082CECDB70BD10B50020FFF7E4FF10BD0A
:10232000FFB581B00D4616461F462C4615E02046E7
:10233000FFF795FF3846FFF714FF0020009006E0F6
:102340000198FFF7F3FE0098401CC0B200900A9974
:1023500000988842F4DB601CC4B2701C8442E6DB47
:1023600005B0F0BD70B5002413E02046FFF777FFFD
:102370000020FFF7F6FE002507E05520FFF7D6FE08
:10238000AA20FFF7D3FE681CC5B2402DF5DB601C08
:10239000C4B2082CE9DB70BD70B50020FFF75FFF09
:1023A0000020FFF7DEFE002404E00120FFF7BEFE60
:1023B000601CC4B2802CF8DB0720FFF750FF002020
:1023C000FFF7CFFE002404E08020FFF7AFFE601C83
:1023D000C4B2802CF8DB002411E02046FFF73FFF59
:1023E000002508E02846FFF7BCFEFF20FFF79EFE11
:1023F00028467F30C5B2802DF4DB601CC4B2082CA7
:10240000EBDB70BDFFB581B007460D46012F02D052
:10241000022F0BD104E0A8002818FE49441805E05B
:10242000681E81004018FC49441800BF00BF039893
:10243000FFF715FF0498FFF794FE002605E02078CB
:10244000FFF774FE641C701CC6B2052EF7DB00207B
:10245000FFF76CFE05B0F0BDFFB581B007460D4635
:102460001E462C46334660210120039AFFF7CAFF1F
:102470000CE0217833463846039AFFF7C3FF641C0B
:10248000B01DC6B22078002800D100E0F1E700BFFF
:1024900005B0F0BDFFB583B005460E461746029560
:1024A000344619E02046FFF7DAFE0698FFF759FE9A
:1024B000002001900AE002990878FFF737FE0298A1
:1024C000401C02900198401CC0B201900C990198E8
:1024D0008842F0DB601CC4B2781C8442E2DB07B0A7
:1024E000F0BDFFB581B00F46144604982038810036
:1024F0004018C84945180198FFF7B1FE002F0BD1CD
:102500000020FFF72EFE002C03D10020FFF70EFE67
:1025100002E0FF20FFF70AFE791CC8B2FFF721FE98
:1025200000260DE0002C03D12878FFF7FFFD04E022
:102530002978C943C8B2FFF7F9FD6D1C701CC6B2FB
:10254000052EEFDB002C03D10020FFF7EFFD02E0AA
:10255000FF20FFF7EBFD05B0F0BDF8B506460F46CE
:1025600014460025082E18DA08E023783A46294652
:102570003046FFF7B6FFA81D85B2641C20780028FE
:1025800001D0012000E00020691C89B2802901DA15
:10259000012100E000210842E7D1F8BDFFB581B07C
:1025A00015461F46A320FFF7A6FD0298FFF7A3FDDF
:1025B0002846FFF7A0FD0198002802D0012825D168
:1025C00011E000240CE0E0B2FFF704FE002603E077
:1025D000C820FFF771FD761C0A988642F8D3E419EB
:1025E000AC42F0D312E000240DE0291BC8B2FFF783
:1025F000F1FD002603E0C820FFF75EFD761C0A9877
:102600008642F8D3E419AC42EFD300BF00BF0020EC
:10261000FFF7E0FD05B0F0BDF8B504460D461646DF
:102620001F46262121430846FFF765FD0020FFF7DE
:1026300062FD2846FFF75FFD3846FFF75CFD304638
:10264000FFF759FD2F20FFF756FD0698FFF73BFDDA
:10265000F8BDF8B504460D4616461F46A320FFF701
:102660004AFD3846FFF747FD0698FFF744FD21462F
:102670002931C8B2FFF73FFD0020FFF73CFD284697
:10268000FFF739FD0898FFF736FD3046FFF733FDB9
:102690000798FFF730FD2F20FFF72DFD0998FFF772
:1026A00012FDF8BD10B52E20FFF725FD10BD10B5A9
:1026B0000120FFF7CCFD00240CE0E0B2FFF792FD13
:1026C000C820FFF7F9FCC820FFF7F6FCC820FFF789
:1026D000F3FC641CD02CF0D310BD10B5D0240DE059
:1026E000611EC8B2FFF77EFDC820FFF7E5FCC820D9
:1026F000FFF7E2FCC820FFF7DFFC641E002CEFD1DF
:102700000020FFF7A4FD10BD10B50446002C02D038
:10271000012C0ED106E00020FFF799FD0120FFF704
:102720007DFD06E00020FFF779FD0120FFF78FFD1A
:1027300000BF00BF10BD0120FFF770FD0BE00120BE
:10274000FFF785FD0220FFF7BEFC0020FFF77FFDAD
:102750000220FFF7B8FCF2E710B50020FFF777FD85
:102760008020FFF795FD3F20FFF768FD0020FFF771
:1027700086FD0020FFF72EFD0020FFF73CFD022024
:10278000FFF705FD0120FFF741FD0820FFF76FFD72
:102790001020FFF78FFDCF20FFF724FD2220FFF749
:1027A00080FD4020FFF791FD0020FFF737FD00205E
:1027B000FFF73CFD0020FFF796FD0120FFF747FDE6
:1027C00010BD10B5012205210220FDF7FDFF0020FC
:1027D000FFF73DFD8020FFF75BFD3F20FFF72EFD5B
:1027E0000020FFF74CFD0020FFF7F4FC0420FFF76A
:1027F00002FD0220FFF7CBFC0120FFF707FD0820B8
:10280000FFF735FD1020FFF755FDCF20FFF7EAFC5D
:10281000F12003E0C46C000079710000FFF741FD76
:102820004020FFF752FD0020FFF7F8FC0020FFF7E3
:10283000FDFC0020FFF757FD0120FFF708FD10BD4C
:1028400000B587B05BA207CA04AB07C30020FFF73F
:102850004AFD302028230522022100905848FFF726
:1028600019FE0520FFF72FFCFFF737FF0520FFF7C4
:102870002AFCFFF71CFF0520FFF725FC2020012381
:102880004022002100900846FFF788FE0520FFF750
:102890001AFC202001234022002100901846FFF757
:1028A0007DFE0520FFF70FFCFFF7FCFE0520FFF77C
:1028B0000AFC012000212023019000930291039043
:1028C0000B460A460846FFF7C4FE0520FFF7FBFB50
:1028D000012000211F2220230093019202910390E6
:1028E0000B460A460846FFF7B4FE0520FFF7EBFB50
:1028F00002200021012220230093019202910390E3
:102900000B4603220846FFF7A4FE0520FFF7DBFB7A
:10291000022000211F2220230093019202910390A4
:102920000B4603220120FFF794FE0520FFF7CBFBA7
:1029300002200021012220230093019202910390A2
:102940000B46072204210120FFF783FE0520FFF735
:10295000BAFB022000211F22202300930192029142
:1029600003900B46072204210020FFF772FE05208A
:10297000FFF7A9FBFFF796FE0520FFF7A4FBFF205A
:10298000FFF7B1FC0520FFF79EFBFFF7EBFC0520EE
:10299000FFF799FB0020FFF7A6FCFFF7FDFC0520E1
:1029A000FFF791FB2523032204A90120FFF754FD23
:1029B00007B000BD354E49564953494F4E000000FF
:1029C000046C0000FFB587B005460E461746002090
:1029D0007B49086008460068069005210120FDF744
:1029E00058FE012205211046FDF7EEFE00220521CA
:1029F0000120FDF7D5FE1E20FFF778FA0122052100
:102A00001046FDF7CDFE002205210120FDF7DCFE7A
:102A1000002003460246052100900120FDF72EFD0F
:102A200005210120FDF709FE002412E0E007C00F98
:102A300000231A46052100900120FDF71FFD00BF6D
:102A40005F48016806988142FAD05D4800680690A8
:102A5000641C032CEAD3002482E0012000231A46E0
:102A600005210090FDF70AFD00BF55480168069852
:102A70008142FAD05248006806905248006803909C
:102A8000002003460246052100900120FDF7F6FCD8
:102A900000BF4B48016806988142FAD04848006858
:102AA0000690484801680398814205D24549039839
:102AB0000968401A029006E0424801680398081A23
:102AC0004149081A0290082C10D20A980078400652
:102AD000010E0A9801703D49029888423FD30A9836
:102AE0000078012108430A99087038E0102C0CD2B4
:102AF00038784006000E38703449029888422ED348
:102B0000387801210843387029E0182C0CD230782D
:102B10004006000E30702D49029888421FD330784D
:102B20000121084330701AE0202C0CD2287840068E
:102B3000000E287025490298884210D32878012178
:102B4000084328700BE005984006000E05901F49C9
:102B50000298884203D30121059808430590641C1C
:102B6000282C00D279E7012000231A460521009085
:102B7000FDF784FC00BF1248016806988142FAD034
:102B800005210120FDF785FD0A9800780490397829
:102B900004980818C0B20490317804980818C0B29C
:102BA0000490297804980818C0B2049005990498F4
:102BB000884202D101200BB0F0BD0020FBE70000ED
:102BC000080100101401001080BB0000180900006B
:102BD00008B500210091012269468820FEF73CFEDD
:102BE000012269468820FEF721FE6846007808BD6C
:102BF00008B501210091012269468820FEF72CFECC
:102C0000012269468820FEF711FE6846007808BD5B
:102C1000704708B50021684601708021417002228A
:102C200069468820FEF718FEB448B54908600120BF
:102C30000004B449086008BD38B50446FFF7D8FF62
:102C400005460C21284688430546A0002843C5B206
:102C50000121684601704570022269468820FEF70E
:102C6000FBFD002C06D0012C08D0022C0AD0032C2E
:102C700010D10BE0A148A24908600BE0A248A0498E
:102C8000086007E0A1489E49086003E0A0489C490D
:102C9000086000BF00BF38BD38B500240021012006
:102CA000FEF76BFDFFF7B4FFFFF7B3FF0120FFF75F
:102CB000C3FF04210091012269468820FEF7CCFD64
:102CC000012269468820FEF7B1FD68460478052197
:102CD0000091012269468820FEF7BEFD0122694667
:102CE0008820FEF7A3FD684600780002044384486C
:102CF0000068444383480168204602F0FDF9044619
:102D0000204638BD38B50546FFF762FF04460C2162
:102D1000204688430446A8002043C4B200216846E8
:102D200001704470022269468820FEF795FD38BD87
:102D300038B50446FFF74CFF0546AD08AD00284600
:102D4000204305460021684601704570022269460D
:102D50008820FEF781FD002C06D0012C09D0022C22
:102D60000CD0032C13D10EE001200004654908604B
:102D70000DE0012000036349086008E0FF200130F6
:102D80006049086003E010205E49086000BF00BF92
:102D900038BD38B5044600255A49096861430846DC
:102DA0005749096802F0A8F90546022168460170F2
:102DB0002804010E68464170022269468820FEF709
:102DC0004BFD38BD38B5044600254E4909686143BE
:102DD00008464B49096802F08FF905460321684609
:102DE00001702804010E684641700222694688205D
:102DF000FEF732FD38BD38B50546FFF7F9FE04464B
:102E000020212046884304462046284304460121C9
:102E1000684601704470022269468820FEF71CFD56
:102E200038BD10B5FFF7E4FE0446202020404009DD
:102E300010BD38B5FFF7DCFE04462021204688434C
:102E40000446412168460170447002226946882088
:102E5000FEF702FD38BD38B5FFF7BAFE0446802103
:102E600020468843044600216846017044700222CF
:102E700069468820FEF7F0FC4020044300216846A4
:102E800001704470022269468820FEF7E5FC38BDD7
:102E900010B586B0FFF73FFA1EA200210846FFF7E3
:102EA0005CFB00210120FEF768FCFFF7B1FEFFF795
:102EB000B0FE0120FFF7C0FE18A001F019FF19E0D5
:102EC000FFF7EAFE0446234615A21421684601F0E6
:102ED0001DFF6A4600210220FFF73FFB214612A09A
:102EE00001F006FFFA20FFF701F8FFF769F806285E
:102EF00000D100E0E4E700BF06B010BDCD03000044
:102F00009000001094000010340F0000D03C00002E
:102F100040F300004C696768740000000D0A00006F
:102F200025642020202000002564202000000000CF
:102F300008B509210091012269463A20FEF78CFC70
:102F4000012269463A20FEF771FC6846007808BD08
:102F500008B516210091012269463A20FEF77CFC53
:102F6000012269463A20FEF761FC6846007808BDF8
:102F700038B504461621684601704470022269463D
:102F80003A20FEF769FC38BD10B50520FFF7F0FFC9
:102F900010BDF8B504460D46164600BFFFF7C8FF42
:102FA000C007C00FFAD006210091012269463A20DD
:102FB000FEF752FC012269463A20FEF737FC6846CC
:102FC000007840B2207007210091012269463A2022
:102FD000FEF742FC012269463A20FEF727FC6846CC
:102FE000007840B2287008210091012269463A20F9
:102FF000FEF732FC012269463A20FEF717FC6846CC
:10300000007840B23070F8BD70B505460024FFF777
:103010009FFF04460C21204688430446A800204315
:10302000C4B22046FFF7A4FF70BD70B5054600246A
:10303000FFF78EFF0446A408A40020462843044658
:103040002046FFF795FF70BD70B58AB000240025BB
:1030500000260021039102910191FFF75CF936A24D
:1030600000210846FFF779FA00210120FEF785FBD1
:10307000FFF78AFF01AA02A903A8FFF78AFF6846A3
:103080000C2141564C42082141564D4204214156E3
:103090004E4201AA02A903A8FFF77BFF6846007B06
:1030A000001941B203916846007A401941B2029179
:1030B00068460079801941B2019168460C23C356D5
:1030C0001FA2142104A801F021FE04AA002102205D
:1030D000FFF743FA68460C2141561CA001F008FE98
:1030E00068460823C3561DA2142104A801F00EFE51
:1030F00004AA00210320FFF730FA68460821415650
:1031000019A001F0F5FD68460423C3561AA2142144
:1031100004A801F0FBFD04AA00210420FFF71DFA1A
:1031200068460421415617A001F0E2FDFA20FEF79F
:10313000DDFE0AB070BD0000417869732D330000D8
:1031400041636320783A2025642020000D0A416302
:103150006320783A2025642C2020000041636320FE
:10316000793A20256420200041636320793A2025A4
:10317000642C202000000000416363207A3A20255F
:1031800064202000416363207A3A2025642E2000C9
:1031900070B504460D46002211460220FDF700FBE3
:1031A000E800802210436200104301460120FEF730
:1031B00085F900210120FEF781F9C6B20122002124
:1031C0000220FDF7EDFA304670BD10B50221012056
:1031D000FFF7DEFF0446A406A40E042C2FD1002125
:1031E0000120FFF7D5FF9949994A1288885408466B
:1031F00097490988405CDD2807D100209449088060
:10320000DD209249924A1288885490489049098852
:10321000405CAA2807D100208D490880AA218B484C
:103220008B4A128881548A480088401C884908804B
:10323000084600886C2807DB0020088004E0002195
:103240000120FFF7A5FF044610BD70B504460D46EA
:103250001646002211460220FDF7A2FAE80062009D
:10326000104301460120FEF729F931460120FEF7FF
:1032700025F9012200210220FDF792FA70BDF8B570
:1032800005460E46BF2203212846FFF7DEFF022136
:103290002846FFF77DFF04462046102108430246DA
:1032A00002212846FFF7D1FF032211462846FFF7E7
:1032B000CCFF01212846FFF76BFF04462046102172
:1032C0008843024601212846FFF7BFFF0421284614
:1032D000FFF75EFF04462046802188430246042112
:1032E0002846FFF7B2FF832203212846FFF7ADFFF0
:1032F0003146E120000301F0FFFE84B2E2B200217A
:103300002846FFF7A2FF221201212846FFF79DFF62
:10331000032211462846FFF798FF00212846FFF7B1
:1033200037FF002203210846FDF74EFA002003462E
:103330000246032100900846FDF7A0F80321084645
:10334000FDF77BF9012211462846FFF77EFF002199
:103350002846FFF71DFFF8BD70B505460C4600BFB7
:1033600005212846FFF714FF20210842F8D0224605
:1033700000212846FFF769FF70BD10B504462146BD
:103380000020FFF7E9FF10BD10B5044604E02178E6
:103390000020FFF7E1FF641C20780028F7D110BD62
:1033A00010B5044621460120FFF7D6FF10BD10B529
:1033B000044604E021780120FFF7CEFF641C20784A
:1033C0000028F7D110BD0246002A17D121480088F5
:1033D000214B1B88984229D020481E4B1B88C05C7B
:1033E00008701C480088401C1A4B1880184600883A
:1033F0006C2801DB002018800120704718480088E5
:10340000134B1B88984211D01048154B1B88C05C89
:10341000087013480088401C114B1880184600881B
:103420006C2801DB002018800120E6E70020E4E79B
:1034300010B5044621460020FFF7C5FF10BD10B5AA
:10344000044621460120FFF7BEFF10BDC005001055
:103450009C0000109A000010980000105405001005
:103460009E00001010B5FE480068401CFC49086032
:10347000084600680146FF39F5390FD100220121C5
:103480000320FDF78DF9F7480078401CF5490870D6
:1034900008460078C006C00E087017E0F0480068C3
:1034A0007D21C900884211D3EF480068401CEE49D5
:1034B0000860EE480068401CEC4908600122114693
:1034C0000320FDF76DF90020E549086010BD88B0C4
:1034D000E748E849086001F00CFB00200090242335
:1034E0000246AA210190E44801F0A1FAE24801F065
:1034F000BAFA1AE0E1480078002815D12422002108
:10350000DD4801F0D0FD0020009024230246AA21CE
:103510000190D94801F08BFAD74801F0A4FA7D2038
:103520000001FEF7E3FC00E000E0E3E700BF16E087
:10353000D3480078242811DA0020D0490870CD48FB
:103540000068FFF77CFFCB480068401CC949086051
:10355000CB480078401CCA49087000E000E0E7E76B
:1035600000BF0020C6490870C148C249086008462B
:1035700000680078AA2804D1084600684078C1494C
:10358000087024220021C04801F08DFD2422B84992
:10359000BD48FCF759FE24220021B74801F083FD05
:1035A000B548B4490860B74800780968C870002079
:1035B000009024230190B3480278AA21AE4801F07C
:1035C00036FAAD4801F04FFA2CE0AC4800780028FC
:1035D00000D127E00020A9490870AC480178ACA0D0
:1035E00001F086FBA9484178B1A001F081FBA74812
:1035F0008178B7A001F07CFBA448C178BCA001F0A1
:1036000077FBA0480178C2A001F072FB9F480078C8
:10361000AA2806D19D48C0789A490978884200D1E5
:1036200001E000BFD1E700BF92E28F4800680228A6
:103630004AD924220021904801F035FDBB4ABC49FB
:10364000BC4800F0ABFDBC4800F00CFEBB4800F0ED
:1036500066FEBB4800F0B7FEB94800680390B34867
:103660000068B549029003C901910090B348006811
:10367000AF4907900A786846027649784176AD49A5
:103680000A78027549784175AE4805A90EC901F05E
:1036900093F90020AB490346024600910190652151
:1036A000A94801F09FF90020A74924230091019027
:1036B00074480278BB21704801F0B9F96E4801F0F6
:1036C000D2F900206849086068480068032804D9D6
:1036D000FEF7F5FB00206549086024226B496A4823
:1036E00001F0A0FC68480078DD2861D16648407888
:1036F0006449097888425BD163480079030003F08C
:10370000A0F90C070D282C13525252191F243052C5
:10371000002211460320FDF743F848E00122002172
:103720000320FDF73DF842E0002202211046FDF79C
:1037300037F83CE0012202210020FDF731F836E0A5
:1037400048480078FEF78BFC31E02020FEF787FC2C
:103750002DE0012000F07CFA29E0002000F078FA4A
:1037600025E0012200210320FDF71AF801220221A1
:103770000020FDF715F82020FEF771FC002000F076
:1037800067FAFEF7C8FD71A21021734801F0BEFA76
:10379000714A00210120FEF7E0FE0720C0436F4977
:1037A000086100BFFEE76EA001F0A2FA00BF2DE0A5
:1037B00035480078DD2829D133484078FF2825D1C5
:1037C000314800790B2821D1012200210320FCF788
:1037D000E7FF012202210020FCF7E2FF2020FEF794
:1037E0003EFC002000F034FAFEF795FD57A21021B0
:1037F000594801F08BFA584A00210120FEF7ADFE2E
:103800000720C0435549086100BFFEE759480078CA
:1038100000281ED00020574908700021564801F0AA
:10382000AAF8554800210B460A46009101906B21E9
:10383000454801F0D7F80020434924230091019026
:1038400010480278EE210C4801F0F1F80A4801F026
:103850000AF94A480078002800D091E0AFE0000063
:10386000B4000010B0000010A8000010AC00001060
:103870002C060010D8000010FC0600100C010010EF
:10388000B1000010A400001020070010C0050010B7
:103890000D0A2D2D2D2D2D2D2D2D2D535049373524
:1038A000325F726275665F315B305D3A2578000089
:1038B0000D0A2D2D2D2D2D2D2D2D2D535049373504
:1038C000325F726275665F315B315D3A2578000068
:1038D0000D0A2D2D2D2D2D2D2D2D2D5350493735E4
:1038E000325F726275665F315B325D3A2578000047
:1038F0000D0A2D2D2D2D2D2D2D2D2D5350493735C4
:10390000325F726275665F315B335D3A2578000025
:103910000D0A2D2D2D2D2D2D2D2D53544F52414758
:10392000455F4E554D3A257800000000C00000105C
:10393000BB000010B9000010C8000010C400001047
:10394000D0000010C8060010E006001049276D20C6
:1039500064696564000000008C06001000E000E06F
:103960006E6F7420777269746520636F6D6D616E20
:10397000640000000E010010D60000100F010010BE
:103980000020744908700121734800F0F4FF724868
:1039900000210B460A46009101906B216F4801F00F
:1039A00021F800206D492423009101906C48027891
:1039B000EE216C4801F03BF86A4801F054F86A487F
:1039C000007800281ED00020674908700221624854
:1039D00000F0D1FF604800210B460A46009101909B
:1039E0006B215E4800F0FEFF00205C49242300911B
:1039F00001905B480278EE215A4801F018F85948C6
:103A000001F031F85948007800281ED000205749AD
:103A100008700321504800F0AEFF4F4800210B46CC
:103A20000A46009101906B214C4800F0DBFF00201A
:103A30004A4924230091019049480278EE214948DF
:103A400000F0F5FF474801F00EF8494800780028DB
:103A50001ED000204649087004213F4800F08BFF2B
:103A60003D4800210B460A46009101906B213B48DE
:103A700000F0B8FF00203949242300910190384814
:103A80000278EE21374800F0D2FF364800F0EBFF15
:103A90003848007800281ED00020364908700521DB
:103AA0002D4800F068FF2C4800210B460A46009183
:103AB00001906B21294800F095FF0020274924231D
:103AC0000091019026480278EE21264800F0AFFFD1
:103AD000244800F0C8FF28480078002837D000208C
:103AE0002549087025491E48007800F088FE002806
:103AF00029D0242200211B4801F0D5FA30221F4989
:103B00001F48FCF7A1FB00200346024600901C481A
:103B100001681C4800F038FF002000900346194A55
:103B2000722101900D4800F05DFF00200B49242315
:103B3000009101900A480278CC210A4800F077FFF2
:103B4000084800F090FF08210220FCF776FD30BF06
:103B50006BE500000F010010D6000010E006001019
:103B6000A4000010FC06001010010010110100104C
:103B700013010010120100100D0100105C0600106E
:103B8000DC000010AC0600100FB470B56946498A1D
:103B9000481E062101F0BAFA85B2681C0621484386
:103BA00084B26946088AA04201DD052606E069461E
:103BB000098A481E062101F0A9FA8EB2FEF7ABFB76
:103BC00000210846059AFEF7C8FC50230022662112
:103BD0001046FEF786FC672300226C211046FEF794
:103BE00080FC2023002272211046FEF77AFC284632
:103BF0003130C3B2002278211046FEF772FC002457
:103C000020E06846418A062068430019401C814232
:103C10000BD10621694309198B0006A9CA58A11CBA
:103C2000C8B20121FEF799FC0AE00621694309198F
:103C30008B0006A9CA58A11CC8B20021FEF78DFC52
:103C4000601C84B2B442DCDD70BC08BC04B0184710
:103C500010B50446002C0ED0012C10D17F20D04985
:103C6000C8600122CF4801681046FDF786F80120A0
:103C7000FCF7C1FF03E00120FCF7C7FF00BF00BF56
:103C800010BD10B5C0B0022110A8018701214187E5
:103C9000C5A01F90C5A02090C8A11EA8C160782211
:103CA00022A96846FCF7D0FA1EA80FC8FFF76CFFE0
:103CB000FA20FEF71BF96BE0FEF782F90446012CAF
:103CC00006D0022C1CD0052C33D0062C55D150E048
:103CD00010A8408F012806DD10A8408F401E81B239
:103CE00010A8418702E010A8018F4187782222A9FD
:103CF0006846FCF7A9FA1EA80FC8FFF745FF3DE08C
:103D000010A8418F008F814206DA10A8408F401C16
:103D100081B210A8418702E0012010A948877822CB
:103D200022A96846FCF790FA1EA80FC8FFF72CFFDF
:103D300024E010A8408F012802D0022816D10AE002
:103D4000002211460320FCF72BFD00220121032055
:103D5000FCF726FD0BE0012200210320FCF720FDEB
:103D6000012211460320FCF71BFD00E000BF00BF4D
:103D700004E0002010A9488700E000BF00BF002C2D
:103D800006D010A8408F002802D0FA20FEF7AEF827
:103D900010A8408F00288FD140B010BD10B5C0B022
:103DA000022110A801870121418788A01F9089A0C6
:103DB00020908DA11EA8C160782222A96846FCF738
:103DC00043FA1EA80FC8FFF7DFFEC820FEF78EF8E3
:103DD0005DE0FEF7F5F80446012C06D0022C1CD05D
:103DE000052C33D0062C47D142E010A8408F012883
:103DF00006DD10A8408F401E81B210A8418702E066
:103E000010A8018F4187782222A96846FCF71CFA86
:103E10001EA80FC8FFF7B8FE2FE010A8418F008F33
:103E2000814206DA10A8408F401C81B210A8418759
:103E300002E0012010A94887782222A96846FCF7F1
:103E400003FA1EA80FC8FFF79FFE16E010A8408FC8
:103E5000012802D0022808D103E00120FFF7F8FE74
:103E600004E00020FFF7F4FE00E000BF00BF04E024
:103E7000002010A9488700E000BF00BF002C06D03A
:103E800010A8408F002802D0FA20FEF72FF810A8C3
:103E9000408F00289DD140B010BD10B5C0B00221A8
:103EA00010A801870121418754A01F9054A02090A1
:103EB00057A11EA8C160782222A96846FCF7C4F960
:103EC0001EA80FC8FFF760FEFA20FEF70FF861E0AA
:103ED000FEF776F80446012C06D0022C1CD0052CE7
:103EE00033D0062C4BD146E010A8408F012806DDC8
:103EF00010A8408F401E81B210A8418702E010A890
:103F0000018F4187782222A96846FCF79DF91EA8F7
:103F10000FC8FFF739FE33E010A8418F008F8142B0
:103F200006DA10A8408F401C81B210A8418702E039
:103F3000012010A94887782222A96846FCF784F955
:103F40001EA80FC8FFF720FE1AE010A8408F012816
:103F500002D002280CD105E0002202211046FCF715
:103F60001FFC06E0012202210020FCF719FC00E002
:103F700000BF00BF04E0002010A9488700E000BF98
:103F800000BF002C06D010A8408F002802D0FA20D5
:103F9000FDF7ACFF10A8408F002899D140B010BDAC
:103FA00000800140E00000104C454400312E547563
:103FB000726E206F6E204C4544000000322E547506
:103FC000726E206F6666204C454400005370656138
:103FD0006B657200312E5475726E206F6E205370B7
:103FE00065616B6572000000322E5475726E206F31
:103FF000666620537065616B6572000046414E0035
:10400000312E5475726E206F6E2046414E000000B6
:10401000322E5475726E206F66662046414E000047
:1040200010B551480068401C4F490860012100202C
:10403000FCF75BFB0446002C08D04C480068401C91
:104040004A49086001210020FCF77EFB0321002083
:10405000FCF74BFB002806D00120454908700321DE
:104060000020FCF771FB10BD10B504210120FCF706
:104070003CFB002805D001203E4908700421FCF7D4
:1040800063FB05210120FCF730FB00280CD03A48E7
:1040900080693A4908603A480068401C384908601D
:1040A00005210120FCF750FB08210120FCF71DFB36
:1040B000002805D00120334908700821FCF744FB93
:1040C00009210120FCF711FB002805D001202E4911
:1040D00008700921FCF738FB0A210120FCF705FBD9
:1040E000002805D00120294908700A21FCF72CFB83
:1040F0000B210120FCF7F9FA002805D00120244902
:1041000008700B21FCF720FB10BD10B50821022020
:10411000FCF7EBFA00280AD001201E49087008219C
:104120000220FCF7B6FA08210220FCF70DFB10BDB7
:1041300010B502210320FCF7D8FA002803D0022191
:104140000320FCF701FB03210846FCF7CEFA002808
:1041500008D0012010490870FFF737F803210846FE
:10416000FCF7F2FA10BD0000E8000010EC000010AF
:10417000130100101201001000E000E01401001013
:10418000080100100E0100100F01001010010010B6
:10419000110100100D0100100C010010F0B587B0E6
:1041A00005460C461646631C2246691C2846FEF747
:1041B00009FCC7B200210120FDF7DFFAFEF728FD58
:1041C000FEF727FD0120FEF737FDFEF765FD3060A5
:1041D000002F29D0FEF79FF89A480178287801919E
:1041E00000906B7898A2102103A800F08FFD03AA1D
:1041F00000210120FEF7B1F920780090637897A2A2
:10420000102103A800F082FD03AA00210220FEF77E
:10421000A4F995A2142103A8336800F077FD03AA3E
:1042200000210320FEF799F907B0F0BD70B50546EF
:104230000E46002400BF04E0285DFFF7B1F8601CC3
:10424000C4B2B442F8DB70BD70B505460E4600241A
:1042500000BF04E0285DFCF7BFFB601CC4B2B442A1
:10426000F8DB70BDF0B589B004468348FDF711FD59
:104270000020FDF74DFD2060206801F06DFA054635
:104280007E4A7F4B01F06CFA00227E4B0191009038
:1042900001F01EF80391029000F0DCFF07467A4916
:1042A000384602F027FC054601F0A2FB20600320FF
:1042B000FDF72EFD6060606801F04EFA05466F4A1A
:1042C0006F4B01F04DFA00226E4B0191009000F00F
:1042D000FFFF0391029000F0BDFF07466A49384690
:1042E00002F008FC054601F083FB60600A212068AB
:1042F00000F002FF0D460A21206800F0FDFE064690
:10430000334662A2152104A8009500F0FFFC04AA20
:1043100000210420FEF721F9012009B0F0BDF0B51D
:1043200085B004460025002600270020207060701C
:10433000A07000210120FDF720FAFEF725FEA21C47
:10434000611C2046FEF725FE60574542012020569D
:104350004642022020564742A21C611C2046FEF71E
:1043600018FE2078401940B220706078801940B261
:104370006070A078C01940B2A0700023E35647A235
:104380001421684600F0C2FC6A4600210520FEF7B1
:10439000E4F80123E35644A21421684600F0B6FC79
:1043A0006A4600210620FEF7D8F80223E35641A210
:1043B0001421684600F0AAFC6A4600210720FEF797
:1043C000CCF805B0F0BD10B5044600210320FCF781
:1043D000F2F9002802D00020207001E001202070B6
:1043E00001210320FCF7E7F9002804D020780121FF
:1043F0000843207003E02078022108432070022146
:104400000020FCF7D8F9002802D00020607001E0FD
:104410000120607001210846FCF7CDF9002802D088
:104420000020A07001E00120A0700B210220FCF709
:10443000C2F9002802D00120E07001E00020E07005
:1044400010BD0000A400001054656D703A20256472
:104450002E25642049443A256400000048756D3AD1
:104460002025642E256400006C696768742025642B
:104470002020202000000000009F24009A99999994
:1044800099990D4000F88F4000002041566F6C74E0
:104490006167653A2025642E2564560041636320D8
:1044A000783A20256420200041636320793A202552
:1044B00064202000416363207A3A20256420200094
:1044C00010B5802208210020FCF749FF0120FDF7EC
:1044D0000DFD002208210220FCF776F910BD0146EF
:1044E00000200B785B1EDAB2002204E08B5C1B1804
:1044F000D8B2531CDAB20B789342F7DC7047F3B5AD
:1045000083B00746002207210220FCF749F90498EE
:10451000030002F096FA065B04193A40465B0A2053
:10452000FA49087021204870002088700120C87066
:10453000002406E0F648015D201DF44A1154601C79
:10454000C4B2062CF6DB42E01A20F04908702220A3
:104550004870002088700120C870002406E0EC48F4
:10456000015D201DE94A1154601CC4B2062CF6DB23
:10457000002407E0E748015D20460A30E34A115471
:10458000601CC4B2102CF5DB21E00220DF4908706A
:10459000012048701BE00220DC4908702020487090
:1045A00015E00A20D949087024204870002088703E
:1045B0000120C870002406E0D548015D201DD34AC3
:1045C0001154601CC4B2062CF6DB00E000BF00BF33
:1045D000CE48FFF784FF0290AA210020FCF76EFF6F
:1045E0000120FDF783FC0025BB210020FCF766FFBE
:1045F000C2B228466D1C3A540120FDF777FC002614
:104600000CE0C248815D0020FCF758FFC2B228468A
:104610006D1C3A540120FDF769FC761CBB480078FC
:10462000B042EED800200299FCF748FF78556D1C87
:10463000FF20F530FDF75AFC0120387000210846B4
:10464000FCF73CFF0120FDF751FC00210846FCF778
:1046500035FFAA2807D0022208210020FCF77FFEA0
:10466000002005B0F0BD0120FDF740FC0021084608
:10467000FCF724FFBB2806D0022208210020FCF70B
:104680006EFE0020EDE70120FDF730FC9F484078EA
:10469000012806D0202807D0212808D022280CD1B4
:1046A00008E00B2001900BE00720019008E01320A8
:1046B000019005E00320019002E00720019000BF77
:1046C00000BF0026002509E000210846FCF7F6FEA1
:1046D00078550120FDF70AFC761C6D1C0198864276
:1046E000F2D3012207210220FCF75AF80120FDF73E
:1046F000FDFB022208210020FCF731FEE8B2B0E702
:10470000F3B581B00D46802208210020FCF727FE7A
:104710000198FFF7E4FE0090AA210020FCF705FFB6
:104720000024BB210020FCF700FF2855641C002753
:104730000AE00198C15D0020FCF7F7FE2855641CD3
:104740000120FDF7D3FB7F1C01980078B842F0D818
:1047500000200099FCF7E9FE2855641CC820FDF7ED
:10476000C5FB0120287000210846FCF7DEFEAA28C0
:1047700006D0022208210020FCF7F1FD0020FEBD3A
:104780000120FDF7B3FB00210846FCF7CEFEBB2855
:1047900006D0022208210020FCF7E1FD0020EEE710
:1047A0000120FDF7A3FB01984078012806D02028BE
:1047B00006D0212806D0222808D105E00B2607E0E4
:1047C000072605E0132603E0032601E0072600BFC5
:1047D00000BF0027002409E000210846FCF7A5FEE1
:1047E00028550120FDF782FB7F1C641CB742F3D9DA
:1047F000022208210020FCF7B2FDE0B2BFE770B54D
:1048000006460C46002521464348FFF779FF05463A
:10481000284670BD10B54148C06BC008C000401CA0
:104820003E49C863012211461046FBF7CDFF10BD7B
:1048300010B50446FFF7EEFF0120FFF709FA7D20CF
:10484000C000FDF753FB0020FFF702FA10BD70B562
:104850000446FFF7DFFF002505E022460121084658
:10486000FBF79EFF6D1C052DF7DB70BDFEB5064600
:104870000F46002E0AD12AA200210620FDF76DFE68
:104880002DA200210720FDF768FEFEBD00250024B3
:1048900025E06C2C1DDC7B5D29A20421684600F01C
:1048A00035FA68460378A1B200220620FDF719FE0A
:1048B000A41D68464378A1B200220620FDF711FE30
:1048C000A41D68468378A1B200220620FDF709FEE8
:1048D000A41D1DA200210720FDF73FFE6D1CB5425F
:1048E000D7DB00BFD1E770B505460E461446082158
:1048F0000220FBF760FF002828D121462846FFF759
:104900007EFF6420FDF7F2FA012070BD440700101D
:104910001801001022010010A07300004040044064
:104920002020202020202020202020202020202087
:1049300020202020200000004661696C000000005B
:1049400025303258200000004F4B0000002070BD81
:10495000017042707047017042707047016070478B
:1049600010B54CB2047054B244705CB2847010BD87
:104970000160426070470170704710B5029C017081
:1049800042708370C47010BDF8B504460D461646DB
:104990001F46256010223146201D00F043FB0422F3
:1049A00039462046143000F03DFB042220461830E2
:1049B000069900F037FBF8BD1FB5044668468088AD
:1049C0002080694609896180032203A9201DFBF725
:1049D0003BFC07990698E160A0600898206109985F
:1049E00060611FBDF8B504460D4617461E46632D8F
:1049F0000BD0652D0ED06B2D12D0722D14D11C2230
:104A000039462046FBF720FC0FE0307820707078A4
:104A100060700AE0182220460699FBF715FC04E0B6
:104A200007980078207000E000BF00BFF8BDF8B51F
:104A300004460D4616461F4625706670A7701C2258
:104A4000201D0699FBF700FC07982084F8BD10B5DF
:104A50000446242221460A4800F0E4FA24210848AA
:104A6000FFF7F2FB10BD10B504462422214604488E
:104A700000F0D8FA24210248FFF7D8FB10BD00004F
:104A80004E07001010B5002819DA8C4A03071B0FD7
:104A9000083B9B089B00D2588307DC0EFF23A340F2
:104AA0009A434B071B0E8407E40EA3401A43834B23
:104AB0000407240F083CA408A4001A5118E0804AF7
:104AC00003231B02D21883089B00D2588307DC0EF5
:104AD000FF23A3409A434B071B0E8407E40EA34019
:104AE0001A43774B032424021B198408A4001A518B
:104AF00010BD38B5FBF748FCFBF7ACFC0320FBF717
:104B00008DFC70480069C008C0006E490861084605
:104B10000069012108436B4908610122002103203B
:104B2000FBF752FE012200210320FBF739FE012290
:104B300011460320FBF748FE012211460320FBF734
:104B40002FFE012202210020FBF73EFE012202215E
:104B50000020FBF725FE5B484030C06BC008C0005A
:104B600058494031C8630846C06B01210843554984
:104B70004031C863012211461046FBF725FEFDF7C0
:104B800053FA2020FDF76BFA4F4C5048844200D96D
:104B90000FE02002000A401E4D4948610721002015
:104BA000C043FFF76FFF0020494988610720086173
:104BB00000BF0020FCF7DCFA022208210020FCF7ED
:104BC000CEFBFDF7FEFDE1204002FBF793FE022144
:104BD0001520FFF757FF0020034601220421009013
:104BE0001046FBF74BFC04210120FBF726FD0020BB
:104BF0000346012203210090FBF740FC0321002023
:104C0000FBF71BFD00200346012208210090022033
:104C1000FBF734FC08210220FBF70FFD00200346C0
:104C20000122032100900846FBF728FC03210846D7
:104C3000FBF703FD002003460122082100901046E7
:104C4000FBF71CFC08210120FBF7F7FC00200346C2
:104C50000122092100901046FBF710FC09210120D8
:104C6000FBF7EBFC0020034601220A2100901046CE
:104C7000FBF704FC0A210120FBF7DFFC00200346C0
:104C800001220B2100901046FBF7F8FB0B210120BD
:104C9000FBF7D3FC0FA000F02BF8FA20FDF726F964
:104CA0000120FCF765FA022208210120FCF757FBDE
:104CB000E12149020120FEF7E2FA38BD1CED00E0D7
:104CC00000E100E00040044080BB0000FFFFFF0067
:104CD00000E000E00D0A0D0A46535F3131433134E4
:104CE000204D61696E204D656E750D0A0000000053
:104CF0000FB4054910B503AA029800F059FF10BC83
:104D000008BC04B0184700001C0000100FB47CB5AC
:104D10000C0009AA009001D00019401E094B7B44E9
:104D200069460190089800F028FF002C054603D042
:104D300069460020FBF7DDFA28467CBC08BC04B0BD
:104D4000184700007F0E000070B5044685690068B2
:104D5000C10601D5302600E02026C00707D070BD6F
:104D600062683046A1689047206A401C20626D1E30
:104D7000F6D570BD70B5044685690068C00707D1D7
:104D800070BD6268A16820209047206A401C2062A4
:104D90006D1EF6D570BD0000F7B5002675291068A8
:104DA000009914A511D000F03BFE002802DA404221
:104DB00011A508E0009909688A0701D50FA502E04E
:104DC000490704D50EA5012601E000F032FE009F40
:104DD0000024243704E000F0CDFF30313955641C45
:104DE0000028F8D133462A462146009800F053FEA9
:104DF000FEBD0000000000002D0000002B000000A0
:104E000020000000F8B50F460168090502D5224CC4
:104E10007C4402E0204C7C440E34054600212435BD
:104E200008E016071209360FA65D6E541E07491CCE
:104E300032431B0916461E43F3D122460468002361
:104E4000240705D5702F06D0002901D01132022386
:104E500000F021FEF8BD10320123F9E770B50446D9
:104E60000D462146106800F0E4FD00230246294665
:104E70002046FFF7C7FF70BDD21DD308DB000CCB67
:104E8000C0E730B40368202412682343036008237A
:104E9000C36130BC0023B5E796250000F3B5044696
:104EA000002081B0B8E0E16820468847002872D031
:104EB000252802D06268A168ABE0594F00267F44E4
:104EC0002046E16888472028054608DB312D06D2B8
:104ED000781920380078002801D00643F0E7B007A1
:104EE00001D5042086430020E0610746A0612A2DF9
:104EF0000AD0284601F0CAFD002827D0303DB8006E
:104F000000190090856119E00298BA00121902C8D0
:104F1000916102902046E1688847012F054617D12C
:104F2000E06900281FDA202086431CE000980A214F
:104F30008069484300994019303888612046E1680B
:104F40008847054601F0A2FD0028EFD1012F0AD0C5
:104F50002E2D08D12046E1688847054620200643CB
:104F60007F1C022FC3DBA069002803DA4042A06146
:104F700001200643F00701D0102086436C2D0BD092
:104F8000682D09D04C2D3CD06A2D38D0742D38D0E6
:104F90007A2D36D016E041E0E1682F46204688475A
:104FA000B842054609D16C2F29D001208002E16862
:104FB000064320468847054604E06C2F1DD0FF209D
:104FC00001300643002D29D028464138192803D83E
:104FD0000120C00206432035204626602946029A59
:104FE0001646FBF79DF8002810D001280BD0F61DBF
:104FF000F008C0000830029055E74020E1E780202B
:10500000D5E70020D3E7361D02964CE762682846B4
:10501000A1689047206A401C206244E7206AFEBDD8
:1050200010250000F8B5042A2CD3830712D00B7882
:10503000491C0370401C521E83070BD00B78491C7F
:105040000370401C521E830704D00B78491C037068
:10505000401C521E8B079B0F05D0C91ADF0020236E
:10506000DE1B08C90AE0FBF7EFF8F8BD1D4608C9CA
:10507000FD401C46B4402C4310C0121F042AF5D238
:10508000F308C91A521EF0D40B78491C0370401C57
:10509000521EEAD40B78491C0370401C521EE4D403
:1050A00009780170F8BDD2B210B513029A18130432
:1050B0009A1800F00EF810BD01E004C0091F042981
:1050C000FBD28B0701D50280801CC90700D002707B
:1050D000704700290BD0C30702D00270401C491E44
:1050E000022904D3830702D50280801C891EE3E7CE
:1050F0000022EEE70022DFE7002203098B422CD3D7
:10510000030A8B4211D300239C464EE003460B4317
:105110003CD4002243088B4231D303098B421CD379
:10512000030A8B4201D394463FE0C3098B4201D36B
:10513000CB01C01A524183098B4201D38B01C01AA3
:10514000524143098B4201D34B01C01A524103091A
:105150008B4201D30B01C01A5241C3088B4201D3C9
:10516000CB00C01A524183088B4201D38B00C01A76
:10517000524143088B4201D34B00C01A5241411A9D
:1051800000D201465241104670475DE0CA0F00D080
:105190004942031000D34042534000229C46030979
:1051A0008B422DD3030A8B4212D3FC22890112BAFF
:1051B000030A8B420CD3890192118B4208D38901D7
:1051C00092118B4204D389013AD0921100E08909EF
:1051D000C3098B4201D3CB01C01A524183098B42D0
:1051E00001D38B01C01A524143098B4201D34B01B9
:1051F000C01A524103098B4201D30B01C01A52411C
:10520000C3088B4201D3CB00C01A524183088B42A2
:1052100001D38B00C01A5241D9D243088B4201D32B
:105220004B00C01A5241411A00D201466346524116
:105230005B10104601D34042002B00D54942704715
:1052400063465B1000D3404201B50020C046C04613
:1052500002BD00000246C80FC00781434B0030B5B5
:105260004B405B009B0D20D01923DB06C91801239E
:105270001B05994220DB0324A40704251346AB40F9
:105280000BD3002B04D1EB0613409B001B1904D455
:1052900001246407002312195941FF231B05994279
:1052A0000BD2C9000143500F09E0CB0204D50143E2
:1052B0000803024305D0054830BDFF21C905084356
:1052C00030BD084607210905884330BD0000C07F76
:1052D000F0B59446F74A0E091D09174616401540C9
:1052E0000C46B2435C408BB0002A7DD0AF43FCD06B
:1052F000002D7AD0002EFCD0E20F3243521BFF2447
:10530000A40412190792420DC902C7021143604654
:10531000420DDC021443C2020120C00701430443D2
:105320000191200C110C8C46010423468B430891FB
:1053300061460904E04D8A430991010A7D444919F7
:105340008039097805464D4301266D18F605751B11
:105350006943C90C891C640B4C436418B5012D1BAF
:105360002C0C2604B5434D434C43290C6118890984
:105370000691F90701D00121C907039101997F081E
:10538000CC0727434C08069DE10B4D43290C65468D
:105390000E464D4346437D1BB44100950D465D438B
:1053A0002E0C2F040D46019455430024AE462404D0
:1053B0002D0C34433D43264602957546039C2D042F
:1053C000641B039405D2029C3546641C00266E4182
:1053D0000294009F029D019C7D1BB441090400952D
:1053E00001940591A40801E03EE16DE106990026D3
:1053F0006143090C0C464443650BE70464464C4387
:10540000F604A6462E43640B274335467446039E96
:10541000E404341B039402D200267F1C7541009ED5
:10542000019CF61BAC4101940C465C43650FE70000
:1054300000960C4600265443F600A6462E43640F01
:10544000274335467446039EE400341B039402D27E
:1054500000267F1C7541009E019CF61BAC41B509DE
:10546000A4062C43039DB706AD092F43039DC90035
:10547000AD060395059D691805910699E50B6943ED
:10548000090C65460E464D4346437D1BB4410095CD
:105490000D465D432E0C2F040D4655430194AE4638
:1054A000002424042D0C34433D43264602957446C3
:1054B000039D24042C1B039405D2029C3546641CD6
:1054C00000266E410294009F029D019C7D1BB44109
:1054D00001948C0500950494059C890A6118059136
:1054E000019C0699A4086143090C0C464443002022
:1054F000650BC0042843E50464464C43660B07462D
:1055000003982E43E404001B039002D20020761C73
:105510004741009C0198A41BB84101900846A4464D
:1055200058430024450FE6002E430D46C70055435F
:10553000680F3443039E3843ED00751B02D20026EA
:10554000401C74416746019E381AA6418409B7067B
:105550002743AC09800620434C02AE0604998446DA
:105560006418059D0020684105900020089900906E
:10557000604619430018099B7F411343F20F3D46D3
:10558000104377002A46C61A8A41954203D9012062
:10559000009030461546EE0F00186D41B646FA0FE2
:1055A00000260243304628437D000395009D6F008E
:1055B000D61A0546B4468D417646002E01D1A84242
:1055C00002D97F1C62462846C50F9618039AAC463E
:1055D0004041D50F0246354378001646EB1A8E41FE
:1055E00019466346002B01D1B24202D9401C0D4638
:1055F00032462A4301D001210C434002059A002182
:10560000001951410222002902DB01220018494100
:10561000079B4C051B14D318C90A1B05CB18079907
:105620004205C00AC90720435940002A09D0012475
:10563000A24006D30024401C6141002A01D1400849
:1056400040001E4A002B04DB1C46144201D09A4342
:1056500025D101220798920690423DDC03204007A5
:105660000818C10FC9073EE00E4607184E41144DF9
:105670007A42B5411BD3624696181D465D41104AD9
:105680007642AA4113D3012252054D00D5420BD1D7
:105690005C00D4420BD04B4003D5920211430BB0B7
:1056A000F0BD49004908FAE7E10FC9071BE00020F7
:1056B0000449F4E70000FF07A32000000000F07F8A
:1056C0000000E0FF0000F87F0D48014201D02146B4
:1056D00005E00342EBD0E7E7052040070918094839
:1056E0000143C01241400020D9E75940504010B555
:1056F0004B40424059405040FFF7EAFD10BD0000CA
:105700000000F07FFFFFFF7F1F22030C02D10F225A
:10571000000402D0030E02D003E000217047083AD3
:105720000002030F01D1121F0001830F01D1921E4D
:105730008000002801DB521E40001205511842056E
:10574000C012411810467047C10FC90700D040422F
:10575000012292071143D7E701218907D4E700000E
:10576000F0B59E4C0D092646AC46AE430D465D4055
:1057700089B0002E7ED01E092746B743FAD067466F
:105780002740ED0F3D43264075D024012142FBD038
:105790007419FF25AD04641B0494CC02D9020123C3
:1057A0001B05E40AC90A1C4319432401030F1C43C7
:1057B0000B010501110F0B43A00B81032D091601ED
:1057C0008C43A90B8A0395439A0B9703BB43360975
:1057D0009C46B30B9F03BE430F465F4303972F4680
:1057E000774302964E19BE460796029FDF197E4305
:1057F0000597039FF71B7646BE1B77463F01009730
:105800000196039FB60BF619B646019E009FB6049B
:10581000BF1902D37646761CB64676467600002F30
:1058200001D001273E4367467D430695029D2746EA
:105830006F4300977F00069DBE196F00BD19664635
:105840009619079FAE467743069D03967D1B0195EB
:105850000619059D009F75430296EE1B019D51435D
:105860006D1A07465F43F31B019500937546EB06DF
:10587000734601E092E08EE003D05B0901252B43E3
:1058800000E05B0900263546B6460E0A2D060906DD
:105890003543CB1876467541AE4600213D0A0906D0
:1058A0003E062943F61875466941B646019B002617
:1058B0009D0DB7022F439B0276469B194F410099DD
:1058C00000258E0DAD028902C91835437D41504334
:1058D00062465443039B029A5A43121A161B002233
:1058E000B70E9301B60175193B435341070B1205DF
:1058F000000545193A435A4100200306270A2006AD
:105900003B43441814266B41AB4200D2521C012089
:105910004002824203D315260221C94301E003213C
:10592000C9432020851BAA401F46AF40F3401343C4
:105930002046049AF0401214891809055A1804994F
:105940003843C9075140AC4009D001239C4006D3DD
:105950000023401C5941002C01D140084000204B3D
:10596000002A03DB1A4201D08B4312D10122049892
:105970009206904207DB05204007091819480143A9
:10598000C012414004E0032040070818C10FC907B6
:10599000002009B0F0BD0020E907FAE706180C4620
:1059A0004C4111487642A04114D394181A465A41EA
:1059B0000D48644290410DD30120490040058142C9
:1059C00008D35900814205D3E90F054AC9070020D1
:1059D0001143DEE700200549DBE700000000FF0778
:1059E0000000F07FFFFFFF7F0000E0FF0000F87F76
:1059F00001460002CA1504D00123DB071843002A20
:105A000009DB9E239A1A01D4D0407047FF22480038
:105A10001206904201D900207047C817C043704752
:105A200009684A0501D540B27047C905FCD500B2E6
:105A3000704709684A0501D5C0B27047C905FCD551
:105A400080B2704770B505460C46012A05D028681B
:105A5000800600D5EA69002302E0012305E05B1C13
:105A6000934202D2E05C0028F9D1A869E618C01A76
:105A7000A861286AC01828622846FFF765F904E083
:105A80006A682078A968641C9047B442F8D3284615
:105A9000FFF770F970BDFFB504460D4681B02430A4
:105AA00000902168880604D51022E06991432160A6
:105AB00000E00120A84201DD471B00E00027049818
:105AC000A1697A191018081AA0612068C00602D4CA
:105AD0002046FFF739F9002608E003986268A168BC
