:020000040000FA
:10000000580400109D020000A1020000A30200009D
:10001000A5020000A7020000A902000000000000E5
:10002000000000000000000000000000AB02000023
:10003000AD02000000000000AF020000CB25000070
:10004000B3020000B3020000B3020000B3020000DC
:10005000B3020000B3020000B3020000B3020000CC
:10006000B3020000B3020000B3020000B3020000BC
:10007000B3020000B3020000530B0000B302000003
:10008000B3020000B3020000B3020000B30200009C
:10009000110B000041080000B3020000B302000091
:1000A000B3020000B3020000B3020000B30200007C
:1000B0003539000013390000DF380000B138000086
:1000C00000F002F800F0BFF80CA030C8083824187F
:1000D0002D18A246671EAB4654465D46AC4201D180
:1000E00000F0B1F87E460F3E0FCCB64601263342F3
:1000F00000D0FB1AA246AB46334318477874000081
:1001000098740000103A02D378C878C1FAD8520720
:1001100001D330C830C101D504680C6070470000BD
:100120000023002400250026103A01D378C1FBD813
:10013000520700D330C100D50B60704710B56E294F
:1001400002D105F0C7F810BD702902D105F01DFAE3
:1001500010BD662902D106F013FD10BD652902D13C
:1001600006F00EFD10BD672902D106F009FD10BD95
:10017000612902D1C046C04610BD03681B0A01D3E5
:1001800080231943692902D103F0E8FF10BD6429D7
:1001900002D103F0E3FF10BD752902D103F0DEFFA9
:1001A00010BD6F2902D105F09BF910BD782902D14D
:1001B00005F0D8F910BDE92902D105F037F910BDD5
:1001C000E42902D105F032F910BDF52902D105F07C
:1001D0002DF910BDEF2902D105F08EF910BDF829D7
:1001E00002D105F0CDF910BD0368DB0901D38023EE
:1001F0001943632902D105F076FC10BD732902D1A1
:1002000005F079FC10BDE32902D105F083FC10BD97
:10021000F32902D105F086FC10BD002010BD1FB5EA
:10022000C046C04605F024FD04000020002106F071
:1002300025FB401C60600020002106F009FBE06007
:100240001FBD10B510BD05F0EBFC1146FFF7E7FF31
:1002500002F0C1F906F01EF803B4FFF7F2FF03BC89
:1002600000F045FC70B505460C46164602E00FCC82
:100270000FC5103E102EFAD2082E02D303CC03C5B0
:10028000083E042E07D301CC01C5361F03E02178B8
:100290002970641C6D1C761EF9D270BD0848004799
:1002A000FEE7FEE7FEE7FEE7FEE7FEE7FEE7FEE726
:1002B000FEE7FEE703480449024A044B704700008A
:1002C000C10000005802001058040010580200102D
:1002D000704700000FB4054910B503AA029805F055
:1002E00033F810BC08BC04B0184700001C00001014
:1002F000704770477047000000000000FFFFFFFFDD
:100300003049314A11600121304A116051600021A9
:1003100051600121516000BF2C494968C907C90FCC
:10032000FAD02A4940398868400A40020321014333
:10033000264A403A91602649896B80229143244A9B
:10034000916300BF21494039C968C907C90FF9D075
:1003500003211E4A116301215163002151630121D0
:10036000516300BF1949496BC907C90FFAD0012170
:10037000164A9163144909688900164A11601146AA
:100380000968154A1160704700B502200F494039CD
:100390000860002008620E48806B202188430C49C9
:1003A0008863002300E05B1CFF2BFCD9FFF7A8FF4C
:1003B00006484030006801210904084303494031E0
:1003C000086000BD001BB700000000104080044022
:1003D000008204400400001008000010A0211B4A05
:1003E00051621A49C03108610121184AC032516175
:1003F000002151610121516100BF1449C031496997
:10040000C907C90FF9D00121104AC03291611049C2
:10041000896B402291430E4A916370470B49C0316A
:1004200008620121094AC032516200215162012152
:10043000516200BF0549C031496AC907C90FF9D0E7
:100440000121024AC03291627047000000800440DE
:100450000082044010B5F348006840210843F14988
:1004600008601F2000F0D7F91E2000F0D4F91D20ED
:1004700000F0D1F91C2000F0CEF910BD70B5049C3D
:10048000002806D0012838D002286AD003287BD162
:100490009CE0002A18D1E44D6D6801268E40B543DA
:1004A000E14E7560002B07D13546AD6801268E40C0
:1004B000B543DD4EB5600EE0DB4DAD6801268E40E4
:1004C0003543D94EB56006E0D74D6D6801268E40A4
:1004D0003543D54E7560002C07D1D34DED6801260C
:1004E0008E40B543D04EF56006E0CF4DED68012655
:1004F0008E403543CC4EF5609DE0002A18D1CB4D9F
:100500006D6801268E40B543C84E7560002B07D13B
:100510003546AD6801268E40B543C44EB5600EE049
:10052000C24DAD6801268E403543C04EB56006E031
:10053000BE4D6D6801268E403543BC4E7560002C63
:1005400007D1BA4DED6801268E40B543B74EF56030
:1005500006E0B64DED6801268E403543B34EF5609A
:1005600069E0002A19D1B24D6D6801268E40B5436D
:10057000AF4E7560002B08D13546AD6801268E4020
:10058000B543AB4EB5600FE054E0A94DAD68012610
:100590008E403543A64EB56006E0A54D6D68012638
:1005A0008E403543A24E7560002C07D1A04DED68FA
:1005B00001268E40B5439E4EF56006E09C4DED68E9
:1005C00001268E4035439A4EF56034E0002A18D15A
:1005D000984D6D6801268E40B543964E7560002B90
:1005E00007D13546AD6801268E40B543914EB560C2
:1005F0000EE0904DAD6801268E4035438D4EB560BE
:1006000006E08C4D6D6801268E403543894E75603D
:10061000002C07D1874DED6801268E40B543854EED
:10062000F56006E0834DED6801268E403543814E2E
:10063000F56000E000BF00BF70BD002806D00128B3
:100640000CD0022812D0032820D117E0764A126974
:1006500001238B401A43744B1A6118E0734A1269E4
:1006600001238B401A43714B1A6110E0704A1269E2
:1006700001238B401A436E4B1A6108E06D4A1269E0
:1006800001238B401A436B4B1A6100E000BF00BF8F
:100690007047002806D001280CD0022812D0032869
:1006A00020D117E0604A126901238B409A435E4BC8
:1006B0001A6118E05D4A126901238B409A435B4B33
:1006C0001A6110E05A4A126901238B409A43584B31
:1006D0001A6108E0574A136901228A409343554A38
:1006E000136100E000BF00BF704710B50246002054
:1006F000002A06D0012A0CD0022A12D0032A20D1C7
:1007000017E0494B9B6901248C40234200D0012013
:1007100018E0464B9B6901248C40234200D0012005
:1007200010E0434B9B6901248C40234200D0012000
:1007300008E0404B9B6901248C40234200D00120FB
:1007400000E000BF00BF10BD002806D001280CD07B
:10075000022812D0032820D117E0334AD26901239E
:100760008B401A43304BDA6118E0304AD2690123DA
:100770008B401A432D4BDA6110E02D4AD2690123D8
:100780008B401A432A4BDA6108E02A4AD2690123D6
:100790008B401A43274BDA6100E000BF00BF70476F
:1007A00030B513468B408400234D2D5901248C40D5
:1007B000A4002B5130BD024690001F4B1B58012056
:1007C000884080001858704730B5002A11D0830047
:1007D000194CE3580124E4031B191B6801248C40C5
:1007E00023438400144D2C590125ED036419236023
:1007F00010E08300104CE3580124E4031B191B682C
:1008000001248C40A34384000B4D2C590125ED039A
:100810006419236030BDC206D20E01219140074AFF
:1008200011607047808004400080005000800150BB
:100830000080025000800350906B000000E100E057
:1008400070B500BF864A9268D0B240104007400F92
:10085000032820D1824A5269D1B29E22114205D08A
:10086000804A11607E4A1268D3B270BDCA07D20FA7
:100870003ED07B4C2468E5B27B4C2268541C7A4EF7
:1008800034607A4CA55432461268402A30D3002294
:10089000344622602CE0022811D1714C2468E5B264
:1008A000714C2268541C704E3460704CA554324612
:1008B0001268402A1CD300223446226018E0062821
:1008C00007D1684A1268FF2401342243654C226034
:1008D0000EE001280CD1624A5269D1B220221142A5
:1008E00003D00122624C227002E00022604C227090
:1008F00000BFBAE7F8B5044601205D490870002042
:100900005949086000BF1520012181405948016004
:1009100000BF5948406AC008C000574948620846AD
:10092000406A01210843544948620846806AC00869
:10093000C00088620846806A012108434E498862E7
:100940004E4800680121090308434C490860012012
:10095000886183204249C8604848876939464848C9
:10096000006803F01BFD06092146304603F016FD22
:100970000546280A3A494860E8B208600320C86082
:10098000072088600846476900BF354840696021F4
:1009900008406028F9D101E03148076830484069D3
:1009A000C007C00FF8D100BF152001218140314898
:1009B0008038016000BF052029494860F8BD0AE081
:1009C00000BF274A526920231A42FAD00278244BEA
:1009D0001A60401C491E0029F2D1704700BF20490F
:1009E000496920221142FAD01D490860704700B5BC
:1009F000034603E018785B1CFFF7F0FF1878002827
:100A0000F8D100BD0FB400B59BB01DA800906421C3
:100A100001A8009B1C9A03F069FB01A8FFF7E7FF00
:100A20001BB008BC04B018470146164800680E4ABF
:100A30001268904211D00D48124A1268805C08700A
:100A400010480068401C0F4A10601046006840289B
:100A500001D300201060012070470020FCE7000057
:100A600000800040180000101000001098000010D6
:100A70000C00001080E100E08040044080800440D1
:100A8000080000101400001000BF1E494969202210
:100A90001142FAD01B490860704710B503460C4656
:100AA0001846FFF7F1FF10BD00BF17480068002887
:100AB000FBD0062013494860002013490860072036
:100AC0001049486011480078704710B50446FFF798
:100AD000EBFF0346FFF7D8FF10BD00B503461846ED
:100AE000FFF7D2FF00BD01460020C043704700BFA2
:100AF000FEE700BF03484069C007C00FFAD00148B5
:100B0000006870470080004010000010980000103E
:100B1000FE49C869C107C90F07D0FD490968491CCA
:100B2000FB4A11600121F94A11620221084207D0F3
:100B3000F8490968491CF74A11600221F34A116219
:100B40000421084204D0F4490968491CF24A1160A2
:100B50007047F249C869C107C90F07D0F049096851
:100B6000491CEF4A11600121EC4A1162022108423E
:100B700007D0EC490968491CEA4A11600221E74A9A
:100B800011620421084204D0E7490968491CE64A79
:100B90001160704710B50446002C47D1E348406807
:100BA00001210843E1494860E04880300068C914E9
:100BB0000843DE498031086002204861DC48006A51
:100BC000C008C000DA4908620846006A01210843EB
:100BD000D74908620846406AC008C0004862084613
:100BE000406A01210843D24948620120D04940317E
:100BF0000863CF490863CD4880300068402108432E
:100C0000CA4980310860CA484038C069C008C0007D
:100C1000C7494039C861012202210020FFF7D4FDF5
:100C2000012202210020FFF7BBFD54E0BF484068CD
:100C300004210843BD494860BC4880300068012158
:100C400089040843B949803108600220C861B84866
:100C5000C069C008C000B649C8610846C069022121
:100C60000843B349C861B2484030C068C008C000FA
:100C7000AF494031C8600846C06802210843AC490A
:100C80004031C860AA484038806AC008C000A849FE
:100C9000403988620846806A02210843A4494039E5
:100CA0008862A24880300068402108439F49803113
:100CB00008609F4840388068C008C0009C4940399F
:100CC0008860012200210220FFF77EFD0122002121
:100CD0000220FFF765FD10BD10B50446002C69D158
:100CE0009248406801210843904948608F4880300D
:100CF0000068C91408438D498031086002204861AA
:100D00008B48006AC008C000894908620846006A2A
:100D100001210843864908620846406AC008C000AD
:100D200048620846406A012108438149486202201E
:100D30007F49403108637E49C8607C488030006844
:100D40004021084379498031086079480068C0082B
:100D5000C00077490860012204210220FFF734FD1A
:100D6000012204210220FFF71BFD71484038006872
:100D7000C008C0006E4940390860012206210220E7
:100D8000FFF722FD012206210220FFF709FD684836
:100D90004038006AC008C000654940390862012235
:100DA00007210220FFF710FD012207210220FFF793
:100DB000F7FC54E05D484068042108435B49486003
:100DC0005A4880300068012189040843574980311E
:100DD00008600220C8615648C069C008C000544974
:100DE000C8610846C069022108435149C86150489A
:100DF0004030C068C008C0004D494031C860084656
:100E0000C068022108434A494031C8604848403818
:100E1000806AC008C0004649403988620846806A36
:100E200002210843424940398862404880300068C6
:100E3000402108433D49803108603D484038806882
:100E4000C008C0003A4940398860012200210220D0
:100E5000FFF7BAFC012200210220FFF7A1FC10BD20
:100E600070B5054600BF002D16D1324827490860ED
:100E7000FE200861002404E024488068C6B2601C9B
:100E8000C4B2082CF8DB142000F003F902201F493B
:100E900048600320486115E0264820490860022088
:100EA0000861002404E01D488068C6B2601CC4B21A
:100EB000082CF8DB0E2000F0ECF8022017494860FF
:100EC0000320486170BDF8B507460D4616460098E8
:100ED0000090002F30D1681E0721090208430B49FA
:100EE000086008460661002405E008488068C0B232
:100EF0000090601CC4B2082CF7DB142000F0C9F885
:100F0000022002494860032048612FE000000440AD
:100F1000280000102C000010240000100080054064
:100F20003400001038000010300000100080044031
:100F30004040044007070000681E072109020843DB
:100F40005749086008460661002405E05448806857
:100F5000C0B20090601CC4B2082CF7DB0E2000F079
:100F600098F802204E49486003204861F8BD70B5EA
:100F700000BF00232DE0002815D100BF494DED68CA
:100F800012263540022DF9D10D78464EB560491C28
:100F900000BF444DED6814263540042DF9D1414D74
:100FA000AD68ECB214E000BF3D4DED68122635404F
:100FB000022DF9D10D783A4EB560491C00BF384D6D
:100FC000ED6814263540042DF9D1354DAD68ECB2ED
:100FD0005B1C9342CFD370BD30B500231FE00028C7
:100FE0000ED1FF242F4DAC6000BF2E4CE4681425B9
:100FF0002C40042CF9D12B4CA4680C70491C0DE03A
:10100000FF24274DAC6000BF254CE46814252C401C
:10101000042CF9D1224CA4680C70491C5B1C93422F
:10102000DDD330BD0246002A19D100BF1D48C0687B
:10103000122318400228F9D11A48816000BF1948CC
:10104000C06810231842FAD100BF1648C0681423A4
:1010500018400428F9D11348806880B2704700BF57
:101060000F48C068122318400228F9D10C4881604B
:1010700000BF0B48C06810231842FAD100BF0848CF
:10108000C068142318400428F9D10548806880B24C
:10109000E4E7C206D20E01219140034A1160704775
:1010A000008005400000044000E100E070B5054606
:1010B0006848806B102188436649886366480068E9
:1010C00001214903084364490860002404E000202A
:1010D000A100624A5050641C082CF8D36048406953
:1010E0008F2188435E4948610846406901210843D1
:1010F0005B4948615A484038C06A8F218843584943
:101100004039C8620846C06A012108435449403941
:10111000C862534880698F218843514988610846D5
:101120008069012108434E49886129464D4800687D
:1011300003F034F9401E00024B4908434B49086054
:1011400070BD70B505464348806B10218843414906
:101150008863414800680121490308433E4908600B
:10116000002404E00020A1003C4A5050641C082CDC
:10117000F8D33B484038406B872188433849403991
:1011800048630846406B02210843354940394863AB
:101190003348006887218843314908600846006861
:1011A000022108432E49086029462E48006803F0B2
:1011B000F5F8401E00022C4908432C49086070BD18
:1011C00030B50146082900DB002128480068000AE4
:1011D0000002264C2060204604680120884001253A
:1011E0002D06284304432148046007E088001F4C73
:1011F00000190269D00FC00700D000E0F6E700BF79
:101200001A48006807242406A043184C20600120D7
:101210008007024201D0002030BD1004830D184623
:10122000FAE71248006807210906084204D00F486F
:10123000006888430D4908600C480068FF21084396
:101240000A49086008460068012109040843074963
:10125000086070470082044080800440D80000107D
:1012600080400440080000100100200000C0014040
:10127000F1B582B021488469406901902049029803
:10128000484300900199009803F088F807460199B7
:10129000009803F083F80D46002F0ED000260AE0D8
:1012A00000BF16488069A042FBD300BF1348806985
:1012B000A042FBD8761CBE42F2D3002D1DD0A54221
:1012C00006D200BF0D488069611B8842FAD814E03D
:1012D000A54205D100BF09488069A042FBD30CE0BC
:1012E00000BF06488069A042FBD300BF0348816964
:1012F0002A1B0198801A8142F8D8FEBD00E000E068
:1013000080BB000010B5002203211046FFF75CFAF5
:10131000002204210120FFF757FA002208210120B2
:10132000FFF752FA002209210120FFF74DFA0022AF
:101330000A210120FFF748FA00220B210120FFF7C4
:1013400043FA10BD10B508210120FFF734FA002838
:1013500001D1012010BD09210120FFF72CFA00283E
:1013600001D10220F6E70A210120FFF724FA002824
:1013700001D10320EEE70B210120FFF71CFA002822
:1013800001D10420E6E703210020FFF714FA00282A
:1013900001D10520DEE704210120FFF70CFA002827
:1013A00001D10620D6E70020D4E7000000BF0146A7
:1013B000421ED0B20029FAD1704770B5064600250A
:1013C00010E000230AE0002404E0CB20FFF7EEFF4A
:1013D000601CC4B20F2CF8DB581CC3B2832BF2DBA9
:1013E000681CC5B2B542ECDB70BD10B504460022E6
:1013F00005210220FFF7D4F9002204210220FFF783
:10140000CFF921460020FFF70DFE01220421022022
:10141000FFF7C6F9012205210220FFF7C1F910BD2F
:1014200010B50446012205210220FFF7B9F9002278
:1014300004210220FFF7B4F921460020FFF7F2FD56
:10144000012204210220FFF7ABF90122052102202D
:10145000FFF7A6F910BD70B504462546E117090F40
:10146000091909110901611AC8B2FFF7BEFF254623
:10147000E117090F0919091108461030FFF7B5FFE8
:1014800070BD10B504462020FFF7AFFF2046FFF7E0
:10149000ACFF10BD70B505460C462120FFF7A5FF37
:1014A0002846FFF7A2FF2046FFF79FFF70BD70B5EB
:1014B00005460C462220FFF798FF2846FFF795FFC8
:1014C0002046FFF792FF70BD10B50446214640222A
:1014D00011430846FFF789FF10BD10B5044681206F
:1014E000FFF783FF2046FFF780FF10BD10B50446CD
:1014F0008D20FFF77AFF2146102211430846FFF79F
:1015000074FF10BD10B504462146A02211430846C1
:10151000FFF76BFF10BD10B504462146A42211430E
:101520000846FFF762FF10BD10B504462146A6220B
:1015300011430846FFF759FF10BD10B50446A82017
:10154000FFF753FF2046FFF750FF10BD10B50446CC
:101550002146AE2211430846FFF747FF10BD10B5E4
:1015600004462146B02211430846FFF73EFF10BD56
:1015700010B504462146C02211430846FFF735FF47
:1015800010BD10B50446D320FFF72FFF2046FFF70C
:101590002CFF10BD10B50446D520FFF726FF2046CE
:1015A000FFF723FF10BD10B50446D920FFF71DFF3C
:1015B0002046FFF71AFF10BD10B50446DA20FFF7EA
:1015C00014FF2146022211430846FFF70EFF10BD0B
:1015D00010B50446DB20FFF708FF2046FFF705FFA4
:1015E00010BD10B5E320FFF700FF10BD70B5064633
:1015F000002410E02046FFF7B2FF0020FFF72BFF8A
:10160000002504E03046FFF70BFF681CC5B2802DB3
:10161000F8DB601CC4B2082CECDB70BD10B50020F8
:10162000FFF7E4FF10BDFFB581B00D4616461F461B
:101630002C4615E02046FFF792FF3846FFF70BFFD8
:101640000020009006E00198FFF7EAFE0098401C99
:10165000C0B200900A9900988842F4DB601CC4B2C2
:10166000701C8442E6DB05B0F0BD70B5002413E0C9
:101670002046FFF774FF0020FFF7EDFE002507E08E
:101680005520FFF7CDFEAA20FFF7CAFE681CC5B2A1
:10169000402DF5DB601CC4B2082CE9DB70BD70B5D1
:1016A0000020FFF75CFF0020FFF7D5FE002404E0D8
:1016B0000120FFF7B5FE601CC4B2802CF8DB0720C8
:1016C000FFF74DFF0020FFF7C6FE002404E0802056
:1016D000FFF7A6FE601CC4B2802CF8DB002411E0EA
:1016E0002046FFF73CFF002508E02846FFF7B3FE41
:1016F000FF20FFF795FE28467F30C5B2802DF4DB32
:10170000601CC4B2082CEBDB70BDFFB581B007468E
:101710000D46012F02D0022F0BD104E0A80028189B
:10172000FF49441805E0681E81004018FD4944182F
:1017300000BF00BF0398FFF712FF0498FFF78BFE6E
:10174000002605E02078FFF76BFE641C701CC6B213
:10175000052EF7DB0020FFF763FE05B0F0BDFFB5F7
:1017600081B007460D461E462C46334660210120B7
:10177000039AFFF7CAFF0CE0217833463846039AF4
:10178000FFF7C3FF641CB01DC6B22078002800D14B
:1017900000E0F1E700BF05B0F0BDFFB583B005463E
:1017A0000E4617460295344619E02046FFF7D7FE4D
:1017B0000698FFF750FE002001900AE00299087891
:1017C000FFF72EFE0298401C02900198401CC0B208
:1017D00001900C9901988842F0DB601CC4B2781C1F
:1017E0008442E2DB07B0F0BDFFB581B00F4614467E
:1017F0000498203881004018C94945180198FFF71E
:10180000AEFE002F0BD10020FFF725FE002C03D1E8
:101810000020FFF705FE02E0FF20FFF701FE791C24
:10182000C8B2FFF718FE00260DE0002C03D128787F
:10183000FFF7F6FD04E02978C943C8B2FFF7F0FDD1
:101840006D1C701CC6B2052EEFDB002C03D10020EE
:10185000FFF7E6FD02E0FF20FFF7E2FD05B0F0BD77
:10186000F8B506460F4614460025082E18DA08E09B
:1018700023783A4629463046FFF7B6FFA81D85B2C1
:10188000641C2078002801D0012000E00020691CA1
:1018900089B2802901DA012100E000210842E7D164
:1018A000F8BDFFB581B015461F46A320FFF79DFD8B
:1018B0000298FFF79AFD2846FFF797FD0198002848
:1018C00002D0012825D111E000240CE0E0B2FFF79E
:1018D000FBFD002603E0C820FFF768FD761C0A9890
:1018E0008642F8D3E419AC42F0D312E000240DE0B4
:1018F000291BC8B2FFF7E8FD002603E0C820FFF768
:1019000055FD761C0A988642F8D3E419AC42EFD311
:1019100000BF00BF0020FFF7D7FD05B0F0BDFFB549
:1019200081B004460D4616461F4621462622114325
:101930000846FFF75AFD0020FFF757FD2846FFF73E
:1019400054FD3846FFF751FD3046FFF74EFD2F207E
:10195000FFF74BFD0A98FFF730FD05B0F0BDFFB56E
:1019600081B004460D4616461F46A320FFF73DFDF5
:101970003846FFF73AFD0A98FFF737FD214629312F
:10198000C8B2FFF732FD0020FFF72FFD2846FFF712
:101990002CFD0C98FFF729FD3046FFF726FD0B982C
:1019A000FFF723FD2F20FFF720FD0D98FFF705FD22
:1019B00005B0F0BD10B52E20FFF717FD10BD10B516
:1019C0000120FFF7C3FD00240CE0E0B2FFF785FD26
:1019D000C820FFF7EBFCC820FFF7E8FCC820FFF7A2
:1019E000E5FC641CD02CF0D310BD10B5D0240DE064
:1019F000611EC8B2FFF771FDC820FFF7D7FCC820F1
:101A0000FFF7D4FCC820FFF7D1FC641E002CEFD1F7
:101A10000020FFF79BFD10BD10B50446002C02D03E
:101A2000012C0ED106E00020FFF790FD0120FFF70A
:101A300072FD06E00020FFF76EFD0120FFF786FD36
:101A400000BF00BF10BD0120FFF765FD0BE00120C6
:101A5000FFF77CFD0220FFF7B0FC0020FFF776FDCA
:101A60000220FFF7AAFCF2E710B50020FFF76EFD99
:101A70008020FFF78FFD3F20FFF75FFD0020FFF77D
:101A800080FD0020FFF720FD0020FFF72FFD022042
:101A9000FFF7F7FC0120FFF735FD0820FFF768FD91
:101AA0001020FFF789FDCF20FFF717FD2220FFF759
:101AB0007AFD4020FFF78CFD0020FFF72CFD002071
:101AC000FFF732FD0020FFF791FD0120FFF73EFDFB
:101AD00010BD10B5012205210220FEF775FE002081
:101AE000FFF734FD8020FFF755FD3F20FFF725FD70
:101AF0000020FFF746FD0020FFF7E6FC0420FFF77B
:101B0000F5FC0220FFF7BDFC0120FFF7FBFC0820DD
:101B1000FFF72EFD1020FFF74FFDCF2004E000005F
:101B2000706C000025710000FFF7D7FCF120FFF773
:101B30003AFD4020FFF74CFD0020FFF7ECFC0020B1
:101B4000FFF7F2FC0020FFF751FD0120FFF7FEFC3C
:101B500010BD00B587B05AA207CA04AB07C3002066
:101B6000FFF744FD30230093282305220221574824
:101B7000FFF713FE0520FFF720FCFFF736FF0520D7
:101B8000FFF71BFCFFF71BFF0520FFF716FC2023C8
:101B900000930123402200210846FFF782FE052022
:101BA000FFF70BFC2023009301234022002118465D
:101BB000FFF777FE0520FFF700FCFFF7FBFE05208F
:101BC000FFF7FBFB012300222020019303930292E5
:101BD0000090134611461046FFF7C1FE0520FFF79F
:101BE000ECFB012300221F21202003936B4607C337
:101BF000134611461046FFF7B2FE0520FFF7DDFB46
:101C0000022300220121202003936B4607C31346C1
:101C1000032200210846FFF7A2FE0520FFF7CDFBB7
:101C2000022300221F21202003936B4607C3134683
:101C3000032200210120FFF792FE0520FFF7BDFBE4
:101C4000022300220121202003936B4607C3134681
:101C5000072204210120FFF782FE0520FFF7ADFBDC
:101C6000022300221F21202003936B4607C3134643
:101C7000072204210020FFF772FE0520FFF79DFBDD
:101C8000FFF798FE0520FFF798FBFF20FFF7AEFC5B
:101C90000520FFF792FBFFF7E8FC0520FFF78DFB1F
:101CA0000020FFF7A3FCFFF7FAFC0520FFF785FBF8
:101CB0002523032204A90120FFF751FD07B000BD31
:101CC000354E49564953494F4E000000B06B000055
:101CD00070B504460D46002211460220FEF760FD55
:101CE000E800802210436200104301460120FFF704
:101CF00099F900210120FFF795F9C6B201220021D0
:101D00000220FEF74DFD304670BD10B502210020C7
:101D1000FFF7DEFF0446A406A40E042C13D1002115
:101D20000846FFF7D5FFF849F84A12888854F74863
:101D30000088401CF549088008460088802807DB99
:101D40000020088004E000210846FFF7C1FF044698
:101D500002210120FFF7BCFF0446A406A40E042CB8
:101D600013D100210120FFF7B3FFE949E94A1288A6
:101D70008854E8480088401CE649088008460088E6
:101D8000802807DB0020088004E000210120FFF705
:101D90009FFF044610BD70B504460D46164600224E
:101DA00011460220FEF7FCFCE800620010430146E9
:101DB0000120FFF737F931460120FFF733F90122FF
:101DC00000210220FEF7ECFC70BDF8B505460E467A
:101DD000BF2203212846FFF7DEFF02212846FFF736
:101DE00077FF044620461021084302460221284678
:101DF000FFF7D1FF032211462846FFF7CCFF012150
:101E00002846FFF765FF0446204610218843024616
:101E100001212846FFF7BFFF04212846FFF758FF9E
:101E20000446204680218843024604212846FFF7C5
:101E3000B2FF832203212846FFF7ADFF3146E120A0
:101E4000000302F0ABFA84B2E2B200212846FFF7A9
:101E5000A2FF221201212846FFF79DFF032211460F
:101E60002846FFF798FF00212846FFF731FF0022A0
:101E700003210846FEF7A8FC00231A460321084662
:101E80000093FEF7FBFA03210846FEF7D6FB01227A
:101E900011462846FFF77FFF00212846FFF718FF6D
:101EA000F8BD70B505460C4600BF05212846FFF772
:101EB0000FFF20210842F8D0224600212846FFF7D4
:101EC0006AFF70BD10B5044621460020FFF7E9FF08
:101ED00010BD10B5044604E021780020FFF7E1FFB3
:101EE000641C20780028F7D110BD10B504462146A7
:101EF0000120FFF7D6FF10BD10B5044604E021789D
:101F00000120FFF7CEFF641C20780028F7D110BD18
:101F10000246002A17D1804800887C4B1B889842D3
:101F200029D079487C4B1B88C05C08707A480088AF
:101F3000401C794B188018460088802801DB00205F
:101F400018800120704775480088724B1B889842A2
:101F500011D06F48714B1B88C05C08706F480088B7
:101F6000401C6E4B188018460088802801DB00203A
:101F700018800120E6E70020E4E710B5044621467A
:101F80000020FFF7C5FF10BD10B504462146012013
:101F9000FFF7BEFF10BD70B5C6B0012202210020C0
:101FA000FEF712FC0120FEF797FE02220821012015
:101FB000FEF789FF5A490120FFF707FF032120A8F8
:101FC00001820121418257A0259058A026905DA151
:101FD00024A8C16060A10161782228A96846FEF7A3
:101FE00041F924A80FC800F033FC0026FA20FFF7BF
:101FF0003FF91FE11FA8FEF717FD002803D018A81E
:10200000007FFFF772FF1FA8FFF7BEFF00286ED00A
:1020100018A8007FFEF7E2FC18A8037F00223146D3
:102020000720FFF7E1FB18A8037F002231460120BB
:10203000FFF7DAFBB01D86B2782E00DD0026002403
:1020400004E020A9601C085C0855641C072CF8D328
:1020500018A8007F20A9085520A80078462821D17B
:1020600020A8407841281DD120A880784E2819D179
:1020700020A8C078202815D120A800794F2811D198
:1020800020A840796E280DD120A88079202809D178
:1020900020A8C079202805D1002202211046FEF791
:1020A0007FFB24E020A80078462820D120A8407893
:1020B00041281CD120A880784E2818D120A8C078AB
:1020C000202814D120A800794F2810D120A84079C9
:1020D00066280CD120A88079662808D120A8C0796C
:1020E000202804D1012202210020FEF759FBFFF72E
:1020F00029F905462846012D38D0022852D0052856
:102100006DD0062874D18FE0F80000103C0000105C
:1021100078010010400000103E0000104200001046
:1021200000DC05005A69674265650000312E536581
:102130006E642048656C6C6F205A69674265652142
:1021400000000000322E53656E64205475726E20BC
:102150006F6E2046414E0000332E53656E6420544E
:1021600075726E206F66662046414E0020A8408A38
:10217000012806DD20A8408A401E81B220A84182A5
:1021800002E020A8018A4182782228A96846FEF749
:1021900069F824A80FC800F05BFB0026FA20FFF7BF
:1021A00067F846E020A8418A008A814206DA20A822
:1021B000408A401C81B220A8418202E0012020A96F
:1021C0004882782228A96846FEF74CF824A80FC850
:1021D00000F03EFB0026FA20FFF74AF829E020A88D
:1021E000408A012805D002280AD0032816D10EE023
:1021F0001EE09EA0FFF780FEA0A0FEF76BF80EE0A9
:10220000A4A0FFF779FEA6A0FEF764F807E0AAA055
:10221000FFF772FEABA0FEF75DF800E000BF00BF65
:10222000FA20FFF725F804E0002020A9488200E00A
:1022300000BF00BF20A8408A002800D0DAE646B0E0
:1022400070BD70B5C6B00120FEF746FD0222082120
:102250000120FEF738FEE12149020020FFF7B5FD1D
:10226000032120A80182012141829CA025909DA0EC
:102270002690A2A124A8C160A5A10161782228A965
:102280006846FDF7EFFF24A80FC800F0E1FA00262A
:10229000FA20FEF7EDFFE2E01FA8FEF7C5FB0028DD
:1022A00007D018A8007FFFF70DFE18A8007FFEF7E3
:1022B00095FB1FA8FFF761FE002860D018A8007FDB
:1022C000FEF78CFBB01D86B2782E00DD00260024C0
:1022D00004E020A9601C085C0855641C072CF8D396
:1022E00018A8007F20A9085520A80078462821D1E9
:1022F00020A8407841281DD120A880784E2819D1E7
:1023000020A8C078202815D120A800794F2811D105
:1023100020A840796E280DD120A88079202809D1E5
:1023200020A8C079202805D1002202211046FEF7FE
:1023300037FA24E020A80078462820D120A8407849
:1023400041281CD120A880784E2818D120A8C07818
:10235000202814D120A800794F2810D120A8407936
:1023600066280CD120A88079662808D120A8C079D9
:10237000202804D1012202210020FEF711FAFEF7E5
:10238000E1FF05462846012D06D002281DD005286C
:1023900035D0062858D153E020A8408A012806DD10
:1023A00020A8408A401E81B220A8418202E020A8D5
:1023B000018A4182782228A96846FDF753FF24A8A4
:1023C0000FC800F045FA00263FE020A8418A008AA5
:1023D000814206DA20A8408A401C81B220A84182AE
:1023E00002E0012020A94882782228A96846FDF74A
:1023F00039FF24A80FC800F02BFA002625E020A8FA
:10240000408A012804D0022809D0032815D10DE004
:1024100045A0FFF75EFD48A0FDF75CFF0EE01DA0A4
:10242000FFF757FD1EA0FDF755FF07E048A0FFF797
:1024300050FD24A0FDF74EFF00E000BF00BF04E008
:10244000002020A9488200E000BF00BF002D06D078
:1024500020A8408A002802D0FA20FEF709FF20A811
:10246000408A002800D017E746B070BD48656C6C04
:102470006F205A6967426565212020000D0A536567
:102480006E642048656C6C6F205A696742656521EF
:102490002020000046414E204F6E2020000000000A
:1024A0000D0A53656E64205475726E206F6E20465F
:1024B000414E20200000000046414E204F6666201D
:1024C000000000000D0A53656E64205475726E2082
:1024D0006F66662046414E202000000052532D3486
:1024E00038350000312E53656E642048656C6C6F82
:1024F0002052532D3438352100000000322E5475FF
:10250000726E206F6E206F746865722046414E00B7
:10251000332E5475726E206F6666206F7468657214
:102520002046414E0000000048656C6C6F205253FD
:102530002D343835212000000D0A53656E64204883
:10254000656C6C6F2052532D34383521200000000B
:1025500046414E204F6666202000000010B500283E
:1025600019DA904A03071B0F083B9B089B00D258BF
:102570008307DC0EFF23A3409A434B071B0E8407FF
:10258000E40EA3401A43874B0407240F083CA40819
:10259000A4001A5118E0844A03231B02D2188308AE
:1025A0009B00D2588307DC0EFF23A3409A434B07BE
:1025B0001B0E8407E40EA3401A437B4B0324240222
:1025C0001B198408A4001A5110BD78480068401CEB
:1025D000764908607047C0B0FDF7D6FEFDF73AFFB8
:1025E0000320FDF71BFF72480069C008C000704956
:1025F000086108460069012108436D490861FEF73A
:1026000081FE00BF6B486C49884200D90EE06948E2
:10261000401E6A49486107210020C043FFF79EFF22
:102620000020664988610720086100BF0020FEF78E
:1026300053FB022208210020FEF745FCFFF749FA70
:102640000B2110A80187012141875DA01F905EA08A
:10265000209060A11EA8C16061A1016162A14161D9
:1026600064A1816167A1C16169A101626BA141623D
:102670006CA181626EA1C16270A10163782222A95E
:102680006846FDF7EFFD1EA80FC800F0E1F86F489F
:10269000FEF730F902211520FFF760FFFA20FEF760
:1026A000E7FD7DE0FEF74EFE0446012C06D0022C2D
:1026B0001CD0052C33D0062C6AD15FE010A8408FC7
:1026C000012806DD10A8408F401E81B210A8418766
:1026D00002E010A8018F4187782222A96846FDF701
:1026E000C1FD1EA80FC800F0B3F852E010A8418F3A
:1026F000008F814206DA10A8408F401C81B210A8DA
:10270000418702E0012010A94887782222A9684663
:10271000FDF7A8FD1EA80FC800F09AF839E010A830
:10272000438F03F045FE0C28070A0D101316191CE1
:102730001F22252800F007FD1EE001F014F81BE021
:1027400000F043FF18E000F0BFFD15E000F0ABFC27
:1027500012E000F035FC0FE000F0DCFB0CE000F0D4
:10276000DBF809E000F0DDF906E000F075F903E0C0
:1027700000F048FA00E000BF00BF0AE0782222A97A
:102780006846FDF76FFD1EA80FC800F061F800E075
:1027900000BF00BF002C02D0FA20FEF769FD30BF59
:1027A00080E700001CED00E000E100E048000010C0
:1027B0000040044080BB0000FFFFFF0000E000E09D
:1027C0004D61696E00000000312E206176696F64F2
:1027D00000000000322E20666C616D650000000074
:1027E000332E2068616C6C00342E2063616D706143
:1027F00073730000352E2062616C6C2D73776974E1
:1028000063680000362E20746F7563680000000056
:10281000372E20747261636B00000000382E206731
:1028200061730000392E20497244415F00000000AE
:1028300031302E72656C61792000000031312E64D8
:10284000697374616E6365200000000000DC0500A0
:102850000FB470B56946498A481E062101F0A8FDEB
:1028600085B2681C0621484384B26946088AA042A2
:1028700001DD052606E06946098A481E062101F0A9
:1028800097FD8EB2FEF7CAFE00210846059AFEF7B4
:10289000E7FF5023002266211046FEF7A5FF6723BD
:1028A00000226C211046FEF79FFF20230022722198
:1028B0001046FEF799FF28463130C3B20022782136
:1028C0001046FEF791FF002420E06846418A06206A
:1028D00068430019401C81420BD106216943091944
:1028E0008B0006A9CA58A11CC8B20121FEF7B8FF87
:1028F0000AE00621694309198B0006A9CA58A11CE0
:10290000C8B20021FEF7ACFF601C84B2B442DCDD2B
:1029100070BC08BC04B0184730B5C7B0FC48C06BE9
:10292000C008C000FA49C8630846C06B01210843CB
:10293000F749C863012211461046FDF745FF012201
:1029400011461046FDF72CFF012200210320FDF760
:102950003BFF002206210220FDF736FFED48FEF77F
:10296000F0FB022120A881820121C182EAA02690E9
:10297000EAA02790EBA125A8C160782229A9684682
:10298000FDF770FC25A80FC8FFF762FFC820FEF70F
:102990006FFC5BE00320FEF713FC054668002D1872
:1029A0000120FEF765FC2B46DFA20D211EA801F0D9
:1029B000B7FB1EAA00210720FEF752FF06210220C6
:1029C000FDF7F9FE002820D1002201210846FDF77D
:1029D000E7FE0520FEF74CFC012211461046FDF7EC
:1029E000DFFE0520FEF744FC002201210846FDF72A
:1029F000D7FE0520FEF73CFC012211461046FDF7EC
:102A0000CFFE0520FEF734FC04E0012211461046FB
:102A1000FDF7C6FEC848854205D9012200210320E2
:102A2000FDF7BEFE04E0002211460320FDF7B8FECC
:102A3000FEF788FC0446062C03D1002020A9C8829A
:102A400000E000BF00BFFA20FEF712FC20A8C08AF9
:102A500000289FD147B030BD10B5C0B0022110A8EA
:102A6000018701214187B5A01F90B6A020900122C7
:102A700000210320FDF7A8FE012200210320FDF71D
:102A80008FFE012206210220FDF79EFE782222A958
:102A90006846FDF7E7FB1EA80FC8FFF7D9FE3AE02E
:102AA0000020AB49086004E0A9480068401CA84920
:102AB0000860A7480068A7498842F5DB0122002189
:102AC0000320FDF76DFE002206210220FDF768FEBF
:102AD00000209F49086004E09D480068401C9C4914
:102AE00008609B4800689B498842F5DB002211463C
:102AF0000320FDF755FE012206210220FDF750FEBE
:102B0000FEF720FC0446062C03D1002010A94887BC
:102B100000E000BF00BF10A8408F0028C0D140B027
:102B200010BD10B5C0B0022110A801870121418756
:102B300089A01F9083A02090754840300068C0088D
:102B4000C00073494031086008460068012108430D
:102B50006F4940310860002206210220FDF734FE53
:102B6000012200210320FDF72FFE782222A96846CA
:102B7000FDF778FB1EA80FC8FFF76AFEFA20FEF7E4
:102B800077FB39E006210220FDF715FE002820D052
:102B9000002211460320FDF703FE0520FEF768FB27
:102BA000012200210320FDF7FBFD0520FEF760FB5D
:102BB000002211460320FDF7F3FD0520FEF758FB28
:102BC000012200210320FDF7EBFD0520FEF750FB5D
:102BD00004E0012200210320FDF7E2FDFA20FEF7C8
:102BE00047FBFEF7AFFB0446062C03D1002010A9DB
:102BF000488700E000BF00BF10A8408F0028C1D167
:102C000040B010BDF0B5CFB000204E9000254A90E6
:102C10000026142145A801F0BFFB142140A801F0B3
:102C2000BBFB022110A80187012141874CA01F9006
:102C30004EA02090012200210320FDF7C5FD0122B6
:102C400000210320FDF7ACFD012206210220FDF743
:102C5000BBFD002206210220FDF7A2FD2C484030DA
:102C60000068C008C0002A49403108600846006872
:102C70000121084326494031086000220221012039
:102C8000FDF7A2FD02210120FDF703FD782222A914
:102C90006846FDF7E7FA1EA80FC8FFF7D9FDFA202E
:102CA000FEF7E6FA2FE132488069324908600122D6
:102CB00006210220FDF774FD2E480068FF21E13156
:102CC000884213D9002211460320FDF769FD00BF99
:102CD0002748816927480068FF38E1388142F7D8E2
:102CE000002206210220FDF75BFD58E0002211467C
:102CF0000320FDF755FD00BF1D4881691D48006890
:102D00001D4A8018FF38E138814237D9012036E06A
:102D100040400440009F2400676173006469737041
:102D20006C61790020000000414443203A20256472
:102D30006D56202000000000C409000072656C611F
:102D400079200000736565206C6564310000000027
:102D50005800001040420F00497244415F200000BB
:102D600064697374616E63650000000020302000A8
:102D700000E000E04400001080BB00000020FF499C
:102D80008969FF4A1268914201D2012100E00021C5
:102D90000843B1D1002206210220FDF701FD0123E5
:102DA000009300231A4602210120FDF767FB022150
:102DB0000120FDF742FC0020F2490860F24800685B
:102DC0004E9000BFF04801684E988142FAD0EE481C
:102DD00000684E90ED480468EA4800684C90002373
:102DE0001A46022101200093FDF748FB00BFE64888
:102DF00001684E988142FAD0E34800684E90E1485D
:102E000000684B9002210120FDF743FC4C994B9840
:102E1000401AC5B2DD480068A0420FD2002D08DD7F
:102E2000681EC5B2D9480068001BD949081A4D90E0
:102E30000CE0D6480068201A4D9007E0D34800689F
:102E4000001BD349081A4D90681EC5B230214D9819
:102E500001F0A4FA7D21C900694341184A914A99B9
:102E60000A018818642101F099FA06463146C9A082
:102E7000FDF730FA7D21C900304601F08FFAC1B26A
:102E800040A801757D21C900304601F087FA1D91E7
:102E900064211D9801F082FAC1B240A841756421F5
:102EA000304601F07BFA1D910A211D9801F076FA57
:102EB000C1B240A881750A21304601F06FFA40A8DE
:102EC000C175B84886420AD240A8C37D827D417D43
:102ED0006F460EC7037DB4A2102101F021F940AA6C
:102EE00000210320FEF7BCFCFF20F530FEF7C0F9FF
:102EF000FEF728FA0746062F03D1002010A94887BD
:102F000000E000BF00BF10A8408F002800D0CAE634
:102F10004FB0F0BD10B5C0B0022110A8018701214B
:102F20004187A6A01F90A7A02090A8480068C008CD
:102F3000C000A64908600846006801210843A3496B
:102F40000860002202210120FDF73EFC0122002141
:102F50000320FDF739FC782222A96846FDF782F9A3
:102F60001EA80FC8FFF774FCFA20FEF781F921E0D4
:102F700002210120FDF71FFC002808D0FA20FEF7EF
:102F800077F993A200210320FEF76AFC07E093A2E1
:102F900000210320FEF764FCFA20FEF769F9FEF732
:102FA000D1F90446062C03D1002010A9488700E07F
:102FB00000BF00BF10A8408F0028D9D140B010BD7D
:102FC00010B5C0B0022110A801870121418786A059
:102FD0001F907CA020907D480068C008C0007B49FD
:102FE000086008460068012108437849086000220B
:102FF00002210120FDF7E8FB012200210320FDF75B
:10300000E3FB72484038C06BC008C0006F494039CC
:10301000C8630846C06B012108436C494039C86346
:10302000012211461046FDF7CFFB01221146104642
:10303000FDF7B6FB782222A96846FDF713F91EA812
:103040000FC8FFF705FCFA20FEF712F925E0022170
:103050000120FDF7B0FB00280AD001220021032047
:10306000FDF79EFB012211461046FDF799FB09E092
:10307000002211460320FDF793FB002201210846A0
:10308000FDF78EFBFEF75EF90446062C03D1002007
:1030900010A9488700E000BF00BF10A8408F00289B
:1030A000D5D140B010BD10B5C0B0022110A8018725
:1030B000012141874EA01F9050482090434800684E
:1030C000C008C00041490860084600680121084363
:1030D0003E490860002202210120FDF775FB012214
:1030E00000210320FDF770FB782222A96846FDF736
:1030F000B9F81EA80FC8FFF7ABFBFA20FEF7B8F827
:103100001BE002210120FDF756FB002805D000221C
:1031100011460320FDF744FB04E0012200210320B7
:10312000FDF73EFBFEF70EF90446062C03D1002006
:1031300010A9488700E000BF00BF10A8408F0028FA
:10314000DFD140B010BD10B5C0B0022110A801877A
:10315000012141872AA01F90012206210220FDF7AC
:1031600033FB012206210220FDF71AFB17480068F5
:10317000C008C00015490860084645E000E000E0CE
:1031800044000010480000107C0000108000001077
:1031900080BB00002064697374616E63653D2564C3
:1031A0000D0A0000941100006474733A2025642510
:1031B0006425642564206D6D2000000074617263D5
:1031C00068200000736565206C65640080400440E1
:1031D0006F6E20206C696E65000000006F666620CF
:1031E0006C696E6500000000746F756368200000F4
:1031F00042414C4C5F53574954434800442D000012
:103200006176696F64000000006801210843FF498E
:103210000860002202210120FDF7D6FA782222A9B7
:103220006846FDF71FF81EA80FC8FFF711FBFA202C
:10323000FEF71EF81BE002210120FDF7BCFA002872
:1032400005D0F3A200210320FEF70AFB04E0F3A25D
:1032500000210320FEF704FBFEF774F80446062C59
:1032600003D1002010A9488700E000BF00BF10A8CC
:10327000408F0028DFD140B010BD10B500F0C2FC77
:103280003C2000F073FD032000F070FD00F0BAFC5C
:103290003D2000F06BFD00240EE000F099FDE249B6
:1032A0000855052C03D1012000F0E5FC02E00020C8
:1032B00000F0E1FC601CC4B2062CEEDB00F0C1FCA7
:1032C0000520FDF7D5FF10BDF0B5CDB000202A9048
:1032D000299000BF142124A801F05EF814211FA832
:1032E00001F05AF8022120A881850121C185CFA0D3
:1032F0002C90D0A02D90D1A12BA8C16078222FA90D
:103300006846FCF7AFFF2BA80FC8FFF7A1FAC8204B
:10331000FDF7AEFFBD48006840094001BB490860A9
:103320000846006811210843B849086001220221BB
:103330001046FDF749FA012206210220FDF744FA62
:10334000012200210320FDF73FFA0022114603204D
:10335000FDF726FA00F080FDFF209130FDF788FF91
:103360002CE1FFF78AFFB04800780002AE494978A7
:10337000084300B22A90AC4800790002AA49497972
:10338000084300B229902A9801F0A5FC19911890E1
:10339000299801F0A0FC17911690199B189A03F038
:1033A0009BF9A74AA74B1B911A9001F09FFC0022A2
:1033B000A54B1D911C9001F016FA04460D46002203
:1033C000A24B2046294601F091FC04460D462046BA
:1033D000294601F03BFC07467D21C90000F0DEFFD5
:1033E000C1B220A801742046294601F02FFC7D219E
:1033F000C9001E9000F0D2FF0F466421384600F04D
:10340000CDFFC1B220A841742046294601F01EFC20
:1034100064211E9000F0C2FF0F460A21384600F0DA
:10342000BDFFC1B220A881742046294601F00EFCE0
:1034300007460A2100F0B2FF20A8C174C37C827C39
:10344000417C029301920091037C81A210211FA86C
:1034500000F066FE1FAA00210220FEF701FA0022FA
:103460007A4B2046294601F0EBF904460D4600222E
:103470007B4B2046294603F017FA06D30022794BEE
:103480002046294603F042FA04D277A20021032005
:10349000FEF7E6F90022724B2046294603F036FA81
:1034A0000BD20022734B2046294603F0FDF904D2CB
:1034B00071A200210320FEF7D3F900226D4B2046B4
:1034C000294603F023FA0BD200226E4B20462946F0
:1034D00003F0EAF904D26CA200210320FEF7C0F940
:1034E0000022684B2046294603F010FA0BD2002236
:1034F000684B2046294603F0D7F904D266A2002182
:103500000320FEF7ADF90022624B2046294603F066
:10351000FDF90BD20022634B2046294603F0C4F983
:1035200004D261A200210320FEF79AF900225D4B2C
:103530002046294603F0EAF90BD200225D4B2046D3
:10354000294603F0B1F904D25BA200210320FEF763
:1035500087F90022574B2046294603F0D7F90BD2B2
:103560000022584B2046294603F09EF904D256A269
:1035700000210320FEF774F90022524B2046294611
:1035800003F0C4F90BD20022364B2046294603F043
:103590008BF904D24FA200210320FEF761F9FDF759
:1035A000D1FE0646062E03D1002020A9C88500E0E2
:1035B00000BF00BF7D20C000FDF75AFE20A8C08DCF
:1035C000002800D0CDE64DB0F0BD10B5C0B00F481A
:1035D0000068C008C0000D49086008460068012165
:1035E00008430A490860002202210120FDF7ECF897
:1035F000012200210320FDF7E7F80122002103202A
:10360000FDF7CEF8022110A8018769E08040044050
:103610004C656176696E672000000000486974742B
:10362000696E6720000000005000001043414D50BB
:10363000415353002076616C756500002020000026
:10364000872EDE7913A64C4000806640000024409F
:103650006474733A202564256425642E2564200053
:103660000080364000187540536F75746820202024
:103670002020000000E05040536F7574682D57659E
:103680007374000000205C40576573742020202074
:103690002020000000B063404E6F7274682D5765A3
:1036A00073740000005069404E6F727468202020CF
:1036B0002020000000F06E404E6F7274682D45614E
:1036C000737400000048724045617374202020200C
:1036D00020200000536F7574682D456173740000DD
:1036E0000121418766A01F90782222A96846FCF735
:1036F000B9FD1EA80FC8FFF7ABF8C820FDF7B8FD4D
:103700002BE002210120FDF756F800280DD0FA2009
:10371000FDF7AEFD5CA200210320FEF7A1F8012217
:1037200000210320FDF73CF809E0002211460320A8
:10373000FDF736F855A200210320FEF791F8FDF7BA
:1037400001FE0446062C03D1002010A9488700E0A2
:1037500000BF00BFFA20FDF78BFD10A8408F0028A6
:10376000CFD140B010BD30B5C7B04A48C06BC0081B
:10377000C0004849C8630846C06B01210843454959
:10378000C863012211461046FDF71EF801221146BA
:103790001046FDF705F8012200210320FDF714F87B
:1037A000002206210220FDF70FF83B48FDF7C9FC77
:1037B000022120A881820121C18238A026903948A7
:1037C000279039A125A8C160782229A96846FCF76D
:1037D00049FD25A80FC8FFF73BF8C820FDF748FDB5
:1037E00047E00320FDF7ECFC054668002D1801209A
:1037F000FDF73EFD2B462B4A0C320D211EA800F092
:103800008FFC1EAA00210720FEF72AF806210220BD
:10381000FCF7D1FF00280BD0002201210846FCF75D
:10382000BFFF0520FDF724FD0520FDF721FD04E085
:10383000012211461046FCF7B3FF1C48854205D90A
:10384000012200210320FCF7ABFF04E00022114617
:103850000320FCF7A5FFFDF775FD0446062C03D1F8
:10386000002020A9C88200E000BF00BFFA20FDF7B9
:10387000FFFC20A8C08A0028B3D147B030BD0000AB
:1038800048414C4C000000006E6F20006F6B202000
:103890000000000040400440009F2400464C414D81
:1038A000450000001C2D000020000000B80B0000A7
:1038B00010B527480068401C2549086001210020F8
:1038C000FCF713FF0446002C08D022480068401C77
:1038D0002049086001210020FCF736FF10BD10B51B
:1038E0001D480068401C1C49086002210120FCF7AB
:1038F000FCFE00280CD01948806919490860194855
:103900000068401C1749086002210120FCF71CFFD9
:1039100010BD10B508210220FCF7E7FE002808D0F2
:1039200011480068401C1049086008210220FCF77B
:103930000BFF10BD10B503210846FCF7D6FE00288A
:1039400005D0FEF7E2F903210846FCF7FDFE10BDA5
:103950005C000010600000106400001000E000E057
:10396000800000107C0000107000001000BF0146B5
:10397000401E0029FBD1704710B50122062102200C
:10398000FCF722FF012206210220FCF709FF282074
:10399000FFF7ECFF012202211046FCF701FF28206F
:1039A000FFF7E4FF002206210220FCF7F9FE2820A1
:1039B000FFF7DCFF002202210120FCF7F1FE2820A6
:1039C000FFF7D4FF10BD10B5012206210220FCF73D
:1039D000FBFE002202210120FCF7E2FE2820FFF777
:1039E000C5FF002206210220FCF7DAFE2820FFF79F
:1039F000BDFF012202211046FCF7D2FE2820FFF76E
:103A0000B5FF012206210220FCF7CAFE2820FFF79D
:103A1000ADFF10BD10B5012206210220FCF7D4FE37
:103A2000002206210220FCF7BBFE2820FFF79EFFA4
:103A3000012202211046FCF7B3FE2820FFF796FF73
:103A4000002202210120FCF7ABFE2820FFF78EFFA9
:103A5000012206210220FCF7A3FE2820FFF786FFA3
:103A600010BD10B5012206210220FCF7ADFE012297
:103A700006210220FCF794FE2820FFF777FF0122A1
:103A800002211046FCF78CFE2820FFF76FFF002272
:103A900002210120FCF784FE2820FFF767FF0022A7
:103AA00006210220FCF77CFE10BD10B50122062184
:103AB0000220FCF789FE012206210220FCF770FE9D
:103AC0002820FFF753FF012202211046FCF768FE71
:103AD000002206210220FCF777FE2820FFF746FF90
:103AE00006210220FCF767FE04462820FFF73EFF70
:103AF000002202210120FCF753FE204610BD70B5C4
:103B00000446012206210220FCF75EFE082626E07C
:103B1000802025460540002D05D0012206210220E7
:103B2000FCF73EFE04E0002206210220FCF738FEEE
:103B30002820FFF71BFF012202211046FCF730FE70
:103B40002820FFF713FF002202210120FCF728FEA6
:103B50002820FFF70BFF6006040E701EC6B2002E71
:103B6000D6D170BD70B50024002206210220FCF7DA
:103B70002BFE08251DE0012202211046FCF710FE55
:103B80002820FFF7F3FE6006040E06210220FCF752
:103B900012FE002803D020460121084304460022DB
:103BA00002210120FCF7FCFD2820FFF7DFFE681E44
:103BB000C5B2002DDFD1204670BDFF498869FF21C5
:103BC0006931884208D900BFFB498A690146FF393B
:103BD00069398A42F8D814E000BFF7498A69F74981
:103BE0004118FF3969398A4201D9012100E00021D9
:103BF000F14A9269824201D2012200E0002211437F
:103C0000EBD1704710B5012206210220FCF7DCFD44
:103C1000012206210220FCF7C3FD012202211046E9
:103C2000FCF7BEFDFFF7C9FF002206210220FCF7CA
:103C3000B7FDFFF7C2FF002202210120FCF7B0FD13
:103C400010BD10B5012206210220FCF7BDFD0022A7
:103C500006210220FCF7A4FD012202211046FCF7F8
:103C60009FFDFFF7AAFF012206210220FCF798FD25
:103C7000FFF7A3FF10BD10B5044601220621022064
:103C8000FCF7A2FD002C05D0012206210220FCF742
:103C900087FD04E0002206210220FCF781FD0122BD
:103CA00002211046FCF77CFDFFF787FF002202216E
:103CB0000120FCF775FDFFF780FF10BD10B5012254
:103CC00006210220FCF780FD012206210220FCF7DC
:103CD00067FD2820FFF74AFE012202211046FCF76B
:103CE0005FFD2820FFF742FE002202210120FCF7A1
:103CF00057FD2820FFF73AFE002206210220FCF79C
:103D00004FFD10BD10B50024012206210220FCF752
:103D10005BFD012202211046FCF742FD0022062134
:103D20000220FCF751FDFFF748FF06210220FCF7B7
:103D300042FD04460AE0FFF740FF06210220FCF79F
:103D40003AFD002802D0FFF738FF05E006210220E7
:103D5000FCF731FD0028EED100BF00220221012036
:103D6000FCF71EFDFFF729FF204610BD70B5044685
:103D70000026012206210220FCF726FD082522E06C
:103D80002046802108400646002E05D0012206214B
:103D90000220FCF705FD04E0002206210220FCF7CA
:103DA000FFFC012202211046FCF7FAFCFFF705FF99
:103DB000002202210120FCF7F3FCFFF7FEFE600663
:103DC000040E681EC5B2002DDAD1FFF79BFF70BD4F
:103DD00070B50024012206210220FCF7F5FC012227
:103DE00006210220FCF7DCFC002206210220FCF761
:103DF000EBFC08251BE0012202211046FCF7D0FC59
:103E0000FFF7DBFE6006040E06210220FCF7D3FC60
:103E1000002803D020460121084304460022022145
:103E20000120FCF7BDFCFFF7C8FE681EC5B2002DDF
:103E3000E1D1204670BD70B505460C46FFF7E2FEA5
:103E40003C20FFF793FF2846FFF790FF2046FFF73F
:103E50008DFFFFF7F6FE70BD10B500210220FFF7C1
:103E6000EAFF10BD70B5564880781021084004461E
:103E7000002C0FD053490968E131880001F070F936
:103E80000646514901F078F8054601F025F94F49F9
:103E900008800EE04B490968E139880001F060F9BB
:103EA0000646494901F068F8054601F015F9474909
:103EB000088070BDF8B500274448078840488078DE
:103EC000102108400646002E10D0384601F048F96F
:103ED0003F49009002F094FD05463E4902F0E8FD9E
:103EE000044601F0F9F8374908600FE0384601F060
:103EF00037F93749009002F083FD0546354902F055
:103F000039FD044601F0E8F82E490860F8BD10B507
:103F1000FFF732FDC020FFF7F2FDFFF7C6FD0028D6
:103F20000BD1002407E02649085DFFF7E8FDFFF705
:103F300071FD601CC4B2052CF5DBFFF744FD10BD1C
:103F400070B5002021490880FFF716FDC120FFF75A
:103F5000D6FDFFF7AAFD00280BD1002407E0FFF7EC
:103F600037FF1D490855FFF755FD601CC4B2052CED
:103F7000F5DBFFF728FD184845780678B606B60E3B
:103F80003002401911490880FFF794FF70BD10B549
:103F90000446FFF7D5FF002C24D00A48006864309F
:103FA00008490860084600680C49884227D90C482F
:103FB0000449086023E0000000E000E080BB00004E
:103FC00084000010900000106F1203429400001053
:103FD0006F1203410000614389000010E0A5010059
:103FE000CC5501003B48006864383A4908600846EF
:103FF00000683949884202D2384836490860FFF7DC
:1040000031FF37490888C117090E09180904090E3C
:10401000344A117032490888C117090E091809126B
:104020000902411A51702020114688701120C87071
:1040300000200871FFF76BFF10BD10B50446FFF7B5
:104040007FFF002C10D0A0202649887021480068EE
:10405000143020490860084600682049884213D976
:104060001D481C4908600FE020201E49887019482F
:1040700000681438174908600846006816498842E5
:1040800002D2164813490860FFF7ECFE144908886D
:10409000C117090E091809124031124A117010494E
:1040A0000888C117090E091809120902411A51702E
:1040B00011201146C87040200871FFF728FFFFF754
:1040C0003FFF01E0FFF73CFF0748007880210842EE
:1040D000F8D010BD90000010CC550100E0A5010003
:1040E0009400001084000010890000107CB5154673
:1040F0001A460C00009001D00019401E074B7B446B
:1041000069460190284601F0FEF8002C054603D0D0
:104110006946002001F00AF928467CBD35120000EE
:104120000FB47CB50C0009AA009001D00019401E04
:10413000094B7B4469460190089801F0E4F8002C93
:10414000054603D06946002001F0F0F828467CBC03
:1041500008BC04B01847000001120000F7B50026A3
:1041600075291068009914A511D001F022F80028D3
:1041700002DA404211A508E0009909688A0701D5D2
:104180000FA502E0490704D50EA5012601E001F0C4
:1041900019F8009F0024243704E001F003FA3031BD
:1041A0003955641C0028F8D133462A462146009828
:1041B00001F03AF8FEBD0000000000002D000000F4
:1041C0002B00000020000000F3B50546002081B060
:1041D000BEE0E96828468847002876D0252802D026
:1041E0006A68A968B1E05C4F00267F442846E96808
:1041F00088472028044608DB312C06D2381920389D
:104200000078002801D00643F0E7B00701D504206C
:1042100086430020E8610746A8612A2C0BD021467E
:10422000012230390A292BD2002A29D0B80040199E
:104230000090816119E00298BA00521902C8916198
:1042400002902846E9688847012F04461AD1E86998
:10425000002822DA202086431FE000980A21806986
:10426000484300990019303888612846E968884732
:1042700004460120214630390A2901D20028ECD118
:10428000012F0AD02E2C08D12846E9688847044619
:10429000202006437F1C022FBFDBA869002803DA19
:1042A0004042A86101200643F00701D01020864358
:1042B0006C2C0BD0682C09D04C2C38D06A2C36D002
:1042C000742C34D07A2C32D016E043E0E9682746CB
:1042D00028468847B842044609D180206C2F00D078
:1042E000C000E968064328468847044604E04020A9
:1042F0006C2F00D080000643002C2BD02046413884
:10430000192803D80120C0020643203428462E6015
:104310002146029A1646FBF711FF002812D0012809
:104320000DD0F61DF008C0000830029051E70020C3
:104330004C2CD6D080206A2CD3D00020D1E7361D5B
:10434000029646E76A682046A9689047286A401C9A
:1043500028623EE7286AFEBD4E31000001E004C03D
:10436000091F0429FBD28B0701D50280801CC907D5
:1043700000D00270704700290BD0C30702D0027032
:10438000401C491E022904D3830702D50280801CE9
:10439000891EE3E70022EEE70022DFE7002203099F
:1043A0008B422CD3030A8B4211D300239C464EE050
:1043B00003460B433CD4002243088B4231D303090C
:1043C0008B421CD3030A8B4201D394463FE0C309BE
:1043D0008B4201D3CB01C01A524183098B4201D3D6
:1043E0008B01C01A524143098B4201D34B01C01AC1
:1043F000524103098B4201D30B01C01A5241C30839
:104400008B4201D3CB00C01A524183088B4201D3A7
:104410008B00C01A524143088B4201D34B00C01A93
:104420005241411A00D201465241104670475DE0A8
:10443000CA0F00D04942031000D34042534000222B
:104440009C4603098B422DD3030A8B4212D3FC22D4
:10445000890112BA030A8B420CD3890192118B4253
:1044600008D3890192118B4204D389013AD0921169
:1044700000E08909C3098B4201D3CB01C01A524124
:1044800083098B4201D38B01C01A524143098B42ED
:1044900001D34B01C01A524103098B4201D30B01D6
:1044A000C01A5241C3088B4201D3CB00C01A5241FB
:1044B00083088B4201D38B00C01A5241D9D24308E2
:1044C0008B4201D34B00C01A5241411A00D201461F
:1044D000634652415B10104601D34042002B00D589
:1044E0004942704763465B1000D3404201B500204B
:1044F000C046C04602BD0000F0B50C46871A9C417C
:104500000D46861A9D4103D2C01BA141D2196341B9
:104510000D0D1F0DC54EEC1BAE435BD07E05760D19
:1045200052D02D05AC46A943DD020123ED0A1B053F
:104530001D4320231B1B24D41646E64000273018B9
:104540004F412946E1407C189D40002128186141D7
:104550000C0D27D161449A4012D50023401C5941CB
:1045600052000DD140084000B14A4B00934207D39E
:1045700005204007081801D5511000E0AD49002082
:10458000F0BD6B00002A00D001229A18203C1F23A6
:104590001B1B01D5002303E0E540002428186141DE
:1045A0000C0DD7D0012424050919C407CD074008F4
:1045B0004908E40F28436144002CD5D00024401C56
:1045C00061419A40D0D1CDE76A05520DD8D1C90FCB
:1045D000C907D4E7964D4E00002801D0012400E021
:1045E000002434195F00002A01D0012600E00026D3
:1045F000BE19914FAC420BD8AE4209D8B44205D097
:10460000BD00AC42BCD010461946F0BD9942FCD06A
:1046100000203946F0BDF0B50C460F46811A9F4187
:104620002546861A9D4106D20125ED076F40401AA6
:10463000BC4152187B41210D1E0D8D1BAC467B4D9C
:104640008D437ED075056D0D7CD00D05AE46AC4317
:104650001B031B0B794D52429D41202366469B1B39
:1046600014D337461646FE4030180027674164468B
:104670002E462641BC199D4000262818664116D4B6
:10468000714671189A4025D5012320E093182A46D7
:104690006A415200002B00D0521C203E1E239B1B5F
:1046A000002B60DD3541EE1728186641E8D500186B
:1046B00076415B1C9A4000D3401C4B05F31815242F
:1046C000E3400FD3002B51D071467118D30FC0189F
:1046D00001D3491CF0BD0123DB079A42FAD14008FF
:1046E0004000F0BD01225205B21801D1002853D07C
:1046F0000123CC0ADB029943891E002A08D1020C4F
:1047000003D0020C0004103902E0024600202039D8
:104710000023550B05D112020823550B01D152017C
:104720000D23550C01D112011B1DD50C01D1920096
:104730009B1C150D01D152005B1C2025EE1A05466D
:1047400001E02BE021E0F54015439840CA1AE1074B
:1047500069181305C918002AC3DA0320400708188E
:10476000C10FC9070FE071466118F0BDF10740089D
:104770000843711071444A000CD001235B059A4232
:10478000F3D2C90FC9070020F0BD4905490D25D155
:10479000002001E00028F4D10021F0BD244D660086
:1047A000002801D0012100E0002171185F00002ADB
:1047B00001D0012600E00026BE191F4FA9420FD8E4
:1047C000AE420DD8B14207D0BD00A94206D019466D
:1047D000A80241401046F0BD9C4201D02146F0BDE8
:1047E00000203946F0BD30B40C465C4004D50124AD
:1047F000E407634030BC0EE730BC7DE630B40C46C5
:104800005C4004D50124E407634030BC74E630BC4E
:1048100001E730B40124E40761400D465D4001D456
:1048200030BC69E6634030BCF5E60000FF070000DD
:104830000000E0FF0000F07F0000F87F0000F0FFC4
:10484000F0B59446FB4A0E091D091746164015405F
:104850000C46B2435C408BB0002A7ED0AF437CD084
:10486000002D7BD0002E79D0E20F3243521BFF2463
:10487000A40412190792420DCC02C70214436046E9
:10488000420DD9021143C2020120C0070443014373
:104890000194080C140CA44604040B46A34308948A
:1048A00064462404E44DA2430994040A7D44641937
:1048B000803C24780546654301262D19F605751BB5
:1048C0006C43E40CA41C490B61430919B501691A36
:1048D0000E0C3504A94361436643090C711889091C
:1048E0000691F90701D00121C907039101997F08B9
:1048F000CC0727434C08069DE10B4D43290C654628
:104900000E464D4346437D1BB44100950D46019430
:104910005D4300242E0C240434430E462F045643DA
:10492000350C2F43039D3604AD1B039502D20026A0
:104930007F1C7441009E019DF61BA5410904009651
:1049400001950591AC08069900256143090C0F46B5
:1049500047437C0BED04254301E02AE14FE1FE04CF
:1049600064460F4667437C0B34430294039CFE0469
:10497000A41B039404D2029C0026641C754102947B
:10498000029F009E019CF61BAC4101940C465C43C7
:104990000096660F0025E700ED000C4635435443B2
:1049A000660F3E43039FE4003C1B039402D20024A5
:1049B000761C6541009F019CBE1BAC41B509A40655
:1049C0002C43039DB606AD092E43039DC900AD06D9
:1049D0000395059D691805910699E50B6943090C36
:1049E00065460F466F430D464543AE463D46751B33
:1049F0007746BC4100950D4601945D4300242E0C82
:104A000024040F46344357432D043E0C2E43029694
:104A10002646039D3C042C1B039405D2029C35467C
:104A2000641C00266E410294009F029D019C7D1B28
:104A3000B44100958D050495059D890A6918059175
:104A40000699A5086943090C0D46454300206E0BE5
:104A5000C0043043EF040D46664675436E0B3E437B
:104A6000039FED047D1B02D20027761C7841009F36
:104A7000BE1B844108460194B44658430024460FA7
:104A8000E4003443C60008465043470F3743C00094
:104A90002D1A02D200207F1C444166460198F61B65
:104AA000A041B40980062043AC09B6062643B646A9
:104AB0004C02049EAD06059FA41900217941059181
:104AC000089976461943099BB619134300224041C1
:104AD0009446EA0F6F0032430546D61A8D41A8422C
:104AE00003D90120844632462846C60F9518404116
:104AF000FA0F2A437D00039565466F00B646D61A25
:104B00000546B4468D417646002E01D1A84202D911
:104B10007F1C62462846C50FAC4695184041039A53
:104B20000646D20F2A437D00D31A8E4161460029E2
:104B300001D1B04202D96D1C30461A46104301D053
:104B4000012004436802059A002100195141022204
:104B5000002902DB012200184941079B4C051B1468
:104B6000D318C90A1B05CB1807994205C00AC90703
:104B700020435940002A09D00124A24006D3002432
:104B8000401C6141002A01D1400840002B4A002B03
:104B900004DB1C46144201D09A4325D10122079818
:104BA0009206904233DC032040070818C10FC90762
:104BB00034E00E4607184E41214D7A42B5411BD3D1
:104BC000624696181D465D411D4A7642AA4113D39E
:104BD000012252054D00D5420BD15C00D4420BD0CE
:104BE0004B4003D5920211430BB0F0BD4900490878
:104BF000FAE7E10FC90711E000201249F4E70F4876
:104C0000014201D0214605E00342F5D0F1E705203D
:104C1000400709180C480143C01241400020E3E757
:104C20005940504010B54B40424059405040FFF76A
:104C300007FE10BD0000FF079D2A00000000F07F66
:104C40000000E0FF0000F87FFFFFFF7FCB02420D76
:104C500010B51A430B1504D00124E4072243002B9E
:104C600006DB0A4CE31A05D41046D840FF2B00DDC2
:104C7000002010BD4A00002800D001201018044A6E
:104C80009042F5D8C817C04310BD00001E040000B4
:104C90000000E0FF1F22030C02D10F22000402D00B
:104CA000030E03D004E0002001467047083A0002DA
:104CB000030F01D1121F0001830F01D1921E80004A
:104CC000002801DB521E4000120551184205C01297
:104CD000411810467047C10FC90700D04042012259
:104CE00092071143D6E701218907D3E7F0B59D4C20
:104CF0000D092646AC46AE430D465D4089B0002EF8
:104D00007ED01E092746B7437AD067462740ED0F6D
:104D10003D43264075D02401214272D07419FF25ED
:104D2000AD04641B0494CC02D90201231B05E40AE0
:104D3000C90A1C4319432401030F1C430B0105013D
:104D4000110F0B43A00B81032D0916018C43A90BF6
:104D50008A0395439A0B9703BB4336099C46B30BD2
:104D60009F03BE430F465F4303972F467743029648
:104D70004E19BE460796029FDF197E430597039F93
:104D8000F71B7646BE1B77463F0100970196039FAF
:104D9000B60BF619B646019E009FB604BF1902D3A2
:104DA0007646761CB64676467600002F01D001275F
:104DB0003E4367467D430695029D27466F43009715
:104DC0007F00069DBE196F00BD1966469619079FA4
:104DD000AE467743069D03967D1B01950619059DFA
:104DE000009F75430296EE1B019D51436D1A0746C5
:104DF0005F43F31B019500937546EB0606D001E077
:104E000091E08DE06B0901252B4300E06B09002642
:104E10003546B6460E0A2D0609063543CB187646AA
:104E20007541AE4600213D0A09063E062943F618A3
:104E300075466941B646019B00269D0DB7022F437A
:104E40009B0276469B194F41009900258E0DAD02BD
:104E50008902C91835437D41504362465443039B40
:104E6000029A5A43121A161B0022B70E9301B6017A
:104E700075193B435341070B1205000545193A4389
:104E80005A4100200306270A20063B4344181426F3
:104E90006B41AB4200D2521C01204002824203D33C
:104EA00015260221C94301E00321C9432020851BA7
:104EB000AA401F46AF40F34013432046049AF040F7
:104EC0001214891809055A1804993843C907514022
:104ED000AC4009D001239C4006D30023401C59411B
:104EE000002C01D1400840001F4B002A03DB1A426E
:104EF00001D08B4312D1012204989206904207DB25
:104F000005204007091819480143C012414004E038
:104F1000032040070818C10FC907002009B0F0BDE1
:104F20000020E907FAE706180C464C411048764283
:104F3000A04114D394181A465A410D486442904136
:104F40000DD3012049004005814208D35900814218
:104F500005D3E90F044AC90700201143DEE700200A
:104F60000449DBE70000FF070000F07FFFFFFF7F41
:104F70000000E0FF0000F87F70B5FF242404C6099C
:104F8000FF25264001352E43C209CB0905462240A4
:104F900023404D40002A6BD0002B69D0A24267D03D
:104FA000A34265D0002D00DA32460124E4052143F6
:104FB000204309020002090AD21A000A4B0C7F247E
:104FC000E31A434C7C44E35C7D242404121914143A
:104FD0005B00A218884201D3521C00E04000494205
:104FE0000C465C4324115C43DB016415E318040A9E
:104FF0005C43C502200D0C4644436419250A5D43F9
:105000002303EC0C0D46654300030019EB184C42DA
:10501000A34201D35B18401CD4052018002B07D0F5
:105020005B00C91804D3401C002901D1400840008E
:105030003F2189048A4209D3002A08DC1106090F9E
:1050400004D0032149074018C00FC00770BD0122DA
:105050004100120689187F2252069142F6D205219C
:105060004907401801D5901070BDFF20C00570BDE4
:10507000002D00DA3246174EA24207D2A34205D2D3
:105080001802000E17D0E80FC00770BDFF244300C0
:105090002406A34216D84900A14213D8A34201D145
:1050A000A1420FD0A14201D1002101E041004908F5
:1050B000D005084370BD1002000E03D0FF2002434C
:1050C000D00570BD304670BD48404140484053E770
:1050D000052400000000C07F01460002CA1504D06C
:1050E0000123DB071843002A09DB9E239A1A01D407
:1050F000D0407047FF2248001206904201D900209C
:105100007047C817C04370471F22030C02D10F22FB
:1051100000041CD0030E01D1083A0002030F01D194
:10512000121F0001830F01D1921E8000002801DBB5
:10513000521E4000D20551180212511819229040F7
:1051400004D3491C002801D149084900084670478A
:10515000C10FC90700D04042012292071143D3E793
:1051600001218907D0E770B50446856900683026BB
:10517000C10600D42026C00707D070BD6268304643
:10518000A1689047206A401C20626D1EF6D570BD54
:1051900070B5044685690068C00707D170BD6268B4
:1051A000A16820209047206A401C20626D1EF6D521
:1051B00070BD09684A0501D540B27047C905FCD5E4
:1051C00000B2704709684A0501D5C0B27047C905E9
:1051D000FCD580B2704770B505460C46012A05D053
:1051E0002868800600D5EA69002302E0012305E073
:1051F0005B1C934202D2E05C0028F9D1A869E61852
:10520000C01AA861286AC01828622846FFF7ABFFB9
:1052100004E06A682078A968641C9047B442F8D317
:105220002846FFF7B5FF70BDFFB504460D4681B0B7
:10523000243000902168880604D51022E06991434B
:10524000216000E001200027A84200DD471B0498F0
:10525000A1697A191018081AA0612068C00602D442
:105260002046FFF780FF002608E003986268A168E7
:10527000805D9047206A401C761C2062049886421C
:10528000F3DB2068C0060AD52046FFF76CFF06E076
:105290006268A16830209047206A401C206238462E
:1052A0007F1E0028F4DC07E000986268A168405D7A
:1052B0009047206A401C206228466D1E0028F3DCBF
:1052C0002046FFF765FF21680220090600D401206F
:1052D00005B0F0BD11680268006A530501D5087079
:1052E0000AE0D30501D5088006E0130602D5C217EF
:1052F00005C101E0520608600120704701694A1C9F
:1053000002610878704700B58FB0029100210591C5
:105310000549019379440391114604906846FEF7CC
:1053200053FF0FB000BD0000E5FFFFFF0A681070DB
:10533000521C0A6070474B680A689A4202D2531C9A
:105340000B60107070470000084B70B50C467B4432
:10535000FFF7D9FF05462046FBF7C5FB002802D022
:105360000020C04370BD284670BD000049B7FFFF54
:10537000F7B50446154686B02B497944002703C982
:105380003E460090019111E007986A467100415A2B
:1053900002A800F0CBFB411C07D02168890603D589
:1053A000E269391891420ED83F18761C20688006B1
:1053B00002D5E069B84206DDAE42E5DB0798710030
:1053C000405A0028E0D1A069C01BA0612046FFF729
:1053D000CAFE154979445A3903C900900020019149
:1053E00016E041006A460798415A02A800F09EFB69
:1053F0000590401C0AD0002505E0626802A8A1685B
:10540000405D90476D1C05988542F6D30498401C7A
:10541000B0420490E5DB206AC01920622046FFF705
:10542000B7FE09B0F0BD000092200000F7B5D21D14
:105430000026D20815A5D200F52905CA11D0002AE8
:1054400005DA00214042914111A50A4608E0009981
:1054500009688B0701D50FA502E0490701D50EA504
:1054600001261146009F0024243704E000F0F0F8E4
:1054700030323A55641C02460A43F7D133462A4675
:1054800021460098FFF7D0FEFEBD0000000000009E
:105490002D0000002B0000002000000070B5044625
:1054A0000021243408E05507D2086D0F30356554CB
:1054B0005D07491C2A43DB0815461D43F3D10468E8
:1054C000002310A2250708D520252C400C4304D02A
:1054D000C46901230CA2641EC461FFF7A5FE70BD60
:1054E00010B5044621461068FFF76CFE0023024603
:1054F0002046FFF7D3FF10BDD21DD108C9000CC94B
:10550000CCE700000000000030000000F8B50F46B6
:105510000168090502D5224C7C4402E0204C7C4401
:105520000E3405460021243508E016071209360F0F
:10553000A65D6E541E07491C32431B0916461E43C6
:10554000F3D1224604680023240705D5702F06D026
:10555000002901D011320223FFF766FEF8BD103298
:105560000123F9E770B504460D4621461068FFF7A0
:1055700029FE0023024629462046FFF7C7FF70BDDB
:10558000D21DD308DB000CCBC0E730B40368202465
:105590001268234303600823C36130BC0023B5E7CE
:1055A000FC1E000001468008081A02091018020AB1
:1055B0001018020C1018C008820012185200891A24
:1055C00001E00A39401C0A29FBD27047F8B51C4695
:1055D0001E4B4E00069D9E420AD89E4201D10028D5
:1055E00006D166009E4203D89E420AD1002A08D006
:1055F0000D231B041D4223D02946002000F0B8FAD9
:10560000F8BD0B46234305D4A14200D19042EFF3ED
:105610000080F8BD09231B07DD008C4206D0EFF3A4
:1056200000809843611A06D2284304E0101AEFF371
:10563000008003D3984380F30088F8BD9843F3E7D4
:105640002346009500F0ACFAF8BD00000000E0FF32
:105650000B4670B502461D468907800808439C0822
:10566000111AA5410C092807044328096418684148
:10567000250A01060D43010A2C194141200C0D0495
:1056800028430D0C00194D41002140194D41C0081F
:1056900069070843E908840F8D0025438400241816
:1056A0004D4124196D41121BAB4107E00925ED4323
:1056B0002C11521963410024401C61411C460A25EB
:1056C0000026551BB441F1D270BD00007047FFB5F4
:1056D0000C461E468DB003CA069007914F007D0D03
:1056E00000D16D1E002108460020C0460321079A04
:1056F00089050840002A03DA820080184008084023
:10570000800D0128089002DD0020C0430890069813
:1057100007432CD0EB48EC49281848430714089855
:1057200040420B901698002839D075420B9A291EDA
:1057300000DC089A002900DA694203A800F0E0FAC8
:105740000699079800F042FB01910146DF4802925A
:105750000918002D009125DDDC49039849424018C5
:1057600003906846089A03A900F05CFD22E01698B1
:10577000012802D00020302104E00020F24305E09F
:105780002154401CB042FBDB30460022169B002116
:1057900021540D998B600A60486011B0F0BDBD1BAB
:1057A0006D1CC3E70399081803906846089A03A97B
:1057B00000F006FD009000040292000C019103D05D
:1057C0000020C043410800E01046169A002A03D08A
:1057D0000022009215461EE0751E05D4FFF738FF23
:1057E000303262556D1EF9D501220843099602D068
:1057F00000227F1C04E02078302801D100227F1E87
:10580000002A0A978ED01EE0112D07DAFFF720FF3D
:10581000303262556D1C02460A43F5D108430FD160
:105820000021681E05E0235C625C6354491C22541D
:10583000401E8142F7DBA81B401E09950A9002E03A
:10584000009800280AD0099A16990020A0540D98B3
:105850000A9B099A0360426081609EE7112600203E
:1058600016905FE7D21DF0B50D460446D10895B0FD
:10587000C90003C91090119100F0A8FD02461198CB
:10588000C10F2D20002906D121682B208B0702D4BF
:105890004807C00F4001032A0F9001D0072A05DBFB
:1058A00003462946204600F0E9F908E12068800611
:1058B00001D5E76900E0062728461121652D04D0AF
:1058C000662810D0672D64D128E00023112F0093A3
:1058D00000DA791C0B4610AA03A90BA8FFF7F7FE04
:1058E00000267D1C3EE001200123C0070E9010AA77
:1058F00003A90BA800933B46FFF7E9FE0D980C9D0A
:105900000026002802D10B99781C0D18781B02D4B0
:105910004642761E7D1CE81B00903AE0012F00DA1B
:1059200001270023112F009300DC39460B4610AAF3
:1059300003A90BA8FFF7CBFE20683D460026000711
:105940000BD40C98A84200DA054603A8012D04DD0B
:1059500041192039C97F302908D00B98B84201DAA3
:10596000011D05DA012000900B9811E06D1EEDE796
:10597000002802DC86192D1A04E0401CA84201DD33
:105980000B9D6D1C0B98801B401C00900120C007D4
:105990000E902068000705D40098A84202DB002082
:1059A000C043009069460020C8720E98012102AFE2
:1059B0000337C907884224D0022012902B2013906D
:1059C0000E9800280BDA40420E902D20139006E02E
:1059D0000E98FFF7E7FD30317F1E0E903970129957
:1059E000481E00291290F3DC0E980028F0D113987D
:1059F0007F1E387021684520090500D465207F1E70
:105A0000387001A8C01BC01D0E900F98002800D050
:105A1000012041190098C01709180E980818A169AB
:105A2000081A401EA0612068C00602D42046FFF775
:105A30009AFB0F98002805D06268A1689047206AF9
:105A4000401C20622068C00624D52046FFF78BFB4F
:105A500020E0002E07DB0C98B04204DD03A862684A
:105A6000805DA16802E06268A16830209047206AEA
:105A7000761C401C20620098401E00900AD100F065
:105A8000F7F8C06862680168405CA1689047206AC6
:105A9000401C206228466D1E0028DADC07E06268A0
:105AA0003878A1687F1C9047206A401C20620E99BC
:105AB000481E00290E90F2DC2046FFF769FB15B066
:105AC0000220F0BD01FCFFFF104D0000E1DFFFFFF1
:105AD00010B54369002B02D0C046C04601E0FFF775
