:020000040000FA
:100000002803001065020000690200006B02000076
:100010006D0200006F02000071020000000000008D
:10002000000000000000000000000000730200005B
:10003000750200000000000077020000CF1B0000E6
:100040007B0200007B0200007B0200007B020000BC
:100050007B0200007B0200007B0200007B020000AC
:100060007B0200007B0200007B0200007B0200009C
:100070007B0200007B020000CB0900007B02000035
:100080007B0200007B0200007B0200007B0200007C
:1000900089090000750F00007B0200007B02000050
:1000A0007B0200007B0200007B0200007B0200005C
:1000B0001D1D0000FB1C0000A71C0000791C000097
:1000C00000F002F800F0BFF80CA030C8083824187F
:1000D0002D18A246671EAB4654465D46AC4201D180
:1000E00000F0B1F87E460F3E0FCCB64601263342F3
:1000F00000D0FB1AA246AB46334318479443000096
:10010000B4430000103A02D378C878C1FAD8520735
:1001100001D330C830C101D504680C6070470000BD
:100120000023002400250026103A01D378C1FBD813
:10013000520700D330C100D50B60704710B56E294F
:1001400002D102F033FD10BD702902D102F083FE0E
:1001500010BD662902D103F011FD10BD652902D141
:1001600003F00CFD10BD672902D103F007FD10BD9F
:10017000612902D1C046C04610BD03681B0A01D3E5
:1001800080231943692902D101F0FCFE10BD6429C6
:1001900002D101F0F7FE10BD752902D101F0F2FE87
:1001A00010BD6F2902D102F001FE10BD782902D1E5
:1001B00002F03EFE10BDE92902D102F09DFD10BD06
:1001C000E42902D102F098FD10BDF52902D102F018
:1001D00093FD10BDEF2902D102F0F4FD10BDF82906
:1001E00002D102F033FE10BD0368DB0901D3802386
:1001F0001943632902D103F0A2F810BD732902D17B
:1002000003F0A5F810BDE32902D103F0AFF810BD4B
:10021000F32902D103F0B2F810BD002010BD1FB5C4
:10022000C046C04603F0F8F804000020002103F0A7
:100230008FFC401C60600020002103F073FCE06034
:100240001FBD10B510BD03F0BFF81146FFF7E7FF63
:1002500001F0BEFC03F0E2FB03B4FFF7F2FF03BCC6
:1002600000F074FE08480047FEE7FEE7FEE7FEE701
:10027000FEE7FEE7FEE7FEE7FEE7FEE70348044988
:10028000024A044B70470000C10000002801001022
:100290002803001028010010704700007CB51546A7
:1002A0001A460C00009001D00019401E074B7B44F9
:1002B00069460190284602F092FC002C054603D0C6
:1002C0006946002000F015F828467CBD532900003F
:1002D0000FB4054910B503AA029802F09BFC10BCAC
:1002E00008BC04B018470000240000107047704795
:1002F00070470A681070521C0A607047FFFFFFFFCA
:100300002E492F4A116001212E4A116051600021AF
:1003100051600121516000BF2A494968C907C90FCE
:10032000FAD029498868400A400203210143264A3D
:1003300091602649896B80229143244A916300BFD2
:100340002149C968C907C90FFAD003211D4A1163A1
:1003500001215163002151630121516300BF1949FB
:10036000496BC907C90FFAD00121164A9163144994
:1003700009688900164A116011460968154A11601A
:10038000704700B5022010490860002008620F483D
:10039000806B202188430D498863002300E05B1CAB
:1003A000FF2BFCD9FFF7ACFF064840300068012165
:1003B000090408430849086000BD0000001BB7009D
:1003C000000000104080044000800440008204408F
:1003D00004000010080000108080044070B505463D
:1003E0006348806B102188436149886361480068D5
:1003F000614908435F490860002404E00020A1002F
:100400005E4A5050641C082CF8D35D4840698F2127
:1004100088435B49486108464069012108435849BF
:1004200048615848C06A8F2188435649C8620846C7
:10043000C06A012108435349C862514880698F212D
:1004400088434F49886108468069012108434C4927
:10045000886129464C48006801F08EFE401E00026B
:100460004A4908434A49086070BD70B5054640488E
:10047000806B102188433E4988633E4800683E49AE
:1004800008433C490860002404E00020A1003B4AE6
:100490005050641C082CF8D33A48406B872188439D
:1004A000384948630846406B022108433549486390
:1004B000334800688721884331490860084600684E
:1004C000022108432E49086029462F48006801F0A0
:1004D00053FE401E00022D4908432D49086070BD9F
:1004E00030B50146082900DB002129480068000AD0
:1004F0000002274C20602046046801208840012526
:100500002D06284304432248046007E08800204C5D
:1005100000190269D00FC00700D000E0F6E700BF65
:100520001B48006807242406A043194C2060194882
:10053000024201D0002030BD1004830D1846FAE7B6
:100540001348006807210906084204D010480068D3
:1005500088430F4908600E480068FF2108430C4992
:100560000860084600680C4908430949086070475C
:1005700000820440808004400020000064000010DD
:10058000804004404040044008000010010020006A
:1005900000C00140000000400000010010B5F34819
:1005A000006840210843F14908601F2000F0D7F996
:1005B0001E2000F0D4F91D2000F0D1F91C2000F01D
:1005C000CEF910BD70B5049C002806D0012838D0A3
:1005D00002286AD003287BD19CE0002A18D1E44D80
:1005E0006D6801268E40B543E14E7560002B07D142
:1005F0003546AD6801268E40B543DD4EB5600EE050
:10060000DB4DAD6801268E403543D94EB56006E01E
:10061000D74D6D6801268E403543D54E7560002C50
:1006200007D1D34DED6801268E40B543D04EF5601D
:1006300006E0CF4DED6801268E403543CC4EF56087
:100640009DE0002A18D1CB4D6D6801268E40B54340
:10065000C84E7560002B07D13546AD6801268E4027
:10066000B543C44EB5600EE0C24DAD6801268E4064
:100670003543C04EB56006E0BE4D6D6801268E4024
:100680003543BC4E7560002C07D1BA4DED6801268C
:100690008E40B543B74EF56006E0B64DED680126D5
:1006A0008E403543B34EF56069E0002A19D1B24D52
:1006B0006D6801268E40B543AF4E7560002B08D1A2
:1006C0003546AD6801268E40B543AB4EB5600FE0B0
:1006D00054E0A94DAD6801268E403543A64EB56065
:1006E00006E0A54D6D6801268E403543A24E75602B
:1006F000002C07D1A04DED6801268E40B5439E4EDB
:10070000F56006E09C4DED6801268E4035439A4E1B
:10071000F56034E0002A18D1984D6D6801268E40AE
:10072000B543964E7560002B07D13546AD6801265E
:100730008E40B543914EB5600EE0904DAD680126F8
:100740008E4035438D4EB56006E08C4D6D680126B8
:100750008E403543894E7560002C07D1874DED687A
:1007600001268E40B543854EF56006E0834DED6869
:1007700001268E403543814EF56000E000BF00BF8A
:1007800070BD002806D001280CD0022812D0032802
:1007900020D117E0764A126901238B401A43744B2B
:1007A0001A6118E0734A126901238B401A43714B96
:1007B0001A6110E0704A126901238B401A436E4B94
:1007C0001A6108E06D4A126901238B401A436B4B92
:1007D0001A6100E000BF00BF7047002806D0012862
:1007E0000CD0022812D0032820D117E0604A1269E9
:1007F00001238B409A435E4B1A6118E05D4A1269EF
:1008000001238B409A435B4B1A6110E05A4A1269EC
:1008100001238B409A43584B1A6108E0574A1369E9
:1008200001228A409343554A136100E000BF00BF94
:10083000704710B502460020002A06D0012A0CD0CD
:10084000022A12D0032A20D117E0494B9B690124C8
:100850008C40234200D0012018E0464B9B690124C4
:100860008C40234200D0012010E0434B9B690124BF
:100870008C40234200D0012008E0404B9B690124BA
:100880008C40234200D0012000E000BF00BF10BD1B
:10089000002806D001280CD0022812D0032820D12D
:1008A00017E0334AD26901238B401A43304BDA6197
:1008B00018E0304AD26901238B401A432D4BDA618C
:1008C00010E02D4AD26901238B401A432A4BDA618A
:1008D00008E02A4AD26901238B401A43274BDA6188
:1008E00000E000BF00BF704730B513468B40840066
:1008F000234D2D5901248C40A4002B5130BD0246BC
:1009000090001F4B1B5801208840800018587047EA
:1009100030B5002A11D08300194CE3580124E403B8
:100920001B191B6801248C4023438400144D2C594F
:100930000125ED036419236010E08300104CE35897
:100940000124E4031B191B6801248C40A343840089
:100950000B4D2C590125ED036419236030BDC206EF
:10096000D20E01219140074A1160704780800440F7
:100970000080005000800150008002500080035031
:100980008C3B000000E100E0F749C869C107C90FCE
:1009900007D0F6490968491CF44A11600121F24A5E
:1009A00011620221084207D0F1490968491CF04A46
:1009B00011600221EC4A11620421084204D0ED4981
:1009C0000968491CEB4A11607047EB49C869C107C7
:1009D000C90F07D0E9490968491CE84A116001219B
:1009E000E54A11620221084207D0E5490968491C1D
:1009F000E34A11600221E04A11620421084204D056
:100A0000E0490968491CDF4A1160704710B5044687
:100A1000002C40D1DC48406801210843DA49486095
:100A2000DA480068DA490843D8490860022048617A
:100A3000D848006AC008C000D64908620846006A63
:100A400001210843D34908620846406AC008C00033
:100A500048620846406A01210843CE4948620120A5
:100A6000CD490863CB490863C84800684021084362
:100A7000C6490860C948C069C008C000C749C86104
:100A8000012202210020FFF743FF01220221002062
:100A9000FFF72AFF47E0BC48406804210843BA49F1
:100AA0004860BA480068BE490843B8490860022057
:100AB000C861B848C069C008C000B649C8610846E6
:100AC000C06902210843B349C861B348C068C0087F
:100AD000C000B149C8600846C06802210843AE4959
:100AE000C860AE48806AC008C000AC498862084649
:100AF000806A02210843A9498862A448006840210D
:100B00000843A2490860A5488068C008C000A349FE
:100B10008860012200210220FFF7FAFE0122002155
:100B20000220FFF7E1FE10BD10B50446002C60D195
:100B300095484068012108439349486093480068FC
:100B40009349084391490860022048619148006A2E
:100B5000C008C0008F4908620846006A01210843A6
:100B60008C4908620846406AC008C00048620846CE
:100B7000406A012108438749486202208649086388
:100B80008449C86081480068402108437F49086063
:100B900080480068C008C0007E4908600122042126
:100BA0000220FFF7B5FE012204210220FFF79CFE80
:100BB0007A480068C008C000784908600122062110
:100BC0000220FFF7A5FE012206210220FFF78CFE7E
:100BD0007248006AC008C0007049086201220721FB
:100BE0000220FFF795FE012207210220FFF77CFE7D
:100BF00047E065484068042108436349486063480A
:100C0000006867490843614908600220C86161487B
:100C1000C069C008C0005F49C8610846C0690221B8
:100C200008435C49C8615C48C068C008C0005A49B4
:100C3000C8600846C068022108435749C860574841
:100C4000806AC008C000554988620846806A02214F
:100C50000843524988624D480068402108434B4987
:100C600008604E488068C008C0004C498860012276
:100C700000210220FFF74CFE012200210220FFF795
:100C800033FE10BD70B5054600BF002D16D1454896
:100C900035490860FE200861002404E0324880687D
:100CA000C6B2601CC4B2082CF8DB142000F00EF9A8
:100CB00002202D4948600320486115E039482E493B
:100CC000086002200861002404E02B488068C6B256
:100CD000601CC4B2082CF8DB0E2000F0F7F80220EC
:100CE000254948600320486170BDF8B507460D46A8
:100CF000164600980090002F1AD1681E072109029D
:100D000008431949086008460661002405E01648B2
:100D10008068C0B20090601CC4B2082CF7DB1420BD
:100D200000F0D4F80220104948600320486119E01F
:100D3000681E0721090208430F490860084606613A
:100D4000002405E00C488068C0B20090601CC4B26A
:100D5000082CF7DB0E2000F0B9F8022006494860A5
:100D600003204861F8BD000000000440100000109E
:100D7000140000100C000010008005401C00001042
:100D80002000001018000010008004408080044003
:100D900000080000404004408040044000400440FF
:100DA000000004000707000070B500BF00232DE01D
:100DB000002815D100BF494DED6812263540022D9F
:100DC000F9D10D78454EB560491C00BF434DED6823
:100DD00014263540042DF9D1404DAD68ECB214E035
:100DE00000BF3F4DED6812263540022DF9D10D7838
:100DF0003B4EB560491C00BF394DED6814263540A7
:100E0000042DF9D1364DAD68ECB25B1C9342CFD3C3
:100E100070BD30B500231FE000280ED1FF242F4DF8
:100E2000AC6000BF2D4CE46814252C40042CF9D193
:100E30002A4CA4680C70491C0DE0FF24284DAC60BE
:100E400000BF274CE46814252C40042CF9D1244C15
:100E5000A4680C70491C5B1C9342DDD330BD024674
:100E6000002A19D100BF1D48C0681223184002286B
:100E7000F9D11A48816000BF1848C0681023184291
:100E8000FAD100BF1548C068142318400428F9D1CE
:100E90001248806880B2704700BF1148C0681223B2
:100EA00018400228F9D10E48816000BF0C48C06884
:100EB00010231842FAD100BF0948C0681423184013
:100EC0000428F9D10648806880B2E4E7C206D20E51
:100ED00001219140034A1160704700000000044066
:100EE0000080054000E100E000BF1E494969202262
:100EF0001142FAD01B490860704710B503460C46F2
:100F00001846FFF7F1FF10BD00BF17480068002822
:100F1000FBD00620134948600020134908600720D1
:100F20001049486011480078704710B50446FFF733
:100F3000EBFF0346FFF7D8FF10BD00B50346184688
:100F4000FFF7D2FF00BD01460948704700BFFEE72A
:100F500000BF04484069C007C00FFAD001480068CC
:100F60007047000000800040300000108400001036
:100F7000FFFFFFFF70B500BF854A9268D0B24010F6
:100F80004007400F032820D1814A5269D1B29E22E6
:100F9000114205D07F4A11607D4A1268D3B270BDFC
:100FA000CA07D20F3ED07A4C2468E5B27A4C226848
:100FB000541C794E3460794CA55432461268402A4C
:100FC00030D30022344622602CE0022811D1704C2C
:100FD0002468E5B2704C2268541C6F4E34606F4C2C
:100FE000A55432461268402A1CD30022344622609F
:100FF00018E0062807D1674A1268FF24013422430B
:10100000644C22600EE001280CD1614A5269D1B2D1
:101010002022114203D00122614C227002E0002202
:101020005F4C227000BFBAE7F8B5044601205C4966
:101030000870002058490860152001218140594A54
:10104000116000BF5848406AC008C0005649486255
:101050000846406A01210843534948620846806AAD
:10106000C008C00088620846806A012108434E49D2
:1010700088624E4800684E4908434C490860012088
:10108000886183204249C860484887693946494891
:10109000006801F071F806092146304601F06CF84D
:1010A0000546280A3A494860E8B208600320C8604B
:1010B000072088600846476900BF354840696021BD
:1010C00008406028F9D101E031480768304840699C
:1010D000C007C00FF8D1152001218140364A1160A8
:1010E00000BF05202A494860F8BD0AE000BF284A31
:1010F000526920231A42FAD00278254B1A60401C0C
:10110000491E0029F2D1704700BF214949692022B8
:101110001142FAD01E490860704700B5034603E04B
:1011200018785B1CFFF7F0FF18780028F8D100BD95
:101130000FB400B59BB01DA80090642101A8009BCE
:101140001C9AFFF7ABF801A8FFF7E7FF002000901B
:101150001BB008BC04B018470146184800680E4A86
:101160001268904211D00D48144A1268805C0870D1
:1011700012480068401C114A106010460068402860
:1011800001D300201060012070470020FCE7000020
:101190000080004038000010300000108400001073
:1011A0002C00001080E100E080400440808004407A
:1011B000001000000800001000E100E03400001002
:1011C000F1B582B0214884694069019020490298B4
:1011D000484300900199009800F0CEFF074601991E
:1011E000009800F0C9FF0D46002F0ED000260AE03F
:1011F00000BF16488069A042FBD300BF1348806936
:10120000A042FBD8761CBE42F2D3002D1DD0A542D1
:1012100006D200BF0D488069611B8842FAD814E0ED
:10122000A54205D100BF09488069A042FBD30CE06C
:1012300000BF06488069A042FBD300BF0348816914
:101240002A1B0198801A8142F8D8FEBD00E000E018
:1012500080BB000000BF0146421ED0B20029FAD177
:10126000704770B50646002510E000230AE0002410
:1012700004E0CB20FFF7EEFF601CC4B20F2CF8DBBC
:10128000581CC3B2832BF2DB681CC5B2B542ECDB41
:1012900070BD10B50446002205210220FFF724FB93
:1012A000002204210220FFF71FFB21460020FFF748
:1012B000D6FD012204210220FFF716FB01220521A1
:1012C0000220FFF711FB10BD10B5044601220521D5
:1012D0000220FFF709FB002204210220FFF704FB94
:1012E00021460020FFF7BBFD012204210220FFF769
:1012F000FBFA012205210220FFF7F6FA10BD70B5B6
:1013000004462546E117090F491909110901611A17
:10131000C8B2FFF7BEFF2546E117090F49190911A9
:1013200008461030FFF7B5FF70BD10B50446202009
:10133000FFF7AFFF2046FFF7ACFF10BD70B50546C5
:101340000C462120FFF7A5FF2846FFF7A2FF204605
:10135000FFF79FFF70BD70B505460C462220FFF7D2
:1013600098FF2846FFF795FF2046FFF792FF70BDD4
:1013700010B50446402121430846FFF78AFF10BDFF
:1013800010B504468120FFF784FF2046FFF781FF58
:1013900010BD10B504468D20FFF77BFF10212143BF
:1013A0000846FFF776FF10BD10B50446A021214383
:1013B0000846FFF76EFF10BD10B50446A421214377
:1013C0000846FFF766FF10BD10B50446A62121436D
:1013D0000846FFF75EFF10BD10B50446A820FFF7D2
:1013E00058FF2046FFF755FF10BD10B50446AE214B
:1013F00021430846FFF74DFF10BD10B50446B0214C
:1014000021430846FFF745FF10BD10B50446C02133
:1014100021430846FFF73DFF10BD10B50446D32019
:10142000FFF737FF2046FFF734FF10BD10B5044625
:10143000D520FFF72EFF2046FFF72BFF10BD10B57C
:101440000446D920FFF725FF2046FFF722FF10BDF5
:1014500010B50446DA20FFF71CFF0221214308469D
:10146000FFF717FF10BD10B50446DB20FFF711FF93
:101470002046FFF70EFF10BD10B5E320FFF709FF70
:1014800010BD70B50646002410E02046FFF7B5FFFA
:101490000020FFF734FF002504E03046FFF714FF7B
:1014A000681CC5B2802DF8DB601CC4B2082CECDBD4
:1014B00070BD10B50020FFF7E4FF10BDFFB581B08F
:1014C0000D4616461F462C4615E02046FFF795FFB1
:1014D0003846FFF714FF0020009006E00198FFF760
:1014E000F3FE0098401CC0B200900A990098884210
:1014F000F4DB601CC4B2701C8442E6DB05B0F0BDB6
:1015000070B5002413E02046FFF777FF0020FFF7B7
:10151000F6FE002507E05520FFF7D6FEAA20FFF7CC
:10152000D3FE681CC5B2402DF5DB601CC4B2082C8C
:10153000E9DB70BD70B50020FFF75FFF0020FFF70B
:10154000DEFE002404E00120FFF7BEFE601CC4B2F2
:10155000802CF8DB0720FFF750FF0020FFF7CFFEBD
:10156000002404E08020FFF7AFFE601CC4B2802C92
:10157000F8DB002411E02046FFF73FFF002508E0DC
:101580002846FFF7BCFEFF20FFF79EFE28467F306F
:10159000C5B2802DF4DB601CC4B2082CEBDB70BD3F
:1015A000FFB581B007460D46012F02D0022F0BD1A7
:1015B00004E0A8002818FE49441805E0681E8100D0
:1015C0004018FC49441800BF00BF0398FFF715FFFF
:1015D0000498FFF794FE002605E02078FFF774FEDC
:1015E000641C701CC6B2052EF7DB0020FFF76CFEF2
:1015F00005B0F0BDFFB581B007460D461E462C462E
:10160000334660210120039AFFF7CAFF0CE02178DE
:1016100033463846039AFFF7C3FF641CB01DC6B2B9
:101620002078002800D100E0F1E700BF05B0F0BD50
:10163000FFB583B005460E4617460295344619E0BD
:101640002046FFF7DAFE0698FFF759FE00200190CA
:101650000AE002990878FFF737FE0298401C0290D2
:101660000198401CC0B201900C9901988842F0DBAF
:10167000601CC4B2781C8442E2DB07B0F0BDFFB549
:1016800081B00F4614460498203881004018C8499C
:1016900045180198FFF7B1FE002F0BD10020FFF78E
:1016A0002EFE002C03D10020FFF70EFE02E0FF20EB
:1016B000FFF70AFE791CC8B2FFF721FE00260DE0F5
:1016C000002C03D12878FFF7FFFD04E02978C943F7
:1016D000C8B2FFF7F9FD6D1C701CC6B2052EEFDB1A
:1016E000002C03D10020FFF7EFFD02E0FF20FFF701
:1016F000EBFD05B0F0BDF8B506460F4614460025D3
:10170000082E18DA08E023783A4629463046FFF7D3
:10171000B6FFA81D85B2641C2078002801D00120E6
:1017200000E00020691C89B2802901DA012100E073
:1017300000210842E7D1F8BDFFB581B015461F462C
:10174000A320FFF7A6FD0298FFF7A3FD2846FFF7A9
:10175000A0FD0198002802D0012825D111E0002425
:101760000CE0E0B2FFF704FE002603E0C820FFF71C
:1017700071FD761C0A988642F8D3E419AC42F0D386
:1017800012E000240DE0291BC8B2FFF7F1FD00268E
:1017900003E0C820FFF75EFD761C0A988642F8D366
:1017A000E419AC42EFD300BF00BF0020FFF7E0FD1B
:1017B00005B0F0BDF8B504460D4616461F46262175
:1017C00021430846FFF765FD0020FFF762FD28462C
:1017D000FFF75FFD3846FFF75CFD3046FFF759FD28
:1017E0002F20FFF756FD0698FFF73BFDF8BDF8B533
:1017F00004460D4616461F46A320FFF74AFD38460D
:10180000FFF747FD0698FFF744FD21462931C8B28E
:10181000FFF73FFD0020FFF73CFD2846FFF739FDAD
:101820000898FFF736FD3046FFF733FD0798FFF7BE
:1018300030FD2F20FFF72DFD0998FFF712FDF8BDB1
:1018400010B52E20FFF725FD10BD10B50120FFF7C4
:10185000CCFD00240CE0E0B2FFF792FDC820FFF7BA
:10186000F9FCC820FFF7F6FCC820FFF7F3FC641C66
:10187000D02CF0D310BD10B5D0240DE0611EC8B23D
:10188000FFF77EFDC820FFF7E5FCC820FFF7E2FC6C
:10189000C820FFF7DFFC641E002CEFD10020FFF70B
:1018A000A4FD10BD10B50446002C02D0012C0ED1B1
:1018B00006E00020FFF799FD0120FFF77DFD06E01F
:1018C0000020FFF779FD0120FFF78FFD00BF00BF6B
:1018D00010BD0120FFF770FD0BE00120FFF785FD33
:1018E0000220FFF7BEFC0020FFF77FFD0220FFF77C
:1018F000B8FCF2E710B50020FFF777FD8020FFF776
:1019000095FD3F20FFF768FD0020FFF786FD0020D2
:10191000FFF72EFD0020FFF73CFD0220FFF705FD3D
:101920000120FFF741FD0820FFF76FFD1020FFF7B2
:101930008FFDCF20FFF724FD2220FFF780FD402000
:10194000FFF791FD0020FFF737FD0020FFF73CFD7A
:101950000020FFF796FD0120FFF747FD10BD10B5F1
:10196000012205210220FEF7D3FF0020FFF73DFDF5
:101970008020FFF75BFD3F20FFF72EFD0020FFF7E3
:101980004CFD0020FFF7F4FC0420FFF702FD0220CD
:10199000FFF7CBFC0120FFF707FD0820FFF735FD1F
:1019A0001020FFF755FDCF20FFF7EAFCF12003E000
:1019B0006C3C000021410000FFF741FD4020FFF793
:1019C00052FD0020FFF7F8FC0020FFF7FDFC00208F
:1019D000FFF757FD0120FFF708FD10BD00B587B0E8
:1019E0005BA207CA04AB07C30020FFF74AFD302003
:1019F00028230522022100905848FFF719FE0520F0
:101A0000FFF72FFCFFF737FF0520FFF72AFCFFF752
:101A10001CFF0520FFF725FC202001234022002188
:101A200000900846FFF788FE0520FFF71AFC2020EB
:101A300001234022002100901846FFF77DFE05207B
:101A4000FFF70FFCFFF7FCFE0520FFF70AFC012063
:101A50000021202301900093029103900B460A4637
:101A60000846FFF7C4FE0520FFF7FBFB012000211D
:101A70001F22202300930192029103900B460A46F5
:101A80000846FFF7B4FE0520FFF7EBFB022000211C
:101A90000122202300930192029103900B4603221E
:101AA0000846FFF7A4FE0520FFF7DBFB022000211C
:101AB0001F22202300930192029103900B460322E0
:101AC0000120FFF794FE0520FFF7CBFB0220002149
:101AD0000122202300930192029103900B460722DA
:101AE00004210120FFF783FE0520FFF7BAFB022047
:101AF00000211F22202300930192029103900B46A4
:101B0000072204210020FFF772FE0520FFF7A9FB42
:101B1000FFF796FE0520FFF7A4FBFF20FFF7B1FCBF
:101B20000520FFF79EFBFFF7EBFC0520FFF799FB75
:101B30000020FFF7A6FCFFF7FDFC0520FFF791FB57
:101B40002523032204A90120FFF754FD07B000BD9F
:101B5000354E49564953494F4E000000AC3B0000FA
:101B600010B5002819DA394A03071B0F083B9B08F8
:101B70009B00D2588307DC0EFF23A3409A434B07F8
:101B80001B0E8407E40EA3401A43304B0407240FB6
:101B9000083CA408A4001A5118E02D4A03231B0294
:101BA000D21883089B00D2588307DC0EFF23A34082
:101BB0009A434B071B0E8407E40EA3401A43244BA1
:101BC000032424021B198408A4001A5110BD704775
:101BD00010B5FEF7D6FBFEF7E1FC1E4C1E48844212
:101BE00000D90FE02002000A401E1C49486107216D
:101BF0000020C043FFF7B4FF002018498861072088
:101C0000086100BF0020FEF78FFF0222082100209C
:101C1000FFF76BF8FFF7A3FEE1204002FFF704FA9D
:101C200002211520FFF79CFF0DA0FEF751FBFA20C3
:101C3000FFF7C6FA0DA0FEF74BFB0022062102209B
:101C4000FEF766FE00F086F8002010BD1CED00E0F7
:101C500000E100E080BB0000FFFFFF0000E000E0CB
:101C60000D0A0D0A53656E736F7200000D0A0D0A9E
:101C7000566F6C746167650010B52E480068401C93
:101C80002C49086001210020FEF7D3FD0446002CFA
:101C900008D029480068401C27490860012100201D
:101CA000FEF7F6FD10BD10B524480068401C23491E
:101CB000086001210846FEF7BCFD0446002C08D050
:101CC0001F480068401C1E49086001210846FEF7B5
:101CD000DFFD05210120FEF7ACFD00280CD01948DE
:101CE00080691949086019480068401C1749086054
:101CF00005210120FEF7CCFD10BD10B50821022002
:101D0000FEF797FD002808D011480068401C1049D4
:101D1000086008210220FEF7BBFD10BD10B50321AD
:101D20000846FEF786FD002803D003210846FEF78B
:101D3000AFFD10BD3C00001040000010440000103A
:101D40004800001000E000E0600000105C0000109F
:101D5000500000108EB0FFF7ACFB65A200210120FF
:101D6000FFF7C9FC64A200210320FFF7C4FC66A0B2
:101D7000FEF7AEFA6548C06BC008C0006349C8638F
:101D80000846C06B012108436049C863012211461F
:101D90001046FEF7BDFD012211461046FEF7A4FDD8
:101DA000012200210320FEF7B3FD5948FEF75DFB39
:101DB0009CE00320FEF794FB0446204600F0F2FC72
:101DC0000546544A544B00F0F1FC0022534B01915C
:101DD000009000F07FFA0022514B0391029000F036
:101DE000E5FC0591049000F091FC044623464DA2C9
:101DF0000D2106A800F0A8F806AA00210720FFF789
:101E00007AFC7D21C900204600F0B6F903916421D7
:101E1000039800F0B1F90D460A21284600F0ACF90C
:101E20000E467D21C900204600F0A6F903916421E9
:101E3000039800F0A1F90D460A21284600F09CF90C
:101E40007D21C9000590204600F096F90D466421D9
:101E5000284600F091F907467D21C900204600F090
:101E60008BF9009604903A46014632A0059BFEF796
:101E70002FFA06210220FEF742FD002820D1002281
:101E800001210846FEF730FD0520FFF799F90122F0
:101E900011461046FEF728FD0520FFF791F90022B4
:101EA00001210846FEF720FD0520FFF789F90122F0
:101EB00011461046FEF718FD0520FFF781F904E0F2
:101EC000012211461046FEF70FFD1E48844205D937
:101ED000012200210320FEF707FD04E00022114645
:101EE0000320FEF701FDFA20FFF76AF961E7000021
:101EF000564F4C5441474500666C616D6D61626C94
:101F000065206761730000000D0A00004040044036
:101F1000009F24006666666666660A4000F88F4089
:101F200000408F40414443203A2025646D562020D4
:101F30000000000025642E256425642564562020B9
:101F400000000000C40900000FB47CB50C0009AA11
:101F5000009001D00019401E094B7B446946019056
:101F6000089800F03CFE002C054603D0694600208E
:101F7000FEF7BFF928467CBC08BC04B01847000037
:101F8000A70C0000F7B5002675291068009914A564
:101F900011D000F078FD002802DA404211A508E0D7
:101FA000009909688A0701D50FA502E0490704D501
:101FB0000EA5012601E000F06FFD009F00242437EC
:101FC00004E000F055FF30313955641C0028F8D189
:101FD00033462A462146009800F090FDFEBD0000E1
:101FE000000000002D0000002B0000002000000079
:101FF000F3B50446002081B0B8E0E1682046884788
:10200000002872D0252802D06268A168ABE0594F41
:1020100000267F442046E16888472028054608DBE3
:10202000312D06D2781920380078002801D00643D7
:10203000F0E7B00701D5042086430020E0610746A1
:10204000A0612A2D0AD0284601F064FD002827D07F
:10205000303DB80000190090856119E00298BA007F
:10206000121902C8916102902046E1688847012F49
:10207000054617D1E06900281FDA202086431CE0BE
:1020800000980A21806948430099401930388861D6
:102090002046E1688847054601F03CFD0028EFD165
:1020A000012F0AD02E2D08D12046E1688847054629
:1020B000202006437F1C022FC3DBA069002803DA1F
:1020C0004042A06101200643F00701D01020864362
:1020D0006C2D0BD0682D09D04C2D3CD06A2D38D0FA
:1020E000742D38D07A2D36D016E041E0E1682F46C5
:1020F00020468847B842054609D16C2F29D00120D7
:102100008002E168064320468847054604E06C2FBC
:102110001DD0FF2001300643002D29D0284641382C
:10212000192803D80120C002064320352046266026
:102130002946029A1646FEF701F8002810D0012819
:102140000BD0F61DF008C0000830029055E7402083
:10215000E1E78020D5E70020D3E7361D02964CE763
:1021600062682846A1689047206A401C206244E7C4
:10217000206AFEBD22230000002203098B422CD3DB
:10218000030A8B4211D300239C464EE003460B43C7
:102190003CD4002243088B4231D303098B421CD329
:1021A000030A8B4201D394463FE0C3098B4201D31B
:1021B000CB01C01A524183098B4201D38B01C01A53
:1021C000524143098B4201D34B01C01A52410309CA
:1021D0008B4201D30B01C01A5241C3088B4201D379
:1021E000CB00C01A524183088B4201D38B00C01A26
:1021F000524143088B4201D34B00C01A5241411A4D
:1022000000D201465241104670475DE0CA0F00D02F
:102210004942031000D34042534000229C46030928
:102220008B422DD3030A8B4212D3FC22890112BAAE
:10223000030A8B420CD3890192118B4208D3890186
:1022400092118B4204D389013AD0921100E089099E
:10225000C3098B4201D3CB01C01A524183098B427F
:1022600001D38B01C01A524143098B4201D34B0168
:10227000C01A524103098B4201D30B01C01A5241CB
:10228000C3088B4201D3CB00C01A524183088B4252
:1022900001D38B00C01A5241D9D243088B4201D3DB
:1022A0004B00C01A5241411A00D2014663465241C6
:1022B0005B10104601D34042002B00D549427047C5
:1022C00063465B1000D3404201B50020C046C046C3
:1022D00002BD0000F0B59446F74A0E091D091746E5
:1022E000164015400C46B2435C408BB0002A7DD0AE
:1022F000AF43FCD0002D7AD0002EFCD0E20F324349
:10230000521BFF24A40412190792420DC902C702EE
:1023100011436046420DDC021443C2020120C00793
:10232000014304430191200C110C8C460104234607
:102330008B43089161460904E04D8A430991010AE3
:102340007D4449198039097805464D4301266D18A9
:10235000F605751B6943C90C891C640B4C43641852
:10236000B5012D1B2C0C2604B5434D434C43290CC1
:10237000611889090691F90701D00121C907039164
:1023800001997F08CC0727434C08069DE10B4D437C
:10239000290C65460E464D4346437D1BB4410095CE
:1023A0000D465D432E0C2F040D4601945543002429
:1023B000AE4624042D0C34433D4326460295754613
:1023C000039C2D04641B039405D2029C3546641CB7
:1023D00000266E410294009F029D019C7D1BB4412A
:1023E0000904009501940591A40801E03EE16DE126
:1023F000069900266143090C0C464443650BE7042B
:1024000064464C43F604A6462E43640B27433546E8
:102410007446039EE404341B039402D200267F1CFE
:102420007541009E019CF61BAC4101940C465C4337
:10243000650FE70000960C4600265443F600A646BA
:102440002E43640F274335467446039EE400341B35
:10245000039402D200267F1C7541009E019CF61B4E
:10246000AC41B509A4062C43039DB706AD092F4323
:10247000039DC900AD060395059D69180591069950
:10248000E50B6943090C65460E464D4346437D1BEB
:10249000B44100950D465D432E0C2F040D46554367
:1024A0000194AE46002424042D0C34433D432646BB
:1024B00002957446039D24042C1B039405D2029CB0
:1024C0003546641C00266E410294009F029D019CCB
:1024D0007D1BB44101948C0500950494059C890AE8
:1024E00061180591019C0699A4086143090C0C46EA
:1024F00044430020650BC0042843E50464464C4374
:10250000660B074603982E43E404001B039002D297
:102510000020761C4741009C0198A41BB841019003
:102520000846A44658430024450FE6002E430D46B6
:10253000C7005543680F3443039E3843ED00751BB5
:1025400002D20026401C74416746019E381AA641FB
:102550008409B7062743AC09800620434C02AE0627
:10256000049984466418059D002068410590002068
:1025700008990090604619430018099B7F41134356
:10258000F20F3D46104377002A46C61A8A4195420B
:1025900003D90120009030461546EE0F00186D411A
:1025A000B646FA0F00260243304628437D000395C5
:1025B000009D6F00D61A0546B4468D417646002E22
:1025C00001D1A84202D97F1C62462846C50F961841
:1025D000039AAC464041D50F024635437800164673
:1025E000EB1A8E4119466346002B01D1B24202D943
:1025F000401C0D4632462A4301D001210C434002C3
:10260000059A0021001951410222002902DB012212
:1026100000184941079B4C051B14D318C90A1B0518
:10262000CB1807994205C00AC90720435940002A20
:1026300009D00124A24006D30024401C6141002A95
:1026400001D1400840001E4A002B04DB1C46144206
:1026500001D09A4325D101220798920690423DDC91
:10266000032040070818C10FC9073EE00E460718AF
:102670004E41144D7A42B5411BD3624696181D4611
:102680005D41104A7642AA4113D3012252054D0002
:10269000D5420BD15C00D4420BD04B4003D5920203
:1026A00011430BB0F0BD49004908FAE7E10FC90733
:1026B0001BE000200449F4E70000FF0705200000AC
:1026C0000000F07F0000E0FF0000F87F0D480142AD
:1026D00001D0214605E00342EBD0E7E705204007A3
:1026E000091809480143C01241400020D9E7594068
:1026F000504010B54B40424059405040FFF7EAFD72
:1027000010BD00000000F07FFFFFFF7FCB02420DF5
:1027100010B51A430B1504D00124E4072243002B03
:1027200006DB0A4CE31A05D41046D840FF2B00DD27
:10273000002010BD4A00002800D001201018044AD3
:102740009042F5D8C817C04310BD00001E04000019
:102750000000E0FF1F22030C02D10F22000402D070
:10276000030E02D003E000217047083A0002030F75
:1027700001D1121F0001830F01D1921E8000002899
:1027800001DB521E4000120551184205C0124118CB
:1027900010467047C10FC90700D04042012292077E
:1027A0001143D7E701218907D4E70000F0B59D4C1C
:1027B0000D092646AC46AE430D465D4089B0002E5D
:1027C0007ED01E092746B743FAD067462740ED0F53
:1027D0003D43264075D024012142FBD07419FF25CA
:1027E000AD04641B0494CC02D90201231B05E40A46
:1027F000C90A1C4319432401030F1C430B010501A3
:10280000110F0B43A00B81032D0916018C43A90B5B
:102810008A0395439A0B9703BB4336099C46B30B37
:102820009F03BE430F465F4303972F4677430296AD
:102830004E19BE460796029FDF197E430597039FF8
:10284000F71B7646BE1B77463F0100970196039F14
:10285000B60BF619B646019E009FB604BF1902D307
:102860007646761CB64676467600002F01D00127C4
:102870003E4367467D430695029D27466F4300977A
:102880007F00069DBE196F00BD1966469619079F09
:10289000AE467743069D03967D1B01950619059D5F
:1028A000009F75430296EE1B019D51436D1A07462A
:1028B0005F43F31B019500937546EB0606D001E0DC
:1028C00091E08DE06B0901252B4300E06B090026A8
:1028D0003546B6460E0A2D0609063543CB18764610
:1028E0007541AE4600213D0A09063E062943F61809
:1028F00075466941B646019B00269D0DB7022F43E0
:102900009B0276469B194F41009900258E0DAD0222
:102910008902C91835437D41504362465443039BA5
:10292000029A5A43121A161B0022B70E9301B601DF
:1029300075193B435341070B1205000545193A43EE
:102940005A4100200306270A20063B434418142658
:102950006B41AB4200D2521C01204002824203D3A1
:1029600015260221C94301E00321C9432020851B0C
:10297000AA401F46AF40F34013432046049AF0405C
:102980001214891809055A1804993843C907514087
:10299000AC4009D001239C4006D30023401C594180
:1029A000002C01D1400840001F4B002A03DB1A42D3
:1029B00001D08B4312D1012204989206904207DB8A
:1029C00005204007091819480143C012414004E09E
:1029D000032040070818C10FC907002009B0F0BD47
:1029E0000020E907FAE706180C464C4110487642E9
:1029F000A04114D394181A465A410D48644290419C
:102A00000DD3012049004005814208D3590081427D
:102A100005D3E90F044AC90700201143DEE700206F
:102A20000449DBE70000FF070000F07FFFFFFF7FA6
:102A30000000E0FF0000F87F70B50446856900687B
:102A4000C10601D5302600E02026C00707D070BDA2
:102A500062683046A1689047206A401C20626D1E63
:102A6000F6D570BD70B5044685690068C00707D10A
:102A700070BD6268A16820209047206A401C2062D7
:102A80006D1EF6D570BD09684A0501D540B2704784
:102A9000C905FCD500B2704709684A0501D5C0B226
:102AA0007047C905FCD580B2704770B505460C4625
:102AB000012A05D02868800600D5EA69002302E0D3
:102AC000012305E05B1C934202D2E05C0028F9D1AF
:102AD000A869E618C01AA861286AC01828622846A2
:102AE000FFF7AAFF04E06A682078A968641C904791
:102AF000B442F8D32846FFF7B5FF70BDFFB50446D2
:102B00000D4681B0243000902168880604D510223B
:102B1000E0699143216000E00120A84201DD471BEC
:102B200000E000270498A1697A191018081AA0611A
:102B30002068C00602D42046FFF77EFF002608E08A
:102B400003986268A168805D9047206A401C761CEB
:102B5000206204988642F3DB2068C0060AD520462E
:102B6000FFF76AFF06E06268A16830209047206A9C
:102B7000401C206238467F1E0028F4DC07E00098E5
:102B80006268A168405D9047206A401C2062284628
:102B90006D1E0028F3DC2046FFF764FF2068000666
:102BA00002D5022005B0F0BD0120FBE711680268E4
:102BB000006A530501D508700AE0D30501D50880E5
:102BC00006E0130602D5C21705C101E052060860EF
:102BD0000120704701694A1C02610878704700B5FE
:102BE0008FB0029100210591054901937944039129
:102BF000114604906846FFF7FBF90FB000BD0000D6
:102C0000E5FFFFFF4B680A689A4202D2531C0B6033
:102C100010707047084B70B50C467B44FFF7DFFF20
:102C200005462046FEF78FF9002802D00020C04359
:102C300070BD284670BD0000DDE2FFFFF7B5044619
:102C4000154686B02B497944002703C93E460090BB
:102C5000019111E007986A467100415A02A800F0FC
:102C600091FB411C07D02168890603D5E269391818
:102C700091420ED83F18761C2068800602D5E06984
:102C8000B84206DDAE42E5DB07987100405A0028E5
:102C9000E0D1A069C01BA0612046FFF7CDFE154919
:102CA00079445A3903C900900020019116E041008F
:102CB0006A460798415A02A800F064FB0590401C40
:102CC0000AD0002505E0626802A8A168405D90472F
:102CD0006D1C05988542F6D30498401CB0420490C0
:102CE000E5DB206AC01920622046FFF7BBFE09B071
:102CF000F0BD000082170000F7B5D21D0026D208F3
:102D000015A5D200F52905CA11D0002A05DA00213F
:102D10004042914111A50A4608E0009909688B07D5
:102D200001D50FA502E0490701D50EA501261146E0
:102D3000009F0024243704E000F0AEF830323A550A
:102D4000641C02460A43F7D133462A4621460098BE
:102D5000FFF7D4FEFEBD0000000000002D000000C3
:102D60002B0000002000000070B504460021243430
:102D700008E05507D2086D0F303565545D07491CD2
:102D80002A43DB0815461D43F3D10468002310A233
:102D9000250708D520252C400C4304D0C469012305
:102DA0000CA2641EC461FFF7A9FE70BD10B50446F5
:102DB00021461068FFF770FE002302462046FFF709
:102DC000D3FF10BDD21DD108C9000CC9CCE700004B
:102DD0000000000030000000F8B50F46016809054A
:102DE00002D5224C7C4402E0204C7C440E34054643
:102DF0000021243508E016071209360FA65D6E542F
:102E00001E07491C32431B0916461E43F3D12246B6
:102E100004680023240705D5702F06D0002901D0AF
:102E200011320223FFF76AFEF8BD10320123F9E7E1
:102E300070B504460D4621461068FFF72DFE0023AD
:102E4000024629462046FFF7C7FF70BDD21DD308B2
:102E5000DB000CCBC0E730B40368202412682343A6
:102E600003600823C36130BC0023B5E7EC15000004
:102E700001468008081A02091018020A1018020CEC
:102E80001018C008820012185200891A01E00A398D
:102E9000401C0A29FBD270470B4670B502461D46FE
:102EA0008907800808439C08111AA5410C092807C6
:102EB0000443280964186841250A01060D43010AE4
:102EC0002C194141200C0D0428430D0C00194D41D3
:102ED000002140194D41C00869070843E908840FE3
:102EE0008D002543840024184D4124196D41121B87
:102EF000AB4107E00925ED432C1152196341002431
:102F0000401C61411C460A250026551BB441F1D2E4
:102F100070BD00007047FFB50C461E468FB003CA57
:102F2000089009914F007D0D00D16D1E00210846CB
:102F30000020C0460321099A89050840002A03DAC7
:102F40008200801840080840800D01280A9002DDA8
:102F50000020C0430A90089807430DD0EF48F0497D
:102F6000281848430714189800281DD07542291EB8
:102F70001DDD0A9842421BE01898012802D000206B
:102F8000302104E00020F24305E02154401CB0420F
:102F9000FBDB30460022189B002121540F998B60E7
:102FA0000A60486013B0F0BDBD1B6D1CDFE70A9AD4
:102FB000002900DA69420BA800F076FA0BA803ABEF
:102FC00007C807C30899099800F0D4FA019101468F
:102FD000D44802920918002D00910ADDD1490398C6
:102FE0000A9A4942401803A90390684600F0E7FC9A
:102FF00007E003990A9A081803A90390684600F0AD
:10300000B4FC009000040292000C019103D0002057
:10301000C043410800E01046189A002A03D000225D
:10302000009215461EE0751E05D4FFF735FF3032BD
:1030300062556D1EF9D501220843079602D0002281
:103040007F1C04E02078302801D100227F1E002A56
:10305000069788D01EE0112D07DAFFF71DFF3032EA
:1030600062556D1C02460A43F5D108430FD1002179
:10307000681E05E0235C625C6354491C2254401EB8
:103080008142F7DBA81B401E0795069002E00098DE
:1030900000280AD0079A18990020A0540F98079B7F
:1030A000069A4360026081607CE711260020189038
:1030B00059E7D21DF0B50D460446D10893B0C900BA
:1030C00003C90C900D9100F00FFD02460D98C00F42
:1030D00001D02D2007E02068810701D52B2002E0D8
:1030E0004007C00F4001032A0F9001D0072A05DBDB
:1030F00003462946204600F093F90DE1206880063A
:1031000001D5E76900E006272846652D04D066282A
:1031100014D0672D69D12DE00020112F009001DB24
:10312000112300E07B1C0CAA03A910A8FFF7F3FEF3
:103130001199002610987D1C0E9142E001203B461B
:103140000CAAC0070B900120009003A910A8FFF75C
:10315000E2FE119D12991098002600290E9501D1CA
:10316000791C4518781B02D44642761E7D1CE81B4C
:1031700000903AE0012F00DA01270020112F009083
:1031800001DD112300E03B460CAA03A910A8FFF7BC
:10319000C2FE11993D46109800260E91216809073C
:1031A0000BD40E99A94200DA0D4603A9012D04DDC6
:1031B0004A19203AD27F302A06D0B84201DA011DDE
:1031C00004DA012100910FE06D1EEFE7002802DC18
:1031D00086192D1A03E0411CA94200DD0D46801B13
:1031E000401C00900120C0070B902068000705D408
:1031F0000098A84202DB0020C043009069460020EE
:10320000C8720B98012102AF0337C907884225D045
:10321000022010902B2011900B9800280BDA4042CE
:103220000B902D20119006E00B98FFF721FE303116
:103230007F1E0B9039701099481E00291090F3DC06
:103240000B980028F0D111987F1E38702068000577
:1032500001D5452000E065207F1E387001A8C01B05
:10326000C01D0B900F98002800D001204119009834
:10327000C01709180B980818A169081A401EA06108
:103280002068C00602D42046FFF7D6FB0F9800281E
:1032900005D06268A1689047206A401C20622068BF
:1032A000C00624D52046FFF7C7FB20E0002E07DB31
:1032B0000E98B04204DD03A86268805DA16802E058
:1032C0006268A16830209047206A761C401C20620A
:1032D0000098401E00900AD100F09EF8C068626815
:1032E0000168405CA1689047206A401C2062284623
:1032F0006D1E0028DADC07E062683878A1687F1C60
:103300009047206A401C20620B99481E00290B90B0
:10331000F2DC2046FFF7A6FB022043E601FCFFFF9C
:10332000104D0000E1DFFFFF10B54369002B02D014
:10333000C046C04601E0FFF7B8FB012010BD12688F
:10334000014624310A7000224A700122ECE711681C
:103350000022D243E8E710B54369002B02D0C046F3
:10336000C04601E0FFF76AFC012010BD126801466B
:10337000243182840022C2840122ECE711680022F9
:10338000D243E8E770B505460C46164600F03CF817
:103390000368FF200230C05C012807D0FF2C10D842
:1033A000185D00280DD001202C7070BDFF20324622
:1033B00021460830C0581B182846FF330833984769
:1033C00070BD0020C04370BD754600F02DFBAE46B9
:1033D000050069465346C008C000854618B020B5B0
:1033E000FCF74CFF60BC00274908B6460026C0C564
:1033F000C0C5C0C5C0C5C0C5C0C5C0C5C0C5403DAD
:1034000049008D467047000010B500F005F8001D1A
:1034100010BD00BF3D07000000487047E4000010E9
:10342000F8B504461F4601230068DB020326014667
:103430001840072A05DB002801D017A506E017A5CC
:1034400004E0002801D016A500E016A51020814355
:103450002160A069C01E002FA06101D0401EA061A4
:103460002046FFF7E9FA002F09D038466268A168C4
:103470009047206A401C2062C01C206206E0206A3F
:10348000FAE762682878A1686D1C9047761EF8D22A
:103490002046FFF7E7FAF8BD4E414E006E616E0020
:1034A000494E4600696E6600F7B516468AB0304848
:1034B00078446C4603467C33C06F5A689B680DC4E1
:1034C0002B4B7B446E33083303AC0DCB0DC437203C
:1034D000C001081837211B30FEF758FE05460C4680
:1034E000803D1B3C02D56442012000E00020002703
:1034F00009900FE0E0070BD00C201D497843794478
:1035000032464E394118684600F02FFA6B4607C321
:1035100064107F1C002CEDD1154F7F442E3F16E028
:10352000E80712D02001C01901460EC90691089380
:103530000792C068F04201D198190890324606A956
:1035400003A800F012FA03AB07C36D10641C002D32
:10355000E6D1324669460998002803A802D000F057
:103560002EFA01E000F001FA0A9B07C30DB0F0BD8E
:10357000480F0000034640000A4610B5400D0BD02E
:103580000121C9070F24A40200191C036408214368
:10359000540D2143D20207E000210120F2E7D40FAD
:1035A000490021435200401E0029F8DADB0FDB07F7
:1035B000184310BDFFB50C46154685B048685168E4
:1035C00000F07AFA00910190A068A96800F074FAFE
:1035D00002910390A068696800F06EFA029A1218CE
:1035E0008242029201D2012000E00020019A0B18D1
:1035F000D2180028019202D08A4202D903E08A42FE
:1036000001D2012000E000200099081800906068B5
:10361000A96800F051FA029A12188242029201D26D
:10362000012000E00020019A0B18D2180028019216
:1036300002D08A4202D903E08A4201D2012000E08E
:10364000002000990818009020682968400049006F
:10365000400849084018EE49471814E00199400015
:10366000C90F08430090019802994000C90F084310
:103670000190029803994000C90F084302900398F3
:1036800040007F1E039000980028E7DA0898002881
:1036900001D0E04E00E00026B74228DAF71BF8061A
:1036A000C00E15D0029B2021091A039A8B401A43A1
:1036B0000392029A019BC2408B401A430292019AE4
:1036C000009BC2408B4000991A430192C140009177
:1036D0007A110BD06B460320811A01D5002101E03D
:1036E000890059588700401ED951F5D537460398AF
:1036F0000299002800D00120014308980291002877
:1037000008460CD0002800D001200199019A4905F3
:1037100008430121D20AC902D202019200E001212C
:103720000E9B0122D207012B02D0002B03D013E005
:10373000002807D116E0904204D890420CD1019B9A
:103740000B4209D0019B5918019105D10099491CE0
:10375000009101D17F1C0092002803D0102108465F
:103760000020C04620682968019B009A4840C10F8C
:103770000598C90739430EC009B0F0BDFFB587B041
:10378000099A08980899536892684068896896462B
:103790000022039317469446089A12685300099A28
:1037A0005B081268520052089A1A9B4BD4180A9A66
:1037B000002A01D0352200E0402206920022012397
:1037C00015460492DB07059324E0002D05D17546CC
:1037D0000346039E4D1BB34109D375466646039BC2
:1037E000491B049D9841059B7519AC465F41634692
:1037F0003B4308D0059B049EDD0776082E435B08FB
:103800000496059301E0641E521EC50FED0749188A
:103810004041521C069B9A42D7DB002D04D17546CD
:10382000039A6B1A824101D203200CE0039A0B46E3
:103830006B404240134301D1022004E0014301D018
:10384000012000E0002061460191002100970291D3
:103850000A99002905D06146400201436D4B019150
:1038600002E08007002302909C423ADA1A1BD0063D
:10387000C00E15D0029D2021019C091AC5408C4024
:103880002543029C8C4000D001242543019C0295D5
:103890003D46C4408D4039462C43C14001940091BF
:1038A00054111DD06D460221002202290CD10320A3
:1038B000001B07E0002804DB8600AE59002E00D074
:1038C0000122401C0328F5DB081B02D588002A5082
:1038D00004E08000285810438A00A850491EE3D510
:1038E0001C460A98002802980CD0002800D001201D
:1038F0000199019A490508430121D20AC902D2025D
:10390000019200E00121109B0122D207012B02D07D
:10391000002B03D013E0002807D116E0904204D812
:1039200090420CD1019B0B4209D0019B5918019187
:1039300005D10099491C009101D1641C0092002816
:1039400003D0102108460020C04608980999019A22
:103950000068096848400099C30F0798DB072343B4
:103960000360826041600BB0F0BD1FB50023009280
:103970000A46014601A8FFF71DFE01A807C804B0CA
:1039800010BD1FB5012300920A46014601A8FFF7AA
:1039900011FE01A80F2407C8A402C30F4000DB07D3
:1039A0004008001B002900DB0020490000054908F1
:1039B000CC0A204349051843D20A1143DFE71FB55B
:1039C000002300920A46014601A8FFF7D7FE01A88E
:1039D00007C8D4E71FB5012300920A46014601A893
:1039E000FFF7CCFE01A80F2407C8A402C30F4000B4
:1039F000DB074008001B002900DB00204900000510
:103A00004908CC0A204349051843D20A1143B6E7B6
:103A100002C0FFFF013C0000FF3F00000446C0461B
:103A2000C0462046FCF718FC00487047C400001050
:103A3000024670B50A4392072AD11E4DEE0104C812
:103A400008C9541B9443344017D0D0B2D9B2401A9D
:103A50002106014310D190B299B2401A21040143CA
:103A60000AD110021902000A090A401A2102014370
:103A700002D1100E190E401A70BD9A42DFD010BA52
:103A800019BA884201D9012070BD0020C04370BD21
:103A900002780B78401C491C002A09D09A4207D1B1
:103AA00002780B78401C491C002A01D09A42EFD0C2
:103AB000D01A70BD01010101F8B5040C8BB2264685
:103AC00082B25E43104658430D0C370C3604002179
:103AD0008019164679416E43370C36048019264604
:103AE00079416E438919F8BD4900CA02104300D0DC
:103AF00004204A0D01D001221043054A490D91428C
:103B000001D102210843012800D10520704700009F
:103B1000FF07000030380A2801D20120704700203A
:103B20007047000010B500290AD00878002807D097
:103B300005487844FFF77CFF002801D0002010BD25
:103B40000248784410BD00007E090000760900009C
:103B500010B500290AD00878002807D00548784415
:103B6000FFF766FF002801D0002010BD024878440E
:103B700010BD00006E0900006609000003B4024891
:103B80007844844603BC60472FF5FFFF00000050D7
:103B900000000150000002500000035000000050DF
:103BA0000000015000000250000003500000FCFC27
:103BB000FCFC000000FCFCFCFC000000E0E0E0E09D
:103BC00060E0E0E0C0000000ECECECEC0000000481
:103BD0003CFCFCF08080F0FCFC3C04000000070F83
:103BE0001F1F1C181C1F1F0F070000001F1F1F1F77
:103BF000001F1F1F1F0000001F1F1F1F00000000CD
:103C000000010F1F1F1F1F0F010000000080E0E0D8
:103C1000F0703070F0E0E080000000F0F0F0F000B4
:103C2000000000000000F0F0F0F0303030303000E4
:103C30000000F0F0F0F03070F0F0E080000F3F3F57
:103C40007F7060707F3F3F0F0000007F7F7F7F604D
:103C50006060600000007F7F7F7F6363636360005C
:103C600000007F7F7F7F60707F7F3F0F000000003C
:103C70000000004F00000007000700147F147F14AD
:103C8000242A7F2A122313086462364955225000E1
:103C900005030000001C2241000041221C00140802
:103CA0003E081408083E08080050300000080808C4
:103CB0000808006060000020100804023E514945D9
:103CC0003E00427F400042615149462141454B310F
:103CD0001814127F1027454545393C4A494930019F
:103CE000710905033649494936064949291E0036F6
:103CF0003600000056360000081422410014141447
:103D00001414004122140802015109063249794174
:103D10003E7E1111117E7F494949363E4141412283
:103D20007F4141221C7F494949417F090909013EE0
:103D30004149497A7F0808087F00417F41002040BF
:103D4000413F017F081422417F404040407F020CE8
:103D5000027F7F0408107F3E4141413E7F090909EF
:103D6000063E4151215E7F0919294646494949319C
:103D700001017F01013F4040403F1F2040201F3F85
:103D80004038403F63140814630708700807615106
:103D9000494543007F414100020408102000414191
:103DA0007F00040201020440404040400102040040
:103DB0000020545454787F484444383844444420C4
:103DC000384444487F3854545418087E0901020688
:103DD0004949493F7F0804047800447D4000204061
:103DE000443D007F1028440000417F40007C0418BF
:103DF000047C7C0804047838444444387C1414144B
:103E000008081414187C7C080404084854545420EE
:103E1000043F4440203C4040207C1C2040201C3C6F
:103E20004030403C44281028440C5050503C4464DE
:103E3000544C44000836410000007F000000413629
:103E4000080002010204023E555541220000000014
:103E50000000007900001824742E24487E49424056
:103E60005D2222225D15167C161500007700000ADF
:103E7000555555280001000100000A0D0A040814D8
:103E80002A1422040404041C00080808000101018B
:103E90000101000205020044445F444400000402A2
:103EA000017E2020103E060F7F007F0018180000C2
:103EB0000040502000000A0D0A0022142A1408179E
:103EC00008342A7D1708046A593048454020702973
:103ED0002628707028262970702A252A70722926B3
:103EE00029707029242970702A2D2A707E117F492B
:103EF000490E515171117C555654447C55565444C9
:103F00007C565556447C5554554400457E4400002B
:103F1000447E450000467D460000457C45007F49C3
:103F200049413E7C0A11227D384546443838444692
:103F3000453838464546383846454639384544457B
:103F40003822140814222E5149453A3C4142403C43
:103F50003C4042413C3C4241423C3C4140413C0CA3
:103F60001062110C7F1212120C403E01493620558E
:103F70005654782054565578205655567820555624
:103F800055782055545578205657567824547854EF
:103F9000580C5252721338555654183854565518F6
:103FA0003856555618385554551800497A4000006F
:103FB000487A4100004A794200004A784200314A7A
:103FC0004E4A307A110A097030494A483030484A1E
:103FD0004930304A494A30304A494A31304A484AE1
:103FE0003008082A08083864544C38384142207890
:103FF0003840422178384241227838424022780CB9
:104000005052513C7E141414080C5150513C1E095E
:1040100009295E081515354E384446452030484A72
:104020004920384546452030494A49207C45464587
:10403000382050507C031F151535510E1515354687
:104040007C55565544385556551800447C40007FE1
:104050004844404000497F44007C0812217C78108D
:104060000A09707C0912217C78110A0970384744CA
:104070004738304B484B303E417F494938443854EB
:10408000587C1516354878110A09104854565520A1
:10409000204856552048555655202049565520044D
:1040A000057E0504083C4822013C4245423C38421A
:1040B0004522783C4340433C38434023780C116010
:1040C000110C4466554C44486A5948004464554CA8
:1040D0004448685A48004465564D4448695A490066
:1040E00000020102000001020100000101010001C3
:1040F00002020100000001000000020502000201AE
:104100000201007F05153A503E555541221814080A
:10411000140C444A4A515151514A4A447442414252
:10412000747E1111117E7F494949367F02010103D6
:10413000704E414E707F4949494161514945437F25
:104140000808087F3E4949493E00417F41007F08F9
:10415000142241700E010E707F020C027F7F040852
:10416000107F635D495D633E4141413E413F013FF8
:10417000417F09090906635549414101017F010158
:1041800003017E010308557F550863140814630773
:10419000487F48075E6101615E384448304C7C2AA4
:1041A0002A2A144438040408304B4D5930285454FA
:1041B000442000185552223E0402027C3C4A4A4ADE
:1041C0003C003C4020007C1028444041320C3040F0
:1041D0007E2020103E1C2040201C142B2A2A6038F0
:1041E00044444438443C047C4470282424180C1271
:1041F00012526038444C5424043C4420003C40405B
:10420000201C18247E241844281028440C107E10EA
:104210000C38443044380A0A4A2A1E044434140C28
:10422000201078040018084C483848487848484816
:1042300028187C08087C08281840484878405454BE
:10424000547C001800584038080808080801413D0F
:10425000090710087C02010E0243221E42427E42E0
:104260004222120A7F02423F02423E0A0A7F0A0AA3
:10427000084642221E0403423E02424242427E025D
:104280004F221F024A4A40201C4222122A46023F65
:10429000424A46064840201E08464A321E0A4A3E06
:1042A00009080E004E201E04453D0504007F08103D
:1042B0000044241F04044042424240422A122A067B
:1042C00022127B16220040201F0078000204783F53
:1042D00044444444024242221E0402040830320292
:1042E0007F0232021222520E002A2A2A4038242249
:1042F000207040281028060A3E4A4A4A047F0414C7
:104300000C4042427E404A4A4A4A7E040545251CEA
:104310000F40201F007C007E40307E402010087E31
:104320004242427E0E0242221E42424020180204B5
:10433000010200070507000004000008000000005B
:1043400000000002000100001080807F7E7D7C7BE9
:104350007A7978777676757473727171706F6E6E24
:104360006D6C6C6B6A6A69686867666665646463CD
:104370006362616160605F5F5E5E5D5D5C5C5B5B54
:104380005A5A5959585857575656555555545453C3
:104390005352525251515050504F4F4F4E4E4D4D1F
:1043A0004D4C4C4C4B4B4B4A4A4A4949494848486A
:1043B00047474747464646454545444444444343AA
:1043C000434342424242414141000000000000009C
:1043D000000000003031323334353637383941424D
:1043E0004344454640305800303132333435363757
:1043F00038396162636465664030780002400000CD
:10440000000000A00000000005400000000000C8FF
:10441000000000000C4000000000409C0000000074
:10442000194000000020BCBE000000003440000025
:10443000BFC91B8E00000004B5400000504BCFD018
:104440006607E2CF010000006C4100003E8251AAE5
:10445000DFEEA73401000000D9420000DCB5A0E285
:104460003A301F97FFFFFFFFB4450000FD25A0C8AD
:10447000E9A3C14FFFFFFFFFFF3F000000000080E6
:1044800000000000FF3F000000000080000000006E
:10449000DC45000000000010640000000401000082
:1044A0004046000064000010C4020000200100002B
:1044B0001C00000043000000F8FFFFFF0C0000009C
:1044C0000E0000000F0000002E0000001001000090
:1044D00043000000F8FFFFFF0040404040404040E4
:1044E00040404141414141404040404040404040C7
:1044F000404040404040404040050202020202026B
:1045000002020202020202020220202020202020B9
:1045100020202002020202020202909090909090CD
:10452000101010101010101010101010101010108B
:1045300010101010020202020202888888888888FF
:1045400008080808080808080808080808080808EB
:1045500008080808020202024000000000000000F3
:10456000000000000000000000000000000000004B
:10457000000000000000000000000000000000003B
:10458000000000000000000000000000000000002B
:10459000000000000000000000000000000000001B
:1045A000000000000000000000000000000000000B
:1045B00000000000000000000000000000000000FB
:1045C00000000000000000000000000000000000EB
:1045D000000000000000000000000000001BB70009
:1045E000001BB700001BB700000000000000000027
:1045F00000000000000000000000000000000000BB
:1046000000000000000000000100000000000000A9
:10461000000000000000000000000000000000009A
:10462000000000000000000000000000000000008A
:10463000000000000000000000000000000000007A
:04000005000000C136
:00000001FF
