:020000040000FA
:10000000780800109D020000A1020000A302000079
:10001000A5020000A7020000A902000000000000E5
:10002000000000000000000000000000AB02000023
:10003000AD02000000000000AF0200006D3F0000B4
:10004000B3020000B3020000B3020000B3020000DC
:10005000B3020000B3020000B3020000B3020000CC
:10006000B3020000B3020000B3020000B3020000BC
:10007000B3020000B7190000D710000031160000CD
:10008000B3020000B3020000770C0000AD0C0000CA
:100090009510000029090000B3020000B30200001F
:1000A000B3020000B3020000B3020000B30200007C
:1000B0008905000067050000390500000B050000F8
:1000C00000F002F800F0BFF80CA030C8083824187F
:1000D0002D18A246671EAB4654465D46AC4201D180
:1000E00000F0B1F87E460F3E0FCCB64601263342F3
:1000F00000D0FB1AA246AB4633431847986C000069
:10010000B86C0000103A02D378C878C1FAD8520708
:1001100001D330C830C101D504680C6070470000BD
:100120000023002400250026103A01D378C1FBD813
:10013000520700D330C100D50B60704710B56E294F
:1001400002D105F001FA10BD702902D104F0E7FFD9
:1001500010BD662902D106F09FF910BD652902D1B4
:1001600006F09AF910BD672902D106F095F910BD85
:10017000612902D1C046C04610BD03681B0A01D3E5
:1001800080231943692902D104F054FF10BD64296A
:1001900002D104F04FFF10BD752902D104F04AFFCF
:1001A00010BD6F2902D105F0D5FA10BD782902D112
:1001B00004F0A2FF10BDE92902D105F071FA10BDCB
:1001C000E42902D105F06CFA10BDF52902D105F041
:1001D00067FA10BDEF2902D105F0C8FA10BDF82961
:1001E00002D104F097FF10BD0368DB0901D380231F
:1001F0001943632902D105F022FD10BD732902D1F4
:1002000005F025FD10BDE32902D105F02FFD10BD3D
:10021000F32902D105F032FD10BD002010BD1FB53D
:10022000C046C04605F078FD04000020002106F01D
:100230001DF9401C60600020002106F001F9E0601B
:100240001FBD10B510BD05F03FFD1146FFF7E7FFDC
:1002500003F0BBFE06F070F803B4FFF7F2FF03BC37
:1002600000F0BBFC70B505460C46164602E00FCC0C
:100270000FC5103E102EFAD2082E02D303CC03C5B0
:10028000083E042E07D301CC01C5361F03E02178B8
:100290002970641C6D1C761EF9D270BD0848004799
:1002A000FEE7FEE7FEE7FEE7FEE7FEE7FEE7FEE726
:1002B000FEE7FEE703480449024A044B704700008A
:1002C000C1000000780600107808001078060010C1
:1002D000704700000FB4054910B503AA029805F055
:1002E0006DF910BC08BC04B01847000044000010B1
:1002F000704770477047000000000000FFFFFFFFDD
:100300003049314A11600121304A116051600021A9
:1003100051600121516000BF2C494968C907C90FCC
:10032000FAD02A4940398868400A40020321014333
:10033000264A403A91602649896B80229143244A9B
:10034000916300BF21494039C968C907C90FF9D075
:1003500003211E4A116301215163002151630121D0
:10036000516300BF1949496BC907C90FFAD0012170
:10037000164A9163144909688900164A11601146AA
:100380000968154A1160704700B502200F494039CD
:100390000860002008620E48806B202188430C49C9
:1003A0008863002300E05B1CFF2BFCD9FFF7A8FF4C
:1003B00006484030006801210904084303494031E0
:1003C000086000BD001BB700000000104080044022
:1003D000008204400400001008000010A0211B4A05
:1003E00051621A49C03108610121184AC032516175
:1003F000002151610121516100BF1449C031496997
:10040000C907C90FF9D00121104AC03291611049C2
:10041000896B402291430E4A916370470B49C0316A
:1004200008620121094AC032516200215162012152
:10043000516200BF0549C031496AC907C90FF9D0E7
:100440000121024AC03291627047000000800440DE
:1004500000820440002806D001280CD0022812D0C7
:10046000032820D117E0F94AD26901238B401A43AF
:10047000F64BDA6118E0F64AD26901238B401A4341
:10048000F34BDA6110E0F34AD26901238B401A433F
:10049000F04BDA6108E0F04AD26901238B401A433D
:1004A000ED4BDA6100E000BF00BF704710B50246B7
:1004B0000020002A06D0012A0CD0022A12D0032ADA
:1004C00020D117E0E14B9B6901248C40234200D0EE
:1004D000012018E0DE4B9B6901248C40234200D0B0
:1004E000012010E0DB4B9B6901248C40234200D0AB
:1004F000012008E0D84B9B6901248C40234200D0A6
:10050000012000E000BF00BF10BD10B5D348006857
:10051000401CD249086001210020FFF7C7FF0446B4
:10052000002C08D0CE480068401CCD49086001214D
:100530000020FFF78FFF10BD10B5CA480068401CAF
:10054000C849086001210846FFF7B0FF0446002CA7
:1005500008D0C5480068401CC3490860012108460E
:10056000FFF778FF10BD00B508210220FFF79EFFBE
:10057000002808D0BD480068401CBC49086008211C
:100580000220FFF767FF00BD10B502210320FFF72F
:100590008DFF00280CD0B6488069B6490860B6487F
:1005A0000068401CB449086002210320FFF752FF95
:1005B00003210846FFF77AFF002805D003F029F948
:1005C00003210846FFF746FF10BD10B5AB48006891
:1005D00040210843A94908601F2000F097F91E2018
:1005E00000F094F91D2000F091F91C2000F08EF924
:1005F00010BD70B5049C002806D0012838D0022810
:100600006AD003287BD19CE0002A18D18F4D6D68F9
:1006100001268E40B5438D4E7560002B07D13546BF
:10062000AD6801268E40B543884EB5600EE0874D1B
:10063000AD6801268E403543844EB56006E0834D9B
:100640006D6801268E403543804E7560002C07D1C1
:100650007E4DED6801268E40B5437C4EF56006E088
:100660007A4DED6801268E403543784EF5609DE069
:10067000002A18D1764D6D6801268E40B543744E20
:100680007560002B07D13546AD6801268E40B54315
:100690006F4EB5600EE06E4DAD6801268E4035435D
:1006A0006B4EB56006E06A4D6D6801268E4035439D
:1006B000674E7560002C07D1654DED6801268E40B0
:1006C000B543634EF56006E0614DED6801268E404E
:1006D00035435F4EF56069E0002A19D15D4D6D68C4
:1006E00001268E40B5435B4E7560002B08D1354620
:1006F000AD6801268E40B543564EB5600FE054E01C
:10070000544DAD6801268E403543524EB56006E02B
:10071000504D6D6801268E4035434E4E7560002C5D
:1007200007D14C4DED6801268E40B543494EF5602A
:1007300006E0484DED6801268E403543454EF56094
:1007400034E0002A18D1444D6D6801268E40B5432F
:10075000414E7560002B07D13546AD6801268E40AD
:10076000B5433D4EB5600EE03B4DAD6801268E4071
:100770003543394EB56006E0374D6D6801268E4031
:100780003543354E7560002C07D1334DED68012699
:100790008E40B543304EF56006E02F4DED680126E2
:1007A0008E4035432C4EF56000E000BF00BF70BDA9
:1007B000002806D001280CD0022812D0032820D10E
:1007C00017E0224A126901238B401A431F4B1A611A
:1007D00018E01F4A126901238B401A431C4B1A610F
:1007E00010E01C4A126901238B401A43194B1A610D
:1007F00008E0194A126901238B401A43164B1A610B
:1008000000E000BF00BF7047002806D001280CD0D0
:10081000022812D003283BD132E00C4A126901238E
:100820008B409A43094B1A6133E0094A126901234C
:100830008B409A43064B1A612BE0064A126901234A
:100840008B409A43034B1A6123E000000080005064
:100850000080015000800250008003500C00001006
:1008600010000010140000101800001020000010EC
:1008700000E000E0300000102C00001080800440F8
:10088000264A136901228A409343244A136100E0F7
:1008900000BF00BF704730B513468B408400204D29
:1008A0002D5901248C40A4002B5130BD02469000EC
:1008B0001B4B1B580120884080001858704730B5EA
:1008C000002A11D08300164CE3580124E4031B19BD
:1008D0001B6801248C4023438400114D2C590125B1
:1008E000ED036419236010E083000D4CE3580124EC
:1008F000E4031B191B6801248C40A3438400084DAA
:100900002C590125ED036419236030BDC206D20EB7
:1009100001219140034A116070470000008003509C
:10092000A864000000E100E070B500BF874A92684B
:10093000D0B240104007400F032820D1834A5269AB
:10094000D1B29E22114205D0814A11607F4A1268BD
:10095000D3B270BDCA07D20F3ED07C4C2468E5B23A
:100960007C4C2268541C7B4E34607B4CA554324630
:100970001268402A30D30022344622602CE002283C
:1009800011D1724C2468E5B2724C2268541C714E2D
:100990003460714CA55432461268402A1CD30022A0
:1009A0003446226018E0062807D1694A1268FF24FD
:1009B00001342243664C22600EE001280CD1634AC8
:1009C0005269D1B22022114203D00122634C22701D
:1009D00002E00022614C227000BFBAE7F8B504467D
:1009E00001205E49087000205A49086000BF1520A8
:1009F000012181405A48016000BF5A48406AC0083E
:100A0000C000584948620846406A012108435549D8
:100A100048620846806AC008C00088620846806A4A
:100A2000012108434F4988624F48006801210903AA
:100A300008434D4908600120886183204349C8600C
:100A40004948876939464948006804F03FFC06096F
:100A50002146304604F03AFC0546280A3B494860E6
:100A6000E8B208600320C86007208860084647692C
:100A700000BF36484069602108406028F9D101E094
:100A80003248076831484069C007C00FF8D100BF3D
:100A900015200121814032488038016000BF0520C7
:100AA0002A494860F8BD0AE000BF284A526920235D
:100AB0001A42FAD00278254B1A60401C491E0029C0
:100AC000F2D1704700BF2149496920221142FAD072
:100AD0001E490860704700B5034603E018785B1CA8
:100AE000FFF7F0FF18780028F8D100BD0FB400B56B
:100AF0009BB01DA80090642101A8009B1C9A04F0E3
:100B00003BFA01A8FFF7E7FF002000901BB008BCEC
:100B100004B018470146164800680E4A1268904211
:100B200011D00D48124A1268805C087010480068A5
:100B3000401C0F4A106010460068402801D3002076
:100B40001060012070470020FCE70000008000409A
:100B50004000001038000010F800001034000010B1
:100B600080E100E0804004408080044008000010E4
:100B70003C00001000BF1E49496920221142FAD0F2
:100B80001B490860704710B503460C461846FFF72E
:100B9000F1FF10BD00BF174800680028FBD00620F9
:100BA0001349486000201349086007201049486035
:100BB00011480078704710B50446FFF7EBFF034675
:100BC000FFF7D8FF10BD00B503461846FFF7D2FF68
:100BD00000BD01460020C043704700BFFEE700BFD4
:100BE00003484069C007C00FFAD001480068704749
:100BF0000080004038000010F800001070B5044676
:100C00000D46002C1AD10220F84948600020C86027
:100C10007D21C900F648006804F058FB6843F34999
:100C20008861FF200860042048610120486000BFFF
:100C3000EE484068C007C00FFAD11BE0012C19D163
:100C40000220EC4948600020C8607D21C900E848C6
:100C5000006804F03BFB6843E6498861FF200860B8
:100C6000042048610120486000BFE2484068C00796
:100C7000C00FFAD170BDDD480068C007C00F07D0B3
:100C80000120DA490860DC480068401CDA49086045
:100C9000D64800681021084207D01020D3490860C8
:100CA000D6480068401CD54908607047D1480068A4
:100CB000C007C00F07D00120CE490860D0480068A7
:100CC000401CCF490860CB4800681021084207D07B
:100CD0001020C8490860CB480068401CC94908601A
:100CE0007047002803D10121C04A516002E0012170
:100CF000C04A51607047002803D10021BB4A5160AF
:100D000002E00021BB4A516070470146002906D12C
:100D1000B64A506802221043B44A506005E0B54A12
:100D2000506802221043B34A5060704770B50446C1
:100D30000D46002C47D1B448006801214902084300
:100D4000B1490860B148006AC008C000AF490862F4
:100D50000846006A02210843AC4908620846406A16
:100D6000C008C00048620846406A02210843A749FB
:100D700048620846806AC008C00088620846806AE7
:100D800002210843A1498862A04880380069C00850
:100D9000C0009E4980390861084600690221084365
:100DA0009A49803908610020934908609349086096
:100DB0008E48856105208D49886203204861122094
:100DC00000F05BF922E0012C20D18F480068A102DD
:100DD00008438D4908608D484069C008C0008B49B0
:100DE000486108464069022108438849486100205B
:100DF00083490860834908607E48856105207D49F4
:100E0000886203204861132000F037F970BD70B587
:100E100004460D46002C12D17B480068012149028E
:100E20000843794908600020734908606F4885616C
:100E300003206E494861122000F01FF912E0012CD6
:100E400010D171480068A10208436F490860002072
:100E50006B49086067488561032066494861132033
:100E600000F00BF970BD30B505460C461346284618
:100E7000FFF741FF012D62D163480068A9020843D2
:100E800061490860B320C00018435A49C863D807B5
:100E9000C00F0ED05D484038C06BC008C0005B4931
:100EA0004039C8630846C06B03210843574940399D
:100EB000C863022003420BD054480068C008C00039
:100EC0005249086008460068032108434F490860FA
:100ED000042003420BD04D480069C008C0004B49B4
:100EE0000861084600690321084348490861082051
:100EF00003420BD045484069C008C00043494861DF
:100F000008464069022108434049486108201843C7
:100F10003849403148633E480460006835494862BA
:100F20003B48006840088861394800684008C8614B
:100F300037480068400808620815486155E03248A3
:100F400000680121490208432F490860CB20C000F6
:100F500018432649C863022003420BD02B48806AFD
:100F6000C008C000294988620846806A02210843F7
:100F700026498862042003420ED024488038006944
:100F8000C008C00021498039086108460069022173
:100F900008431E4980390861082003420ED01B48CF
:100FA0004038406BC008C0001849403948630846C3
:100FB000406B032108431549403948630820184312
:100FC0000A49403148631348046000680749486291
:100FD0001048006888610F4800684008C8610D48E3
:100FE0000068400808620815486130BD00400140B3
:100FF00008000010008001404C0000105400001058
:1010000050000010580000108080044080400440D0
:10101000600000105C000010002816D0002906D0E7
:10102000012907D0022908D003290CD108E0164B6A
:101030009A6109E0144BDA6106E0134B1A6203E08F
:10104000114B5A6200E000BF16E0002906D00129CA
:1010500007D0022908D003290CD108E00B4B9A6174
:1010600009E00A4BDA6106E0084B1A6203E0074B1D
:101070005A6200E000BF00BF7047C206D20E0121D5
:101080009140034A116070470080014000400140D8
:1010900000E100E0FE49C869C107C90F07D0FD495A
:1010A0000968491CFB4A11600121F94A11620221B9
:1010B000084207D0F8490968491CF74A1160022123
:1010C000F34A11620421084204D0F4490968491C1A
:1010D000F24A11607047F249C869C107C90F07D0C9
:1010E000F0490968491CEF4A11600121EC4A11627C
:1010F0000221084207D0EC490968491CEA4A1160FC
:101100000221E74A11620421084204D0E749096834
:10111000491CE64A1160704710B50446002C47D1BF
:10112000E348406801210843E1494860E0488030D5
:101130000068C9140843DE49803108600220486114
:10114000DC48006AC008C000DA4908620846006A44
:1011500001210843D74908620846406AC008C00018
:1011600048620846406A01210843D249486201208A
:10117000D04940310863CF490863CD4880300068CA
:1011800040210843CA4980310860CA484038C069D4
:10119000C008C000C7494039C861012202210020AF
:1011A000FFF78DFB012202210020FFF774FB54E0C2
:1011B000BF48406804210843BD494860BC488030AE
:1011C0000068012189040843B94980310860022080
:1011D000C861B848C069C008C000B649C8610846BF
:1011E000C06902210843B349C861B2484030C068B1
:1011F000C008C000AF494031C8600846C06802213D
:101200000843AC494031C860AA484038806AC008E9
:10121000C000A849403988620846806A0221084314
:10122000A44940398862A2488030006840210843C0
:101230009F49803108609F4840388068C008C000DE
:101240009C4940398860012200210220FFF737FBCA
:10125000012200210220FFF71EFB10BD10B504463D
:10126000002C69D1924840680121084390494860A8
:101270008F4880300068C91408438D498031086068
:10128000022048618B48006AC008C0008949086292
:101290000846006A01210843864908620846406AF8
:1012A000C008C00048620846406A012108438149DD
:1012B000486202207F49403108637E49C8607C480B
:1012C00080300068402108437949803108607948BE
:1012D0000068C008C000774908600122042102208C
:1012E000FFF7EDFA012204210220FFF7D4FA71483A
:1012F00040380068C008C0006E49403908600122CB
:1013000006210220FFF7DBFA012206210220FFF767
:10131000C2FA68484038006AC008C00065494039D0
:101320000862012207210220FFF7C9FA01220721E2
:101330000220FFF7B0FA54E05D48406804210843FA
:101340005B4948605A48803000680121890408439D
:101350005749803108600220C8615648C069C008FA
:10136000C0005449C8610846C06902210843514978
:10137000C86150484030C068C008C0004D49403185
:10138000C8600846C068022108434A494031C86025
:1013900048484038806AC008C000464940398862E1
:1013A0000846806A02210843424940398862404821
:1013B00080300068402108433D49803108603D4845
:1013C00040388068C008C0003A494039886001222E
:1013D00000210220FFF773FA012200210220FFF70B
:1013E0005AFA10BD70B5054600BF002D16D132481F
:1013F00027490860FE200861002404E02448806832
:10140000C6B2601CC4B2082CF8DB142000F003F94B
:1014100002201F4948600320486115E02648204902
:10142000086002200861002404E01D488068C6B2FC
:10143000601CC4B2082CF8DB0E2000F0ECF802208F
:10144000174948600320486170BDF8B507460D464E
:10145000164600980090002F30D1681E072109021F
:1014600008430B49086008460661002405E0084867
:101470008068C0B20090601CC4B2082CF7DB142056
:1014800000F0C9F8022002494860032048612FE0BB
:1014900000000440680000106C00001064000010A0
:1014A00000800540740000107800001070000010EB
:1014B000008004404040044007070000681E0721E8
:1014C000090208435749086008460661002405E000
:1014D00054488068C0B20090601CC4B2082CF7DB8E
:1014E0000E2000F098F802204E4948600320486121
:1014F000F8BD70B500BF00232DE0002815D100BF56
:10150000494DED6812263540022DF9D10D78464E31
:10151000B560491C00BF444DED6814263540042DCC
:10152000F9D1414DAD68ECB214E000BF3D4DED681E
:1015300012263540022DF9D10D783A4EB560491C7E
:1015400000BF384DED6814263540042DF9D1354DD6
:10155000AD68ECB25B1C9342CFD370BD30B50023B5
:101560001FE000280ED1FF242F4DAC6000BF2E4C91
:10157000E46814252C40042CF9D12B4CA4680C7081
:10158000491C0DE0FF24274DAC6000BF254CE468EA
:1015900014252C40042CF9D1224CA4680C70491C51
:1015A0005B1C9342DDD330BD0246002A19D100BF37
:1015B0001D48C068122318400228F9D11A488160DA
:1015C00000BF1948C06810231842FAD100BF16485E
:1015D000C068142318400428F9D11348806880B2E9
:1015E000704700BF0F48C068122318400228F9D185
:1015F0000C48816000BF0B48C06810231842FAD124
:1016000000BF0848C068142318400428F9D10548D1
:10161000806880B2E4E7C206D20E01219140034AFD
:1016200011607047008005400000044000E100E0C8
:1016300010B5012080074068C1B24807400F75D13E
:10164000CB1004F0D9FE0CB3071523AB393AB464C0
:10165000AC7496B30020AC4A1060AC48007801220C
:1016600092079060282090610120A94A1060A2E0B2
:101670000020A84A1060A5480078012292079060D7
:10168000282090610220A24A106094E0A0480068DF
:1016900001280DD19C4A1068421C9B4B1A609E4A3F
:1016A0001268125C01239B079A600420984A10601C
:1016B0000820C20690617EE000BF93480068974A08
:1016C000126890420ED2904A1068421C8E4B1A60EB
:1016D000914A1268125C01239B079A6004208C4A8D
:1016E000106010E08E480068002806D020204206D6
:1016F00010600320864A106005E00520844A1060CF
:101700001020820610600820C206906153E08448D1
:101710000068012803D104200207906102E0042040
:10172000020710600820C206906144E03EE00122FA
:1017300092079268D3B2774A1068421C754C2260B7
:10174000784A1268135420460068754A126890421D
:1017500005D204206E4A10600207106005E00520E3
:101760006B4A10600420020790610820C206906155
:1017700021E0012292079268D3B2664A1068421CA7
:10178000644C2260674A126813540520604A106056
:10179000102082061060082090610CE000BF082035
:1017A000C206906105205A4A106004E000BF08207C
:1017B000C206906100BF00BF10BD002100202022A2
:1017C00053061A600BE0524A1268012A01D1012027
:1017D00006E0554A914201D3002001E0491CF2E79E
:1017E00000BF70471020810608600820886100BF94
:1017F00001208007006810210842F9D101207047BC
:1018000002464A48406802231843484B58604748FC
:101810008030006820231843444B803318604448CC
:10182000006B80098001424B18631846006B01234E
:1018300018433F4B18631846406B8009800158637A
:101840001846406B01231843394B58636C201B0426
:101850009861FF20813058611861022A01D1500738
:10186000C16000BF0F20012383403248036000BFE6
:101870004020030618600120704700B5002024496D
:1018800008602449086020490860FFF796FF012896
:1018900003D0FFF7A7FF002000BD06E01C4800684A
:1018A000052802D1FFF79EFF00E0F7E700BF012007
:1018B000F2E770B504460D4616462046012108435E
:1018C0001249087017480560154806600120134941
:1018D0000860FFF7D2FF124800681149086070BD28
:1018E00070B504460D461646084804700A4805605F
:1018F0000A48066000200A490860FFF7BEFF074853
:1019000000680649086070BD8C000010A40000103B
:101910007C0000108800001094000010A00000104F
:101920009C00001098000010FFFFFF0000800440A2
:101930000040044000E100E030B5024600BFC04B6B
:101940001B680124E4032342F9D17F23BC4C63606C
:10195000531C236000BFBA4B1B680124E4032342DD
:10196000F9D118235343B74C1819B54B5B690124BF
:10197000A403234208D0B24B19691C466469B24DD6
:101980002C402404214303E0AD4B5B69DB04590D7B
:1019900002C0AB4B9B691B071B0F08C0A84BDB6940
:1019A00008C0A74B1B6A08C0A54B5B6A08C0A44BC4
:1019B0009B6A08C030BD70B500BF32E00120C00393
:1019C000064214D09E48803845684020054205D024
:1019D0009E480068401C9D49086070BD80200542FB
:1019E0001FD09B480068401C99490860F5E76807CC
:1019F000400F16D17404640C002C12D0202C10D887
:101A00008F4880384068102188438D49803948606C
:101A1000611EC8B2FFF790FF0121601E80008D4A51
:101A20001150874880380669002EC7D100BFD4E71F
:101A30000021002053E0F322814B803B5A620029B1
:101A40001AD100229A62844ADA6200221A63C21D05
:101A5000F93292000123DB031A43794B803B5A632E
:101A6000C207D20F02D17D4A9A6322E07C4A744BAE
:101A7000803B9A6301211CE07A4A714B803B9A6259
:101A8000794ADA6282B21A63012212058218120CB4
:101A900003239B031A436A4B803B5A63C207D20F4E
:101AA00002D16E4A9A6304E06D4A654B803B9A63AB
:101AB00000210022624B803BDA63614B403B1A609D
:101AC0005A609A60421C5E4B803B1A6200BF5C4ABF
:101AD000803A126A0123DB031A42F8D1401C202805
:101AE000A9D3704710B504466048406808210843F0
:101AF0005E4948605D488030006801214904084320
:101B00005A49803108604E4880380068C007C00FCD
:101B100007D14B4880380068012108434849803983
:101B20000860052052490860454880380068402117
:101B300008434349803908604E48C86000208861E6
:101B400008460068402188433D49803908600846BE
:101B5000006840084000086000BF394880380068CD
:101B6000C007C00FF9D1FFF763FF00BF0D200121AF
:101B700081404148016000BF3148803800680E2133
:101B800008432F498039086010BDF0B503460C4664
:101B9000002A01D100BFFEE702CA002C02D0CE000D
:101BA000B00800E0084620CA082D00D90825012603
:101BB000B60731420ED1860005277F033E43204FF2
:101BC000803F7E6300263E631F4EF61EFE620026A7
:101BD000BE620CE0060C07277F033E43184F803F90
:101BE0007E6386B23E63254EFE621E4EBE622E07A7
:101BF000360F2327FF013E43114F803FBE6340CA8B
:101C0000FE6340CA0E4F403F3E6040CA7E60166889
:101C1000BE60F7260A4F803F7E62002C02D09E1CD9
:101C20003E6203E05E1C064F803F3E6200BF044EF2
:101C3000803E366A0127FF033E42F8D1F0BD000026
:101C400080000540B8010010FF5F0000AC000010EC
:101C5000A800001038010010FC1F000088100000D0
:101C600088140000FFFF0000FF9F00000080044078
:101C7000800105400123000000E100E0FFDF0000DB
:101C800070B505466848806B1021884366498863B3
:101C9000664800680121490308436449086000243C
:101CA00004E00020A100624A5050641C082CF8D3C4
:101CB000604840698F2188435E4948610846406911
:101CC000012108435B4948615A484038C06A8F2166
:101CD000884358494039C8620846C06A0121084310
:101CE00054494039C862534880698F21884351491B
:101CF000886108468069012108434E498861294668
:101D00004D48006803F0E2FA401E00024B490843C8
:101D10004B49086070BD70B505464348806B102183
:101D200088434149886341480068012149030843C9
:101D30003E490860002404E00020A1003C4A5050C5
:101D4000641C082CF8D33B484038406B87218843FB
:101D50003849403948630846406B022108433549F9
:101D60004039486333480068872188433149086017
:101D700008460068022108432E49086029462E487B
:101D8000006803F0A3FA401E00022C4908432C49C6
:101D9000086070BD30B50146082900DB00212848E5
:101DA0000068000A0002264C2060204604680120DA
:101DB000884001252D06284304432148046007E09C
:101DC00088001F4C00190269D00FC00700D000E046
:101DD000F6E700BF1A48006807242406A043184C01
:101DE000206001208007024201D0002030BD100495
:101DF000830D1846FAE712480068072109060842D1
:101E000004D00F48006888430D4908600C480068FA
:101E1000FF2108430A4908600846006801210904B7
:101E200008430749086070470082044080800440EE
:101E3000B804001080400440080000100100200099
:101E400000C00140F1B582B0214884694069019029
:101E500020490298484300900199009803F036FA0F
:101E600007460199009803F031FA0D46002F0ED075
:101E700000260AE000BF16488069A042FBD300BFDD
:101E800013488069A042FBD8761CBE42F2D3002DD5
:101E90001DD0A54206D200BF0D488069611B884253
:101EA000FAD814E0A54205D100BF09488069A042D4
:101EB000FBD30CE000BF06488069A042FBD300BF03
:101EC000034881692A1B0198801A8142F8D8FEBD17
:101ED00000E000E080BB000010B5002203211046A6
:101EE000FEF7EDFC002204210120FEF7E8FC0022B1
:101EF00008210120FEF7E3FC002209210120FEF762
:101F0000DEFC00220A210120FEF7D9FC00220B2171
:101F10000120FEF7D4FC10BD10B508210120FEF70A
:101F2000C5FC002801D1012010BD09210120FEF7C8
:101F3000BDFC002801D10220F6E70A210120FEF7AE
:101F4000B5FC002801D10320EEE70B210120FEF7AC
:101F5000ADFC002801D10420E6E703210020FEF7B4
:101F6000A5FC002801D10520DEE704210120FEF7B1
:101F70009DFC002801D10620D6E70020D4E7000010
:101F800010B5012209210220FEF799FC0122092146
:101F90000220FEF780FC01220A210220FEF78FFCBE
:101FA00001220A210220FEF776FC01220B210220E9
:101FB000FEF785FC10BD70B50446202C01DBFF2424
:101FC00003E0E006C00E11490C5C0022092102204A
:101FD000FEF761FC002511E000220A210220FEF735
:101FE0005AFCE207D20F0B210220FEF754FC6410CA
:101FF00001220A210220FEF74EFC6D1C082DEBD3B6
:10200000012209210220FEF746FC70BDC8640000D1
:1020100000BF0146421ED0B20029FAD1704770B508
:102020000646002510E000230AE0002404E0CB204F
:10203000FFF7EEFF601CC4B20F2CF8DB581CC3B2D4
:10204000832BF2DB681CC5B2B542ECDB70BD10B56A
:102050000446002205210220FEF71DFC0022042177
:102060000220FEF718FC21460020FFF79DFA01220E
:1020700004210220FEF70FFC012205210220FEF7B9
:102080000AFC10BD10B50446012205210220FEF70E
:1020900002FC002204210220FEF7FDFB2146002065
:1020A000FFF782FA012204210220FEF7F4FB01224D
:1020B00005210220FEF7EFFB10BD70B50446254652
:1020C000E117090F091909110901611AC8B2FFF7CF
:1020D000BEFF2546E117090F0919091108461030FE
:1020E000FFF7B5FF70BD10B504462020FFF7AFFF26
:1020F0002046FFF7ACFF10BD70B505460C46212009
:10210000FFF7A5FF2846FFF7A2FF2046FFF79FFF36
:1021100070BD70B505460C462220FFF798FF284693
:10212000FFF795FF2046FFF792FF70BD10B50446FC
:102130002146402211430846FFF789FF10BD10B524
:1021400004468120FFF783FF2046FFF780FF10BD84
:1021500010B504468D20FFF77AFF21461022114367
:102160000846FFF774FF10BD10B504462146A022B3
:1021700011430846FFF76BFF10BD10B5044621461A
:10218000A42211430846FFF762FF10BD10B50446B4
:102190002146A62211430846FFF759FF10BD10B58E
:1021A0000446A820FFF753FF2046FFF750FF10BD5D
:1021B00010B504462146AE2211430846FFF747FFFB
:1021C00010BD10B504462146B02211430846FFF762
:1021D0003EFF10BD10B504462146C02211430846FB
:1021E000FFF735FF10BD10B50446D320FFF72FFFD2
:1021F0002046FFF72CFF10BD10B50446D520FFF791
:1022000026FF2046FFF723FF10BD10B50446D92056
:10221000FFF71DFF2046FFF71AFF10BD10B504465B
:10222000DA20FFF714FF2146022211430846FFF788
:102230000EFF10BD10B50446DB20FFF708FF204657
:10224000FFF705FF10BD10B5E320FFF700FF10BD3D
:1022500070B50646002410E02046FFF7B2FF0020CC
:10226000FFF72BFF002504E03046FFF70BFF681C4B
:10227000C5B2802DF8DB601CC4B2082CECDB70BD4D
:1022800010B50020FFF7E4FF10BDFFB581B00D468B
:1022900016461F462C4615E02046FFF792FF3846AB
:1022A000FFF70BFF0020009006E00198FFF7EAFE21
:1022B0000098401CC0B200900A9900988842F4DB54
:1022C000601CC4B2701C8442E6DB05B0F0BD70B582
:1022D000002413E02046FFF774FF0020FFF7EDFE17
:1022E000002507E05520FFF7CDFEAA20FFF7CAFE24
:1022F000681CC5B2402DF5DB601CC4B2082CE9DBBC
:1023000070BD70B50020FFF75CFF0020FFF7D5FE21
:10231000002404E00120FFF7B5FE601CC4B2802C4D
:10232000F8DB0720FFF74DFF0020FFF7C6FE002473
:1023300004E08020FFF7A6FE601CC4B2802CF8DB0E
:10234000002411E02046FFF73CFF002508E0284666
:10235000FFF7B3FEFF20FFF795FE28467F30C5B29A
:10236000802DF4DB601CC4B2082CEBDB70BDFFB524
:1023700081B007460D46012F02D0022F0BD104E099
:10238000A8002818FF49441805E0681E810040187D
:10239000FD49441800BF00BF0398FFF712FF0498DF
:1023A000FFF78BFE002605E02078FFF76BFE641C2C
:1023B000701CC6B2052EF7DB0020FFF763FE05B0E8
:1023C000F0BDFFB581B007460D461E462C4633468C
:1023D00060210120039AFFF7CAFF0CE02178334601
:1023E0003846039AFFF7C3FF641CB01DC6B22078BD
:1023F000002800D100E0F1E700BF05B0F0BDFFB557
:1024000083B005460E4617460295344619E020462D
:10241000FFF7D7FE0698FFF750FE002001900AE074
:1024200002990878FFF72EFE0298401C029001984E
:10243000401CC0B201900C9901988842F0DB601CEE
:10244000C4B2781C8442E2DB07B0F0BDFFB581B0B6
:102450000F4614460498203881004018C949451891
:102460000198FFF7AEFE002F0BD10020FFF725FEED
:10247000002C03D10020FFF705FE02E0FF20FFF74C
:1024800001FE791CC8B2FFF718FE00260DE0002CF3
:1024900003D12878FFF7F6FD04E02978C943C8B2D4
:1024A000FFF7F0FD6D1C701CC6B2052EEFDB002C93
:1024B00003D10020FFF7E6FD02E0FF20FFF7E2FD79
:1024C00005B0F0BDF8B506460F4614460025082EA7
:1024D00018DA08E023783A4629463046FFF7B6FF77
:1024E000A81D85B2641C2078002801D0012000E0DE
:1024F0000020691C89B2802901DA012100E0002155
:102500000842E7D1F8BDFFB581B015461F46A320AC
:10251000FFF79DFD0298FFF79AFD2846FFF797FD0C
:102520000198002802D0012825D111E000240CE0F8
:10253000E0B2FFF7FBFD002603E0C820FFF768FDCF
:10254000761C0A988642F8D3E419AC42F0D312E024
:1025500000240DE0291BC8B2FFF7E8FD002603E0C8
:10256000C820FFF755FD761C0A988642F8D3E41977
:10257000AC42EFD300BF00BF0020FFF7D7FD05B08E
:10258000F0BDF8B504460D4616461F4621462622E4
:1025900011430846FFF75BFD0020FFF758FD284672
:1025A000FFF755FD3846FFF752FD3046FFF74FFD68
:1025B0002F20FFF74CFD0698FFF731FDF8BDF8B569
:1025C00004460D4616461F46A320FFF740FD384639
:1025D000FFF73DFD0698FFF73AFD21462931C8B2C5
:1025E000FFF735FD0020FFF732FD2846FFF72FFDEE
:1025F0000898FFF72CFD3046FFF729FD0798FFF7F5
:1026000026FD2F20FFF723FD0998FFF708FDF8BDF1
:1026100010B52E20FFF71BFD10BD10B50120FFF7F0
:10262000C7FD00240CE0E0B2FFF789FDC820FFF7EA
:10263000EFFCC820FFF7ECFCC820FFF7E9FC641CA6
:10264000D02CF0D310BD10B5D0240DE0611EC8B25F
:10265000FFF775FDC820FFF7DBFCC820FFF7D8FCAB
:10266000C820FFF7D5FC641E002CEFD10020FFF737
:102670009FFD10BD10B50446002C02D0012C0ED1D8
:1026800006E00020FFF794FD0120FFF776FD06E04D
:102690000020FFF772FD0120FFF78AFD00BF00BF99
:1026A00010BD0120FFF769FD0BE00120FFF780FD61
:1026B0000220FFF7B4FC0020FFF77AFD0220FFF7AD
:1026C000AEFCF2E710B50020FFF772FD8020FFF7A7
:1026D00093FD3F20FFF763FD0020FFF784FD0020FE
:1026E000FFF724FD0020FFF733FD0220FFF7FBFC7E
:1026F0000120FFF739FD0820FFF76CFD1020FFF7E0
:102700008DFDCF20FFF71BFD2220FFF77EFD40202F
:10271000FFF790FD0020FFF730FD0020FFF736FDAA
:102720000020FFF795FD0120FFF742FD10BD10B519
:10273000012205210220FEF7C2F80020FFF738FD34
:102740008020FFF759FD3F20FFF729FD0020FFF70C
:102750004AFD0020FFF7EAFC0420FFF7F9FC022005
:10276000FFF7C1FC0120FFF7FFFC0820FFF732FD57
:102770001020FFF753FDCF20FFF7E1FCF120FFF71A
:1027800044FD03E0B86500006D6A00004020FFF7DB
:1027900051FD0020FFF7F1FC0020FFF7F7FC0020BF
:1027A000FFF756FD0120FFF703FD10BD8CB058A2C6
:1027B00007CA09AB07C359A001460EC9C0680793F1
:1027C000069205910890FFF7B2FFA0E03023009336
:1027D0002823052202215548FFF711FE0120FFF7AB
:1027E0001EFCFFF730FFFFF718FFFFF72CFFFFF786
:1027F00014FF0120FFF713FC202300930123402244
:1028000000210846FFF77FFE0120FFF708FC202388
:1028100000930123402200211846FFF774FE012097
:10282000FFF7FDFBFFF7F4FE0123002220200193B8
:10283000039302920090134611461046FFF7BFFE25
:10284000012300221F21202003936B4607C3134658
:1028500011461046FFF7B3FE02230022012120207B
:1028600003936B4607C31346032200210846FFF774
:10287000A6FE022300221F21202003936B4607C3DC
:102880001346032200210120FFF799FE02230022B4
:102890000121202003936B4607C31346072204211E
:1028A0000120FFF78CFE022300221F21202003932A
:1028B0006B4607C31346072204210020FFF77FFE63
:1028C000FFF7A6FEFF20FFF7C3FC0120FFF7A7FBE1
:1028D000FFF7FDFC0120FFF7A2FB0020FFF7B8FC8B
:1028E000FFF70FFD0120FFF79AFB2523032209A91B
:1028F0000120FFF766FD1623042205A90120FFF73A
:1029000060FD0A20FFF78BFB0020FFF7A1FC5DE7CD
:10291000354E49564953494F4E0000000B181816C2
:102920000D13170D1518161518160000F864000081
:10293000F3B587B00020BB4908600846076801224C
:1029400002210320FDF7BBFF002202210320FDF737
:10295000A2FF1E20FFF776FA012202210320FDF7D5
:102960009AFF002202210320FDF7A9FF00231A4647
:10297000022103200093FDF73CFE02210320FDF716
:1029800017FF002410E0E307DB0F009300231A4633
:1029900002210320FDF72DFE00BFA2480068B842C7
:1029A000FBD0A0480768641C032CECD3002471E022
:1029B0000123009300231A4602210320FDF719FE8C
:1029C00000BF98480068B842FBD096480768964810
:1029D0000068019000231A46022103200093FDF7AE
:1029E00008FE00BF8F480068B842FBD08D480768DA
:1029F0008D4801680198814204D28B490198096889
:102A0000461A05E0884801680198081A87490E1A95
:102A1000082C09D26806050E8548864239D3284617
:102A200001210843054634E0102C0BD206984006DD
:102A3000000E06907E4886422BD30121069808435B
:102A4000069026E0182C0BD205984006000E059043
:102A5000774886421DD3012105980843059018E068
:102A6000202C0BD204984006000E04907048864239
:102A70000FD301210498084304900AE0039840060C
:102A8000000E03906A48864203D30121039808434D
:102A90000390641C282C8BD30123009300231A4637
:102AA00002210320FDF7A5FD00BF5E480068B84283
:102AB000FBD0079805700799069848700899059803
:102AC00008700899049848700295029D0698281885
:102AD000C0B20290059902984018C0B202900499C1
:102AE00002984018C0B2029003990298884202D11D
:102AF000012009B0F0BD0020FBE730B589B000250A
:102B0000FFF7BEFB4BA200210846FFF7DBFC4CA001
:102B1000FDF7E0FB82E007A908A8FFF709FF0446DC
:102B2000002C28D008A843780093037848A21021ED
:102B300002A802F03BFA02AA00210220FFF7C2FC21
:102B40006846437F0093037F45A2102102A802F04C
:102B50002DFA02AA00210320FFF7B4FC08A842784E
:102B6000017843A0FDF7B6FB6846427F017F44A091
:102B7000FDF7B0FB02E046A0FDF7ACFB08A800782B
:102B800032280FDD002D0DD1012202210020FDF79A
:102B900082FE41A200210720FFF794FC44A0FDF72C
:102BA00099FB012508A800782D280FDA002D0DD0FB
:102BB000002202211046FDF76EFE43A200210720ED
:102BC000FFF780FC46A0FDF785FB0025C820FFF736
:102BD00039F9FFF7A1F9062800D120E0C820FFF756
:102BE00031F9FFF799F9062800D118E0C820FFF75E
:102BF00029F9FFF791F9062800D110E0C820FFF766
:102C000021F9FFF789F9062800D108E0C820FFF76D
:102C100019F9FFF781F9062800D100E07BE700BF32
:102C200009B030BD2C0000103000001080BB000047
:102C30001809000054656D7020262048756D00004D
:102C40000D0A54656D7020262048756D0D0A000030
:102C500054656D703A2025642E2564202000000004
:102C600048756D3A202025642E2564202000000040
:102C70000D0A54656D703A2025642E25640000000D
:102C80000D0A48756D3A202025642E256400000049
:102C90000D0A6661696C000054656D703E35302C1C
:102CA000205475726E206F6E2046414E0000000069
:102CB0000D0A54656D703E35302C205475726E20AF
:102CC0006F6E2046414E000054656D703C34352CCB
:102CD000205475726E206F66662046414E000000DB
:102CE0000D0A54656D703C34352C205475726E207D
:102CF0006F66662046414E0008B500210091012212
:102D000069468820FEF7ECFD012269468820FEF71F
:102D1000D0FD6846007808BD08B501210091012268
:102D200069468820FEF7DCFD012269468820FEF70F
:102D3000C0FD6846007808BD704708B500216846A8
:102D4000017080214170022269468820FEF7C8FD8B
:102D5000B048B149086001200004B049086008BDCE
:102D600038B5002404210091012269468820FEF72D
:102D7000B7FD012269468820FEF79BFD684604786E
:102D800005210091012269468820FEF7A9FD012254
:102D900069468820FEF78DFD6846007800020443EE
:102DA0009D48006844439D480168204602F08EFA21
:102DB0000446204638BD38B50546FFF79DFF04465A
:102DC00020460C2188430446A8002043C4B20021B9
:102DD000684601704470022269468820FEF780FD33
:102DE00038BD38B50446FFF787FF0546AD08AD008E
:102DF000284620430546002168460170457002229E
:102E000069468820FEF76CFD002C06D0012C09D005
:102E1000022C0CD0032C13D10EE0012000047F49BA
:102E200008600DE0012000037C49086008E0FF20F5
:102E300001307A49086003E010207849086000BF3B
:102E400000BF38BD38B50446FFF766FF0546284683
:102E50000C2188430546A0002843C5B201216846DD
:102E600001704570022269468820FEF739FD002C6A
:102E700006D0012C08D0022C0AD0032C10D10BE074
:102E80006448654908600BE065486349086007E0ED
:102E900064486149086003E063485F49086000BF17
:102EA00000BF38BD38B5044600255C490968614358
:102EB00008465949096802F009FA054602216846A0
:102EC00001702804010E684641700222694688207C
:102ED000FEF706FD38BD38B5044600254F490968A0
:102EE000614308464C49096802F0F0F905460321A0
:102EF000684601702804010E684641700222694646
:102F00008820FEF7EDFC38BD38B50546FFF704FF15
:102F10000446204620218843044620462843044690
:102F20000121684601704470022269468820FEF73C
:102F3000D7FC38BD10B5FFF7EFFE04462020204037
:102F4000400910BD38B5FFF7E7FE044620462021B2
:102F50008843044641216846017044700222694654
:102F60008820FEF7BDFC38BD38B5FFF7C5FE044626
:102F70002046802188430446002168460170447041
:102F8000022269468820FEF7ABFC20464021084318
:102F90000446002168460170447002226946882078
:102FA000FEF79EFC38BD10B586B0FFF769F91FA289
:102FB00000210846FFF786FA1EA0FDF78BF90021D5
:102FC0000120FEF71DFCFFF7B7FEFFF7B6FE01205C
:102FD000FFF738FF1AE0FFF7C3FE0446234618A2A6
:102FE0001421684601F0E2FF6A4600210220FFF743
:102FF00069FA214614A0FDF76DF9FF202D30FEF788
:1030000021FFFEF789FF062800D100E0E3E700BFBB
:1030100006B010BDCD030000B4000010B8000010D1
:10302000340F0000D03C000040F300004C6967689A
:10303000740000000D0A4C696768740D0A000000F6
:1030400025642020202000002564200008B50921E7
:103050000091012269463A20FEF742FC01226946AE
:103060003A20FEF726FC6846007808BD08B5162110
:103070000091012269463A20FEF732FC012269469E
:103080003A20FEF716FC6846007808BD38B50446BD
:103090001621684601704470022269463A20FEF704
:1030A0001FFC38BD10B50520FFF7F0FF10BDF8B5C7
:1030B00004460D46164600BFFFF7C8FFC007C00F05
:1030C000FAD006210091012269463A20FEF708FC59
:1030D000012269463A20FEF7ECFB6846007840B2D0
:1030E000207007210091012269463A20FEF7F8FB83
:1030F000012269463A20FEF7DCFB6846007840B2C0
:10310000287008210091012269463A20FEF7E8FB69
:10311000012269463A20FEF7CCFB6846007840B2AF
:103120003070F8BD70B505460024FFF79FFF0446D8
:1031300020460C2188430446A8002043C4B2204600
:10314000FFF7A4FF70BD70B505460024FFF78EFFA2
:103150000446A408A4002046284304462046FFF75E
:1031600095FF70BD70B58AB00024002500260021AF
:10317000039102910191FFF783F83BA200210846D9
:10318000FFF7A0F93AA0FDF7A5F800210120FEF70E
:1031900037FBFFF787FF01AA02A903A8FFF787FF04
:1031A00068460C2141564C42082141564D420421AB
:1031B00041564E4254E001AA02A903A8FFF777FF47
:1031C0006846007B001941B203916846007A4019B5
:1031D00041B2029168460079801941B20191684676
:1031E0000C23C35625A2142104A801F0DFFE04AA73
:1031F00000210220FFF766F968460C21415622A003
:10320000FDF768F868460823C35623A2142104A8D2
:1032100001F0CCFE04AA00210320FFF753F9684611
:10322000082141561FA0FDF755F868460423C356F0
:1032300020A2142104A801F0B9FE04AA0021042050
:10324000FFF740F96846042141561DA0FDF742F8FA
:10325000FA20FEF7F7FDFEF75FFE062800D100E03A
:10326000A9E700BF0AB070BD417869732D33000033
:103270000D0A417869732D330D0A00004163632004
:10328000783A2025642020000D0A41636320783AB3
:103290002025642C2020000041636320793A2025FA
:1032A0006420200041636320793A2025642C20208B
:1032B00000000000416363207A3A2025642020004A
:1032C000416363207A3A2025642E200010B5014620
:1032D0000C78641EE2B2002305E0CC5CAA2C01D17C
:1032E000541CE2B25B1C0C789C42F6D8087803E0D0
:1032F0008C5C6040541EE2B2002AF9D110BDF3B5D7
:1033000081B00D46802208210020FEF79EF80120A2
:10331000FEF798FD002207210220FDF7BCFA019874
:10332000FFF7D4FF0090AA210020FEF73DF901200D
:10333000FEF788FD0024BB210020FEF735F9285553
:10334000641C0120FEF77EFD00270AE00198C15DA4
:103350000020FEF729F92855641C0120FEF772FDB4
:103360007F1C01980078B842F0D800200099FEF741
:103370001BF92855641CFF20F530FEF763FD012082
:10338000287000210846FEF70FF90120FEF75AFDCC
:1033900000210846FEF708F9AA2806D002220821D3
:1033A0000020FEF752F80020FEBD0120FEF74AFD86
:1033B00000210846FEF7F8F8BB2806D002220821B3
:1033C0000020FEF742F80020EEE70120FEF73AFD6C
:1033D00001984078012806D0202806D0212806D060
:1033E000222808D105E00B2607E0072605E0132672
:1033F00003E0032601E0072600BF00BF00270024EA
:1034000009E000210846FEF7CFF828550120FEF715
:1034100019FD7F1C641CB742F3D30122072102204F
:10342000FDF739FA0120FEF70DFD022208210020E8
:10343000FEF70BF8E0B2B7E7F0B5CDB0022120A857
:1034400081850121C185C8A02C90C9A02D90CBA158
:103450002BA8C16078222FA96846FCF703FF2BA890
:103460000FC801F025FDFA20FEF7ECFC0022082130
:103470000220FDF724FA70E108210220FDF716FA78
:1034800000285DD1C820FEF7DDFC22A9BF48FFF768
:1034900036FF1F90BEA0FCF71DFF0025002429E089
:1034A0006C2C21DC22A8435DBAA2042120A801F0E3
:1034B0007DFD20A80378002221460620FEF7C6FFE6
:1034C000A01D84B220A84378002221460620FEF7E2
:1034D000BDFFA01D84B220A88378002221460620CB
:1034E000FEF7B4FFA01D84B222A8415DA9A0FCF79D
:1034F000F1FE6D1C1F988542D2D322A8FFF7E6FE8D
:10350000074620A8007A22A9085CB84208D1A3A2E5
:1035100000210720FEF7D6FFA2A0FCF7DBFE0CE09F
:10352000A2A200210620FEF7CDFFA6A200210720BF
:10353000FEF7C8FFA5A0FCF7CDFEC820FEF782FC71
:10354000FEF7EAFC06463046012E06D002281CD0C3
:10355000052833D006287ED1F0E020A8C08D0128B0
:1035600006DD20A8C08D401E81B220A8C18502E0E2
:1035700020A8818DC18578222FA96846FCF772FEAC
:103580002BA80FC801F094FCDDE020A8C18D808D30
:10359000814206DA20A8C08D401C81B220A8C185D6
:1035A00002E0012020A9C88578222FA96846FCF7EF
:1035B00059FE2BA80FC801F07BFCC4E020A8C08DE9
:1035C000012802D002287ED15AE022A96F48FFF7D5
:1035D00096FE1F906EA0FCF77DFE0025002429E0DA
:1035E0006C2C21DC22A8435D6AA2042120A801F0F2
:1035F000DDFC20A80378002221460620FEF726FFE6
:10360000A01D84B220A84378002221460620FEF7A0
:103610001DFFA01D84B220A8837800222146062029
:10362000FEF714FFA01D84B222A8415D59A0FCF74B
:1036300051FE6D1C1F988542D2D322A8FFF746FE8B
:10364000074620A8007A22A9085CB8420AD153A2F2
:103650000021072000E075E0FEF734FF51A0FCF7E1
:1036600039FE0CE051A200210620FEF72BFF55A2E7
:1036700000210720FEF726FF54A0FCF72BFE5BE09D
:1036800022A95448FFF73BFE1F9041A0FCF722FE01
:10369000002500242BE06C2C23DC22A8435D3DA2F6
:1036A000042120A801F082FC20A8037800222146F2
:1036B0000620FEF7CBFEA01D84B220A8437800228E
:1036C0002146062000E036E0FEF7C0FEA01D84B2D1
:1036D00020A88378002221460620FEF7B7FEA01D11
:1036E00084B222A8415D2BA0FCF7F4FD6D1C1F984D
:1036F0008542D0D322A8FFF7E9FD074620A8007A2B
:1037000022A9085CB84208D124A200210720FEF7B4
:10371000D9FE24A0FCF7DEFD0CE024A20021062047
:10372000FEF7D0FE27A200210720FEF7CBFE27A040
:10373000FCF7D0FD00E000BF00BF04E0002020A99E
:10374000C88500E000BF00BF002E06D020A8C08DB5
:10375000002802D0FA20FEF775FB20A8C08D0028B3
:1037600000D089E64DB0F0BD52464944000000004B
:10377000312E52656164204361726400322E5772AB
:10378000697465204361726400000000986C000059
:103790000D0A000025303258200000004F6B202019
:1037A000000000000D0A4F6B2000000020202020A8
:1037B0002020202020202020202020202020202009
:1037C000200000004661696C000000000D0A46619F
:1037D000696C2000A26C000070B504460D46002202
:1037E00011460220FDF757F8E800802210436200DE
:1037F000104301460120FDF7D7FE00210120FDF70F
:10380000D3FEC6B2012200210220FDF744F8304663
:1038100070BD10B502210020FFF7DEFF0446A406AC
:10382000A40E042C13D100210846FFF7D5FFF84958
:10383000F84A12888854F7480088401CF5490880E7
:1038400008460088802807DB0020088004E000216B
:103850000846FFF7C1FF044602210120FFF7BCFF25
:103860000446A406A40E042C13D100210120FFF766
:10387000B3FFE949E94A12888854E8480088401CA7
:10388000E649088008460088802807DB0020088079
:1038900004E000210120FFF79FFF044610BD70B532
:1038A00004460D461646002211460220FCF7F3FF9F
:1038B000E8006200104301460120FDF775FE314625
:1038C0000120FDF771FE012200210220FCF7E3FF39
:1038D00070BDF8B505460E46BF2203212846FFF706
:1038E000DEFF02212846FFF777FF0446204610211D
:1038F0000843024602212846FFF7D1FF0322114662
:103900002846FFF7CCFF01212846FFF765FF044654
:10391000204610218843024601212846FFF7BFFFB9
:1039200004212846FFF758FF04462046802188439B
:10393000024604212846FFF7B2FF832203212846CE
:10394000FFF7ADFF3146E120000301F0BFFC84B278
:10395000E2B200212846FFF7A2FF221201212846E9
:10396000FFF79DFF032211462846FFF798FF00212D
:103970002846FFF731FF002203210846FCF79FFF8E
:1039800000231A46032108460093FCF732FE032168
:103990000846FCF70DFF012211462846FFF77FFF7E
:1039A00000212846FFF718FFF8BD70B505460C4604
:1039B00000BF05212846FFF70FFF20210842F8D05D
:1039C000224600212846FFF76AFF70BD10B5044665
:1039D00021460020FFF7E9FF10BD10B5044604E0C2
:1039E00021780020FFF7E1FF641C20780028F7D140
:1039F00010BD10B5044621460120FFF7D6FF10BDCB
:103A000010B5044604E021780120FFF7CEFF641CC6
:103A100020780028F7D110BD0246002A17D180482F
:103A200000887C4B1B88984229D079487C4B1B88A6
:103A3000C05C08707A480088401C794B1880184692
:103A40000088802801DB002018800120704775481D
:103A50000088724B1B88984211D06F48714B1B88AD
:103A6000C05C08706F480088401C6E4B1880184678
:103A70000088802801DB002018800120E6E7002074
:103A8000E4E710B5044621460020FFF7C5FF10BD4E
:103A900010B5044621460120FFF7BEFF10BD70B5EA
:103AA000C6B00120FDF7DAFB022208210120FDF754
:103AB000CCFCE12149020120FFF70BFF032120A8E4
:103AC00001820121418258A0259059A026905EA133
:103AD00024A8C16061A10161782228A96846FCF789
:103AE000C1FB24A80FC801F0E3F90026FA20FEF775
:103AF000A9F918E11FA8FDF70DF8002803D018A8B0
:103B0000007FFFF776FF1FA8FFF7C2FF002867D0EE
:103B100018A8037F002231460720FEF797FCB01D4E
:103B200086B2782E00DD002618A8007FFCF7CAFFB9
:103B3000002404E020A9601C085C0855641C072CC4
:103B4000F8D318A8007F20A9085520A80078462897
:103B500021D120A8407841281DD120A880784E2866
:103B600019D120A8C078202815D120A800794F2885
:103B700011D120A840796E280DD120A88079202865
:103B800009D120A8C079202805D1012202210020D6
:103B9000FCF781FE24E020A80078462820D120A848
:103BA000407841281CD120A880784E2818D120A820
:103BB000C078202814D120A800794F2810D120A83F
:103BC000407966280CD120A88079662808D120A8E1
:103BD000C079202804D1002202211046FCF75BFEA8
:103BE000FEF79AF905462846012D06D002284FD047
:103BF000052867D0062875D186E020A8408A0128CC
:103C000038DD20A8408A401E81B220A8418234E0DD
:103C1000D8040010BC00001058050010C0000010AF
:103C2000BE000010C20000105A69674265650000BE
:103C3000312E53656E642048656C6C6F205A69673D
:103C40004265652100000000322E5475726E206FAF
:103C50006E206F746865722046414E00332E547595
:103C6000726E206F6666206F746865722046414EE2
:103C70000000000020A8018A4182782228A9684615
:103C8000FCF7F0FA24A80FC801F012F9002640E072
:103C900020A8418A008A814206DA20A8408A401C76
:103CA00081B220A8418202E0012020A94882782226
:103CB00028A96846FCF7D6FA24A80FC801F0F8F83E
:103CC000002626E020A8408A012804D002280AD035
:103CD000032816D10EE074A0FFF792FE76A0FCF741
:103CE000F9FA0FE014E07AA0FFF78AFE7BA0FCF758
:103CF000F1FA07E07DA0FFF783FE7FA0FCF7EAFA68
:103D000000E000BF00BF04E0002020A9488200E0DE
:103D100000BF00BF002D06D020A8408A002802D096
:103D2000FA20FEF78FF820A8408A002800D0E1E6AC
:103D300046B070BD30B5C1B00120FDF78FFA022248
:103D400008210120FDF781FBE12149020020FFF756
:103D5000C0FD032110A881870121C1876AA020909E
:103D60006BA0219070491FA8C160143101617822B5
:103D700023A96846FCF776FA1FA80FC801F098F847
:103D80000025FA20FEF75EF886E01EA8FCF7C2FECA
:103D9000002807D018A8007EFFF718FE18A8007E9C
:103DA000FCF790FE1EA8FFF76CFE00280FD018A8A5
:103DB000037E002229460720FEF748FBA81D85B296
:103DC000782D00DD002518A8007EFCF77BFEFEF7AD
:103DD000A3F80446012C06D0022C1DD0052C35D0AA
:103DE000062C4ED149E010A8C08F012806DD10A88E
:103DF000C08F401E81B210A8C18702E010A8818F39
:103E0000C187782223A96846FCF72CFA1FA80FC89F
:103E100001F04EF8002535E010A8C18F808F814257
:103E200006DA10A8C08F401C81B210A8C18702E03A
:103E3000012010A9C887782223A96846FCF712FA46
:103E40001FA80FC801F034F800251BE010A8C08F90
:103E5000012802D002280DD106E034A0FFF7BDFDF5
:103E600036A0FCF737FA06E03AA200210720FEF759
:103E700029FB00E000BF00BF04E0002010A9C887B4
:103E800000E000BF00BF002C06D010A8C08F0028A3
:103E900002D0FA20FDF7D6FF10A8C08F002800D06E
:103EA00073E741B030BD000048656C6C6F205A6903
:103EB000674265652120000053656E643A204865BD
:103EC0006C6C6F205A696742656521200000000014
:103ED00046414E204F6E20200000000053656E6466
:103EE0003A2046414E204F6E2020000046414E2091
:103EF0004F6666200000000053656E643A2046411C
:103F00004E204F666620000052532D343835000095
:103F1000312E53656E642048656C6C6F2052532DB2
:103F20003438352100000000483C000048656C6CC6
:103F30006F2052532D3438352120000053656E64B4
:103F40003A2048656C6C6F2052532D34383521204F
:103F500000000000202020202020202020202020E1
:103F600020202020202020202000000010B5CF4855
:103F70000068401CCD490860084600680146FF39CA
:103F8000F53913D1002201210320FCF784FCC84835
:103F90000078FEF710F8C6480078401CC449087045
:103FA00008460078C006C00E08700DE0BF480068E3
:103FB0007D21C900884207D3012211460320FCF766
:103FC0006AFC0020B949086010BDC0B0FCF7DCF9FC
:103FD000FCF7FBFA0320FCF721FAB6480069C00899
:103FE000C000B44908610846006901210843B1498D
:103FF0000861012200210320FCF761FC012200215D
:104000000320FCF748FC012211460320FCF757FC73
:10401000012211460320FCF73EFC01220221002070
:10402000FCF74DFC002202211046FCF734FCA148AD
:104030004030C06BC008C0009E494031C86308468C
:10404000C06B012108439B494031C86301221146DE
:104050001046FCF734FC012211461046FCF71BFC0D
:10406000FDF78EFF2020FDF7A6FFFDF735FF00BF0F
:1040700091489249884200D90EE08F48401E9049ED
:10408000486107210020C04300F0D8F800208C4987
:1040900088610720086100BFE1204002FCF79EFC18
:1040A00088A0FCF717F9002211460320FCF7F3FB68
:1040B000002201210320FCF7EEFBC820FDF7C2FE21
:1040C000012200210320FCF7E6FB01221146032018
:1040D000FCF7E1FB0020FDF7C1F8022208210020D7
:1040E000FDF7B3F9FEF723FB0B2110A8018701218F
:1040F000418778A01F9079A020907AA11EA8C16066
:104100007BA101617CA141617FA1816181A1C1612C
:1041100083A1016284A1416285A1816287A1C162FC
:1041200089A10163782222A96846FCF79BF81EA8A2
:104130000FC800F0BDFEFA20FDF784FE7DE0FDF71C
:10414000EBFE0446012C06D0022C1CD0052C33D0EB
:10415000062C6AD15FE010A8408F012806DD10A868
:10416000408F401E81B210A8418702E010A8018F45
:104170004187782222A96846FCF774F81EA80FC868
:1041800000F096FE52E010A8418F008F814206DABF
:1041900010A8408F401C81B210A8418702E0012086
:1041A00010A94887782222A96846FCF75BF81EA868
:1041B0000FC800F07DFE39E010A8438F02F01CF913
:1041C0000C28070A0D101316191C1F22252800F0B1
:1041D00041FC1EE000F0CBFC1BE000F04BFD18E0C2
:1041E000FEF78BFC15E0FEF7DEFE12E0FEF7BAFFED
:1041F0000FE000F0C2FD0CE0FFF71EF909E0FFF749
:104200004EFC06E0FFF796FD03E000F0F0F900E059
:1042100000BF00BF0AE0782222A96846FCF722F816
:104220001EA80FC800F044FE00E000BF00BF002C35
:1042300002D0FA20FDF706FE30BF80E710B5002857
:1042400019DA434A03071B0F083B9B089B00D2580F
:104250008307DC0EFF23A3409A434B071B0E840702
:10426000E40EA3401A433A4B0407240F083CA40869
:10427000A4001A5118E0374A03231B02D2188308FE
:104280009B00D2588307DC0EFF23A3409A434B07C1
:104290001B0E8407E40EA3401A432E4B0324240272
:1042A0001B198408A4001A5110BD0000C40000109E
:1042B000C80000100040044080BB0000FFFFFF006A
:1042C00000E000E00D0A0D0A46535F3131433134FE
:1042D0000D0A00004D61696E00000000312E204C77
:1042E00045440000322E20537065616B65720000FA
:1042F000332E2046616E0000342E2054656D7020F0
:10430000262048756D000000352E204C69676874C2
:1043100000000000362E20417869732D3300000024
:10432000372E204144430000382E20524649440095
:10433000392E205A696742656500000031302E52DF
:10434000532D34383500000031312E43414E0000EA
:104350001CED00E000E100E010B50446FD484474A7
:10436000FD48006800688068C168FA488847012CE9
:104370000ED10220F749487408460068FF3001302A
:104380000860F5480068006880680169F14888475E
:1043900010BD7047704701204002F04908600820B6
:1043A000486001208860EE49EC48C160ED49016138
:1043B000ED49416104E0E94A00210846FDF7E5FBCB
:1043C000F9E7002404E00020A100E84A5050641CF2
:1043D000202CF8D315E0002411E0A000E349085890
:1043E00001280BD118216143DC4BCA18E0B201212E
:1043F000FDF7CBFB0020A100DC4A5050641C202CB0
:10440000EBD3E8E730B5C1B0D348006800688068F6
:1044100001210268D648904700BF0D20012181404C
:10442000D448016000BF032110A881870121C18702
:10443000D1A02090D1A02190D5A11FA8C160D9A161
:104440000161782223A96846FBF70CFF1FA80FC85B
:1044500000F02EFD0025FA20FDF7F4FCC0E0D7485F
:1044600040681021084221D0D44840688843D3498D
:1044700048600120D2494874800208600720000289
:1044800048602020CF4908722021CE4841728172B5
:104490002D21C1720173417381730021C173AE4834
:1044A0000068006880688168C54888470021C44862
:1044B000C173002413E0C2480830035D002229467E
:1044C0000720FDF7C3FFA81D85B2782D00DD00256C
:1044D000BB490831085DFCF7F5FA601C84B2082C72
:1044E000E9DBFDF719FD0446012C06D0022C1DD096
:1044F000052C35D0062C68D163E010A8C08F0128A8
:1045000006DD10A8C08F401E81B210A8C18702E04E
:1045100010A8818FC187782223A96846FBF7A2FEE5
:104520001FA80FC800F0C4FC00254FE010A8C18FE1
:10453000808F814206DA10A8C08F401C81B210A87B
:10454000C18702E0012010A9C887782223A9684604
:10455000FBF788FE1FA80FC800F0AAFC002535E075
:1045600010A8C08F012802D0022827D125E0002002
:1045700094494874012080020860002048600820A7
:1045800008744820087269218E4841722021817286
:104590004321C172412101734E2141732121817355
:1045A0000021C1736C480068006880680169854813
:1045B000884785A0FBF78EFE01E000E000BF00BF4A
:1045C00004E0002010A9C88700E000BF00BF002C55
:1045D00006D010A8C08F002802D0FA20FDF732FCC8
:1045E00010A8C08F002800D039E741B030BDF0B529
:1045F000C1B0002404E00020A1005C4A5050641CBB
:10460000202CF8D3FF200430FDF76CFA032110A80A
:1046100081870121C18758A0209058A021905CA1DA
:104620001FA8C1605FA10161782223A96846FBF73A
:1046300019FE1FA80FC800F03BFC0025FA20FDF76B
:1046400001FCC5E1002418E1A000484908580128F0
:104650007ED100263AE018206043404940180830D7
:10466000B1004058C3B2002229460720FDF7EEFEF4
:10467000A81D85B2782D00DD00251820604337493C
:1046800040180830B10040580004030E00222946AB
:104690000720FDF7DBFEA81D85B2782D00DD002583
:1046A000182161432D4A89180831B2008958C8B2CF
:1046B000FCF708FA18216143284A89180831B2002A
:1046C00089580904080EFCF7FDF9761C042EC2D3A4
:1046D00018206043214940188068C0B2462838D16C
:1046E00018206043401880680004000E41287AD1E9
:1046F000182060434018C068C0B24E2873D11820FB
:1047000060434018C0680004000E20286BD11820B8
:10471000604340180069C0B24F2864D1182060433C
:10472000401800690004000E6E285CD11820604318
:1047300040184069C0B2202855D118206043401865
:1047400040690004000E20284DD10122022143E0DF
:1047500092E048E0D8050010CC000010B80100102D
:1047600003020000050400000706000038010010E5
:10477000D000001000E100E043414E00312E5365AF
:104780006E642048656C6C6F2043414E2100000030
:10479000322E5475726E206F6E206F7468657220B1
:1047A00046414E00332E5475726E206F6666206F40
:1047B000746865722046414E00000000000005400C
:1047C00000060010EC05001053656E643A2048693D
:1047D0002043414E210000000020FCF75CF880A03F
:1047E000FBF778FD44E01820604381494018806859
:1047F000C0B246283CD118206043401880680004AD
:10480000000E412834D1182060434018C068C0B25F
:104810004E282DD1182060434018C0680004000EB7
:10482000202825D11820604340180069C0B24F28C5
:104830001ED118206043401800690004000E66284D
:1048400016D11820604340184069C0B266280FD1C5
:1048500018206043401840690004000E202807D14A
:10486000002202211046FCF716F862A0FBF732FD89
:104870000020A100634A5050641C202C00D2E3E6C3
:10488000FDF74AFB0746012F06D0022F1DD0052F4A
:1048900035D0062F7ED18CE010A8C08F012806DD10
:1048A00010A8C08F401E81B210A8C18702E010A8D6
:1048B000818FC187782223A96846FBF7D3FC1FA804
:1048C0000FC800F0F5FA002578E010A8C18F808F9E
:1048D000814206DA10A8C08F401C81B210A8C1879F
:1048E00002E0012010A9C887782223A96846FBF7B7
:1048F000B9FC1FA80FC800F0DBFA00255EE010A885
:10490000C08F012804D002281AD003284ED131E0EC
:10491000FF20023036490860082048603A48886025
:104920003A493348C1603A4901613A494161024616
:1049300000210846FDF729F937A0FBF7CBFC36E04C
:10494000FF2002302A490860082048603648886005
:1049500030492D312648C160344901612D49491E35
:104960004161024600210846FDF70FF930A0FBF730
:10497000B1FC1CE0FF2002301D490860082048609F
:104980002948886023492D311948C1602C490161AB
:10499000204900E011E0453141610246002108460E
:1049A000FDF7F3F827A0FBF795FC00E000BF00BF80
:1049B00004E0002010A9C88700E000BF00BF002F5E
:1049C00006D010A8C08F002802D0FA20FDF73AFACE
:1049D00010A8C08F002800D034E641B0F0BD000020
:1049E0000D0A5475726E206F6E2046616E000000D5
:1049F000B80100100D0A5475726E206F666620466D
:104A0000616E00003801001048690000204300007A
:104A1000414E00002120000053656E643A20486931
:104A20002043414E21200000464100004F6E00000F
:104A300053656E643A2046414E204F6E20200000A0
:104A40004F66000053656E643A2046414E204F6623
:104A50006620000010B5C0B0022110A80187012116
:104A60004187E5A01F90E5A02090E8A11EA8C160A5
:104A7000782222A96846FBF7F5FB1EA80FC800F0B4
:104A800017FAFA20FDF7DEF96BE0FDF745FA044668
:104A9000012C06D0022C1CD0052C33D0062C55D16D
:104AA00050E010A8408F012806DD10A8408F401E5E
:104AB00081B210A8418702E010A8018F41877822B7
:104AC00022A96846FBF7CEFB1EA80FC800F0F0F93C
:104AD0003DE010A8418F008F814206DA10A8408F78
:104AE000401C81B210A8418702E0012010A948872C
:104AF000782222A96846FBF7B5FB1EA80FC800F074
:104B0000D7F924E010A8408F012802D0022816D13E
:104B10000AE0002211460320FBF7BDFE002201211E
:104B20000320FBF7B8FE0BE0012200210320FBF776
:104B3000B2FE012211460320FBF7ADFE00E000BFEC
:104B400000BF04E0002010A9488700E000BF00BFBC
:104B5000002C06D010A8408F002802D0FA20FDF7C4
:104B600071F910A8408F00288FD140B010BD10B54A
:104B7000C0B0022110A8018701214187A7A01F9082
:104B8000A8A02090ACA11EA8C160782222A96846E6
:104B9000FBF768FB1EA80FC800F08AF9FA20FDF7A2
:104BA00051F961E0FDF7B8F90446012C06D0022C5A
:104BB0001CD0052C33D0062C4BD146E010A8408FDA
:104BC000012806DD10A8408F401E81B210A8418741
:104BD00002E010A8018F4187782222A96846FBF7DE
:104BE00041FB1EA80FC800F063F933E010A8418F05
:104BF000008F814206DA10A8408F401C81B210A8B5
:104C0000418702E0012010A94887782222A968463E
:104C1000FBF728FB1EA80FC800F04AF91AE010A8FD
:104C2000408F012802D002280CD105E0002201218A
:104C30000846FBF730FE06E0012211461046FBF75E
:104C40002AFE00E000BF00BF04E0002010A9488752
:104C500000E000BF00BF002C06D010A8408F002845
:104C600002D0FA20FDF7EEF810A8408F002899D165
:104C700040B010BD10B5C0B0022110A801870121BD
:104C8000418772A01F9072A0209075A11EA8C160DC
:104C9000782222A96846FBF7E5FA1EA80FC800F0A3
:104CA00007F9FA20FDF7CEF861E0FDF735F9044683
:104CB000012C06D0022C1CD0052C33D0062C4BD155
:104CC00046E010A8408F012806DD10A8408F401E46
:104CD00081B210A8418702E010A8018F4187782295
:104CE00022A96846FBF7BEFA1EA80FC800F0E0F83C
:104CF00033E010A8418F008F814206DA10A8408F60
:104D0000401C81B210A8418702E0012010A9488709
:104D1000782222A96846FBF7A5FA1EA80FC800F062
:104D2000C7F81AE010A8408F012802D002280CD141
:104D300005E0012202210020FBF7ADFD06E0002284
:104D400002211046FBF7A7FD00E000BF00BF04E012
:104D5000002010A9488700E000BF00BF002C06D04B
:104D600010A8408F002802D0FA20FDF76BF810A899
:104D7000408F002899D140B010BD10B588B0FDF724
:104D80007FFA3BA200210846FDF79CFB39A0FBF708
:104D9000A1FA3A48FCF7BFFF28E00020FCF7FAFF31
:104DA0000446234636A2152101A800F0FFF801AA07
:104DB00000210220FDF786FB214634A0FBF78AFA8A
:104DC0000320FCF7E7FF0446234633A2102101A885
:104DD00000F0ECF801AA00210320FDF773FB214647
:104DE00030A0FBF777FAFA20FDF72CF8FDF794F8DE
:104DF0000628D2D108B010BD4C454400312E547560
:104E0000726E206F6E204C4544000000322E5475A7
:104E1000726E206F6666204C4544000053706561D9
:104E20006B657200312E5475726E206F6E20537058
:104E300065616B6572000000322E5475726E206FD2
:104E4000666620537065616B6572000046414E00D6
:104E5000312E5475726E206F6E2046414E00000058
:104E6000322E5475726E206F66662046414E0000E9
:104E7000414443000D0A4144430D0A00009F2400B1
:104E8000414443303A202564202020000D0A41444B
:104E900043303A2025640000414443333A202564DE
:104EA000202020000D0A414443333A2025640000AD
:104EB0000FB470B56946498A481E062100F010FA01
:104EC00085B2681C0621484384B26946088AA0421C
:104ED00001DD052606E06946098A481E062100F024
:104EE000FFF98EB2FDF7CCF900210846059AFDF7CF
:104EF000E9FA5023002266211046FDF7A7FA67233E
:104F000000226C211046FDF7A1FA20230022722115
:104F10001046FDF79BFA28463130C3B200227821B3
:104F20001046FDF793FA002420E06846418A0620E7
:104F300068430019401C81420BD1062169430919BD
:104F40008B0006A9CA58A11CC8B20121FDF7BAFA04
:104F50000AE00621694309198B0006A9CA58A11C59
:104F6000C8B20021FDF7AEFA601C84B2B442DCDDA9
:104F700070BC08BC04B018477CB515461A460C0036
:104F8000009001D00019401E074B7B4469460190F8
:104F9000284600F0F2FA002C054603D069460020AE
:104FA00000F0FEFA28467CBD1D0600000FB47CB55B
:104FB0000C0009AA009001D00019401E094B7B4447
:104FC00069460190089800F0D8FA002C054603D0F5
:104FD0006946002000F0E4FA28467CBC08BC04B016
:104FE00018470000E905000070B5044685690068AF
:104FF0003026C10600D42026C00707D070BD6268E5
:105000003046A1689047206A401C20626D1EF6D58C
:1050100070BD70B5044685690068C00707D170BDD2
:105020006268A16820209047206A401C20626D1EA3
:10503000F6D570BDF7B5002675291068009914A53E
:1050400011D000F0F0F9002802DA404211A508E082
:10505000009909688A0701D50FA502E0490704D520
:105060000EA5012601E000F0E7F9009F0024243797
:1050700004E000F085FB30313955641C0028F8D17C
:1050800033462A462146009800F008FAFEBD00008B
:10509000000000002D0000002B0000002000000098
:1050A000F8B50F460168090502D5224C7C4402E0A0
:1050B000204C7C440E3405460021243508E01607B8
:1050C0001209360FA65D6E541E07491C32431B0998
:1050D00016461E43F3D1224604680023240705D553
:1050E000702F06D0002901D01132022300F0D6F92A
:1050F000F8BD10320123F9E770B504460D4621468C
:10510000106800F099F90023024629462046FFF76F
:10511000C7FF70BDD21DD308DB000CCBC0E730B495
:10512000036820241268234303600823C36130BC52
:105130000023B5E70C1C0000F3B50546002081B044
:10514000BEE0E96828468847002876D0252802D0A6
:105150006A68A968B1E05C4F00267F442846E96888
:1051600088472028044608DB312C06D2381920381D
:105170000078002801D00643F0E7B00701D50420ED
:1051800086430020E8610746A8612A2C0BD02146FF
:10519000012230390A292BD2002A29D0B80040191F
:1051A0000090816119E00298BA00521902C8916119
:1051B00002902846E9688847012F04461AD1E86919
:1051C000002822DA202086431FE000980A21806907
:1051D000484300990019303888612846E9688847B3
:1051E00004460120214630390A2901D20028ECD199
:1051F000012F0AD02E2C08D12846E968884704469A
:10520000202006437F1C022FBFDBA869002803DA99
:105210004042A86101200643F00701D010208643D8
:105220006C2C0BD0682C09D04C2C38D06A2C36D082
:10523000742C34D07A2C32D016E043E0E96827464B
:1052400028468847B842044609D180206C2F00D0F8
:10525000C000E968064328468847044604E0402029
:105260006C2F00D080000643002C2BD02046413804
:10527000192803D80120C0020643203428462E6096
:105280002146029A1646FAF759FF002812D0012843
:105290000DD0F61DF008C0000830029051E7002044
:1052A0004C2CD6D080206A2CD3D00020D1E7361DDC
:1052B000029646E76A682046A9689047286A401C1B
:1052C00028623EE7286AFEBD861B00000022030913
:1052D0008B422CD3030A8B4211D300239C464EE011
:1052E00003460B433CD4002243088B4231D30309CD
:1052F0008B421CD3030A8B4201D394463FE0C3097F
:105300008B4201D3CB01C01A524183098B4201D396
:105310008B01C01A524143098B4201D34B01C01A81
:10532000524103098B4201D30B01C01A5241C308F9
:105330008B4201D3CB00C01A524183088B4201D368
:105340008B00C01A524143088B4201D34B00C01A54
:105350005241411A00D201465241104670475DE069
:10536000CA0F00D04942031000D3404253400022EC
:105370009C4603098B422DD3030A8B4212D3FC2295
:10538000890112BA030A8B420CD3890192118B4214
:1053900008D3890192118B4204D389013AD092112A
:1053A00000E08909C3098B4201D3CB01C01A5241E5
:1053B00083098B4201D38B01C01A524143098B42AE
:1053C00001D34B01C01A524103098B4201D30B0197
:1053D000C01A5241C3088B4201D3CB00C01A5241BC
:1053E00083088B4201D38B00C01A5241D9D24308A3
:1053F0008B4201D34B00C01A5241411A00D20146E0
:10540000634652415B10104601D34042002B00D549
:105410004942704763465B1000D3404201B500200B
:10542000C046C04602BD09684A0501D540B2704772
:10543000C905FCD500B2704709684A0501D5C0B25C
:105440007047C905FCD580B2704770B505460C465B
:10545000012A05D02868800600D5EA69002302E009
:10546000012305E05B1C934202D2E05C0028F9D1E5
:10547000A869E618C01AA861286AC01828622846D8
:10548000FFF7B2FD04E06A682078A968641C9047C1
:10549000B442F8D32846FFF7BCFD70BDFFB5044603
:1054A0000D4681B0243000902168880604D5102272
:1054B000E0699143216000E001200027A84200DD5F
:1054C000471B0498A1697A191018081AA06120686E
:1054D000C00602D42046FFF787FD002608E00398A7
:1054E0006268A168805D9047206A401C761C20623B
:1054F00004988642F3DB2068C0060AD52046FFF7F1
:1055000073FD06E06268A16830209047206A401C65
:10551000206238467F1E0028F4DC07E000986268AD
:10552000A168405D9047206A401C206228466D1E9D
:105530000028F3DC2046FFF76CFD216802200906F5
:1055400000D4012005B0F0BD11680268006A53055F
:1055500001D508700AE0D30501D5088006E01306DE
:1055600002D5C21705C101E052060860012070474C
:1055700001694A1C02610878704700B58FB002913A
:105580000021059105490193794403911146049046
:105590006846FFF7D1FD0FB000BD0000E5FFFFFF3B
:1055A0000A681070521C0A6070474B680A689A4279
:1055B00002D2531C0B60107070470000084B70B58E
:1055C0000C467B44FFF7D9FF05462046FBF701FB5D
:1055D000002802D00020C04370BD284670BD0000E6
:1055E000C1B5FFFFF7B50446154686B02B4979448F
:1055F000002703C93E460090019111E007986A46D2
:105600007100415A02A800F03DFB411C07D02168FF
:10561000890603D5E269391891420ED83F18761CE5
:105620002068800602D5E069B84206DDAE42E5DBBF
:1056300007987100405A0028E0D1A069C01BA06102
:105640002046FFF7D1FC154979445A3903C9009027
:105650000020019116E041006A460798415A02A8CD
:1056600000F010FB0590401C0AD0002505E06268A0
:1056700002A8A168405D90476D1C05988542F6D34D
:105680000498401CB0420490E5DB206AC0192062F7
:105690002046FFF7BEFC09B0F0BD00000617000071
:1056A000F7B5D21D0026D20815A5D200F52905CAE6
:1056B00011D0002A05DA00214042914111A50A4685
:1056C00008E0009909688B0701D50FA502E049079A
:1056D00001D50EA501261146009F0024243704E0C1
:1056E00000F062F830323A55641C02460A43F7D1A2
:1056F00033462A4621460098FFF7D0FEFEBD000043
:10570000000000002D0000002B0000002000000021
:1057100070B504460021243408E05507D2086D0F07
:10572000303565545D07491C2A43DB0815461D4387
:10573000F3D10468002310A2250708D520252C40AA
:105740000C4304D0C46901230CA2641EC461FFF79A
:10575000A5FE70BD10B5044621461068FFF76CFE2B
:10576000002302462046FFF7D3FF10BDD21DD1080B
:10577000C9000CC9CCE700000000000030000000A8
:1057800001468008081A02091018020A1018020CB3
:105790001018C008820012185200891A01E00A3954
:1057A000401C0A29FBD270470B4670B502461D46C5
:1057B0008907800808439C08111AA5410C0928078D
:1057C0000443280964186841250A01060D43010AAB
:1057D0002C194141200C0D0428430D0C00194D419A
:1057E000002140194D41C00869070843E908840FAA
:1057F0008D002543840024184D4124196D41121B4E
:10580000AB4107E00925ED432C11521963410024F7
:10581000401C61411C460A250026551BB441F1D2AB
:1058200070BD00007047FFB50C461E468DB003CA20
:10583000069007914F007D0D00D16D1E0021084696
:105840000020C0460321079A89050840002A03DA90
:105850008200801840080840800D0128089002DD71
:105860000020C0430890069807432CD0EB48EC4931
:10587000281848430714089840420B9016980028AF
:1058800039D075420B9A291E00DC089A002900DAEB
:10589000694203A800F086FA0699079800F0E8FA32
:1058A00001910146DF4802920918002D009125DD83
:1058B000DC4903984942401803906846089A03A9B6
:1058C00000F002FD22E01698012802D000203021CD
:1058D00004E00020F24305E02154401CB042FBDB11
:1058E00030460022169B002121540D998B600A60DE
:1058F000486011B0F0BDBD1B6D1CC3E703990818CB
:1059000003906846089A03A900F0ACFC00900004DC
:105910000292000C019103D00020C043410800E036
:105920001046169A002A03D00022009215461EE067
:10593000751E05D4FFF738FF303262556D1EF9D55C
:1059400001220843099602D000227F1C04E020783F
:10595000302801D100227F1E002A0A978ED01EE037
:10596000112D07DAFFF720FF303262556D1C024619
:105970000A43F5D108430FD10021681E05E0235CDE
:10598000625C6354491C2254401E8142F7DBA81B11
:10599000401E09950A9002E0009800280AD0099A52
:1059A00016990020A0540D980A9B099A0360426042
:1059B00081609EE71126002016905FE7D21DF0B5AA
:1059C0000D460446D10895B0C90003C91090119145
:1059D00000F020FD02461198C10F2D20002906D1AC
:1059E00021682B208B0702D44807C00F4001032AEF
:1059F0000F9001D0072A05DB03462946204600F018
:105A00008FF908E12068800601D5E76900E00627E4
:105A100028461121652D04D0662810D0672D64D149
:105A200028E00023112F009300DA791C0B4610AAFE
:105A300003A90BA8FFF7F7FE00267D1C3EE001201E
:105A40000123C0070E9010AA03A90BA800933B46A0
:105A5000FFF7E9FE0D980C9D0026002802D10B9956
:105A6000781C0D18781B02D44642761E7D1CE81B5C
:105A700000903AE0012F00DA01270023112F009354
:105A800000DC39460B4610AA03A90BA8FFF7CBFE92
:105A900020683D46002600070BD40C98A84200DA87
:105AA000054603A8012D04DD41192039C97F30299D
:105AB00008D00B98B84201DA011D05DA01200090E8
:105AC0000B9811E06D1EEDE7002802DC86192D1AF7
:105AD00004E0401CA84201DD0B9D6D1C0B98801B4F
